{
  "_format": "hh-sol-artifact-1",
  "contractName": "PharmaChain",
  "sourceName": "contracts/PharmaChain.sol",
  "abi": [
    {
      "anonymous": false,
      "inputs": [
        {
          "indexed": true,
          "internalType": "uint256",
          "name": "batchId",
          "type": "uint256"
        },
        {
          "indexed": true,
          "internalType": "address",
          "name": "distributor",
          "type": "address"
        }
      ],
      "name": "BatchAssignedToDistributor",
      "type": "event"
    },
    {
      "anonymous": false,
      "inputs": [
        {
          "indexed": true,
          "internalType": "uint256",
          "name": "batchId",
          "type": "uint256"
        },
        {
          "indexed": true,
          "internalType": "address",
          "name": "provider",
          "type": "address"
        }
      ],
      "name": "BatchAssignedToProvider",
      "type": "event"
    },
    {
      "anonymous": false,
      "inputs": [
        {
          "indexed": true,
          "internalType": "uint256",
          "name": "batchId",
          "type": "uint256"
        },
        {
          "indexed": true,
          "internalType": "address",
          "name": "manufacturer",
          "type": "address"
        },
        {
          "indexed": false,
          "internalType": "string",
          "name": "details",
          "type": "string"
        },
        {
          "indexed": false,
          "internalType": "bytes32",
          "name": "rfidUIDHash",
          "type": "bytes32"
        },
        {
          "indexed": false,
          "internalType": "uint256",
          "name": "manufactureDate",
          "type": "uint256"
        },
        {
          "indexed": false,
          "internalType": "uint256",
          "name": "expiryDate",
          "type": "uint256"
        },
        {
          "indexed": false,
          "internalType": "uint256",
          "name": "quantity",
          "type": "uint256"
        }
      ],
      "name": "BatchCreated",
      "type": "event"
    },
    {
      "anonymous": false,
      "inputs": [
        {
          "indexed": true,
          "internalType": "uint256",
          "name": "batchId",
          "type": "uint256"
        },
        {
          "indexed": true,
          "internalType": "address",
          "name": "initiator",
          "type": "address"
        }
      ],
      "name": "BatchRecalled",
      "type": "event"
    },
    {
      "anonymous": false,
      "inputs": [
        {
          "indexed": true,
          "internalType": "uint256",
          "name": "batchId",
          "type": "uint256"
        },
        {
          "indexed": true,
          "internalType": "address",
          "name": "approver",
          "type": "address"
        }
      ],
      "name": "QualityApproved",
      "type": "event"
    },
    {
      "anonymous": false,
      "inputs": [
        {
          "indexed": true,
          "internalType": "uint256",
          "name": "batchId",
          "type": "uint256"
        },
        {
          "indexed": true,
          "internalType": "address",
          "name": "disapprover",
          "type": "address"
        }
      ],
      "name": "QualityDisapproved",
      "type": "event"
    },
    {
      "anonymous": false,
      "inputs": [
        {
          "indexed": true,
          "internalType": "address",
          "name": "user",
          "type": "address"
        },
        {
          "indexed": false,
          "internalType": "string",
          "name": "companyName",
          "type": "string"
        },
        {
          "indexed": false,
          "internalType": "enum PharmaChain.Role",
          "name": "role",
          "type": "uint8"
        },
        {
          "indexed": false,
          "internalType": "string",
          "name": "contactInfo",
          "type": "string"
        }
      ],
      "name": "UserRegistered",
      "type": "event"
    },
    {
      "inputs": [
        {
          "internalType": "uint256",
          "name": "_batchId",
          "type": "uint256"
        }
      ],
      "name": "approveQuality",
      "outputs": [],
      "stateMutability": "nonpayable",
      "type": "function"
    },
    {
      "inputs": [
        {
          "internalType": "uint256",
          "name": "_batchId",
          "type": "uint256"
        },
        {
          "internalType": "address",
          "name": "_provider",
          "type": "address"
        }
      ],
      "name": "assignBatchToProvider",
      "outputs": [],
      "stateMutability": "nonpayable",
      "type": "function"
    },
    {
      "inputs": [
        {
          "internalType": "uint256",
          "name": "_batchId",
          "type": "uint256"
        },
        {
          "internalType": "address",
          "name": "_distributor",
          "type": "address"
        },
        {
          "internalType": "uint256",
          "name": "_orderId",
          "type": "uint256"
        }
      ],
      "name": "assignToDistributor",
      "outputs": [],
      "stateMutability": "nonpayable",
      "type": "function"
    },
    {
      "inputs": [
        {
          "internalType": "uint256",
          "name": "",
          "type": "uint256"
        }
      ],
      "name": "batches",
      "outputs": [
        {
          "internalType": "uint256",
          "name": "batchId",
          "type": "uint256"
        },
        {
          "internalType": "address",
          "name": "manufacturer",
          "type": "address"
        },
        {
          "internalType": "string",
          "name": "details",
          "type": "string"
        },
        {
          "internalType": "bool",
          "name": "isQualityApproved",
          "type": "bool"
        },
        {
          "internalType": "bool",
          "name": "isQualityDisapproved",
          "type": "bool"
        },
        {
          "internalType": "address",
          "name": "distributor",
          "type": "address"
        },
        {
          "internalType": "bytes32",
          "name": "rfidUIDHash",
          "type": "bytes32"
        },
        {
          "internalType": "bool",
          "name": "isRecalled",
          "type": "bool"
        },
        {
          "internalType": "uint256",
          "name": "manufactureDate",
          "type": "uint256"
        },
        {
          "internalType": "uint256",
          "name": "expiryDate",
          "type": "uint256"
        },
        {
          "internalType": "uint256",
          "name": "quantity",
          "type": "uint256"
        },
        {
          "internalType": "uint256",
          "name": "orderId",
          "type": "uint256"
        }
      ],
      "stateMutability": "view",
      "type": "function"
    },
    {
      "inputs": [
        {
          "internalType": "string",
          "name": "_details",
          "type": "string"
        },
        {
          "internalType": "bytes32",
          "name": "_rfidUIDHash",
          "type": "bytes32"
        },
        {
          "internalType": "uint256",
          "name": "_expiryDate",
          "type": "uint256"
        },
        {
          "internalType": "uint256",
          "name": "_quantity",
          "type": "uint256"
        }
      ],
      "name": "createBatch",
      "outputs": [],
      "stateMutability": "nonpayable",
      "type": "function"
    },
    {
      "inputs": [
        {
          "internalType": "string",
          "name": "_medName",
          "type": "string"
        },
        {
          "internalType": "uint256",
          "name": "_quantity",
          "type": "uint256"
        }
      ],
      "name": "createDistributorOrder",
      "outputs": [],
      "stateMutability": "nonpayable",
      "type": "function"
    },
    {
      "inputs": [
        {
          "internalType": "string",
          "name": "_medName",
          "type": "string"
        },
        {
          "internalType": "uint256",
          "name": "_qunatity",
          "type": "uint256"
        }
      ],
      "name": "createProviderOrder",
      "outputs": [],
      "stateMutability": "nonpayable",
      "type": "function"
    },
    {
      "inputs": [
        {
          "internalType": "uint256",
          "name": "_batchId",
          "type": "uint256"
        }
      ],
      "name": "disapproveQuality",
      "outputs": [],
      "stateMutability": "nonpayable",
      "type": "function"
    },
    {
      "inputs": [
        {
          "internalType": "address",
          "name": "",
          "type": "address"
        },
        {
          "internalType": "uint256",
          "name": "",
          "type": "uint256"
        }
      ],
      "name": "distributorMedNames",
      "outputs": [
        {
          "internalType": "string",
          "name": "",
          "type": "string"
        }
      ],
      "stateMutability": "view",
      "type": "function"
    },
    {
      "inputs": [
        {
          "internalType": "uint256",
          "name": "",
          "type": "uint256"
        }
      ],
      "name": "distributorOrders",
      "outputs": [
        {
          "internalType": "string",
          "name": "medName",
          "type": "string"
        },
        {
          "internalType": "uint256",
          "name": "quantity",
          "type": "uint256"
        },
        {
          "internalType": "uint256",
          "name": "orderId",
          "type": "uint256"
        },
        {
          "internalType": "uint256",
          "name": "batchId",
          "type": "uint256"
        },
        {
          "internalType": "address",
          "name": "distributor",
          "type": "address"
        },
        {
          "internalType": "address",
          "name": "manufacturer",
          "type": "address"
        },
        {
          "internalType": "bool",
          "name": "isAssigned",
          "type": "bool"
        },
        {
          "internalType": "uint256",
          "name": "orderDate",
          "type": "uint256"
        },
        {
          "internalType": "uint256",
          "name": "orderApprovedDate",
          "type": "uint256"
        },
        {
          "internalType": "enum PharmaChain.OrderStatus",
          "name": "status",
          "type": "uint8"
        }
      ],
      "stateMutability": "view",
      "type": "function"
    },
    {
      "inputs": [
        {
          "internalType": "address",
          "name": "",
          "type": "address"
        },
        {
          "internalType": "string",
          "name": "",
          "type": "string"
        }
      ],
      "name": "distributorStocks",
      "outputs": [
        {
          "internalType": "uint256",
          "name": "",
          "type": "uint256"
        }
      ],
      "stateMutability": "view",
      "type": "function"
    },
    {
      "inputs": [
        {
          "internalType": "address",
          "name": "_user",
          "type": "address"
        }
      ],
      "name": "getCompanyNameFromAddress",
      "outputs": [
        {
          "internalType": "string",
          "name": "",
          "type": "string"
        }
      ],
      "stateMutability": "view",
      "type": "function"
    },
    {
      "inputs": [
        {
          "internalType": "address",
          "name": "_manufacturer",
          "type": "address"
        }
      ],
      "name": "getCreatedBatches",
      "outputs": [
        {
          "components": [
            {
              "internalType": "uint256",
              "name": "batchId",
              "type": "uint256"
            },
            {
              "internalType": "address",
              "name": "manufacturer",
              "type": "address"
            },
            {
              "internalType": "string",
              "name": "details",
              "type": "string"
            },
            {
              "internalType": "bool",
              "name": "isQualityApproved",
              "type": "bool"
            },
            {
              "internalType": "bool",
              "name": "isQualityDisapproved",
              "type": "bool"
            },
            {
              "internalType": "address",
              "name": "distributor",
              "type": "address"
            },
            {
              "internalType": "bytes32",
              "name": "rfidUIDHash",
              "type": "bytes32"
            },
            {
              "internalType": "bool",
              "name": "isRecalled",
              "type": "bool"
            },
            {
              "internalType": "uint256",
              "name": "manufactureDate",
              "type": "uint256"
            },
            {
              "internalType": "uint256",
              "name": "expiryDate",
              "type": "uint256"
            },
            {
              "internalType": "uint256",
              "name": "quantity",
              "type": "uint256"
            },
            {
              "internalType": "uint256",
              "name": "orderId",
              "type": "uint256"
            }
          ],
          "internalType": "struct PharmaChain.Batch[]",
          "name": "",
          "type": "tuple[]"
        }
      ],
      "stateMutability": "view",
      "type": "function"
    },
    {
      "inputs": [
        {
          "internalType": "uint256",
          "name": "_orderId",
          "type": "uint256"
        }
      ],
      "name": "getDistributorOrder",
      "outputs": [
        {
          "components": [
            {
              "internalType": "string",
              "name": "medName",
              "type": "string"
            },
            {
              "internalType": "uint256",
              "name": "quantity",
              "type": "uint256"
            },
            {
              "internalType": "uint256",
              "name": "orderId",
              "type": "uint256"
            },
            {
              "internalType": "uint256",
              "name": "batchId",
              "type": "uint256"
            },
            {
              "internalType": "address",
              "name": "distributor",
              "type": "address"
            },
            {
              "internalType": "address",
              "name": "manufacturer",
              "type": "address"
            },
            {
              "internalType": "bool",
              "name": "isAssigned",
              "type": "bool"
            },
            {
              "internalType": "uint256",
              "name": "orderDate",
              "type": "uint256"
            },
            {
              "internalType": "uint256",
              "name": "orderApprovedDate",
              "type": "uint256"
            },
            {
              "internalType": "enum PharmaChain.OrderStatus",
              "name": "status",
              "type": "uint8"
            }
          ],
          "internalType": "struct PharmaChain.DistributorOrder",
          "name": "",
          "type": "tuple"
        }
      ],
      "stateMutability": "view",
      "type": "function"
    },
    {
      "inputs": [
        {
          "internalType": "address",
          "name": "_distributor",
          "type": "address"
        }
      ],
      "name": "getDistributorOrders",
      "outputs": [
        {
          "components": [
            {
              "internalType": "string",
              "name": "medName",
              "type": "string"
            },
            {
              "internalType": "uint256",
              "name": "quantity",
              "type": "uint256"
            },
            {
              "internalType": "uint256",
              "name": "orderId",
              "type": "uint256"
            },
            {
              "internalType": "uint256",
              "name": "batchId",
              "type": "uint256"
            },
            {
              "internalType": "address",
              "name": "distributor",
              "type": "address"
            },
            {
              "internalType": "address",
              "name": "manufacturer",
              "type": "address"
            },
            {
              "internalType": "bool",
              "name": "isAssigned",
              "type": "bool"
            },
            {
              "internalType": "uint256",
              "name": "orderDate",
              "type": "uint256"
            },
            {
              "internalType": "uint256",
              "name": "orderApprovedDate",
              "type": "uint256"
            },
            {
              "internalType": "enum PharmaChain.OrderStatus",
              "name": "status",
              "type": "uint8"
            }
          ],
          "internalType": "struct PharmaChain.DistributorOrder[]",
          "name": "",
          "type": "tuple[]"
        }
      ],
      "stateMutability": "view",
      "type": "function"
    },
    {
      "inputs": [
        {
          "internalType": "address",
          "name": "_distributor",
          "type": "address"
        }
      ],
      "name": "getDistributorStock",
      "outputs": [
        {
          "components": [
            {
              "internalType": "string",
              "name": "medName",
              "type": "string"
            },
            {
              "internalType": "uint256",
              "name": "quantity",
              "type": "uint256"
            }
          ],
          "internalType": "struct PharmaChain.StockItem[]",
          "name": "",
          "type": "tuple[]"
        }
      ],
      "stateMutability": "view",
      "type": "function"
    },
    {
      "inputs": [
        {
          "internalType": "address",
          "name": "_manufacturer",
          "type": "address"
        }
      ],
      "name": "getFulfilledBatches",
      "outputs": [
        {
          "components": [
            {
              "internalType": "uint256",
              "name": "batchId",
              "type": "uint256"
            },
            {
              "internalType": "address",
              "name": "manufacturer",
              "type": "address"
            },
            {
              "internalType": "string",
              "name": "details",
              "type": "string"
            },
            {
              "internalType": "bool",
              "name": "isQualityApproved",
              "type": "bool"
            },
            {
              "internalType": "bool",
              "name": "isQualityDisapproved",
              "type": "bool"
            },
            {
              "internalType": "address",
              "name": "distributor",
              "type": "address"
            },
            {
              "internalType": "bytes32",
              "name": "rfidUIDHash",
              "type": "bytes32"
            },
            {
              "internalType": "bool",
              "name": "isRecalled",
              "type": "bool"
            },
            {
              "internalType": "uint256",
              "name": "manufactureDate",
              "type": "uint256"
            },
            {
              "internalType": "uint256",
              "name": "expiryDate",
              "type": "uint256"
            },
            {
              "internalType": "uint256",
              "name": "quantity",
              "type": "uint256"
            },
            {
              "internalType": "uint256",
              "name": "orderId",
              "type": "uint256"
            }
          ],
          "internalType": "struct PharmaChain.Batch[]",
          "name": "",
          "type": "tuple[]"
        }
      ],
      "stateMutability": "view",
      "type": "function"
    },
    {
      "inputs": [
        {
          "internalType": "address",
          "name": "_distributor",
          "type": "address"
        }
      ],
      "name": "getFulfilledDistributorOrders",
      "outputs": [
        {
          "components": [
            {
              "internalType": "string",
              "name": "medName",
              "type": "string"
            },
            {
              "internalType": "uint256",
              "name": "quantity",
              "type": "uint256"
            },
            {
              "internalType": "uint256",
              "name": "orderId",
              "type": "uint256"
            },
            {
              "internalType": "uint256",
              "name": "batchId",
              "type": "uint256"
            },
            {
              "internalType": "address",
              "name": "distributor",
              "type": "address"
            },
            {
              "internalType": "address",
              "name": "manufacturer",
              "type": "address"
            },
            {
              "internalType": "bool",
              "name": "isAssigned",
              "type": "bool"
            },
            {
              "internalType": "uint256",
              "name": "orderDate",
              "type": "uint256"
            },
            {
              "internalType": "uint256",
              "name": "orderApprovedDate",
              "type": "uint256"
            },
            {
              "internalType": "enum PharmaChain.OrderStatus",
              "name": "status",
              "type": "uint8"
            }
          ],
          "internalType": "struct PharmaChain.DistributorOrder[]",
          "name": "",
          "type": "tuple[]"
        }
      ],
      "stateMutability": "view",
      "type": "function"
    },
    {
      "inputs": [
        {
          "internalType": "address",
          "name": "_provider",
          "type": "address"
        }
      ],
      "name": "getFulfilledProviderOrders",
      "outputs": [
        {
          "components": [
            {
              "internalType": "string",
              "name": "medName",
              "type": "string"
            },
            {
              "internalType": "uint256",
              "name": "quantity",
              "type": "uint256"
            },
            {
              "internalType": "uint256",
              "name": "orderId",
              "type": "uint256"
            },
            {
              "internalType": "uint256",
              "name": "batchId",
              "type": "uint256"
            },
            {
              "internalType": "address",
              "name": "provider",
              "type": "address"
            },
            {
              "internalType": "address",
              "name": "distributor",
              "type": "address"
            },
            {
              "internalType": "bool",
              "name": "isAssigned",
              "type": "bool"
            },
            {
              "internalType": "uint256",
              "name": "orderDate",
              "type": "uint256"
            },
            {
              "internalType": "uint256",
              "name": "orderApprovedDate",
              "type": "uint256"
            },
            {
              "internalType": "enum PharmaChain.OrderStatus",
              "name": "status",
              "type": "uint8"
            }
          ],
          "internalType": "struct PharmaChain.ProviderOrder[]",
          "name": "",
          "type": "tuple[]"
        }
      ],
      "stateMutability": "view",
      "type": "function"
    },
    {
      "inputs": [],
      "name": "getPendingDistributorOrders",
      "outputs": [
        {
          "components": [
            {
              "internalType": "string",
              "name": "medName",
              "type": "string"
            },
            {
              "internalType": "uint256",
              "name": "quantity",
              "type": "uint256"
            },
            {
              "internalType": "uint256",
              "name": "orderId",
              "type": "uint256"
            },
            {
              "internalType": "uint256",
              "name": "batchId",
              "type": "uint256"
            },
            {
              "internalType": "address",
              "name": "distributor",
              "type": "address"
            },
            {
              "internalType": "address",
              "name": "manufacturer",
              "type": "address"
            },
            {
              "internalType": "bool",
              "name": "isAssigned",
              "type": "bool"
            },
            {
              "internalType": "uint256",
              "name": "orderDate",
              "type": "uint256"
            },
            {
              "internalType": "uint256",
              "name": "orderApprovedDate",
              "type": "uint256"
            },
            {
              "internalType": "enum PharmaChain.OrderStatus",
              "name": "status",
              "type": "uint8"
            }
          ],
          "internalType": "struct PharmaChain.DistributorOrder[]",
          "name": "",
          "type": "tuple[]"
        }
      ],
      "stateMutability": "view",
      "type": "function"
    },
    {
      "inputs": [],
      "name": "getPendingProviderOrders",
      "outputs": [
        {
          "components": [
            {
              "internalType": "string",
              "name": "medName",
              "type": "string"
            },
            {
              "internalType": "uint256",
              "name": "quantity",
              "type": "uint256"
            },
            {
              "internalType": "uint256",
              "name": "orderId",
              "type": "uint256"
            },
            {
              "internalType": "uint256",
              "name": "batchId",
              "type": "uint256"
            },
            {
              "internalType": "address",
              "name": "provider",
              "type": "address"
            },
            {
              "internalType": "address",
              "name": "distributor",
              "type": "address"
            },
            {
              "internalType": "bool",
              "name": "isAssigned",
              "type": "bool"
            },
            {
              "internalType": "uint256",
              "name": "orderDate",
              "type": "uint256"
            },
            {
              "internalType": "uint256",
              "name": "orderApprovedDate",
              "type": "uint256"
            },
            {
              "internalType": "enum PharmaChain.OrderStatus",
              "name": "status",
              "type": "uint8"
            }
          ],
          "internalType": "struct PharmaChain.ProviderOrder[]",
          "name": "",
          "type": "tuple[]"
        }
      ],
      "stateMutability": "view",
      "type": "function"
    },
    {
      "inputs": [
        {
          "internalType": "uint256",
          "name": "_orderId",
          "type": "uint256"
        }
      ],
      "name": "getProviderOrderDetails",
      "outputs": [
        {
          "components": [
            {
              "internalType": "string",
              "name": "medName",
              "type": "string"
            },
            {
              "internalType": "uint256",
              "name": "quantity",
              "type": "uint256"
            },
            {
              "internalType": "uint256",
              "name": "orderId",
              "type": "uint256"
            },
            {
              "internalType": "uint256",
              "name": "batchId",
              "type": "uint256"
            },
            {
              "internalType": "address",
              "name": "provider",
              "type": "address"
            },
            {
              "internalType": "address",
              "name": "distributor",
              "type": "address"
            },
            {
              "internalType": "bool",
              "name": "isAssigned",
              "type": "bool"
            },
            {
              "internalType": "uint256",
              "name": "orderDate",
              "type": "uint256"
            },
            {
              "internalType": "uint256",
              "name": "orderApprovedDate",
              "type": "uint256"
            },
            {
              "internalType": "enum PharmaChain.OrderStatus",
              "name": "status",
              "type": "uint8"
            }
          ],
          "internalType": "struct PharmaChain.ProviderOrder",
          "name": "",
          "type": "tuple"
        }
      ],
      "stateMutability": "view",
      "type": "function"
    },
    {
      "inputs": [
        {
          "internalType": "address",
          "name": "_provider",
          "type": "address"
        }
      ],
      "name": "getProviderOrders",
      "outputs": [
        {
          "components": [
            {
              "internalType": "string",
              "name": "medName",
              "type": "string"
            },
            {
              "internalType": "uint256",
              "name": "quantity",
              "type": "uint256"
            },
            {
              "internalType": "uint256",
              "name": "orderId",
              "type": "uint256"
            },
            {
              "internalType": "uint256",
              "name": "batchId",
              "type": "uint256"
            },
            {
              "internalType": "address",
              "name": "provider",
              "type": "address"
            },
            {
              "internalType": "address",
              "name": "distributor",
              "type": "address"
            },
            {
              "internalType": "bool",
              "name": "isAssigned",
              "type": "bool"
            },
            {
              "internalType": "uint256",
              "name": "orderDate",
              "type": "uint256"
            },
            {
              "internalType": "uint256",
              "name": "orderApprovedDate",
              "type": "uint256"
            },
            {
              "internalType": "enum PharmaChain.OrderStatus",
              "name": "status",
              "type": "uint8"
            }
          ],
          "internalType": "struct PharmaChain.ProviderOrder[]",
          "name": "",
          "type": "tuple[]"
        }
      ],
      "stateMutability": "view",
      "type": "function"
    },
    {
      "inputs": [
        {
          "internalType": "address",
          "name": "_provider",
          "type": "address"
        }
      ],
      "name": "getProviderStock",
      "outputs": [
        {
          "components": [
            {
              "internalType": "string",
              "name": "medName",
              "type": "string"
            },
            {
              "internalType": "uint256",
              "name": "quantity",
              "type": "uint256"
            }
          ],
          "internalType": "struct PharmaChain.StockItem[]",
          "name": "",
          "type": "tuple[]"
        }
      ],
      "stateMutability": "view",
      "type": "function"
    },
    {
      "inputs": [
        {
          "internalType": "address",
          "name": "_user",
          "type": "address"
        }
      ],
      "name": "getUserByAddress",
      "outputs": [
        {
          "components": [
            {
              "internalType": "address",
              "name": "account",
              "type": "address"
            },
            {
              "internalType": "string",
              "name": "companyName",
              "type": "string"
            },
            {
              "internalType": "enum PharmaChain.Role",
              "name": "role",
              "type": "uint8"
            },
            {
              "internalType": "string",
              "name": "contactInfo",
              "type": "string"
            }
          ],
          "internalType": "struct PharmaChain.User",
          "name": "",
          "type": "tuple"
        }
      ],
      "stateMutability": "view",
      "type": "function"
    },
    {
      "inputs": [
        {
          "internalType": "address",
          "name": "_user",
          "type": "address"
        }
      ],
      "name": "getUserInfo",
      "outputs": [
        {
          "internalType": "string",
          "name": "companyName",
          "type": "string"
        },
        {
          "internalType": "string",
          "name": "contactInfo",
          "type": "string"
        },
        {
          "internalType": "enum PharmaChain.Role",
          "name": "role",
          "type": "uint8"
        }
      ],
      "stateMutability": "view",
      "type": "function"
    },
    {
      "inputs": [
        {
          "internalType": "address",
          "name": "_user",
          "type": "address"
        }
      ],
      "name": "getUserRole",
      "outputs": [
        {
          "internalType": "enum PharmaChain.Role",
          "name": "",
          "type": "uint8"
        }
      ],
      "stateMutability": "view",
      "type": "function"
    },
    {
      "inputs": [
        {
          "internalType": "address",
          "name": "_user",
          "type": "address"
        }
      ],
      "name": "isUserRegistered",
      "outputs": [
        {
          "internalType": "bool",
          "name": "",
          "type": "bool"
        }
      ],
      "stateMutability": "view",
      "type": "function"
    },
    {
      "inputs": [],
      "name": "nextBatchId",
      "outputs": [
        {
          "internalType": "uint256",
          "name": "",
          "type": "uint256"
        }
      ],
      "stateMutability": "view",
      "type": "function"
    },
    {
      "inputs": [],
      "name": "nextDistributorOrderId",
      "outputs": [
        {
          "internalType": "uint256",
          "name": "",
          "type": "uint256"
        }
      ],
      "stateMutability": "view",
      "type": "function"
    },
    {
      "inputs": [],
      "name": "nextProviderOrderId",
      "outputs": [
        {
          "internalType": "uint256",
          "name": "",
          "type": "uint256"
        }
      ],
      "stateMutability": "view",
      "type": "function"
    },
    {
      "inputs": [
        {
          "internalType": "address",
          "name": "",
          "type": "address"
        },
        {
          "internalType": "uint256",
          "name": "",
          "type": "uint256"
        }
      ],
      "name": "providerMedNames",
      "outputs": [
        {
          "internalType": "string",
          "name": "",
          "type": "string"
        }
      ],
      "stateMutability": "view",
      "type": "function"
    },
    {
      "inputs": [
        {
          "internalType": "uint256",
          "name": "",
          "type": "uint256"
        }
      ],
      "name": "providerOrders",
      "outputs": [
        {
          "internalType": "string",
          "name": "medName",
          "type": "string"
        },
        {
          "internalType": "uint256",
          "name": "quantity",
          "type": "uint256"
        },
        {
          "internalType": "uint256",
          "name": "orderId",
          "type": "uint256"
        },
        {
          "internalType": "uint256",
          "name": "batchId",
          "type": "uint256"
        },
        {
          "internalType": "address",
          "name": "provider",
          "type": "address"
        },
        {
          "internalType": "address",
          "name": "distributor",
          "type": "address"
        },
        {
          "internalType": "bool",
          "name": "isAssigned",
          "type": "bool"
        },
        {
          "internalType": "uint256",
          "name": "orderDate",
          "type": "uint256"
        },
        {
          "internalType": "uint256",
          "name": "orderApprovedDate",
          "type": "uint256"
        },
        {
          "internalType": "enum PharmaChain.OrderStatus",
          "name": "status",
          "type": "uint8"
        }
      ],
      "stateMutability": "view",
      "type": "function"
    },
    {
      "inputs": [
        {
          "internalType": "address",
          "name": "",
          "type": "address"
        },
        {
          "internalType": "string",
          "name": "",
          "type": "string"
        }
      ],
      "name": "providerStocks",
      "outputs": [
        {
          "internalType": "uint256",
          "name": "",
          "type": "uint256"
        }
      ],
      "stateMutability": "view",
      "type": "function"
    },
    {
      "inputs": [
        {
          "internalType": "uint256",
          "name": "_batchId",
          "type": "uint256"
        }
      ],
      "name": "recallBatch",
      "outputs": [],
      "stateMutability": "nonpayable",
      "type": "function"
    },
    {
      "inputs": [
        {
          "internalType": "address",
          "name": "_user",
          "type": "address"
        },
        {
          "internalType": "string",
          "name": "_companyName",
          "type": "string"
        },
        {
          "internalType": "enum PharmaChain.Role",
          "name": "_role",
          "type": "uint8"
        },
        {
          "internalType": "string",
          "name": "_contactInfo",
          "type": "string"
        }
      ],
      "name": "registerUser",
      "outputs": [],
      "stateMutability": "nonpayable",
      "type": "function"
    },
    {
      "inputs": [
        {
          "internalType": "uint256",
          "name": "_orderId",
          "type": "uint256"
        },
        {
          "internalType": "enum PharmaChain.OrderStatus",
          "name": "_status",
          "type": "uint8"
        }
      ],
      "name": "updateDistributorOrderStatus",
      "outputs": [],
      "stateMutability": "nonpayable",
      "type": "function"
    },
    {
      "inputs": [
        {
          "internalType": "address",
          "name": "",
          "type": "address"
        }
      ],
      "name": "users",
      "outputs": [
        {
          "internalType": "address",
          "name": "account",
          "type": "address"
        },
        {
          "internalType": "string",
          "name": "companyName",
          "type": "string"
        },
        {
          "internalType": "enum PharmaChain.Role",
          "name": "role",
          "type": "uint8"
        },
        {
          "internalType": "string",
          "name": "contactInfo",
          "type": "string"
        }
      ],
      "stateMutability": "view",
      "type": "function"
    }
  ],
  "bytecode": "0x6080604052606460085560646009556064600a5534801561001f57600080fd5b50614aca8061002f6000396000f3fe608060405234801561001057600080fd5b50600436106102325760003560e01c80638429bcf711610130578063ced27743116100b8578063e04447121161007c578063e0444712146105b0578063e3c6e07e146105c3578063f1bd14ad146105d6578063f212d6d914610612578063fa4b47a31461062557600080fd5b8063ced277431461054e578063d0aeb53714610561578063d386223814610574578063d56f40dd1461057d578063dd185a091461059d57600080fd5b8063a6e162b4116100ff578063a6e162b4146104c7578063a87430ba146104da578063b32c4d8d146104fd578063b616e18414610528578063c0a5194e1461053b57600080fd5b80638429bcf71461049a5780638462a7f8146104a357806387f95fa8146104ac57806395c53d49146104b457600080fd5b806344dfc5f8116101be57806369c212f61161018257806369c212f6146103ea5780636ae25d981461040a5780636c6eb5cd1461045457806376c386061461046757806383e9f8bf1461047a57600080fd5b806344dfc5f8146103665780634a746b7b146103795780634e4b18fb1461038c5780636386c1c7146103b5578063642c9719146103d757600080fd5b8063278208511161020557806327820851146102cf5780632d703d731461030b5780633019f58e1461032b5780633d28a3011461034057806343deec2e1461035357600080fd5b8063163f7522146102375780631c5a3a531461027a5780631d8abc8f1461029a5780632615457b146102af575b600080fd5b610265610245366004613dbd565b6001600160a01b0390811660009081526020819052604090205416151590565b60405190151581526020015b60405180910390f35b61028d610288366004613dbd565b610638565b6040516102719190613e28565b6102a2610803565b6040516102719190613f74565b6102c26102bd366004613dbd565b610a52565b6040516102719190613fd8565b6102fe6102dd366004613dbd565b6001600160a01b031660009081526020819052604090206002015460ff1690565b604051610271919061403f565b61031e610319366004613dbd565b610caa565b6040516102719190614053565b61033e610339366004614148565b610ef8565b005b61033e61034e366004614216565b61142d565b61033e6103613660046142a2565b611584565b61033e6103743660046142f5565b611828565b61028d610387366004613dbd565b61192c565b61039f61039a3660046142f5565b611aef565b6040516102719a9998979695949392919061430e565b6103c86103c3366004613dbd565b611bdb565b60405161027193929190614381565b61031e6103e5366004613dbd565b611d89565b6103fd6103f8366004613dbd565b61202f565b60405161027191906143be565b610446610418366004614425565b6005602090815260009283526040909220815180830184018051928152908401929093019190912091525481565b604051908152602001610271565b61033e610462366004614472565b6121e1565b61033e6104753660046144b6565b61238c565b61048d610488366004613dbd565b6125a6565b60405161027191906144ea565b61044660095481565b61044660085481565b6102c2612655565b61039f6104c23660046142f5565b612944565b61033e6104d53660046142f5565b61295f565b6104ed6104e8366004613dbd565b612a63565b60405161027194939291906144fd565b61051061050b3660046142f5565b612baf565b6040516102719c9b9a9998979695949392919061454b565b61033e6105363660046142f5565b612cab565b6102a2610549366004613dbd565b612db3565b6102a261055c366004613dbd565b613065565b61048d61056f3660046145c0565b6132b3565b610446600a5481565b61059061058b3660046142f5565b61336c565b60405161027191906145ea565b6105906105ab3660046142f5565b61350d565b6102c26105be366004613dbd565b61356e565b61048d6105d13660046145c0565b613820565b6104466105e4366004614425565b6004602090815260009283526040909220815180830184018051928152908401929093019190912091525481565b61033e610620366004614472565b61383c565b61033e6106333660046145fd565b613925565b6001600160a01b038116600090815260076020526040812054606091816001600160401b0381111561066c5761066c614174565b6040519080825280602002602001820160405280156106b257816020015b60408051808201909152606081526000602082015281526020019060019003908161068a5790505b50905060005b828110156107fb576001600160a01b03851660009081526007602052604081208054839081106106ea576106ea614632565b9060005260206000200180546106ff90614648565b80601f016020809104026020016040519081016040528092919081815260200182805461072b90614648565b80156107785780601f1061074d57610100808354040283529160200191610778565b820191906000526020600020905b81548152906001019060200180831161075b57829003601f168201915b50505050509050604051806040016040528082815260200160056000896001600160a01b03166001600160a01b03168152602001908152602001600020836040516107c39190614682565b9081526020016040518091039020548152508383815181106107e7576107e7614632565b6020908102919091010152506001016106b8565b509392505050565b6060600060645b60095481101561084a57600081815260026020526040902060050154600160a01b900460ff16610842578161083e816146b4565b9250505b60010161080a565b506000816001600160401b0381111561086557610865614174565b60405190808252806020026020018201604052801561089e57816020015b61088b613cae565b8152602001906001900390816108835790505b509050600060645b600954811015610a4957600081815260026020526040902060050154600160a01b900460ff16610a415760008181526002602052604090819020815161014081019092528054829082906108f990614648565b80601f016020809104026020016040519081016040528092919081815260200182805461092590614648565b80156109725780601f1061094757610100808354040283529160200191610972565b820191906000526020600020905b81548152906001019060200180831161095557829003601f168201915b50505091835250506001820154602082015260028201546040820152600382015460608201526004808301546001600160a01b039081166080840152600584015490811660a084015260ff600160a01b9091048116151560c0840152600684015460e084015260078401546101008401526008840154610120909301921690811115610a0057610a00613ea0565b6004811115610a1157610a11613ea0565b81525050838381518110610a2757610a27614632565b60200260200101819052508180610a3d906146b4565b9250505b6001016108a6565b50909392505050565b6060600060645b600a54811015610a9d576000818152600360205260409020600401546001600160a01b03808616911603610a955781610a91816146b4565b9250505b600101610a59565b506000816001600160401b03811115610ab857610ab8614174565b604051908082528060200260200182016040528015610af157816020015b610ade613cae565b815260200190600190039081610ad65790505b509050600060645b600a54811015610ca0576000818152600360205260409020600401546001600160a01b03808816911603610c98576000818152600360205260409081902081516101408101909252805482908290610b5090614648565b80601f0160208091040260200160405190810160405280929190818152602001828054610b7c90614648565b8015610bc95780601f10610b9e57610100808354040283529160200191610bc9565b820191906000526020600020905b815481529060010190602001808311610bac57829003601f168201915b50505091835250506001820154602082015260028201546040820152600382015460608201526004808301546001600160a01b039081166080840152600584015490811660a084015260ff600160a01b9091048116151560c0840152600684015460e084015260078401546101008401526008840154610120909301921690811115610c5757610c57613ea0565b6004811115610c6857610c68613ea0565b81525050838381518110610c7e57610c7e614632565b60200260200101819052508180610c94906146b4565b9250505b600101610af9565b5090949350505050565b6060600060645b600854811015610cf657600081815260016020819052604090912001546001600160a01b03808616911603610cee5781610cea816146b4565b9250505b600101610cb1565b506000816001600160401b03811115610d1157610d11614174565b604051908082528060200260200182016040528015610d4a57816020015b610d37613d25565b815260200190600190039081610d2f5790505b509050600060645b600854811015610ca057600081815260016020819052604090912001546001600160a01b03808816911603610ef05760008181526001602081815260409283902083516101808101855281548152928101546001600160a01b0316918301919091526002810180549293919291840191610dcb90614648565b80601f0160208091040260200160405190810160405280929190818152602001828054610df790614648565b8015610e445780601f10610e1957610100808354040283529160200191610e44565b820191906000526020600020905b815481529060010190602001808311610e2757829003601f168201915b5050509183525050600382015460ff80821615156020840152610100808304821615156040850152620100009092046001600160a01b0316606084015260048401546080840152600584015416151560a0830152600683015460c0830152600783015460e0830152600883015490820152600990910154610120909101528351849084908110610ed657610ed6614632565b60200260200101819052508180610eec906146b4565b9250505b600101610d52565b600133600090815260208190526040902060029081015460ff1690811115610f2257610f22613ea0565b14610f485760405162461bcd60e51b8152600401610f3f906146cd565b60405180910390fd5b6001600160a01b038116600090815260208190526040902060029081015460ff1681811115610f7957610f79613ea0565b14610fb95760405162461bcd60e51b815260206004820152601060248201526f24b73b30b634b210383937bb34b232b960811b6044820152606401610f3f565b600082815260016020526040902060038101546201000090046001600160a01b031633146110455760405162461bcd60e51b815260206004820152603360248201527f4f6e6c79207468652061737369676e6564206469737472696275746f722063616044820152720dc40c2e6e6d2cedc40e8d0d2e640c4c2e8c6d606b1b6064820152608401610f3f565b600381015460ff166110995760405162461bcd60e51b815260206004820152601e60248201527f4261746368206d757374206265207175616c69747920617070726f76656400006044820152606401610f3f565b600581015460ff16156110ee5760405162461bcd60e51b815260206004820152601760248201527f426174636820686173206265656e20726563616c6c65640000000000000000006044820152606401610f3f565b600060405180610140016040528083600201805461110b90614648565b80601f016020809104026020016040519081016040528092919081815260200182805461113790614648565b80156111845780601f1061115957610100808354040283529160200191611184565b820191906000526020600020905b81548152906001019060200180831161116757829003601f168201915b5050505050815260200183600801548152602001600a60008154809291906111ab906146b4565b909155508152602081018690526001600160a01b0385166040820152336060820152600160808201524260a0820181905260c082015260e00160029052604080820151600090815260036020522081519192508291819061120c9082614766565b50602082015160018281019190915560408301516002830155606083015160038301556080830151600480840180546001600160a01b0319166001600160a01b0393841617905560a085015160058501805460c0880151929094166001600160a81b031990941693909317600160a01b911515919091021790915560e0840151600684015561010084015160078401556101208401516008840180549193909260ff199092169184908111156112c4576112c4613ea0565b0217905550505060088201546001600160a01b0384166000908152600560205260409081902090516112fa906002860190614898565b9081526020016040518091039020600082825461131791906148a4565b925050819055506113b68383600201805461133190614648565b80601f016020809104026020016040519081016040528092919081815260200182805461135d90614648565b80156113aa5780601f1061137f576101008083540402835291602001916113aa565b820191906000526020600020905b81548152906001019060200180831161138d57829003601f168201915b50505050506000613c03565b6113f1576001600160a01b0383166000908152600760209081526040822080546001810182559083529120016113ef60028401826148b7565b505b6040516001600160a01b0384169085907fd2d34b0374faae0161dcf8f0bb3a65abd5d19a9464ea5777ab1a5ee6a694560a90600090a350505050565b6001600160a01b0384166114755760405162461bcd60e51b815260206004820152600f60248201526e496e76616c6964206164647265737360881b6044820152606401610f3f565b6040518060800160405280856001600160a01b031681526020018481526020018360028111156114a7576114a7613ea0565b815260209081018390526001600160a01b03868116600090815280835260409020835181546001600160a01b03191692169190911781559082015160018201906114f19082614766565b5060408201518160020160006101000a81548160ff0219169083600281111561151c5761151c613ea0565b0217905550606082015160038201906115359082614766565b50905050836001600160a01b03167f3a403922431a43cbc3d929f1b03869ffadab7bce01402822980e72e6ea8e9d9184848460405161157693929190614991565b60405180910390a250505050565b33600090815260208190526040812060029081015460ff16908111156115ac576115ac613ea0565b146115c95760405162461bcd60e51b8152600401610f3f906149cd565b60088054600091826115da836146b4565b9190505590504283116116395760405162461bcd60e51b815260206004820152602160248201527f4578706972792064617465206d75737420626520696e207468652066757475726044820152606560f81b6064820152608401610f3f565b600082116116945760405162461bcd60e51b815260206004820152602260248201527f5175616e74697479206d7573742062652067726561746572207468616e207a65604482015261726f60f01b6064820152608401610f3f565b60408051610180810182528281523360208083019182528284018981526000606085018190526080850181905260a0850181905260c085018a905260e08501819052426101008601526101208501899052610140850188905261016085018190528681526001928390529490942083518155915190820180546001600160a01b0319166001600160a01b039092169190911790559151909190600282019061173c9082614766565b506060820151600382018054608085015160a086015161ffff1990921693151561ff0019169390931761010093151584021762010000600160b01b031916620100006001600160a01b039092169190910217905560c0830151600483015560e083015160058301805460ff191691151591909117905582015160068201556101208201516007820155610140820151600882015561016090910151600990910155604051339082907fbee34f0ca0c0edfc2bd967468f81e100292d859329be491cc44c4ec390c65fac90611819908990899042908a908a90614a17565b60405180910390a35050505050565b33600090815260208190526040812060029081015460ff169081111561185057611850613ea0565b1461186d5760405162461bcd60e51b8152600401610f3f906149cd565b6000818152600160208190526040909120908101546001600160a01b031633146118eb5760405162461bcd60e51b815260206004820152602960248201527f4f6e6c7920746865206d616e7566616374757265722063616e20617070726f7660448201526865207175616c69747960b81b6064820152608401610f3f565b60038101805461ffff19166001179055604051339083907f08d6065569e454b48393f44317518d1282971813504b4d323942afba2f7a2c5d90600090a35050565b6001600160a01b038116600090815260066020526040812054606091816001600160401b0381111561196057611960614174565b6040519080825280602002602001820160405280156119a657816020015b60408051808201909152606081526000602082015281526020019060019003908161197e5790505b50905060005b828110156107fb576001600160a01b03851660009081526006602052604081208054839081106119de576119de614632565b9060005260206000200180546119f390614648565b80601f0160208091040260200160405190810160405280929190818152602001828054611a1f90614648565b8015611a6c5780601f10611a4157610100808354040283529160200191611a6c565b820191906000526020600020905b815481529060010190602001808311611a4f57829003601f168201915b50505050509050604051806040016040528082815260200160046000896001600160a01b03166001600160a01b0316815260200190815260200160002083604051611ab79190614682565b908152602001604051809103902054815250838381518110611adb57611adb614632565b6020908102919091010152506001016119ac565b600260205260009081526040902080548190611b0a90614648565b80601f0160208091040260200160405190810160405280929190818152602001828054611b3690614648565b8015611b835780601f10611b5857610100808354040283529160200191611b83565b820191906000526020600020905b815481529060010190602001808311611b6657829003601f168201915b5050505060018301546002840154600385015460048601546005870154600688015460078901546008909901549798959794965092946001600160a01b039283169492821693600160a01b90920460ff90811693168a565b6001600160a01b038082166000908152602081815260408083208151608081019092528054909416815260018401805460609586959485949391929084019190611c2490614648565b80601f0160208091040260200160405190810160405280929190818152602001828054611c5090614648565b8015611c9d5780601f10611c7257610100808354040283529160200191611c9d565b820191906000526020600020905b815481529060010190602001808311611c8057829003601f168201915b505050918352505060028281015460209092019160ff1690811115611cc457611cc4613ea0565b6002811115611cd557611cd5613ea0565b8152602001600382018054611ce990614648565b80601f0160208091040260200160405190810160405280929190818152602001828054611d1590614648565b8015611d625780601f10611d3757610100808354040283529160200191611d62565b820191906000526020600020905b815481529060010190602001808311611d4557829003601f168201915b50505091909252505050602081015160608201516040909201519097919650945092505050565b6060600060645b600854811015611e0157600081815260016020819052604090912001546001600160a01b038581169116148015611de657506000818152600160205260409020600301546201000090046001600160a01b031615155b15611df95781611df5816146b4565b9250505b600101611d90565b506000816001600160401b03811115611e1c57611e1c614174565b604051908082528060200260200182016040528015611e5557816020015b611e42613d25565b815260200190600190039081611e3a5790505b509050600060645b600854811015610ca057600081815260016020819052604090912001546001600160a01b038781169116148015611eb357506000818152600160205260409020600301546201000090046001600160a01b031615155b156120275760008181526001602081815260409283902083516101808101855281548152928101546001600160a01b0316918301919091526002810180549293919291840191611f0290614648565b80601f0160208091040260200160405190810160405280929190818152602001828054611f2e90614648565b8015611f7b5780601f10611f5057610100808354040283529160200191611f7b565b820191906000526020600020905b815481529060010190602001808311611f5e57829003601f168201915b5050509183525050600382015460ff80821615156020840152610100808304821615156040850152620100009092046001600160a01b0316606084015260048401546080840152600584015416151560a0830152600683015460c0830152600783015460e083015260088301549082015260099091015461012090910152835184908490811061200d5761200d614632565b60200260200101819052508180612023906146b4565b9250505b600101611e5d565b60408051608081018252600080825260606020830181905292820152818101919091526001600160a01b0380831660009081526020818152604091829020825160808101909352805490931682526001830180549293929184019161209390614648565b80601f01602080910402602001604051908101604052809291908181526020018280546120bf90614648565b801561210c5780601f106120e15761010080835404028352916020019161210c565b820191906000526020600020905b8154815290600101906020018083116120ef57829003601f168201915b505050918352505060028281015460209092019160ff169081111561213357612133613ea0565b600281111561214457612144613ea0565b815260200160038201805461215890614648565b80601f016020809104026020016040519081016040528092919081815260200182805461218490614648565b80156121d15780601f106121a6576101008083540402835291602001916121d1565b820191906000526020600020905b8154815290600101906020018083116121b457829003601f168201915b5050505050815250509050919050565b33600090815260208190526040902060029081015460ff168181111561220957612209613ea0565b146122265760405162461bcd60e51b8152600401610f3f90614a4e565b600a805460009182612237836146b4565b91905055905060405180610140016040528084815260200183815260200182815260200160008152602001336001600160a01b0316815260200160006001600160a01b0316815260200160001515815260200142815260200160008152602001600060048111156122aa576122aa613ea0565b90526000828152600360205260409020815181906122c89082614766565b50602082015160018281019190915560408301516002830155606083015160038301556080830151600480840180546001600160a01b0319166001600160a01b0393841617905560a085015160058501805460c0880151929094166001600160a81b031990941693909317600160a01b911515919091021790915560e0840151600684015561010084015160078401556101208401516008840180549193909260ff1990921691849081111561238057612380613ea0565b02179055505050505050565b600133600090815260208190526040902060029081015460ff16908111156123b6576123b6613ea0565b146123d35760405162461bcd60e51b8152600401610f3f906146cd565b600082815260026020526040902060048101546001600160a01b031633146124565760405162461bcd60e51b815260206004820152603060248201527f4f6e6c7920746865206469737472696275746f722063616e207570646174652060448201526f746865206f726465722073746174757360801b6064820152608401610f3f565b60088101805483919060ff1916600183600481111561247757612477613ea0565b0217905550600382600481111561249057612490613ea0565b036125a1576001810154336000908152600460205260409081902090516124b8908490614898565b908152602001604051809103902060008282546124d591906148a4565b9091555050805461257290339083906124ed90614648565b80601f016020809104026020016040519081016040528092919081815260200182805461251990614648565b80156125665780601f1061253b57610100808354040283529160200191612566565b820191906000526020600020905b81548152906001019060200180831161254957829003601f168201915b50505050506001613c03565b6125a1573360009081526006602090815260408220805460018101825590835291200161259f82826148b7565b505b505050565b6001600160a01b03811660009081526020819052604090206001018054606091906125d090614648565b80601f01602080910402602001604051908101604052809291908181526020018280546125fc90614648565b80156126495780601f1061261e57610100808354040283529160200191612649565b820191906000526020600020905b81548152906001019060200180831161262c57829003601f168201915b50505050509050919050565b6060600233600090815260208190526040902060029081015460ff169081111561268157612681613ea0565b1461269e5760405162461bcd60e51b8152600401610f3f90614a4e565b600060645b600a54811015612714576000818152600360205260409020600401546001600160a01b0316331480156126f9575060008181526003602052604081206008015460ff1660048111156126f7576126f7613ea0565b145b1561270c5781612708816146b4565b9250505b6001016126a3565b506000816001600160401b0381111561272f5761272f614174565b60405190808252806020026020018201604052801561276857816020015b612755613cae565b81526020019060019003908161274d5790505b509050600060645b600a54811015610a49576000818152600360205260409020600401546001600160a01b0316331480156127c6575060008181526003602052604081206008015460ff1660048111156127c4576127c4613ea0565b145b1561293c5760008181526003602052604090819020815161014081019092528054829082906127f490614648565b80601f016020809104026020016040519081016040528092919081815260200182805461282090614648565b801561286d5780601f106128425761010080835404028352916020019161286d565b820191906000526020600020905b81548152906001019060200180831161285057829003601f168201915b50505091835250506001820154602082015260028201546040820152600382015460608201526004808301546001600160a01b039081166080840152600584015490811660a084015260ff600160a01b9091048116151560c0840152600684015460e0840152600784015461010084015260088401546101209093019216908111156128fb576128fb613ea0565b600481111561290c5761290c613ea0565b8152505083838151811061292257612922614632565b60200260200101819052508180612938906146b4565b9250505b600101612770565b600360205260009081526040902080548190611b0a90614648565b33600090815260208190526040812060029081015460ff169081111561298757612987613ea0565b146129a45760405162461bcd60e51b8152600401610f3f906149cd565b6000818152600160208190526040909120908101546001600160a01b03163314612a235760405162461bcd60e51b815260206004820152602a60248201527f4f6e6c7920746865206d616e7566616374757265722063616e20726563616c6c604482015269040e8d0ca40c4c2e8c6d60b31b6064820152608401610f3f565b60058101805460ff19166001179055604051339083907f5a41088291f050dab11b8aeaaeaa8fd33f2225751a5d64008f812e0362ef472590600090a35050565b600060208190529081526040902080546001820180546001600160a01b039092169291612a8f90614648565b80601f0160208091040260200160405190810160405280929190818152602001828054612abb90614648565b8015612b085780601f10612add57610100808354040283529160200191612b08565b820191906000526020600020905b815481529060010190602001808311612aeb57829003601f168201915b5050506002840154600385018054949560ff909216949193509150612b2c90614648565b80601f0160208091040260200160405190810160405280929190818152602001828054612b5890614648565b8015612ba55780601f10612b7a57610100808354040283529160200191612ba5565b820191906000526020600020905b815481529060010190602001808311612b8857829003601f168201915b5050505050905084565b60016020819052600091825260409091208054918101546002820180546001600160a01b039092169291612be290614648565b80601f0160208091040260200160405190810160405280929190818152602001828054612c0e90614648565b8015612c5b5780601f10612c3057610100808354040283529160200191612c5b565b820191906000526020600020905b815481529060010190602001808311612c3e57829003601f168201915b50505050600383015460048401546005850154600686015460078701546008880154600990980154969760ff80871698610100880482169850620100009097046001600160a01b0316969416938c565b33600090815260208190526040812060029081015460ff1690811115612cd357612cd3613ea0565b14612cf05760405162461bcd60e51b8152600401610f3f906149cd565b6000818152600160208190526040909120908101546001600160a01b03163314612d715760405162461bcd60e51b815260206004820152602c60248201527f4f6e6c7920746865206d616e7566616374757265722063616e2064697361707060448201526b726f7665207175616c69747960a01b6064820152608401610f3f565b60038101805461ffff1916610100179055604051339083907fc8c94276e66e72c265ff6c7a450b182f9910586a93051227e6024c1fbceaa88e90600090a35050565b6060600060645b600954811015612e30576000818152600260205260409020600401546001600160a01b038581169116148015612e155750600360008281526002602052604090206008015460ff166004811115612e1357612e13613ea0565b145b15612e285781612e24816146b4565b9250505b600101612dba565b506000816001600160401b03811115612e4b57612e4b614174565b604051908082528060200260200182016040528015612e8457816020015b612e71613cae565b815260200190600190039081612e695790505b509050600060645b600954811015610ca0576000818152600260205260409020600401546001600160a01b038781169116148015612ee75750600360008281526002602052604090206008015460ff166004811115612ee557612ee5613ea0565b145b1561305d576000818152600260205260409081902081516101408101909252805482908290612f1590614648565b80601f0160208091040260200160405190810160405280929190818152602001828054612f4190614648565b8015612f8e5780601f10612f6357610100808354040283529160200191612f8e565b820191906000526020600020905b815481529060010190602001808311612f7157829003601f168201915b50505091835250506001820154602082015260028201546040820152600382015460608201526004808301546001600160a01b039081166080840152600584015490811660a084015260ff600160a01b9091048116151560c0840152600684015460e08401526007840154610100840152600884015461012090930192169081111561301c5761301c613ea0565b600481111561302d5761302d613ea0565b8152505083838151811061304357613043614632565b60200260200101819052508180613059906146b4565b9250505b600101612e8c565b6060600060645b6009548110156130b0576000818152600260205260409020600401546001600160a01b038086169116036130a857816130a4816146b4565b9250505b60010161306c565b506000816001600160401b038111156130cb576130cb614174565b60405190808252806020026020018201604052801561310457816020015b6130f1613cae565b8152602001906001900390816130e95790505b509050600060645b600954811015610ca0576000818152600260205260409020600401546001600160a01b038088169116036132ab57600081815260026020526040908190208151610140810190925280548290829061316390614648565b80601f016020809104026020016040519081016040528092919081815260200182805461318f90614648565b80156131dc5780601f106131b1576101008083540402835291602001916131dc565b820191906000526020600020905b8154815290600101906020018083116131bf57829003601f168201915b50505091835250506001820154602082015260028201546040820152600382015460608201526004808301546001600160a01b039081166080840152600584015490811660a084015260ff600160a01b9091048116151560c0840152600684015460e08401526007840154610100840152600884015461012090930192169081111561326a5761326a613ea0565b600481111561327b5761327b613ea0565b8152505083838151811061329157613291614632565b602002602001018190525081806132a7906146b4565b9250505b60010161310c565b600760205281600052604060002081815481106132cf57600080fd5b906000526020600020016000915091505080546132eb90614648565b80601f016020809104026020016040519081016040528092919081815260200182805461331790614648565b80156133645780601f1061333957610100808354040283529160200191613364565b820191906000526020600020905b81548152906001019060200180831161334757829003601f168201915b505050505081565b613374613cae565b60008281526002602081905260408220908101549091036133ce5760405162461bcd60e51b815260206004820152601460248201527313dc99195c88191bd95cc81b9bdd08195e1a5cdd60621b6044820152606401610f3f565b80604051806101400160405290816000820180546133eb90614648565b80601f016020809104026020016040519081016040528092919081815260200182805461341790614648565b80156134645780601f1061343957610100808354040283529160200191613464565b820191906000526020600020905b81548152906001019060200180831161344757829003601f168201915b50505091835250506001820154602082015260028201546040820152600382015460608201526004808301546001600160a01b039081166080840152600584015490811660a084015260ff600160a01b9091048116151560c0840152600684015460e0840152600784015461010084015260088401546101209093019216908111156134f2576134f2613ea0565b600481111561350357613503613ea0565b9052509392505050565b613515613cae565b600082815260036020526040812060028101549091036133ce5760405162461bcd60e51b815260206004820152601460248201527313dc99195c88191bd95cc81b9bdd08195e1a5cdd60621b6044820152606401610f3f565b6060600060645b600a548110156135eb576000818152600360205260409020600401546001600160a01b0385811691161480156135d05750600360008281526003602052604090206008015460ff1660048111156135ce576135ce613ea0565b145b156135e357816135df816146b4565b9250505b600101613575565b506000816001600160401b0381111561360657613606614174565b60405190808252806020026020018201604052801561363f57816020015b61362c613cae565b8152602001906001900390816136245790505b509050600060645b600a54811015610ca0576000818152600360205260409020600401546001600160a01b0387811691161480156136a25750600360008281526003602052604090206008015460ff1660048111156136a0576136a0613ea0565b145b156138185760008181526003602052604090819020815161014081019092528054829082906136d090614648565b80601f01602080910402602001604051908101604052809291908181526020018280546136fc90614648565b80156137495780601f1061371e57610100808354040283529160200191613749565b820191906000526020600020905b81548152906001019060200180831161372c57829003601f168201915b50505091835250506001820154602082015260028201546040820152600382015460608201526004808301546001600160a01b039081166080840152600584015490811660a084015260ff600160a01b9091048116151560c0840152600684015460e0840152600784015461010084015260088401546101209093019216908111156137d7576137d7613ea0565b60048111156137e8576137e8613ea0565b815250508383815181106137fe576137fe614632565b60200260200101819052508180613814906146b4565b9250505b600101613647565b600660205281600052604060002081815481106132cf57600080fd5b600133600090815260208190526040902060029081015460ff169081111561386657613866613ea0565b146138835760405162461bcd60e51b8152600401610f3f906146cd565b6009805460009182613894836146b4565b91905055905060405180610140016040528084815260200183815260200182815260200160008152602001336001600160a01b0316815260200160006001600160a01b03168152602001600015158152602001428152602001600081526020016000600481111561390757613907613ea0565b90526000828152600260205260409020815181906122c89082614766565b33600090815260208190526040812060029081015460ff169081111561394d5761394d613ea0565b1461396a5760405162461bcd60e51b8152600401610f3f906149cd565b60016001600160a01b038316600090815260208190526040902060029081015460ff169081111561399d5761399d613ea0565b146139e05760405162461bcd60e51b815260206004820152601360248201527224b73b30b634b2103234b9ba3934b13aba37b960691b6044820152606401610f3f565b6000838152600160205260409020600381015460ff16613a425760405162461bcd60e51b815260206004820152601e60248201527f4261746368206d757374206265207175616c69747920617070726f76656400006044820152606401610f3f565b60038101546201000090046001600160a01b031615613a9c5760405162461bcd60e51b815260206004820152601660248201527510985d18da08185b1c9958591e48185cdcda59db995960521b6044820152606401610f3f565b6000828152600260205260409020600381015415613b085760405162461bcd60e51b8152602060048201526024808201527f4f7264657220697320616c72656164792061737369676e656420746f206120626044820152630c2e8c6d60e31b6064820152608401610f3f565b816008015481600101541115613b6e5760405162461bcd60e51b815260206004820152602560248201527f4f72646572207175616e746974792065786365656473206261746368207175616044820152646e7469747960d81b6064820152608401610f3f565b6003828101805462010000600160b01b031916620100006001600160a01b0388169081029190911790915560098401859055908201869055600582018054336001600160a01b031990911617905560088201805460ff1916600217905542600783015560405186907f8e6804b2e7bfb70fb26b5bbf7a87382c43918cd5fd77219d8846c3c4f302ad0a90600090a35050505050565b60008082613c28576001600160a01b0385166000908152600760205260409020613c41565b6001600160a01b03851660009081526006602052604090205b905060005b8154811015613ca0578480519060200120828281548110613c6957613c69614632565b90600052602060002001604051613c809190614898565b604051809103902003613c9857600192505050613ca7565b600101613c46565b5060009150505b9392505050565b6040518061014001604052806060815260200160008152602001600081526020016000815260200160006001600160a01b0316815260200160006001600160a01b03168152602001600015158152602001600081526020016000815260200160006004811115613d2057613d20613ea0565b905290565b6040518061018001604052806000815260200160006001600160a01b031681526020016060815260200160001515815260200160001515815260200160006001600160a01b0316815260200160008019168152602001600015158152602001600081526020016000815260200160008152602001600081525090565b80356001600160a01b0381168114613db857600080fd5b919050565b600060208284031215613dcf57600080fd5b613ca782613da1565b60005b83811015613df3578181015183820152602001613ddb565b50506000910152565b60008151808452613e14816020860160208601613dd8565b601f01601f19169290920160200192915050565b600060208083018184528085518083526040925060408601915060408160051b87010184880160005b83811015613e9257888303603f1901855281518051878552613e7588860182613dfc565b918901519489019490945294870194925090860190600101613e51565b509098975050505050505050565b634e487b7160e01b600052602160045260246000fd5b60058110613ec657613ec6613ea0565b9052565b60006101408251818552613ee082860182613dfc565b9150506020830151602085015260408301516040850152606083015160608501526080830151613f1b60808601826001600160a01b03169052565b5060a0830151613f3660a08601826001600160a01b03169052565b5060c0830151613f4a60c086018215159052565b5060e083015160e085015261010080840151818601525061012080840151610ca082870182613eb6565b600060208083016020845280855180835260408601915060408160051b87010192506020870160005b82811015613fcb57603f19888603018452613fb9858351613eca565b94509285019290850190600101613f9d565b5092979650505050505050565b600060208083016020845280855180835260408601915060408160051b87010192506020870160005b82811015613fcb57603f1988860301845261401d858351613eca565b94509285019290850190600101614001565b60038110613ec657613ec6613ea0565b6020810161404d828461402f565b92915050565b600060208083018184528085518083526040925060408601915060408160051b87010184880160005b83811015613e9257603f19898403018552815180518452878101516001600160a01b03168885015286810151610180888601819052906140be82870182613dfc565b9150506060808301516140d48288018215159052565b505060808281015115159086015260a0808301516001600160a01b03169086015260c0808301519086015260e080830151151590860152610100808301519086015261012080830151908601526101408083015190860152610160918201519190940152938601939086019060010161407c565b6000806040838503121561415b57600080fd5b8235915061416b60208401613da1565b90509250929050565b634e487b7160e01b600052604160045260246000fd5b600082601f83011261419b57600080fd5b81356001600160401b03808211156141b5576141b5614174565b604051601f8301601f19908116603f011681019082821181831017156141dd576141dd614174565b816040528381528660208588010111156141f657600080fd5b836020870160208301376000602085830101528094505050505092915050565b6000806000806080858703121561422c57600080fd5b61423585613da1565b935060208501356001600160401b038082111561425157600080fd5b61425d8883890161418a565b9450604087013591506003821061427357600080fd5b9092506060860135908082111561428957600080fd5b506142968782880161418a565b91505092959194509250565b600080600080608085870312156142b857600080fd5b84356001600160401b038111156142ce57600080fd5b6142da8782880161418a565b97602087013597506040870135966060013595509350505050565b60006020828403121561430757600080fd5b5035919050565b60006101408083526143228184018e613dfc565b9150508a602083015289604083015288606083015260018060a01b03808916608084015280881660a08401525085151560c08301528460e083015283610100830152614372610120830184613eb6565b9b9a5050505050505050505050565b6060815260006143946060830186613dfc565b82810360208401526143a68186613dfc565b9150506143b6604083018461402f565b949350505050565b602080825282516001600160a01b031682820152820151608060408301526000906143ec60a0840182613dfc565b90506040840151614400606085018261402f565b506060840151838203601f1901608085015261441c8282613dfc565b95945050505050565b6000806040838503121561443857600080fd5b61444183613da1565b915060208301356001600160401b0381111561445c57600080fd5b6144688582860161418a565b9150509250929050565b6000806040838503121561448557600080fd5b82356001600160401b0381111561449b57600080fd5b6144a78582860161418a565b95602094909401359450505050565b600080604083850312156144c957600080fd5b823591506020830135600581106144df57600080fd5b809150509250929050565b602081526000613ca76020830184613dfc565b6001600160a01b038516815260806020820181905260009061452190830186613dfc565b61452e604084018661402f565b82810360608401526145408185613dfc565b979650505050505050565b8c81526001600160a01b038c81166020830152610180604083018190526000916145778483018f613dfc565b9c151560608501529a1515608084015250509690971660a087015260c086019490945291151560e085015261010084015261012083015261014082015261016001529392505050565b600080604083850312156145d357600080fd5b6145dc83613da1565b946020939093013593505050565b602081526000613ca76020830184613eca565b60008060006060848603121561461257600080fd5b8335925061462260208501613da1565b9150604084013590509250925092565b634e487b7160e01b600052603260045260246000fd5b600181811c9082168061465c57607f821691505b60208210810361467c57634e487b7160e01b600052602260045260246000fd5b50919050565b60008251614694818460208701613dd8565b9190910192915050565b634e487b7160e01b600052601160045260246000fd5b6000600182016146c6576146c661469e565b5060010190565b60208082526029908201527f4f6e6c79206469737472696275746f72732063616e20706572666f726d20746860408201526834b99030b1ba34b7b760b91b606082015260800190565b601f8211156125a1576000816000526020600020601f850160051c8101602086101561473f5750805b601f850160051c820191505b8181101561475e5782815560010161474b565b505050505050565b81516001600160401b0381111561477f5761477f614174565b6147938161478d8454614648565b84614716565b602080601f8311600181146147c857600084156147b05750858301515b600019600386901b1c1916600185901b17855561475e565b600085815260208120601f198616915b828110156147f7578886015182559484019460019091019084016147d8565b50858210156148155787850151600019600388901b60f8161c191681555b5050505050600190811b01905550565b6000815461483281614648565b6001828116801561484a576001811461485f5761488e565b60ff198416875282151583028701945061488e565b8560005260208060002060005b858110156148855781548a82015290840190820161486c565b50505082870194505b5050505092915050565b6000613ca78284614825565b8082018082111561404d5761404d61469e565b8181036148c2575050565b6148cc8254614648565b6001600160401b038111156148e3576148e3614174565b6148f18161478d8454614648565b6000601f821160018114614925576000831561490d5750848201545b600019600385901b1c1916600184901b17845561498a565b600085815260209020601f19841690600086815260209020845b8381101561495f578286015482556001958601959091019060200161493f565b508583101561497d5781850154600019600388901b60f8161c191681555b50505060018360011b0184555b5050505050565b6060815260006149a46060830186613dfc565b6149b1602084018661402f565b82810360408401526149c38185613dfc565b9695505050505050565b6020808252602a908201527f4f6e6c79206d616e756661637475726572732063616e20706572666f726d20746040820152693434b99030b1ba34b7b760b11b606082015260800190565b60a081526000614a2a60a0830188613dfc565b90508560208301528460408301528360608301528260808301529695505050505050565b60208082526026908201527f4f6e6c792070726f7669646572732063616e20706572666f726d20746869732060408201526530b1ba34b7b760d11b60608201526080019056fea2646970667358221220a6484c7b43604f6dc79ad3fa770fb494c50c4e7fa770a79c40db392762e35f4064736f6c63430008180033",
  "linkReferences": {},
  "deployedLinkReferences": {}
}