{
  "_format": "hh-sol-artifact-1",
  "contractName": "PharmaChain",
  "sourceName": "contracts/PharmaChain.sol",
  "abi": [
    {
      "anonymous": false,
      "inputs": [
        {
          "indexed": true,
          "internalType": "uint256",
          "name": "batchId",
          "type": "uint256"
        },
        {
          "indexed": true,
          "internalType": "address",
          "name": "distributor",
          "type": "address"
        }
      ],
      "name": "BatchAssignedToDistributor",
      "type": "event"
    },
    {
      "anonymous": false,
      "inputs": [
        {
          "indexed": true,
          "internalType": "uint256",
          "name": "batchId",
          "type": "uint256"
        },
        {
          "indexed": true,
          "internalType": "address",
          "name": "manufacturer",
          "type": "address"
        },
        {
          "indexed": false,
          "internalType": "string",
          "name": "details",
          "type": "string"
        },
        {
          "indexed": false,
          "internalType": "bytes32",
          "name": "rfidUIDHash",
          "type": "bytes32"
        },
        {
          "indexed": false,
          "internalType": "uint256",
          "name": "manufactureDate",
          "type": "uint256"
        },
        {
          "indexed": false,
          "internalType": "uint256",
          "name": "expiryDate",
          "type": "uint256"
        },
        {
          "indexed": false,
          "internalType": "uint256",
          "name": "quantity",
          "type": "uint256"
        }
      ],
      "name": "BatchCreated",
      "type": "event"
    },
    {
      "anonymous": false,
      "inputs": [
        {
          "indexed": true,
          "internalType": "uint256",
          "name": "batchId",
          "type": "uint256"
        },
        {
          "indexed": true,
          "internalType": "address",
          "name": "initiator",
          "type": "address"
        }
      ],
      "name": "BatchRecalled",
      "type": "event"
    },
    {
      "anonymous": false,
      "inputs": [
        {
          "indexed": true,
          "internalType": "uint256",
          "name": "batchId",
          "type": "uint256"
        },
        {
          "indexed": true,
          "internalType": "address",
          "name": "approver",
          "type": "address"
        }
      ],
      "name": "QualityApproved",
      "type": "event"
    },
    {
      "anonymous": false,
      "inputs": [
        {
          "indexed": true,
          "internalType": "uint256",
          "name": "batchId",
          "type": "uint256"
        },
        {
          "indexed": true,
          "internalType": "address",
          "name": "disapprover",
          "type": "address"
        }
      ],
      "name": "QualityDisapproved",
      "type": "event"
    },
    {
      "anonymous": false,
      "inputs": [
        {
          "indexed": true,
          "internalType": "address",
          "name": "user",
          "type": "address"
        },
        {
          "indexed": false,
          "internalType": "string",
          "name": "companyName",
          "type": "string"
        },
        {
          "indexed": false,
          "internalType": "enum PharmaChain.Role",
          "name": "role",
          "type": "uint8"
        },
        {
          "indexed": false,
          "internalType": "string",
          "name": "contactInfo",
          "type": "string"
        }
      ],
      "name": "UserRegistered",
      "type": "event"
    },
    {
      "inputs": [
        {
          "internalType": "uint256",
          "name": "_batchId",
          "type": "uint256"
        }
      ],
      "name": "approveQuality",
      "outputs": [],
      "stateMutability": "nonpayable",
      "type": "function"
    },
    {
      "inputs": [
        {
          "internalType": "uint256",
          "name": "_orderId",
          "type": "uint256"
        },
        {
          "internalType": "uint256",
          "name": "_unitId",
          "type": "uint256"
        }
      ],
      "name": "assignBatchUnitToOrder",
      "outputs": [],
      "stateMutability": "nonpayable",
      "type": "function"
    },
    {
      "inputs": [
        {
          "internalType": "uint256",
          "name": "_batchId",
          "type": "uint256"
        },
        {
          "internalType": "address",
          "name": "_distributor",
          "type": "address"
        },
        {
          "internalType": "uint256",
          "name": "_orderId",
          "type": "uint256"
        }
      ],
      "name": "assignToDistributor",
      "outputs": [],
      "stateMutability": "nonpayable",
      "type": "function"
    },
    {
      "inputs": [
        {
          "internalType": "uint256",
          "name": "_unitId",
          "type": "uint256"
        },
        {
          "internalType": "address",
          "name": "_provider",
          "type": "address"
        }
      ],
      "name": "assignUnitToProvider",
      "outputs": [],
      "stateMutability": "nonpayable",
      "type": "function"
    },
    {
      "inputs": [
        {
          "internalType": "uint256",
          "name": "",
          "type": "uint256"
        }
      ],
      "name": "batchUnits",
      "outputs": [
        {
          "internalType": "uint256",
          "name": "unitId",
          "type": "uint256"
        },
        {
          "internalType": "uint256",
          "name": "batchId",
          "type": "uint256"
        },
        {
          "internalType": "address",
          "name": "provider",
          "type": "address"
        },
        {
          "internalType": "bool",
          "name": "isAssigned",
          "type": "bool"
        }
      ],
      "stateMutability": "view",
      "type": "function"
    },
    {
      "inputs": [
        {
          "internalType": "uint256",
          "name": "",
          "type": "uint256"
        }
      ],
      "name": "batches",
      "outputs": [
        {
          "internalType": "uint256",
          "name": "batchId",
          "type": "uint256"
        },
        {
          "internalType": "address",
          "name": "manufacturer",
          "type": "address"
        },
        {
          "internalType": "string",
          "name": "details",
          "type": "string"
        },
        {
          "internalType": "bool",
          "name": "isQualityApproved",
          "type": "bool"
        },
        {
          "internalType": "bool",
          "name": "isQualityDisapproved",
          "type": "bool"
        },
        {
          "internalType": "address",
          "name": "distributor",
          "type": "address"
        },
        {
          "internalType": "bytes32",
          "name": "rfidUIDHash",
          "type": "bytes32"
        },
        {
          "internalType": "bool",
          "name": "isRecalled",
          "type": "bool"
        },
        {
          "internalType": "uint256",
          "name": "manufactureDate",
          "type": "uint256"
        },
        {
          "internalType": "uint256",
          "name": "expiryDate",
          "type": "uint256"
        },
        {
          "internalType": "uint256",
          "name": "quantity",
          "type": "uint256"
        },
        {
          "internalType": "uint256",
          "name": "orderId",
          "type": "uint256"
        }
      ],
      "stateMutability": "view",
      "type": "function"
    },
    {
      "inputs": [
        {
          "internalType": "string",
          "name": "_details",
          "type": "string"
        },
        {
          "internalType": "bytes32",
          "name": "_rfidUIDHash",
          "type": "bytes32"
        },
        {
          "internalType": "uint256",
          "name": "_expiryDate",
          "type": "uint256"
        },
        {
          "internalType": "uint256",
          "name": "_quantity",
          "type": "uint256"
        }
      ],
      "name": "createBatch",
      "outputs": [],
      "stateMutability": "nonpayable",
      "type": "function"
    },
    {
      "inputs": [
        {
          "internalType": "string",
          "name": "_medName",
          "type": "string"
        },
        {
          "internalType": "uint256",
          "name": "_quantity",
          "type": "uint256"
        }
      ],
      "name": "createDistributorOrder",
      "outputs": [],
      "stateMutability": "nonpayable",
      "type": "function"
    },
    {
      "inputs": [
        {
          "internalType": "string",
          "name": "_details",
          "type": "string"
        },
        {
          "internalType": "address",
          "name": "_distributor",
          "type": "address"
        }
      ],
      "name": "createProviderOrder",
      "outputs": [],
      "stateMutability": "nonpayable",
      "type": "function"
    },
    {
      "inputs": [
        {
          "internalType": "uint256",
          "name": "_batchId",
          "type": "uint256"
        }
      ],
      "name": "disapproveQuality",
      "outputs": [],
      "stateMutability": "nonpayable",
      "type": "function"
    },
    {
      "inputs": [
        {
          "internalType": "address",
          "name": "",
          "type": "address"
        },
        {
          "internalType": "uint256",
          "name": "",
          "type": "uint256"
        }
      ],
      "name": "distributorMedNames",
      "outputs": [
        {
          "internalType": "string",
          "name": "",
          "type": "string"
        }
      ],
      "stateMutability": "view",
      "type": "function"
    },
    {
      "inputs": [
        {
          "internalType": "uint256",
          "name": "",
          "type": "uint256"
        }
      ],
      "name": "distributorOrders",
      "outputs": [
        {
          "internalType": "uint256",
          "name": "orderId",
          "type": "uint256"
        },
        {
          "internalType": "address",
          "name": "distributor",
          "type": "address"
        },
        {
          "internalType": "address",
          "name": "manufacturer",
          "type": "address"
        },
        {
          "internalType": "uint256",
          "name": "orderDate",
          "type": "uint256"
        },
        {
          "internalType": "uint256",
          "name": "batchId",
          "type": "uint256"
        },
        {
          "internalType": "string",
          "name": "medName",
          "type": "string"
        },
        {
          "internalType": "uint256",
          "name": "quantity",
          "type": "uint256"
        },
        {
          "internalType": "bool",
          "name": "isAssigned",
          "type": "bool"
        },
        {
          "internalType": "enum PharmaChain.OrderStatus",
          "name": "status",
          "type": "uint8"
        },
        {
          "internalType": "uint256",
          "name": "orderApprovedDate",
          "type": "uint256"
        }
      ],
      "stateMutability": "view",
      "type": "function"
    },
    {
      "inputs": [
        {
          "internalType": "address",
          "name": "",
          "type": "address"
        },
        {
          "internalType": "string",
          "name": "",
          "type": "string"
        }
      ],
      "name": "distributorStocks",
      "outputs": [
        {
          "internalType": "uint256",
          "name": "",
          "type": "uint256"
        }
      ],
      "stateMutability": "view",
      "type": "function"
    },
    {
      "inputs": [
        {
          "internalType": "address",
          "name": "_user",
          "type": "address"
        }
      ],
      "name": "getCompanyNameFromAddress",
      "outputs": [
        {
          "internalType": "string",
          "name": "",
          "type": "string"
        }
      ],
      "stateMutability": "view",
      "type": "function"
    },
    {
      "inputs": [
        {
          "internalType": "address",
          "name": "_manufacturer",
          "type": "address"
        }
      ],
      "name": "getCreatedBatches",
      "outputs": [
        {
          "components": [
            {
              "internalType": "uint256",
              "name": "batchId",
              "type": "uint256"
            },
            {
              "internalType": "address",
              "name": "manufacturer",
              "type": "address"
            },
            {
              "internalType": "string",
              "name": "details",
              "type": "string"
            },
            {
              "internalType": "bool",
              "name": "isQualityApproved",
              "type": "bool"
            },
            {
              "internalType": "bool",
              "name": "isQualityDisapproved",
              "type": "bool"
            },
            {
              "internalType": "address",
              "name": "distributor",
              "type": "address"
            },
            {
              "internalType": "bytes32",
              "name": "rfidUIDHash",
              "type": "bytes32"
            },
            {
              "internalType": "bool",
              "name": "isRecalled",
              "type": "bool"
            },
            {
              "internalType": "uint256",
              "name": "manufactureDate",
              "type": "uint256"
            },
            {
              "internalType": "uint256",
              "name": "expiryDate",
              "type": "uint256"
            },
            {
              "internalType": "uint256",
              "name": "quantity",
              "type": "uint256"
            },
            {
              "internalType": "uint256",
              "name": "orderId",
              "type": "uint256"
            }
          ],
          "internalType": "struct PharmaChain.Batch[]",
          "name": "",
          "type": "tuple[]"
        }
      ],
      "stateMutability": "view",
      "type": "function"
    },
    {
      "inputs": [
        {
          "internalType": "uint256",
          "name": "_orderId",
          "type": "uint256"
        }
      ],
      "name": "getDistributorOrderStatus",
      "outputs": [
        {
          "internalType": "enum PharmaChain.OrderStatus",
          "name": "",
          "type": "uint8"
        },
        {
          "internalType": "uint256",
          "name": "",
          "type": "uint256"
        }
      ],
      "stateMutability": "view",
      "type": "function"
    },
    {
      "inputs": [
        {
          "internalType": "address",
          "name": "_distributor",
          "type": "address"
        }
      ],
      "name": "getDistributorOrders",
      "outputs": [
        {
          "components": [
            {
              "internalType": "uint256",
              "name": "orderId",
              "type": "uint256"
            },
            {
              "internalType": "address",
              "name": "distributor",
              "type": "address"
            },
            {
              "internalType": "address",
              "name": "manufacturer",
              "type": "address"
            },
            {
              "internalType": "uint256",
              "name": "orderDate",
              "type": "uint256"
            },
            {
              "internalType": "uint256",
              "name": "batchId",
              "type": "uint256"
            },
            {
              "internalType": "string",
              "name": "medName",
              "type": "string"
            },
            {
              "internalType": "uint256",
              "name": "quantity",
              "type": "uint256"
            },
            {
              "internalType": "bool",
              "name": "isAssigned",
              "type": "bool"
            },
            {
              "internalType": "enum PharmaChain.OrderStatus",
              "name": "status",
              "type": "uint8"
            },
            {
              "internalType": "uint256",
              "name": "orderApprovedDate",
              "type": "uint256"
            }
          ],
          "internalType": "struct PharmaChain.DistributorOrder[]",
          "name": "",
          "type": "tuple[]"
        }
      ],
      "stateMutability": "view",
      "type": "function"
    },
    {
      "inputs": [
        {
          "internalType": "address",
          "name": "_distributor",
          "type": "address"
        }
      ],
      "name": "getDistributorStock",
      "outputs": [
        {
          "components": [
            {
              "internalType": "string",
              "name": "medName",
              "type": "string"
            },
            {
              "internalType": "uint256",
              "name": "quantity",
              "type": "uint256"
            }
          ],
          "internalType": "struct PharmaChain.StockItem[]",
          "name": "",
          "type": "tuple[]"
        }
      ],
      "stateMutability": "view",
      "type": "function"
    },
    {
      "inputs": [
        {
          "internalType": "address",
          "name": "_manufacturer",
          "type": "address"
        }
      ],
      "name": "getFulfilledBatches",
      "outputs": [
        {
          "components": [
            {
              "internalType": "uint256",
              "name": "batchId",
              "type": "uint256"
            },
            {
              "internalType": "address",
              "name": "manufacturer",
              "type": "address"
            },
            {
              "internalType": "string",
              "name": "details",
              "type": "string"
            },
            {
              "internalType": "bool",
              "name": "isQualityApproved",
              "type": "bool"
            },
            {
              "internalType": "bool",
              "name": "isQualityDisapproved",
              "type": "bool"
            },
            {
              "internalType": "address",
              "name": "distributor",
              "type": "address"
            },
            {
              "internalType": "bytes32",
              "name": "rfidUIDHash",
              "type": "bytes32"
            },
            {
              "internalType": "bool",
              "name": "isRecalled",
              "type": "bool"
            },
            {
              "internalType": "uint256",
              "name": "manufactureDate",
              "type": "uint256"
            },
            {
              "internalType": "uint256",
              "name": "expiryDate",
              "type": "uint256"
            },
            {
              "internalType": "uint256",
              "name": "quantity",
              "type": "uint256"
            },
            {
              "internalType": "uint256",
              "name": "orderId",
              "type": "uint256"
            }
          ],
          "internalType": "struct PharmaChain.Batch[]",
          "name": "",
          "type": "tuple[]"
        }
      ],
      "stateMutability": "view",
      "type": "function"
    },
    {
      "inputs": [],
      "name": "getPendingDistributorOrders",
      "outputs": [
        {
          "components": [
            {
              "internalType": "uint256",
              "name": "orderId",
              "type": "uint256"
            },
            {
              "internalType": "address",
              "name": "distributor",
              "type": "address"
            },
            {
              "internalType": "address",
              "name": "manufacturer",
              "type": "address"
            },
            {
              "internalType": "uint256",
              "name": "orderDate",
              "type": "uint256"
            },
            {
              "internalType": "uint256",
              "name": "batchId",
              "type": "uint256"
            },
            {
              "internalType": "string",
              "name": "medName",
              "type": "string"
            },
            {
              "internalType": "uint256",
              "name": "quantity",
              "type": "uint256"
            },
            {
              "internalType": "bool",
              "name": "isAssigned",
              "type": "bool"
            },
            {
              "internalType": "enum PharmaChain.OrderStatus",
              "name": "status",
              "type": "uint8"
            },
            {
              "internalType": "uint256",
              "name": "orderApprovedDate",
              "type": "uint256"
            }
          ],
          "internalType": "struct PharmaChain.DistributorOrder[]",
          "name": "",
          "type": "tuple[]"
        }
      ],
      "stateMutability": "view",
      "type": "function"
    },
    {
      "inputs": [
        {
          "internalType": "address",
          "name": "_provider",
          "type": "address"
        }
      ],
      "name": "getProviderOrders",
      "outputs": [
        {
          "components": [
            {
              "internalType": "uint256",
              "name": "orderId",
              "type": "uint256"
            },
            {
              "internalType": "address",
              "name": "provider",
              "type": "address"
            },
            {
              "internalType": "address",
              "name": "distributor",
              "type": "address"
            },
            {
              "internalType": "uint256",
              "name": "orderDate",
              "type": "uint256"
            },
            {
              "internalType": "uint256",
              "name": "unitId",
              "type": "uint256"
            },
            {
              "internalType": "string",
              "name": "details",
              "type": "string"
            },
            {
              "internalType": "bool",
              "name": "isAssigned",
              "type": "bool"
            },
            {
              "internalType": "uint256",
              "name": "batchId",
              "type": "uint256"
            },
            {
              "internalType": "enum PharmaChain.OrderStatus",
              "name": "status",
              "type": "uint8"
            }
          ],
          "internalType": "struct PharmaChain.ProviderOrder[]",
          "name": "",
          "type": "tuple[]"
        }
      ],
      "stateMutability": "view",
      "type": "function"
    },
    {
      "inputs": [
        {
          "internalType": "address",
          "name": "_provider",
          "type": "address"
        }
      ],
      "name": "getProviderStock",
      "outputs": [
        {
          "components": [
            {
              "internalType": "string",
              "name": "medName",
              "type": "string"
            },
            {
              "internalType": "uint256",
              "name": "quantity",
              "type": "uint256"
            }
          ],
          "internalType": "struct PharmaChain.StockItem[]",
          "name": "",
          "type": "tuple[]"
        }
      ],
      "stateMutability": "view",
      "type": "function"
    },
    {
      "inputs": [
        {
          "internalType": "address",
          "name": "_user",
          "type": "address"
        }
      ],
      "name": "getUserByAddress",
      "outputs": [
        {
          "components": [
            {
              "internalType": "address",
              "name": "account",
              "type": "address"
            },
            {
              "internalType": "string",
              "name": "companyName",
              "type": "string"
            },
            {
              "internalType": "enum PharmaChain.Role",
              "name": "role",
              "type": "uint8"
            },
            {
              "internalType": "string",
              "name": "contactInfo",
              "type": "string"
            }
          ],
          "internalType": "struct PharmaChain.User",
          "name": "",
          "type": "tuple"
        }
      ],
      "stateMutability": "view",
      "type": "function"
    },
    {
      "inputs": [
        {
          "internalType": "address",
          "name": "_user",
          "type": "address"
        }
      ],
      "name": "getUserInfo",
      "outputs": [
        {
          "internalType": "string",
          "name": "companyName",
          "type": "string"
        },
        {
          "internalType": "string",
          "name": "contactInfo",
          "type": "string"
        },
        {
          "internalType": "enum PharmaChain.Role",
          "name": "role",
          "type": "uint8"
        }
      ],
      "stateMutability": "view",
      "type": "function"
    },
    {
      "inputs": [
        {
          "internalType": "address",
          "name": "_user",
          "type": "address"
        }
      ],
      "name": "getUserRole",
      "outputs": [
        {
          "internalType": "enum PharmaChain.Role",
          "name": "",
          "type": "uint8"
        }
      ],
      "stateMutability": "view",
      "type": "function"
    },
    {
      "inputs": [
        {
          "internalType": "address",
          "name": "_user",
          "type": "address"
        }
      ],
      "name": "isUserRegistered",
      "outputs": [
        {
          "internalType": "bool",
          "name": "",
          "type": "bool"
        }
      ],
      "stateMutability": "view",
      "type": "function"
    },
    {
      "inputs": [],
      "name": "nextBatchId",
      "outputs": [
        {
          "internalType": "uint256",
          "name": "",
          "type": "uint256"
        }
      ],
      "stateMutability": "view",
      "type": "function"
    },
    {
      "inputs": [],
      "name": "nextDistributorOrderId",
      "outputs": [
        {
          "internalType": "uint256",
          "name": "",
          "type": "uint256"
        }
      ],
      "stateMutability": "view",
      "type": "function"
    },
    {
      "inputs": [],
      "name": "nextProviderOrderId",
      "outputs": [
        {
          "internalType": "uint256",
          "name": "",
          "type": "uint256"
        }
      ],
      "stateMutability": "view",
      "type": "function"
    },
    {
      "inputs": [],
      "name": "nextUnitId",
      "outputs": [
        {
          "internalType": "uint256",
          "name": "",
          "type": "uint256"
        }
      ],
      "stateMutability": "view",
      "type": "function"
    },
    {
      "inputs": [
        {
          "internalType": "address",
          "name": "",
          "type": "address"
        },
        {
          "internalType": "uint256",
          "name": "",
          "type": "uint256"
        }
      ],
      "name": "providerMedNames",
      "outputs": [
        {
          "internalType": "string",
          "name": "",
          "type": "string"
        }
      ],
      "stateMutability": "view",
      "type": "function"
    },
    {
      "inputs": [
        {
          "internalType": "uint256",
          "name": "",
          "type": "uint256"
        }
      ],
      "name": "providerOrders",
      "outputs": [
        {
          "internalType": "uint256",
          "name": "orderId",
          "type": "uint256"
        },
        {
          "internalType": "address",
          "name": "provider",
          "type": "address"
        },
        {
          "internalType": "address",
          "name": "distributor",
          "type": "address"
        },
        {
          "internalType": "uint256",
          "name": "orderDate",
          "type": "uint256"
        },
        {
          "internalType": "uint256",
          "name": "unitId",
          "type": "uint256"
        },
        {
          "internalType": "string",
          "name": "details",
          "type": "string"
        },
        {
          "internalType": "bool",
          "name": "isAssigned",
          "type": "bool"
        },
        {
          "internalType": "uint256",
          "name": "batchId",
          "type": "uint256"
        },
        {
          "internalType": "enum PharmaChain.OrderStatus",
          "name": "status",
          "type": "uint8"
        }
      ],
      "stateMutability": "view",
      "type": "function"
    },
    {
      "inputs": [
        {
          "internalType": "address",
          "name": "",
          "type": "address"
        },
        {
          "internalType": "string",
          "name": "",
          "type": "string"
        }
      ],
      "name": "providerStocks",
      "outputs": [
        {
          "internalType": "uint256",
          "name": "",
          "type": "uint256"
        }
      ],
      "stateMutability": "view",
      "type": "function"
    },
    {
      "inputs": [
        {
          "internalType": "uint256",
          "name": "_batchId",
          "type": "uint256"
        }
      ],
      "name": "recallBatch",
      "outputs": [],
      "stateMutability": "nonpayable",
      "type": "function"
    },
    {
      "inputs": [
        {
          "internalType": "address",
          "name": "_user",
          "type": "address"
        },
        {
          "internalType": "string",
          "name": "_companyName",
          "type": "string"
        },
        {
          "internalType": "enum PharmaChain.Role",
          "name": "_role",
          "type": "uint8"
        },
        {
          "internalType": "string",
          "name": "_contactInfo",
          "type": "string"
        }
      ],
      "name": "registerUser",
      "outputs": [],
      "stateMutability": "nonpayable",
      "type": "function"
    },
    {
      "inputs": [
        {
          "internalType": "uint256",
          "name": "_orderId",
          "type": "uint256"
        },
        {
          "internalType": "enum PharmaChain.OrderStatus",
          "name": "_status",
          "type": "uint8"
        }
      ],
      "name": "updateDistributorOrderStatus",
      "outputs": [],
      "stateMutability": "nonpayable",
      "type": "function"
    },
    {
      "inputs": [
        {
          "internalType": "uint256",
          "name": "_orderId",
          "type": "uint256"
        },
        {
          "internalType": "enum PharmaChain.OrderStatus",
          "name": "_status",
          "type": "uint8"
        }
      ],
      "name": "updateProviderOrderStatus",
      "outputs": [],
      "stateMutability": "nonpayable",
      "type": "function"
    },
    {
      "inputs": [
        {
          "internalType": "address",
          "name": "",
          "type": "address"
        }
      ],
      "name": "users",
      "outputs": [
        {
          "internalType": "address",
          "name": "account",
          "type": "address"
        },
        {
          "internalType": "string",
          "name": "companyName",
          "type": "string"
        },
        {
          "internalType": "enum PharmaChain.Role",
          "name": "role",
          "type": "uint8"
        },
        {
          "internalType": "string",
          "name": "contactInfo",
          "type": "string"
        }
      ],
      "stateMutability": "view",
      "type": "function"
    }
  ],
  "bytecode": "0x608060405260646009556064600a556064600b556064600c5534801561002457600080fd5b50614406806100346000396000f3fe608060405234801561001057600080fd5b50600436106102325760003560e01c806383e9f8bf11610130578063b616e184116100b8578063e3c6e07e1161007c578063e3c6e07e14610648578063f1bd14ad1461065b578063f212d6d914610697578063f685aaff146106aa578063fa4b47a3146106bd57600080fd5b8063b616e184146105f3578063c91cdc9014610606578063ced2774314610619578063d0aeb5371461062c578063d38622381461063f57600080fd5b806395c53d49116100ff57806395c53d49146104f6578063a3ef03cd1461051e578063a6e162b414610592578063a87430ba146105a5578063b32c4d8d146105c857600080fd5b806383e9f8bf146104b15780638429bcf7146104d15780638462a7f8146104da5780638b6c9395146104e357600080fd5b806344dfc5f8116101be57806369c212f61161018257806369c212f6146103ea5780636ae25d981461040a57806371ad93511461045457806376c38606146104955780637e3b128b146104a857600080fd5b806344dfc5f8146103665780634a746b7b146103795780634e4b18fb1461038c5780636386c1c7146103b5578063642c9719146103d757600080fd5b80632615457b116102055780632615457b146102c457806327820851146102e45780632d703d73146103205780633d28a3011461034057806343deec2e1461035357600080fd5b80630c3d3f4314610237578063163f75221461024c5780631c5a3a531461028f5780631d8abc8f146102af575b600080fd5b61024a6102453660046135b7565b6106d0565b005b61027a61025a3660046135e3565b6001600160a01b0390811660009081526020819052604090205416151590565b60405190151581526020015b60405180910390f35b6102a261029d3660046135e3565b610826565b604051610286919061364e565b6102b76109f1565b60405161028691906136f0565b6102d76102d23660046135e3565b610c36565b60405161028691906137d5565b6103136102f23660046135e3565b6001600160a01b031660009081526020819052604090206002015460ff1690565b60405161028691906138bd565b61033361032e3660046135e3565b610ecb565b60405161028691906138d1565b61024a61034e366004613a68565b611119565b61024a610361366004613af4565b611270565b61024a610374366004613b47565b611514565b6102a26103873660046135e3565b611618565b61039f61039a366004613b47565b6117db565b6040516102869a99989796959493929190613b60565b6103c86103c33660046135e3565b6118ca565b60405161028693929190613bd6565b6103336103e53660046135e3565b611a78565b6103fd6103f83660046135e3565b611d1e565b6040516102869190613c13565b610446610418366004613c7a565b6006602090815260009283526040909220815180830184018051928152908401929093019190912091525481565b604051908152602001610286565b610487610462366004613b47565b6000908152600360205260409020600781015460089091015461010090910460ff1691565b604051610286929190613cc7565b61024a6104a3366004613ce2565b611ed0565b610446600a5481565b6104c46104bf3660046135e3565b6120f4565b6040516102869190613d16565b610446600b5481565b61044660095481565b61024a6104f1366004613d29565b6121a3565b610509610504366004613b47565b612309565b60405161028699989796959493929190613d4b565b61056161052c366004613b47565b60026020819052600091825260409091208054600182015491909201546001600160a01b03811690600160a01b900460ff1684565b604051610286949392919093845260208401929092526001600160a01b031660408301521515606082015260800190565b61024a6105a0366004613b47565b6123f0565b6105b86105b33660046135e3565b6124f4565b6040516102869493929190613db9565b6105db6105d6366004613b47565b612640565b6040516102869c9b9a99989796959493929190613e07565b61024a610601366004613b47565b61273c565b61024a610614366004613ce2565b612844565b6102b76106273660046135e3565b612b07565b6104c461063a366004613e7c565b612d59565b610446600c5481565b6104c4610656366004613e7c565b612e12565b610446610669366004613c7a565b6005602090815260009283526040909220815180830184018051928152908401929093019190912091525481565b61024a6106a5366004613ea6565b612e2e565b61024a6106b8366004613eea565b612fac565b61024a6106cb366004613f2e565b613138565b600133600090815260208190526040902060029081015460ff16908111156106fa576106fa6136c6565b146107205760405162461bcd60e51b815260040161071790613f63565b60405180910390fd5b600082815260026020819052604090912090810154600160a01b900460ff161561078c5760405162461bcd60e51b815260206004820152601860248201527f556e697420697320616c72656164792061737369676e656400000000000000006044820152606401610717565b6001600160a01b038216600090815260208190526040902060029081015460ff16818111156107bd576107bd6136c6565b146107fd5760405162461bcd60e51b815260206004820152601060248201526f24b73b30b634b210383937bb34b232b960811b6044820152606401610717565b60020180546001600160a81b0319166001600160a01b0390921691909117600160a01b17905550565b6001600160a01b038116600090815260086020526040812054606091816001600160401b0381111561085a5761085a6139c6565b6040519080825280602002602001820160405280156108a057816020015b6040805180820190915260608152600060208201528152602001906001900390816108785790505b50905060005b828110156109e9576001600160a01b03851660009081526008602052604081208054839081106108d8576108d8613fac565b9060005260206000200180546108ed90613fc2565b80601f016020809104026020016040519081016040528092919081815260200182805461091990613fc2565b80156109665780601f1061093b57610100808354040283529160200191610966565b820191906000526020600020905b81548152906001019060200180831161094957829003601f168201915b50505050509050604051806040016040528082815260200160066000896001600160a01b03166001600160a01b03168152602001908152602001600020836040516109b19190613ffc565b9081526020016040518091039020548152508383815181106109d5576109d5613fac565b6020908102919091010152506001016108a6565b509392505050565b6060600060645b600b54811015610a315760008181526003602052604090206007015460ff16610a295781610a258161402e565b9250505b6001016109f8565b506000816001600160401b03811115610a4c57610a4c6139c6565b604051908082528060200260200182016040528015610a8557816020015b610a726134cc565b815260200190600190039081610a6a5790505b509050600060645b600b54811015610c2d5760008181526003602052604090206007015460ff16610c25576000818152600360208181526040928390208351610140810185528154815260018201546001600160a01b03908116938201939093526002820154909216938201939093529082015460608201526004820154608082015260058201805491929160a084019190610b2090613fc2565b80601f0160208091040260200160405190810160405280929190818152602001828054610b4c90613fc2565b8015610b995780601f10610b6e57610100808354040283529160200191610b99565b820191906000526020600020905b815481529060010190602001808311610b7c57829003601f168201915b505050918352505060068201546020820152600782015460ff80821615156040840152606090920191610100909104166004811115610bda57610bda6136c6565b6004811115610beb57610beb6136c6565b8152602001600882015481525050838381518110610c0b57610c0b613fac565b60200260200101819052508180610c219061402e565b9250505b600101610a8d565b50909392505050565b6060600060645b600c54811015610c81576000818152600460205260409020600101546001600160a01b03808616911603610c795781610c758161402e565b9250505b600101610c3d565b506000816001600160401b03811115610c9c57610c9c6139c6565b604051908082528060200260200182016040528015610d1957816020015b610d06604080516101208101825260008082526020820181905291810182905260608082018390526080820183905260a082015260c0810182905260e081018290529061010082015290565b815260200190600190039081610cba5790505b509050600060645b600c54811015610ec1576000818152600460205260409020600101546001600160a01b03808816911603610eb9576000818152600460208181526040928390208351610120810185528154815260018201546001600160a01b03908116938201939093526002820154909216938201939093526003830154606082015290820154608082015260058201805491929160a084019190610dbf90613fc2565b80601f0160208091040260200160405190810160405280929190818152602001828054610deb90613fc2565b8015610e385780601f10610e0d57610100808354040283529160200191610e38565b820191906000526020600020905b815481529060010190602001808311610e1b57829003601f168201915b5050509183525050600682015460ff90811615156020830152600783015460408301526008830154606090920191166004811115610e7857610e786136c6565b6004811115610e8957610e896136c6565b81525050838381518110610e9f57610e9f613fac565b60200260200101819052508180610eb59061402e565b9250505b600101610d21565b5090949350505050565b6060600060645b600954811015610f1757600081815260016020819052604090912001546001600160a01b03808616911603610f0f5781610f0b8161402e565b9250505b600101610ed2565b506000816001600160401b03811115610f3257610f326139c6565b604051908082528060200260200182016040528015610f6b57816020015b610f5861351f565b815260200190600190039081610f505790505b509050600060645b600954811015610ec157600081815260016020819052604090912001546001600160a01b038088169116036111115760008181526001602081815260409283902083516101808101855281548152928101546001600160a01b0316918301919091526002810180549293919291840191610fec90613fc2565b80601f016020809104026020016040519081016040528092919081815260200182805461101890613fc2565b80156110655780601f1061103a57610100808354040283529160200191611065565b820191906000526020600020905b81548152906001019060200180831161104857829003601f168201915b5050509183525050600382015460ff80821615156020840152610100808304821615156040850152620100009092046001600160a01b0316606084015260048401546080840152600584015416151560a0830152600683015460c0830152600783015460e08301526008830154908201526009909101546101209091015283518490849081106110f7576110f7613fac565b6020026020010181905250818061110d9061402e565b9250505b600101610f73565b6001600160a01b0384166111615760405162461bcd60e51b815260206004820152600f60248201526e496e76616c6964206164647265737360881b6044820152606401610717565b6040518060800160405280856001600160a01b03168152602001848152602001836002811115611193576111936136c6565b815260209081018390526001600160a01b03868116600090815280835260409020835181546001600160a01b03191692169190911781559082015160018201906111dd9082614097565b5060408201518160020160006101000a81548160ff02191690836002811115611208576112086136c6565b0217905550606082015160038201906112219082614097565b50905050836001600160a01b03167f3a403922431a43cbc3d929f1b03869ffadab7bce01402822980e72e6ea8e9d9184848460405161126293929190614156565b60405180910390a250505050565b33600090815260208190526040812060029081015460ff1690811115611298576112986136c6565b146112b55760405162461bcd60e51b815260040161071790614192565b60098054600091826112c68361402e565b9190505590504283116113255760405162461bcd60e51b815260206004820152602160248201527f4578706972792064617465206d75737420626520696e207468652066757475726044820152606560f81b6064820152608401610717565b600082116113805760405162461bcd60e51b815260206004820152602260248201527f5175616e74697479206d7573742062652067726561746572207468616e207a65604482015261726f60f01b6064820152608401610717565b60408051610180810182528281523360208083019182528284018981526000606085018190526080850181905260a0850181905260c085018a905260e08501819052426101008601526101208501899052610140850188905261016085018190528681526001928390529490942083518155915190820180546001600160a01b0319166001600160a01b03909216919091179055915190919060028201906114289082614097565b506060820151600382018054608085015160a086015161ffff1990921693151561ff0019169390931761010093151584021762010000600160b01b031916620100006001600160a01b039092169190910217905560c0830151600483015560e083015160058301805460ff191691151591909117905582015160068201556101208201516007820155610140820151600882015561016090910151600990910155604051339082907fbee34f0ca0c0edfc2bd967468f81e100292d859329be491cc44c4ec390c65fac90611505908990899042908a908a906141dc565b60405180910390a35050505050565b33600090815260208190526040812060029081015460ff169081111561153c5761153c6136c6565b146115595760405162461bcd60e51b815260040161071790614192565b6000818152600160208190526040909120908101546001600160a01b031633146115d75760405162461bcd60e51b815260206004820152602960248201527f4f6e6c7920746865206d616e7566616374757265722063616e20617070726f7660448201526865207175616c69747960b81b6064820152608401610717565b60038101805461ffff19166001179055604051339083907f08d6065569e454b48393f44317518d1282971813504b4d323942afba2f7a2c5d90600090a35050565b6001600160a01b038116600090815260076020526040812054606091816001600160401b0381111561164c5761164c6139c6565b60405190808252806020026020018201604052801561169257816020015b60408051808201909152606081526000602082015281526020019060019003908161166a5790505b50905060005b828110156109e9576001600160a01b03851660009081526007602052604081208054839081106116ca576116ca613fac565b9060005260206000200180546116df90613fc2565b80601f016020809104026020016040519081016040528092919081815260200182805461170b90613fc2565b80156117585780601f1061172d57610100808354040283529160200191611758565b820191906000526020600020905b81548152906001019060200180831161173b57829003601f168201915b50505050509050604051806040016040528082815260200160056000896001600160a01b03166001600160a01b03168152602001908152602001600020836040516117a39190613ffc565b9081526020016040518091039020548152508383815181106117c7576117c7613fac565b602090810291909101015250600101611698565b600360208190526000918252604090912080546001820154600283015493830154600484015460058501805494966001600160a01b03948516969416949293919261182590613fc2565b80601f016020809104026020016040519081016040528092919081815260200182805461185190613fc2565b801561189e5780601f106118735761010080835404028352916020019161189e565b820191906000526020600020905b81548152906001019060200180831161188157829003601f168201915b505050600684015460078501546008909501549394909360ff808316945061010090920490911691508a565b6001600160a01b03808216600090815260208181526040808320815160808101909252805490941681526001840180546060958695948594939192908401919061191390613fc2565b80601f016020809104026020016040519081016040528092919081815260200182805461193f90613fc2565b801561198c5780601f106119615761010080835404028352916020019161198c565b820191906000526020600020905b81548152906001019060200180831161196f57829003601f168201915b505050918352505060028281015460209092019160ff16908111156119b3576119b36136c6565b60028111156119c4576119c46136c6565b81526020016003820180546119d890613fc2565b80601f0160208091040260200160405190810160405280929190818152602001828054611a0490613fc2565b8015611a515780601f10611a2657610100808354040283529160200191611a51565b820191906000526020600020905b815481529060010190602001808311611a3457829003601f168201915b50505091909252505050602081015160608201516040909201519097919650945092505050565b6060600060645b600954811015611af057600081815260016020819052604090912001546001600160a01b038581169116148015611ad557506000818152600160205260409020600301546201000090046001600160a01b031615155b15611ae85781611ae48161402e565b9250505b600101611a7f565b506000816001600160401b03811115611b0b57611b0b6139c6565b604051908082528060200260200182016040528015611b4457816020015b611b3161351f565b815260200190600190039081611b295790505b509050600060645b600954811015610ec157600081815260016020819052604090912001546001600160a01b038781169116148015611ba257506000818152600160205260409020600301546201000090046001600160a01b031615155b15611d165760008181526001602081815260409283902083516101808101855281548152928101546001600160a01b0316918301919091526002810180549293919291840191611bf190613fc2565b80601f0160208091040260200160405190810160405280929190818152602001828054611c1d90613fc2565b8015611c6a5780601f10611c3f57610100808354040283529160200191611c6a565b820191906000526020600020905b815481529060010190602001808311611c4d57829003601f168201915b5050509183525050600382015460ff80821615156020840152610100808304821615156040850152620100009092046001600160a01b0316606084015260048401546080840152600584015416151560a0830152600683015460c0830152600783015460e0830152600883015490820152600990910154610120909101528351849084908110611cfc57611cfc613fac565b60200260200101819052508180611d129061402e565b9250505b600101611b4c565b60408051608081018252600080825260606020830181905292820152818101919091526001600160a01b03808316600090815260208181526040918290208251608081019093528054909316825260018301805492939291840191611d8290613fc2565b80601f0160208091040260200160405190810160405280929190818152602001828054611dae90613fc2565b8015611dfb5780601f10611dd057610100808354040283529160200191611dfb565b820191906000526020600020905b815481529060010190602001808311611dde57829003601f168201915b505050918352505060028281015460209092019160ff1690811115611e2257611e226136c6565b6002811115611e3357611e336136c6565b8152602001600382018054611e4790613fc2565b80601f0160208091040260200160405190810160405280929190818152602001828054611e7390613fc2565b8015611ec05780601f10611e9557610100808354040283529160200191611ec0565b820191906000526020600020905b815481529060010190602001808311611ea357829003601f168201915b5050505050815250509050919050565b600133600090815260208190526040902060029081015460ff1690811115611efa57611efa6136c6565b14611f175760405162461bcd60e51b815260040161071790613f63565b600082815260036020526040902060018101546001600160a01b03163314611f9a5760405162461bcd60e51b815260206004820152603060248201527f4f6e6c7920746865206469737472696275746f722063616e207570646174652060448201526f746865206f726465722073746174757360801b6064820152608401610717565b60078101805483919061ff001916610100836004811115611fbd57611fbd6136c6565b02179055506003826004811115611fd657611fd66136c6565b036120ef57600681015433600090815260056020819052604091829020915161200191850190614286565b9081526020016040518091039020600082825461201e9190614292565b925050819055506120bd3382600501805461203890613fc2565b80601f016020809104026020016040519081016040528092919081815260200182805461206490613fc2565b80156120b15780601f10612086576101008083540402835291602001916120b1565b820191906000526020600020905b81548152906001019060200180831161209457829003601f168201915b50505050506001613421565b6120ef57336000908152600760209081526040822080546001810182559083529120016120ed60058301826142a5565b505b505050565b6001600160a01b038116600090815260208190526040902060010180546060919061211e90613fc2565b80601f016020809104026020016040519081016040528092919081815260200182805461214a90613fc2565b80156121975780601f1061216c57610100808354040283529160200191612197565b820191906000526020600020905b81548152906001019060200180831161217a57829003601f168201915b50505050509050919050565b600133600090815260208190526040902060029081015460ff16908111156121cd576121cd6136c6565b146121ea5760405162461bcd60e51b815260040161071790613f63565b600082815260046020526040902060028101546001600160a01b031633146122635760405162461bcd60e51b815260206004820152602660248201527f4f6e6c7920746865206469737472696275746f722063616e2061737369676e2060448201526518481d5b9a5d60d21b6064820152608401610717565b600082815260026020819052604090912090810154600160a01b900460ff16801561229a575060028101546001600160a01b031615155b6122d55760405162461bcd60e51b815260206004820152600c60248201526b125b9d985b1a59081d5b9a5d60a21b6044820152606401610717565b6004820192909255600681018054600160ff1991821681179092559281015460078301556008909101805490921617905550565b600460208190526000918252604090912080546001820154600283015460038401549484015460058501805494966001600160a01b0394851696939094169491929161235490613fc2565b80601f016020809104026020016040519081016040528092919081815260200182805461238090613fc2565b80156123cd5780601f106123a2576101008083540402835291602001916123cd565b820191906000526020600020905b8154815290600101906020018083116123b057829003601f168201915b5050505060068301546007840154600890940154929360ff918216939092501689565b33600090815260208190526040812060029081015460ff1690811115612418576124186136c6565b146124355760405162461bcd60e51b815260040161071790614192565b6000818152600160208190526040909120908101546001600160a01b031633146124b45760405162461bcd60e51b815260206004820152602a60248201527f4f6e6c7920746865206d616e7566616374757265722063616e20726563616c6c604482015269040e8d0ca40c4c2e8c6d60b31b6064820152608401610717565b60058101805460ff19166001179055604051339083907f5a41088291f050dab11b8aeaaeaa8fd33f2225751a5d64008f812e0362ef472590600090a35050565b600060208190529081526040902080546001820180546001600160a01b03909216929161252090613fc2565b80601f016020809104026020016040519081016040528092919081815260200182805461254c90613fc2565b80156125995780601f1061256e57610100808354040283529160200191612599565b820191906000526020600020905b81548152906001019060200180831161257c57829003601f168201915b5050506002840154600385018054949560ff9092169491935091506125bd90613fc2565b80601f01602080910402602001604051908101604052809291908181526020018280546125e990613fc2565b80156126365780601f1061260b57610100808354040283529160200191612636565b820191906000526020600020905b81548152906001019060200180831161261957829003601f168201915b5050505050905084565b60016020819052600091825260409091208054918101546002820180546001600160a01b03909216929161267390613fc2565b80601f016020809104026020016040519081016040528092919081815260200182805461269f90613fc2565b80156126ec5780601f106126c1576101008083540402835291602001916126ec565b820191906000526020600020905b8154815290600101906020018083116126cf57829003601f168201915b50505050600383015460048401546005850154600686015460078701546008880154600990980154969760ff80871698610100880482169850620100009097046001600160a01b0316969416938c565b33600090815260208190526040812060029081015460ff1690811115612764576127646136c6565b146127815760405162461bcd60e51b815260040161071790614192565b6000818152600160208190526040909120908101546001600160a01b031633146128025760405162461bcd60e51b815260206004820152602c60248201527f4f6e6c7920746865206d616e7566616374757265722063616e2064697361707060448201526b726f7665207175616c69747960a01b6064820152608401610717565b60038101805461ffff1916610100179055604051339083907fc8c94276e66e72c265ff6c7a450b182f9910586a93051227e6024c1fbceaa88e90600090a35050565b33600090815260208190526040902060029081015460ff168181111561286c5761286c6136c6565b146128895760405162461bcd60e51b815260040161071790614377565b600082815260046020526040902060018101546001600160a01b031633146129095760405162461bcd60e51b815260206004820152602d60248201527f4f6e6c79207468652070726f76696465722063616e207570646174652074686560448201526c206f726465722073746174757360981b6064820152608401610717565b60088101805483919060ff1916600183600481111561292a5761292a6136c6565b02179055506003826004811115612943576129436136c6565b036120ef5760048101546000908152600260208181526040808420858401546001600160a01b031685526005835281852060018083015487529384905294829020915190949293612995920190614286565b908152602001604051809103902060008282546129b291906143bd565b90915550503360009081526006602090815260408083206001858101548552928390529281902090519192916129eb9160020190614286565b90815260200160405180910390206000828254612a089190614292565b92505081905550612abd3360016000846001015481526020019081526020016000206002018054612a3890613fc2565b80601f0160208091040260200160405190810160405280929190818152602001828054612a6490613fc2565b8015612ab15780601f10612a8657610100808354040283529160200191612ab1565b820191906000526020600020905b815481529060010190602001808311612a9457829003601f168201915b50505050506000613421565b6120ed573360009081526008602090815260408083206001858101548552808452918420815492830182559084529190922090910190612b0090600201826142a5565b5050505050565b6060600060645b600b54811015612b52576000818152600360205260409020600101546001600160a01b03808616911603612b4a5781612b468161402e565b9250505b600101612b0e565b506000816001600160401b03811115612b6d57612b6d6139c6565b604051908082528060200260200182016040528015612ba657816020015b612b936134cc565b815260200190600190039081612b8b5790505b509050600060645b600b54811015610ec1576000818152600360205260409020600101546001600160a01b03808816911603612d51576000818152600360208181526040928390208351610140810185528154815260018201546001600160a01b03908116938201939093526002820154909216938201939093529082015460608201526004820154608082015260058201805491929160a084019190612c4c90613fc2565b80601f0160208091040260200160405190810160405280929190818152602001828054612c7890613fc2565b8015612cc55780601f10612c9a57610100808354040283529160200191612cc5565b820191906000526020600020905b815481529060010190602001808311612ca857829003601f168201915b505050918352505060068201546020820152600782015460ff80821615156040840152606090920191610100909104166004811115612d0657612d066136c6565b6004811115612d1757612d176136c6565b8152602001600882015481525050838381518110612d3757612d37613fac565b60200260200101819052508180612d4d9061402e565b9250505b600101612bae565b60086020528160005260406000208181548110612d7557600080fd5b90600052602060002001600091509150508054612d9190613fc2565b80601f0160208091040260200160405190810160405280929190818152602001828054612dbd90613fc2565b8015612e0a5780601f10612ddf57610100808354040283529160200191612e0a565b820191906000526020600020905b815481529060010190602001808311612ded57829003601f168201915b505050505081565b60076020528160005260406000208181548110612d7557600080fd5b600133600090815260208190526040902060029081015460ff1690811115612e5857612e586136c6565b14612e755760405162461bcd60e51b815260040161071790613f63565b600b805460009182612e868361402e565b909155506040805161014081018252828152336020808301918252600083850181815242606086019081526080860183815260a087018c815260c088018c905260e0880185905261010088018590526101208801859052898552600395869052979093208651815594516001860180546001600160a01b03199081166001600160a01b0393841617909155925160028701805490941691161790915551918301919091555160048201559151929350916005820190612f459082614097565b5060c0820151600682015560e082015160078201805491151560ff19831681178255610100808601519361ff001990921661ffff199092169190911790836004811115612f9457612f946136c6565b02179055506101208201518160080155905050505050565b33600090815260208190526040902060029081015460ff1681811115612fd457612fd46136c6565b14612ff15760405162461bcd60e51b815260040161071790614377565b600c8054600091826130028361402e565b919050559050604051806101200160405280828152602001336001600160a01b03168152602001836001600160a01b0316815260200142815260200160008152602001848152602001600015158152602001600081526020016000600481111561306e5761306e6136c6565b905260008281526004602081815260409283902084518155908401516001820180546001600160a01b03199081166001600160a01b0393841617909155938501516002830180549095169116179092556060830151600383015560808301519082015560a082015160058201906130e59082614097565b5060c082015160068201805491151560ff1992831617905560e083015160078301556101008301516008830180549192909116600183600481111561312c5761312c6136c6565b02179055505050505050565b33600090815260208190526040812060029081015460ff1690811115613160576131606136c6565b1461317d5760405162461bcd60e51b815260040161071790614192565b60016001600160a01b038316600090815260208190526040902060029081015460ff16908111156131b0576131b06136c6565b146131f35760405162461bcd60e51b815260206004820152601360248201527224b73b30b634b2103234b9ba3934b13aba37b960691b6044820152606401610717565b6000838152600160205260409020600381015460ff166132555760405162461bcd60e51b815260206004820152601e60248201527f4261746368206d757374206265207175616c69747920617070726f76656400006044820152606401610717565b60038101546201000090046001600160a01b0316156132af5760405162461bcd60e51b815260206004820152601660248201527510985d18da08185b1c9958591e48185cdcda59db995960521b6044820152606401610717565b600082815260036020526040902060048101541561331b5760405162461bcd60e51b8152602060048201526024808201527f4f7264657220697320616c72656164792061737369676e656420746f206120626044820152630c2e8c6d60e31b6064820152608401610717565b8160080154816006015411156133815760405162461bcd60e51b815260206004820152602560248201527f4f72646572207175616e746974792065786365656473206261746368207175616044820152646e7469747960d81b6064820152608401610717565b6003820180546001600160a01b038616620100000262010000600160b01b03199091161790556009820183905560048101859055600281810180546001600160a01b0319163317905560078201805461ff0019166101008302179055504260088201556040516001600160a01b0385169086907f8e6804b2e7bfb70fb26b5bbf7a87382c43918cd5fd77219d8846c3c4f302ad0a90600090a35050505050565b60008082613446576001600160a01b038516600090815260086020526040902061345f565b6001600160a01b03851660009081526007602052604090205b905060005b81548110156134be57848051906020012082828154811061348757613487613fac565b9060005260206000200160405161349e9190614286565b6040518091039020036134b6576001925050506134c5565b600101613464565b5060009150505b9392505050565b604080516101408101825260008082526020820181905291810182905260608082018390526080820183905260a082015260c0810182905260e08101829052906101008201908152602001600081525090565b6040518061018001604052806000815260200160006001600160a01b031681526020016060815260200160001515815260200160001515815260200160006001600160a01b0316815260200160008019168152602001600015158152602001600081526020016000815260200160008152602001600081525090565b80356001600160a01b03811681146135b257600080fd5b919050565b600080604083850312156135ca57600080fd5b823591506135da6020840161359b565b90509250929050565b6000602082840312156135f557600080fd5b6134c58261359b565b60005b83811015613619578181015183820152602001613601565b50506000910152565b6000815180845261363a8160208601602086016135fe565b601f01601f19169290920160200192915050565b600060208083018184528085518083526040925060408601915060408160051b87010184880160005b838110156136b857888303603f190185528151805187855261369b88860182613622565b918901519489019490945294870194925090860190600101613677565b509098975050505050505050565b634e487b7160e01b600052602160045260246000fd5b600581106136ec576136ec6136c6565b9052565b600060208083018184528085518083526040925060408601915060408160051b87010184880160005b838110156136b857603f19898403018552815180518452878101516001600160a01b0390811689860152878201511687850152606080820151908501526080808201519085015260a080820151610140828701819052919061377d83880182613622565b9250505060c080830151818701525060e08083015161379f8288018215159052565b5050610100808301516137b4828801826136dc565b50506101209182015194909101939093529386019390860190600101613719565b600060208083018184528085518083526040925060408601915060408160051b87010184880160005b838110156136b857603f19898403018552815180518452878101516001600160a01b0390811689860152878201511687850152606080820151908501526080808201519085015260a080820151610120828701819052919061386283880182613622565b9250505060c0808301516138798288018215159052565b505060e082810151908601526101009182015191613899818701846136dc565b5095880195935050908601906001016137fe565b600381106136ec576136ec6136c6565b602081016138cb82846138ad565b92915050565b600060208083018184528085518083526040925060408601915060408160051b87010184880160005b838110156136b857603f19898403018552815180518452878101516001600160a01b031688850152868101516101808886018190529061393c82870182613622565b9150506060808301516139528288018215159052565b505060808281015115159086015260a0808301516001600160a01b03169086015260c0808301519086015260e08083015115159086015261010080830151908601526101208083015190860152610140808301519086015261016091820151919094015293860193908601906001016138fa565b634e487b7160e01b600052604160045260246000fd5b600082601f8301126139ed57600080fd5b81356001600160401b0380821115613a0757613a076139c6565b604051601f8301601f19908116603f01168101908282118183101715613a2f57613a2f6139c6565b81604052838152866020858801011115613a4857600080fd5b836020870160208301376000602085830101528094505050505092915050565b60008060008060808587031215613a7e57600080fd5b613a878561359b565b935060208501356001600160401b0380821115613aa357600080fd5b613aaf888389016139dc565b94506040870135915060038210613ac557600080fd5b90925060608601359080821115613adb57600080fd5b50613ae8878288016139dc565b91505092959194509250565b60008060008060808587031215613b0a57600080fd5b84356001600160401b03811115613b2057600080fd5b613b2c878288016139dc565b97602087013597506040870135966060013595509350505050565b600060208284031215613b5957600080fd5b5035919050565b8a81526001600160a01b038a8116602083015289166040820152606081018890526080810187905261014060a08201819052600090613ba183820189613622565b9150508560c083015284151560e0830152613bc06101008301856136dc565b826101208301529b9a5050505050505050505050565b606081526000613be96060830186613622565b8281036020840152613bfb8186613622565b915050613c0b60408301846138ad565b949350505050565b602080825282516001600160a01b03168282015282015160806040830152600090613c4160a0840182613622565b90506040840151613c5560608501826138ad565b506060840151838203601f19016080850152613c718282613622565b95945050505050565b60008060408385031215613c8d57600080fd5b613c968361359b565b915060208301356001600160401b03811115613cb157600080fd5b613cbd858286016139dc565b9150509250929050565b60408101613cd582856136dc565b8260208301529392505050565b60008060408385031215613cf557600080fd5b82359150602083013560058110613d0b57600080fd5b809150509250929050565b6020815260006134c56020830184613622565b60008060408385031215613d3c57600080fd5b50508035926020909101359150565b8981526001600160a01b03898116602083015288166040820152606081018790526080810186905261012060a08201819052600090613d8c83820188613622565b91505084151560c08301528360e0830152613dab6101008301846136dc565b9a9950505050505050505050565b6001600160a01b0385168152608060208201819052600090613ddd90830186613622565b613dea60408401866138ad565b8281036060840152613dfc8185613622565b979650505050505050565b8c81526001600160a01b038c8116602083015261018060408301819052600091613e338483018f613622565b9c151560608501529a1515608084015250509690971660a087015260c086019490945291151560e085015261010084015261012083015261014082015261016001529392505050565b60008060408385031215613e8f57600080fd5b613e988361359b565b946020939093013593505050565b60008060408385031215613eb957600080fd5b82356001600160401b03811115613ecf57600080fd5b613edb858286016139dc565b95602094909401359450505050565b60008060408385031215613efd57600080fd5b82356001600160401b03811115613f1357600080fd5b613f1f858286016139dc565b9250506135da6020840161359b565b600080600060608486031215613f4357600080fd5b83359250613f536020850161359b565b9150604084013590509250925092565b60208082526029908201527f4f6e6c79206469737472696275746f72732063616e20706572666f726d20746860408201526834b99030b1ba34b7b760b91b606082015260800190565b634e487b7160e01b600052603260045260246000fd5b600181811c90821680613fd657607f821691505b602082108103613ff657634e487b7160e01b600052602260045260246000fd5b50919050565b6000825161400e8184602087016135fe565b9190910192915050565b634e487b7160e01b600052601160045260246000fd5b60006001820161404057614040614018565b5060010190565b601f8211156120ef576000816000526020600020601f850160051c810160208610156140705750805b601f850160051c820191505b8181101561408f5782815560010161407c565b505050505050565b81516001600160401b038111156140b0576140b06139c6565b6140c4816140be8454613fc2565b84614047565b602080601f8311600181146140f957600084156140e15750858301515b600019600386901b1c1916600185901b17855561408f565b600085815260208120601f198616915b8281101561412857888601518255948401946001909101908401614109565b50858210156141465787850151600019600388901b60f8161c191681555b5050505050600190811b01905550565b6060815260006141696060830186613622565b61417660208401866138ad565b82810360408401526141888185613622565b9695505050505050565b6020808252602a908201527f4f6e6c79206d616e756661637475726572732063616e20706572666f726d20746040820152693434b99030b1ba34b7b760b11b606082015260800190565b60a0815260006141ef60a0830188613622565b90508560208301528460408301528360608301528260808301529695505050505050565b6000815461422081613fc2565b60018281168015614238576001811461424d5761427c565b60ff198416875282151583028701945061427c565b8560005260208060002060005b858110156142735781548a82015290840190820161425a565b50505082870194505b5050505092915050565b60006134c58284614213565b808201808211156138cb576138cb614018565b8181036142b0575050565b6142ba8254613fc2565b6001600160401b038111156142d1576142d16139c6565b6142df816140be8454613fc2565b6000601f82116001811461431357600083156142fb5750848201545b600019600385901b1c1916600184901b178455612b00565b600085815260209020601f19841690600086815260209020845b8381101561434d578286015482556001958601959091019060200161432d565b50858310156141465793015460001960f8600387901b161c19169092555050600190811b01905550565b60208082526026908201527f4f6e6c792070726f7669646572732063616e20706572666f726d20746869732060408201526530b1ba34b7b760d11b606082015260800190565b818103818111156138cb576138cb61401856fea2646970667358221220b505762c90a832b1db5ce881e4b36e79202ccc05ef7803add021657446071e3464736f6c63430008180033",
  "linkReferences": {},
  "deployedLinkReferences": {}
}