{
  "_format": "hh-sol-artifact-1",
  "contractName": "PharmaChain",
  "sourceName": "contracts/PharmaChain.sol",
  "abi": [
    {
      "anonymous": false,
      "inputs": [
        {
          "indexed": true,
          "internalType": "uint256",
          "name": "batchId",
          "type": "uint256"
        },
        {
          "indexed": true,
          "internalType": "address",
          "name": "distributor",
          "type": "address"
        }
      ],
      "name": "BatchAssignedToDistributor",
      "type": "event"
    },
    {
      "anonymous": false,
      "inputs": [
        {
          "indexed": true,
          "internalType": "uint256",
          "name": "batchId",
          "type": "uint256"
        },
        {
          "indexed": true,
          "internalType": "address",
          "name": "provider",
          "type": "address"
        }
      ],
      "name": "BatchAssignedToProvider",
      "type": "event"
    },
    {
      "anonymous": false,
      "inputs": [
        {
          "indexed": true,
          "internalType": "uint256",
          "name": "batchId",
          "type": "uint256"
        },
        {
          "indexed": true,
          "internalType": "address",
          "name": "manufacturer",
          "type": "address"
        },
        {
          "indexed": false,
          "internalType": "string",
          "name": "details",
          "type": "string"
        },
        {
          "indexed": false,
          "internalType": "bytes32",
          "name": "rfidUIDHash",
          "type": "bytes32"
        },
        {
          "indexed": false,
          "internalType": "uint256",
          "name": "manufactureDate",
          "type": "uint256"
        },
        {
          "indexed": false,
          "internalType": "uint256",
          "name": "expiryDate",
          "type": "uint256"
        },
        {
          "indexed": false,
          "internalType": "uint256",
          "name": "quantity",
          "type": "uint256"
        }
      ],
      "name": "BatchCreated",
      "type": "event"
    },
    {
      "anonymous": false,
      "inputs": [
        {
          "indexed": true,
          "internalType": "uint256",
          "name": "batchId",
          "type": "uint256"
        },
        {
          "indexed": true,
          "internalType": "address",
          "name": "initiator",
          "type": "address"
        }
      ],
      "name": "BatchRecalled",
      "type": "event"
    },
    {
      "anonymous": false,
      "inputs": [
        {
          "indexed": true,
          "internalType": "uint256",
          "name": "batchId",
          "type": "uint256"
        },
        {
          "indexed": true,
          "internalType": "address",
          "name": "approver",
          "type": "address"
        }
      ],
      "name": "QualityApproved",
      "type": "event"
    },
    {
      "anonymous": false,
      "inputs": [
        {
          "indexed": true,
          "internalType": "uint256",
          "name": "batchId",
          "type": "uint256"
        },
        {
          "indexed": true,
          "internalType": "address",
          "name": "disapprover",
          "type": "address"
        }
      ],
      "name": "QualityDisapproved",
      "type": "event"
    },
    {
      "anonymous": false,
      "inputs": [
        {
          "indexed": true,
          "internalType": "address",
          "name": "user",
          "type": "address"
        },
        {
          "indexed": false,
          "internalType": "string",
          "name": "companyName",
          "type": "string"
        },
        {
          "indexed": false,
          "internalType": "enum PharmaChain.Role",
          "name": "role",
          "type": "uint8"
        },
        {
          "indexed": false,
          "internalType": "string",
          "name": "contactInfo",
          "type": "string"
        }
      ],
      "name": "UserRegistered",
      "type": "event"
    },
    {
      "inputs": [
        {
          "internalType": "uint256",
          "name": "_batchId",
          "type": "uint256"
        }
      ],
      "name": "approveQuality",
      "outputs": [],
      "stateMutability": "nonpayable",
      "type": "function"
    },
    {
      "inputs": [
        {
          "internalType": "uint256",
          "name": "_batchId",
          "type": "uint256"
        },
        {
          "internalType": "address",
          "name": "_provider",
          "type": "address"
        }
      ],
      "name": "assignBatchToProvider",
      "outputs": [],
      "stateMutability": "nonpayable",
      "type": "function"
    },
    {
      "inputs": [
        {
          "internalType": "uint256",
          "name": "_batchId",
          "type": "uint256"
        },
        {
          "internalType": "address",
          "name": "_distributor",
          "type": "address"
        },
        {
          "internalType": "uint256",
          "name": "_orderId",
          "type": "uint256"
        }
      ],
      "name": "assignToDistributor",
      "outputs": [],
      "stateMutability": "nonpayable",
      "type": "function"
    },
    {
      "inputs": [
        {
          "internalType": "uint256",
          "name": "",
          "type": "uint256"
        }
      ],
      "name": "batches",
      "outputs": [
        {
          "internalType": "uint256",
          "name": "batchId",
          "type": "uint256"
        },
        {
          "internalType": "address",
          "name": "manufacturer",
          "type": "address"
        },
        {
          "internalType": "string",
          "name": "details",
          "type": "string"
        },
        {
          "internalType": "bool",
          "name": "isQualityApproved",
          "type": "bool"
        },
        {
          "internalType": "bool",
          "name": "isQualityDisapproved",
          "type": "bool"
        },
        {
          "internalType": "address",
          "name": "distributor",
          "type": "address"
        },
        {
          "internalType": "bytes32",
          "name": "rfidUIDHash",
          "type": "bytes32"
        },
        {
          "internalType": "bool",
          "name": "isRecalled",
          "type": "bool"
        },
        {
          "internalType": "uint256",
          "name": "manufactureDate",
          "type": "uint256"
        },
        {
          "internalType": "uint256",
          "name": "expiryDate",
          "type": "uint256"
        },
        {
          "internalType": "uint256",
          "name": "quantity",
          "type": "uint256"
        },
        {
          "internalType": "uint256",
          "name": "orderId",
          "type": "uint256"
        }
      ],
      "stateMutability": "view",
      "type": "function"
    },
    {
      "inputs": [
        {
          "internalType": "string",
          "name": "_details",
          "type": "string"
        },
        {
          "internalType": "bytes32",
          "name": "_rfidUIDHash",
          "type": "bytes32"
        },
        {
          "internalType": "uint256",
          "name": "_expiryDate",
          "type": "uint256"
        },
        {
          "internalType": "uint256",
          "name": "_quantity",
          "type": "uint256"
        }
      ],
      "name": "createBatch",
      "outputs": [],
      "stateMutability": "nonpayable",
      "type": "function"
    },
    {
      "inputs": [
        {
          "internalType": "string",
          "name": "_medName",
          "type": "string"
        },
        {
          "internalType": "uint256",
          "name": "_quantity",
          "type": "uint256"
        }
      ],
      "name": "createDistributorOrder",
      "outputs": [],
      "stateMutability": "nonpayable",
      "type": "function"
    },
    {
      "inputs": [
        {
          "internalType": "string",
          "name": "_medName",
          "type": "string"
        },
        {
          "internalType": "uint256",
          "name": "_qunatity",
          "type": "uint256"
        }
      ],
      "name": "createProviderOrder",
      "outputs": [],
      "stateMutability": "nonpayable",
      "type": "function"
    },
    {
      "inputs": [
        {
          "internalType": "uint256",
          "name": "_batchId",
          "type": "uint256"
        }
      ],
      "name": "disapproveQuality",
      "outputs": [],
      "stateMutability": "nonpayable",
      "type": "function"
    },
    {
      "inputs": [
        {
          "internalType": "address",
          "name": "",
          "type": "address"
        },
        {
          "internalType": "uint256",
          "name": "",
          "type": "uint256"
        }
      ],
      "name": "distributorMedNames",
      "outputs": [
        {
          "internalType": "string",
          "name": "",
          "type": "string"
        }
      ],
      "stateMutability": "view",
      "type": "function"
    },
    {
      "inputs": [
        {
          "internalType": "uint256",
          "name": "",
          "type": "uint256"
        }
      ],
      "name": "distributorOrders",
      "outputs": [
        {
          "internalType": "string",
          "name": "medName",
          "type": "string"
        },
        {
          "internalType": "uint256",
          "name": "quantity",
          "type": "uint256"
        },
        {
          "internalType": "uint256",
          "name": "orderId",
          "type": "uint256"
        },
        {
          "internalType": "uint256",
          "name": "batchId",
          "type": "uint256"
        },
        {
          "internalType": "address",
          "name": "distributor",
          "type": "address"
        },
        {
          "internalType": "address",
          "name": "manufacturer",
          "type": "address"
        },
        {
          "internalType": "bool",
          "name": "isAssigned",
          "type": "bool"
        },
        {
          "internalType": "uint256",
          "name": "orderDate",
          "type": "uint256"
        },
        {
          "internalType": "uint256",
          "name": "orderApprovedDate",
          "type": "uint256"
        },
        {
          "internalType": "enum PharmaChain.OrderStatus",
          "name": "status",
          "type": "uint8"
        }
      ],
      "stateMutability": "view",
      "type": "function"
    },
    {
      "inputs": [
        {
          "internalType": "address",
          "name": "",
          "type": "address"
        },
        {
          "internalType": "string",
          "name": "",
          "type": "string"
        }
      ],
      "name": "distributorStocks",
      "outputs": [
        {
          "internalType": "uint256",
          "name": "",
          "type": "uint256"
        }
      ],
      "stateMutability": "view",
      "type": "function"
    },
    {
      "inputs": [
        {
          "internalType": "address",
          "name": "_user",
          "type": "address"
        }
      ],
      "name": "getCompanyNameFromAddress",
      "outputs": [
        {
          "internalType": "string",
          "name": "",
          "type": "string"
        }
      ],
      "stateMutability": "view",
      "type": "function"
    },
    {
      "inputs": [
        {
          "internalType": "address",
          "name": "_manufacturer",
          "type": "address"
        }
      ],
      "name": "getCreatedBatches",
      "outputs": [
        {
          "components": [
            {
              "internalType": "uint256",
              "name": "batchId",
              "type": "uint256"
            },
            {
              "internalType": "address",
              "name": "manufacturer",
              "type": "address"
            },
            {
              "internalType": "string",
              "name": "details",
              "type": "string"
            },
            {
              "internalType": "bool",
              "name": "isQualityApproved",
              "type": "bool"
            },
            {
              "internalType": "bool",
              "name": "isQualityDisapproved",
              "type": "bool"
            },
            {
              "internalType": "address",
              "name": "distributor",
              "type": "address"
            },
            {
              "internalType": "bytes32",
              "name": "rfidUIDHash",
              "type": "bytes32"
            },
            {
              "internalType": "bool",
              "name": "isRecalled",
              "type": "bool"
            },
            {
              "internalType": "uint256",
              "name": "manufactureDate",
              "type": "uint256"
            },
            {
              "internalType": "uint256",
              "name": "expiryDate",
              "type": "uint256"
            },
            {
              "internalType": "uint256",
              "name": "quantity",
              "type": "uint256"
            },
            {
              "internalType": "uint256",
              "name": "orderId",
              "type": "uint256"
            }
          ],
          "internalType": "struct PharmaChain.Batch[]",
          "name": "",
          "type": "tuple[]"
        }
      ],
      "stateMutability": "view",
      "type": "function"
    },
    {
      "inputs": [
        {
          "internalType": "uint256",
          "name": "_orderId",
          "type": "uint256"
        }
      ],
      "name": "getDistributorOrder",
      "outputs": [
        {
          "components": [
            {
              "internalType": "string",
              "name": "medName",
              "type": "string"
            },
            {
              "internalType": "uint256",
              "name": "quantity",
              "type": "uint256"
            },
            {
              "internalType": "uint256",
              "name": "orderId",
              "type": "uint256"
            },
            {
              "internalType": "uint256",
              "name": "batchId",
              "type": "uint256"
            },
            {
              "internalType": "address",
              "name": "distributor",
              "type": "address"
            },
            {
              "internalType": "address",
              "name": "manufacturer",
              "type": "address"
            },
            {
              "internalType": "bool",
              "name": "isAssigned",
              "type": "bool"
            },
            {
              "internalType": "uint256",
              "name": "orderDate",
              "type": "uint256"
            },
            {
              "internalType": "uint256",
              "name": "orderApprovedDate",
              "type": "uint256"
            },
            {
              "internalType": "enum PharmaChain.OrderStatus",
              "name": "status",
              "type": "uint8"
            }
          ],
          "internalType": "struct PharmaChain.DistributorOrder",
          "name": "",
          "type": "tuple"
        }
      ],
      "stateMutability": "view",
      "type": "function"
    },
    {
      "inputs": [
        {
          "internalType": "bytes32",
          "name": "_rfidUIDHash",
          "type": "bytes32"
        }
      ],
      "name": "getDistributorOrderByRFID",
      "outputs": [
        {
          "internalType": "uint256",
          "name": "",
          "type": "uint256"
        }
      ],
      "stateMutability": "view",
      "type": "function"
    },
    {
      "inputs": [
        {
          "internalType": "address",
          "name": "_distributor",
          "type": "address"
        }
      ],
      "name": "getDistributorOrders",
      "outputs": [
        {
          "components": [
            {
              "internalType": "string",
              "name": "medName",
              "type": "string"
            },
            {
              "internalType": "uint256",
              "name": "quantity",
              "type": "uint256"
            },
            {
              "internalType": "uint256",
              "name": "orderId",
              "type": "uint256"
            },
            {
              "internalType": "uint256",
              "name": "batchId",
              "type": "uint256"
            },
            {
              "internalType": "address",
              "name": "distributor",
              "type": "address"
            },
            {
              "internalType": "address",
              "name": "manufacturer",
              "type": "address"
            },
            {
              "internalType": "bool",
              "name": "isAssigned",
              "type": "bool"
            },
            {
              "internalType": "uint256",
              "name": "orderDate",
              "type": "uint256"
            },
            {
              "internalType": "uint256",
              "name": "orderApprovedDate",
              "type": "uint256"
            },
            {
              "internalType": "enum PharmaChain.OrderStatus",
              "name": "status",
              "type": "uint8"
            }
          ],
          "internalType": "struct PharmaChain.DistributorOrder[]",
          "name": "",
          "type": "tuple[]"
        }
      ],
      "stateMutability": "view",
      "type": "function"
    },
    {
      "inputs": [
        {
          "internalType": "address",
          "name": "_distributor",
          "type": "address"
        }
      ],
      "name": "getDistributorStock",
      "outputs": [
        {
          "components": [
            {
              "internalType": "string",
              "name": "medName",
              "type": "string"
            },
            {
              "internalType": "uint256",
              "name": "quantity",
              "type": "uint256"
            }
          ],
          "internalType": "struct PharmaChain.StockItem[]",
          "name": "",
          "type": "tuple[]"
        }
      ],
      "stateMutability": "view",
      "type": "function"
    },
    {
      "inputs": [
        {
          "internalType": "address",
          "name": "_manufacturer",
          "type": "address"
        }
      ],
      "name": "getFulfilledBatches",
      "outputs": [
        {
          "components": [
            {
              "internalType": "uint256",
              "name": "batchId",
              "type": "uint256"
            },
            {
              "internalType": "address",
              "name": "manufacturer",
              "type": "address"
            },
            {
              "internalType": "string",
              "name": "details",
              "type": "string"
            },
            {
              "internalType": "bool",
              "name": "isQualityApproved",
              "type": "bool"
            },
            {
              "internalType": "bool",
              "name": "isQualityDisapproved",
              "type": "bool"
            },
            {
              "internalType": "address",
              "name": "distributor",
              "type": "address"
            },
            {
              "internalType": "bytes32",
              "name": "rfidUIDHash",
              "type": "bytes32"
            },
            {
              "internalType": "bool",
              "name": "isRecalled",
              "type": "bool"
            },
            {
              "internalType": "uint256",
              "name": "manufactureDate",
              "type": "uint256"
            },
            {
              "internalType": "uint256",
              "name": "expiryDate",
              "type": "uint256"
            },
            {
              "internalType": "uint256",
              "name": "quantity",
              "type": "uint256"
            },
            {
              "internalType": "uint256",
              "name": "orderId",
              "type": "uint256"
            }
          ],
          "internalType": "struct PharmaChain.Batch[]",
          "name": "",
          "type": "tuple[]"
        }
      ],
      "stateMutability": "view",
      "type": "function"
    },
    {
      "inputs": [
        {
          "internalType": "address",
          "name": "_distributor",
          "type": "address"
        }
      ],
      "name": "getFulfilledDistributorOrders",
      "outputs": [
        {
          "components": [
            {
              "internalType": "string",
              "name": "medName",
              "type": "string"
            },
            {
              "internalType": "uint256",
              "name": "quantity",
              "type": "uint256"
            },
            {
              "internalType": "uint256",
              "name": "orderId",
              "type": "uint256"
            },
            {
              "internalType": "uint256",
              "name": "batchId",
              "type": "uint256"
            },
            {
              "internalType": "address",
              "name": "distributor",
              "type": "address"
            },
            {
              "internalType": "address",
              "name": "manufacturer",
              "type": "address"
            },
            {
              "internalType": "bool",
              "name": "isAssigned",
              "type": "bool"
            },
            {
              "internalType": "uint256",
              "name": "orderDate",
              "type": "uint256"
            },
            {
              "internalType": "uint256",
              "name": "orderApprovedDate",
              "type": "uint256"
            },
            {
              "internalType": "enum PharmaChain.OrderStatus",
              "name": "status",
              "type": "uint8"
            }
          ],
          "internalType": "struct PharmaChain.DistributorOrder[]",
          "name": "",
          "type": "tuple[]"
        }
      ],
      "stateMutability": "view",
      "type": "function"
    },
    {
      "inputs": [
        {
          "internalType": "address",
          "name": "_provider",
          "type": "address"
        }
      ],
      "name": "getFulfilledProviderOrders",
      "outputs": [
        {
          "components": [
            {
              "internalType": "string",
              "name": "medName",
              "type": "string"
            },
            {
              "internalType": "uint256",
              "name": "quantity",
              "type": "uint256"
            },
            {
              "internalType": "uint256",
              "name": "orderId",
              "type": "uint256"
            },
            {
              "internalType": "uint256",
              "name": "batchId",
              "type": "uint256"
            },
            {
              "internalType": "address",
              "name": "provider",
              "type": "address"
            },
            {
              "internalType": "address",
              "name": "distributor",
              "type": "address"
            },
            {
              "internalType": "bool",
              "name": "isAssigned",
              "type": "bool"
            },
            {
              "internalType": "uint256",
              "name": "orderDate",
              "type": "uint256"
            },
            {
              "internalType": "uint256",
              "name": "orderApprovedDate",
              "type": "uint256"
            },
            {
              "internalType": "enum PharmaChain.OrderStatus",
              "name": "status",
              "type": "uint8"
            }
          ],
          "internalType": "struct PharmaChain.ProviderOrder[]",
          "name": "",
          "type": "tuple[]"
        }
      ],
      "stateMutability": "view",
      "type": "function"
    },
    {
      "inputs": [],
      "name": "getPendingDistributorOrders",
      "outputs": [
        {
          "components": [
            {
              "internalType": "string",
              "name": "medName",
              "type": "string"
            },
            {
              "internalType": "uint256",
              "name": "quantity",
              "type": "uint256"
            },
            {
              "internalType": "uint256",
              "name": "orderId",
              "type": "uint256"
            },
            {
              "internalType": "uint256",
              "name": "batchId",
              "type": "uint256"
            },
            {
              "internalType": "address",
              "name": "distributor",
              "type": "address"
            },
            {
              "internalType": "address",
              "name": "manufacturer",
              "type": "address"
            },
            {
              "internalType": "bool",
              "name": "isAssigned",
              "type": "bool"
            },
            {
              "internalType": "uint256",
              "name": "orderDate",
              "type": "uint256"
            },
            {
              "internalType": "uint256",
              "name": "orderApprovedDate",
              "type": "uint256"
            },
            {
              "internalType": "enum PharmaChain.OrderStatus",
              "name": "status",
              "type": "uint8"
            }
          ],
          "internalType": "struct PharmaChain.DistributorOrder[]",
          "name": "",
          "type": "tuple[]"
        }
      ],
      "stateMutability": "view",
      "type": "function"
    },
    {
      "inputs": [],
      "name": "getPendingProviderOrders",
      "outputs": [
        {
          "components": [
            {
              "internalType": "string",
              "name": "medName",
              "type": "string"
            },
            {
              "internalType": "uint256",
              "name": "quantity",
              "type": "uint256"
            },
            {
              "internalType": "uint256",
              "name": "orderId",
              "type": "uint256"
            },
            {
              "internalType": "uint256",
              "name": "batchId",
              "type": "uint256"
            },
            {
              "internalType": "address",
              "name": "provider",
              "type": "address"
            },
            {
              "internalType": "address",
              "name": "distributor",
              "type": "address"
            },
            {
              "internalType": "bool",
              "name": "isAssigned",
              "type": "bool"
            },
            {
              "internalType": "uint256",
              "name": "orderDate",
              "type": "uint256"
            },
            {
              "internalType": "uint256",
              "name": "orderApprovedDate",
              "type": "uint256"
            },
            {
              "internalType": "enum PharmaChain.OrderStatus",
              "name": "status",
              "type": "uint8"
            }
          ],
          "internalType": "struct PharmaChain.ProviderOrder[]",
          "name": "",
          "type": "tuple[]"
        }
      ],
      "stateMutability": "view",
      "type": "function"
    },
    {
      "inputs": [
        {
          "internalType": "bytes32",
          "name": "_rfidUIDHash",
          "type": "bytes32"
        }
      ],
      "name": "getProviderOrderByRFID",
      "outputs": [
        {
          "internalType": "uint256",
          "name": "",
          "type": "uint256"
        }
      ],
      "stateMutability": "view",
      "type": "function"
    },
    {
      "inputs": [
        {
          "internalType": "uint256",
          "name": "_orderId",
          "type": "uint256"
        }
      ],
      "name": "getProviderOrderDetails",
      "outputs": [
        {
          "components": [
            {
              "internalType": "string",
              "name": "medName",
              "type": "string"
            },
            {
              "internalType": "uint256",
              "name": "quantity",
              "type": "uint256"
            },
            {
              "internalType": "uint256",
              "name": "orderId",
              "type": "uint256"
            },
            {
              "internalType": "uint256",
              "name": "batchId",
              "type": "uint256"
            },
            {
              "internalType": "address",
              "name": "provider",
              "type": "address"
            },
            {
              "internalType": "address",
              "name": "distributor",
              "type": "address"
            },
            {
              "internalType": "bool",
              "name": "isAssigned",
              "type": "bool"
            },
            {
              "internalType": "uint256",
              "name": "orderDate",
              "type": "uint256"
            },
            {
              "internalType": "uint256",
              "name": "orderApprovedDate",
              "type": "uint256"
            },
            {
              "internalType": "enum PharmaChain.OrderStatus",
              "name": "status",
              "type": "uint8"
            }
          ],
          "internalType": "struct PharmaChain.ProviderOrder",
          "name": "",
          "type": "tuple"
        }
      ],
      "stateMutability": "view",
      "type": "function"
    },
    {
      "inputs": [
        {
          "internalType": "address",
          "name": "_provider",
          "type": "address"
        }
      ],
      "name": "getProviderOrders",
      "outputs": [
        {
          "components": [
            {
              "internalType": "string",
              "name": "medName",
              "type": "string"
            },
            {
              "internalType": "uint256",
              "name": "quantity",
              "type": "uint256"
            },
            {
              "internalType": "uint256",
              "name": "orderId",
              "type": "uint256"
            },
            {
              "internalType": "uint256",
              "name": "batchId",
              "type": "uint256"
            },
            {
              "internalType": "address",
              "name": "provider",
              "type": "address"
            },
            {
              "internalType": "address",
              "name": "distributor",
              "type": "address"
            },
            {
              "internalType": "bool",
              "name": "isAssigned",
              "type": "bool"
            },
            {
              "internalType": "uint256",
              "name": "orderDate",
              "type": "uint256"
            },
            {
              "internalType": "uint256",
              "name": "orderApprovedDate",
              "type": "uint256"
            },
            {
              "internalType": "enum PharmaChain.OrderStatus",
              "name": "status",
              "type": "uint8"
            }
          ],
          "internalType": "struct PharmaChain.ProviderOrder[]",
          "name": "",
          "type": "tuple[]"
        }
      ],
      "stateMutability": "view",
      "type": "function"
    },
    {
      "inputs": [
        {
          "internalType": "address",
          "name": "_provider",
          "type": "address"
        }
      ],
      "name": "getProviderStock",
      "outputs": [
        {
          "components": [
            {
              "internalType": "string",
              "name": "medName",
              "type": "string"
            },
            {
              "internalType": "uint256",
              "name": "quantity",
              "type": "uint256"
            }
          ],
          "internalType": "struct PharmaChain.StockItem[]",
          "name": "",
          "type": "tuple[]"
        }
      ],
      "stateMutability": "view",
      "type": "function"
    },
    {
      "inputs": [
        {
          "internalType": "address",
          "name": "_user",
          "type": "address"
        }
      ],
      "name": "getUserByAddress",
      "outputs": [
        {
          "components": [
            {
              "internalType": "address",
              "name": "account",
              "type": "address"
            },
            {
              "internalType": "string",
              "name": "companyName",
              "type": "string"
            },
            {
              "internalType": "enum PharmaChain.Role",
              "name": "role",
              "type": "uint8"
            },
            {
              "internalType": "string",
              "name": "contactInfo",
              "type": "string"
            }
          ],
          "internalType": "struct PharmaChain.User",
          "name": "",
          "type": "tuple"
        }
      ],
      "stateMutability": "view",
      "type": "function"
    },
    {
      "inputs": [
        {
          "internalType": "address",
          "name": "_user",
          "type": "address"
        }
      ],
      "name": "getUserInfo",
      "outputs": [
        {
          "internalType": "string",
          "name": "companyName",
          "type": "string"
        },
        {
          "internalType": "string",
          "name": "contactInfo",
          "type": "string"
        },
        {
          "internalType": "enum PharmaChain.Role",
          "name": "role",
          "type": "uint8"
        }
      ],
      "stateMutability": "view",
      "type": "function"
    },
    {
      "inputs": [
        {
          "internalType": "address",
          "name": "_user",
          "type": "address"
        }
      ],
      "name": "getUserRole",
      "outputs": [
        {
          "internalType": "enum PharmaChain.Role",
          "name": "",
          "type": "uint8"
        }
      ],
      "stateMutability": "view",
      "type": "function"
    },
    {
      "inputs": [
        {
          "internalType": "address",
          "name": "_user",
          "type": "address"
        }
      ],
      "name": "isUserRegistered",
      "outputs": [
        {
          "internalType": "bool",
          "name": "",
          "type": "bool"
        }
      ],
      "stateMutability": "view",
      "type": "function"
    },
    {
      "inputs": [],
      "name": "nextBatchId",
      "outputs": [
        {
          "internalType": "uint256",
          "name": "",
          "type": "uint256"
        }
      ],
      "stateMutability": "view",
      "type": "function"
    },
    {
      "inputs": [],
      "name": "nextDistributorOrderId",
      "outputs": [
        {
          "internalType": "uint256",
          "name": "",
          "type": "uint256"
        }
      ],
      "stateMutability": "view",
      "type": "function"
    },
    {
      "inputs": [],
      "name": "nextProviderOrderId",
      "outputs": [
        {
          "internalType": "uint256",
          "name": "",
          "type": "uint256"
        }
      ],
      "stateMutability": "view",
      "type": "function"
    },
    {
      "inputs": [
        {
          "internalType": "address",
          "name": "",
          "type": "address"
        },
        {
          "internalType": "uint256",
          "name": "",
          "type": "uint256"
        }
      ],
      "name": "providerMedNames",
      "outputs": [
        {
          "internalType": "string",
          "name": "",
          "type": "string"
        }
      ],
      "stateMutability": "view",
      "type": "function"
    },
    {
      "inputs": [
        {
          "internalType": "uint256",
          "name": "",
          "type": "uint256"
        }
      ],
      "name": "providerOrders",
      "outputs": [
        {
          "internalType": "string",
          "name": "medName",
          "type": "string"
        },
        {
          "internalType": "uint256",
          "name": "quantity",
          "type": "uint256"
        },
        {
          "internalType": "uint256",
          "name": "orderId",
          "type": "uint256"
        },
        {
          "internalType": "uint256",
          "name": "batchId",
          "type": "uint256"
        },
        {
          "internalType": "address",
          "name": "provider",
          "type": "address"
        },
        {
          "internalType": "address",
          "name": "distributor",
          "type": "address"
        },
        {
          "internalType": "bool",
          "name": "isAssigned",
          "type": "bool"
        },
        {
          "internalType": "uint256",
          "name": "orderDate",
          "type": "uint256"
        },
        {
          "internalType": "uint256",
          "name": "orderApprovedDate",
          "type": "uint256"
        },
        {
          "internalType": "enum PharmaChain.OrderStatus",
          "name": "status",
          "type": "uint8"
        }
      ],
      "stateMutability": "view",
      "type": "function"
    },
    {
      "inputs": [
        {
          "internalType": "address",
          "name": "",
          "type": "address"
        },
        {
          "internalType": "string",
          "name": "",
          "type": "string"
        }
      ],
      "name": "providerStocks",
      "outputs": [
        {
          "internalType": "uint256",
          "name": "",
          "type": "uint256"
        }
      ],
      "stateMutability": "view",
      "type": "function"
    },
    {
      "inputs": [
        {
          "internalType": "uint256",
          "name": "_batchId",
          "type": "uint256"
        }
      ],
      "name": "recallBatch",
      "outputs": [],
      "stateMutability": "nonpayable",
      "type": "function"
    },
    {
      "inputs": [
        {
          "internalType": "address",
          "name": "_user",
          "type": "address"
        },
        {
          "internalType": "string",
          "name": "_companyName",
          "type": "string"
        },
        {
          "internalType": "enum PharmaChain.Role",
          "name": "_role",
          "type": "uint8"
        },
        {
          "internalType": "string",
          "name": "_contactInfo",
          "type": "string"
        }
      ],
      "name": "registerUser",
      "outputs": [],
      "stateMutability": "nonpayable",
      "type": "function"
    },
    {
      "inputs": [
        {
          "internalType": "bytes32",
          "name": "",
          "type": "bytes32"
        }
      ],
      "name": "rfidToDistributorOrderId",
      "outputs": [
        {
          "internalType": "uint256",
          "name": "",
          "type": "uint256"
        }
      ],
      "stateMutability": "view",
      "type": "function"
    },
    {
      "inputs": [
        {
          "internalType": "bytes32",
          "name": "",
          "type": "bytes32"
        }
      ],
      "name": "rfidToProviderOrderId",
      "outputs": [
        {
          "internalType": "uint256",
          "name": "",
          "type": "uint256"
        }
      ],
      "stateMutability": "view",
      "type": "function"
    },
    {
      "inputs": [
        {
          "internalType": "bytes32",
          "name": "_rfidUIDHash",
          "type": "bytes32"
        },
        {
          "internalType": "enum PharmaChain.OrderStatus",
          "name": "_status",
          "type": "uint8"
        }
      ],
      "name": "updateDistributorOrderStatusByRFID",
      "outputs": [],
      "stateMutability": "nonpayable",
      "type": "function"
    },
    {
      "inputs": [
        {
          "internalType": "bytes32",
          "name": "_rfidUIDHash",
          "type": "bytes32"
        },
        {
          "internalType": "enum PharmaChain.OrderStatus",
          "name": "_status",
          "type": "uint8"
        }
      ],
      "name": "updateProviderOrderStatusByRFID",
      "outputs": [],
      "stateMutability": "nonpayable",
      "type": "function"
    },
    {
      "inputs": [
        {
          "internalType": "address",
          "name": "",
          "type": "address"
        }
      ],
      "name": "users",
      "outputs": [
        {
          "internalType": "address",
          "name": "account",
          "type": "address"
        },
        {
          "internalType": "string",
          "name": "companyName",
          "type": "string"
        },
        {
          "internalType": "enum PharmaChain.Role",
          "name": "role",
          "type": "uint8"
        },
        {
          "internalType": "string",
          "name": "contactInfo",
          "type": "string"
        }
      ],
      "stateMutability": "view",
      "type": "function"
    }
  ],
  "bytecode": "0x60806040526064600a556064600b556064600c5534801561001f57600080fd5b50614e568061002f6000396000f3fe608060405234801561001057600080fd5b50600436106102695760003560e01c80638462a7f811610151578063c0a5194e116100c3578063dd185a0911610087578063dd185a091461064d578063e044471214610660578063e3c6e07e14610673578063f1bd14ad14610686578063f212d6d9146106c2578063fa4b47a3146106d557600080fd5b8063c0a5194e146105eb578063ced27743146105fe578063d0aeb53714610611578063d386223814610624578063d56f40dd1461062d57600080fd5b806397bba8141161011557806397bba81414610551578063a6e162b414610564578063a87430ba14610577578063b32c4d8d1461059a578063b616e184146105c5578063be213fb6146105d857600080fd5b80638462a7f8146104fa57806387f95fa81461050357806388a1326c1461050b57806395c53d491461051e5780639795c0a31461053157600080fd5b8063491a58f7116101ea578063642c9719116101ae578063642c97191461044f57806369c212f6146104625780636ae25d98146104825780636c6eb5cd146104be57806383e9f8bf146104d15780638429bcf7146104f157600080fd5b8063491a58f7146103b05780634a746b7b146103de5780634e4b18fb146103f1578063552063f31461041a5780636386c1c71461042d57600080fd5b80632d703d73116102315780632d703d73146103425780633019f58e146103625780633d28a3011461037757806343deec2e1461038a57806344dfc5f81461039d57600080fd5b8063163f75221461026e5780631c5a3a53146102b15780631d8abc8f146102d15780632615457b146102e65780632782085114610306575b600080fd5b61029c61027c366004614110565b6001600160a01b0390811660009081526020819052604090205416151590565b60405190151581526020015b60405180910390f35b6102c46102bf366004614110565b6106e8565b6040516102a8919061417b565b6102d96108b3565b6040516102a891906142c7565b6102f96102f4366004614110565b610b02565b6040516102a8919061432b565b610335610314366004614110565b6001600160a01b031660009081526020819052604090206002015460ff1690565b6040516102a89190614392565b610355610350366004614110565b610d5a565b6040516102a891906143a6565b61037561037036600461449b565b610fa8565b005b610375610385366004614569565b6114f8565b6103756103983660046145f5565b61164f565b6103756103ab366004614648565b6118f3565b6103d06103be366004614648565b60086020526000908152604090205481565b6040519081526020016102a8565b6102c46103ec366004614110565b6119f7565b6104046103ff366004614648565b611bba565b6040516102a89a99989796959493929190614661565b6103d0610428366004614648565b611ca6565b61044061043b366004614110565b611ce4565b6040516102a8939291906146d4565b61035561045d366004614110565b611e92565b610475610470366004614110565b612138565b6040516102a89190614711565b6103d0610490366004614778565b6005602090815260009283526040909220815180830184018051928152908401929093019190912091525481565b6103756104cc3660046147c5565b6122ea565b6104e46104df366004614110565b612495565b6040516102a89190614809565b6103d0600b5481565b6103d0600a5481565b6102f9612544565b6103d0610519366004614648565b612833565b61040461052c366004614648565b61286a565b6103d061053f366004614648565b60096020526000908152604090205481565b61037561055f36600461481c565b612885565b610375610572366004614648565b612a9f565b61058a610585366004614110565b612ba3565b6040516102a89493929190614850565b6105ad6105a8366004614648565b612cef565b6040516102a89c9b9a9998979695949392919061489e565b6103756105d3366004614648565b612deb565b6103756105e636600461481c565b612ef3565b6102d96105f9366004614110565b6130f2565b6102d961060c366004614110565b6133a4565b6104e461061f366004614913565b6135f2565b6103d0600c5481565b61064061063b366004614648565b6136ab565b6040516102a8919061493d565b61064061065b366004614648565b61384c565b6102f961066e366004614110565b6138ad565b6104e4610681366004614913565b613b5f565b6103d0610694366004614778565b6004602090815260009283526040909220815180830184018051928152908401929093019190912091525481565b6103756106d03660046147c5565b613b7b565b6103756106e3366004614950565b613c64565b6001600160a01b038116600090815260076020526040812054606091816001600160401b0381111561071c5761071c6144c7565b60405190808252806020026020018201604052801561076257816020015b60408051808201909152606081526000602082015281526020019060019003908161073a5790505b50905060005b828110156108ab576001600160a01b038516600090815260076020526040812080548390811061079a5761079a614985565b9060005260206000200180546107af9061499b565b80601f01602080910402602001604051908101604052809291908181526020018280546107db9061499b565b80156108285780601f106107fd57610100808354040283529160200191610828565b820191906000526020600020905b81548152906001019060200180831161080b57829003601f168201915b50505050509050604051806040016040528082815260200160056000896001600160a01b03166001600160a01b031681526020019081526020016000208360405161087391906149cf565b90815260200160405180910390205481525083838151811061089757610897614985565b602090810291909101015250600101610768565b509392505050565b6060600060645b600b548110156108fa57600081815260026020526040902060050154600160a01b900460ff166108f257816108ee81614a01565b9250505b6001016108ba565b506000816001600160401b03811115610915576109156144c7565b60405190808252806020026020018201604052801561094e57816020015b61093b614001565b8152602001906001900390816109335790505b509050600060645b600b54811015610af957600081815260026020526040902060050154600160a01b900460ff16610af15760008181526002602052604090819020815161014081019092528054829082906109a99061499b565b80601f01602080910402602001604051908101604052809291908181526020018280546109d59061499b565b8015610a225780601f106109f757610100808354040283529160200191610a22565b820191906000526020600020905b815481529060010190602001808311610a0557829003601f168201915b50505091835250506001820154602082015260028201546040820152600382015460608201526004808301546001600160a01b039081166080840152600584015490811660a084015260ff600160a01b9091048116151560c0840152600684015460e084015260078401546101008401526008840154610120909301921690811115610ab057610ab06141f3565b6004811115610ac157610ac16141f3565b81525050838381518110610ad757610ad7614985565b60200260200101819052508180610aed90614a01565b9250505b600101610956565b50909392505050565b6060600060645b600c54811015610b4d576000818152600360205260409020600401546001600160a01b03808616911603610b455781610b4181614a01565b9250505b600101610b09565b506000816001600160401b03811115610b6857610b686144c7565b604051908082528060200260200182016040528015610ba157816020015b610b8e614001565b815260200190600190039081610b865790505b509050600060645b600c54811015610d50576000818152600360205260409020600401546001600160a01b03808816911603610d48576000818152600360205260409081902081516101408101909252805482908290610c009061499b565b80601f0160208091040260200160405190810160405280929190818152602001828054610c2c9061499b565b8015610c795780601f10610c4e57610100808354040283529160200191610c79565b820191906000526020600020905b815481529060010190602001808311610c5c57829003601f168201915b50505091835250506001820154602082015260028201546040820152600382015460608201526004808301546001600160a01b039081166080840152600584015490811660a084015260ff600160a01b9091048116151560c0840152600684015460e084015260078401546101008401526008840154610120909301921690811115610d0757610d076141f3565b6004811115610d1857610d186141f3565b81525050838381518110610d2e57610d2e614985565b60200260200101819052508180610d4490614a01565b9250505b600101610ba9565b5090949350505050565b6060600060645b600a54811015610da657600081815260016020819052604090912001546001600160a01b03808616911603610d9e5781610d9a81614a01565b9250505b600101610d61565b506000816001600160401b03811115610dc157610dc16144c7565b604051908082528060200260200182016040528015610dfa57816020015b610de7614078565b815260200190600190039081610ddf5790505b509050600060645b600a54811015610d5057600081815260016020819052604090912001546001600160a01b03808816911603610fa05760008181526001602081815260409283902083516101808101855281548152928101546001600160a01b0316918301919091526002810180549293919291840191610e7b9061499b565b80601f0160208091040260200160405190810160405280929190818152602001828054610ea79061499b565b8015610ef45780601f10610ec957610100808354040283529160200191610ef4565b820191906000526020600020905b815481529060010190602001808311610ed757829003601f168201915b5050509183525050600382015460ff80821615156020840152610100808304821615156040850152620100009092046001600160a01b0316606084015260048401546080840152600584015416151560a0830152600683015460c0830152600783015460e0830152600883015490820152600990910154610120909101528351849084908110610f8657610f86614985565b60200260200101819052508180610f9c90614a01565b9250505b600101610e02565b600133600090815260208190526040902060029081015460ff1690811115610fd257610fd26141f3565b14610ff85760405162461bcd60e51b8152600401610fef90614a1a565b60405180910390fd5b6001600160a01b038116600090815260208190526040902060029081015460ff1681811115611029576110296141f3565b146110695760405162461bcd60e51b815260206004820152601060248201526f24b73b30b634b210383937bb34b232b960811b6044820152606401610fef565b600082815260016020526040902060038101546201000090046001600160a01b031633146110f55760405162461bcd60e51b815260206004820152603360248201527f4f6e6c79207468652061737369676e6564206469737472696275746f722063616044820152720dc40c2e6e6d2cedc40e8d0d2e640c4c2e8c6d606b1b6064820152608401610fef565b600381015460ff166111495760405162461bcd60e51b815260206004820152601e60248201527f4261746368206d757374206265207175616c69747920617070726f76656400006044820152606401610fef565b600581015460ff161561119e5760405162461bcd60e51b815260206004820152601760248201527f426174636820686173206265656e20726563616c6c65640000000000000000006044820152606401610fef565b60006040518061014001604052808360020180546111bb9061499b565b80601f01602080910402602001604051908101604052809291908181526020018280546111e79061499b565b80156112345780601f1061120957610100808354040283529160200191611234565b820191906000526020600020905b81548152906001019060200180831161121757829003601f168201915b5050505050815260200183600801548152602001600c600081548092919061125b90614a01565b909155508152602081018690526001600160a01b0385166040820152336060820152600160808201524260a0820181905260c082015260e0016002905260408082015160009081526003602052208151919250829181906112bc9082614ab4565b50602082015160018281019190915560408301516002830155606083015160038301556080830151600480840180546001600160a01b0319166001600160a01b0393841617905560a085015160058501805460c0880151929094166001600160a81b031990941693909317600160a01b911515919091021790915560e0840151600684015561010084015160078401556101208401516008840180549193909260ff19909216918490811115611374576113746141f3565b0217905550505060408082015160048401546000908152600960209081528382209290925560088501546001600160a01b0387168252600590925282902091519091906113c5906002860190614be6565b908152602001604051809103902060008282546113e29190614bf2565b92505081905550611481838360020180546113fc9061499b565b80601f01602080910402602001604051908101604052809291908181526020018280546114289061499b565b80156114755780601f1061144a57610100808354040283529160200191611475565b820191906000526020600020905b81548152906001019060200180831161145857829003601f168201915b50505050506000613f56565b6114bc576001600160a01b0383166000908152600760209081526040822080546001810182559083529120016114ba6002840182614c05565b505b6040516001600160a01b0384169085907fd2d34b0374faae0161dcf8f0bb3a65abd5d19a9464ea5777ab1a5ee6a694560a90600090a350505050565b6001600160a01b0384166115405760405162461bcd60e51b815260206004820152600f60248201526e496e76616c6964206164647265737360881b6044820152606401610fef565b6040518060800160405280856001600160a01b03168152602001848152602001836002811115611572576115726141f3565b815260209081018390526001600160a01b03868116600090815280835260409020835181546001600160a01b03191692169190911781559082015160018201906115bc9082614ab4565b5060408201518160020160006101000a81548160ff021916908360028111156115e7576115e76141f3565b0217905550606082015160038201906116009082614ab4565b50905050836001600160a01b03167f3a403922431a43cbc3d929f1b03869ffadab7bce01402822980e72e6ea8e9d9184848460405161164193929190614cd7565b60405180910390a250505050565b33600090815260208190526040812060029081015460ff1690811115611677576116776141f3565b146116945760405162461bcd60e51b8152600401610fef90614d13565b600a8054600091826116a583614a01565b9190505590504283116117045760405162461bcd60e51b815260206004820152602160248201527f4578706972792064617465206d75737420626520696e207468652066757475726044820152606560f81b6064820152608401610fef565b6000821161175f5760405162461bcd60e51b815260206004820152602260248201527f5175616e74697479206d7573742062652067726561746572207468616e207a65604482015261726f60f01b6064820152608401610fef565b60408051610180810182528281523360208083019182528284018981526000606085018190526080850181905260a0850181905260c085018a905260e08501819052426101008601526101208501899052610140850188905261016085018190528681526001928390529490942083518155915190820180546001600160a01b0319166001600160a01b03909216919091179055915190919060028201906118079082614ab4565b506060820151600382018054608085015160a086015161ffff1990921693151561ff0019169390931761010093151584021762010000600160b01b031916620100006001600160a01b039092169190910217905560c0830151600483015560e083015160058301805460ff191691151591909117905582015160068201556101208201516007820155610140820151600882015561016090910151600990910155604051339082907fbee34f0ca0c0edfc2bd967468f81e100292d859329be491cc44c4ec390c65fac906118e4908990899042908a908a90614d5d565b60405180910390a35050505050565b33600090815260208190526040812060029081015460ff169081111561191b5761191b6141f3565b146119385760405162461bcd60e51b8152600401610fef90614d13565b6000818152600160208190526040909120908101546001600160a01b031633146119b65760405162461bcd60e51b815260206004820152602960248201527f4f6e6c7920746865206d616e7566616374757265722063616e20617070726f7660448201526865207175616c69747960b81b6064820152608401610fef565b60038101805461ffff19166001179055604051339083907f08d6065569e454b48393f44317518d1282971813504b4d323942afba2f7a2c5d90600090a35050565b6001600160a01b038116600090815260066020526040812054606091816001600160401b03811115611a2b57611a2b6144c7565b604051908082528060200260200182016040528015611a7157816020015b604080518082019091526060815260006020820152815260200190600190039081611a495790505b50905060005b828110156108ab576001600160a01b0385166000908152600660205260408120805483908110611aa957611aa9614985565b906000526020600020018054611abe9061499b565b80601f0160208091040260200160405190810160405280929190818152602001828054611aea9061499b565b8015611b375780601f10611b0c57610100808354040283529160200191611b37565b820191906000526020600020905b815481529060010190602001808311611b1a57829003601f168201915b50505050509050604051806040016040528082815260200160046000896001600160a01b03166001600160a01b0316815260200190815260200160002083604051611b8291906149cf565b908152602001604051809103902054815250838381518110611ba657611ba6614985565b602090810291909101015250600101611a77565b600260205260009081526040902080548190611bd59061499b565b80601f0160208091040260200160405190810160405280929190818152602001828054611c019061499b565b8015611c4e5780601f10611c2357610100808354040283529160200191611c4e565b820191906000526020600020905b815481529060010190602001808311611c3157829003601f168201915b5050505060018301546002840154600385015460048601546005870154600688015460078901546008909901549798959794965092946001600160a01b039283169492821693600160a01b90920460ff90811693168a565b600081815260086020526040812054808203611cc55750600092915050565b6000908152600260208190526040909120015492915050565b50919050565b6001600160a01b038082166000908152602081815260408083208151608081019092528054909416815260018401805460609586959485949391929084019190611d2d9061499b565b80601f0160208091040260200160405190810160405280929190818152602001828054611d599061499b565b8015611da65780601f10611d7b57610100808354040283529160200191611da6565b820191906000526020600020905b815481529060010190602001808311611d8957829003601f168201915b505050918352505060028281015460209092019160ff1690811115611dcd57611dcd6141f3565b6002811115611dde57611dde6141f3565b8152602001600382018054611df29061499b565b80601f0160208091040260200160405190810160405280929190818152602001828054611e1e9061499b565b8015611e6b5780601f10611e4057610100808354040283529160200191611e6b565b820191906000526020600020905b815481529060010190602001808311611e4e57829003601f168201915b50505091909252505050602081015160608201516040909201519097919650945092505050565b6060600060645b600a54811015611f0a57600081815260016020819052604090912001546001600160a01b038581169116148015611eef57506000818152600160205260409020600301546201000090046001600160a01b031615155b15611f025781611efe81614a01565b9250505b600101611e99565b506000816001600160401b03811115611f2557611f256144c7565b604051908082528060200260200182016040528015611f5e57816020015b611f4b614078565b815260200190600190039081611f435790505b509050600060645b600a54811015610d5057600081815260016020819052604090912001546001600160a01b038781169116148015611fbc57506000818152600160205260409020600301546201000090046001600160a01b031615155b156121305760008181526001602081815260409283902083516101808101855281548152928101546001600160a01b031691830191909152600281018054929391929184019161200b9061499b565b80601f01602080910402602001604051908101604052809291908181526020018280546120379061499b565b80156120845780601f1061205957610100808354040283529160200191612084565b820191906000526020600020905b81548152906001019060200180831161206757829003601f168201915b5050509183525050600382015460ff80821615156020840152610100808304821615156040850152620100009092046001600160a01b0316606084015260048401546080840152600584015416151560a0830152600683015460c0830152600783015460e083015260088301549082015260099091015461012090910152835184908490811061211657612116614985565b6020026020010181905250818061212c90614a01565b9250505b600101611f66565b60408051608081018252600080825260606020830181905292820152818101919091526001600160a01b0380831660009081526020818152604091829020825160808101909352805490931682526001830180549293929184019161219c9061499b565b80601f01602080910402602001604051908101604052809291908181526020018280546121c89061499b565b80156122155780601f106121ea57610100808354040283529160200191612215565b820191906000526020600020905b8154815290600101906020018083116121f857829003601f168201915b505050918352505060028281015460209092019160ff169081111561223c5761223c6141f3565b600281111561224d5761224d6141f3565b81526020016003820180546122619061499b565b80601f016020809104026020016040519081016040528092919081815260200182805461228d9061499b565b80156122da5780601f106122af576101008083540402835291602001916122da565b820191906000526020600020905b8154815290600101906020018083116122bd57829003601f168201915b5050505050815250509050919050565b33600090815260208190526040902060029081015460ff1681811115612312576123126141f3565b1461232f5760405162461bcd60e51b8152600401610fef90614d94565b600c80546000918261234083614a01565b91905055905060405180610140016040528084815260200183815260200182815260200160008152602001336001600160a01b0316815260200160006001600160a01b0316815260200160001515815260200142815260200160008152602001600060048111156123b3576123b36141f3565b90526000828152600360205260409020815181906123d19082614ab4565b50602082015160018281019190915560408301516002830155606083015160038301556080830151600480840180546001600160a01b0319166001600160a01b0393841617905560a085015160058501805460c0880151929094166001600160a81b031990941693909317600160a01b911515919091021790915560e0840151600684015561010084015160078401556101208401516008840180549193909260ff19909216918490811115612489576124896141f3565b02179055505050505050565b6001600160a01b03811660009081526020819052604090206001018054606091906124bf9061499b565b80601f01602080910402602001604051908101604052809291908181526020018280546124eb9061499b565b80156125385780601f1061250d57610100808354040283529160200191612538565b820191906000526020600020905b81548152906001019060200180831161251b57829003601f168201915b50505050509050919050565b6060600233600090815260208190526040902060029081015460ff1690811115612570576125706141f3565b1461258d5760405162461bcd60e51b8152600401610fef90614d94565b600060645b600c54811015612603576000818152600360205260409020600401546001600160a01b0316331480156125e8575060008181526003602052604081206008015460ff1660048111156125e6576125e66141f3565b145b156125fb57816125f781614a01565b9250505b600101612592565b506000816001600160401b0381111561261e5761261e6144c7565b60405190808252806020026020018201604052801561265757816020015b612644614001565b81526020019060019003908161263c5790505b509050600060645b600c54811015610af9576000818152600360205260409020600401546001600160a01b0316331480156126b5575060008181526003602052604081206008015460ff1660048111156126b3576126b36141f3565b145b1561282b5760008181526003602052604090819020815161014081019092528054829082906126e39061499b565b80601f016020809104026020016040519081016040528092919081815260200182805461270f9061499b565b801561275c5780601f106127315761010080835404028352916020019161275c565b820191906000526020600020905b81548152906001019060200180831161273f57829003601f168201915b50505091835250506001820154602082015260028201546040820152600382015460608201526004808301546001600160a01b039081166080840152600584015490811660a084015260ff600160a01b9091048116151560c0840152600684015460e0840152600784015461010084015260088401546101209093019216908111156127ea576127ea6141f3565b60048111156127fb576127fb6141f3565b8152505083838151811061281157612811614985565b6020026020010181905250818061282790614a01565b9250505b60010161265f565b6000818152600960205260408120548082036128525750600092915050565b60009081526003602052604090206002015492915050565b600360205260009081526040902080548190611bd59061499b565b600133600090815260208190526040902060029081015460ff16908111156128af576128af6141f3565b146128cc5760405162461bcd60e51b8152600401610fef90614a1a565b33600090815260208190526040812060029081015460ff16908111156128f4576128f46141f3565b146129115760405162461bcd60e51b8152600401610fef90614d13565b600082815260086020526040812054908190036129405760405162461bcd60e51b8152600401610fef90614dda565b600081815260026020526040902060088101805484919060ff1916600183600481111561296f5761296f6141f3565b02179055506003836004811115612988576129886141f3565b03612a99576001810154336000908152600460205260409081902090516129b0908490614be6565b908152602001604051809103902060008282546129cd9190614bf2565b90915550508054612a6a90339083906129e59061499b565b80601f0160208091040260200160405190810160405280929190818152602001828054612a119061499b565b8015612a5e5780601f10612a3357610100808354040283529160200191612a5e565b820191906000526020600020905b815481529060010190602001808311612a4157829003601f168201915b50505050506001613f56565b612a995733600090815260066020908152604082208054600181018255908352912001612a978282614c05565b505b50505050565b33600090815260208190526040812060029081015460ff1690811115612ac757612ac76141f3565b14612ae45760405162461bcd60e51b8152600401610fef90614d13565b6000818152600160208190526040909120908101546001600160a01b03163314612b635760405162461bcd60e51b815260206004820152602a60248201527f4f6e6c7920746865206d616e7566616374757265722063616e20726563616c6c604482015269040e8d0ca40c4c2e8c6d60b31b6064820152608401610fef565b60058101805460ff19166001179055604051339083907f5a41088291f050dab11b8aeaaeaa8fd33f2225751a5d64008f812e0362ef472590600090a35050565b600060208190529081526040902080546001820180546001600160a01b039092169291612bcf9061499b565b80601f0160208091040260200160405190810160405280929190818152602001828054612bfb9061499b565b8015612c485780601f10612c1d57610100808354040283529160200191612c48565b820191906000526020600020905b815481529060010190602001808311612c2b57829003601f168201915b5050506002840154600385018054949560ff909216949193509150612c6c9061499b565b80601f0160208091040260200160405190810160405280929190818152602001828054612c989061499b565b8015612ce55780601f10612cba57610100808354040283529160200191612ce5565b820191906000526020600020905b815481529060010190602001808311612cc857829003601f168201915b5050505050905084565b60016020819052600091825260409091208054918101546002820180546001600160a01b039092169291612d229061499b565b80601f0160208091040260200160405190810160405280929190818152602001828054612d4e9061499b565b8015612d9b5780601f10612d7057610100808354040283529160200191612d9b565b820191906000526020600020905b815481529060010190602001808311612d7e57829003601f168201915b50505050600383015460048401546005850154600686015460078701546008880154600990980154969760ff80871698610100880482169850620100009097046001600160a01b0316969416938c565b33600090815260208190526040812060029081015460ff1690811115612e1357612e136141f3565b14612e305760405162461bcd60e51b8152600401610fef90614d13565b6000818152600160208190526040909120908101546001600160a01b03163314612eb15760405162461bcd60e51b815260206004820152602c60248201527f4f6e6c7920746865206d616e7566616374757265722063616e2064697361707060448201526b726f7665207175616c69747960a01b6064820152608401610fef565b60038101805461ffff1916610100179055604051339083907fc8c94276e66e72c265ff6c7a450b182f9910586a93051227e6024c1fbceaa88e90600090a35050565b33600090815260208190526040902060029081015460ff1681811115612f1b57612f1b6141f3565b14612f385760405162461bcd60e51b8152600401610fef90614d94565b600133600090815260208190526040902060029081015460ff1690811115612f6257612f626141f3565b14612f7f5760405162461bcd60e51b8152600401610fef90614a1a565b60008281526009602052604081205490819003612fae5760405162461bcd60e51b8152600401610fef90614dda565b600081815260036020526040902060048101546001600160a01b0316331461302e5760405162461bcd60e51b815260206004820152602d60248201527f4f6e6c79207468652070726f76696465722063616e207570646174652074686560448201526c206f726465722073746174757360981b6064820152608401610fef565b60088101805484919060ff1916600183600481111561304f5761304f6141f3565b02179055506003836004811115613068576130686141f3565b03612a9957600181015433600090815260056020526040908190209051613090908490614be6565b908152602001604051809103902060008282546130ad9190614bf2565b909155505080546130c590339083906113fc9061499b565b612a995733600090815260076020908152604082208054600181018255908352912001612a978282614c05565b6060600060645b600b5481101561316f576000818152600260205260409020600401546001600160a01b0385811691161480156131545750600360008281526002602052604090206008015460ff166004811115613152576131526141f3565b145b15613167578161316381614a01565b9250505b6001016130f9565b506000816001600160401b0381111561318a5761318a6144c7565b6040519080825280602002602001820160405280156131c357816020015b6131b0614001565b8152602001906001900390816131a85790505b509050600060645b600b54811015610d50576000818152600260205260409020600401546001600160a01b0387811691161480156132265750600360008281526002602052604090206008015460ff166004811115613224576132246141f3565b145b1561339c5760008181526002602052604090819020815161014081019092528054829082906132549061499b565b80601f01602080910402602001604051908101604052809291908181526020018280546132809061499b565b80156132cd5780601f106132a2576101008083540402835291602001916132cd565b820191906000526020600020905b8154815290600101906020018083116132b057829003601f168201915b50505091835250506001820154602082015260028201546040820152600382015460608201526004808301546001600160a01b039081166080840152600584015490811660a084015260ff600160a01b9091048116151560c0840152600684015460e08401526007840154610100840152600884015461012090930192169081111561335b5761335b6141f3565b600481111561336c5761336c6141f3565b8152505083838151811061338257613382614985565b6020026020010181905250818061339890614a01565b9250505b6001016131cb565b6060600060645b600b548110156133ef576000818152600260205260409020600401546001600160a01b038086169116036133e757816133e381614a01565b9250505b6001016133ab565b506000816001600160401b0381111561340a5761340a6144c7565b60405190808252806020026020018201604052801561344357816020015b613430614001565b8152602001906001900390816134285790505b509050600060645b600b54811015610d50576000818152600260205260409020600401546001600160a01b038088169116036135ea5760008181526002602052604090819020815161014081019092528054829082906134a29061499b565b80601f01602080910402602001604051908101604052809291908181526020018280546134ce9061499b565b801561351b5780601f106134f05761010080835404028352916020019161351b565b820191906000526020600020905b8154815290600101906020018083116134fe57829003601f168201915b50505091835250506001820154602082015260028201546040820152600382015460608201526004808301546001600160a01b039081166080840152600584015490811660a084015260ff600160a01b9091048116151560c0840152600684015460e0840152600784015461010084015260088401546101209093019216908111156135a9576135a96141f3565b60048111156135ba576135ba6141f3565b815250508383815181106135d0576135d0614985565b602002602001018190525081806135e690614a01565b9250505b60010161344b565b6007602052816000526040600020818154811061360e57600080fd5b9060005260206000200160009150915050805461362a9061499b565b80601f01602080910402602001604051908101604052809291908181526020018280546136569061499b565b80156136a35780601f10613678576101008083540402835291602001916136a3565b820191906000526020600020905b81548152906001019060200180831161368657829003601f168201915b505050505081565b6136b3614001565b600082815260026020819052604082209081015490910361370d5760405162461bcd60e51b815260206004820152601460248201527313dc99195c88191bd95cc81b9bdd08195e1a5cdd60621b6044820152606401610fef565b806040518061014001604052908160008201805461372a9061499b565b80601f01602080910402602001604051908101604052809291908181526020018280546137569061499b565b80156137a35780601f10613778576101008083540402835291602001916137a3565b820191906000526020600020905b81548152906001019060200180831161378657829003601f168201915b50505091835250506001820154602082015260028201546040820152600382015460608201526004808301546001600160a01b039081166080840152600584015490811660a084015260ff600160a01b9091048116151560c0840152600684015460e084015260078401546101008401526008840154610120909301921690811115613831576138316141f3565b6004811115613842576138426141f3565b9052509392505050565b613854614001565b6000828152600360205260408120600281015490910361370d5760405162461bcd60e51b815260206004820152601460248201527313dc99195c88191bd95cc81b9bdd08195e1a5cdd60621b6044820152606401610fef565b6060600060645b600c5481101561392a576000818152600360205260409020600401546001600160a01b03858116911614801561390f5750600360008281526003602052604090206008015460ff16600481111561390d5761390d6141f3565b145b15613922578161391e81614a01565b9250505b6001016138b4565b506000816001600160401b03811115613945576139456144c7565b60405190808252806020026020018201604052801561397e57816020015b61396b614001565b8152602001906001900390816139635790505b509050600060645b600c54811015610d50576000818152600360205260409020600401546001600160a01b0387811691161480156139e15750600360008281526003602052604090206008015460ff1660048111156139df576139df6141f3565b145b15613b57576000818152600360205260409081902081516101408101909252805482908290613a0f9061499b565b80601f0160208091040260200160405190810160405280929190818152602001828054613a3b9061499b565b8015613a885780601f10613a5d57610100808354040283529160200191613a88565b820191906000526020600020905b815481529060010190602001808311613a6b57829003601f168201915b50505091835250506001820154602082015260028201546040820152600382015460608201526004808301546001600160a01b039081166080840152600584015490811660a084015260ff600160a01b9091048116151560c0840152600684015460e084015260078401546101008401526008840154610120909301921690811115613b1657613b166141f3565b6004811115613b2757613b276141f3565b81525050838381518110613b3d57613b3d614985565b60200260200101819052508180613b5390614a01565b9250505b600101613986565b6006602052816000526040600020818154811061360e57600080fd5b600133600090815260208190526040902060029081015460ff1690811115613ba557613ba56141f3565b14613bc25760405162461bcd60e51b8152600401610fef90614a1a565b600b805460009182613bd383614a01565b91905055905060405180610140016040528084815260200183815260200182815260200160008152602001336001600160a01b0316815260200160006001600160a01b031681526020016000151581526020014281526020016000815260200160006004811115613c4657613c466141f3565b90526000828152600260205260409020815181906123d19082614ab4565b33600090815260208190526040812060029081015460ff1690811115613c8c57613c8c6141f3565b14613ca95760405162461bcd60e51b8152600401610fef90614d13565b60016001600160a01b038316600090815260208190526040902060029081015460ff1690811115613cdc57613cdc6141f3565b14613d1f5760405162461bcd60e51b815260206004820152601360248201527224b73b30b634b2103234b9ba3934b13aba37b960691b6044820152606401610fef565b6000838152600160205260409020600381015460ff16613d815760405162461bcd60e51b815260206004820152601e60248201527f4261746368206d757374206265207175616c69747920617070726f76656400006044820152606401610fef565b60038101546201000090046001600160a01b031615613ddb5760405162461bcd60e51b815260206004820152601660248201527510985d18da08185b1c9958591e48185cdcda59db995960521b6044820152606401610fef565b6000828152600260205260409020600381015415613e475760405162461bcd60e51b8152602060048201526024808201527f4f7264657220697320616c72656164792061737369676e656420746f206120626044820152630c2e8c6d60e31b6064820152608401610fef565b816008015481600101541115613ead5760405162461bcd60e51b815260206004820152602560248201527f4f72646572207175616e746974792065786365656473206261746368207175616044820152646e7469747960d81b6064820152608401610fef565b6003828101805462010000600160b01b031916620100006001600160a01b0388169081029190911790915560098401859055908201869055600582018054336001600160a01b03199091161790556008808301805460ff191660021790554260078401556004840154600090815260209190915260408082208690555187917f8e6804b2e7bfb70fb26b5bbf7a87382c43918cd5fd77219d8846c3c4f302ad0a91a35050505050565b60008082613f7b576001600160a01b0385166000908152600760205260409020613f94565b6001600160a01b03851660009081526006602052604090205b905060005b8154811015613ff3578480519060200120828281548110613fbc57613fbc614985565b90600052602060002001604051613fd39190614be6565b604051809103902003613feb57600192505050613ffa565b600101613f99565b5060009150505b9392505050565b6040518061014001604052806060815260200160008152602001600081526020016000815260200160006001600160a01b0316815260200160006001600160a01b03168152602001600015158152602001600081526020016000815260200160006004811115614073576140736141f3565b905290565b6040518061018001604052806000815260200160006001600160a01b031681526020016060815260200160001515815260200160001515815260200160006001600160a01b0316815260200160008019168152602001600015158152602001600081526020016000815260200160008152602001600081525090565b80356001600160a01b038116811461410b57600080fd5b919050565b60006020828403121561412257600080fd5b613ffa826140f4565b60005b8381101561414657818101518382015260200161412e565b50506000910152565b6000815180845261416781602086016020860161412b565b601f01601f19169290920160200192915050565b600060208083018184528085518083526040925060408601915060408160051b87010184880160005b838110156141e557888303603f19018552815180518785526141c88886018261414f565b9189015194890194909452948701949250908601906001016141a4565b509098975050505050505050565b634e487b7160e01b600052602160045260246000fd5b60058110614219576142196141f3565b9052565b600061014082518185526142338286018261414f565b915050602083015160208501526040830151604085015260608301516060850152608083015161426e60808601826001600160a01b03169052565b5060a083015161428960a08601826001600160a01b03169052565b5060c083015161429d60c086018215159052565b5060e083015160e085015261010080840151818601525061012080840151610d5082870182614209565b600060208083016020845280855180835260408601915060408160051b87010192506020870160005b8281101561431e57603f1988860301845261430c85835161421d565b945092850192908501906001016142f0565b5092979650505050505050565b600060208083016020845280855180835260408601915060408160051b87010192506020870160005b8281101561431e57603f1988860301845261437085835161421d565b94509285019290850190600101614354565b60038110614219576142196141f3565b602081016143a08284614382565b92915050565b600060208083018184528085518083526040925060408601915060408160051b87010184880160005b838110156141e557603f19898403018552815180518452878101516001600160a01b03168885015286810151610180888601819052906144118287018261414f565b9150506060808301516144278288018215159052565b505060808281015115159086015260a0808301516001600160a01b03169086015260c0808301519086015260e08083015115159086015261010080830151908601526101208083015190860152610140808301519086015261016091820151919094015293860193908601906001016143cf565b600080604083850312156144ae57600080fd5b823591506144be602084016140f4565b90509250929050565b634e487b7160e01b600052604160045260246000fd5b600082601f8301126144ee57600080fd5b81356001600160401b0380821115614508576145086144c7565b604051601f8301601f19908116603f01168101908282118183101715614530576145306144c7565b8160405283815286602085880101111561454957600080fd5b836020870160208301376000602085830101528094505050505092915050565b6000806000806080858703121561457f57600080fd5b614588856140f4565b935060208501356001600160401b03808211156145a457600080fd5b6145b0888389016144dd565b945060408701359150600382106145c657600080fd5b909250606086013590808211156145dc57600080fd5b506145e9878288016144dd565b91505092959194509250565b6000806000806080858703121561460b57600080fd5b84356001600160401b0381111561462157600080fd5b61462d878288016144dd565b97602087013597506040870135966060013595509350505050565b60006020828403121561465a57600080fd5b5035919050565b60006101408083526146758184018e61414f565b9150508a602083015289604083015288606083015260018060a01b03808916608084015280881660a08401525085151560c08301528460e0830152836101008301526146c5610120830184614209565b9b9a5050505050505050505050565b6060815260006146e7606083018661414f565b82810360208401526146f9818661414f565b9150506147096040830184614382565b949350505050565b602080825282516001600160a01b0316828201528201516080604083015260009061473f60a084018261414f565b905060408401516147536060850182614382565b506060840151838203601f1901608085015261476f828261414f565b95945050505050565b6000806040838503121561478b57600080fd5b614794836140f4565b915060208301356001600160401b038111156147af57600080fd5b6147bb858286016144dd565b9150509250929050565b600080604083850312156147d857600080fd5b82356001600160401b038111156147ee57600080fd5b6147fa858286016144dd565b95602094909401359450505050565b602081526000613ffa602083018461414f565b6000806040838503121561482f57600080fd5b8235915060208301356005811061484557600080fd5b809150509250929050565b6001600160a01b03851681526080602082018190526000906148749083018661414f565b6148816040840186614382565b8281036060840152614893818561414f565b979650505050505050565b8c81526001600160a01b038c81166020830152610180604083018190526000916148ca8483018f61414f565b9c151560608501529a1515608084015250509690971660a087015260c086019490945291151560e085015261010084015261012083015261014082015261016001529392505050565b6000806040838503121561492657600080fd5b61492f836140f4565b946020939093013593505050565b602081526000613ffa602083018461421d565b60008060006060848603121561496557600080fd5b83359250614975602085016140f4565b9150604084013590509250925092565b634e487b7160e01b600052603260045260246000fd5b600181811c908216806149af57607f821691505b602082108103611cde57634e487b7160e01b600052602260045260246000fd5b600082516149e181846020870161412b565b9190910192915050565b634e487b7160e01b600052601160045260246000fd5b600060018201614a1357614a136149eb565b5060010190565b60208082526029908201527f4f6e6c79206469737472696275746f72732063616e20706572666f726d20746860408201526834b99030b1ba34b7b760b91b606082015260800190565b601f821115614aaf576000816000526020600020601f850160051c81016020861015614a8c5750805b601f850160051c820191505b81811015614aab57828155600101614a98565b5050505b505050565b81516001600160401b03811115614acd57614acd6144c7565b614ae181614adb845461499b565b84614a63565b602080601f831160018114614b165760008415614afe5750858301515b600019600386901b1c1916600185901b178555614aab565b600085815260208120601f198616915b82811015614b4557888601518255948401946001909101908401614b26565b5085821015614b635787850151600019600388901b60f8161c191681555b5050505050600190811b01905550565b60008154614b808161499b565b60018281168015614b985760018114614bad57614bdc565b60ff1984168752821515830287019450614bdc565b8560005260208060002060005b85811015614bd35781548a820152908401908201614bba565b50505082870194505b5050505092915050565b6000613ffa8284614b73565b808201808211156143a0576143a06149eb565b818103614c10575050565b614c1a825461499b565b6001600160401b03811115614c3157614c316144c7565b614c3f81614adb845461499b565b6000601f821160018114614c735760008315614c5b5750848201545b600019600385901b1c1916600184901b178455612a97565b600085815260209020601f19841690600086815260209020845b83811015614cad5782860154825560019586019590910190602001614c8d565b5085831015614b635793015460001960f8600387901b161c19169092555050600190811b01905550565b606081526000614cea606083018661414f565b614cf76020840186614382565b8281036040840152614d09818561414f565b9695505050505050565b6020808252602a908201527f4f6e6c79206d616e756661637475726572732063616e20706572666f726d20746040820152693434b99030b1ba34b7b760b11b606082015260800190565b60a081526000614d7060a083018861414f565b90508560208301528460408301528360608301528260808301529695505050505050565b60208082526026908201527f4f6e6c792070726f7669646572732063616e20706572666f726d20746869732060408201526530b1ba34b7b760d11b606082015260800190565b60208082526026908201527f4f72646572206e6f7420666f756e6420666f722074686520676976656e20524660408201526512510815525160d21b60608201526080019056fea264697066735822122052c4aab684753b02e71239b987e2ee103f4e8412a1c0abeb19c630d25f5c391764736f6c63430008180033",
  "linkReferences": {},
  "deployedLinkReferences": {}
}