{
  "_format": "hh-sol-artifact-1",
  "contractName": "PharmaChain",
  "sourceName": "contracts/PharmaChain.sol",
  "abi": [
    {
      "anonymous": false,
      "inputs": [
        {
          "indexed": true,
          "internalType": "uint256",
          "name": "batchId",
          "type": "uint256"
        },
        {
          "indexed": true,
          "internalType": "address",
          "name": "distributor",
          "type": "address"
        }
      ],
      "name": "BatchAssignedToDistributor",
      "type": "event"
    },
    {
      "anonymous": false,
      "inputs": [
        {
          "indexed": true,
          "internalType": "uint256",
          "name": "batchId",
          "type": "uint256"
        },
        {
          "indexed": true,
          "internalType": "address",
          "name": "provider",
          "type": "address"
        }
      ],
      "name": "BatchAssignedToProvider",
      "type": "event"
    },
    {
      "anonymous": false,
      "inputs": [
        {
          "indexed": true,
          "internalType": "uint256",
          "name": "batchId",
          "type": "uint256"
        },
        {
          "indexed": true,
          "internalType": "address",
          "name": "manufacturer",
          "type": "address"
        },
        {
          "indexed": false,
          "internalType": "string",
          "name": "details",
          "type": "string"
        },
        {
          "indexed": false,
          "internalType": "bytes32",
          "name": "rfidUIDHash",
          "type": "bytes32"
        },
        {
          "indexed": false,
          "internalType": "uint256",
          "name": "manufactureDate",
          "type": "uint256"
        },
        {
          "indexed": false,
          "internalType": "uint256",
          "name": "expiryDate",
          "type": "uint256"
        },
        {
          "indexed": false,
          "internalType": "uint256",
          "name": "quantity",
          "type": "uint256"
        }
      ],
      "name": "BatchCreated",
      "type": "event"
    },
    {
      "anonymous": false,
      "inputs": [
        {
          "indexed": true,
          "internalType": "uint256",
          "name": "batchId",
          "type": "uint256"
        },
        {
          "indexed": true,
          "internalType": "address",
          "name": "initiator",
          "type": "address"
        }
      ],
      "name": "BatchRecalled",
      "type": "event"
    },
    {
      "anonymous": false,
      "inputs": [
        {
          "indexed": true,
          "internalType": "uint256",
          "name": "batchId",
          "type": "uint256"
        },
        {
          "indexed": true,
          "internalType": "address",
          "name": "approver",
          "type": "address"
        }
      ],
      "name": "QualityApproved",
      "type": "event"
    },
    {
      "anonymous": false,
      "inputs": [
        {
          "indexed": true,
          "internalType": "uint256",
          "name": "batchId",
          "type": "uint256"
        },
        {
          "indexed": true,
          "internalType": "address",
          "name": "disapprover",
          "type": "address"
        }
      ],
      "name": "QualityDisapproved",
      "type": "event"
    },
    {
      "anonymous": false,
      "inputs": [
        {
          "indexed": true,
          "internalType": "address",
          "name": "user",
          "type": "address"
        },
        {
          "indexed": false,
          "internalType": "string",
          "name": "companyName",
          "type": "string"
        },
        {
          "indexed": false,
          "internalType": "enum PharmaChain.Role",
          "name": "role",
          "type": "uint8"
        },
        {
          "indexed": false,
          "internalType": "string",
          "name": "contactInfo",
          "type": "string"
        }
      ],
      "name": "UserRegistered",
      "type": "event"
    },
    {
      "inputs": [
        {
          "internalType": "uint256",
          "name": "_batchId",
          "type": "uint256"
        }
      ],
      "name": "approveQuality",
      "outputs": [],
      "stateMutability": "nonpayable",
      "type": "function"
    },
    {
      "inputs": [
        {
          "internalType": "uint256",
          "name": "_batchId",
          "type": "uint256"
        },
        {
          "internalType": "address",
          "name": "_provider",
          "type": "address"
        }
      ],
      "name": "assignBatchToProvider",
      "outputs": [],
      "stateMutability": "nonpayable",
      "type": "function"
    },
    {
      "inputs": [
        {
          "internalType": "uint256",
          "name": "_batchId",
          "type": "uint256"
        },
        {
          "internalType": "address",
          "name": "_distributor",
          "type": "address"
        },
        {
          "internalType": "uint256",
          "name": "_orderId",
          "type": "uint256"
        }
      ],
      "name": "assignToDistributor",
      "outputs": [],
      "stateMutability": "nonpayable",
      "type": "function"
    },
    {
      "inputs": [
        {
          "internalType": "uint256",
          "name": "",
          "type": "uint256"
        }
      ],
      "name": "batches",
      "outputs": [
        {
          "internalType": "uint256",
          "name": "batchId",
          "type": "uint256"
        },
        {
          "internalType": "address",
          "name": "manufacturer",
          "type": "address"
        },
        {
          "internalType": "string",
          "name": "details",
          "type": "string"
        },
        {
          "internalType": "bool",
          "name": "isQualityApproved",
          "type": "bool"
        },
        {
          "internalType": "bool",
          "name": "isQualityDisapproved",
          "type": "bool"
        },
        {
          "internalType": "address",
          "name": "distributor",
          "type": "address"
        },
        {
          "internalType": "bytes32",
          "name": "rfidUIDHash",
          "type": "bytes32"
        },
        {
          "internalType": "bool",
          "name": "isRecalled",
          "type": "bool"
        },
        {
          "internalType": "uint256",
          "name": "manufactureDate",
          "type": "uint256"
        },
        {
          "internalType": "uint256",
          "name": "expiryDate",
          "type": "uint256"
        },
        {
          "internalType": "uint256",
          "name": "quantity",
          "type": "uint256"
        },
        {
          "internalType": "uint256",
          "name": "orderId",
          "type": "uint256"
        }
      ],
      "stateMutability": "view",
      "type": "function"
    },
    {
      "inputs": [
        {
          "internalType": "string",
          "name": "_details",
          "type": "string"
        },
        {
          "internalType": "bytes32",
          "name": "_rfidUIDHash",
          "type": "bytes32"
        },
        {
          "internalType": "uint256",
          "name": "_expiryDate",
          "type": "uint256"
        },
        {
          "internalType": "uint256",
          "name": "_quantity",
          "type": "uint256"
        }
      ],
      "name": "createBatch",
      "outputs": [],
      "stateMutability": "nonpayable",
      "type": "function"
    },
    {
      "inputs": [
        {
          "internalType": "string",
          "name": "_medName",
          "type": "string"
        },
        {
          "internalType": "uint256",
          "name": "_quantity",
          "type": "uint256"
        }
      ],
      "name": "createDistributorOrder",
      "outputs": [],
      "stateMutability": "nonpayable",
      "type": "function"
    },
    {
      "inputs": [
        {
          "internalType": "string",
          "name": "_medName",
          "type": "string"
        },
        {
          "internalType": "uint256",
          "name": "_qunatity",
          "type": "uint256"
        }
      ],
      "name": "createProviderOrder",
      "outputs": [],
      "stateMutability": "nonpayable",
      "type": "function"
    },
    {
      "inputs": [
        {
          "internalType": "uint256",
          "name": "_batchId",
          "type": "uint256"
        }
      ],
      "name": "disapproveQuality",
      "outputs": [],
      "stateMutability": "nonpayable",
      "type": "function"
    },
    {
      "inputs": [
        {
          "internalType": "address",
          "name": "",
          "type": "address"
        },
        {
          "internalType": "uint256",
          "name": "",
          "type": "uint256"
        }
      ],
      "name": "distributorMedNames",
      "outputs": [
        {
          "internalType": "string",
          "name": "",
          "type": "string"
        }
      ],
      "stateMutability": "view",
      "type": "function"
    },
    {
      "inputs": [
        {
          "internalType": "uint256",
          "name": "",
          "type": "uint256"
        }
      ],
      "name": "distributorOrders",
      "outputs": [
        {
          "internalType": "string",
          "name": "medName",
          "type": "string"
        },
        {
          "internalType": "uint256",
          "name": "quantity",
          "type": "uint256"
        },
        {
          "internalType": "uint256",
          "name": "orderId",
          "type": "uint256"
        },
        {
          "internalType": "uint256",
          "name": "batchId",
          "type": "uint256"
        },
        {
          "internalType": "address",
          "name": "distributor",
          "type": "address"
        },
        {
          "internalType": "address",
          "name": "manufacturer",
          "type": "address"
        },
        {
          "internalType": "bool",
          "name": "isAssigned",
          "type": "bool"
        },
        {
          "internalType": "uint256",
          "name": "orderDate",
          "type": "uint256"
        },
        {
          "internalType": "uint256",
          "name": "orderApprovedDate",
          "type": "uint256"
        },
        {
          "internalType": "enum PharmaChain.OrderStatus",
          "name": "status",
          "type": "uint8"
        }
      ],
      "stateMutability": "view",
      "type": "function"
    },
    {
      "inputs": [
        {
          "internalType": "address",
          "name": "",
          "type": "address"
        },
        {
          "internalType": "string",
          "name": "",
          "type": "string"
        }
      ],
      "name": "distributorStocks",
      "outputs": [
        {
          "internalType": "uint256",
          "name": "",
          "type": "uint256"
        }
      ],
      "stateMutability": "view",
      "type": "function"
    },
    {
      "inputs": [
        {
          "internalType": "address",
          "name": "_user",
          "type": "address"
        }
      ],
      "name": "getCompanyNameFromAddress",
      "outputs": [
        {
          "internalType": "string",
          "name": "",
          "type": "string"
        }
      ],
      "stateMutability": "view",
      "type": "function"
    },
    {
      "inputs": [
        {
          "internalType": "address",
          "name": "_manufacturer",
          "type": "address"
        }
      ],
      "name": "getCreatedBatches",
      "outputs": [
        {
          "components": [
            {
              "internalType": "uint256",
              "name": "batchId",
              "type": "uint256"
            },
            {
              "internalType": "address",
              "name": "manufacturer",
              "type": "address"
            },
            {
              "internalType": "string",
              "name": "details",
              "type": "string"
            },
            {
              "internalType": "bool",
              "name": "isQualityApproved",
              "type": "bool"
            },
            {
              "internalType": "bool",
              "name": "isQualityDisapproved",
              "type": "bool"
            },
            {
              "internalType": "address",
              "name": "distributor",
              "type": "address"
            },
            {
              "internalType": "bytes32",
              "name": "rfidUIDHash",
              "type": "bytes32"
            },
            {
              "internalType": "bool",
              "name": "isRecalled",
              "type": "bool"
            },
            {
              "internalType": "uint256",
              "name": "manufactureDate",
              "type": "uint256"
            },
            {
              "internalType": "uint256",
              "name": "expiryDate",
              "type": "uint256"
            },
            {
              "internalType": "uint256",
              "name": "quantity",
              "type": "uint256"
            },
            {
              "internalType": "uint256",
              "name": "orderId",
              "type": "uint256"
            }
          ],
          "internalType": "struct PharmaChain.Batch[]",
          "name": "",
          "type": "tuple[]"
        }
      ],
      "stateMutability": "view",
      "type": "function"
    },
    {
      "inputs": [
        {
          "internalType": "uint256",
          "name": "_orderId",
          "type": "uint256"
        }
      ],
      "name": "getDistributorOrder",
      "outputs": [
        {
          "components": [
            {
              "internalType": "string",
              "name": "medName",
              "type": "string"
            },
            {
              "internalType": "uint256",
              "name": "quantity",
              "type": "uint256"
            },
            {
              "internalType": "uint256",
              "name": "orderId",
              "type": "uint256"
            },
            {
              "internalType": "uint256",
              "name": "batchId",
              "type": "uint256"
            },
            {
              "internalType": "address",
              "name": "distributor",
              "type": "address"
            },
            {
              "internalType": "address",
              "name": "manufacturer",
              "type": "address"
            },
            {
              "internalType": "bool",
              "name": "isAssigned",
              "type": "bool"
            },
            {
              "internalType": "uint256",
              "name": "orderDate",
              "type": "uint256"
            },
            {
              "internalType": "uint256",
              "name": "orderApprovedDate",
              "type": "uint256"
            },
            {
              "internalType": "enum PharmaChain.OrderStatus",
              "name": "status",
              "type": "uint8"
            }
          ],
          "internalType": "struct PharmaChain.DistributorOrder",
          "name": "",
          "type": "tuple"
        }
      ],
      "stateMutability": "view",
      "type": "function"
    },
    {
      "inputs": [
        {
          "internalType": "address",
          "name": "_distributor",
          "type": "address"
        }
      ],
      "name": "getDistributorOrders",
      "outputs": [
        {
          "components": [
            {
              "internalType": "string",
              "name": "medName",
              "type": "string"
            },
            {
              "internalType": "uint256",
              "name": "quantity",
              "type": "uint256"
            },
            {
              "internalType": "uint256",
              "name": "orderId",
              "type": "uint256"
            },
            {
              "internalType": "uint256",
              "name": "batchId",
              "type": "uint256"
            },
            {
              "internalType": "address",
              "name": "distributor",
              "type": "address"
            },
            {
              "internalType": "address",
              "name": "manufacturer",
              "type": "address"
            },
            {
              "internalType": "bool",
              "name": "isAssigned",
              "type": "bool"
            },
            {
              "internalType": "uint256",
              "name": "orderDate",
              "type": "uint256"
            },
            {
              "internalType": "uint256",
              "name": "orderApprovedDate",
              "type": "uint256"
            },
            {
              "internalType": "enum PharmaChain.OrderStatus",
              "name": "status",
              "type": "uint8"
            }
          ],
          "internalType": "struct PharmaChain.DistributorOrder[]",
          "name": "",
          "type": "tuple[]"
        }
      ],
      "stateMutability": "view",
      "type": "function"
    },
    {
      "inputs": [
        {
          "internalType": "address",
          "name": "_distributor",
          "type": "address"
        }
      ],
      "name": "getDistributorStock",
      "outputs": [
        {
          "components": [
            {
              "internalType": "string",
              "name": "medName",
              "type": "string"
            },
            {
              "internalType": "uint256",
              "name": "quantity",
              "type": "uint256"
            }
          ],
          "internalType": "struct PharmaChain.StockItem[]",
          "name": "",
          "type": "tuple[]"
        }
      ],
      "stateMutability": "view",
      "type": "function"
    },
    {
      "inputs": [
        {
          "internalType": "address",
          "name": "_manufacturer",
          "type": "address"
        }
      ],
      "name": "getFulfilledBatches",
      "outputs": [
        {
          "components": [
            {
              "internalType": "uint256",
              "name": "batchId",
              "type": "uint256"
            },
            {
              "internalType": "address",
              "name": "manufacturer",
              "type": "address"
            },
            {
              "internalType": "string",
              "name": "details",
              "type": "string"
            },
            {
              "internalType": "bool",
              "name": "isQualityApproved",
              "type": "bool"
            },
            {
              "internalType": "bool",
              "name": "isQualityDisapproved",
              "type": "bool"
            },
            {
              "internalType": "address",
              "name": "distributor",
              "type": "address"
            },
            {
              "internalType": "bytes32",
              "name": "rfidUIDHash",
              "type": "bytes32"
            },
            {
              "internalType": "bool",
              "name": "isRecalled",
              "type": "bool"
            },
            {
              "internalType": "uint256",
              "name": "manufactureDate",
              "type": "uint256"
            },
            {
              "internalType": "uint256",
              "name": "expiryDate",
              "type": "uint256"
            },
            {
              "internalType": "uint256",
              "name": "quantity",
              "type": "uint256"
            },
            {
              "internalType": "uint256",
              "name": "orderId",
              "type": "uint256"
            }
          ],
          "internalType": "struct PharmaChain.Batch[]",
          "name": "",
          "type": "tuple[]"
        }
      ],
      "stateMutability": "view",
      "type": "function"
    },
    {
      "inputs": [],
      "name": "getPendingDistributorOrders",
      "outputs": [
        {
          "components": [
            {
              "internalType": "string",
              "name": "medName",
              "type": "string"
            },
            {
              "internalType": "uint256",
              "name": "quantity",
              "type": "uint256"
            },
            {
              "internalType": "uint256",
              "name": "orderId",
              "type": "uint256"
            },
            {
              "internalType": "uint256",
              "name": "batchId",
              "type": "uint256"
            },
            {
              "internalType": "address",
              "name": "distributor",
              "type": "address"
            },
            {
              "internalType": "address",
              "name": "manufacturer",
              "type": "address"
            },
            {
              "internalType": "bool",
              "name": "isAssigned",
              "type": "bool"
            },
            {
              "internalType": "uint256",
              "name": "orderDate",
              "type": "uint256"
            },
            {
              "internalType": "uint256",
              "name": "orderApprovedDate",
              "type": "uint256"
            },
            {
              "internalType": "enum PharmaChain.OrderStatus",
              "name": "status",
              "type": "uint8"
            }
          ],
          "internalType": "struct PharmaChain.DistributorOrder[]",
          "name": "",
          "type": "tuple[]"
        }
      ],
      "stateMutability": "view",
      "type": "function"
    },
    {
      "inputs": [],
      "name": "getPendingProviderOrders",
      "outputs": [
        {
          "components": [
            {
              "internalType": "string",
              "name": "medName",
              "type": "string"
            },
            {
              "internalType": "uint256",
              "name": "quantity",
              "type": "uint256"
            },
            {
              "internalType": "uint256",
              "name": "orderId",
              "type": "uint256"
            },
            {
              "internalType": "uint256",
              "name": "batchId",
              "type": "uint256"
            },
            {
              "internalType": "address",
              "name": "provider",
              "type": "address"
            },
            {
              "internalType": "address",
              "name": "distributor",
              "type": "address"
            },
            {
              "internalType": "bool",
              "name": "isAssigned",
              "type": "bool"
            },
            {
              "internalType": "uint256",
              "name": "orderDate",
              "type": "uint256"
            },
            {
              "internalType": "uint256",
              "name": "orderApprovedDate",
              "type": "uint256"
            },
            {
              "internalType": "enum PharmaChain.OrderStatus",
              "name": "status",
              "type": "uint8"
            }
          ],
          "internalType": "struct PharmaChain.ProviderOrder[]",
          "name": "",
          "type": "tuple[]"
        }
      ],
      "stateMutability": "view",
      "type": "function"
    },
    {
      "inputs": [
        {
          "internalType": "uint256",
          "name": "_orderId",
          "type": "uint256"
        }
      ],
      "name": "getProviderOrderDetails",
      "outputs": [
        {
          "components": [
            {
              "internalType": "string",
              "name": "medName",
              "type": "string"
            },
            {
              "internalType": "uint256",
              "name": "quantity",
              "type": "uint256"
            },
            {
              "internalType": "uint256",
              "name": "orderId",
              "type": "uint256"
            },
            {
              "internalType": "uint256",
              "name": "batchId",
              "type": "uint256"
            },
            {
              "internalType": "address",
              "name": "provider",
              "type": "address"
            },
            {
              "internalType": "address",
              "name": "distributor",
              "type": "address"
            },
            {
              "internalType": "bool",
              "name": "isAssigned",
              "type": "bool"
            },
            {
              "internalType": "uint256",
              "name": "orderDate",
              "type": "uint256"
            },
            {
              "internalType": "uint256",
              "name": "orderApprovedDate",
              "type": "uint256"
            },
            {
              "internalType": "enum PharmaChain.OrderStatus",
              "name": "status",
              "type": "uint8"
            }
          ],
          "internalType": "struct PharmaChain.ProviderOrder",
          "name": "",
          "type": "tuple"
        }
      ],
      "stateMutability": "view",
      "type": "function"
    },
    {
      "inputs": [
        {
          "internalType": "address",
          "name": "_provider",
          "type": "address"
        }
      ],
      "name": "getProviderOrders",
      "outputs": [
        {
          "components": [
            {
              "internalType": "string",
              "name": "medName",
              "type": "string"
            },
            {
              "internalType": "uint256",
              "name": "quantity",
              "type": "uint256"
            },
            {
              "internalType": "uint256",
              "name": "orderId",
              "type": "uint256"
            },
            {
              "internalType": "uint256",
              "name": "batchId",
              "type": "uint256"
            },
            {
              "internalType": "address",
              "name": "provider",
              "type": "address"
            },
            {
              "internalType": "address",
              "name": "distributor",
              "type": "address"
            },
            {
              "internalType": "bool",
              "name": "isAssigned",
              "type": "bool"
            },
            {
              "internalType": "uint256",
              "name": "orderDate",
              "type": "uint256"
            },
            {
              "internalType": "uint256",
              "name": "orderApprovedDate",
              "type": "uint256"
            },
            {
              "internalType": "enum PharmaChain.OrderStatus",
              "name": "status",
              "type": "uint8"
            }
          ],
          "internalType": "struct PharmaChain.ProviderOrder[]",
          "name": "",
          "type": "tuple[]"
        }
      ],
      "stateMutability": "view",
      "type": "function"
    },
    {
      "inputs": [
        {
          "internalType": "address",
          "name": "_provider",
          "type": "address"
        }
      ],
      "name": "getProviderStock",
      "outputs": [
        {
          "components": [
            {
              "internalType": "string",
              "name": "medName",
              "type": "string"
            },
            {
              "internalType": "uint256",
              "name": "quantity",
              "type": "uint256"
            }
          ],
          "internalType": "struct PharmaChain.StockItem[]",
          "name": "",
          "type": "tuple[]"
        }
      ],
      "stateMutability": "view",
      "type": "function"
    },
    {
      "inputs": [
        {
          "internalType": "address",
          "name": "_user",
          "type": "address"
        }
      ],
      "name": "getUserByAddress",
      "outputs": [
        {
          "components": [
            {
              "internalType": "address",
              "name": "account",
              "type": "address"
            },
            {
              "internalType": "string",
              "name": "companyName",
              "type": "string"
            },
            {
              "internalType": "enum PharmaChain.Role",
              "name": "role",
              "type": "uint8"
            },
            {
              "internalType": "string",
              "name": "contactInfo",
              "type": "string"
            }
          ],
          "internalType": "struct PharmaChain.User",
          "name": "",
          "type": "tuple"
        }
      ],
      "stateMutability": "view",
      "type": "function"
    },
    {
      "inputs": [
        {
          "internalType": "address",
          "name": "_user",
          "type": "address"
        }
      ],
      "name": "getUserInfo",
      "outputs": [
        {
          "internalType": "string",
          "name": "companyName",
          "type": "string"
        },
        {
          "internalType": "string",
          "name": "contactInfo",
          "type": "string"
        },
        {
          "internalType": "enum PharmaChain.Role",
          "name": "role",
          "type": "uint8"
        }
      ],
      "stateMutability": "view",
      "type": "function"
    },
    {
      "inputs": [
        {
          "internalType": "address",
          "name": "_user",
          "type": "address"
        }
      ],
      "name": "getUserRole",
      "outputs": [
        {
          "internalType": "enum PharmaChain.Role",
          "name": "",
          "type": "uint8"
        }
      ],
      "stateMutability": "view",
      "type": "function"
    },
    {
      "inputs": [
        {
          "internalType": "address",
          "name": "_user",
          "type": "address"
        }
      ],
      "name": "isUserRegistered",
      "outputs": [
        {
          "internalType": "bool",
          "name": "",
          "type": "bool"
        }
      ],
      "stateMutability": "view",
      "type": "function"
    },
    {
      "inputs": [],
      "name": "nextBatchId",
      "outputs": [
        {
          "internalType": "uint256",
          "name": "",
          "type": "uint256"
        }
      ],
      "stateMutability": "view",
      "type": "function"
    },
    {
      "inputs": [],
      "name": "nextDistributorOrderId",
      "outputs": [
        {
          "internalType": "uint256",
          "name": "",
          "type": "uint256"
        }
      ],
      "stateMutability": "view",
      "type": "function"
    },
    {
      "inputs": [],
      "name": "nextProviderOrderId",
      "outputs": [
        {
          "internalType": "uint256",
          "name": "",
          "type": "uint256"
        }
      ],
      "stateMutability": "view",
      "type": "function"
    },
    {
      "inputs": [
        {
          "internalType": "address",
          "name": "",
          "type": "address"
        },
        {
          "internalType": "uint256",
          "name": "",
          "type": "uint256"
        }
      ],
      "name": "providerMedNames",
      "outputs": [
        {
          "internalType": "string",
          "name": "",
          "type": "string"
        }
      ],
      "stateMutability": "view",
      "type": "function"
    },
    {
      "inputs": [
        {
          "internalType": "uint256",
          "name": "",
          "type": "uint256"
        }
      ],
      "name": "providerOrders",
      "outputs": [
        {
          "internalType": "string",
          "name": "medName",
          "type": "string"
        },
        {
          "internalType": "uint256",
          "name": "quantity",
          "type": "uint256"
        },
        {
          "internalType": "uint256",
          "name": "orderId",
          "type": "uint256"
        },
        {
          "internalType": "uint256",
          "name": "batchId",
          "type": "uint256"
        },
        {
          "internalType": "address",
          "name": "provider",
          "type": "address"
        },
        {
          "internalType": "address",
          "name": "distributor",
          "type": "address"
        },
        {
          "internalType": "bool",
          "name": "isAssigned",
          "type": "bool"
        },
        {
          "internalType": "uint256",
          "name": "orderDate",
          "type": "uint256"
        },
        {
          "internalType": "uint256",
          "name": "orderApprovedDate",
          "type": "uint256"
        },
        {
          "internalType": "enum PharmaChain.OrderStatus",
          "name": "status",
          "type": "uint8"
        }
      ],
      "stateMutability": "view",
      "type": "function"
    },
    {
      "inputs": [
        {
          "internalType": "address",
          "name": "",
          "type": "address"
        },
        {
          "internalType": "string",
          "name": "",
          "type": "string"
        }
      ],
      "name": "providerStocks",
      "outputs": [
        {
          "internalType": "uint256",
          "name": "",
          "type": "uint256"
        }
      ],
      "stateMutability": "view",
      "type": "function"
    },
    {
      "inputs": [
        {
          "internalType": "uint256",
          "name": "_batchId",
          "type": "uint256"
        }
      ],
      "name": "recallBatch",
      "outputs": [],
      "stateMutability": "nonpayable",
      "type": "function"
    },
    {
      "inputs": [
        {
          "internalType": "address",
          "name": "_user",
          "type": "address"
        },
        {
          "internalType": "string",
          "name": "_companyName",
          "type": "string"
        },
        {
          "internalType": "enum PharmaChain.Role",
          "name": "_role",
          "type": "uint8"
        },
        {
          "internalType": "string",
          "name": "_contactInfo",
          "type": "string"
        }
      ],
      "name": "registerUser",
      "outputs": [],
      "stateMutability": "nonpayable",
      "type": "function"
    },
    {
      "inputs": [
        {
          "internalType": "uint256",
          "name": "_orderId",
          "type": "uint256"
        },
        {
          "internalType": "enum PharmaChain.OrderStatus",
          "name": "_status",
          "type": "uint8"
        }
      ],
      "name": "updateDistributorOrderStatus",
      "outputs": [],
      "stateMutability": "nonpayable",
      "type": "function"
    },
    {
      "inputs": [
        {
          "internalType": "address",
          "name": "",
          "type": "address"
        }
      ],
      "name": "users",
      "outputs": [
        {
          "internalType": "address",
          "name": "account",
          "type": "address"
        },
        {
          "internalType": "string",
          "name": "companyName",
          "type": "string"
        },
        {
          "internalType": "enum PharmaChain.Role",
          "name": "role",
          "type": "uint8"
        },
        {
          "internalType": "string",
          "name": "contactInfo",
          "type": "string"
        }
      ],
      "stateMutability": "view",
      "type": "function"
    }
  ],
  "bytecode": "0x6080604052606460085560646009556064600a5534801561001f57600080fd5b5061452a8061002f6000396000f3fe608060405234801561001057600080fd5b506004361061021c5760003560e01c806383e9f8bf11610125578063ced27743116100ad578063dd185a091161007c578063dd185a0914610574578063e3c6e07e14610587578063f1bd14ad1461059a578063f212d6d9146105d6578063fa4b47a3146105e957600080fd5b8063ced2774314610525578063d0aeb53714610538578063d38622381461054b578063d56f40dd1461055457600080fd5b806395c53d49116100f457806395c53d491461049e578063a6e162b4146104b1578063a87430ba146104c4578063b32c4d8d146104e7578063b616e1841461051257600080fd5b806383e9f8bf146104645780638429bcf7146104845780638462a7f81461048d57806387f95fa81461049657600080fd5b806344dfc5f8116101a8578063642c971911610177578063642c9719146103c157806369c212f6146103d45780636ae25d98146103f45780636c6eb5cd1461043e57806376c386061461045157600080fd5b806344dfc5f8146103505780634a746b7b146103635780634e4b18fb146103765780636386c1c71461039f57600080fd5b806327820851116101ef57806327820851146102b95780632d703d73146102f55780633019f58e146103155780633d28a3011461032a57806343deec2e1461033d57600080fd5b8063163f7522146102215780631c5a3a53146102645780631d8abc8f146102845780632615457b14610299575b600080fd5b61024f61022f36600461381d565b6001600160a01b0390811660009081526020819052604090205416151590565b60405190151581526020015b60405180910390f35b61027761027236600461381d565b6105fc565b60405161025b9190613888565b61028c6107c7565b60405161025b91906139d4565b6102ac6102a736600461381d565b610a16565b60405161025b9190613a38565b6102e86102c736600461381d565b6001600160a01b031660009081526020819052604090206002015460ff1690565b60405161025b9190613a9f565b61030861030336600461381d565b610c6e565b60405161025b9190613ab3565b610328610323366004613ba8565b610ebc565b005b610328610338366004613c76565b6113f1565b61032861034b366004613d02565b611548565b61032861035e366004613d55565b6117ec565b61027761037136600461381d565b6118f0565b610389610384366004613d55565b611ab3565b60405161025b9a99989796959493929190613d6e565b6103b26103ad36600461381d565b611b9f565b60405161025b93929190613de1565b6103086103cf36600461381d565b611d4d565b6103e76103e236600461381d565b611ff3565b60405161025b9190613e1e565b610430610402366004613e85565b6005602090815260009283526040909220815180830184018051928152908401929093019190912091525481565b60405190815260200161025b565b61032861044c366004613ed2565b6121a5565b61032861045f366004613f16565b612350565b61047761047236600461381d565b61256a565b60405161025b9190613f4a565b61043060095481565b61043060085481565b6102ac612619565b6103896104ac366004613d55565b612908565b6103286104bf366004613d55565b612923565b6104d76104d236600461381d565b612a27565b60405161025b9493929190613f5d565b6104fa6104f5366004613d55565b612b73565b60405161025b9c9b9a99989796959493929190613fab565b610328610520366004613d55565b612c6f565b61028c61053336600461381d565b612d77565b610477610546366004614020565b612fc5565b610430600a5481565b610567610562366004613d55565b61307e565b60405161025b919061404a565b610567610582366004613d55565b61321f565b610477610595366004614020565b613280565b6104306105a8366004613e85565b6004602090815260009283526040909220815180830184018051928152908401929093019190912091525481565b6103286105e4366004613ed2565b61329c565b6103286105f736600461405d565b613385565b6001600160a01b038116600090815260076020526040812054606091816001600160401b0381111561063057610630613bd4565b60405190808252806020026020018201604052801561067657816020015b60408051808201909152606081526000602082015281526020019060019003908161064e5790505b50905060005b828110156107bf576001600160a01b03851660009081526007602052604081208054839081106106ae576106ae614092565b9060005260206000200180546106c3906140a8565b80601f01602080910402602001604051908101604052809291908181526020018280546106ef906140a8565b801561073c5780601f106107115761010080835404028352916020019161073c565b820191906000526020600020905b81548152906001019060200180831161071f57829003601f168201915b50505050509050604051806040016040528082815260200160056000896001600160a01b03166001600160a01b031681526020019081526020016000208360405161078791906140e2565b9081526020016040518091039020548152508383815181106107ab576107ab614092565b60209081029190910101525060010161067c565b509392505050565b6060600060645b60095481101561080e57600081815260026020526040902060050154600160a01b900460ff16610806578161080281614114565b9250505b6001016107ce565b506000816001600160401b0381111561082957610829613bd4565b60405190808252806020026020018201604052801561086257816020015b61084f61370e565b8152602001906001900390816108475790505b509050600060645b600954811015610a0d57600081815260026020526040902060050154600160a01b900460ff16610a055760008181526002602052604090819020815161014081019092528054829082906108bd906140a8565b80601f01602080910402602001604051908101604052809291908181526020018280546108e9906140a8565b80156109365780601f1061090b57610100808354040283529160200191610936565b820191906000526020600020905b81548152906001019060200180831161091957829003601f168201915b50505091835250506001820154602082015260028201546040820152600382015460608201526004808301546001600160a01b039081166080840152600584015490811660a084015260ff600160a01b9091048116151560c0840152600684015460e0840152600784015461010084015260088401546101209093019216908111156109c4576109c4613900565b60048111156109d5576109d5613900565b815250508383815181106109eb576109eb614092565b60200260200101819052508180610a0190614114565b9250505b60010161086a565b50909392505050565b6060600060645b600a54811015610a61576000818152600360205260409020600401546001600160a01b03808616911603610a595781610a5581614114565b9250505b600101610a1d565b506000816001600160401b03811115610a7c57610a7c613bd4565b604051908082528060200260200182016040528015610ab557816020015b610aa261370e565b815260200190600190039081610a9a5790505b509050600060645b600a54811015610c64576000818152600360205260409020600401546001600160a01b03808816911603610c5c576000818152600360205260409081902081516101408101909252805482908290610b14906140a8565b80601f0160208091040260200160405190810160405280929190818152602001828054610b40906140a8565b8015610b8d5780601f10610b6257610100808354040283529160200191610b8d565b820191906000526020600020905b815481529060010190602001808311610b7057829003601f168201915b50505091835250506001820154602082015260028201546040820152600382015460608201526004808301546001600160a01b039081166080840152600584015490811660a084015260ff600160a01b9091048116151560c0840152600684015460e084015260078401546101008401526008840154610120909301921690811115610c1b57610c1b613900565b6004811115610c2c57610c2c613900565b81525050838381518110610c4257610c42614092565b60200260200101819052508180610c5890614114565b9250505b600101610abd565b5090949350505050565b6060600060645b600854811015610cba57600081815260016020819052604090912001546001600160a01b03808616911603610cb25781610cae81614114565b9250505b600101610c75565b506000816001600160401b03811115610cd557610cd5613bd4565b604051908082528060200260200182016040528015610d0e57816020015b610cfb613785565b815260200190600190039081610cf35790505b509050600060645b600854811015610c6457600081815260016020819052604090912001546001600160a01b03808816911603610eb45760008181526001602081815260409283902083516101808101855281548152928101546001600160a01b0316918301919091526002810180549293919291840191610d8f906140a8565b80601f0160208091040260200160405190810160405280929190818152602001828054610dbb906140a8565b8015610e085780601f10610ddd57610100808354040283529160200191610e08565b820191906000526020600020905b815481529060010190602001808311610deb57829003601f168201915b5050509183525050600382015460ff80821615156020840152610100808304821615156040850152620100009092046001600160a01b0316606084015260048401546080840152600584015416151560a0830152600683015460c0830152600783015460e0830152600883015490820152600990910154610120909101528351849084908110610e9a57610e9a614092565b60200260200101819052508180610eb090614114565b9250505b600101610d16565b600133600090815260208190526040902060029081015460ff1690811115610ee657610ee6613900565b14610f0c5760405162461bcd60e51b8152600401610f039061412d565b60405180910390fd5b6001600160a01b038116600090815260208190526040902060029081015460ff1681811115610f3d57610f3d613900565b14610f7d5760405162461bcd60e51b815260206004820152601060248201526f24b73b30b634b210383937bb34b232b960811b6044820152606401610f03565b600082815260016020526040902060038101546201000090046001600160a01b031633146110095760405162461bcd60e51b815260206004820152603360248201527f4f6e6c79207468652061737369676e6564206469737472696275746f722063616044820152720dc40c2e6e6d2cedc40e8d0d2e640c4c2e8c6d606b1b6064820152608401610f03565b600381015460ff1661105d5760405162461bcd60e51b815260206004820152601e60248201527f4261746368206d757374206265207175616c69747920617070726f76656400006044820152606401610f03565b600581015460ff16156110b25760405162461bcd60e51b815260206004820152601760248201527f426174636820686173206265656e20726563616c6c65640000000000000000006044820152606401610f03565b60006040518061014001604052808360020180546110cf906140a8565b80601f01602080910402602001604051908101604052809291908181526020018280546110fb906140a8565b80156111485780601f1061111d57610100808354040283529160200191611148565b820191906000526020600020905b81548152906001019060200180831161112b57829003601f168201915b5050505050815260200183600801548152602001600a600081548092919061116f90614114565b909155508152602081018690526001600160a01b0385166040820152336060820152600160808201524260a0820181905260c082015260e0016002905260408082015160009081526003602052208151919250829181906111d090826141c6565b50602082015160018281019190915560408301516002830155606083015160038301556080830151600480840180546001600160a01b0319166001600160a01b0393841617905560a085015160058501805460c0880151929094166001600160a81b031990941693909317600160a01b911515919091021790915560e0840151600684015561010084015160078401556101208401516008840180549193909260ff1990921691849081111561128857611288613900565b0217905550505060088201546001600160a01b0384166000908152600560205260409081902090516112be9060028601906142f8565b908152602001604051809103902060008282546112db9190614304565b9250508190555061137a838360020180546112f5906140a8565b80601f0160208091040260200160405190810160405280929190818152602001828054611321906140a8565b801561136e5780601f106113435761010080835404028352916020019161136e565b820191906000526020600020905b81548152906001019060200180831161135157829003601f168201915b50505050506000613663565b6113b5576001600160a01b0383166000908152600760209081526040822080546001810182559083529120016113b36002840182614317565b505b6040516001600160a01b0384169085907fd2d34b0374faae0161dcf8f0bb3a65abd5d19a9464ea5777ab1a5ee6a694560a90600090a350505050565b6001600160a01b0384166114395760405162461bcd60e51b815260206004820152600f60248201526e496e76616c6964206164647265737360881b6044820152606401610f03565b6040518060800160405280856001600160a01b0316815260200184815260200183600281111561146b5761146b613900565b815260209081018390526001600160a01b03868116600090815280835260409020835181546001600160a01b03191692169190911781559082015160018201906114b590826141c6565b5060408201518160020160006101000a81548160ff021916908360028111156114e0576114e0613900565b0217905550606082015160038201906114f990826141c6565b50905050836001600160a01b03167f3a403922431a43cbc3d929f1b03869ffadab7bce01402822980e72e6ea8e9d9184848460405161153a939291906143f1565b60405180910390a250505050565b33600090815260208190526040812060029081015460ff169081111561157057611570613900565b1461158d5760405162461bcd60e51b8152600401610f039061442d565b600880546000918261159e83614114565b9190505590504283116115fd5760405162461bcd60e51b815260206004820152602160248201527f4578706972792064617465206d75737420626520696e207468652066757475726044820152606560f81b6064820152608401610f03565b600082116116585760405162461bcd60e51b815260206004820152602260248201527f5175616e74697479206d7573742062652067726561746572207468616e207a65604482015261726f60f01b6064820152608401610f03565b60408051610180810182528281523360208083019182528284018981526000606085018190526080850181905260a0850181905260c085018a905260e08501819052426101008601526101208501899052610140850188905261016085018190528681526001928390529490942083518155915190820180546001600160a01b0319166001600160a01b039092169190911790559151909190600282019061170090826141c6565b506060820151600382018054608085015160a086015161ffff1990921693151561ff0019169390931761010093151584021762010000600160b01b031916620100006001600160a01b039092169190910217905560c0830151600483015560e083015160058301805460ff191691151591909117905582015160068201556101208201516007820155610140820151600882015561016090910151600990910155604051339082907fbee34f0ca0c0edfc2bd967468f81e100292d859329be491cc44c4ec390c65fac906117dd908990899042908a908a90614477565b60405180910390a35050505050565b33600090815260208190526040812060029081015460ff169081111561181457611814613900565b146118315760405162461bcd60e51b8152600401610f039061442d565b6000818152600160208190526040909120908101546001600160a01b031633146118af5760405162461bcd60e51b815260206004820152602960248201527f4f6e6c7920746865206d616e7566616374757265722063616e20617070726f7660448201526865207175616c69747960b81b6064820152608401610f03565b60038101805461ffff19166001179055604051339083907f08d6065569e454b48393f44317518d1282971813504b4d323942afba2f7a2c5d90600090a35050565b6001600160a01b038116600090815260066020526040812054606091816001600160401b0381111561192457611924613bd4565b60405190808252806020026020018201604052801561196a57816020015b6040805180820190915260608152600060208201528152602001906001900390816119425790505b50905060005b828110156107bf576001600160a01b03851660009081526006602052604081208054839081106119a2576119a2614092565b9060005260206000200180546119b7906140a8565b80601f01602080910402602001604051908101604052809291908181526020018280546119e3906140a8565b8015611a305780601f10611a0557610100808354040283529160200191611a30565b820191906000526020600020905b815481529060010190602001808311611a1357829003601f168201915b50505050509050604051806040016040528082815260200160046000896001600160a01b03166001600160a01b0316815260200190815260200160002083604051611a7b91906140e2565b908152602001604051809103902054815250838381518110611a9f57611a9f614092565b602090810291909101015250600101611970565b600260205260009081526040902080548190611ace906140a8565b80601f0160208091040260200160405190810160405280929190818152602001828054611afa906140a8565b8015611b475780601f10611b1c57610100808354040283529160200191611b47565b820191906000526020600020905b815481529060010190602001808311611b2a57829003601f168201915b5050505060018301546002840154600385015460048601546005870154600688015460078901546008909901549798959794965092946001600160a01b039283169492821693600160a01b90920460ff90811693168a565b6001600160a01b038082166000908152602081815260408083208151608081019092528054909416815260018401805460609586959485949391929084019190611be8906140a8565b80601f0160208091040260200160405190810160405280929190818152602001828054611c14906140a8565b8015611c615780601f10611c3657610100808354040283529160200191611c61565b820191906000526020600020905b815481529060010190602001808311611c4457829003601f168201915b505050918352505060028281015460209092019160ff1690811115611c8857611c88613900565b6002811115611c9957611c99613900565b8152602001600382018054611cad906140a8565b80601f0160208091040260200160405190810160405280929190818152602001828054611cd9906140a8565b8015611d265780601f10611cfb57610100808354040283529160200191611d26565b820191906000526020600020905b815481529060010190602001808311611d0957829003601f168201915b50505091909252505050602081015160608201516040909201519097919650945092505050565b6060600060645b600854811015611dc557600081815260016020819052604090912001546001600160a01b038581169116148015611daa57506000818152600160205260409020600301546201000090046001600160a01b031615155b15611dbd5781611db981614114565b9250505b600101611d54565b506000816001600160401b03811115611de057611de0613bd4565b604051908082528060200260200182016040528015611e1957816020015b611e06613785565b815260200190600190039081611dfe5790505b509050600060645b600854811015610c6457600081815260016020819052604090912001546001600160a01b038781169116148015611e7757506000818152600160205260409020600301546201000090046001600160a01b031615155b15611feb5760008181526001602081815260409283902083516101808101855281548152928101546001600160a01b0316918301919091526002810180549293919291840191611ec6906140a8565b80601f0160208091040260200160405190810160405280929190818152602001828054611ef2906140a8565b8015611f3f5780601f10611f1457610100808354040283529160200191611f3f565b820191906000526020600020905b815481529060010190602001808311611f2257829003601f168201915b5050509183525050600382015460ff80821615156020840152610100808304821615156040850152620100009092046001600160a01b0316606084015260048401546080840152600584015416151560a0830152600683015460c0830152600783015460e0830152600883015490820152600990910154610120909101528351849084908110611fd157611fd1614092565b60200260200101819052508180611fe790614114565b9250505b600101611e21565b60408051608081018252600080825260606020830181905292820152818101919091526001600160a01b03808316600090815260208181526040918290208251608081019093528054909316825260018301805492939291840191612057906140a8565b80601f0160208091040260200160405190810160405280929190818152602001828054612083906140a8565b80156120d05780601f106120a5576101008083540402835291602001916120d0565b820191906000526020600020905b8154815290600101906020018083116120b357829003601f168201915b505050918352505060028281015460209092019160ff16908111156120f7576120f7613900565b600281111561210857612108613900565b815260200160038201805461211c906140a8565b80601f0160208091040260200160405190810160405280929190818152602001828054612148906140a8565b80156121955780601f1061216a57610100808354040283529160200191612195565b820191906000526020600020905b81548152906001019060200180831161217857829003601f168201915b5050505050815250509050919050565b33600090815260208190526040902060029081015460ff16818111156121cd576121cd613900565b146121ea5760405162461bcd60e51b8152600401610f03906144ae565b600a8054600091826121fb83614114565b91905055905060405180610140016040528084815260200183815260200182815260200160008152602001336001600160a01b0316815260200160006001600160a01b03168152602001600015158152602001428152602001600081526020016000600481111561226e5761226e613900565b905260008281526003602052604090208151819061228c90826141c6565b50602082015160018281019190915560408301516002830155606083015160038301556080830151600480840180546001600160a01b0319166001600160a01b0393841617905560a085015160058501805460c0880151929094166001600160a81b031990941693909317600160a01b911515919091021790915560e0840151600684015561010084015160078401556101208401516008840180549193909260ff1990921691849081111561234457612344613900565b02179055505050505050565b600133600090815260208190526040902060029081015460ff169081111561237a5761237a613900565b146123975760405162461bcd60e51b8152600401610f039061412d565b600082815260026020526040902060048101546001600160a01b0316331461241a5760405162461bcd60e51b815260206004820152603060248201527f4f6e6c7920746865206469737472696275746f722063616e207570646174652060448201526f746865206f726465722073746174757360801b6064820152608401610f03565b60088101805483919060ff1916600183600481111561243b5761243b613900565b0217905550600382600481111561245457612454613900565b036125655760018101543360009081526004602052604090819020905161247c9084906142f8565b908152602001604051809103902060008282546124999190614304565b9091555050805461253690339083906124b1906140a8565b80601f01602080910402602001604051908101604052809291908181526020018280546124dd906140a8565b801561252a5780601f106124ff5761010080835404028352916020019161252a565b820191906000526020600020905b81548152906001019060200180831161250d57829003601f168201915b50505050506001613663565b61256557336000908152600660209081526040822080546001810182559083529120016125638282614317565b505b505050565b6001600160a01b0381166000908152602081905260409020600101805460609190612594906140a8565b80601f01602080910402602001604051908101604052809291908181526020018280546125c0906140a8565b801561260d5780601f106125e25761010080835404028352916020019161260d565b820191906000526020600020905b8154815290600101906020018083116125f057829003601f168201915b50505050509050919050565b6060600233600090815260208190526040902060029081015460ff169081111561264557612645613900565b146126625760405162461bcd60e51b8152600401610f03906144ae565b600060645b600a548110156126d8576000818152600360205260409020600401546001600160a01b0316331480156126bd575060008181526003602052604081206008015460ff1660048111156126bb576126bb613900565b145b156126d057816126cc81614114565b9250505b600101612667565b506000816001600160401b038111156126f3576126f3613bd4565b60405190808252806020026020018201604052801561272c57816020015b61271961370e565b8152602001906001900390816127115790505b509050600060645b600a54811015610a0d576000818152600360205260409020600401546001600160a01b03163314801561278a575060008181526003602052604081206008015460ff16600481111561278857612788613900565b145b156129005760008181526003602052604090819020815161014081019092528054829082906127b8906140a8565b80601f01602080910402602001604051908101604052809291908181526020018280546127e4906140a8565b80156128315780601f1061280657610100808354040283529160200191612831565b820191906000526020600020905b81548152906001019060200180831161281457829003601f168201915b50505091835250506001820154602082015260028201546040820152600382015460608201526004808301546001600160a01b039081166080840152600584015490811660a084015260ff600160a01b9091048116151560c0840152600684015460e0840152600784015461010084015260088401546101209093019216908111156128bf576128bf613900565b60048111156128d0576128d0613900565b815250508383815181106128e6576128e6614092565b602002602001018190525081806128fc90614114565b9250505b600101612734565b600360205260009081526040902080548190611ace906140a8565b33600090815260208190526040812060029081015460ff169081111561294b5761294b613900565b146129685760405162461bcd60e51b8152600401610f039061442d565b6000818152600160208190526040909120908101546001600160a01b031633146129e75760405162461bcd60e51b815260206004820152602a60248201527f4f6e6c7920746865206d616e7566616374757265722063616e20726563616c6c604482015269040e8d0ca40c4c2e8c6d60b31b6064820152608401610f03565b60058101805460ff19166001179055604051339083907f5a41088291f050dab11b8aeaaeaa8fd33f2225751a5d64008f812e0362ef472590600090a35050565b600060208190529081526040902080546001820180546001600160a01b039092169291612a53906140a8565b80601f0160208091040260200160405190810160405280929190818152602001828054612a7f906140a8565b8015612acc5780601f10612aa157610100808354040283529160200191612acc565b820191906000526020600020905b815481529060010190602001808311612aaf57829003601f168201915b5050506002840154600385018054949560ff909216949193509150612af0906140a8565b80601f0160208091040260200160405190810160405280929190818152602001828054612b1c906140a8565b8015612b695780601f10612b3e57610100808354040283529160200191612b69565b820191906000526020600020905b815481529060010190602001808311612b4c57829003601f168201915b5050505050905084565b60016020819052600091825260409091208054918101546002820180546001600160a01b039092169291612ba6906140a8565b80601f0160208091040260200160405190810160405280929190818152602001828054612bd2906140a8565b8015612c1f5780601f10612bf457610100808354040283529160200191612c1f565b820191906000526020600020905b815481529060010190602001808311612c0257829003601f168201915b50505050600383015460048401546005850154600686015460078701546008880154600990980154969760ff80871698610100880482169850620100009097046001600160a01b0316969416938c565b33600090815260208190526040812060029081015460ff1690811115612c9757612c97613900565b14612cb45760405162461bcd60e51b8152600401610f039061442d565b6000818152600160208190526040909120908101546001600160a01b03163314612d355760405162461bcd60e51b815260206004820152602c60248201527f4f6e6c7920746865206d616e7566616374757265722063616e2064697361707060448201526b726f7665207175616c69747960a01b6064820152608401610f03565b60038101805461ffff1916610100179055604051339083907fc8c94276e66e72c265ff6c7a450b182f9910586a93051227e6024c1fbceaa88e90600090a35050565b6060600060645b600954811015612dc2576000818152600260205260409020600401546001600160a01b03808616911603612dba5781612db681614114565b9250505b600101612d7e565b506000816001600160401b03811115612ddd57612ddd613bd4565b604051908082528060200260200182016040528015612e1657816020015b612e0361370e565b815260200190600190039081612dfb5790505b509050600060645b600954811015610c64576000818152600260205260409020600401546001600160a01b03808816911603612fbd576000818152600260205260409081902081516101408101909252805482908290612e75906140a8565b80601f0160208091040260200160405190810160405280929190818152602001828054612ea1906140a8565b8015612eee5780601f10612ec357610100808354040283529160200191612eee565b820191906000526020600020905b815481529060010190602001808311612ed157829003601f168201915b50505091835250506001820154602082015260028201546040820152600382015460608201526004808301546001600160a01b039081166080840152600584015490811660a084015260ff600160a01b9091048116151560c0840152600684015460e084015260078401546101008401526008840154610120909301921690811115612f7c57612f7c613900565b6004811115612f8d57612f8d613900565b81525050838381518110612fa357612fa3614092565b60200260200101819052508180612fb990614114565b9250505b600101612e1e565b60076020528160005260406000208181548110612fe157600080fd5b90600052602060002001600091509150508054612ffd906140a8565b80601f0160208091040260200160405190810160405280929190818152602001828054613029906140a8565b80156130765780601f1061304b57610100808354040283529160200191613076565b820191906000526020600020905b81548152906001019060200180831161305957829003601f168201915b505050505081565b61308661370e565b60008281526002602081905260408220908101549091036130e05760405162461bcd60e51b815260206004820152601460248201527313dc99195c88191bd95cc81b9bdd08195e1a5cdd60621b6044820152606401610f03565b80604051806101400160405290816000820180546130fd906140a8565b80601f0160208091040260200160405190810160405280929190818152602001828054613129906140a8565b80156131765780601f1061314b57610100808354040283529160200191613176565b820191906000526020600020905b81548152906001019060200180831161315957829003601f168201915b50505091835250506001820154602082015260028201546040820152600382015460608201526004808301546001600160a01b039081166080840152600584015490811660a084015260ff600160a01b9091048116151560c0840152600684015460e08401526007840154610100840152600884015461012090930192169081111561320457613204613900565b600481111561321557613215613900565b9052509392505050565b61322761370e565b600082815260036020526040812060028101549091036130e05760405162461bcd60e51b815260206004820152601460248201527313dc99195c88191bd95cc81b9bdd08195e1a5cdd60621b6044820152606401610f03565b60066020528160005260406000208181548110612fe157600080fd5b600133600090815260208190526040902060029081015460ff16908111156132c6576132c6613900565b146132e35760405162461bcd60e51b8152600401610f039061412d565b60098054600091826132f483614114565b91905055905060405180610140016040528084815260200183815260200182815260200160008152602001336001600160a01b0316815260200160006001600160a01b03168152602001600015158152602001428152602001600081526020016000600481111561336757613367613900565b905260008281526002602052604090208151819061228c90826141c6565b33600090815260208190526040812060029081015460ff16908111156133ad576133ad613900565b146133ca5760405162461bcd60e51b8152600401610f039061442d565b60016001600160a01b038316600090815260208190526040902060029081015460ff16908111156133fd576133fd613900565b146134405760405162461bcd60e51b815260206004820152601360248201527224b73b30b634b2103234b9ba3934b13aba37b960691b6044820152606401610f03565b6000838152600160205260409020600381015460ff166134a25760405162461bcd60e51b815260206004820152601e60248201527f4261746368206d757374206265207175616c69747920617070726f76656400006044820152606401610f03565b60038101546201000090046001600160a01b0316156134fc5760405162461bcd60e51b815260206004820152601660248201527510985d18da08185b1c9958591e48185cdcda59db995960521b6044820152606401610f03565b60008281526002602052604090206003810154156135685760405162461bcd60e51b8152602060048201526024808201527f4f7264657220697320616c72656164792061737369676e656420746f206120626044820152630c2e8c6d60e31b6064820152608401610f03565b8160080154816001015411156135ce5760405162461bcd60e51b815260206004820152602560248201527f4f72646572207175616e746974792065786365656473206261746368207175616044820152646e7469747960d81b6064820152608401610f03565b6003828101805462010000600160b01b031916620100006001600160a01b0388169081029190911790915560098401859055908201869055600582018054336001600160a01b031990911617905560088201805460ff1916600217905542600783015560405186907f8e6804b2e7bfb70fb26b5bbf7a87382c43918cd5fd77219d8846c3c4f302ad0a90600090a35050505050565b60008082613688576001600160a01b03851660009081526007602052604090206136a1565b6001600160a01b03851660009081526006602052604090205b905060005b81548110156137005784805190602001208282815481106136c9576136c9614092565b906000526020600020016040516136e091906142f8565b6040518091039020036136f857600192505050613707565b6001016136a6565b5060009150505b9392505050565b6040518061014001604052806060815260200160008152602001600081526020016000815260200160006001600160a01b0316815260200160006001600160a01b0316815260200160001515815260200160008152602001600081526020016000600481111561378057613780613900565b905290565b6040518061018001604052806000815260200160006001600160a01b031681526020016060815260200160001515815260200160001515815260200160006001600160a01b0316815260200160008019168152602001600015158152602001600081526020016000815260200160008152602001600081525090565b80356001600160a01b038116811461381857600080fd5b919050565b60006020828403121561382f57600080fd5b61370782613801565b60005b8381101561385357818101518382015260200161383b565b50506000910152565b60008151808452613874816020860160208601613838565b601f01601f19169290920160200192915050565b600060208083018184528085518083526040925060408601915060408160051b87010184880160005b838110156138f257888303603f19018552815180518785526138d58886018261385c565b9189015194890194909452948701949250908601906001016138b1565b509098975050505050505050565b634e487b7160e01b600052602160045260246000fd5b6005811061392657613926613900565b9052565b600061014082518185526139408286018261385c565b915050602083015160208501526040830151604085015260608301516060850152608083015161397b60808601826001600160a01b03169052565b5060a083015161399660a08601826001600160a01b03169052565b5060c08301516139aa60c086018215159052565b5060e083015160e085015261010080840151818601525061012080840151610c6482870182613916565b600060208083016020845280855180835260408601915060408160051b87010192506020870160005b82811015613a2b57603f19888603018452613a1985835161392a565b945092850192908501906001016139fd565b5092979650505050505050565b600060208083016020845280855180835260408601915060408160051b87010192506020870160005b82811015613a2b57603f19888603018452613a7d85835161392a565b94509285019290850190600101613a61565b6003811061392657613926613900565b60208101613aad8284613a8f565b92915050565b600060208083018184528085518083526040925060408601915060408160051b87010184880160005b838110156138f257603f19898403018552815180518452878101516001600160a01b0316888501528681015161018088860181905290613b1e8287018261385c565b915050606080830151613b348288018215159052565b505060808281015115159086015260a0808301516001600160a01b03169086015260c0808301519086015260e0808301511515908601526101008083015190860152610120808301519086015261014080830151908601526101609182015191909401529386019390860190600101613adc565b60008060408385031215613bbb57600080fd5b82359150613bcb60208401613801565b90509250929050565b634e487b7160e01b600052604160045260246000fd5b600082601f830112613bfb57600080fd5b81356001600160401b0380821115613c1557613c15613bd4565b604051601f8301601f19908116603f01168101908282118183101715613c3d57613c3d613bd4565b81604052838152866020858801011115613c5657600080fd5b836020870160208301376000602085830101528094505050505092915050565b60008060008060808587031215613c8c57600080fd5b613c9585613801565b935060208501356001600160401b0380821115613cb157600080fd5b613cbd88838901613bea565b94506040870135915060038210613cd357600080fd5b90925060608601359080821115613ce957600080fd5b50613cf687828801613bea565b91505092959194509250565b60008060008060808587031215613d1857600080fd5b84356001600160401b03811115613d2e57600080fd5b613d3a87828801613bea565b97602087013597506040870135966060013595509350505050565b600060208284031215613d6757600080fd5b5035919050565b6000610140808352613d828184018e61385c565b9150508a602083015289604083015288606083015260018060a01b03808916608084015280881660a08401525085151560c08301528460e083015283610100830152613dd2610120830184613916565b9b9a5050505050505050505050565b606081526000613df4606083018661385c565b8281036020840152613e06818661385c565b915050613e166040830184613a8f565b949350505050565b602080825282516001600160a01b03168282015282015160806040830152600090613e4c60a084018261385c565b90506040840151613e606060850182613a8f565b506060840151838203601f19016080850152613e7c828261385c565b95945050505050565b60008060408385031215613e9857600080fd5b613ea183613801565b915060208301356001600160401b03811115613ebc57600080fd5b613ec885828601613bea565b9150509250929050565b60008060408385031215613ee557600080fd5b82356001600160401b03811115613efb57600080fd5b613f0785828601613bea565b95602094909401359450505050565b60008060408385031215613f2957600080fd5b82359150602083013560058110613f3f57600080fd5b809150509250929050565b602081526000613707602083018461385c565b6001600160a01b0385168152608060208201819052600090613f819083018661385c565b613f8e6040840186613a8f565b8281036060840152613fa0818561385c565b979650505050505050565b8c81526001600160a01b038c8116602083015261018060408301819052600091613fd78483018f61385c565b9c151560608501529a1515608084015250509690971660a087015260c086019490945291151560e085015261010084015261012083015261014082015261016001529392505050565b6000806040838503121561403357600080fd5b61403c83613801565b946020939093013593505050565b602081526000613707602083018461392a565b60008060006060848603121561407257600080fd5b8335925061408260208501613801565b9150604084013590509250925092565b634e487b7160e01b600052603260045260246000fd5b600181811c908216806140bc57607f821691505b6020821081036140dc57634e487b7160e01b600052602260045260246000fd5b50919050565b600082516140f4818460208701613838565b9190910192915050565b634e487b7160e01b600052601160045260246000fd5b600060018201614126576141266140fe565b5060010190565b60208082526029908201527f4f6e6c79206469737472696275746f72732063616e20706572666f726d20746860408201526834b99030b1ba34b7b760b91b606082015260800190565b601f821115612565576000816000526020600020601f850160051c8101602086101561419f5750805b601f850160051c820191505b818110156141be578281556001016141ab565b505050505050565b81516001600160401b038111156141df576141df613bd4565b6141f3816141ed84546140a8565b84614176565b602080601f83116001811461422857600084156142105750858301515b600019600386901b1c1916600185901b1785556141be565b600085815260208120601f198616915b8281101561425757888601518255948401946001909101908401614238565b50858210156142755787850151600019600388901b60f8161c191681555b5050505050600190811b01905550565b60008154614292816140a8565b600182811680156142aa57600181146142bf576142ee565b60ff19841687528215158302870194506142ee565b8560005260208060002060005b858110156142e55781548a8201529084019082016142cc565b50505082870194505b5050505092915050565b60006137078284614285565b80820180821115613aad57613aad6140fe565b818103614322575050565b61432c82546140a8565b6001600160401b0381111561434357614343613bd4565b614351816141ed84546140a8565b6000601f821160018114614385576000831561436d5750848201545b600019600385901b1c1916600184901b1784556143ea565b600085815260209020601f19841690600086815260209020845b838110156143bf578286015482556001958601959091019060200161439f565b50858310156143dd5781850154600019600388901b60f8161c191681555b50505060018360011b0184555b5050505050565b606081526000614404606083018661385c565b6144116020840186613a8f565b8281036040840152614423818561385c565b9695505050505050565b6020808252602a908201527f4f6e6c79206d616e756661637475726572732063616e20706572666f726d20746040820152693434b99030b1ba34b7b760b11b606082015260800190565b60a08152600061448a60a083018861385c565b90508560208301528460408301528360608301528260808301529695505050505050565b60208082526026908201527f4f6e6c792070726f7669646572732063616e20706572666f726d20746869732060408201526530b1ba34b7b760d11b60608201526080019056fea2646970667358221220bed1e4faa7812a5fc9f8c37d50c1a4a2abd3fff31a35cee4b1928563a34da3c264736f6c63430008180033",
  "linkReferences": {},
  "deployedLinkReferences": {}
}