{
  "_format": "hh-sol-artifact-1",
  "contractName": "PharmaChain",
  "sourceName": "contracts/PharmaChain.sol",
  "abi": [
    {
      "anonymous": false,
      "inputs": [
        {
          "indexed": true,
          "internalType": "uint256",
          "name": "batchId",
          "type": "uint256"
        },
        {
          "indexed": true,
          "internalType": "address",
          "name": "distributor",
          "type": "address"
        }
      ],
      "name": "BatchAssignedToDistributor",
      "type": "event"
    },
    {
      "anonymous": false,
      "inputs": [
        {
          "indexed": true,
          "internalType": "uint256",
          "name": "batchId",
          "type": "uint256"
        },
        {
          "indexed": true,
          "internalType": "address",
          "name": "manufacturer",
          "type": "address"
        },
        {
          "indexed": false,
          "internalType": "string",
          "name": "details",
          "type": "string"
        },
        {
          "indexed": false,
          "internalType": "bytes32",
          "name": "rfidUIDHash",
          "type": "bytes32"
        },
        {
          "indexed": false,
          "internalType": "uint256",
          "name": "manufactureDate",
          "type": "uint256"
        },
        {
          "indexed": false,
          "internalType": "uint256",
          "name": "expiryDate",
          "type": "uint256"
        },
        {
          "indexed": false,
          "internalType": "uint256",
          "name": "quantity",
          "type": "uint256"
        }
      ],
      "name": "BatchCreated",
      "type": "event"
    },
    {
      "anonymous": false,
      "inputs": [
        {
          "indexed": true,
          "internalType": "uint256",
          "name": "batchId",
          "type": "uint256"
        },
        {
          "indexed": true,
          "internalType": "address",
          "name": "initiator",
          "type": "address"
        }
      ],
      "name": "BatchRecalled",
      "type": "event"
    },
    {
      "anonymous": false,
      "inputs": [
        {
          "indexed": true,
          "internalType": "uint256",
          "name": "batchId",
          "type": "uint256"
        },
        {
          "indexed": true,
          "internalType": "address",
          "name": "approver",
          "type": "address"
        }
      ],
      "name": "QualityApproved",
      "type": "event"
    },
    {
      "anonymous": false,
      "inputs": [
        {
          "indexed": true,
          "internalType": "uint256",
          "name": "batchId",
          "type": "uint256"
        },
        {
          "indexed": true,
          "internalType": "address",
          "name": "disapprover",
          "type": "address"
        }
      ],
      "name": "QualityDisapproved",
      "type": "event"
    },
    {
      "anonymous": false,
      "inputs": [
        {
          "indexed": true,
          "internalType": "address",
          "name": "user",
          "type": "address"
        },
        {
          "indexed": false,
          "internalType": "string",
          "name": "companyName",
          "type": "string"
        },
        {
          "indexed": false,
          "internalType": "enum PharmaChain.Role",
          "name": "role",
          "type": "uint8"
        },
        {
          "indexed": false,
          "internalType": "string",
          "name": "contactInfo",
          "type": "string"
        }
      ],
      "name": "UserRegistered",
      "type": "event"
    },
    {
      "inputs": [
        {
          "internalType": "uint256",
          "name": "_batchId",
          "type": "uint256"
        }
      ],
      "name": "approveQuality",
      "outputs": [],
      "stateMutability": "nonpayable",
      "type": "function"
    },
    {
      "inputs": [
        {
          "internalType": "uint256",
          "name": "_orderId",
          "type": "uint256"
        },
        {
          "internalType": "uint256",
          "name": "_batchId",
          "type": "uint256"
        }
      ],
      "name": "assignBatchToOrder",
      "outputs": [],
      "stateMutability": "nonpayable",
      "type": "function"
    },
    {
      "inputs": [
        {
          "internalType": "uint256",
          "name": "_orderId",
          "type": "uint256"
        },
        {
          "internalType": "uint256",
          "name": "_unitId",
          "type": "uint256"
        }
      ],
      "name": "assignBatchUnitToOrder",
      "outputs": [],
      "stateMutability": "nonpayable",
      "type": "function"
    },
    {
      "inputs": [
        {
          "internalType": "uint256",
          "name": "_batchId",
          "type": "uint256"
        },
        {
          "internalType": "address",
          "name": "_distributor",
          "type": "address"
        }
      ],
      "name": "assignToDistributor",
      "outputs": [],
      "stateMutability": "nonpayable",
      "type": "function"
    },
    {
      "inputs": [
        {
          "internalType": "uint256",
          "name": "_unitId",
          "type": "uint256"
        },
        {
          "internalType": "address",
          "name": "_provider",
          "type": "address"
        }
      ],
      "name": "assignUnitToProvider",
      "outputs": [],
      "stateMutability": "nonpayable",
      "type": "function"
    },
    {
      "inputs": [
        {
          "internalType": "uint256",
          "name": "",
          "type": "uint256"
        }
      ],
      "name": "batchUnits",
      "outputs": [
        {
          "internalType": "uint256",
          "name": "unitId",
          "type": "uint256"
        },
        {
          "internalType": "uint256",
          "name": "batchId",
          "type": "uint256"
        },
        {
          "internalType": "address",
          "name": "provider",
          "type": "address"
        },
        {
          "internalType": "bool",
          "name": "isAssigned",
          "type": "bool"
        }
      ],
      "stateMutability": "view",
      "type": "function"
    },
    {
      "inputs": [
        {
          "internalType": "uint256",
          "name": "",
          "type": "uint256"
        }
      ],
      "name": "batches",
      "outputs": [
        {
          "internalType": "uint256",
          "name": "batchId",
          "type": "uint256"
        },
        {
          "internalType": "address",
          "name": "manufacturer",
          "type": "address"
        },
        {
          "internalType": "string",
          "name": "details",
          "type": "string"
        },
        {
          "internalType": "bool",
          "name": "isQualityApproved",
          "type": "bool"
        },
        {
          "internalType": "bool",
          "name": "isQualityDisapproved",
          "type": "bool"
        },
        {
          "internalType": "address",
          "name": "distributor",
          "type": "address"
        },
        {
          "internalType": "bytes32",
          "name": "rfidUIDHash",
          "type": "bytes32"
        },
        {
          "internalType": "bool",
          "name": "isRecalled",
          "type": "bool"
        },
        {
          "internalType": "uint256",
          "name": "manufactureDate",
          "type": "uint256"
        },
        {
          "internalType": "uint256",
          "name": "expiryDate",
          "type": "uint256"
        },
        {
          "internalType": "uint256",
          "name": "quantity",
          "type": "uint256"
        }
      ],
      "stateMutability": "view",
      "type": "function"
    },
    {
      "inputs": [
        {
          "internalType": "string",
          "name": "_details",
          "type": "string"
        },
        {
          "internalType": "bytes32",
          "name": "_rfidUIDHash",
          "type": "bytes32"
        },
        {
          "internalType": "uint256",
          "name": "_expiryDate",
          "type": "uint256"
        },
        {
          "internalType": "uint256",
          "name": "_quantity",
          "type": "uint256"
        }
      ],
      "name": "createBatch",
      "outputs": [],
      "stateMutability": "nonpayable",
      "type": "function"
    },
    {
      "inputs": [
        {
          "internalType": "string",
          "name": "_medName",
          "type": "string"
        },
        {
          "internalType": "uint256",
          "name": "_quantity",
          "type": "uint256"
        }
      ],
      "name": "createDistributorOrder",
      "outputs": [],
      "stateMutability": "nonpayable",
      "type": "function"
    },
    {
      "inputs": [
        {
          "internalType": "string",
          "name": "_details",
          "type": "string"
        },
        {
          "internalType": "address",
          "name": "_distributor",
          "type": "address"
        }
      ],
      "name": "createProviderOrder",
      "outputs": [],
      "stateMutability": "nonpayable",
      "type": "function"
    },
    {
      "inputs": [
        {
          "internalType": "uint256",
          "name": "_batchId",
          "type": "uint256"
        }
      ],
      "name": "disapproveQuality",
      "outputs": [],
      "stateMutability": "nonpayable",
      "type": "function"
    },
    {
      "inputs": [
        {
          "internalType": "address",
          "name": "",
          "type": "address"
        },
        {
          "internalType": "uint256",
          "name": "",
          "type": "uint256"
        }
      ],
      "name": "distributorMedNames",
      "outputs": [
        {
          "internalType": "string",
          "name": "",
          "type": "string"
        }
      ],
      "stateMutability": "view",
      "type": "function"
    },
    {
      "inputs": [
        {
          "internalType": "uint256",
          "name": "",
          "type": "uint256"
        }
      ],
      "name": "distributorOrders",
      "outputs": [
        {
          "internalType": "uint256",
          "name": "orderId",
          "type": "uint256"
        },
        {
          "internalType": "address",
          "name": "distributor",
          "type": "address"
        },
        {
          "internalType": "address",
          "name": "manufacturer",
          "type": "address"
        },
        {
          "internalType": "uint256",
          "name": "orderDate",
          "type": "uint256"
        },
        {
          "internalType": "uint256",
          "name": "batchId",
          "type": "uint256"
        },
        {
          "internalType": "string",
          "name": "medName",
          "type": "string"
        },
        {
          "internalType": "uint256",
          "name": "quantity",
          "type": "uint256"
        },
        {
          "internalType": "bool",
          "name": "isAssigned",
          "type": "bool"
        },
        {
          "internalType": "enum PharmaChain.OrderStatus",
          "name": "status",
          "type": "uint8"
        }
      ],
      "stateMutability": "view",
      "type": "function"
    },
    {
      "inputs": [
        {
          "internalType": "address",
          "name": "",
          "type": "address"
        },
        {
          "internalType": "string",
          "name": "",
          "type": "string"
        }
      ],
      "name": "distributorStocks",
      "outputs": [
        {
          "internalType": "uint256",
          "name": "",
          "type": "uint256"
        }
      ],
      "stateMutability": "view",
      "type": "function"
    },
    {
      "inputs": [
        {
          "internalType": "address",
          "name": "_user",
          "type": "address"
        }
      ],
      "name": "getCompanyNameFromAddress",
      "outputs": [
        {
          "internalType": "string",
          "name": "",
          "type": "string"
        }
      ],
      "stateMutability": "view",
      "type": "function"
    },
    {
      "inputs": [
        {
          "internalType": "address",
          "name": "_manufacturer",
          "type": "address"
        }
      ],
      "name": "getCreatedBatches",
      "outputs": [
        {
          "components": [
            {
              "internalType": "uint256",
              "name": "batchId",
              "type": "uint256"
            },
            {
              "internalType": "address",
              "name": "manufacturer",
              "type": "address"
            },
            {
              "internalType": "string",
              "name": "details",
              "type": "string"
            },
            {
              "internalType": "bool",
              "name": "isQualityApproved",
              "type": "bool"
            },
            {
              "internalType": "bool",
              "name": "isQualityDisapproved",
              "type": "bool"
            },
            {
              "internalType": "address",
              "name": "distributor",
              "type": "address"
            },
            {
              "internalType": "bytes32",
              "name": "rfidUIDHash",
              "type": "bytes32"
            },
            {
              "internalType": "bool",
              "name": "isRecalled",
              "type": "bool"
            },
            {
              "internalType": "uint256",
              "name": "manufactureDate",
              "type": "uint256"
            },
            {
              "internalType": "uint256",
              "name": "expiryDate",
              "type": "uint256"
            },
            {
              "internalType": "uint256",
              "name": "quantity",
              "type": "uint256"
            }
          ],
          "internalType": "struct PharmaChain.Batch[]",
          "name": "",
          "type": "tuple[]"
        }
      ],
      "stateMutability": "view",
      "type": "function"
    },
    {
      "inputs": [
        {
          "internalType": "address",
          "name": "_distributor",
          "type": "address"
        }
      ],
      "name": "getDistributorOrders",
      "outputs": [
        {
          "components": [
            {
              "internalType": "uint256",
              "name": "orderId",
              "type": "uint256"
            },
            {
              "internalType": "address",
              "name": "distributor",
              "type": "address"
            },
            {
              "internalType": "address",
              "name": "manufacturer",
              "type": "address"
            },
            {
              "internalType": "uint256",
              "name": "orderDate",
              "type": "uint256"
            },
            {
              "internalType": "uint256",
              "name": "batchId",
              "type": "uint256"
            },
            {
              "internalType": "string",
              "name": "medName",
              "type": "string"
            },
            {
              "internalType": "uint256",
              "name": "quantity",
              "type": "uint256"
            },
            {
              "internalType": "bool",
              "name": "isAssigned",
              "type": "bool"
            },
            {
              "internalType": "enum PharmaChain.OrderStatus",
              "name": "status",
              "type": "uint8"
            }
          ],
          "internalType": "struct PharmaChain.DistributorOrder[]",
          "name": "",
          "type": "tuple[]"
        }
      ],
      "stateMutability": "view",
      "type": "function"
    },
    {
      "inputs": [
        {
          "internalType": "address",
          "name": "_distributor",
          "type": "address"
        }
      ],
      "name": "getDistributorStock",
      "outputs": [
        {
          "components": [
            {
              "internalType": "string",
              "name": "medName",
              "type": "string"
            },
            {
              "internalType": "uint256",
              "name": "quantity",
              "type": "uint256"
            }
          ],
          "internalType": "struct PharmaChain.StockItem[]",
          "name": "",
          "type": "tuple[]"
        }
      ],
      "stateMutability": "view",
      "type": "function"
    },
    {
      "inputs": [
        {
          "internalType": "address",
          "name": "_manufacturer",
          "type": "address"
        }
      ],
      "name": "getFulfilledBatches",
      "outputs": [
        {
          "components": [
            {
              "internalType": "uint256",
              "name": "batchId",
              "type": "uint256"
            },
            {
              "internalType": "address",
              "name": "manufacturer",
              "type": "address"
            },
            {
              "internalType": "string",
              "name": "details",
              "type": "string"
            },
            {
              "internalType": "bool",
              "name": "isQualityApproved",
              "type": "bool"
            },
            {
              "internalType": "bool",
              "name": "isQualityDisapproved",
              "type": "bool"
            },
            {
              "internalType": "address",
              "name": "distributor",
              "type": "address"
            },
            {
              "internalType": "bytes32",
              "name": "rfidUIDHash",
              "type": "bytes32"
            },
            {
              "internalType": "bool",
              "name": "isRecalled",
              "type": "bool"
            },
            {
              "internalType": "uint256",
              "name": "manufactureDate",
              "type": "uint256"
            },
            {
              "internalType": "uint256",
              "name": "expiryDate",
              "type": "uint256"
            },
            {
              "internalType": "uint256",
              "name": "quantity",
              "type": "uint256"
            }
          ],
          "internalType": "struct PharmaChain.Batch[]",
          "name": "",
          "type": "tuple[]"
        }
      ],
      "stateMutability": "view",
      "type": "function"
    },
    {
      "inputs": [],
      "name": "getPendingDistributorOrders",
      "outputs": [
        {
          "components": [
            {
              "internalType": "uint256",
              "name": "orderId",
              "type": "uint256"
            },
            {
              "internalType": "address",
              "name": "distributor",
              "type": "address"
            },
            {
              "internalType": "address",
              "name": "manufacturer",
              "type": "address"
            },
            {
              "internalType": "uint256",
              "name": "orderDate",
              "type": "uint256"
            },
            {
              "internalType": "uint256",
              "name": "batchId",
              "type": "uint256"
            },
            {
              "internalType": "string",
              "name": "medName",
              "type": "string"
            },
            {
              "internalType": "uint256",
              "name": "quantity",
              "type": "uint256"
            },
            {
              "internalType": "bool",
              "name": "isAssigned",
              "type": "bool"
            },
            {
              "internalType": "enum PharmaChain.OrderStatus",
              "name": "status",
              "type": "uint8"
            }
          ],
          "internalType": "struct PharmaChain.DistributorOrder[]",
          "name": "",
          "type": "tuple[]"
        }
      ],
      "stateMutability": "view",
      "type": "function"
    },
    {
      "inputs": [
        {
          "internalType": "address",
          "name": "_provider",
          "type": "address"
        }
      ],
      "name": "getProviderOrders",
      "outputs": [
        {
          "components": [
            {
              "internalType": "uint256",
              "name": "orderId",
              "type": "uint256"
            },
            {
              "internalType": "address",
              "name": "provider",
              "type": "address"
            },
            {
              "internalType": "address",
              "name": "distributor",
              "type": "address"
            },
            {
              "internalType": "uint256",
              "name": "orderDate",
              "type": "uint256"
            },
            {
              "internalType": "uint256",
              "name": "unitId",
              "type": "uint256"
            },
            {
              "internalType": "string",
              "name": "details",
              "type": "string"
            },
            {
              "internalType": "bool",
              "name": "isAssigned",
              "type": "bool"
            },
            {
              "internalType": "uint256",
              "name": "batchId",
              "type": "uint256"
            },
            {
              "internalType": "enum PharmaChain.OrderStatus",
              "name": "status",
              "type": "uint8"
            }
          ],
          "internalType": "struct PharmaChain.ProviderOrder[]",
          "name": "",
          "type": "tuple[]"
        }
      ],
      "stateMutability": "view",
      "type": "function"
    },
    {
      "inputs": [
        {
          "internalType": "address",
          "name": "_provider",
          "type": "address"
        }
      ],
      "name": "getProviderStock",
      "outputs": [
        {
          "components": [
            {
              "internalType": "string",
              "name": "medName",
              "type": "string"
            },
            {
              "internalType": "uint256",
              "name": "quantity",
              "type": "uint256"
            }
          ],
          "internalType": "struct PharmaChain.StockItem[]",
          "name": "",
          "type": "tuple[]"
        }
      ],
      "stateMutability": "view",
      "type": "function"
    },
    {
      "inputs": [
        {
          "internalType": "address",
          "name": "_user",
          "type": "address"
        }
      ],
      "name": "getUserInfo",
      "outputs": [
        {
          "internalType": "string",
          "name": "companyName",
          "type": "string"
        },
        {
          "internalType": "string",
          "name": "contactInfo",
          "type": "string"
        },
        {
          "internalType": "enum PharmaChain.Role",
          "name": "role",
          "type": "uint8"
        }
      ],
      "stateMutability": "view",
      "type": "function"
    },
    {
      "inputs": [
        {
          "internalType": "address",
          "name": "_user",
          "type": "address"
        }
      ],
      "name": "getUserRole",
      "outputs": [
        {
          "internalType": "enum PharmaChain.Role",
          "name": "",
          "type": "uint8"
        }
      ],
      "stateMutability": "view",
      "type": "function"
    },
    {
      "inputs": [
        {
          "internalType": "address",
          "name": "_user",
          "type": "address"
        }
      ],
      "name": "isUserRegistered",
      "outputs": [
        {
          "internalType": "bool",
          "name": "",
          "type": "bool"
        }
      ],
      "stateMutability": "view",
      "type": "function"
    },
    {
      "inputs": [],
      "name": "nextBatchId",
      "outputs": [
        {
          "internalType": "uint256",
          "name": "",
          "type": "uint256"
        }
      ],
      "stateMutability": "view",
      "type": "function"
    },
    {
      "inputs": [],
      "name": "nextDistributorOrderId",
      "outputs": [
        {
          "internalType": "uint256",
          "name": "",
          "type": "uint256"
        }
      ],
      "stateMutability": "view",
      "type": "function"
    },
    {
      "inputs": [],
      "name": "nextProviderOrderId",
      "outputs": [
        {
          "internalType": "uint256",
          "name": "",
          "type": "uint256"
        }
      ],
      "stateMutability": "view",
      "type": "function"
    },
    {
      "inputs": [],
      "name": "nextUnitId",
      "outputs": [
        {
          "internalType": "uint256",
          "name": "",
          "type": "uint256"
        }
      ],
      "stateMutability": "view",
      "type": "function"
    },
    {
      "inputs": [
        {
          "internalType": "address",
          "name": "",
          "type": "address"
        },
        {
          "internalType": "uint256",
          "name": "",
          "type": "uint256"
        }
      ],
      "name": "providerMedNames",
      "outputs": [
        {
          "internalType": "string",
          "name": "",
          "type": "string"
        }
      ],
      "stateMutability": "view",
      "type": "function"
    },
    {
      "inputs": [
        {
          "internalType": "uint256",
          "name": "",
          "type": "uint256"
        }
      ],
      "name": "providerOrders",
      "outputs": [
        {
          "internalType": "uint256",
          "name": "orderId",
          "type": "uint256"
        },
        {
          "internalType": "address",
          "name": "provider",
          "type": "address"
        },
        {
          "internalType": "address",
          "name": "distributor",
          "type": "address"
        },
        {
          "internalType": "uint256",
          "name": "orderDate",
          "type": "uint256"
        },
        {
          "internalType": "uint256",
          "name": "unitId",
          "type": "uint256"
        },
        {
          "internalType": "string",
          "name": "details",
          "type": "string"
        },
        {
          "internalType": "bool",
          "name": "isAssigned",
          "type": "bool"
        },
        {
          "internalType": "uint256",
          "name": "batchId",
          "type": "uint256"
        },
        {
          "internalType": "enum PharmaChain.OrderStatus",
          "name": "status",
          "type": "uint8"
        }
      ],
      "stateMutability": "view",
      "type": "function"
    },
    {
      "inputs": [
        {
          "internalType": "address",
          "name": "",
          "type": "address"
        },
        {
          "internalType": "string",
          "name": "",
          "type": "string"
        }
      ],
      "name": "providerStocks",
      "outputs": [
        {
          "internalType": "uint256",
          "name": "",
          "type": "uint256"
        }
      ],
      "stateMutability": "view",
      "type": "function"
    },
    {
      "inputs": [
        {
          "internalType": "uint256",
          "name": "_batchId",
          "type": "uint256"
        }
      ],
      "name": "recallBatch",
      "outputs": [],
      "stateMutability": "nonpayable",
      "type": "function"
    },
    {
      "inputs": [
        {
          "internalType": "address",
          "name": "_user",
          "type": "address"
        },
        {
          "internalType": "string",
          "name": "_companyName",
          "type": "string"
        },
        {
          "internalType": "enum PharmaChain.Role",
          "name": "_role",
          "type": "uint8"
        },
        {
          "internalType": "string",
          "name": "_contactInfo",
          "type": "string"
        }
      ],
      "name": "registerUser",
      "outputs": [],
      "stateMutability": "nonpayable",
      "type": "function"
    },
    {
      "inputs": [
        {
          "internalType": "uint256",
          "name": "_orderId",
          "type": "uint256"
        },
        {
          "internalType": "enum PharmaChain.OrderStatus",
          "name": "_status",
          "type": "uint8"
        }
      ],
      "name": "updateDistributorOrderStatus",
      "outputs": [],
      "stateMutability": "nonpayable",
      "type": "function"
    },
    {
      "inputs": [
        {
          "internalType": "uint256",
          "name": "_orderId",
          "type": "uint256"
        },
        {
          "internalType": "enum PharmaChain.OrderStatus",
          "name": "_status",
          "type": "uint8"
        }
      ],
      "name": "updateProviderOrderStatus",
      "outputs": [],
      "stateMutability": "nonpayable",
      "type": "function"
    },
    {
      "inputs": [
        {
          "internalType": "address",
          "name": "",
          "type": "address"
        }
      ],
      "name": "users",
      "outputs": [
        {
          "internalType": "address",
          "name": "account",
          "type": "address"
        },
        {
          "internalType": "string",
          "name": "companyName",
          "type": "string"
        },
        {
          "internalType": "enum PharmaChain.Role",
          "name": "role",
          "type": "uint8"
        },
        {
          "internalType": "string",
          "name": "contactInfo",
          "type": "string"
        }
      ],
      "stateMutability": "view",
      "type": "function"
    }
  ],
  "bytecode": "0x608060405234801561001057600080fd5b506140a0806100206000396000f3fe608060405234801561001057600080fd5b50600436106102275760003560e01c80637e3b128b11610130578063b32c4d8d116100b8578063d38622381161007c578063d3862238146105f7578063e3c6e07e14610600578063f1bd14ad14610613578063f212d6d91461064f578063f685aaff1461066257600080fd5b8063b32c4d8d14610581578063b616e184146105ab578063c91cdc90146105be578063ced27743146105d1578063d0aeb537146105e457600080fd5b80638b6c9395116100ff5780638b6c93951461049c57806395c53d49146104af578063a3ef03cd146104d7578063a6e162b41461054b578063a87430ba1461055e57600080fd5b80637e3b128b1461046157806383e9f8bf1461046a5780638429bcf71461048a5780638462a7f81461049357600080fd5b806343deec2e116101b35780636386c1c7116101825780636386c1c7146103bc578063642c9719146103de5780636ae25d98146103f1578063769291c11461043b57806376c386061461044e57600080fd5b806343deec2e1461035b57806344dfc5f81461036e5780634a746b7b146103815780634e4b18fb1461039457600080fd5b8063239cef3a116101fa578063239cef3a146102b95780632615457b146102cc57806327820851146102ec5780632d703d73146103285780633d28a3011461034857600080fd5b80630c3d3f431461022c578063163f7522146102415780631c5a3a53146102845780631d8abc8f146102a4575b600080fd5b61023f61023a36600461333b565b610675565b005b61026f61024f366004613367565b6001600160a01b0390811660009081526020819052604090205416151590565b60405190151581526020015b60405180910390f35b610297610292366004613367565b6107cb565b60405161027b91906133d2565b6102ac610996565b60405161027b9190613474565b61023f6102c736600461354d565b610bcf565b6102df6102da366004613367565b610db0565b60405161027b919061356f565b61031b6102fa366004613367565b6001600160a01b031660009081526020819052604090206002015460ff1690565b60405161027b9190613657565b61033b610336366004613367565b610fff565b60405161027b919061366b565b61023f6103563660046137f7565b61123e565b61023f610369366004613883565b611395565b61023f61037c3660046138d6565b611626565b61029761038f366004613367565b61172a565b6103a76103a23660046138d6565b6118ed565b60405161027b999897969594939291906138ef565b6103cf6103ca366004613367565b6119d3565b60405161027b9392919061395d565b61033b6103ec366004613367565b611b81565b61042d6103ff36600461399a565b6006602090815260009283526040909220815180830184018051928152908401929093019190912091525481565b60405190815260200161027b565b61023f61044936600461333b565b611e18565b61023f61045c3660046139e7565b611f8f565b61042d600a5481565b61047d610478366004613367565b6121b3565b60405161027b9190613a1b565b61042d600b5481565b61042d60095481565b61023f6104aa36600461354d565b612262565b6104c26104bd3660046138d6565b6123c7565b60405161027b99989796959493929190613a2e565b61051a6104e53660046138d6565b60026020819052600091825260409091208054600182015491909201546001600160a01b03811690600160a01b900460ff1684565b60405161027b949392919093845260208401929092526001600160a01b031660408301521515606082015260800190565b61023f6105593660046138d6565b6124ae565b61057161056c366004613367565b6125b2565b60405161027b9493929190613a8e565b61059461058f3660046138d6565b6126fe565b60405161027b9b9a99989796959493929190613adc565b61023f6105b93660046138d6565b6127f5565b61023f6105cc3660046139e7565b6128fd565b6102ac6105df366004613367565b612bc0565b61047d6105f2366004613b4b565b612e06565b61042d600c5481565b61047d61060e366004613b4b565b612ebf565b61042d61062136600461399a565b6005602090815260009283526040909220815180830184018051928152908401929093019190912091525481565b61023f61065d366004613b75565b612edb565b61023f610670366004613bb9565b61304e565b600133600090815260208190526040902060029081015460ff169081111561069f5761069f61344a565b146106c55760405162461bcd60e51b81526004016106bc90613bfd565b60405180910390fd5b600082815260026020819052604090912090810154600160a01b900460ff16156107315760405162461bcd60e51b815260206004820152601860248201527f556e697420697320616c72656164792061737369676e6564000000000000000060448201526064016106bc565b6001600160a01b038216600090815260208190526040902060029081015460ff16818111156107625761076261344a565b146107a25760405162461bcd60e51b815260206004820152601060248201526f24b73b30b634b210383937bb34b232b960811b60448201526064016106bc565b60020180546001600160a81b0319166001600160a01b0390921691909117600160a01b17905550565b6001600160a01b038116600090815260086020526040812054606091816001600160401b038111156107ff576107ff613755565b60405190808252806020026020018201604052801561084557816020015b60408051808201909152606081526000602082015281526020019060019003908161081d5790505b50905060005b8281101561098e576001600160a01b038516600090815260086020526040812080548390811061087d5761087d613c46565b90600052602060002001805461089290613c5c565b80601f01602080910402602001604051908101604052809291908181526020018280546108be90613c5c565b801561090b5780601f106108e05761010080835404028352916020019161090b565b820191906000526020600020905b8154815290600101906020018083116108ee57829003601f168201915b50505050509050604051806040016040528082815260200160066000896001600160a01b03166001600160a01b03168152602001908152602001600020836040516109569190613c96565b90815260200160405180910390205481525083838151811061097a5761097a613c46565b60209081029190910101525060010161084b565b509392505050565b60606000805b600b548110156109d55760008181526003602052604090206007015460ff166109cd57816109c981613cc8565b9250505b60010161099c565b506000816001600160401b038111156109f0576109f0613755565b604051908082528060200260200182016040528015610a2957816020015b610a16613279565b815260200190600190039081610a0e5790505b5090506000805b600b54811015610bc65760008181526003602052604090206007015460ff16610bbe576000818152600360208181526040928390208351610120810185528154815260018201546001600160a01b03908116938201939093526002820154909216938201939093529082015460608201526004820154608082015260058201805491929160a084019190610ac390613c5c565b80601f0160208091040260200160405190810160405280929190818152602001828054610aef90613c5c565b8015610b3c5780601f10610b1157610100808354040283529160200191610b3c565b820191906000526020600020905b815481529060010190602001808311610b1f57829003601f168201915b505050918352505060068201546020820152600782015460ff80821615156040840152606090920191610100909104166004811115610b7d57610b7d61344a565b6004811115610b8e57610b8e61344a565b81525050838381518110610ba457610ba4613c46565b60200260200101819052508180610bba90613cc8565b9250505b600101610a30565b50909392505050565b33600090815260208190526040812060029081015460ff1690811115610bf757610bf761344a565b14610c145760405162461bcd60e51b81526004016106bc90613ce1565b600082815260036020526040902060028101546001600160a01b03161580610c48575060028101546001600160a01b031633145b610caf5760405162461bcd60e51b815260206004820152603260248201527f4f6e6c7920746865206f726465722773206d616e7566616374757265722063616044820152710dc40c2e6e6d2cedc40e8d0ca40c4c2e8c6d60731b60648201526084016106bc565b6000828152600160208190526040909120908101546001600160a01b03163314610d125760405162461bcd60e51b815260206004820152601460248201527324b73b30b634b21036b0b73ab330b1ba3ab932b960611b60448201526064016106bc565b816006015481600801541015610d6a5760405162461bcd60e51b815260206004820152601b60248201527f496e73756666696369656e74206261746368207175616e74697479000000000060448201526064016106bc565b600482018390556002820180546001600160a01b0319163317905560078201805460ff19811660019081178355919061ffff19168217610100835b021790555050505050565b60606000805b600c54811015610dfa576000818152600460205260409020600101546001600160a01b03808616911603610df25781610dee81613cc8565b9250505b600101610db6565b506000816001600160401b03811115610e1557610e15613755565b604051908082528060200260200182016040528015610e4e57816020015b610e3b613279565b815260200190600190039081610e335790505b5090506000805b600c54811015610ff5576000818152600460205260409020600101546001600160a01b03808816911603610fed576000818152600460208181526040928390208351610120810185528154815260018201546001600160a01b03908116938201939093526002820154909216938201939093526003830154606082015290820154608082015260058201805491929160a084019190610ef390613c5c565b80601f0160208091040260200160405190810160405280929190818152602001828054610f1f90613c5c565b8015610f6c5780601f10610f4157610100808354040283529160200191610f6c565b820191906000526020600020905b815481529060010190602001808311610f4f57829003601f168201915b5050509183525050600682015460ff90811615156020830152600783015460408301526008830154606090920191166004811115610fac57610fac61344a565b6004811115610fbd57610fbd61344a565b81525050838381518110610fd357610fd3613c46565b60200260200101819052508180610fe990613cc8565b9250505b600101610e55565b5090949350505050565b60606000805b60095481101561104a57600081815260016020819052604090912001546001600160a01b03808616911603611042578161103e81613cc8565b9250505b600101611005565b506000816001600160401b0381111561106557611065613755565b60405190808252806020026020018201604052801561109e57816020015b61108b6132c2565b8152602001906001900390816110835790505b5090506000805b600954811015610ff557600081815260016020819052604090912001546001600160a01b038088169116036112365760008181526001602081815260409283902083516101608101855281548152928101546001600160a01b031691830191909152600281018054929391929184019161111e90613c5c565b80601f016020809104026020016040519081016040528092919081815260200182805461114a90613c5c565b80156111975780601f1061116c57610100808354040283529160200191611197565b820191906000526020600020905b81548152906001019060200180831161117a57829003601f168201915b5050509183525050600382015460ff80821615156020840152610100808304821615156040850152620100009092046001600160a01b0316606084015260048401546080840152600584015416151560a0830152600683015460c0830152600783015460e0830152600890920154910152835184908490811061121c5761121c613c46565b6020026020010181905250818061123290613cc8565b9250505b6001016110a5565b6001600160a01b0384166112865760405162461bcd60e51b815260206004820152600f60248201526e496e76616c6964206164647265737360881b60448201526064016106bc565b6040518060800160405280856001600160a01b031681526020018481526020018360028111156112b8576112b861344a565b815260209081018390526001600160a01b03868116600090815280835260409020835181546001600160a01b03191692169190911781559082015160018201906113029082613d7b565b5060408201518160020160006101000a81548160ff0219169083600281111561132d5761132d61344a565b0217905550606082015160038201906113469082613d7b565b50905050836001600160a01b03167f3a403922431a43cbc3d929f1b03869ffadab7bce01402822980e72e6ea8e9d9184848460405161138793929190613e3a565b60405180910390a250505050565b33600090815260208190526040812060029081015460ff16908111156113bd576113bd61344a565b146113da5760405162461bcd60e51b81526004016106bc90613ce1565b60098054600091826113eb83613cc8565b91905055905042831161144a5760405162461bcd60e51b815260206004820152602160248201527f4578706972792064617465206d75737420626520696e207468652066757475726044820152606560f81b60648201526084016106bc565b600082116114a55760405162461bcd60e51b815260206004820152602260248201527f5175616e74697479206d7573742062652067726561746572207468616e207a65604482015261726f60f01b60648201526084016106bc565b60408051610160810182528281523360208083019182528284018981526000606085018190526080850181905260a0850181905260c085018a905260e0850181905242610100860152610120850189905261014085018890528681526001928390529490942083518155915190820180546001600160a01b0319166001600160a01b03909216919091179055915190919060028201906115459082613d7b565b506060820151600382018054608085015160a086015161ffff1990921693151561ff0019169390931761010093151584021762010000600160b01b031916620100006001600160a01b039092169190910217905560c0830151600483015560e083015160058301805460ff19169115159190911790558201516006820155610120820151600782015561014090910151600890910155604051339082907fbee34f0ca0c0edfc2bd967468f81e100292d859329be491cc44c4ec390c65fac90611617908990899042908a908a90613e76565b60405180910390a35050505050565b33600090815260208190526040812060029081015460ff169081111561164e5761164e61344a565b1461166b5760405162461bcd60e51b81526004016106bc90613ce1565b6000818152600160208190526040909120908101546001600160a01b031633146116e95760405162461bcd60e51b815260206004820152602960248201527f4f6e6c7920746865206d616e7566616374757265722063616e20617070726f7660448201526865207175616c69747960b81b60648201526084016106bc565b60038101805461ffff19166001179055604051339083907f08d6065569e454b48393f44317518d1282971813504b4d323942afba2f7a2c5d90600090a35050565b6001600160a01b038116600090815260076020526040812054606091816001600160401b0381111561175e5761175e613755565b6040519080825280602002602001820160405280156117a457816020015b60408051808201909152606081526000602082015281526020019060019003908161177c5790505b50905060005b8281101561098e576001600160a01b03851660009081526007602052604081208054839081106117dc576117dc613c46565b9060005260206000200180546117f190613c5c565b80601f016020809104026020016040519081016040528092919081815260200182805461181d90613c5c565b801561186a5780601f1061183f5761010080835404028352916020019161186a565b820191906000526020600020905b81548152906001019060200180831161184d57829003601f168201915b50505050509050604051806040016040528082815260200160056000896001600160a01b03166001600160a01b03168152602001908152602001600020836040516118b59190613c96565b9081526020016040518091039020548152508383815181106118d9576118d9613c46565b6020908102919091010152506001016117aa565b600360208190526000918252604090912080546001820154600283015493830154600484015460058501805494966001600160a01b03948516969416949293919261193790613c5c565b80601f016020809104026020016040519081016040528092919081815260200182805461196390613c5c565b80156119b05780601f10611985576101008083540402835291602001916119b0565b820191906000526020600020905b81548152906001019060200180831161199357829003601f168201915b50505050600683015460079093015491929160ff80821692506101009091041689565b6001600160a01b038082166000908152602081815260408083208151608081019092528054909416815260018401805460609586959485949391929084019190611a1c90613c5c565b80601f0160208091040260200160405190810160405280929190818152602001828054611a4890613c5c565b8015611a955780601f10611a6a57610100808354040283529160200191611a95565b820191906000526020600020905b815481529060010190602001808311611a7857829003601f168201915b505050918352505060028281015460209092019160ff1690811115611abc57611abc61344a565b6002811115611acd57611acd61344a565b8152602001600382018054611ae190613c5c565b80601f0160208091040260200160405190810160405280929190818152602001828054611b0d90613c5c565b8015611b5a5780601f10611b2f57610100808354040283529160200191611b5a565b820191906000526020600020905b815481529060010190602001808311611b3d57829003601f168201915b50505091909252505050602081015160608201516040909201519097919650945092505050565b60606000805b600954811015611bf857600081815260016020819052604090912001546001600160a01b038581169116148015611bdd57506000818152600160205260409020600301546201000090046001600160a01b031615155b15611bf05781611bec81613cc8565b9250505b600101611b87565b506000816001600160401b03811115611c1357611c13613755565b604051908082528060200260200182016040528015611c4c57816020015b611c396132c2565b815260200190600190039081611c315790505b5090506000805b600954811015610ff557600081815260016020819052604090912001546001600160a01b038781169116148015611ca957506000818152600160205260409020600301546201000090046001600160a01b031615155b15611e105760008181526001602081815260409283902083516101608101855281548152928101546001600160a01b0316918301919091526002810180549293919291840191611cf890613c5c565b80601f0160208091040260200160405190810160405280929190818152602001828054611d2490613c5c565b8015611d715780601f10611d4657610100808354040283529160200191611d71565b820191906000526020600020905b815481529060010190602001808311611d5457829003601f168201915b5050509183525050600382015460ff80821615156020840152610100808304821615156040850152620100009092046001600160a01b0316606084015260048401546080840152600584015416151560a0830152600683015460c0830152600783015460e08301526008909201549101528351849084908110611df657611df6613c46565b60200260200101819052508180611e0c90613cc8565b9250505b600101611c53565b33600090815260208190526040812060029081015460ff1690811115611e4057611e4061344a565b14611e5d5760405162461bcd60e51b81526004016106bc90613ce1565b60016001600160a01b038216600090815260208190526040902060029081015460ff1690811115611e9057611e9061344a565b14611ed35760405162461bcd60e51b815260206004820152601360248201527224b73b30b634b2103234b9ba3934b13aba37b960691b60448201526064016106bc565b6000828152600160205260409020600381015460ff16611f355760405162461bcd60e51b815260206004820152601e60248201527f4261746368206d757374206265207175616c69747920617070726f766564000060448201526064016106bc565b60038101805462010000600160b01b031916620100006001600160a01b0385169081029190911790915560405184907f8e6804b2e7bfb70fb26b5bbf7a87382c43918cd5fd77219d8846c3c4f302ad0a90600090a3505050565b600133600090815260208190526040902060029081015460ff1690811115611fb957611fb961344a565b14611fd65760405162461bcd60e51b81526004016106bc90613bfd565b600082815260036020526040902060018101546001600160a01b031633146120595760405162461bcd60e51b815260206004820152603060248201527f4f6e6c7920746865206469737472696275746f722063616e207570646174652060448201526f746865206f726465722073746174757360801b60648201526084016106bc565b60078101805483919061ff00191661010083600481111561207c5761207c61344a565b021790555060038260048111156120955761209561344a565b036121ae5760068101543360009081526005602081905260409182902091516120c091850190613f20565b908152602001604051809103902060008282546120dd9190613f2c565b9250508190555061217c338260050180546120f790613c5c565b80601f016020809104026020016040519081016040528092919081815260200182805461212390613c5c565b80156121705780601f1061214557610100808354040283529160200191612170565b820191906000526020600020905b81548152906001019060200180831161215357829003601f168201915b505050505060016131ce565b6121ae57336000908152600760209081526040822080546001810182559083529120016121ac6005830182613f3f565b505b505050565b6001600160a01b03811660009081526020819052604090206001018054606091906121dd90613c5c565b80601f016020809104026020016040519081016040528092919081815260200182805461220990613c5c565b80156122565780601f1061222b57610100808354040283529160200191612256565b820191906000526020600020905b81548152906001019060200180831161223957829003601f168201915b50505050509050919050565b600133600090815260208190526040902060029081015460ff169081111561228c5761228c61344a565b146122a95760405162461bcd60e51b81526004016106bc90613bfd565b600082815260046020526040902060028101546001600160a01b031633146123225760405162461bcd60e51b815260206004820152602660248201527f4f6e6c7920746865206469737472696275746f722063616e2061737369676e2060448201526518481d5b9a5d60d21b60648201526084016106bc565b600082815260026020819052604090912090810154600160a01b900460ff168015612359575060028101546001600160a01b031615155b6123945760405162461bcd60e51b815260206004820152600c60248201526b125b9d985b1a59081d5b9a5d60a21b60448201526064016106bc565b60048201839055600682018054600160ff1991821681179092558282015460078501556008840180549091168280610da5565b600460208190526000918252604090912080546001820154600283015460038401549484015460058501805494966001600160a01b0394851696939094169491929161241290613c5c565b80601f016020809104026020016040519081016040528092919081815260200182805461243e90613c5c565b801561248b5780601f106124605761010080835404028352916020019161248b565b820191906000526020600020905b81548152906001019060200180831161246e57829003601f168201915b5050505060068301546007840154600890940154929360ff918216939092501689565b33600090815260208190526040812060029081015460ff16908111156124d6576124d661344a565b146124f35760405162461bcd60e51b81526004016106bc90613ce1565b6000818152600160208190526040909120908101546001600160a01b031633146125725760405162461bcd60e51b815260206004820152602a60248201527f4f6e6c7920746865206d616e7566616374757265722063616e20726563616c6c604482015269040e8d0ca40c4c2e8c6d60b31b60648201526084016106bc565b60058101805460ff19166001179055604051339083907f5a41088291f050dab11b8aeaaeaa8fd33f2225751a5d64008f812e0362ef472590600090a35050565b600060208190529081526040902080546001820180546001600160a01b0390921692916125de90613c5c565b80601f016020809104026020016040519081016040528092919081815260200182805461260a90613c5c565b80156126575780601f1061262c57610100808354040283529160200191612657565b820191906000526020600020905b81548152906001019060200180831161263a57829003601f168201915b5050506002840154600385018054949560ff90921694919350915061267b90613c5c565b80601f01602080910402602001604051908101604052809291908181526020018280546126a790613c5c565b80156126f45780601f106126c9576101008083540402835291602001916126f4565b820191906000526020600020905b8154815290600101906020018083116126d757829003601f168201915b5050505050905084565b60016020819052600091825260409091208054918101546002820180546001600160a01b03909216929161273190613c5c565b80601f016020809104026020016040519081016040528092919081815260200182805461275d90613c5c565b80156127aa5780601f1061277f576101008083540402835291602001916127aa565b820191906000526020600020905b81548152906001019060200180831161278d57829003601f168201915b5050505060038301546004840154600585015460068601546007870154600890970154959660ff80861697610100870482169750620100009096046001600160a01b0316959316928b565b33600090815260208190526040812060029081015460ff169081111561281d5761281d61344a565b1461283a5760405162461bcd60e51b81526004016106bc90613ce1565b6000818152600160208190526040909120908101546001600160a01b031633146128bb5760405162461bcd60e51b815260206004820152602c60248201527f4f6e6c7920746865206d616e7566616374757265722063616e2064697361707060448201526b726f7665207175616c69747960a01b60648201526084016106bc565b60038101805461ffff1916610100179055604051339083907fc8c94276e66e72c265ff6c7a450b182f9910586a93051227e6024c1fbceaa88e90600090a35050565b33600090815260208190526040902060029081015460ff16818111156129255761292561344a565b146129425760405162461bcd60e51b81526004016106bc90614011565b600082815260046020526040902060018101546001600160a01b031633146129c25760405162461bcd60e51b815260206004820152602d60248201527f4f6e6c79207468652070726f76696465722063616e207570646174652074686560448201526c206f726465722073746174757360981b60648201526084016106bc565b60088101805483919060ff191660018360048111156129e3576129e361344a565b021790555060038260048111156129fc576129fc61344a565b036121ae5760048101546000908152600260208181526040808420858401546001600160a01b031685526005835281852060018083015487529384905294829020915190949293612a4e920190613f20565b90815260200160405180910390206000828254612a6b9190614057565b9091555050336000908152600660209081526040808320600185810154855292839052928190209051919291612aa49160020190613f20565b90815260200160405180910390206000828254612ac19190613f2c565b92505081905550612b763360016000846001015481526020019081526020016000206002018054612af190613c5c565b80601f0160208091040260200160405190810160405280929190818152602001828054612b1d90613c5c565b8015612b6a5780601f10612b3f57610100808354040283529160200191612b6a565b820191906000526020600020905b815481529060010190602001808311612b4d57829003601f168201915b505050505060006131ce565b6121ac573360009081526008602090815260408083206001858101548552808452918420815492830182559084529190922090910190612bb99060020182613f3f565b5050505050565b60606000805b600b54811015612c0a576000818152600360205260409020600101546001600160a01b03808616911603612c025781612bfe81613cc8565b9250505b600101612bc6565b506000816001600160401b03811115612c2557612c25613755565b604051908082528060200260200182016040528015612c5e57816020015b612c4b613279565b815260200190600190039081612c435790505b5090506000805b600b54811015610ff5576000818152600360205260409020600101546001600160a01b03808816911603612dfe576000818152600360208181526040928390208351610120810185528154815260018201546001600160a01b03908116938201939093526002820154909216938201939093529082015460608201526004820154608082015260058201805491929160a084019190612d0390613c5c565b80601f0160208091040260200160405190810160405280929190818152602001828054612d2f90613c5c565b8015612d7c5780601f10612d5157610100808354040283529160200191612d7c565b820191906000526020600020905b815481529060010190602001808311612d5f57829003601f168201915b505050918352505060068201546020820152600782015460ff80821615156040840152606090920191610100909104166004811115612dbd57612dbd61344a565b6004811115612dce57612dce61344a565b81525050838381518110612de457612de4613c46565b60200260200101819052508180612dfa90613cc8565b9250505b600101612c65565b60086020528160005260406000208181548110612e2257600080fd5b90600052602060002001600091509150508054612e3e90613c5c565b80601f0160208091040260200160405190810160405280929190818152602001828054612e6a90613c5c565b8015612eb75780601f10612e8c57610100808354040283529160200191612eb7565b820191906000526020600020905b815481529060010190602001808311612e9a57829003601f168201915b505050505081565b60076020528160005260406000208181548110612e2257600080fd5b600133600090815260208190526040902060029081015460ff1690811115612f0557612f0561344a565b14612f225760405162461bcd60e51b81526004016106bc90613bfd565b600b805460009182612f3383613cc8565b90915550604080516101208101825282815233602082015260009181018290524260608201526080810182905260a0810186905260c0810185905260e0810182905291925061010082015260008281526003602081815260409283902084518155908401516001820180546001600160a01b03199081166001600160a01b0393841617909155938501516002830180549095169116179092556060830151908201556080820151600482015560a08201516005820190612ff39082613d7b565b5060c0820151600682015560e082015160078201805491151560ff19831681178255610100808601519361ff001990921661ffff1990921691909117908360048111156130425761304261344a565b02179055505050505050565b33600090815260208190526040902060029081015460ff16818111156130765761307661344a565b146130935760405162461bcd60e51b81526004016106bc90614011565b600c8054600091826130a483613cc8565b919050559050604051806101200160405280828152602001336001600160a01b03168152602001836001600160a01b031681526020014281526020016000815260200184815260200160001515815260200160008152602001600060048111156131105761311061344a565b905260008281526004602081815260409283902084518155908401516001820180546001600160a01b03199081166001600160a01b0393841617909155938501516002830180549095169116179092556060830151600383015560808301519082015560a082015160058201906131879082613d7b565b5060c082015160068201805491151560ff1992831617905560e08301516007830155610100830151600883018054919290911660018360048111156130425761304261344a565b600080826131f3576001600160a01b038516600090815260086020526040902061320c565b6001600160a01b03851660009081526007602052604090205b905060005b815481101561326b57848051906020012082828154811061323457613234613c46565b9060005260206000200160405161324b9190613f20565b60405180910390200361326357600192505050613272565b600101613211565b5060009150505b9392505050565b604080516101208101825260008082526020820181905291810182905260608082018390526080820183905260a082015260c0810182905260e081018290529061010082015290565b604080516101608101825260008082526020820181905260609282018390529181018290526080810182905260a0810182905260c0810182905260e081018290526101008101829052610120810182905261014081019190915290565b80356001600160a01b038116811461333657600080fd5b919050565b6000806040838503121561334e57600080fd5b8235915061335e6020840161331f565b90509250929050565b60006020828403121561337957600080fd5b6132728261331f565b60005b8381101561339d578181015183820152602001613385565b50506000910152565b600081518084526133be816020860160208601613382565b601f01601f19169290920160200192915050565b600060208083018184528085518083526040925060408601915060408160051b87010184880160005b8381101561343c57888303603f190185528151805187855261341f888601826133a6565b9189015194890194909452948701949250908601906001016133fb565b509098975050505050505050565b634e487b7160e01b600052602160045260246000fd5b600581106134705761347061344a565b9052565b600060208083018184528085518083526040925060408601915060408160051b87010184880160005b8381101561343c57603f19898403018552815180518452878101516001600160a01b0390811689860152878201511687850152606080820151908501526080808201519085015260a0808201516101208287018190529190613501838801826133a6565b9250505060c080830151818701525060e0808301516135238288018215159052565b5050610100918201519161353986820184613460565b50958801959350509086019060010161349d565b6000806040838503121561356057600080fd5b50508035926020909101359150565b600060208083018184528085518083526040925060408601915060408160051b87010184880160005b8381101561343c57603f19898403018552815180518452878101516001600160a01b0390811689860152878201511687850152606080820151908501526080808201519085015260a08082015161012082870181905291906135fc838801826133a6565b9250505060c0808301516136138288018215159052565b505060e08281015190860152610100918201519161363381870184613460565b509588019593505090860190600101613598565b600381106134705761347061344a565b602081016136658284613647565b92915050565b600060208083018184528085518083526040925060408601915060408160051b87010184880160005b8381101561343c57603f19898403018552815180518452878101516001600160a01b03168885015286810151610160888601819052906136d6828701826133a6565b9150506060808301516136ec8288018215159052565b505060808281015115159086015260a0808301516001600160a01b03169086015260c0808301519086015260e080830151151590860152610100808301519086015261012080830151908601526101409182015191909401529386019390860190600101613694565b634e487b7160e01b600052604160045260246000fd5b600082601f83011261377c57600080fd5b81356001600160401b038082111561379657613796613755565b604051601f8301601f19908116603f011681019082821181831017156137be576137be613755565b816040528381528660208588010111156137d757600080fd5b836020870160208301376000602085830101528094505050505092915050565b6000806000806080858703121561380d57600080fd5b6138168561331f565b935060208501356001600160401b038082111561383257600080fd5b61383e8883890161376b565b9450604087013591506003821061385457600080fd5b9092506060860135908082111561386a57600080fd5b506138778782880161376b565b91505092959194509250565b6000806000806080858703121561389957600080fd5b84356001600160401b038111156138af57600080fd5b6138bb8782880161376b565b97602087013597506040870135966060013595509350505050565b6000602082840312156138e857600080fd5b5035919050565b8981526001600160a01b03898116602083015288166040820152606081018790526080810186905261012060a08201819052600090613930838201886133a6565b9150508460c083015283151560e083015261394f610100830184613460565b9a9950505050505050505050565b60608152600061397060608301866133a6565b828103602084015261398281866133a6565b9150506139926040830184613647565b949350505050565b600080604083850312156139ad57600080fd5b6139b68361331f565b915060208301356001600160401b038111156139d157600080fd5b6139dd8582860161376b565b9150509250929050565b600080604083850312156139fa57600080fd5b82359150602083013560058110613a1057600080fd5b809150509250929050565b60208152600061327260208301846133a6565b8981526001600160a01b03898116602083015288166040820152606081018790526080810186905261012060a08201819052600090613a6f838201886133a6565b91505084151560c08301528360e083015261394f610100830184613460565b6001600160a01b0385168152608060208201819052600090613ab2908301866133a6565b613abf6040840186613647565b8281036060840152613ad181856133a6565b979650505050505050565b8b81526001600160a01b038b8116602083015261016060408301819052600091613b088483018e6133a6565b9b15156060850152991515608084015250509590961660a086015260c085019390935290151560e084015261010083015261012082015261014001529392505050565b60008060408385031215613b5e57600080fd5b613b678361331f565b946020939093013593505050565b60008060408385031215613b8857600080fd5b82356001600160401b03811115613b9e57600080fd5b613baa8582860161376b565b95602094909401359450505050565b60008060408385031215613bcc57600080fd5b82356001600160401b03811115613be257600080fd5b613bee8582860161376b565b92505061335e6020840161331f565b60208082526029908201527f4f6e6c79206469737472696275746f72732063616e20706572666f726d20746860408201526834b99030b1ba34b7b760b91b606082015260800190565b634e487b7160e01b600052603260045260246000fd5b600181811c90821680613c7057607f821691505b602082108103613c9057634e487b7160e01b600052602260045260246000fd5b50919050565b60008251613ca8818460208701613382565b9190910192915050565b634e487b7160e01b600052601160045260246000fd5b600060018201613cda57613cda613cb2565b5060010190565b6020808252602a908201527f4f6e6c79206d616e756661637475726572732063616e20706572666f726d20746040820152693434b99030b1ba34b7b760b11b606082015260800190565b601f8211156121ae576000816000526020600020601f850160051c81016020861015613d545750805b601f850160051c820191505b81811015613d7357828155600101613d60565b505050505050565b81516001600160401b03811115613d9457613d94613755565b613da881613da28454613c5c565b84613d2b565b602080601f831160018114613ddd5760008415613dc55750858301515b600019600386901b1c1916600185901b178555613d73565b600085815260208120601f198616915b82811015613e0c57888601518255948401946001909101908401613ded565b5085821015613e2a5787850151600019600388901b60f8161c191681555b5050505050600190811b01905550565b606081526000613e4d60608301866133a6565b613e5a6020840186613647565b8281036040840152613e6c81856133a6565b9695505050505050565b60a081526000613e8960a08301886133a6565b90508560208301528460408301528360608301528260808301529695505050505050565b60008154613eba81613c5c565b60018281168015613ed25760018114613ee757613f16565b60ff1984168752821515830287019450613f16565b8560005260208060002060005b85811015613f0d5781548a820152908401908201613ef4565b50505082870194505b5050505092915050565b60006132728284613ead565b8082018082111561366557613665613cb2565b818103613f4a575050565b613f548254613c5c565b6001600160401b03811115613f6b57613f6b613755565b613f7981613da28454613c5c565b6000601f821160018114613fad5760008315613f955750848201545b600019600385901b1c1916600184901b178455612bb9565b600085815260209020601f19841690600086815260209020845b83811015613fe75782860154825560019586019590910190602001613fc7565b5085831015613e2a5793015460001960f8600387901b161c19169092555050600190811b01905550565b60208082526026908201527f4f6e6c792070726f7669646572732063616e20706572666f726d20746869732060408201526530b1ba34b7b760d11b606082015260800190565b8181038181111561366557613665613cb256fea26469706673582212200dbdb226647e21444f7639274a838faeb0cc8ae169d1b26175a84fe04186de6064736f6c63430008180033",
  "linkReferences": {},
  "deployedLinkReferences": {}
}