{
  "_format": "hh-sol-artifact-1",
  "contractName": "PharmaChain",
  "sourceName": "contracts/PharmaChain.sol",
  "abi": [
    {
      "anonymous": false,
      "inputs": [
        {
          "indexed": true,
          "internalType": "uint256",
          "name": "batchId",
          "type": "uint256"
        },
        {
          "indexed": true,
          "internalType": "address",
          "name": "distributor",
          "type": "address"
        }
      ],
      "name": "BatchAssignedToDistributor",
      "type": "event"
    },
    {
      "anonymous": false,
      "inputs": [
        {
          "indexed": true,
          "internalType": "uint256",
          "name": "batchId",
          "type": "uint256"
        },
        {
          "indexed": true,
          "internalType": "address",
          "name": "provider",
          "type": "address"
        }
      ],
      "name": "BatchAssignedToProvider",
      "type": "event"
    },
    {
      "anonymous": false,
      "inputs": [
        {
          "indexed": true,
          "internalType": "uint256",
          "name": "batchId",
          "type": "uint256"
        },
        {
          "indexed": true,
          "internalType": "address",
          "name": "manufacturer",
          "type": "address"
        },
        {
          "indexed": false,
          "internalType": "string",
          "name": "details",
          "type": "string"
        },
        {
          "indexed": false,
          "internalType": "bytes32",
          "name": "rfidUIDHash",
          "type": "bytes32"
        },
        {
          "indexed": false,
          "internalType": "uint256",
          "name": "manufactureDate",
          "type": "uint256"
        },
        {
          "indexed": false,
          "internalType": "uint256",
          "name": "expiryDate",
          "type": "uint256"
        },
        {
          "indexed": false,
          "internalType": "uint256",
          "name": "quantity",
          "type": "uint256"
        }
      ],
      "name": "BatchCreated",
      "type": "event"
    },
    {
      "anonymous": false,
      "inputs": [
        {
          "indexed": true,
          "internalType": "uint256",
          "name": "batchId",
          "type": "uint256"
        },
        {
          "indexed": true,
          "internalType": "address",
          "name": "initiator",
          "type": "address"
        }
      ],
      "name": "BatchRecalled",
      "type": "event"
    },
    {
      "anonymous": false,
      "inputs": [
        {
          "indexed": true,
          "internalType": "uint256",
          "name": "batchId",
          "type": "uint256"
        },
        {
          "indexed": true,
          "internalType": "address",
          "name": "approver",
          "type": "address"
        }
      ],
      "name": "QualityApproved",
      "type": "event"
    },
    {
      "anonymous": false,
      "inputs": [
        {
          "indexed": true,
          "internalType": "uint256",
          "name": "batchId",
          "type": "uint256"
        },
        {
          "indexed": true,
          "internalType": "address",
          "name": "disapprover",
          "type": "address"
        }
      ],
      "name": "QualityDisapproved",
      "type": "event"
    },
    {
      "anonymous": false,
      "inputs": [
        {
          "indexed": true,
          "internalType": "address",
          "name": "user",
          "type": "address"
        },
        {
          "indexed": false,
          "internalType": "string",
          "name": "companyName",
          "type": "string"
        },
        {
          "indexed": false,
          "internalType": "enum PharmaChain.Role",
          "name": "role",
          "type": "uint8"
        },
        {
          "indexed": false,
          "internalType": "string",
          "name": "contactInfo",
          "type": "string"
        }
      ],
      "name": "UserRegistered",
      "type": "event"
    },
    {
      "inputs": [
        {
          "internalType": "uint256",
          "name": "_batchId",
          "type": "uint256"
        }
      ],
      "name": "approveQuality",
      "outputs": [],
      "stateMutability": "nonpayable",
      "type": "function"
    },
    {
      "inputs": [
        {
          "internalType": "uint256",
          "name": "_batchId",
          "type": "uint256"
        },
        {
          "internalType": "address",
          "name": "_provider",
          "type": "address"
        }
      ],
      "name": "assignBatchToProvider",
      "outputs": [],
      "stateMutability": "nonpayable",
      "type": "function"
    },
    {
      "inputs": [
        {
          "internalType": "uint256",
          "name": "_batchId",
          "type": "uint256"
        },
        {
          "internalType": "address",
          "name": "_distributor",
          "type": "address"
        },
        {
          "internalType": "uint256",
          "name": "_orderId",
          "type": "uint256"
        }
      ],
      "name": "assignToDistributor",
      "outputs": [],
      "stateMutability": "nonpayable",
      "type": "function"
    },
    {
      "inputs": [
        {
          "internalType": "uint256",
          "name": "",
          "type": "uint256"
        }
      ],
      "name": "batches",
      "outputs": [
        {
          "internalType": "uint256",
          "name": "batchId",
          "type": "uint256"
        },
        {
          "internalType": "address",
          "name": "manufacturer",
          "type": "address"
        },
        {
          "internalType": "string",
          "name": "details",
          "type": "string"
        },
        {
          "internalType": "bool",
          "name": "isQualityApproved",
          "type": "bool"
        },
        {
          "internalType": "bool",
          "name": "isQualityDisapproved",
          "type": "bool"
        },
        {
          "internalType": "address",
          "name": "distributor",
          "type": "address"
        },
        {
          "internalType": "bytes32",
          "name": "rfidUIDHash",
          "type": "bytes32"
        },
        {
          "internalType": "bool",
          "name": "isRecalled",
          "type": "bool"
        },
        {
          "internalType": "uint256",
          "name": "manufactureDate",
          "type": "uint256"
        },
        {
          "internalType": "uint256",
          "name": "expiryDate",
          "type": "uint256"
        },
        {
          "internalType": "uint256",
          "name": "quantity",
          "type": "uint256"
        },
        {
          "internalType": "uint256",
          "name": "orderId",
          "type": "uint256"
        }
      ],
      "stateMutability": "view",
      "type": "function"
    },
    {
      "inputs": [
        {
          "internalType": "string",
          "name": "_details",
          "type": "string"
        },
        {
          "internalType": "bytes32",
          "name": "_rfidUIDHash",
          "type": "bytes32"
        },
        {
          "internalType": "uint256",
          "name": "_expiryDate",
          "type": "uint256"
        },
        {
          "internalType": "uint256",
          "name": "_quantity",
          "type": "uint256"
        }
      ],
      "name": "createBatch",
      "outputs": [],
      "stateMutability": "nonpayable",
      "type": "function"
    },
    {
      "inputs": [
        {
          "internalType": "string",
          "name": "_medName",
          "type": "string"
        },
        {
          "internalType": "uint256",
          "name": "_quantity",
          "type": "uint256"
        }
      ],
      "name": "createDistributorOrder",
      "outputs": [],
      "stateMutability": "nonpayable",
      "type": "function"
    },
    {
      "inputs": [
        {
          "internalType": "string",
          "name": "_medName",
          "type": "string"
        },
        {
          "internalType": "uint256",
          "name": "_qunatity",
          "type": "uint256"
        }
      ],
      "name": "createProviderOrder",
      "outputs": [],
      "stateMutability": "nonpayable",
      "type": "function"
    },
    {
      "inputs": [
        {
          "internalType": "uint256",
          "name": "_batchId",
          "type": "uint256"
        }
      ],
      "name": "disapproveQuality",
      "outputs": [],
      "stateMutability": "nonpayable",
      "type": "function"
    },
    {
      "inputs": [
        {
          "internalType": "address",
          "name": "",
          "type": "address"
        },
        {
          "internalType": "uint256",
          "name": "",
          "type": "uint256"
        }
      ],
      "name": "distributorMedNames",
      "outputs": [
        {
          "internalType": "string",
          "name": "",
          "type": "string"
        }
      ],
      "stateMutability": "view",
      "type": "function"
    },
    {
      "inputs": [
        {
          "internalType": "uint256",
          "name": "",
          "type": "uint256"
        }
      ],
      "name": "distributorOrders",
      "outputs": [
        {
          "internalType": "string",
          "name": "medName",
          "type": "string"
        },
        {
          "internalType": "uint256",
          "name": "quantity",
          "type": "uint256"
        },
        {
          "internalType": "uint256",
          "name": "orderId",
          "type": "uint256"
        },
        {
          "internalType": "uint256",
          "name": "batchId",
          "type": "uint256"
        },
        {
          "internalType": "address",
          "name": "distributor",
          "type": "address"
        },
        {
          "internalType": "address",
          "name": "manufacturer",
          "type": "address"
        },
        {
          "internalType": "bool",
          "name": "isAssigned",
          "type": "bool"
        },
        {
          "internalType": "uint256",
          "name": "orderDate",
          "type": "uint256"
        },
        {
          "internalType": "uint256",
          "name": "orderApprovedDate",
          "type": "uint256"
        },
        {
          "internalType": "enum PharmaChain.OrderStatus",
          "name": "status",
          "type": "uint8"
        }
      ],
      "stateMutability": "view",
      "type": "function"
    },
    {
      "inputs": [
        {
          "internalType": "address",
          "name": "",
          "type": "address"
        },
        {
          "internalType": "string",
          "name": "",
          "type": "string"
        }
      ],
      "name": "distributorStocks",
      "outputs": [
        {
          "internalType": "uint256",
          "name": "",
          "type": "uint256"
        }
      ],
      "stateMutability": "view",
      "type": "function"
    },
    {
      "inputs": [
        {
          "internalType": "address",
          "name": "_user",
          "type": "address"
        }
      ],
      "name": "getCompanyNameFromAddress",
      "outputs": [
        {
          "internalType": "string",
          "name": "",
          "type": "string"
        }
      ],
      "stateMutability": "view",
      "type": "function"
    },
    {
      "inputs": [
        {
          "internalType": "address",
          "name": "_manufacturer",
          "type": "address"
        }
      ],
      "name": "getCreatedBatches",
      "outputs": [
        {
          "components": [
            {
              "internalType": "uint256",
              "name": "batchId",
              "type": "uint256"
            },
            {
              "internalType": "address",
              "name": "manufacturer",
              "type": "address"
            },
            {
              "internalType": "string",
              "name": "details",
              "type": "string"
            },
            {
              "internalType": "bool",
              "name": "isQualityApproved",
              "type": "bool"
            },
            {
              "internalType": "bool",
              "name": "isQualityDisapproved",
              "type": "bool"
            },
            {
              "internalType": "address",
              "name": "distributor",
              "type": "address"
            },
            {
              "internalType": "bytes32",
              "name": "rfidUIDHash",
              "type": "bytes32"
            },
            {
              "internalType": "bool",
              "name": "isRecalled",
              "type": "bool"
            },
            {
              "internalType": "uint256",
              "name": "manufactureDate",
              "type": "uint256"
            },
            {
              "internalType": "uint256",
              "name": "expiryDate",
              "type": "uint256"
            },
            {
              "internalType": "uint256",
              "name": "quantity",
              "type": "uint256"
            },
            {
              "internalType": "uint256",
              "name": "orderId",
              "type": "uint256"
            }
          ],
          "internalType": "struct PharmaChain.Batch[]",
          "name": "",
          "type": "tuple[]"
        }
      ],
      "stateMutability": "view",
      "type": "function"
    },
    {
      "inputs": [
        {
          "internalType": "uint256",
          "name": "_orderId",
          "type": "uint256"
        }
      ],
      "name": "getDistributorOrder",
      "outputs": [
        {
          "components": [
            {
              "internalType": "string",
              "name": "medName",
              "type": "string"
            },
            {
              "internalType": "uint256",
              "name": "quantity",
              "type": "uint256"
            },
            {
              "internalType": "uint256",
              "name": "orderId",
              "type": "uint256"
            },
            {
              "internalType": "uint256",
              "name": "batchId",
              "type": "uint256"
            },
            {
              "internalType": "address",
              "name": "distributor",
              "type": "address"
            },
            {
              "internalType": "address",
              "name": "manufacturer",
              "type": "address"
            },
            {
              "internalType": "bool",
              "name": "isAssigned",
              "type": "bool"
            },
            {
              "internalType": "uint256",
              "name": "orderDate",
              "type": "uint256"
            },
            {
              "internalType": "uint256",
              "name": "orderApprovedDate",
              "type": "uint256"
            },
            {
              "internalType": "enum PharmaChain.OrderStatus",
              "name": "status",
              "type": "uint8"
            }
          ],
          "internalType": "struct PharmaChain.DistributorOrder",
          "name": "",
          "type": "tuple"
        }
      ],
      "stateMutability": "view",
      "type": "function"
    },
    {
      "inputs": [
        {
          "internalType": "bytes32",
          "name": "_rfidUIDHash",
          "type": "bytes32"
        }
      ],
      "name": "getDistributorOrderByRFID",
      "outputs": [
        {
          "components": [
            {
              "internalType": "string",
              "name": "medName",
              "type": "string"
            },
            {
              "internalType": "uint256",
              "name": "quantity",
              "type": "uint256"
            },
            {
              "internalType": "uint256",
              "name": "orderId",
              "type": "uint256"
            },
            {
              "internalType": "uint256",
              "name": "batchId",
              "type": "uint256"
            },
            {
              "internalType": "address",
              "name": "distributor",
              "type": "address"
            },
            {
              "internalType": "address",
              "name": "manufacturer",
              "type": "address"
            },
            {
              "internalType": "bool",
              "name": "isAssigned",
              "type": "bool"
            },
            {
              "internalType": "uint256",
              "name": "orderDate",
              "type": "uint256"
            },
            {
              "internalType": "uint256",
              "name": "orderApprovedDate",
              "type": "uint256"
            },
            {
              "internalType": "enum PharmaChain.OrderStatus",
              "name": "status",
              "type": "uint8"
            }
          ],
          "internalType": "struct PharmaChain.DistributorOrder",
          "name": "",
          "type": "tuple"
        }
      ],
      "stateMutability": "view",
      "type": "function"
    },
    {
      "inputs": [
        {
          "internalType": "address",
          "name": "_distributor",
          "type": "address"
        }
      ],
      "name": "getDistributorOrders",
      "outputs": [
        {
          "components": [
            {
              "internalType": "string",
              "name": "medName",
              "type": "string"
            },
            {
              "internalType": "uint256",
              "name": "quantity",
              "type": "uint256"
            },
            {
              "internalType": "uint256",
              "name": "orderId",
              "type": "uint256"
            },
            {
              "internalType": "uint256",
              "name": "batchId",
              "type": "uint256"
            },
            {
              "internalType": "address",
              "name": "distributor",
              "type": "address"
            },
            {
              "internalType": "address",
              "name": "manufacturer",
              "type": "address"
            },
            {
              "internalType": "bool",
              "name": "isAssigned",
              "type": "bool"
            },
            {
              "internalType": "uint256",
              "name": "orderDate",
              "type": "uint256"
            },
            {
              "internalType": "uint256",
              "name": "orderApprovedDate",
              "type": "uint256"
            },
            {
              "internalType": "enum PharmaChain.OrderStatus",
              "name": "status",
              "type": "uint8"
            }
          ],
          "internalType": "struct PharmaChain.DistributorOrder[]",
          "name": "",
          "type": "tuple[]"
        }
      ],
      "stateMutability": "view",
      "type": "function"
    },
    {
      "inputs": [
        {
          "internalType": "address",
          "name": "_distributor",
          "type": "address"
        }
      ],
      "name": "getDistributorStock",
      "outputs": [
        {
          "components": [
            {
              "internalType": "string",
              "name": "medName",
              "type": "string"
            },
            {
              "internalType": "uint256",
              "name": "quantity",
              "type": "uint256"
            }
          ],
          "internalType": "struct PharmaChain.StockItem[]",
          "name": "",
          "type": "tuple[]"
        }
      ],
      "stateMutability": "view",
      "type": "function"
    },
    {
      "inputs": [
        {
          "internalType": "address",
          "name": "_manufacturer",
          "type": "address"
        }
      ],
      "name": "getFulfilledBatches",
      "outputs": [
        {
          "components": [
            {
              "internalType": "uint256",
              "name": "batchId",
              "type": "uint256"
            },
            {
              "internalType": "address",
              "name": "manufacturer",
              "type": "address"
            },
            {
              "internalType": "string",
              "name": "details",
              "type": "string"
            },
            {
              "internalType": "bool",
              "name": "isQualityApproved",
              "type": "bool"
            },
            {
              "internalType": "bool",
              "name": "isQualityDisapproved",
              "type": "bool"
            },
            {
              "internalType": "address",
              "name": "distributor",
              "type": "address"
            },
            {
              "internalType": "bytes32",
              "name": "rfidUIDHash",
              "type": "bytes32"
            },
            {
              "internalType": "bool",
              "name": "isRecalled",
              "type": "bool"
            },
            {
              "internalType": "uint256",
              "name": "manufactureDate",
              "type": "uint256"
            },
            {
              "internalType": "uint256",
              "name": "expiryDate",
              "type": "uint256"
            },
            {
              "internalType": "uint256",
              "name": "quantity",
              "type": "uint256"
            },
            {
              "internalType": "uint256",
              "name": "orderId",
              "type": "uint256"
            }
          ],
          "internalType": "struct PharmaChain.Batch[]",
          "name": "",
          "type": "tuple[]"
        }
      ],
      "stateMutability": "view",
      "type": "function"
    },
    {
      "inputs": [
        {
          "internalType": "address",
          "name": "_distributor",
          "type": "address"
        }
      ],
      "name": "getFulfilledDistributorOrders",
      "outputs": [
        {
          "components": [
            {
              "internalType": "string",
              "name": "medName",
              "type": "string"
            },
            {
              "internalType": "uint256",
              "name": "quantity",
              "type": "uint256"
            },
            {
              "internalType": "uint256",
              "name": "orderId",
              "type": "uint256"
            },
            {
              "internalType": "uint256",
              "name": "batchId",
              "type": "uint256"
            },
            {
              "internalType": "address",
              "name": "distributor",
              "type": "address"
            },
            {
              "internalType": "address",
              "name": "manufacturer",
              "type": "address"
            },
            {
              "internalType": "bool",
              "name": "isAssigned",
              "type": "bool"
            },
            {
              "internalType": "uint256",
              "name": "orderDate",
              "type": "uint256"
            },
            {
              "internalType": "uint256",
              "name": "orderApprovedDate",
              "type": "uint256"
            },
            {
              "internalType": "enum PharmaChain.OrderStatus",
              "name": "status",
              "type": "uint8"
            }
          ],
          "internalType": "struct PharmaChain.DistributorOrder[]",
          "name": "",
          "type": "tuple[]"
        }
      ],
      "stateMutability": "view",
      "type": "function"
    },
    {
      "inputs": [
        {
          "internalType": "address",
          "name": "_provider",
          "type": "address"
        }
      ],
      "name": "getFulfilledProviderOrders",
      "outputs": [
        {
          "components": [
            {
              "internalType": "string",
              "name": "medName",
              "type": "string"
            },
            {
              "internalType": "uint256",
              "name": "quantity",
              "type": "uint256"
            },
            {
              "internalType": "uint256",
              "name": "orderId",
              "type": "uint256"
            },
            {
              "internalType": "uint256",
              "name": "batchId",
              "type": "uint256"
            },
            {
              "internalType": "address",
              "name": "provider",
              "type": "address"
            },
            {
              "internalType": "address",
              "name": "distributor",
              "type": "address"
            },
            {
              "internalType": "bool",
              "name": "isAssigned",
              "type": "bool"
            },
            {
              "internalType": "uint256",
              "name": "orderDate",
              "type": "uint256"
            },
            {
              "internalType": "uint256",
              "name": "orderApprovedDate",
              "type": "uint256"
            },
            {
              "internalType": "enum PharmaChain.OrderStatus",
              "name": "status",
              "type": "uint8"
            }
          ],
          "internalType": "struct PharmaChain.ProviderOrder[]",
          "name": "",
          "type": "tuple[]"
        }
      ],
      "stateMutability": "view",
      "type": "function"
    },
    {
      "inputs": [],
      "name": "getPendingDistributorOrders",
      "outputs": [
        {
          "components": [
            {
              "internalType": "string",
              "name": "medName",
              "type": "string"
            },
            {
              "internalType": "uint256",
              "name": "quantity",
              "type": "uint256"
            },
            {
              "internalType": "uint256",
              "name": "orderId",
              "type": "uint256"
            },
            {
              "internalType": "uint256",
              "name": "batchId",
              "type": "uint256"
            },
            {
              "internalType": "address",
              "name": "distributor",
              "type": "address"
            },
            {
              "internalType": "address",
              "name": "manufacturer",
              "type": "address"
            },
            {
              "internalType": "bool",
              "name": "isAssigned",
              "type": "bool"
            },
            {
              "internalType": "uint256",
              "name": "orderDate",
              "type": "uint256"
            },
            {
              "internalType": "uint256",
              "name": "orderApprovedDate",
              "type": "uint256"
            },
            {
              "internalType": "enum PharmaChain.OrderStatus",
              "name": "status",
              "type": "uint8"
            }
          ],
          "internalType": "struct PharmaChain.DistributorOrder[]",
          "name": "",
          "type": "tuple[]"
        }
      ],
      "stateMutability": "view",
      "type": "function"
    },
    {
      "inputs": [],
      "name": "getPendingProviderOrders",
      "outputs": [
        {
          "components": [
            {
              "internalType": "string",
              "name": "medName",
              "type": "string"
            },
            {
              "internalType": "uint256",
              "name": "quantity",
              "type": "uint256"
            },
            {
              "internalType": "uint256",
              "name": "orderId",
              "type": "uint256"
            },
            {
              "internalType": "uint256",
              "name": "batchId",
              "type": "uint256"
            },
            {
              "internalType": "address",
              "name": "provider",
              "type": "address"
            },
            {
              "internalType": "address",
              "name": "distributor",
              "type": "address"
            },
            {
              "internalType": "bool",
              "name": "isAssigned",
              "type": "bool"
            },
            {
              "internalType": "uint256",
              "name": "orderDate",
              "type": "uint256"
            },
            {
              "internalType": "uint256",
              "name": "orderApprovedDate",
              "type": "uint256"
            },
            {
              "internalType": "enum PharmaChain.OrderStatus",
              "name": "status",
              "type": "uint8"
            }
          ],
          "internalType": "struct PharmaChain.ProviderOrder[]",
          "name": "",
          "type": "tuple[]"
        }
      ],
      "stateMutability": "view",
      "type": "function"
    },
    {
      "inputs": [
        {
          "internalType": "bytes32",
          "name": "_rfidUIDHash",
          "type": "bytes32"
        }
      ],
      "name": "getProviderOrderByRFID",
      "outputs": [
        {
          "components": [
            {
              "internalType": "string",
              "name": "medName",
              "type": "string"
            },
            {
              "internalType": "uint256",
              "name": "quantity",
              "type": "uint256"
            },
            {
              "internalType": "uint256",
              "name": "orderId",
              "type": "uint256"
            },
            {
              "internalType": "uint256",
              "name": "batchId",
              "type": "uint256"
            },
            {
              "internalType": "address",
              "name": "provider",
              "type": "address"
            },
            {
              "internalType": "address",
              "name": "distributor",
              "type": "address"
            },
            {
              "internalType": "bool",
              "name": "isAssigned",
              "type": "bool"
            },
            {
              "internalType": "uint256",
              "name": "orderDate",
              "type": "uint256"
            },
            {
              "internalType": "uint256",
              "name": "orderApprovedDate",
              "type": "uint256"
            },
            {
              "internalType": "enum PharmaChain.OrderStatus",
              "name": "status",
              "type": "uint8"
            }
          ],
          "internalType": "struct PharmaChain.ProviderOrder",
          "name": "",
          "type": "tuple"
        }
      ],
      "stateMutability": "view",
      "type": "function"
    },
    {
      "inputs": [
        {
          "internalType": "uint256",
          "name": "_orderId",
          "type": "uint256"
        }
      ],
      "name": "getProviderOrderDetails",
      "outputs": [
        {
          "components": [
            {
              "internalType": "string",
              "name": "medName",
              "type": "string"
            },
            {
              "internalType": "uint256",
              "name": "quantity",
              "type": "uint256"
            },
            {
              "internalType": "uint256",
              "name": "orderId",
              "type": "uint256"
            },
            {
              "internalType": "uint256",
              "name": "batchId",
              "type": "uint256"
            },
            {
              "internalType": "address",
              "name": "provider",
              "type": "address"
            },
            {
              "internalType": "address",
              "name": "distributor",
              "type": "address"
            },
            {
              "internalType": "bool",
              "name": "isAssigned",
              "type": "bool"
            },
            {
              "internalType": "uint256",
              "name": "orderDate",
              "type": "uint256"
            },
            {
              "internalType": "uint256",
              "name": "orderApprovedDate",
              "type": "uint256"
            },
            {
              "internalType": "enum PharmaChain.OrderStatus",
              "name": "status",
              "type": "uint8"
            }
          ],
          "internalType": "struct PharmaChain.ProviderOrder",
          "name": "",
          "type": "tuple"
        }
      ],
      "stateMutability": "view",
      "type": "function"
    },
    {
      "inputs": [
        {
          "internalType": "bytes32",
          "name": "_rfidUIDHash",
          "type": "bytes32"
        }
      ],
      "name": "getProviderOrderIdByRFID",
      "outputs": [
        {
          "internalType": "uint256",
          "name": "",
          "type": "uint256"
        }
      ],
      "stateMutability": "view",
      "type": "function"
    },
    {
      "inputs": [
        {
          "internalType": "address",
          "name": "_provider",
          "type": "address"
        }
      ],
      "name": "getProviderOrders",
      "outputs": [
        {
          "components": [
            {
              "internalType": "string",
              "name": "medName",
              "type": "string"
            },
            {
              "internalType": "uint256",
              "name": "quantity",
              "type": "uint256"
            },
            {
              "internalType": "uint256",
              "name": "orderId",
              "type": "uint256"
            },
            {
              "internalType": "uint256",
              "name": "batchId",
              "type": "uint256"
            },
            {
              "internalType": "address",
              "name": "provider",
              "type": "address"
            },
            {
              "internalType": "address",
              "name": "distributor",
              "type": "address"
            },
            {
              "internalType": "bool",
              "name": "isAssigned",
              "type": "bool"
            },
            {
              "internalType": "uint256",
              "name": "orderDate",
              "type": "uint256"
            },
            {
              "internalType": "uint256",
              "name": "orderApprovedDate",
              "type": "uint256"
            },
            {
              "internalType": "enum PharmaChain.OrderStatus",
              "name": "status",
              "type": "uint8"
            }
          ],
          "internalType": "struct PharmaChain.ProviderOrder[]",
          "name": "",
          "type": "tuple[]"
        }
      ],
      "stateMutability": "view",
      "type": "function"
    },
    {
      "inputs": [
        {
          "internalType": "address",
          "name": "_provider",
          "type": "address"
        }
      ],
      "name": "getProviderStock",
      "outputs": [
        {
          "components": [
            {
              "internalType": "string",
              "name": "medName",
              "type": "string"
            },
            {
              "internalType": "uint256",
              "name": "quantity",
              "type": "uint256"
            }
          ],
          "internalType": "struct PharmaChain.StockItem[]",
          "name": "",
          "type": "tuple[]"
        }
      ],
      "stateMutability": "view",
      "type": "function"
    },
    {
      "inputs": [
        {
          "internalType": "address",
          "name": "_user",
          "type": "address"
        }
      ],
      "name": "getUserByAddress",
      "outputs": [
        {
          "components": [
            {
              "internalType": "address",
              "name": "account",
              "type": "address"
            },
            {
              "internalType": "string",
              "name": "companyName",
              "type": "string"
            },
            {
              "internalType": "enum PharmaChain.Role",
              "name": "role",
              "type": "uint8"
            },
            {
              "internalType": "string",
              "name": "contactInfo",
              "type": "string"
            }
          ],
          "internalType": "struct PharmaChain.User",
          "name": "",
          "type": "tuple"
        }
      ],
      "stateMutability": "view",
      "type": "function"
    },
    {
      "inputs": [
        {
          "internalType": "address",
          "name": "_user",
          "type": "address"
        }
      ],
      "name": "getUserInfo",
      "outputs": [
        {
          "internalType": "string",
          "name": "companyName",
          "type": "string"
        },
        {
          "internalType": "string",
          "name": "contactInfo",
          "type": "string"
        },
        {
          "internalType": "enum PharmaChain.Role",
          "name": "role",
          "type": "uint8"
        }
      ],
      "stateMutability": "view",
      "type": "function"
    },
    {
      "inputs": [
        {
          "internalType": "address",
          "name": "_user",
          "type": "address"
        }
      ],
      "name": "getUserRole",
      "outputs": [
        {
          "internalType": "enum PharmaChain.Role",
          "name": "",
          "type": "uint8"
        }
      ],
      "stateMutability": "view",
      "type": "function"
    },
    {
      "inputs": [
        {
          "internalType": "address",
          "name": "_user",
          "type": "address"
        }
      ],
      "name": "isUserRegistered",
      "outputs": [
        {
          "internalType": "bool",
          "name": "",
          "type": "bool"
        }
      ],
      "stateMutability": "view",
      "type": "function"
    },
    {
      "inputs": [],
      "name": "nextBatchId",
      "outputs": [
        {
          "internalType": "uint256",
          "name": "",
          "type": "uint256"
        }
      ],
      "stateMutability": "view",
      "type": "function"
    },
    {
      "inputs": [],
      "name": "nextDistributorOrderId",
      "outputs": [
        {
          "internalType": "uint256",
          "name": "",
          "type": "uint256"
        }
      ],
      "stateMutability": "view",
      "type": "function"
    },
    {
      "inputs": [],
      "name": "nextProviderOrderId",
      "outputs": [
        {
          "internalType": "uint256",
          "name": "",
          "type": "uint256"
        }
      ],
      "stateMutability": "view",
      "type": "function"
    },
    {
      "inputs": [
        {
          "internalType": "address",
          "name": "",
          "type": "address"
        },
        {
          "internalType": "uint256",
          "name": "",
          "type": "uint256"
        }
      ],
      "name": "providerMedNames",
      "outputs": [
        {
          "internalType": "string",
          "name": "",
          "type": "string"
        }
      ],
      "stateMutability": "view",
      "type": "function"
    },
    {
      "inputs": [
        {
          "internalType": "uint256",
          "name": "",
          "type": "uint256"
        }
      ],
      "name": "providerOrders",
      "outputs": [
        {
          "internalType": "string",
          "name": "medName",
          "type": "string"
        },
        {
          "internalType": "uint256",
          "name": "quantity",
          "type": "uint256"
        },
        {
          "internalType": "uint256",
          "name": "orderId",
          "type": "uint256"
        },
        {
          "internalType": "uint256",
          "name": "batchId",
          "type": "uint256"
        },
        {
          "internalType": "address",
          "name": "provider",
          "type": "address"
        },
        {
          "internalType": "address",
          "name": "distributor",
          "type": "address"
        },
        {
          "internalType": "bool",
          "name": "isAssigned",
          "type": "bool"
        },
        {
          "internalType": "uint256",
          "name": "orderDate",
          "type": "uint256"
        },
        {
          "internalType": "uint256",
          "name": "orderApprovedDate",
          "type": "uint256"
        },
        {
          "internalType": "enum PharmaChain.OrderStatus",
          "name": "status",
          "type": "uint8"
        }
      ],
      "stateMutability": "view",
      "type": "function"
    },
    {
      "inputs": [
        {
          "internalType": "address",
          "name": "",
          "type": "address"
        },
        {
          "internalType": "string",
          "name": "",
          "type": "string"
        }
      ],
      "name": "providerStocks",
      "outputs": [
        {
          "internalType": "uint256",
          "name": "",
          "type": "uint256"
        }
      ],
      "stateMutability": "view",
      "type": "function"
    },
    {
      "inputs": [
        {
          "internalType": "uint256",
          "name": "_batchId",
          "type": "uint256"
        }
      ],
      "name": "recallBatch",
      "outputs": [],
      "stateMutability": "nonpayable",
      "type": "function"
    },
    {
      "inputs": [
        {
          "internalType": "address",
          "name": "_user",
          "type": "address"
        },
        {
          "internalType": "string",
          "name": "_companyName",
          "type": "string"
        },
        {
          "internalType": "enum PharmaChain.Role",
          "name": "_role",
          "type": "uint8"
        },
        {
          "internalType": "string",
          "name": "_contactInfo",
          "type": "string"
        }
      ],
      "name": "registerUser",
      "outputs": [],
      "stateMutability": "nonpayable",
      "type": "function"
    },
    {
      "inputs": [
        {
          "internalType": "bytes32",
          "name": "",
          "type": "bytes32"
        }
      ],
      "name": "rfidToDistributorOrderId",
      "outputs": [
        {
          "internalType": "uint256",
          "name": "",
          "type": "uint256"
        }
      ],
      "stateMutability": "view",
      "type": "function"
    },
    {
      "inputs": [
        {
          "internalType": "bytes32",
          "name": "",
          "type": "bytes32"
        }
      ],
      "name": "rfidToProviderOrderId",
      "outputs": [
        {
          "internalType": "uint256",
          "name": "",
          "type": "uint256"
        }
      ],
      "stateMutability": "view",
      "type": "function"
    },
    {
      "inputs": [
        {
          "internalType": "bytes32",
          "name": "_rfidUIDHash",
          "type": "bytes32"
        },
        {
          "internalType": "enum PharmaChain.OrderStatus",
          "name": "_status",
          "type": "uint8"
        }
      ],
      "name": "updateDistributorOrderStatusByRFID",
      "outputs": [],
      "stateMutability": "nonpayable",
      "type": "function"
    },
    {
      "inputs": [
        {
          "internalType": "bytes32",
          "name": "_rfidUIDHash",
          "type": "bytes32"
        },
        {
          "internalType": "enum PharmaChain.OrderStatus",
          "name": "_status",
          "type": "uint8"
        }
      ],
      "name": "updateProviderOrderStatusByRFID",
      "outputs": [],
      "stateMutability": "nonpayable",
      "type": "function"
    },
    {
      "inputs": [
        {
          "internalType": "address",
          "name": "",
          "type": "address"
        }
      ],
      "name": "users",
      "outputs": [
        {
          "internalType": "address",
          "name": "account",
          "type": "address"
        },
        {
          "internalType": "string",
          "name": "companyName",
          "type": "string"
        },
        {
          "internalType": "enum PharmaChain.Role",
          "name": "role",
          "type": "uint8"
        },
        {
          "internalType": "string",
          "name": "contactInfo",
          "type": "string"
        }
      ],
      "stateMutability": "view",
      "type": "function"
    }
  ],
  "bytecode": "0x60806040526064600a556064600b556064600c5534801561001f57600080fd5b50614eff8061002f6000396000f3fe608060405234801561001057600080fd5b50600436106102745760003560e01c806387f95fa811610151578063ced27743116100c3578063e044471211610087578063e04447121461066b578063e3c6e07e1461067e578063f1bd14ad14610691578063f212d6d9146106cd578063f98dfc26146106e0578063fa4b47a3146106f357600080fd5b8063ced2774314610616578063d0aeb53714610629578063d38622381461063c578063d56f40dd14610645578063dd185a091461065857600080fd5b8063a6e162b411610115578063a6e162b41461057c578063a87430ba1461058f578063b32c4d8d146105b2578063b616e184146105dd578063be213fb6146105f0578063c0a5194e1461060357600080fd5b806387f95fa81461051b57806388a1326c1461052357806395c53d49146105365780639795c0a31461054957806397bba8141461056957600080fd5b80634a746b7b116101ea57806369c212f6116101ae57806369c212f61461047a5780636ae25d981461049a5780636c6eb5cd146104d657806383e9f8bf146104e95780638429bcf7146105095780638462a7f81461051257600080fd5b80634a746b7b146103e95780634e4b18fb146103fc578063552063f3146104255780636386c1c714610445578063642c97191461046757600080fd5b80632d703d731161023c5780632d703d731461034d5780633019f58e1461036d5780633d28a3011461038257806343deec2e1461039557806344dfc5f8146103a8578063491a58f7146103bb57600080fd5b8063163f7522146102795780631c5a3a53146102bc5780631d8abc8f146102dc5780632615457b146102f15780632782085114610311575b600080fd5b6102a76102873660046141b3565b6001600160a01b0390811660009081526020819052604090205416151590565b60405190151581526020015b60405180910390f35b6102cf6102ca3660046141b3565b610706565b6040516102b3919061421e565b6102e46108d1565b6040516102b3919061436a565b6103046102ff3660046141b3565b610b20565b6040516102b391906143ce565b61034061031f3660046141b3565b6001600160a01b031660009081526020819052604090206002015460ff1690565b6040516102b39190614435565b61036061035b3660046141b3565b610d78565b6040516102b39190614449565b61038061037b36600461453e565b610fc6565b005b61038061039036600461460c565b611516565b6103806103a3366004614698565b61166d565b6103806103b63660046146eb565b611911565b6103db6103c93660046146eb565b60086020526000908152604090205481565b6040519081526020016102b3565b6102cf6103f73660046141b3565b611a15565b61040f61040a3660046146eb565b611bd8565b6040516102b39a99989796959493929190614704565b6104386104333660046146eb565b611cc4565b6040516102b39190614777565b6104586104533660046141b3565b611e46565b6040516102b39392919061478a565b6103606104753660046141b3565b611ff4565b61048d6104883660046141b3565b61229a565b6040516102b391906147c7565b6103db6104a836600461482e565b6005602090815260009283526040909220815180830184018051928152908401929093019190912091525481565b6103806104e436600461487b565b61244c565b6104fc6104f73660046141b3565b6125f7565b6040516102b391906148bf565b6103db600b5481565b6103db600a5481565b6103046126a6565b6104386105313660046146eb565b612995565b61040f6105443660046146eb565b6129f5565b6103db6105573660046146eb565b60096020526000908152604090205481565b6103806105773660046148d2565b612a10565b61038061058a3660046146eb565b612c5a565b6105a261059d3660046141b3565b612d5e565b6040516102b39493929190614906565b6105c56105c03660046146eb565b612eaa565b6040516102b39c9b9a99989796959493929190614954565b6103806105eb3660046146eb565b612fa6565b6103806105fe3660046148d2565b6130ae565b6102e46106113660046141b3565b613266565b6102e46106243660046141b3565b613518565b6104fc6106373660046149c9565b613766565b6103db600c5481565b6104386106533660046146eb565b61381f565b6104386106663660046146eb565b61389e565b6103046106793660046141b3565b6138ff565b6104fc61068c3660046149c9565b613bb1565b6103db61069f36600461482e565b6004602090815260009283526040909220815180830184018051928152908401929093019190912091525481565b6103806106db36600461487b565b613bcd565b6103db6106ee3660046146eb565b613cb6565b6103806107013660046149f3565b613d07565b6001600160a01b038116600090815260076020526040812054606091816001600160401b0381111561073a5761073a61456a565b60405190808252806020026020018201604052801561078057816020015b6040805180820190915260608152600060208201528152602001906001900390816107585790505b50905060005b828110156108c9576001600160a01b03851660009081526007602052604081208054839081106107b8576107b8614a28565b9060005260206000200180546107cd90614a3e565b80601f01602080910402602001604051908101604052809291908181526020018280546107f990614a3e565b80156108465780601f1061081b57610100808354040283529160200191610846565b820191906000526020600020905b81548152906001019060200180831161082957829003601f168201915b50505050509050604051806040016040528082815260200160056000896001600160a01b03166001600160a01b03168152602001908152602001600020836040516108919190614a78565b9081526020016040518091039020548152508383815181106108b5576108b5614a28565b602090810291909101015250600101610786565b509392505050565b6060600060645b600b5481101561091857600081815260026020526040902060050154600160a01b900460ff16610910578161090c81614aaa565b9250505b6001016108d8565b506000816001600160401b038111156109335761093361456a565b60405190808252806020026020018201604052801561096c57816020015b6109596140a4565b8152602001906001900390816109515790505b509050600060645b600b54811015610b1757600081815260026020526040902060050154600160a01b900460ff16610b0f5760008181526002602052604090819020815161014081019092528054829082906109c790614a3e565b80601f01602080910402602001604051908101604052809291908181526020018280546109f390614a3e565b8015610a405780601f10610a1557610100808354040283529160200191610a40565b820191906000526020600020905b815481529060010190602001808311610a2357829003601f168201915b50505091835250506001820154602082015260028201546040820152600382015460608201526004808301546001600160a01b039081166080840152600584015490811660a084015260ff600160a01b9091048116151560c0840152600684015460e084015260078401546101008401526008840154610120909301921690811115610ace57610ace614296565b6004811115610adf57610adf614296565b81525050838381518110610af557610af5614a28565b60200260200101819052508180610b0b90614aaa565b9250505b600101610974565b50909392505050565b6060600060645b600c54811015610b6b576000818152600360205260409020600401546001600160a01b03808616911603610b635781610b5f81614aaa565b9250505b600101610b27565b506000816001600160401b03811115610b8657610b8661456a565b604051908082528060200260200182016040528015610bbf57816020015b610bac6140a4565b815260200190600190039081610ba45790505b509050600060645b600c54811015610d6e576000818152600360205260409020600401546001600160a01b03808816911603610d66576000818152600360205260409081902081516101408101909252805482908290610c1e90614a3e565b80601f0160208091040260200160405190810160405280929190818152602001828054610c4a90614a3e565b8015610c975780601f10610c6c57610100808354040283529160200191610c97565b820191906000526020600020905b815481529060010190602001808311610c7a57829003601f168201915b50505091835250506001820154602082015260028201546040820152600382015460608201526004808301546001600160a01b039081166080840152600584015490811660a084015260ff600160a01b9091048116151560c0840152600684015460e084015260078401546101008401526008840154610120909301921690811115610d2557610d25614296565b6004811115610d3657610d36614296565b81525050838381518110610d4c57610d4c614a28565b60200260200101819052508180610d6290614aaa565b9250505b600101610bc7565b5090949350505050565b6060600060645b600a54811015610dc457600081815260016020819052604090912001546001600160a01b03808616911603610dbc5781610db881614aaa565b9250505b600101610d7f565b506000816001600160401b03811115610ddf57610ddf61456a565b604051908082528060200260200182016040528015610e1857816020015b610e0561411b565b815260200190600190039081610dfd5790505b509050600060645b600a54811015610d6e57600081815260016020819052604090912001546001600160a01b03808816911603610fbe5760008181526001602081815260409283902083516101808101855281548152928101546001600160a01b0316918301919091526002810180549293919291840191610e9990614a3e565b80601f0160208091040260200160405190810160405280929190818152602001828054610ec590614a3e565b8015610f125780601f10610ee757610100808354040283529160200191610f12565b820191906000526020600020905b815481529060010190602001808311610ef557829003601f168201915b5050509183525050600382015460ff80821615156020840152610100808304821615156040850152620100009092046001600160a01b0316606084015260048401546080840152600584015416151560a0830152600683015460c0830152600783015460e0830152600883015490820152600990910154610120909101528351849084908110610fa457610fa4614a28565b60200260200101819052508180610fba90614aaa565b9250505b600101610e20565b600133600090815260208190526040902060029081015460ff1690811115610ff057610ff0614296565b146110165760405162461bcd60e51b815260040161100d90614ac3565b60405180910390fd5b6001600160a01b038116600090815260208190526040902060029081015460ff168181111561104757611047614296565b146110875760405162461bcd60e51b815260206004820152601060248201526f24b73b30b634b210383937bb34b232b960811b604482015260640161100d565b600082815260016020526040902060038101546201000090046001600160a01b031633146111135760405162461bcd60e51b815260206004820152603360248201527f4f6e6c79207468652061737369676e6564206469737472696275746f722063616044820152720dc40c2e6e6d2cedc40e8d0d2e640c4c2e8c6d606b1b606482015260840161100d565b600381015460ff166111675760405162461bcd60e51b815260206004820152601e60248201527f4261746368206d757374206265207175616c69747920617070726f7665640000604482015260640161100d565b600581015460ff16156111bc5760405162461bcd60e51b815260206004820152601760248201527f426174636820686173206265656e20726563616c6c6564000000000000000000604482015260640161100d565b60006040518061014001604052808360020180546111d990614a3e565b80601f016020809104026020016040519081016040528092919081815260200182805461120590614a3e565b80156112525780601f1061122757610100808354040283529160200191611252565b820191906000526020600020905b81548152906001019060200180831161123557829003601f168201915b5050505050815260200183600801548152602001600c600081548092919061127990614aaa565b909155508152602081018690526001600160a01b0385166040820152336060820152600160808201524260a0820181905260c082015260e0016002905260408082015160009081526003602052208151919250829181906112da9082614b5d565b50602082015160018281019190915560408301516002830155606083015160038301556080830151600480840180546001600160a01b0319166001600160a01b0393841617905560a085015160058501805460c0880151929094166001600160a81b031990941693909317600160a01b911515919091021790915560e0840151600684015561010084015160078401556101208401516008840180549193909260ff1990921691849081111561139257611392614296565b0217905550505060408082015160048401546000908152600960209081528382209290925560088501546001600160a01b0387168252600590925282902091519091906113e3906002860190614c8f565b908152602001604051809103902060008282546114009190614c9b565b9250508190555061149f8383600201805461141a90614a3e565b80601f016020809104026020016040519081016040528092919081815260200182805461144690614a3e565b80156114935780601f1061146857610100808354040283529160200191611493565b820191906000526020600020905b81548152906001019060200180831161147657829003601f168201915b50505050506000613ff9565b6114da576001600160a01b0383166000908152600760209081526040822080546001810182559083529120016114d86002840182614cae565b505b6040516001600160a01b0384169085907fd2d34b0374faae0161dcf8f0bb3a65abd5d19a9464ea5777ab1a5ee6a694560a90600090a350505050565b6001600160a01b03841661155e5760405162461bcd60e51b815260206004820152600f60248201526e496e76616c6964206164647265737360881b604482015260640161100d565b6040518060800160405280856001600160a01b0316815260200184815260200183600281111561159057611590614296565b815260209081018390526001600160a01b03868116600090815280835260409020835181546001600160a01b03191692169190911781559082015160018201906115da9082614b5d565b5060408201518160020160006101000a81548160ff0219169083600281111561160557611605614296565b02179055506060820151600382019061161e9082614b5d565b50905050836001600160a01b03167f3a403922431a43cbc3d929f1b03869ffadab7bce01402822980e72e6ea8e9d9184848460405161165f93929190614d80565b60405180910390a250505050565b33600090815260208190526040812060029081015460ff169081111561169557611695614296565b146116b25760405162461bcd60e51b815260040161100d90614dbc565b600a8054600091826116c383614aaa565b9190505590504283116117225760405162461bcd60e51b815260206004820152602160248201527f4578706972792064617465206d75737420626520696e207468652066757475726044820152606560f81b606482015260840161100d565b6000821161177d5760405162461bcd60e51b815260206004820152602260248201527f5175616e74697479206d7573742062652067726561746572207468616e207a65604482015261726f60f01b606482015260840161100d565b60408051610180810182528281523360208083019182528284018981526000606085018190526080850181905260a0850181905260c085018a905260e08501819052426101008601526101208501899052610140850188905261016085018190528681526001928390529490942083518155915190820180546001600160a01b0319166001600160a01b03909216919091179055915190919060028201906118259082614b5d565b506060820151600382018054608085015160a086015161ffff1990921693151561ff0019169390931761010093151584021762010000600160b01b031916620100006001600160a01b039092169190910217905560c0830151600483015560e083015160058301805460ff191691151591909117905582015160068201556101208201516007820155610140820151600882015561016090910151600990910155604051339082907fbee34f0ca0c0edfc2bd967468f81e100292d859329be491cc44c4ec390c65fac90611902908990899042908a908a90614e06565b60405180910390a35050505050565b33600090815260208190526040812060029081015460ff169081111561193957611939614296565b146119565760405162461bcd60e51b815260040161100d90614dbc565b6000818152600160208190526040909120908101546001600160a01b031633146119d45760405162461bcd60e51b815260206004820152602960248201527f4f6e6c7920746865206d616e7566616374757265722063616e20617070726f7660448201526865207175616c69747960b81b606482015260840161100d565b60038101805461ffff19166001179055604051339083907f08d6065569e454b48393f44317518d1282971813504b4d323942afba2f7a2c5d90600090a35050565b6001600160a01b038116600090815260066020526040812054606091816001600160401b03811115611a4957611a4961456a565b604051908082528060200260200182016040528015611a8f57816020015b604080518082019091526060815260006020820152815260200190600190039081611a675790505b50905060005b828110156108c9576001600160a01b0385166000908152600660205260408120805483908110611ac757611ac7614a28565b906000526020600020018054611adc90614a3e565b80601f0160208091040260200160405190810160405280929190818152602001828054611b0890614a3e565b8015611b555780601f10611b2a57610100808354040283529160200191611b55565b820191906000526020600020905b815481529060010190602001808311611b3857829003601f168201915b50505050509050604051806040016040528082815260200160046000896001600160a01b03166001600160a01b0316815260200190815260200160002083604051611ba09190614a78565b908152602001604051809103902054815250838381518110611bc457611bc4614a28565b602090810291909101015250600101611a95565b600260205260009081526040902080548190611bf390614a3e565b80601f0160208091040260200160405190810160405280929190818152602001828054611c1f90614a3e565b8015611c6c5780601f10611c4157610100808354040283529160200191611c6c565b820191906000526020600020905b815481529060010190602001808311611c4f57829003601f168201915b5050505060018301546002840154600385015460048601546005870154600688015460078901546008909901549798959794965092946001600160a01b039283169492821693600160a01b90920460ff90811693168a565b611ccc6140a4565b60008281526008602052604081205490819003611cfb5760405162461bcd60e51b815260040161100d90614e3d565b6000818152600260205260409081902081516101408101909252805482908290611d2490614a3e565b80601f0160208091040260200160405190810160405280929190818152602001828054611d5090614a3e565b8015611d9d5780601f10611d7257610100808354040283529160200191611d9d565b820191906000526020600020905b815481529060010190602001808311611d8057829003601f168201915b50505091835250506001820154602082015260028201546040820152600382015460608201526004808301546001600160a01b039081166080840152600584015490811660a084015260ff600160a01b9091048116151560c0840152600684015460e084015260078401546101008401526008840154610120909301921690811115611e2b57611e2b614296565b6004811115611e3c57611e3c614296565b9052509392505050565b6001600160a01b038082166000908152602081815260408083208151608081019092528054909416815260018401805460609586959485949391929084019190611e8f90614a3e565b80601f0160208091040260200160405190810160405280929190818152602001828054611ebb90614a3e565b8015611f085780601f10611edd57610100808354040283529160200191611f08565b820191906000526020600020905b815481529060010190602001808311611eeb57829003601f168201915b505050918352505060028281015460209092019160ff1690811115611f2f57611f2f614296565b6002811115611f4057611f40614296565b8152602001600382018054611f5490614a3e565b80601f0160208091040260200160405190810160405280929190818152602001828054611f8090614a3e565b8015611fcd5780601f10611fa257610100808354040283529160200191611fcd565b820191906000526020600020905b815481529060010190602001808311611fb057829003601f168201915b50505091909252505050602081015160608201516040909201519097919650945092505050565b6060600060645b600a5481101561206c57600081815260016020819052604090912001546001600160a01b03858116911614801561205157506000818152600160205260409020600301546201000090046001600160a01b031615155b15612064578161206081614aaa565b9250505b600101611ffb565b506000816001600160401b038111156120875761208761456a565b6040519080825280602002602001820160405280156120c057816020015b6120ad61411b565b8152602001906001900390816120a55790505b509050600060645b600a54811015610d6e57600081815260016020819052604090912001546001600160a01b03878116911614801561211e57506000818152600160205260409020600301546201000090046001600160a01b031615155b156122925760008181526001602081815260409283902083516101808101855281548152928101546001600160a01b031691830191909152600281018054929391929184019161216d90614a3e565b80601f016020809104026020016040519081016040528092919081815260200182805461219990614a3e565b80156121e65780601f106121bb576101008083540402835291602001916121e6565b820191906000526020600020905b8154815290600101906020018083116121c957829003601f168201915b5050509183525050600382015460ff80821615156020840152610100808304821615156040850152620100009092046001600160a01b0316606084015260048401546080840152600584015416151560a0830152600683015460c0830152600783015460e083015260088301549082015260099091015461012090910152835184908490811061227857612278614a28565b6020026020010181905250818061228e90614aaa565b9250505b6001016120c8565b60408051608081018252600080825260606020830181905292820152818101919091526001600160a01b038083166000908152602081815260409182902082516080810190935280549093168252600183018054929392918401916122fe90614a3e565b80601f016020809104026020016040519081016040528092919081815260200182805461232a90614a3e565b80156123775780601f1061234c57610100808354040283529160200191612377565b820191906000526020600020905b81548152906001019060200180831161235a57829003601f168201915b505050918352505060028281015460209092019160ff169081111561239e5761239e614296565b60028111156123af576123af614296565b81526020016003820180546123c390614a3e565b80601f01602080910402602001604051908101604052809291908181526020018280546123ef90614a3e565b801561243c5780601f106124115761010080835404028352916020019161243c565b820191906000526020600020905b81548152906001019060200180831161241f57829003601f168201915b5050505050815250509050919050565b33600090815260208190526040902060029081015460ff168181111561247457612474614296565b146124915760405162461bcd60e51b815260040161100d90614e83565b600c8054600091826124a283614aaa565b91905055905060405180610140016040528084815260200183815260200182815260200160008152602001336001600160a01b0316815260200160006001600160a01b03168152602001600015158152602001428152602001600081526020016000600481111561251557612515614296565b90526000828152600360205260409020815181906125339082614b5d565b50602082015160018281019190915560408301516002830155606083015160038301556080830151600480840180546001600160a01b0319166001600160a01b0393841617905560a085015160058501805460c0880151929094166001600160a81b031990941693909317600160a01b911515919091021790915560e0840151600684015561010084015160078401556101208401516008840180549193909260ff199092169184908111156125eb576125eb614296565b02179055505050505050565b6001600160a01b038116600090815260208190526040902060010180546060919061262190614a3e565b80601f016020809104026020016040519081016040528092919081815260200182805461264d90614a3e565b801561269a5780601f1061266f5761010080835404028352916020019161269a565b820191906000526020600020905b81548152906001019060200180831161267d57829003601f168201915b50505050509050919050565b6060600233600090815260208190526040902060029081015460ff16908111156126d2576126d2614296565b146126ef5760405162461bcd60e51b815260040161100d90614e83565b600060645b600c54811015612765576000818152600360205260409020600401546001600160a01b03163314801561274a575060008181526003602052604081206008015460ff16600481111561274857612748614296565b145b1561275d578161275981614aaa565b9250505b6001016126f4565b506000816001600160401b038111156127805761278061456a565b6040519080825280602002602001820160405280156127b957816020015b6127a66140a4565b81526020019060019003908161279e5790505b509050600060645b600c54811015610b17576000818152600360205260409020600401546001600160a01b031633148015612817575060008181526003602052604081206008015460ff16600481111561281557612815614296565b145b1561298d57600081815260036020526040908190208151610140810190925280548290829061284590614a3e565b80601f016020809104026020016040519081016040528092919081815260200182805461287190614a3e565b80156128be5780601f10612893576101008083540402835291602001916128be565b820191906000526020600020905b8154815290600101906020018083116128a157829003601f168201915b50505091835250506001820154602082015260028201546040820152600382015460608201526004808301546001600160a01b039081166080840152600584015490811660a084015260ff600160a01b9091048116151560c0840152600684015460e08401526007840154610100840152600884015461012090930192169081111561294c5761294c614296565b600481111561295d5761295d614296565b8152505083838151811061297357612973614a28565b6020026020010181905250818061298990614aaa565b9250505b6001016127c1565b61299d6140a4565b600082815260096020526040812054908190036129cc5760405162461bcd60e51b815260040161100d90614e3d565b6000818152600360205260409081902081516101408101909252805482908290611d2490614a3e565b600360205260009081526040902080548190611bf390614a3e565b600133600090815260208190526040902060029081015460ff1690811115612a3a57612a3a614296565b14612a575760405162461bcd60e51b815260040161100d90614ac3565b60008281526008602052604081205490819003612a865760405162461bcd60e51b815260040161100d90614e3d565b600081815260026020526040902060048101546001600160a01b03163314612b095760405162461bcd60e51b815260206004820152603060248201527f4f6e6c7920746865206469737472696275746f722063616e207570646174652060448201526f746865206f726465722073746174757360801b606482015260840161100d565b60088101805484919060ff19166001836004811115612b2a57612b2a614296565b02179055506003836004811115612b4357612b43614296565b03612c5457600181015433600090815260046020526040908190209051612b6b908490614c8f565b90815260200160405180910390206000828254612b889190614c9b565b90915550508054612c259033908390612ba090614a3e565b80601f0160208091040260200160405190810160405280929190818152602001828054612bcc90614a3e565b8015612c195780601f10612bee57610100808354040283529160200191612c19565b820191906000526020600020905b815481529060010190602001808311612bfc57829003601f168201915b50505050506001613ff9565b612c545733600090815260066020908152604082208054600181018255908352912001612c528282614cae565b505b50505050565b33600090815260208190526040812060029081015460ff1690811115612c8257612c82614296565b14612c9f5760405162461bcd60e51b815260040161100d90614dbc565b6000818152600160208190526040909120908101546001600160a01b03163314612d1e5760405162461bcd60e51b815260206004820152602a60248201527f4f6e6c7920746865206d616e7566616374757265722063616e20726563616c6c604482015269040e8d0ca40c4c2e8c6d60b31b606482015260840161100d565b60058101805460ff19166001179055604051339083907f5a41088291f050dab11b8aeaaeaa8fd33f2225751a5d64008f812e0362ef472590600090a35050565b600060208190529081526040902080546001820180546001600160a01b039092169291612d8a90614a3e565b80601f0160208091040260200160405190810160405280929190818152602001828054612db690614a3e565b8015612e035780601f10612dd857610100808354040283529160200191612e03565b820191906000526020600020905b815481529060010190602001808311612de657829003601f168201915b5050506002840154600385018054949560ff909216949193509150612e2790614a3e565b80601f0160208091040260200160405190810160405280929190818152602001828054612e5390614a3e565b8015612ea05780601f10612e7557610100808354040283529160200191612ea0565b820191906000526020600020905b815481529060010190602001808311612e8357829003601f168201915b5050505050905084565b60016020819052600091825260409091208054918101546002820180546001600160a01b039092169291612edd90614a3e565b80601f0160208091040260200160405190810160405280929190818152602001828054612f0990614a3e565b8015612f565780601f10612f2b57610100808354040283529160200191612f56565b820191906000526020600020905b815481529060010190602001808311612f3957829003601f168201915b50505050600383015460048401546005850154600686015460078701546008880154600990980154969760ff80871698610100880482169850620100009097046001600160a01b0316969416938c565b33600090815260208190526040812060029081015460ff1690811115612fce57612fce614296565b14612feb5760405162461bcd60e51b815260040161100d90614dbc565b6000818152600160208190526040909120908101546001600160a01b0316331461306c5760405162461bcd60e51b815260206004820152602c60248201527f4f6e6c7920746865206d616e7566616374757265722063616e2064697361707060448201526b726f7665207175616c69747960a01b606482015260840161100d565b60038101805461ffff1916610100179055604051339083907fc8c94276e66e72c265ff6c7a450b182f9910586a93051227e6024c1fbceaa88e90600090a35050565b33600090815260208190526040902060029081015460ff16818111156130d6576130d6614296565b146130f35760405162461bcd60e51b815260040161100d90614e83565b600082815260096020526040812054908190036131225760405162461bcd60e51b815260040161100d90614e3d565b600081815260036020526040902060048101546001600160a01b031633146131a25760405162461bcd60e51b815260206004820152602d60248201527f4f6e6c79207468652070726f76696465722063616e207570646174652074686560448201526c206f726465722073746174757360981b606482015260840161100d565b60088101805484919060ff191660018360048111156131c3576131c3614296565b021790555060038360048111156131dc576131dc614296565b03612c5457600181015433600090815260056020526040908190209051613204908490614c8f565b908152602001604051809103902060008282546132219190614c9b565b90915550508054613239903390839061141a90614a3e565b612c545733600090815260076020908152604082208054600181018255908352912001612c528282614cae565b6060600060645b600b548110156132e3576000818152600260205260409020600401546001600160a01b0385811691161480156132c85750600360008281526002602052604090206008015460ff1660048111156132c6576132c6614296565b145b156132db57816132d781614aaa565b9250505b60010161326d565b506000816001600160401b038111156132fe576132fe61456a565b60405190808252806020026020018201604052801561333757816020015b6133246140a4565b81526020019060019003908161331c5790505b509050600060645b600b54811015610d6e576000818152600260205260409020600401546001600160a01b03878116911614801561339a5750600360008281526002602052604090206008015460ff16600481111561339857613398614296565b145b156135105760008181526002602052604090819020815161014081019092528054829082906133c890614a3e565b80601f01602080910402602001604051908101604052809291908181526020018280546133f490614a3e565b80156134415780601f1061341657610100808354040283529160200191613441565b820191906000526020600020905b81548152906001019060200180831161342457829003601f168201915b50505091835250506001820154602082015260028201546040820152600382015460608201526004808301546001600160a01b039081166080840152600584015490811660a084015260ff600160a01b9091048116151560c0840152600684015460e0840152600784015461010084015260088401546101209093019216908111156134cf576134cf614296565b60048111156134e0576134e0614296565b815250508383815181106134f6576134f6614a28565b6020026020010181905250818061350c90614aaa565b9250505b60010161333f565b6060600060645b600b54811015613563576000818152600260205260409020600401546001600160a01b0380861691160361355b578161355781614aaa565b9250505b60010161351f565b506000816001600160401b0381111561357e5761357e61456a565b6040519080825280602002602001820160405280156135b757816020015b6135a46140a4565b81526020019060019003908161359c5790505b509050600060645b600b54811015610d6e576000818152600260205260409020600401546001600160a01b0380881691160361375e57600081815260026020526040908190208151610140810190925280548290829061361690614a3e565b80601f016020809104026020016040519081016040528092919081815260200182805461364290614a3e565b801561368f5780601f106136645761010080835404028352916020019161368f565b820191906000526020600020905b81548152906001019060200180831161367257829003601f168201915b50505091835250506001820154602082015260028201546040820152600382015460608201526004808301546001600160a01b039081166080840152600584015490811660a084015260ff600160a01b9091048116151560c0840152600684015460e08401526007840154610100840152600884015461012090930192169081111561371d5761371d614296565b600481111561372e5761372e614296565b8152505083838151811061374457613744614a28565b6020026020010181905250818061375a90614aaa565b9250505b6001016135bf565b6007602052816000526040600020818154811061378257600080fd5b9060005260206000200160009150915050805461379e90614a3e565b80601f01602080910402602001604051908101604052809291908181526020018280546137ca90614a3e565b80156138175780601f106137ec57610100808354040283529160200191613817565b820191906000526020600020905b8154815290600101906020018083116137fa57829003601f168201915b505050505081565b6138276140a4565b60008281526002602081905260408220908101549091036138815760405162461bcd60e51b815260206004820152601460248201527313dc99195c88191bd95cc81b9bdd08195e1a5cdd60621b604482015260640161100d565b8060405180610140016040529081600082018054611d2490614a3e565b6138a66140a4565b600082815260036020526040812060028101549091036138815760405162461bcd60e51b815260206004820152601460248201527313dc99195c88191bd95cc81b9bdd08195e1a5cdd60621b604482015260640161100d565b6060600060645b600c5481101561397c576000818152600360205260409020600401546001600160a01b0385811691161480156139615750600360008281526003602052604090206008015460ff16600481111561395f5761395f614296565b145b15613974578161397081614aaa565b9250505b600101613906565b506000816001600160401b038111156139975761399761456a565b6040519080825280602002602001820160405280156139d057816020015b6139bd6140a4565b8152602001906001900390816139b55790505b509050600060645b600c54811015610d6e576000818152600360205260409020600401546001600160a01b038781169116148015613a335750600360008281526003602052604090206008015460ff166004811115613a3157613a31614296565b145b15613ba9576000818152600360205260409081902081516101408101909252805482908290613a6190614a3e565b80601f0160208091040260200160405190810160405280929190818152602001828054613a8d90614a3e565b8015613ada5780601f10613aaf57610100808354040283529160200191613ada565b820191906000526020600020905b815481529060010190602001808311613abd57829003601f168201915b50505091835250506001820154602082015260028201546040820152600382015460608201526004808301546001600160a01b039081166080840152600584015490811660a084015260ff600160a01b9091048116151560c0840152600684015460e084015260078401546101008401526008840154610120909301921690811115613b6857613b68614296565b6004811115613b7957613b79614296565b81525050838381518110613b8f57613b8f614a28565b60200260200101819052508180613ba590614aaa565b9250505b6001016139d8565b6006602052816000526040600020818154811061378257600080fd5b600133600090815260208190526040902060029081015460ff1690811115613bf757613bf7614296565b14613c145760405162461bcd60e51b815260040161100d90614ac3565b600b805460009182613c2583614aaa565b91905055905060405180610140016040528084815260200183815260200182815260200160008152602001336001600160a01b0316815260200160006001600160a01b031681526020016000151581526020014281526020016000815260200160006004811115613c9857613c98614296565b90526000828152600260205260409020815181906125339082614b5d565b600060645b600a54811015613cfe57600081815260016020526040902060040154839003613cf65760009081526001602052604090206009015492915050565b600101613cbb565b50600092915050565b33600090815260208190526040812060029081015460ff1690811115613d2f57613d2f614296565b14613d4c5760405162461bcd60e51b815260040161100d90614dbc565b60016001600160a01b038316600090815260208190526040902060029081015460ff1690811115613d7f57613d7f614296565b14613dc25760405162461bcd60e51b815260206004820152601360248201527224b73b30b634b2103234b9ba3934b13aba37b960691b604482015260640161100d565b6000838152600160205260409020600381015460ff16613e245760405162461bcd60e51b815260206004820152601e60248201527f4261746368206d757374206265207175616c69747920617070726f7665640000604482015260640161100d565b60038101546201000090046001600160a01b031615613e7e5760405162461bcd60e51b815260206004820152601660248201527510985d18da08185b1c9958591e48185cdcda59db995960521b604482015260640161100d565b6000828152600260205260409020600381015415613eea5760405162461bcd60e51b8152602060048201526024808201527f4f7264657220697320616c72656164792061737369676e656420746f206120626044820152630c2e8c6d60e31b606482015260840161100d565b816008015481600101541115613f505760405162461bcd60e51b815260206004820152602560248201527f4f72646572207175616e746974792065786365656473206261746368207175616044820152646e7469747960d81b606482015260840161100d565b6003828101805462010000600160b01b031916620100006001600160a01b0388169081029190911790915560098401859055908201869055600582018054336001600160a01b03199091161790556008808301805460ff191660021790554260078401556004840154600090815260209190915260408082208690555187917f8e6804b2e7bfb70fb26b5bbf7a87382c43918cd5fd77219d8846c3c4f302ad0a91a35050505050565b6000808261401e576001600160a01b0385166000908152600760205260409020614037565b6001600160a01b03851660009081526006602052604090205b905060005b815481101561409657848051906020012082828154811061405f5761405f614a28565b906000526020600020016040516140769190614c8f565b60405180910390200361408e5760019250505061409d565b60010161403c565b5060009150505b9392505050565b6040518061014001604052806060815260200160008152602001600081526020016000815260200160006001600160a01b0316815260200160006001600160a01b0316815260200160001515815260200160008152602001600081526020016000600481111561411657614116614296565b905290565b6040518061018001604052806000815260200160006001600160a01b031681526020016060815260200160001515815260200160001515815260200160006001600160a01b0316815260200160008019168152602001600015158152602001600081526020016000815260200160008152602001600081525090565b80356001600160a01b03811681146141ae57600080fd5b919050565b6000602082840312156141c557600080fd5b61409d82614197565b60005b838110156141e95781810151838201526020016141d1565b50506000910152565b6000815180845261420a8160208601602086016141ce565b601f01601f19169290920160200192915050565b600060208083018184528085518083526040925060408601915060408160051b87010184880160005b8381101561428857888303603f190185528151805187855261426b888601826141f2565b918901519489019490945294870194925090860190600101614247565b509098975050505050505050565b634e487b7160e01b600052602160045260246000fd5b600581106142bc576142bc614296565b9052565b600061014082518185526142d6828601826141f2565b915050602083015160208501526040830151604085015260608301516060850152608083015161431160808601826001600160a01b03169052565b5060a083015161432c60a08601826001600160a01b03169052565b5060c083015161434060c086018215159052565b5060e083015160e085015261010080840151818601525061012080840151610d6e828701826142ac565b600060208083016020845280855180835260408601915060408160051b87010192506020870160005b828110156143c157603f198886030184526143af8583516142c0565b94509285019290850190600101614393565b5092979650505050505050565b600060208083016020845280855180835260408601915060408160051b87010192506020870160005b828110156143c157603f198886030184526144138583516142c0565b945092850192908501906001016143f7565b600381106142bc576142bc614296565b602081016144438284614425565b92915050565b600060208083018184528085518083526040925060408601915060408160051b87010184880160005b8381101561428857603f19898403018552815180518452878101516001600160a01b03168885015286810151610180888601819052906144b4828701826141f2565b9150506060808301516144ca8288018215159052565b505060808281015115159086015260a0808301516001600160a01b03169086015260c0808301519086015260e0808301511515908601526101008083015190860152610120808301519086015261014080830151908601526101609182015191909401529386019390860190600101614472565b6000806040838503121561455157600080fd5b8235915061456160208401614197565b90509250929050565b634e487b7160e01b600052604160045260246000fd5b600082601f83011261459157600080fd5b81356001600160401b03808211156145ab576145ab61456a565b604051601f8301601f19908116603f011681019082821181831017156145d3576145d361456a565b816040528381528660208588010111156145ec57600080fd5b836020870160208301376000602085830101528094505050505092915050565b6000806000806080858703121561462257600080fd5b61462b85614197565b935060208501356001600160401b038082111561464757600080fd5b61465388838901614580565b9450604087013591506003821061466957600080fd5b9092506060860135908082111561467f57600080fd5b5061468c87828801614580565b91505092959194509250565b600080600080608085870312156146ae57600080fd5b84356001600160401b038111156146c457600080fd5b6146d087828801614580565b97602087013597506040870135966060013595509350505050565b6000602082840312156146fd57600080fd5b5035919050565b60006101408083526147188184018e6141f2565b9150508a602083015289604083015288606083015260018060a01b03808916608084015280881660a08401525085151560c08301528460e0830152836101008301526147686101208301846142ac565b9b9a5050505050505050505050565b60208152600061409d60208301846142c0565b60608152600061479d60608301866141f2565b82810360208401526147af81866141f2565b9150506147bf6040830184614425565b949350505050565b602080825282516001600160a01b031682820152820151608060408301526000906147f560a08401826141f2565b905060408401516148096060850182614425565b506060840151838203601f1901608085015261482582826141f2565b95945050505050565b6000806040838503121561484157600080fd5b61484a83614197565b915060208301356001600160401b0381111561486557600080fd5b61487185828601614580565b9150509250929050565b6000806040838503121561488e57600080fd5b82356001600160401b038111156148a457600080fd5b6148b085828601614580565b95602094909401359450505050565b60208152600061409d60208301846141f2565b600080604083850312156148e557600080fd5b823591506020830135600581106148fb57600080fd5b809150509250929050565b6001600160a01b038516815260806020820181905260009061492a908301866141f2565b6149376040840186614425565b828103606084015261494981856141f2565b979650505050505050565b8c81526001600160a01b038c81166020830152610180604083018190526000916149808483018f6141f2565b9c151560608501529a1515608084015250509690971660a087015260c086019490945291151560e085015261010084015261012083015261014082015261016001529392505050565b600080604083850312156149dc57600080fd5b6149e583614197565b946020939093013593505050565b600080600060608486031215614a0857600080fd5b83359250614a1860208501614197565b9150604084013590509250925092565b634e487b7160e01b600052603260045260246000fd5b600181811c90821680614a5257607f821691505b602082108103614a7257634e487b7160e01b600052602260045260246000fd5b50919050565b60008251614a8a8184602087016141ce565b9190910192915050565b634e487b7160e01b600052601160045260246000fd5b600060018201614abc57614abc614a94565b5060010190565b60208082526029908201527f4f6e6c79206469737472696275746f72732063616e20706572666f726d20746860408201526834b99030b1ba34b7b760b91b606082015260800190565b601f821115614b58576000816000526020600020601f850160051c81016020861015614b355750805b601f850160051c820191505b81811015614b5457828155600101614b41565b5050505b505050565b81516001600160401b03811115614b7657614b7661456a565b614b8a81614b848454614a3e565b84614b0c565b602080601f831160018114614bbf5760008415614ba75750858301515b600019600386901b1c1916600185901b178555614b54565b600085815260208120601f198616915b82811015614bee57888601518255948401946001909101908401614bcf565b5085821015614c0c5787850151600019600388901b60f8161c191681555b5050505050600190811b01905550565b60008154614c2981614a3e565b60018281168015614c415760018114614c5657614c85565b60ff1984168752821515830287019450614c85565b8560005260208060002060005b85811015614c7c5781548a820152908401908201614c63565b50505082870194505b5050505092915050565b600061409d8284614c1c565b8082018082111561444357614443614a94565b818103614cb9575050565b614cc38254614a3e565b6001600160401b03811115614cda57614cda61456a565b614ce881614b848454614a3e565b6000601f821160018114614d1c5760008315614d045750848201545b600019600385901b1c1916600184901b178455612c52565b600085815260209020601f19841690600086815260209020845b83811015614d565782860154825560019586019590910190602001614d36565b5085831015614c0c5793015460001960f8600387901b161c19169092555050600190811b01905550565b606081526000614d9360608301866141f2565b614da06020840186614425565b8281036040840152614db281856141f2565b9695505050505050565b6020808252602a908201527f4f6e6c79206d616e756661637475726572732063616e20706572666f726d20746040820152693434b99030b1ba34b7b760b11b606082015260800190565b60a081526000614e1960a08301886141f2565b90508560208301528460408301528360608301528260808301529695505050505050565b60208082526026908201527f4f72646572206e6f7420666f756e6420666f722074686520676976656e20524660408201526512510815525160d21b606082015260800190565b60208082526026908201527f4f6e6c792070726f7669646572732063616e20706572666f726d20746869732060408201526530b1ba34b7b760d11b60608201526080019056fea26469706673582212205616ea37b33876ecb5a6cccf1e794c5cf0a1debb6228e49fad6dd4806c5f0bde64736f6c63430008180033",
  "linkReferences": {},
  "deployedLinkReferences": {}
}