{
  "_format": "hh-sol-artifact-1",
  "contractName": "PharmaChain",
  "sourceName": "contracts/PharmaChain.sol",
  "abi": [
    {
      "anonymous": false,
      "inputs": [
        {
          "indexed": true,
          "internalType": "uint256",
          "name": "batchId",
          "type": "uint256"
        },
        {
          "indexed": true,
          "internalType": "address",
          "name": "distributor",
          "type": "address"
        }
      ],
      "name": "BatchAssignedToDistributor",
      "type": "event"
    },
    {
      "anonymous": false,
      "inputs": [
        {
          "indexed": true,
          "internalType": "uint256",
          "name": "batchId",
          "type": "uint256"
        },
        {
          "indexed": true,
          "internalType": "address",
          "name": "manufacturer",
          "type": "address"
        },
        {
          "indexed": false,
          "internalType": "string",
          "name": "details",
          "type": "string"
        },
        {
          "indexed": false,
          "internalType": "bytes32",
          "name": "rfidUIDHash",
          "type": "bytes32"
        },
        {
          "indexed": false,
          "internalType": "uint256",
          "name": "manufactureDate",
          "type": "uint256"
        },
        {
          "indexed": false,
          "internalType": "uint256",
          "name": "expiryDate",
          "type": "uint256"
        },
        {
          "indexed": false,
          "internalType": "uint256",
          "name": "quantity",
          "type": "uint256"
        }
      ],
      "name": "BatchCreated",
      "type": "event"
    },
    {
      "anonymous": false,
      "inputs": [
        {
          "indexed": true,
          "internalType": "uint256",
          "name": "batchId",
          "type": "uint256"
        },
        {
          "indexed": true,
          "internalType": "address",
          "name": "initiator",
          "type": "address"
        }
      ],
      "name": "BatchRecalled",
      "type": "event"
    },
    {
      "anonymous": false,
      "inputs": [
        {
          "indexed": true,
          "internalType": "uint256",
          "name": "batchId",
          "type": "uint256"
        },
        {
          "indexed": true,
          "internalType": "address",
          "name": "approver",
          "type": "address"
        }
      ],
      "name": "QualityApproved",
      "type": "event"
    },
    {
      "anonymous": false,
      "inputs": [
        {
          "indexed": true,
          "internalType": "uint256",
          "name": "batchId",
          "type": "uint256"
        },
        {
          "indexed": true,
          "internalType": "address",
          "name": "disapprover",
          "type": "address"
        }
      ],
      "name": "QualityDisapproved",
      "type": "event"
    },
    {
      "anonymous": false,
      "inputs": [
        {
          "indexed": true,
          "internalType": "address",
          "name": "user",
          "type": "address"
        },
        {
          "indexed": false,
          "internalType": "string",
          "name": "companyName",
          "type": "string"
        },
        {
          "indexed": false,
          "internalType": "enum PharmaChain.Role",
          "name": "role",
          "type": "uint8"
        },
        {
          "indexed": false,
          "internalType": "string",
          "name": "contactInfo",
          "type": "string"
        }
      ],
      "name": "UserRegistered",
      "type": "event"
    },
    {
      "inputs": [
        {
          "internalType": "uint256",
          "name": "_batchId",
          "type": "uint256"
        }
      ],
      "name": "approveQuality",
      "outputs": [],
      "stateMutability": "nonpayable",
      "type": "function"
    },
    {
      "inputs": [
        {
          "internalType": "uint256",
          "name": "_orderId",
          "type": "uint256"
        },
        {
          "internalType": "uint256",
          "name": "_batchId",
          "type": "uint256"
        }
      ],
      "name": "assignBatchToOrder",
      "outputs": [],
      "stateMutability": "nonpayable",
      "type": "function"
    },
    {
      "inputs": [
        {
          "internalType": "uint256",
          "name": "_orderId",
          "type": "uint256"
        },
        {
          "internalType": "uint256",
          "name": "_unitId",
          "type": "uint256"
        }
      ],
      "name": "assignBatchUnitToOrder",
      "outputs": [],
      "stateMutability": "nonpayable",
      "type": "function"
    },
    {
      "inputs": [
        {
          "internalType": "uint256",
          "name": "_batchId",
          "type": "uint256"
        },
        {
          "internalType": "address",
          "name": "_distributor",
          "type": "address"
        },
        {
          "internalType": "uint256",
          "name": "_orderId",
          "type": "uint256"
        }
      ],
      "name": "assignToDistributor",
      "outputs": [],
      "stateMutability": "nonpayable",
      "type": "function"
    },
    {
      "inputs": [
        {
          "internalType": "uint256",
          "name": "_unitId",
          "type": "uint256"
        },
        {
          "internalType": "address",
          "name": "_provider",
          "type": "address"
        }
      ],
      "name": "assignUnitToProvider",
      "outputs": [],
      "stateMutability": "nonpayable",
      "type": "function"
    },
    {
      "inputs": [
        {
          "internalType": "uint256",
          "name": "",
          "type": "uint256"
        }
      ],
      "name": "batchUnits",
      "outputs": [
        {
          "internalType": "uint256",
          "name": "unitId",
          "type": "uint256"
        },
        {
          "internalType": "uint256",
          "name": "batchId",
          "type": "uint256"
        },
        {
          "internalType": "address",
          "name": "provider",
          "type": "address"
        },
        {
          "internalType": "bool",
          "name": "isAssigned",
          "type": "bool"
        }
      ],
      "stateMutability": "view",
      "type": "function"
    },
    {
      "inputs": [
        {
          "internalType": "uint256",
          "name": "",
          "type": "uint256"
        }
      ],
      "name": "batches",
      "outputs": [
        {
          "internalType": "uint256",
          "name": "batchId",
          "type": "uint256"
        },
        {
          "internalType": "address",
          "name": "manufacturer",
          "type": "address"
        },
        {
          "internalType": "string",
          "name": "details",
          "type": "string"
        },
        {
          "internalType": "bool",
          "name": "isQualityApproved",
          "type": "bool"
        },
        {
          "internalType": "bool",
          "name": "isQualityDisapproved",
          "type": "bool"
        },
        {
          "internalType": "address",
          "name": "distributor",
          "type": "address"
        },
        {
          "internalType": "bytes32",
          "name": "rfidUIDHash",
          "type": "bytes32"
        },
        {
          "internalType": "bool",
          "name": "isRecalled",
          "type": "bool"
        },
        {
          "internalType": "uint256",
          "name": "manufactureDate",
          "type": "uint256"
        },
        {
          "internalType": "uint256",
          "name": "expiryDate",
          "type": "uint256"
        },
        {
          "internalType": "uint256",
          "name": "quantity",
          "type": "uint256"
        },
        {
          "internalType": "uint256",
          "name": "orderId",
          "type": "uint256"
        }
      ],
      "stateMutability": "view",
      "type": "function"
    },
    {
      "inputs": [
        {
          "internalType": "string",
          "name": "_details",
          "type": "string"
        },
        {
          "internalType": "bytes32",
          "name": "_rfidUIDHash",
          "type": "bytes32"
        },
        {
          "internalType": "uint256",
          "name": "_expiryDate",
          "type": "uint256"
        },
        {
          "internalType": "uint256",
          "name": "_quantity",
          "type": "uint256"
        }
      ],
      "name": "createBatch",
      "outputs": [],
      "stateMutability": "nonpayable",
      "type": "function"
    },
    {
      "inputs": [
        {
          "internalType": "string",
          "name": "_medName",
          "type": "string"
        },
        {
          "internalType": "uint256",
          "name": "_quantity",
          "type": "uint256"
        }
      ],
      "name": "createDistributorOrder",
      "outputs": [],
      "stateMutability": "nonpayable",
      "type": "function"
    },
    {
      "inputs": [
        {
          "internalType": "string",
          "name": "_details",
          "type": "string"
        },
        {
          "internalType": "address",
          "name": "_distributor",
          "type": "address"
        }
      ],
      "name": "createProviderOrder",
      "outputs": [],
      "stateMutability": "nonpayable",
      "type": "function"
    },
    {
      "inputs": [
        {
          "internalType": "uint256",
          "name": "_batchId",
          "type": "uint256"
        }
      ],
      "name": "disapproveQuality",
      "outputs": [],
      "stateMutability": "nonpayable",
      "type": "function"
    },
    {
      "inputs": [
        {
          "internalType": "address",
          "name": "",
          "type": "address"
        },
        {
          "internalType": "uint256",
          "name": "",
          "type": "uint256"
        }
      ],
      "name": "distributorMedNames",
      "outputs": [
        {
          "internalType": "string",
          "name": "",
          "type": "string"
        }
      ],
      "stateMutability": "view",
      "type": "function"
    },
    {
      "inputs": [
        {
          "internalType": "uint256",
          "name": "",
          "type": "uint256"
        }
      ],
      "name": "distributorOrders",
      "outputs": [
        {
          "internalType": "uint256",
          "name": "orderId",
          "type": "uint256"
        },
        {
          "internalType": "address",
          "name": "distributor",
          "type": "address"
        },
        {
          "internalType": "address",
          "name": "manufacturer",
          "type": "address"
        },
        {
          "internalType": "uint256",
          "name": "orderDate",
          "type": "uint256"
        },
        {
          "internalType": "uint256",
          "name": "batchId",
          "type": "uint256"
        },
        {
          "internalType": "string",
          "name": "medName",
          "type": "string"
        },
        {
          "internalType": "uint256",
          "name": "quantity",
          "type": "uint256"
        },
        {
          "internalType": "bool",
          "name": "isAssigned",
          "type": "bool"
        },
        {
          "internalType": "enum PharmaChain.OrderStatus",
          "name": "status",
          "type": "uint8"
        },
        {
          "internalType": "uint256",
          "name": "orderApprovedDate",
          "type": "uint256"
        }
      ],
      "stateMutability": "view",
      "type": "function"
    },
    {
      "inputs": [
        {
          "internalType": "address",
          "name": "",
          "type": "address"
        },
        {
          "internalType": "string",
          "name": "",
          "type": "string"
        }
      ],
      "name": "distributorStocks",
      "outputs": [
        {
          "internalType": "uint256",
          "name": "",
          "type": "uint256"
        }
      ],
      "stateMutability": "view",
      "type": "function"
    },
    {
      "inputs": [
        {
          "internalType": "address",
          "name": "_user",
          "type": "address"
        }
      ],
      "name": "getCompanyNameFromAddress",
      "outputs": [
        {
          "internalType": "string",
          "name": "",
          "type": "string"
        }
      ],
      "stateMutability": "view",
      "type": "function"
    },
    {
      "inputs": [
        {
          "internalType": "address",
          "name": "_manufacturer",
          "type": "address"
        }
      ],
      "name": "getCreatedBatches",
      "outputs": [
        {
          "components": [
            {
              "internalType": "uint256",
              "name": "batchId",
              "type": "uint256"
            },
            {
              "internalType": "address",
              "name": "manufacturer",
              "type": "address"
            },
            {
              "internalType": "string",
              "name": "details",
              "type": "string"
            },
            {
              "internalType": "bool",
              "name": "isQualityApproved",
              "type": "bool"
            },
            {
              "internalType": "bool",
              "name": "isQualityDisapproved",
              "type": "bool"
            },
            {
              "internalType": "address",
              "name": "distributor",
              "type": "address"
            },
            {
              "internalType": "bytes32",
              "name": "rfidUIDHash",
              "type": "bytes32"
            },
            {
              "internalType": "bool",
              "name": "isRecalled",
              "type": "bool"
            },
            {
              "internalType": "uint256",
              "name": "manufactureDate",
              "type": "uint256"
            },
            {
              "internalType": "uint256",
              "name": "expiryDate",
              "type": "uint256"
            },
            {
              "internalType": "uint256",
              "name": "quantity",
              "type": "uint256"
            },
            {
              "internalType": "uint256",
              "name": "orderId",
              "type": "uint256"
            }
          ],
          "internalType": "struct PharmaChain.Batch[]",
          "name": "",
          "type": "tuple[]"
        }
      ],
      "stateMutability": "view",
      "type": "function"
    },
    {
      "inputs": [
        {
          "internalType": "uint256",
          "name": "_orderId",
          "type": "uint256"
        }
      ],
      "name": "getDistributorOrderStatus",
      "outputs": [
        {
          "internalType": "enum PharmaChain.OrderStatus",
          "name": "",
          "type": "uint8"
        },
        {
          "internalType": "uint256",
          "name": "",
          "type": "uint256"
        }
      ],
      "stateMutability": "view",
      "type": "function"
    },
    {
      "inputs": [
        {
          "internalType": "address",
          "name": "_distributor",
          "type": "address"
        }
      ],
      "name": "getDistributorOrders",
      "outputs": [
        {
          "components": [
            {
              "internalType": "uint256",
              "name": "orderId",
              "type": "uint256"
            },
            {
              "internalType": "address",
              "name": "distributor",
              "type": "address"
            },
            {
              "internalType": "address",
              "name": "manufacturer",
              "type": "address"
            },
            {
              "internalType": "uint256",
              "name": "orderDate",
              "type": "uint256"
            },
            {
              "internalType": "uint256",
              "name": "batchId",
              "type": "uint256"
            },
            {
              "internalType": "string",
              "name": "medName",
              "type": "string"
            },
            {
              "internalType": "uint256",
              "name": "quantity",
              "type": "uint256"
            },
            {
              "internalType": "bool",
              "name": "isAssigned",
              "type": "bool"
            },
            {
              "internalType": "enum PharmaChain.OrderStatus",
              "name": "status",
              "type": "uint8"
            },
            {
              "internalType": "uint256",
              "name": "orderApprovedDate",
              "type": "uint256"
            }
          ],
          "internalType": "struct PharmaChain.DistributorOrder[]",
          "name": "",
          "type": "tuple[]"
        }
      ],
      "stateMutability": "view",
      "type": "function"
    },
    {
      "inputs": [
        {
          "internalType": "address",
          "name": "_distributor",
          "type": "address"
        }
      ],
      "name": "getDistributorStock",
      "outputs": [
        {
          "components": [
            {
              "internalType": "string",
              "name": "medName",
              "type": "string"
            },
            {
              "internalType": "uint256",
              "name": "quantity",
              "type": "uint256"
            }
          ],
          "internalType": "struct PharmaChain.StockItem[]",
          "name": "",
          "type": "tuple[]"
        }
      ],
      "stateMutability": "view",
      "type": "function"
    },
    {
      "inputs": [
        {
          "internalType": "address",
          "name": "_manufacturer",
          "type": "address"
        }
      ],
      "name": "getFulfilledBatches",
      "outputs": [
        {
          "components": [
            {
              "internalType": "uint256",
              "name": "batchId",
              "type": "uint256"
            },
            {
              "internalType": "address",
              "name": "manufacturer",
              "type": "address"
            },
            {
              "internalType": "string",
              "name": "details",
              "type": "string"
            },
            {
              "internalType": "bool",
              "name": "isQualityApproved",
              "type": "bool"
            },
            {
              "internalType": "bool",
              "name": "isQualityDisapproved",
              "type": "bool"
            },
            {
              "internalType": "address",
              "name": "distributor",
              "type": "address"
            },
            {
              "internalType": "bytes32",
              "name": "rfidUIDHash",
              "type": "bytes32"
            },
            {
              "internalType": "bool",
              "name": "isRecalled",
              "type": "bool"
            },
            {
              "internalType": "uint256",
              "name": "manufactureDate",
              "type": "uint256"
            },
            {
              "internalType": "uint256",
              "name": "expiryDate",
              "type": "uint256"
            },
            {
              "internalType": "uint256",
              "name": "quantity",
              "type": "uint256"
            },
            {
              "internalType": "uint256",
              "name": "orderId",
              "type": "uint256"
            }
          ],
          "internalType": "struct PharmaChain.Batch[]",
          "name": "",
          "type": "tuple[]"
        }
      ],
      "stateMutability": "view",
      "type": "function"
    },
    {
      "inputs": [],
      "name": "getPendingDistributorOrders",
      "outputs": [
        {
          "components": [
            {
              "internalType": "uint256",
              "name": "orderId",
              "type": "uint256"
            },
            {
              "internalType": "address",
              "name": "distributor",
              "type": "address"
            },
            {
              "internalType": "address",
              "name": "manufacturer",
              "type": "address"
            },
            {
              "internalType": "uint256",
              "name": "orderDate",
              "type": "uint256"
            },
            {
              "internalType": "uint256",
              "name": "batchId",
              "type": "uint256"
            },
            {
              "internalType": "string",
              "name": "medName",
              "type": "string"
            },
            {
              "internalType": "uint256",
              "name": "quantity",
              "type": "uint256"
            },
            {
              "internalType": "bool",
              "name": "isAssigned",
              "type": "bool"
            },
            {
              "internalType": "enum PharmaChain.OrderStatus",
              "name": "status",
              "type": "uint8"
            },
            {
              "internalType": "uint256",
              "name": "orderApprovedDate",
              "type": "uint256"
            }
          ],
          "internalType": "struct PharmaChain.DistributorOrder[]",
          "name": "",
          "type": "tuple[]"
        }
      ],
      "stateMutability": "view",
      "type": "function"
    },
    {
      "inputs": [
        {
          "internalType": "address",
          "name": "_provider",
          "type": "address"
        }
      ],
      "name": "getProviderOrders",
      "outputs": [
        {
          "components": [
            {
              "internalType": "uint256",
              "name": "orderId",
              "type": "uint256"
            },
            {
              "internalType": "address",
              "name": "provider",
              "type": "address"
            },
            {
              "internalType": "address",
              "name": "distributor",
              "type": "address"
            },
            {
              "internalType": "uint256",
              "name": "orderDate",
              "type": "uint256"
            },
            {
              "internalType": "uint256",
              "name": "unitId",
              "type": "uint256"
            },
            {
              "internalType": "string",
              "name": "details",
              "type": "string"
            },
            {
              "internalType": "bool",
              "name": "isAssigned",
              "type": "bool"
            },
            {
              "internalType": "uint256",
              "name": "batchId",
              "type": "uint256"
            },
            {
              "internalType": "enum PharmaChain.OrderStatus",
              "name": "status",
              "type": "uint8"
            }
          ],
          "internalType": "struct PharmaChain.ProviderOrder[]",
          "name": "",
          "type": "tuple[]"
        }
      ],
      "stateMutability": "view",
      "type": "function"
    },
    {
      "inputs": [
        {
          "internalType": "address",
          "name": "_provider",
          "type": "address"
        }
      ],
      "name": "getProviderStock",
      "outputs": [
        {
          "components": [
            {
              "internalType": "string",
              "name": "medName",
              "type": "string"
            },
            {
              "internalType": "uint256",
              "name": "quantity",
              "type": "uint256"
            }
          ],
          "internalType": "struct PharmaChain.StockItem[]",
          "name": "",
          "type": "tuple[]"
        }
      ],
      "stateMutability": "view",
      "type": "function"
    },
    {
      "inputs": [
        {
          "internalType": "address",
          "name": "_user",
          "type": "address"
        }
      ],
      "name": "getUserByAddress",
      "outputs": [
        {
          "components": [
            {
              "internalType": "address",
              "name": "account",
              "type": "address"
            },
            {
              "internalType": "string",
              "name": "companyName",
              "type": "string"
            },
            {
              "internalType": "enum PharmaChain.Role",
              "name": "role",
              "type": "uint8"
            },
            {
              "internalType": "string",
              "name": "contactInfo",
              "type": "string"
            }
          ],
          "internalType": "struct PharmaChain.User",
          "name": "",
          "type": "tuple"
        }
      ],
      "stateMutability": "view",
      "type": "function"
    },
    {
      "inputs": [
        {
          "internalType": "address",
          "name": "_user",
          "type": "address"
        }
      ],
      "name": "getUserInfo",
      "outputs": [
        {
          "internalType": "string",
          "name": "companyName",
          "type": "string"
        },
        {
          "internalType": "string",
          "name": "contactInfo",
          "type": "string"
        },
        {
          "internalType": "enum PharmaChain.Role",
          "name": "role",
          "type": "uint8"
        }
      ],
      "stateMutability": "view",
      "type": "function"
    },
    {
      "inputs": [
        {
          "internalType": "address",
          "name": "_user",
          "type": "address"
        }
      ],
      "name": "getUserRole",
      "outputs": [
        {
          "internalType": "enum PharmaChain.Role",
          "name": "",
          "type": "uint8"
        }
      ],
      "stateMutability": "view",
      "type": "function"
    },
    {
      "inputs": [
        {
          "internalType": "address",
          "name": "_user",
          "type": "address"
        }
      ],
      "name": "isUserRegistered",
      "outputs": [
        {
          "internalType": "bool",
          "name": "",
          "type": "bool"
        }
      ],
      "stateMutability": "view",
      "type": "function"
    },
    {
      "inputs": [],
      "name": "nextBatchId",
      "outputs": [
        {
          "internalType": "uint256",
          "name": "",
          "type": "uint256"
        }
      ],
      "stateMutability": "view",
      "type": "function"
    },
    {
      "inputs": [],
      "name": "nextDistributorOrderId",
      "outputs": [
        {
          "internalType": "uint256",
          "name": "",
          "type": "uint256"
        }
      ],
      "stateMutability": "view",
      "type": "function"
    },
    {
      "inputs": [],
      "name": "nextProviderOrderId",
      "outputs": [
        {
          "internalType": "uint256",
          "name": "",
          "type": "uint256"
        }
      ],
      "stateMutability": "view",
      "type": "function"
    },
    {
      "inputs": [],
      "name": "nextUnitId",
      "outputs": [
        {
          "internalType": "uint256",
          "name": "",
          "type": "uint256"
        }
      ],
      "stateMutability": "view",
      "type": "function"
    },
    {
      "inputs": [
        {
          "internalType": "address",
          "name": "",
          "type": "address"
        },
        {
          "internalType": "uint256",
          "name": "",
          "type": "uint256"
        }
      ],
      "name": "providerMedNames",
      "outputs": [
        {
          "internalType": "string",
          "name": "",
          "type": "string"
        }
      ],
      "stateMutability": "view",
      "type": "function"
    },
    {
      "inputs": [
        {
          "internalType": "uint256",
          "name": "",
          "type": "uint256"
        }
      ],
      "name": "providerOrders",
      "outputs": [
        {
          "internalType": "uint256",
          "name": "orderId",
          "type": "uint256"
        },
        {
          "internalType": "address",
          "name": "provider",
          "type": "address"
        },
        {
          "internalType": "address",
          "name": "distributor",
          "type": "address"
        },
        {
          "internalType": "uint256",
          "name": "orderDate",
          "type": "uint256"
        },
        {
          "internalType": "uint256",
          "name": "unitId",
          "type": "uint256"
        },
        {
          "internalType": "string",
          "name": "details",
          "type": "string"
        },
        {
          "internalType": "bool",
          "name": "isAssigned",
          "type": "bool"
        },
        {
          "internalType": "uint256",
          "name": "batchId",
          "type": "uint256"
        },
        {
          "internalType": "enum PharmaChain.OrderStatus",
          "name": "status",
          "type": "uint8"
        }
      ],
      "stateMutability": "view",
      "type": "function"
    },
    {
      "inputs": [
        {
          "internalType": "address",
          "name": "",
          "type": "address"
        },
        {
          "internalType": "string",
          "name": "",
          "type": "string"
        }
      ],
      "name": "providerStocks",
      "outputs": [
        {
          "internalType": "uint256",
          "name": "",
          "type": "uint256"
        }
      ],
      "stateMutability": "view",
      "type": "function"
    },
    {
      "inputs": [
        {
          "internalType": "uint256",
          "name": "_batchId",
          "type": "uint256"
        }
      ],
      "name": "recallBatch",
      "outputs": [],
      "stateMutability": "nonpayable",
      "type": "function"
    },
    {
      "inputs": [
        {
          "internalType": "address",
          "name": "_user",
          "type": "address"
        },
        {
          "internalType": "string",
          "name": "_companyName",
          "type": "string"
        },
        {
          "internalType": "enum PharmaChain.Role",
          "name": "_role",
          "type": "uint8"
        },
        {
          "internalType": "string",
          "name": "_contactInfo",
          "type": "string"
        }
      ],
      "name": "registerUser",
      "outputs": [],
      "stateMutability": "nonpayable",
      "type": "function"
    },
    {
      "inputs": [
        {
          "internalType": "uint256",
          "name": "_orderId",
          "type": "uint256"
        },
        {
          "internalType": "enum PharmaChain.OrderStatus",
          "name": "_status",
          "type": "uint8"
        }
      ],
      "name": "updateDistributorOrderStatus",
      "outputs": [],
      "stateMutability": "nonpayable",
      "type": "function"
    },
    {
      "inputs": [
        {
          "internalType": "uint256",
          "name": "_orderId",
          "type": "uint256"
        },
        {
          "internalType": "enum PharmaChain.OrderStatus",
          "name": "_status",
          "type": "uint8"
        }
      ],
      "name": "updateProviderOrderStatus",
      "outputs": [],
      "stateMutability": "nonpayable",
      "type": "function"
    },
    {
      "inputs": [
        {
          "internalType": "address",
          "name": "",
          "type": "address"
        }
      ],
      "name": "users",
      "outputs": [
        {
          "internalType": "address",
          "name": "account",
          "type": "address"
        },
        {
          "internalType": "string",
          "name": "companyName",
          "type": "string"
        },
        {
          "internalType": "enum PharmaChain.Role",
          "name": "role",
          "type": "uint8"
        },
        {
          "internalType": "string",
          "name": "contactInfo",
          "type": "string"
        }
      ],
      "stateMutability": "view",
      "type": "function"
    }
  ],
  "bytecode": "0x608060405260646009556064600a556064600b556064600c5534801561002457600080fd5b5061453e806100346000396000f3fe608060405234801561001057600080fd5b506004361061023d5760003560e01c80637e3b128b1161013b578063b616e184116100b8578063e3c6e07e1161007c578063e3c6e07e14610666578063f1bd14ad14610679578063f212d6d9146106b5578063f685aaff146106c8578063fa4b47a3146106db57600080fd5b8063b616e18414610611578063c91cdc9014610624578063ced2774314610637578063d0aeb5371461064a578063d38622381461065d57600080fd5b806395c53d49116100ff57806395c53d4914610514578063a3ef03cd1461053c578063a6e162b4146105b0578063a87430ba146105c3578063b32c4d8d146105e657600080fd5b80637e3b128b146104c657806383e9f8bf146104cf5780638429bcf7146104ef5780638462a7f8146104f85780638b6c93951461050157600080fd5b806343deec2e116101c9578063642c97191161018d578063642c9719146103f557806369c212f6146104085780636ae25d981461042857806371ad93511461047257806376c38606146104b357600080fd5b806343deec2e1461037157806344dfc5f8146103845780634a746b7b146103975780634e4b18fb146103aa5780636386c1c7146103d357600080fd5b8063239cef3a11610210578063239cef3a146102cf5780632615457b146102e257806327820851146103025780632d703d731461033e5780633d28a3011461035e57600080fd5b80630c3d3f4314610242578063163f7522146102575780631c5a3a531461029a5780631d8abc8f146102ba575b600080fd5b6102556102503660046136ef565b6106ee565b005b61028561026536600461371b565b6001600160a01b0390811660009081526020819052604090205416151590565b60405190151581526020015b60405180910390f35b6102ad6102a836600461371b565b610844565b6040516102919190613786565b6102c2610a0f565b6040516102919190613828565b6102556102dd36600461390d565b610c54565b6102f56102f036600461371b565b610e35565b604051610291919061392f565b61033161031036600461371b565b6001600160a01b031660009081526020819052604090206002015460ff1690565b6040516102919190613a17565b61035161034c36600461371b565b6110ca565b6040516102919190613a2b565b61025561036c366004613bc2565b611318565b61025561037f366004613c4e565b61146f565b610255610392366004613ca1565b611713565b6102ad6103a536600461371b565b611817565b6103bd6103b8366004613ca1565b6119da565b6040516102919a99989796959493929190613cba565b6103e66103e136600461371b565b611ac9565b60405161029193929190613d30565b61035161040336600461371b565b611c77565b61041b61041636600461371b565b611f1d565b6040516102919190613d6d565b610464610436366004613dd4565b6006602090815260009283526040909220815180830184018051928152908401929093019190912091525481565b604051908152602001610291565b6104a5610480366004613ca1565b6000908152600360205260409020600781015460089091015461010090910460ff1691565b604051610291929190613e21565b6102556104c1366004613e3c565b6120cf565b610464600a5481565b6104e26104dd36600461371b565b6122f3565b6040516102919190613e70565b610464600b5481565b61046460095481565b61025561050f36600461390d565b6123a2565b610527610522366004613ca1565b612507565b60405161029199989796959493929190613e83565b61057f61054a366004613ca1565b60026020819052600091825260409091208054600182015491909201546001600160a01b03811690600160a01b900460ff1684565b604051610291949392919093845260208401929092526001600160a01b031660408301521515606082015260800190565b6102556105be366004613ca1565b6125ee565b6105d66105d136600461371b565b6126f2565b6040516102919493929190613ef1565b6105f96105f4366004613ca1565b61283e565b6040516102919c9b9a99989796959493929190613f3f565b61025561061f366004613ca1565b61293a565b610255610632366004613e3c565b612a42565b6102c261064536600461371b565b612d05565b6104e2610658366004613fb4565b612f57565b610464600c5481565b6104e2610674366004613fb4565b613010565b610464610687366004613dd4565b6005602090815260009283526040909220815180830184018051928152908401929093019190912091525481565b6102556106c3366004613fde565b61302c565b6102556106d6366004614022565b6131aa565b6102556106e9366004614066565b613336565b600133600090815260208190526040902060029081015460ff1690811115610718576107186137fe565b1461073e5760405162461bcd60e51b81526004016107359061409b565b60405180910390fd5b600082815260026020819052604090912090810154600160a01b900460ff16156107aa5760405162461bcd60e51b815260206004820152601860248201527f556e697420697320616c72656164792061737369676e656400000000000000006044820152606401610735565b6001600160a01b038216600090815260208190526040902060029081015460ff16818111156107db576107db6137fe565b1461081b5760405162461bcd60e51b815260206004820152601060248201526f24b73b30b634b210383937bb34b232b960811b6044820152606401610735565b60020180546001600160a81b0319166001600160a01b0390921691909117600160a01b17905550565b6001600160a01b038116600090815260086020526040812054606091816001600160401b0381111561087857610878613b20565b6040519080825280602002602001820160405280156108be57816020015b6040805180820190915260608152600060208201528152602001906001900390816108965790505b50905060005b82811015610a07576001600160a01b03851660009081526008602052604081208054839081106108f6576108f66140e4565b90600052602060002001805461090b906140fa565b80601f0160208091040260200160405190810160405280929190818152602001828054610937906140fa565b80156109845780601f1061095957610100808354040283529160200191610984565b820191906000526020600020905b81548152906001019060200180831161096757829003601f168201915b50505050509050604051806040016040528082815260200160066000896001600160a01b03166001600160a01b03168152602001908152602001600020836040516109cf9190614134565b9081526020016040518091039020548152508383815181106109f3576109f36140e4565b6020908102919091010152506001016108c4565b509392505050565b6060600060645b600b54811015610a4f5760008181526003602052604090206007015460ff16610a475781610a4381614166565b9250505b600101610a16565b506000816001600160401b03811115610a6a57610a6a613b20565b604051908082528060200260200182016040528015610aa357816020015b610a90613604565b815260200190600190039081610a885790505b509050600060645b600b54811015610c4b5760008181526003602052604090206007015460ff16610c43576000818152600360208181526040928390208351610140810185528154815260018201546001600160a01b03908116938201939093526002820154909216938201939093529082015460608201526004820154608082015260058201805491929160a084019190610b3e906140fa565b80601f0160208091040260200160405190810160405280929190818152602001828054610b6a906140fa565b8015610bb75780601f10610b8c57610100808354040283529160200191610bb7565b820191906000526020600020905b815481529060010190602001808311610b9a57829003601f168201915b505050918352505060068201546020820152600782015460ff80821615156040840152606090920191610100909104166004811115610bf857610bf86137fe565b6004811115610c0957610c096137fe565b8152602001600882015481525050838381518110610c2957610c296140e4565b60200260200101819052508180610c3f90614166565b9250505b600101610aab565b50909392505050565b33600090815260208190526040812060029081015460ff1690811115610c7c57610c7c6137fe565b14610c995760405162461bcd60e51b81526004016107359061417f565b600082815260036020526040902060028101546001600160a01b03161580610ccd575060028101546001600160a01b031633145b610d345760405162461bcd60e51b815260206004820152603260248201527f4f6e6c7920746865206f726465722773206d616e7566616374757265722063616044820152710dc40c2e6e6d2cedc40e8d0ca40c4c2e8c6d60731b6064820152608401610735565b6000828152600160208190526040909120908101546001600160a01b03163314610d975760405162461bcd60e51b815260206004820152601460248201527324b73b30b634b21036b0b73ab330b1ba3ab932b960611b6044820152606401610735565b816006015481600801541015610def5760405162461bcd60e51b815260206004820152601b60248201527f496e73756666696369656e74206261746368207175616e7469747900000000006044820152606401610735565b600482018390556002820180546001600160a01b0319163317905560078201805460ff19811660019081178355919061ffff19168217610100835b021790555050505050565b6060600060645b600c54811015610e80576000818152600460205260409020600101546001600160a01b03808616911603610e785781610e7481614166565b9250505b600101610e3c565b506000816001600160401b03811115610e9b57610e9b613b20565b604051908082528060200260200182016040528015610f1857816020015b610f05604080516101208101825260008082526020820181905291810182905260608082018390526080820183905260a082015260c0810182905260e081018290529061010082015290565b815260200190600190039081610eb95790505b509050600060645b600c548110156110c0576000818152600460205260409020600101546001600160a01b038088169116036110b8576000818152600460208181526040928390208351610120810185528154815260018201546001600160a01b03908116938201939093526002820154909216938201939093526003830154606082015290820154608082015260058201805491929160a084019190610fbe906140fa565b80601f0160208091040260200160405190810160405280929190818152602001828054610fea906140fa565b80156110375780601f1061100c57610100808354040283529160200191611037565b820191906000526020600020905b81548152906001019060200180831161101a57829003601f168201915b5050509183525050600682015460ff90811615156020830152600783015460408301526008830154606090920191166004811115611077576110776137fe565b6004811115611088576110886137fe565b8152505083838151811061109e5761109e6140e4565b602002602001018190525081806110b490614166565b9250505b600101610f20565b5090949350505050565b6060600060645b60095481101561111657600081815260016020819052604090912001546001600160a01b0380861691160361110e578161110a81614166565b9250505b6001016110d1565b506000816001600160401b0381111561113157611131613b20565b60405190808252806020026020018201604052801561116a57816020015b611157613657565b81526020019060019003908161114f5790505b509050600060645b6009548110156110c057600081815260016020819052604090912001546001600160a01b038088169116036113105760008181526001602081815260409283902083516101808101855281548152928101546001600160a01b03169183019190915260028101805492939192918401916111eb906140fa565b80601f0160208091040260200160405190810160405280929190818152602001828054611217906140fa565b80156112645780601f1061123957610100808354040283529160200191611264565b820191906000526020600020905b81548152906001019060200180831161124757829003601f168201915b5050509183525050600382015460ff80821615156020840152610100808304821615156040850152620100009092046001600160a01b0316606084015260048401546080840152600584015416151560a0830152600683015460c0830152600783015460e08301526008830154908201526009909101546101209091015283518490849081106112f6576112f66140e4565b6020026020010181905250818061130c90614166565b9250505b600101611172565b6001600160a01b0384166113605760405162461bcd60e51b815260206004820152600f60248201526e496e76616c6964206164647265737360881b6044820152606401610735565b6040518060800160405280856001600160a01b03168152602001848152602001836002811115611392576113926137fe565b815260209081018390526001600160a01b03868116600090815280835260409020835181546001600160a01b03191692169190911781559082015160018201906113dc9082614219565b5060408201518160020160006101000a81548160ff02191690836002811115611407576114076137fe565b0217905550606082015160038201906114209082614219565b50905050836001600160a01b03167f3a403922431a43cbc3d929f1b03869ffadab7bce01402822980e72e6ea8e9d91848484604051611461939291906142d8565b60405180910390a250505050565b33600090815260208190526040812060029081015460ff1690811115611497576114976137fe565b146114b45760405162461bcd60e51b81526004016107359061417f565b60098054600091826114c583614166565b9190505590504283116115245760405162461bcd60e51b815260206004820152602160248201527f4578706972792064617465206d75737420626520696e207468652066757475726044820152606560f81b6064820152608401610735565b6000821161157f5760405162461bcd60e51b815260206004820152602260248201527f5175616e74697479206d7573742062652067726561746572207468616e207a65604482015261726f60f01b6064820152608401610735565b60408051610180810182528281523360208083019182528284018981526000606085018190526080850181905260a0850181905260c085018a905260e08501819052426101008601526101208501899052610140850188905261016085018190528681526001928390529490942083518155915190820180546001600160a01b0319166001600160a01b03909216919091179055915190919060028201906116279082614219565b506060820151600382018054608085015160a086015161ffff1990921693151561ff0019169390931761010093151584021762010000600160b01b031916620100006001600160a01b039092169190910217905560c0830151600483015560e083015160058301805460ff191691151591909117905582015160068201556101208201516007820155610140820151600882015561016090910151600990910155604051339082907fbee34f0ca0c0edfc2bd967468f81e100292d859329be491cc44c4ec390c65fac90611704908990899042908a908a90614314565b60405180910390a35050505050565b33600090815260208190526040812060029081015460ff169081111561173b5761173b6137fe565b146117585760405162461bcd60e51b81526004016107359061417f565b6000818152600160208190526040909120908101546001600160a01b031633146117d65760405162461bcd60e51b815260206004820152602960248201527f4f6e6c7920746865206d616e7566616374757265722063616e20617070726f7660448201526865207175616c69747960b81b6064820152608401610735565b60038101805461ffff19166001179055604051339083907f08d6065569e454b48393f44317518d1282971813504b4d323942afba2f7a2c5d90600090a35050565b6001600160a01b038116600090815260076020526040812054606091816001600160401b0381111561184b5761184b613b20565b60405190808252806020026020018201604052801561189157816020015b6040805180820190915260608152600060208201528152602001906001900390816118695790505b50905060005b82811015610a07576001600160a01b03851660009081526007602052604081208054839081106118c9576118c96140e4565b9060005260206000200180546118de906140fa565b80601f016020809104026020016040519081016040528092919081815260200182805461190a906140fa565b80156119575780601f1061192c57610100808354040283529160200191611957565b820191906000526020600020905b81548152906001019060200180831161193a57829003601f168201915b50505050509050604051806040016040528082815260200160056000896001600160a01b03166001600160a01b03168152602001908152602001600020836040516119a29190614134565b9081526020016040518091039020548152508383815181106119c6576119c66140e4565b602090810291909101015250600101611897565b600360208190526000918252604090912080546001820154600283015493830154600484015460058501805494966001600160a01b039485169694169492939192611a24906140fa565b80601f0160208091040260200160405190810160405280929190818152602001828054611a50906140fa565b8015611a9d5780601f10611a7257610100808354040283529160200191611a9d565b820191906000526020600020905b815481529060010190602001808311611a8057829003601f168201915b505050600684015460078501546008909501549394909360ff808316945061010090920490911691508a565b6001600160a01b038082166000908152602081815260408083208151608081019092528054909416815260018401805460609586959485949391929084019190611b12906140fa565b80601f0160208091040260200160405190810160405280929190818152602001828054611b3e906140fa565b8015611b8b5780601f10611b6057610100808354040283529160200191611b8b565b820191906000526020600020905b815481529060010190602001808311611b6e57829003601f168201915b505050918352505060028281015460209092019160ff1690811115611bb257611bb26137fe565b6002811115611bc357611bc36137fe565b8152602001600382018054611bd7906140fa565b80601f0160208091040260200160405190810160405280929190818152602001828054611c03906140fa565b8015611c505780601f10611c2557610100808354040283529160200191611c50565b820191906000526020600020905b815481529060010190602001808311611c3357829003601f168201915b50505091909252505050602081015160608201516040909201519097919650945092505050565b6060600060645b600954811015611cef57600081815260016020819052604090912001546001600160a01b038581169116148015611cd457506000818152600160205260409020600301546201000090046001600160a01b031615155b15611ce75781611ce381614166565b9250505b600101611c7e565b506000816001600160401b03811115611d0a57611d0a613b20565b604051908082528060200260200182016040528015611d4357816020015b611d30613657565b815260200190600190039081611d285790505b509050600060645b6009548110156110c057600081815260016020819052604090912001546001600160a01b038781169116148015611da157506000818152600160205260409020600301546201000090046001600160a01b031615155b15611f155760008181526001602081815260409283902083516101808101855281548152928101546001600160a01b0316918301919091526002810180549293919291840191611df0906140fa565b80601f0160208091040260200160405190810160405280929190818152602001828054611e1c906140fa565b8015611e695780601f10611e3e57610100808354040283529160200191611e69565b820191906000526020600020905b815481529060010190602001808311611e4c57829003601f168201915b5050509183525050600382015460ff80821615156020840152610100808304821615156040850152620100009092046001600160a01b0316606084015260048401546080840152600584015416151560a0830152600683015460c0830152600783015460e0830152600883015490820152600990910154610120909101528351849084908110611efb57611efb6140e4565b60200260200101819052508180611f1190614166565b9250505b600101611d4b565b60408051608081018252600080825260606020830181905292820152818101919091526001600160a01b03808316600090815260208181526040918290208251608081019093528054909316825260018301805492939291840191611f81906140fa565b80601f0160208091040260200160405190810160405280929190818152602001828054611fad906140fa565b8015611ffa5780601f10611fcf57610100808354040283529160200191611ffa565b820191906000526020600020905b815481529060010190602001808311611fdd57829003601f168201915b505050918352505060028281015460209092019160ff1690811115612021576120216137fe565b6002811115612032576120326137fe565b8152602001600382018054612046906140fa565b80601f0160208091040260200160405190810160405280929190818152602001828054612072906140fa565b80156120bf5780601f10612094576101008083540402835291602001916120bf565b820191906000526020600020905b8154815290600101906020018083116120a257829003601f168201915b5050505050815250509050919050565b600133600090815260208190526040902060029081015460ff16908111156120f9576120f96137fe565b146121165760405162461bcd60e51b81526004016107359061409b565b600082815260036020526040902060018101546001600160a01b031633146121995760405162461bcd60e51b815260206004820152603060248201527f4f6e6c7920746865206469737472696275746f722063616e207570646174652060448201526f746865206f726465722073746174757360801b6064820152608401610735565b60078101805483919061ff0019166101008360048111156121bc576121bc6137fe565b021790555060038260048111156121d5576121d56137fe565b036122ee576006810154336000908152600560208190526040918290209151612200918501906143be565b9081526020016040518091039020600082825461221d91906143ca565b925050819055506122bc33826005018054612237906140fa565b80601f0160208091040260200160405190810160405280929190818152602001828054612263906140fa565b80156122b05780601f10612285576101008083540402835291602001916122b0565b820191906000526020600020905b81548152906001019060200180831161229357829003601f168201915b50505050506001613559565b6122ee57336000908152600760209081526040822080546001810182559083529120016122ec60058301826143dd565b505b505050565b6001600160a01b038116600090815260208190526040902060010180546060919061231d906140fa565b80601f0160208091040260200160405190810160405280929190818152602001828054612349906140fa565b80156123965780601f1061236b57610100808354040283529160200191612396565b820191906000526020600020905b81548152906001019060200180831161237957829003601f168201915b50505050509050919050565b600133600090815260208190526040902060029081015460ff16908111156123cc576123cc6137fe565b146123e95760405162461bcd60e51b81526004016107359061409b565b600082815260046020526040902060028101546001600160a01b031633146124625760405162461bcd60e51b815260206004820152602660248201527f4f6e6c7920746865206469737472696275746f722063616e2061737369676e2060448201526518481d5b9a5d60d21b6064820152608401610735565b600082815260026020819052604090912090810154600160a01b900460ff168015612499575060028101546001600160a01b031615155b6124d45760405162461bcd60e51b815260206004820152600c60248201526b125b9d985b1a59081d5b9a5d60a21b6044820152606401610735565b60048201839055600682018054600160ff1991821681179092558282015460078501556008840180549091168280610e2a565b600460208190526000918252604090912080546001820154600283015460038401549484015460058501805494966001600160a01b03948516969390941694919291612552906140fa565b80601f016020809104026020016040519081016040528092919081815260200182805461257e906140fa565b80156125cb5780601f106125a0576101008083540402835291602001916125cb565b820191906000526020600020905b8154815290600101906020018083116125ae57829003601f168201915b5050505060068301546007840154600890940154929360ff918216939092501689565b33600090815260208190526040812060029081015460ff1690811115612616576126166137fe565b146126335760405162461bcd60e51b81526004016107359061417f565b6000818152600160208190526040909120908101546001600160a01b031633146126b25760405162461bcd60e51b815260206004820152602a60248201527f4f6e6c7920746865206d616e7566616374757265722063616e20726563616c6c604482015269040e8d0ca40c4c2e8c6d60b31b6064820152608401610735565b60058101805460ff19166001179055604051339083907f5a41088291f050dab11b8aeaaeaa8fd33f2225751a5d64008f812e0362ef472590600090a35050565b600060208190529081526040902080546001820180546001600160a01b03909216929161271e906140fa565b80601f016020809104026020016040519081016040528092919081815260200182805461274a906140fa565b80156127975780601f1061276c57610100808354040283529160200191612797565b820191906000526020600020905b81548152906001019060200180831161277a57829003601f168201915b5050506002840154600385018054949560ff9092169491935091506127bb906140fa565b80601f01602080910402602001604051908101604052809291908181526020018280546127e7906140fa565b80156128345780601f1061280957610100808354040283529160200191612834565b820191906000526020600020905b81548152906001019060200180831161281757829003601f168201915b5050505050905084565b60016020819052600091825260409091208054918101546002820180546001600160a01b039092169291612871906140fa565b80601f016020809104026020016040519081016040528092919081815260200182805461289d906140fa565b80156128ea5780601f106128bf576101008083540402835291602001916128ea565b820191906000526020600020905b8154815290600101906020018083116128cd57829003601f168201915b50505050600383015460048401546005850154600686015460078701546008880154600990980154969760ff80871698610100880482169850620100009097046001600160a01b0316969416938c565b33600090815260208190526040812060029081015460ff1690811115612962576129626137fe565b1461297f5760405162461bcd60e51b81526004016107359061417f565b6000818152600160208190526040909120908101546001600160a01b03163314612a005760405162461bcd60e51b815260206004820152602c60248201527f4f6e6c7920746865206d616e7566616374757265722063616e2064697361707060448201526b726f7665207175616c69747960a01b6064820152608401610735565b60038101805461ffff1916610100179055604051339083907fc8c94276e66e72c265ff6c7a450b182f9910586a93051227e6024c1fbceaa88e90600090a35050565b33600090815260208190526040902060029081015460ff1681811115612a6a57612a6a6137fe565b14612a875760405162461bcd60e51b8152600401610735906144af565b600082815260046020526040902060018101546001600160a01b03163314612b075760405162461bcd60e51b815260206004820152602d60248201527f4f6e6c79207468652070726f76696465722063616e207570646174652074686560448201526c206f726465722073746174757360981b6064820152608401610735565b60088101805483919060ff19166001836004811115612b2857612b286137fe565b02179055506003826004811115612b4157612b416137fe565b036122ee5760048101546000908152600260208181526040808420858401546001600160a01b031685526005835281852060018083015487529384905294829020915190949293612b939201906143be565b90815260200160405180910390206000828254612bb091906144f5565b9091555050336000908152600660209081526040808320600185810154855292839052928190209051919291612be991600201906143be565b90815260200160405180910390206000828254612c0691906143ca565b92505081905550612cbb3360016000846001015481526020019081526020016000206002018054612c36906140fa565b80601f0160208091040260200160405190810160405280929190818152602001828054612c62906140fa565b8015612caf5780601f10612c8457610100808354040283529160200191612caf565b820191906000526020600020905b815481529060010190602001808311612c9257829003601f168201915b50505050506000613559565b6122ec573360009081526008602090815260408083206001858101548552808452918420815492830182559084529190922090910190612cfe90600201826143dd565b5050505050565b6060600060645b600b54811015612d50576000818152600360205260409020600101546001600160a01b03808616911603612d485781612d4481614166565b9250505b600101612d0c565b506000816001600160401b03811115612d6b57612d6b613b20565b604051908082528060200260200182016040528015612da457816020015b612d91613604565b815260200190600190039081612d895790505b509050600060645b600b548110156110c0576000818152600360205260409020600101546001600160a01b03808816911603612f4f576000818152600360208181526040928390208351610140810185528154815260018201546001600160a01b03908116938201939093526002820154909216938201939093529082015460608201526004820154608082015260058201805491929160a084019190612e4a906140fa565b80601f0160208091040260200160405190810160405280929190818152602001828054612e76906140fa565b8015612ec35780601f10612e9857610100808354040283529160200191612ec3565b820191906000526020600020905b815481529060010190602001808311612ea657829003601f168201915b505050918352505060068201546020820152600782015460ff80821615156040840152606090920191610100909104166004811115612f0457612f046137fe565b6004811115612f1557612f156137fe565b8152602001600882015481525050838381518110612f3557612f356140e4565b60200260200101819052508180612f4b90614166565b9250505b600101612dac565b60086020528160005260406000208181548110612f7357600080fd5b90600052602060002001600091509150508054612f8f906140fa565b80601f0160208091040260200160405190810160405280929190818152602001828054612fbb906140fa565b80156130085780601f10612fdd57610100808354040283529160200191613008565b820191906000526020600020905b815481529060010190602001808311612feb57829003601f168201915b505050505081565b60076020528160005260406000208181548110612f7357600080fd5b600133600090815260208190526040902060029081015460ff1690811115613056576130566137fe565b146130735760405162461bcd60e51b81526004016107359061409b565b600b80546000918261308483614166565b909155506040805161014081018252828152336020808301918252600083850181815242606086019081526080860183815260a087018c815260c088018c905260e0880185905261010088018590526101208801859052898552600395869052979093208651815594516001860180546001600160a01b03199081166001600160a01b03938416179091559251600287018054909416911617909155519183019190915551600482015591519293509160058201906131439082614219565b5060c0820151600682015560e082015160078201805491151560ff19831681178255610100808601519361ff001990921661ffff199092169190911790836004811115613192576131926137fe565b02179055506101208201518160080155905050505050565b33600090815260208190526040902060029081015460ff16818111156131d2576131d26137fe565b146131ef5760405162461bcd60e51b8152600401610735906144af565b600c80546000918261320083614166565b919050559050604051806101200160405280828152602001336001600160a01b03168152602001836001600160a01b0316815260200142815260200160008152602001848152602001600015158152602001600081526020016000600481111561326c5761326c6137fe565b905260008281526004602081815260409283902084518155908401516001820180546001600160a01b03199081166001600160a01b0393841617909155938501516002830180549095169116179092556060830151600383015560808301519082015560a082015160058201906132e39082614219565b5060c082015160068201805491151560ff1992831617905560e083015160078301556101008301516008830180549192909116600183600481111561332a5761332a6137fe565b02179055505050505050565b33600090815260208190526040812060029081015460ff169081111561335e5761335e6137fe565b1461337b5760405162461bcd60e51b81526004016107359061417f565b60016001600160a01b038316600090815260208190526040902060029081015460ff16908111156133ae576133ae6137fe565b146133f15760405162461bcd60e51b815260206004820152601360248201527224b73b30b634b2103234b9ba3934b13aba37b960691b6044820152606401610735565b6000838152600160205260409020600381015460ff166134535760405162461bcd60e51b815260206004820152601e60248201527f4261746368206d757374206265207175616c69747920617070726f76656400006044820152606401610735565b6003818101805462010000600160b01b031916620100006001600160a01b0387160217905560098201839055600083815260209190915260409020600481015485146134ed5760405162461bcd60e51b8152602060048201526024808201527f4f72646572206d7573742062652061737369676e656420746f207468697320626044820152630c2e8c6d60e31b6064820152608401610735565b600280820180546001600160a01b0319163317905560078201805461ff0019166101008302179055504260088201556040516001600160a01b0385169086907f8e6804b2e7bfb70fb26b5bbf7a87382c43918cd5fd77219d8846c3c4f302ad0a90600090a35050505050565b6000808261357e576001600160a01b0385166000908152600860205260409020613597565b6001600160a01b03851660009081526007602052604090205b905060005b81548110156135f65784805190602001208282815481106135bf576135bf6140e4565b906000526020600020016040516135d691906143be565b6040518091039020036135ee576001925050506135fd565b60010161359c565b5060009150505b9392505050565b604080516101408101825260008082526020820181905291810182905260608082018390526080820183905260a082015260c0810182905260e08101829052906101008201908152602001600081525090565b6040518061018001604052806000815260200160006001600160a01b031681526020016060815260200160001515815260200160001515815260200160006001600160a01b0316815260200160008019168152602001600015158152602001600081526020016000815260200160008152602001600081525090565b80356001600160a01b03811681146136ea57600080fd5b919050565b6000806040838503121561370257600080fd5b82359150613712602084016136d3565b90509250929050565b60006020828403121561372d57600080fd5b6135fd826136d3565b60005b83811015613751578181015183820152602001613739565b50506000910152565b60008151808452613772816020860160208601613736565b601f01601f19169290920160200192915050565b600060208083018184528085518083526040925060408601915060408160051b87010184880160005b838110156137f057888303603f19018552815180518785526137d38886018261375a565b9189015194890194909452948701949250908601906001016137af565b509098975050505050505050565b634e487b7160e01b600052602160045260246000fd5b60058110613824576138246137fe565b9052565b600060208083018184528085518083526040925060408601915060408160051b87010184880160005b838110156137f057603f19898403018552815180518452878101516001600160a01b0390811689860152878201511687850152606080820151908501526080808201519085015260a08082015161014082870181905291906138b58388018261375a565b9250505060c080830151818701525060e0808301516138d78288018215159052565b5050610100808301516138ec82880182613814565b50506101209182015194909101939093529386019390860190600101613851565b6000806040838503121561392057600080fd5b50508035926020909101359150565b600060208083018184528085518083526040925060408601915060408160051b87010184880160005b838110156137f057603f19898403018552815180518452878101516001600160a01b0390811689860152878201511687850152606080820151908501526080808201519085015260a08082015161012082870181905291906139bc8388018261375a565b9250505060c0808301516139d38288018215159052565b505060e0828101519086015261010091820151916139f381870184613814565b509588019593505090860190600101613958565b60038110613824576138246137fe565b60208101613a258284613a07565b92915050565b600060208083018184528085518083526040925060408601915060408160051b87010184880160005b838110156137f057603f19898403018552815180518452878101516001600160a01b0316888501528681015161018088860181905290613a968287018261375a565b915050606080830151613aac8288018215159052565b505060808281015115159086015260a0808301516001600160a01b03169086015260c0808301519086015260e0808301511515908601526101008083015190860152610120808301519086015261014080830151908601526101609182015191909401529386019390860190600101613a54565b634e487b7160e01b600052604160045260246000fd5b600082601f830112613b4757600080fd5b81356001600160401b0380821115613b6157613b61613b20565b604051601f8301601f19908116603f01168101908282118183101715613b8957613b89613b20565b81604052838152866020858801011115613ba257600080fd5b836020870160208301376000602085830101528094505050505092915050565b60008060008060808587031215613bd857600080fd5b613be1856136d3565b935060208501356001600160401b0380821115613bfd57600080fd5b613c0988838901613b36565b94506040870135915060038210613c1f57600080fd5b90925060608601359080821115613c3557600080fd5b50613c4287828801613b36565b91505092959194509250565b60008060008060808587031215613c6457600080fd5b84356001600160401b03811115613c7a57600080fd5b613c8687828801613b36565b97602087013597506040870135966060013595509350505050565b600060208284031215613cb357600080fd5b5035919050565b8a81526001600160a01b038a8116602083015289166040820152606081018890526080810187905261014060a08201819052600090613cfb8382018961375a565b9150508560c083015284151560e0830152613d1a610100830185613814565b826101208301529b9a5050505050505050505050565b606081526000613d43606083018661375a565b8281036020840152613d55818661375a565b915050613d656040830184613a07565b949350505050565b602080825282516001600160a01b03168282015282015160806040830152600090613d9b60a084018261375a565b90506040840151613daf6060850182613a07565b506060840151838203601f19016080850152613dcb828261375a565b95945050505050565b60008060408385031215613de757600080fd5b613df0836136d3565b915060208301356001600160401b03811115613e0b57600080fd5b613e1785828601613b36565b9150509250929050565b60408101613e2f8285613814565b8260208301529392505050565b60008060408385031215613e4f57600080fd5b82359150602083013560058110613e6557600080fd5b809150509250929050565b6020815260006135fd602083018461375a565b8981526001600160a01b03898116602083015288166040820152606081018790526080810186905261012060a08201819052600090613ec48382018861375a565b91505084151560c08301528360e0830152613ee3610100830184613814565b9a9950505050505050505050565b6001600160a01b0385168152608060208201819052600090613f159083018661375a565b613f226040840186613a07565b8281036060840152613f34818561375a565b979650505050505050565b8c81526001600160a01b038c8116602083015261018060408301819052600091613f6b8483018f61375a565b9c151560608501529a1515608084015250509690971660a087015260c086019490945291151560e085015261010084015261012083015261014082015261016001529392505050565b60008060408385031215613fc757600080fd5b613fd0836136d3565b946020939093013593505050565b60008060408385031215613ff157600080fd5b82356001600160401b0381111561400757600080fd5b61401385828601613b36565b95602094909401359450505050565b6000806040838503121561403557600080fd5b82356001600160401b0381111561404b57600080fd5b61405785828601613b36565b925050613712602084016136d3565b60008060006060848603121561407b57600080fd5b8335925061408b602085016136d3565b9150604084013590509250925092565b60208082526029908201527f4f6e6c79206469737472696275746f72732063616e20706572666f726d20746860408201526834b99030b1ba34b7b760b91b606082015260800190565b634e487b7160e01b600052603260045260246000fd5b600181811c9082168061410e57607f821691505b60208210810361412e57634e487b7160e01b600052602260045260246000fd5b50919050565b60008251614146818460208701613736565b9190910192915050565b634e487b7160e01b600052601160045260246000fd5b60006001820161417857614178614150565b5060010190565b6020808252602a908201527f4f6e6c79206d616e756661637475726572732063616e20706572666f726d20746040820152693434b99030b1ba34b7b760b11b606082015260800190565b601f8211156122ee576000816000526020600020601f850160051c810160208610156141f25750805b601f850160051c820191505b81811015614211578281556001016141fe565b505050505050565b81516001600160401b0381111561423257614232613b20565b6142468161424084546140fa565b846141c9565b602080601f83116001811461427b57600084156142635750858301515b600019600386901b1c1916600185901b178555614211565b600085815260208120601f198616915b828110156142aa5788860151825594840194600190910190840161428b565b50858210156142c85787850151600019600388901b60f8161c191681555b5050505050600190811b01905550565b6060815260006142eb606083018661375a565b6142f86020840186613a07565b828103604084015261430a818561375a565b9695505050505050565b60a08152600061432760a083018861375a565b90508560208301528460408301528360608301528260808301529695505050505050565b60008154614358816140fa565b600182811680156143705760018114614385576143b4565b60ff19841687528215158302870194506143b4565b8560005260208060002060005b858110156143ab5781548a820152908401908201614392565b50505082870194505b5050505092915050565b60006135fd828461434b565b80820180821115613a2557613a25614150565b8181036143e8575050565b6143f282546140fa565b6001600160401b0381111561440957614409613b20565b6144178161424084546140fa565b6000601f82116001811461444b57600083156144335750848201545b600019600385901b1c1916600184901b178455612cfe565b600085815260209020601f19841690600086815260209020845b838110156144855782860154825560019586019590910190602001614465565b50858310156142c85793015460001960f8600387901b161c19169092555050600190811b01905550565b60208082526026908201527f4f6e6c792070726f7669646572732063616e20706572666f726d20746869732060408201526530b1ba34b7b760d11b606082015260800190565b81810381811115613a2557613a2561415056fea26469706673582212204ee37f34709b4420c27c2d96ad1419a41269d60d4a8cba181c9cfc9f35d888cf64736f6c63430008180033",
  "linkReferences": {},
  "deployedLinkReferences": {}
}