{
  "_format": "hh-sol-artifact-1",
  "contractName": "PharmaChain",
  "sourceName": "contracts/PharmaChain.sol",
  "abi": [
    {
      "anonymous": false,
      "inputs": [
        {
          "indexed": true,
          "internalType": "uint256",
          "name": "batchId",
          "type": "uint256"
        },
        {
          "indexed": true,
          "internalType": "address",
          "name": "distributor",
          "type": "address"
        }
      ],
      "name": "BatchAssignedToDistributor",
      "type": "event"
    },
    {
      "anonymous": false,
      "inputs": [
        {
          "indexed": true,
          "internalType": "uint256",
          "name": "batchId",
          "type": "uint256"
        },
        {
          "indexed": true,
          "internalType": "address",
          "name": "manufacturer",
          "type": "address"
        },
        {
          "indexed": false,
          "internalType": "string",
          "name": "details",
          "type": "string"
        },
        {
          "indexed": false,
          "internalType": "bytes32",
          "name": "rfidUIDHash",
          "type": "bytes32"
        },
        {
          "indexed": false,
          "internalType": "uint256",
          "name": "manufactureDate",
          "type": "uint256"
        },
        {
          "indexed": false,
          "internalType": "uint256",
          "name": "expiryDate",
          "type": "uint256"
        },
        {
          "indexed": false,
          "internalType": "uint256",
          "name": "quantity",
          "type": "uint256"
        }
      ],
      "name": "BatchCreated",
      "type": "event"
    },
    {
      "anonymous": false,
      "inputs": [
        {
          "indexed": true,
          "internalType": "uint256",
          "name": "batchId",
          "type": "uint256"
        },
        {
          "indexed": true,
          "internalType": "address",
          "name": "initiator",
          "type": "address"
        }
      ],
      "name": "BatchRecalled",
      "type": "event"
    },
    {
      "anonymous": false,
      "inputs": [
        {
          "indexed": true,
          "internalType": "uint256",
          "name": "batchId",
          "type": "uint256"
        },
        {
          "indexed": true,
          "internalType": "address",
          "name": "approver",
          "type": "address"
        }
      ],
      "name": "QualityApproved",
      "type": "event"
    },
    {
      "anonymous": false,
      "inputs": [
        {
          "indexed": true,
          "internalType": "uint256",
          "name": "batchId",
          "type": "uint256"
        },
        {
          "indexed": true,
          "internalType": "address",
          "name": "disapprover",
          "type": "address"
        }
      ],
      "name": "QualityDisapproved",
      "type": "event"
    },
    {
      "anonymous": false,
      "inputs": [
        {
          "indexed": true,
          "internalType": "address",
          "name": "user",
          "type": "address"
        },
        {
          "indexed": false,
          "internalType": "string",
          "name": "companyName",
          "type": "string"
        },
        {
          "indexed": false,
          "internalType": "enum PharmaChain.Role",
          "name": "role",
          "type": "uint8"
        },
        {
          "indexed": false,
          "internalType": "string",
          "name": "contactInfo",
          "type": "string"
        }
      ],
      "name": "UserRegistered",
      "type": "event"
    },
    {
      "inputs": [
        {
          "internalType": "uint256",
          "name": "_batchId",
          "type": "uint256"
        }
      ],
      "name": "approveQuality",
      "outputs": [],
      "stateMutability": "nonpayable",
      "type": "function"
    },
    {
      "inputs": [
        {
          "internalType": "uint256",
          "name": "_orderId",
          "type": "uint256"
        },
        {
          "internalType": "uint256",
          "name": "_batchId",
          "type": "uint256"
        }
      ],
      "name": "assignBatchToOrder",
      "outputs": [],
      "stateMutability": "nonpayable",
      "type": "function"
    },
    {
      "inputs": [
        {
          "internalType": "uint256",
          "name": "_orderId",
          "type": "uint256"
        },
        {
          "internalType": "uint256",
          "name": "_unitId",
          "type": "uint256"
        }
      ],
      "name": "assignBatchUnitToOrder",
      "outputs": [],
      "stateMutability": "nonpayable",
      "type": "function"
    },
    {
      "inputs": [
        {
          "internalType": "uint256",
          "name": "_batchId",
          "type": "uint256"
        },
        {
          "internalType": "address",
          "name": "_distributor",
          "type": "address"
        }
      ],
      "name": "assignToDistributor",
      "outputs": [],
      "stateMutability": "nonpayable",
      "type": "function"
    },
    {
      "inputs": [
        {
          "internalType": "uint256",
          "name": "_unitId",
          "type": "uint256"
        },
        {
          "internalType": "address",
          "name": "_provider",
          "type": "address"
        }
      ],
      "name": "assignUnitToProvider",
      "outputs": [],
      "stateMutability": "nonpayable",
      "type": "function"
    },
    {
      "inputs": [
        {
          "internalType": "uint256",
          "name": "",
          "type": "uint256"
        }
      ],
      "name": "batchUnits",
      "outputs": [
        {
          "internalType": "uint256",
          "name": "unitId",
          "type": "uint256"
        },
        {
          "internalType": "uint256",
          "name": "batchId",
          "type": "uint256"
        },
        {
          "internalType": "address",
          "name": "provider",
          "type": "address"
        },
        {
          "internalType": "bool",
          "name": "isAssigned",
          "type": "bool"
        }
      ],
      "stateMutability": "view",
      "type": "function"
    },
    {
      "inputs": [
        {
          "internalType": "uint256",
          "name": "",
          "type": "uint256"
        }
      ],
      "name": "batches",
      "outputs": [
        {
          "internalType": "uint256",
          "name": "batchId",
          "type": "uint256"
        },
        {
          "internalType": "address",
          "name": "manufacturer",
          "type": "address"
        },
        {
          "internalType": "string",
          "name": "details",
          "type": "string"
        },
        {
          "internalType": "bool",
          "name": "isQualityApproved",
          "type": "bool"
        },
        {
          "internalType": "bool",
          "name": "isQualityDisapproved",
          "type": "bool"
        },
        {
          "internalType": "address",
          "name": "distributor",
          "type": "address"
        },
        {
          "internalType": "bytes32",
          "name": "rfidUIDHash",
          "type": "bytes32"
        },
        {
          "internalType": "bool",
          "name": "isRecalled",
          "type": "bool"
        },
        {
          "internalType": "uint256",
          "name": "manufactureDate",
          "type": "uint256"
        },
        {
          "internalType": "uint256",
          "name": "expiryDate",
          "type": "uint256"
        },
        {
          "internalType": "uint256",
          "name": "quantity",
          "type": "uint256"
        }
      ],
      "stateMutability": "view",
      "type": "function"
    },
    {
      "inputs": [
        {
          "internalType": "string",
          "name": "_details",
          "type": "string"
        },
        {
          "internalType": "bytes32",
          "name": "_rfidUIDHash",
          "type": "bytes32"
        },
        {
          "internalType": "uint256",
          "name": "_expiryDate",
          "type": "uint256"
        },
        {
          "internalType": "uint256",
          "name": "_quantity",
          "type": "uint256"
        }
      ],
      "name": "createBatch",
      "outputs": [],
      "stateMutability": "nonpayable",
      "type": "function"
    },
    {
      "inputs": [
        {
          "internalType": "string",
          "name": "_medName",
          "type": "string"
        },
        {
          "internalType": "uint256",
          "name": "_quantity",
          "type": "uint256"
        }
      ],
      "name": "createDistributorOrder",
      "outputs": [],
      "stateMutability": "nonpayable",
      "type": "function"
    },
    {
      "inputs": [
        {
          "internalType": "string",
          "name": "_details",
          "type": "string"
        },
        {
          "internalType": "address",
          "name": "_distributor",
          "type": "address"
        }
      ],
      "name": "createProviderOrder",
      "outputs": [],
      "stateMutability": "nonpayable",
      "type": "function"
    },
    {
      "inputs": [
        {
          "internalType": "uint256",
          "name": "_batchId",
          "type": "uint256"
        }
      ],
      "name": "disapproveQuality",
      "outputs": [],
      "stateMutability": "nonpayable",
      "type": "function"
    },
    {
      "inputs": [
        {
          "internalType": "address",
          "name": "",
          "type": "address"
        },
        {
          "internalType": "uint256",
          "name": "",
          "type": "uint256"
        }
      ],
      "name": "distributorMedNames",
      "outputs": [
        {
          "internalType": "string",
          "name": "",
          "type": "string"
        }
      ],
      "stateMutability": "view",
      "type": "function"
    },
    {
      "inputs": [
        {
          "internalType": "uint256",
          "name": "",
          "type": "uint256"
        }
      ],
      "name": "distributorOrders",
      "outputs": [
        {
          "internalType": "uint256",
          "name": "orderId",
          "type": "uint256"
        },
        {
          "internalType": "address",
          "name": "distributor",
          "type": "address"
        },
        {
          "internalType": "address",
          "name": "manufacturer",
          "type": "address"
        },
        {
          "internalType": "uint256",
          "name": "orderDate",
          "type": "uint256"
        },
        {
          "internalType": "uint256",
          "name": "batchId",
          "type": "uint256"
        },
        {
          "internalType": "string",
          "name": "medName",
          "type": "string"
        },
        {
          "internalType": "uint256",
          "name": "quantity",
          "type": "uint256"
        },
        {
          "internalType": "bool",
          "name": "isAssigned",
          "type": "bool"
        },
        {
          "internalType": "enum PharmaChain.OrderStatus",
          "name": "status",
          "type": "uint8"
        }
      ],
      "stateMutability": "view",
      "type": "function"
    },
    {
      "inputs": [
        {
          "internalType": "address",
          "name": "",
          "type": "address"
        },
        {
          "internalType": "string",
          "name": "",
          "type": "string"
        }
      ],
      "name": "distributorStocks",
      "outputs": [
        {
          "internalType": "uint256",
          "name": "",
          "type": "uint256"
        }
      ],
      "stateMutability": "view",
      "type": "function"
    },
    {
      "inputs": [
        {
          "internalType": "address",
          "name": "_user",
          "type": "address"
        }
      ],
      "name": "getCompanyNameFromAddress",
      "outputs": [
        {
          "internalType": "string",
          "name": "",
          "type": "string"
        }
      ],
      "stateMutability": "view",
      "type": "function"
    },
    {
      "inputs": [
        {
          "internalType": "address",
          "name": "_manufacturer",
          "type": "address"
        }
      ],
      "name": "getCreatedBatches",
      "outputs": [
        {
          "components": [
            {
              "internalType": "uint256",
              "name": "batchId",
              "type": "uint256"
            },
            {
              "internalType": "address",
              "name": "manufacturer",
              "type": "address"
            },
            {
              "internalType": "string",
              "name": "details",
              "type": "string"
            },
            {
              "internalType": "bool",
              "name": "isQualityApproved",
              "type": "bool"
            },
            {
              "internalType": "bool",
              "name": "isQualityDisapproved",
              "type": "bool"
            },
            {
              "internalType": "address",
              "name": "distributor",
              "type": "address"
            },
            {
              "internalType": "bytes32",
              "name": "rfidUIDHash",
              "type": "bytes32"
            },
            {
              "internalType": "bool",
              "name": "isRecalled",
              "type": "bool"
            },
            {
              "internalType": "uint256",
              "name": "manufactureDate",
              "type": "uint256"
            },
            {
              "internalType": "uint256",
              "name": "expiryDate",
              "type": "uint256"
            },
            {
              "internalType": "uint256",
              "name": "quantity",
              "type": "uint256"
            }
          ],
          "internalType": "struct PharmaChain.Batch[]",
          "name": "",
          "type": "tuple[]"
        }
      ],
      "stateMutability": "view",
      "type": "function"
    },
    {
      "inputs": [
        {
          "internalType": "address",
          "name": "_distributor",
          "type": "address"
        }
      ],
      "name": "getDistributorOrders",
      "outputs": [
        {
          "components": [
            {
              "internalType": "uint256",
              "name": "orderId",
              "type": "uint256"
            },
            {
              "internalType": "address",
              "name": "distributor",
              "type": "address"
            },
            {
              "internalType": "address",
              "name": "manufacturer",
              "type": "address"
            },
            {
              "internalType": "uint256",
              "name": "orderDate",
              "type": "uint256"
            },
            {
              "internalType": "uint256",
              "name": "batchId",
              "type": "uint256"
            },
            {
              "internalType": "string",
              "name": "medName",
              "type": "string"
            },
            {
              "internalType": "uint256",
              "name": "quantity",
              "type": "uint256"
            },
            {
              "internalType": "bool",
              "name": "isAssigned",
              "type": "bool"
            },
            {
              "internalType": "enum PharmaChain.OrderStatus",
              "name": "status",
              "type": "uint8"
            }
          ],
          "internalType": "struct PharmaChain.DistributorOrder[]",
          "name": "",
          "type": "tuple[]"
        }
      ],
      "stateMutability": "view",
      "type": "function"
    },
    {
      "inputs": [
        {
          "internalType": "address",
          "name": "_distributor",
          "type": "address"
        }
      ],
      "name": "getDistributorStock",
      "outputs": [
        {
          "components": [
            {
              "internalType": "string",
              "name": "medName",
              "type": "string"
            },
            {
              "internalType": "uint256",
              "name": "quantity",
              "type": "uint256"
            }
          ],
          "internalType": "struct PharmaChain.StockItem[]",
          "name": "",
          "type": "tuple[]"
        }
      ],
      "stateMutability": "view",
      "type": "function"
    },
    {
      "inputs": [],
      "name": "getPendingDistributorOrders",
      "outputs": [
        {
          "components": [
            {
              "internalType": "uint256",
              "name": "orderId",
              "type": "uint256"
            },
            {
              "internalType": "address",
              "name": "distributor",
              "type": "address"
            },
            {
              "internalType": "address",
              "name": "manufacturer",
              "type": "address"
            },
            {
              "internalType": "uint256",
              "name": "orderDate",
              "type": "uint256"
            },
            {
              "internalType": "uint256",
              "name": "batchId",
              "type": "uint256"
            },
            {
              "internalType": "string",
              "name": "medName",
              "type": "string"
            },
            {
              "internalType": "uint256",
              "name": "quantity",
              "type": "uint256"
            },
            {
              "internalType": "bool",
              "name": "isAssigned",
              "type": "bool"
            },
            {
              "internalType": "enum PharmaChain.OrderStatus",
              "name": "status",
              "type": "uint8"
            }
          ],
          "internalType": "struct PharmaChain.DistributorOrder[]",
          "name": "",
          "type": "tuple[]"
        }
      ],
      "stateMutability": "view",
      "type": "function"
    },
    {
      "inputs": [
        {
          "internalType": "address",
          "name": "_provider",
          "type": "address"
        }
      ],
      "name": "getProviderOrders",
      "outputs": [
        {
          "components": [
            {
              "internalType": "uint256",
              "name": "orderId",
              "type": "uint256"
            },
            {
              "internalType": "address",
              "name": "provider",
              "type": "address"
            },
            {
              "internalType": "address",
              "name": "distributor",
              "type": "address"
            },
            {
              "internalType": "uint256",
              "name": "orderDate",
              "type": "uint256"
            },
            {
              "internalType": "uint256",
              "name": "unitId",
              "type": "uint256"
            },
            {
              "internalType": "string",
              "name": "details",
              "type": "string"
            },
            {
              "internalType": "bool",
              "name": "isAssigned",
              "type": "bool"
            },
            {
              "internalType": "uint256",
              "name": "batchId",
              "type": "uint256"
            },
            {
              "internalType": "enum PharmaChain.OrderStatus",
              "name": "status",
              "type": "uint8"
            }
          ],
          "internalType": "struct PharmaChain.ProviderOrder[]",
          "name": "",
          "type": "tuple[]"
        }
      ],
      "stateMutability": "view",
      "type": "function"
    },
    {
      "inputs": [
        {
          "internalType": "address",
          "name": "_provider",
          "type": "address"
        }
      ],
      "name": "getProviderStock",
      "outputs": [
        {
          "components": [
            {
              "internalType": "string",
              "name": "medName",
              "type": "string"
            },
            {
              "internalType": "uint256",
              "name": "quantity",
              "type": "uint256"
            }
          ],
          "internalType": "struct PharmaChain.StockItem[]",
          "name": "",
          "type": "tuple[]"
        }
      ],
      "stateMutability": "view",
      "type": "function"
    },
    {
      "inputs": [
        {
          "internalType": "address",
          "name": "_user",
          "type": "address"
        }
      ],
      "name": "getUserInfo",
      "outputs": [
        {
          "internalType": "string",
          "name": "companyName",
          "type": "string"
        },
        {
          "internalType": "string",
          "name": "contactInfo",
          "type": "string"
        },
        {
          "internalType": "enum PharmaChain.Role",
          "name": "role",
          "type": "uint8"
        }
      ],
      "stateMutability": "view",
      "type": "function"
    },
    {
      "inputs": [
        {
          "internalType": "address",
          "name": "_user",
          "type": "address"
        }
      ],
      "name": "getUserRole",
      "outputs": [
        {
          "internalType": "enum PharmaChain.Role",
          "name": "",
          "type": "uint8"
        }
      ],
      "stateMutability": "view",
      "type": "function"
    },
    {
      "inputs": [
        {
          "internalType": "address",
          "name": "_user",
          "type": "address"
        }
      ],
      "name": "isUserRegistered",
      "outputs": [
        {
          "internalType": "bool",
          "name": "",
          "type": "bool"
        }
      ],
      "stateMutability": "view",
      "type": "function"
    },
    {
      "inputs": [],
      "name": "nextBatchId",
      "outputs": [
        {
          "internalType": "uint256",
          "name": "",
          "type": "uint256"
        }
      ],
      "stateMutability": "view",
      "type": "function"
    },
    {
      "inputs": [],
      "name": "nextDistributorOrderId",
      "outputs": [
        {
          "internalType": "uint256",
          "name": "",
          "type": "uint256"
        }
      ],
      "stateMutability": "view",
      "type": "function"
    },
    {
      "inputs": [],
      "name": "nextProviderOrderId",
      "outputs": [
        {
          "internalType": "uint256",
          "name": "",
          "type": "uint256"
        }
      ],
      "stateMutability": "view",
      "type": "function"
    },
    {
      "inputs": [],
      "name": "nextUnitId",
      "outputs": [
        {
          "internalType": "uint256",
          "name": "",
          "type": "uint256"
        }
      ],
      "stateMutability": "view",
      "type": "function"
    },
    {
      "inputs": [
        {
          "internalType": "address",
          "name": "",
          "type": "address"
        },
        {
          "internalType": "uint256",
          "name": "",
          "type": "uint256"
        }
      ],
      "name": "providerMedNames",
      "outputs": [
        {
          "internalType": "string",
          "name": "",
          "type": "string"
        }
      ],
      "stateMutability": "view",
      "type": "function"
    },
    {
      "inputs": [
        {
          "internalType": "uint256",
          "name": "",
          "type": "uint256"
        }
      ],
      "name": "providerOrders",
      "outputs": [
        {
          "internalType": "uint256",
          "name": "orderId",
          "type": "uint256"
        },
        {
          "internalType": "address",
          "name": "provider",
          "type": "address"
        },
        {
          "internalType": "address",
          "name": "distributor",
          "type": "address"
        },
        {
          "internalType": "uint256",
          "name": "orderDate",
          "type": "uint256"
        },
        {
          "internalType": "uint256",
          "name": "unitId",
          "type": "uint256"
        },
        {
          "internalType": "string",
          "name": "details",
          "type": "string"
        },
        {
          "internalType": "bool",
          "name": "isAssigned",
          "type": "bool"
        },
        {
          "internalType": "uint256",
          "name": "batchId",
          "type": "uint256"
        },
        {
          "internalType": "enum PharmaChain.OrderStatus",
          "name": "status",
          "type": "uint8"
        }
      ],
      "stateMutability": "view",
      "type": "function"
    },
    {
      "inputs": [
        {
          "internalType": "address",
          "name": "",
          "type": "address"
        },
        {
          "internalType": "string",
          "name": "",
          "type": "string"
        }
      ],
      "name": "providerStocks",
      "outputs": [
        {
          "internalType": "uint256",
          "name": "",
          "type": "uint256"
        }
      ],
      "stateMutability": "view",
      "type": "function"
    },
    {
      "inputs": [
        {
          "internalType": "uint256",
          "name": "_batchId",
          "type": "uint256"
        }
      ],
      "name": "recallBatch",
      "outputs": [],
      "stateMutability": "nonpayable",
      "type": "function"
    },
    {
      "inputs": [
        {
          "internalType": "address",
          "name": "_user",
          "type": "address"
        },
        {
          "internalType": "string",
          "name": "_companyName",
          "type": "string"
        },
        {
          "internalType": "enum PharmaChain.Role",
          "name": "_role",
          "type": "uint8"
        },
        {
          "internalType": "string",
          "name": "_contactInfo",
          "type": "string"
        }
      ],
      "name": "registerUser",
      "outputs": [],
      "stateMutability": "nonpayable",
      "type": "function"
    },
    {
      "inputs": [
        {
          "internalType": "uint256",
          "name": "_orderId",
          "type": "uint256"
        },
        {
          "internalType": "enum PharmaChain.OrderStatus",
          "name": "_status",
          "type": "uint8"
        }
      ],
      "name": "updateDistributorOrderStatus",
      "outputs": [],
      "stateMutability": "nonpayable",
      "type": "function"
    },
    {
      "inputs": [
        {
          "internalType": "uint256",
          "name": "_orderId",
          "type": "uint256"
        },
        {
          "internalType": "enum PharmaChain.OrderStatus",
          "name": "_status",
          "type": "uint8"
        }
      ],
      "name": "updateProviderOrderStatus",
      "outputs": [],
      "stateMutability": "nonpayable",
      "type": "function"
    },
    {
      "inputs": [
        {
          "internalType": "address",
          "name": "",
          "type": "address"
        }
      ],
      "name": "users",
      "outputs": [
        {
          "internalType": "address",
          "name": "account",
          "type": "address"
        },
        {
          "internalType": "string",
          "name": "companyName",
          "type": "string"
        },
        {
          "internalType": "enum PharmaChain.Role",
          "name": "role",
          "type": "uint8"
        },
        {
          "internalType": "string",
          "name": "contactInfo",
          "type": "string"
        }
      ],
      "stateMutability": "view",
      "type": "function"
    }
  ],
  "bytecode": "0x608060405234801561001057600080fd5b50613ddd806100206000396000f3fe608060405234801561001057600080fd5b506004361061021c5760003560e01c806383e9f8bf11610125578063b616e184116100ad578063d38622381161007c578063d3862238146105d9578063e3c6e07e146105e2578063f1bd14ad146105f5578063f212d6d914610631578063f685aaff1461064457600080fd5b8063b616e1841461058d578063c91cdc90146105a0578063ced27743146105b3578063d0aeb537146105c657600080fd5b806395c53d49116100f457806395c53d4914610491578063a3ef03cd146104b9578063a6e162b41461052d578063a87430ba14610540578063b32c4d8d1461056357600080fd5b806383e9f8bf1461044c5780638429bcf71461046c5780638462a7f8146104755780638b6c93951461047e57600080fd5b806343deec2e116101a85780636386c1c7116101775780636386c1c7146103b15780636ae25d98146103d3578063769291c11461041d57806376c38606146104305780637e3b128b1461044357600080fd5b806343deec2e1461035057806344dfc5f8146103635780634a746b7b146103765780634e4b18fb1461038957600080fd5b8063239cef3a116101ef578063239cef3a146102ae5780632615457b146102c157806327820851146102e15780632d703d731461031d5780633d28a3011461033d57600080fd5b80630c3d3f4314610221578063163f7522146102365780631c5a3a53146102795780631d8abc8f14610299575b600080fd5b61023461022f366004613078565b610657565b005b6102646102443660046130a4565b6001600160a01b0390811660009081526020819052604090205416151590565b60405190151581526020015b60405180910390f35b61028c6102873660046130a4565b6107ad565b604051610270919061310f565b6102a1610978565b60405161027091906131b1565b6102346102bc36600461328a565b610bb1565b6102d46102cf3660046130a4565b610d92565b60405161027091906132ac565b6103106102ef3660046130a4565b6001600160a01b031660009081526020819052604090206002015460ff1690565b6040516102709190613394565b61033061032b3660046130a4565b610fe1565b60405161027091906133a8565b61023461034b366004613534565b61126f565b61023461035e3660046135c0565b6113c6565b610234610371366004613613565b611657565b61028c6103843660046130a4565b61175b565b61039c610397366004613613565b61191e565b6040516102709998979695949392919061362c565b6103c46103bf3660046130a4565b611a04565b6040516102709392919061369a565b61040f6103e13660046136d7565b6006602090815260009283526040909220815180830184018051928152908401929093019190912091525481565b604051908152602001610270565b61023461042b366004613078565b611bb2565b61023461043e366004613724565b611d29565b61040f600a5481565b61045f61045a3660046130a4565b611f4d565b6040516102709190613758565b61040f600b5481565b61040f60095481565b61023461048c36600461328a565b611ffc565b6104a461049f366004613613565b612161565b6040516102709998979695949392919061376b565b6104fc6104c7366004613613565b60026020819052600091825260409091208054600182015491909201546001600160a01b03811690600160a01b900460ff1684565b604051610270949392919093845260208401929092526001600160a01b031660408301521515606082015260800190565b61023461053b366004613613565b612248565b61055361054e3660046130a4565b61234c565b60405161027094939291906137cb565b610576610571366004613613565b612498565b6040516102709b9a99989796959493929190613819565b61023461059b366004613613565b61258f565b6102346105ae366004613724565b612697565b6102a16105c13660046130a4565b61295a565b61045f6105d4366004613888565b612ba0565b61040f600c5481565b61045f6105f0366004613888565b612c59565b61040f6106033660046136d7565b6005602090815260009283526040909220815180830184018051928152908401929093019190912091525481565b61023461063f3660046138b2565b612c75565b6102346106523660046138f6565b612de8565b600133600090815260208190526040902060029081015460ff169081111561068157610681613187565b146106a75760405162461bcd60e51b815260040161069e9061393a565b60405180910390fd5b600082815260026020819052604090912090810154600160a01b900460ff16156107135760405162461bcd60e51b815260206004820152601860248201527f556e697420697320616c72656164792061737369676e65640000000000000000604482015260640161069e565b6001600160a01b038216600090815260208190526040902060029081015460ff168181111561074457610744613187565b146107845760405162461bcd60e51b815260206004820152601060248201526f24b73b30b634b210383937bb34b232b960811b604482015260640161069e565b60020180546001600160a81b0319166001600160a01b0390921691909117600160a01b17905550565b6001600160a01b038116600090815260086020526040812054606091816001600160401b038111156107e1576107e1613492565b60405190808252806020026020018201604052801561082757816020015b6040805180820190915260608152600060208201528152602001906001900390816107ff5790505b50905060005b82811015610970576001600160a01b038516600090815260086020526040812080548390811061085f5761085f613983565b90600052602060002001805461087490613999565b80601f01602080910402602001604051908101604052809291908181526020018280546108a090613999565b80156108ed5780601f106108c2576101008083540402835291602001916108ed565b820191906000526020600020905b8154815290600101906020018083116108d057829003601f168201915b50505050509050604051806040016040528082815260200160066000896001600160a01b03166001600160a01b031681526020019081526020016000208360405161093891906139d3565b90815260200160405180910390205481525083838151811061095c5761095c613983565b60209081029190910101525060010161082d565b509392505050565b60606000805b600b548110156109b75760008181526003602052604090206007015460ff166109af57816109ab81613a05565b9250505b60010161097e565b506000816001600160401b038111156109d2576109d2613492565b604051908082528060200260200182016040528015610a0b57816020015b6109f8613013565b8152602001906001900390816109f05790505b5090506000805b600b54811015610ba85760008181526003602052604090206007015460ff16610ba0576000818152600360208181526040928390208351610120810185528154815260018201546001600160a01b03908116938201939093526002820154909216938201939093529082015460608201526004820154608082015260058201805491929160a084019190610aa590613999565b80601f0160208091040260200160405190810160405280929190818152602001828054610ad190613999565b8015610b1e5780601f10610af357610100808354040283529160200191610b1e565b820191906000526020600020905b815481529060010190602001808311610b0157829003601f168201915b505050918352505060068201546020820152600782015460ff80821615156040840152606090920191610100909104166004811115610b5f57610b5f613187565b6004811115610b7057610b70613187565b81525050838381518110610b8657610b86613983565b60200260200101819052508180610b9c90613a05565b9250505b600101610a12565b50909392505050565b33600090815260208190526040812060029081015460ff1690811115610bd957610bd9613187565b14610bf65760405162461bcd60e51b815260040161069e90613a1e565b600082815260036020526040902060028101546001600160a01b03161580610c2a575060028101546001600160a01b031633145b610c915760405162461bcd60e51b815260206004820152603260248201527f4f6e6c7920746865206f726465722773206d616e7566616374757265722063616044820152710dc40c2e6e6d2cedc40e8d0ca40c4c2e8c6d60731b606482015260840161069e565b6000828152600160208190526040909120908101546001600160a01b03163314610cf45760405162461bcd60e51b815260206004820152601460248201527324b73b30b634b21036b0b73ab330b1ba3ab932b960611b604482015260640161069e565b816006015481600801541015610d4c5760405162461bcd60e51b815260206004820152601b60248201527f496e73756666696369656e74206261746368207175616e746974790000000000604482015260640161069e565b600482018390556002820180546001600160a01b0319163317905560078201805460ff19811660019081178355919061ffff19168217610100835b021790555050505050565b60606000805b600c54811015610ddc576000818152600460205260409020600101546001600160a01b03808616911603610dd45781610dd081613a05565b9250505b600101610d98565b506000816001600160401b03811115610df757610df7613492565b604051908082528060200260200182016040528015610e3057816020015b610e1d613013565b815260200190600190039081610e155790505b5090506000805b600c54811015610fd7576000818152600460205260409020600101546001600160a01b03808816911603610fcf576000818152600460208181526040928390208351610120810185528154815260018201546001600160a01b03908116938201939093526002820154909216938201939093526003830154606082015290820154608082015260058201805491929160a084019190610ed590613999565b80601f0160208091040260200160405190810160405280929190818152602001828054610f0190613999565b8015610f4e5780601f10610f2357610100808354040283529160200191610f4e565b820191906000526020600020905b815481529060010190602001808311610f3157829003601f168201915b5050509183525050600682015460ff90811615156020830152600783015460408301526008830154606090920191166004811115610f8e57610f8e613187565b6004811115610f9f57610f9f613187565b81525050838381518110610fb557610fb5613983565b60200260200101819052508180610fcb90613a05565b9250505b600101610e37565b5090949350505050565b60606000805b60095481101561102c57600081815260016020819052604090912001546001600160a01b03808616911603611024578161102081613a05565b9250505b600101610fe7565b506000816001600160401b0381111561104757611047613492565b6040519080825280602002602001820160405280156110cf57816020015b60408051610160810182526000808252602080830182905260609383018490529282018190526080820181905260a0820181905260c0820181905260e082018190526101008201819052610120820181905261014082015282526000199092019101816110655790505b5090506000805b600954811015610fd757600081815260016020819052604090912001546001600160a01b038088169116036112675760008181526001602081815260409283902083516101608101855281548152928101546001600160a01b031691830191909152600281018054929391929184019161114f90613999565b80601f016020809104026020016040519081016040528092919081815260200182805461117b90613999565b80156111c85780601f1061119d576101008083540402835291602001916111c8565b820191906000526020600020905b8154815290600101906020018083116111ab57829003601f168201915b5050509183525050600382015460ff80821615156020840152610100808304821615156040850152620100009092046001600160a01b0316606084015260048401546080840152600584015416151560a0830152600683015460c0830152600783015460e0830152600890920154910152835184908490811061124d5761124d613983565b6020026020010181905250818061126390613a05565b9250505b6001016110d6565b6001600160a01b0384166112b75760405162461bcd60e51b815260206004820152600f60248201526e496e76616c6964206164647265737360881b604482015260640161069e565b6040518060800160405280856001600160a01b031681526020018481526020018360028111156112e9576112e9613187565b815260209081018390526001600160a01b03868116600090815280835260409020835181546001600160a01b03191692169190911781559082015160018201906113339082613ab8565b5060408201518160020160006101000a81548160ff0219169083600281111561135e5761135e613187565b0217905550606082015160038201906113779082613ab8565b50905050836001600160a01b03167f3a403922431a43cbc3d929f1b03869ffadab7bce01402822980e72e6ea8e9d918484846040516113b893929190613b77565b60405180910390a250505050565b33600090815260208190526040812060029081015460ff16908111156113ee576113ee613187565b1461140b5760405162461bcd60e51b815260040161069e90613a1e565b600980546000918261141c83613a05565b91905055905042831161147b5760405162461bcd60e51b815260206004820152602160248201527f4578706972792064617465206d75737420626520696e207468652066757475726044820152606560f81b606482015260840161069e565b600082116114d65760405162461bcd60e51b815260206004820152602260248201527f5175616e74697479206d7573742062652067726561746572207468616e207a65604482015261726f60f01b606482015260840161069e565b60408051610160810182528281523360208083019182528284018981526000606085018190526080850181905260a0850181905260c085018a905260e0850181905242610100860152610120850189905261014085018890528681526001928390529490942083518155915190820180546001600160a01b0319166001600160a01b03909216919091179055915190919060028201906115769082613ab8565b506060820151600382018054608085015160a086015161ffff1990921693151561ff0019169390931761010093151584021762010000600160b01b031916620100006001600160a01b039092169190910217905560c0830151600483015560e083015160058301805460ff19169115159190911790558201516006820155610120820151600782015561014090910151600890910155604051339082907fbee34f0ca0c0edfc2bd967468f81e100292d859329be491cc44c4ec390c65fac90611648908990899042908a908a90613bb3565b60405180910390a35050505050565b33600090815260208190526040812060029081015460ff169081111561167f5761167f613187565b1461169c5760405162461bcd60e51b815260040161069e90613a1e565b6000818152600160208190526040909120908101546001600160a01b0316331461171a5760405162461bcd60e51b815260206004820152602960248201527f4f6e6c7920746865206d616e7566616374757265722063616e20617070726f7660448201526865207175616c69747960b81b606482015260840161069e565b60038101805461ffff19166001179055604051339083907f08d6065569e454b48393f44317518d1282971813504b4d323942afba2f7a2c5d90600090a35050565b6001600160a01b038116600090815260076020526040812054606091816001600160401b0381111561178f5761178f613492565b6040519080825280602002602001820160405280156117d557816020015b6040805180820190915260608152600060208201528152602001906001900390816117ad5790505b50905060005b82811015610970576001600160a01b038516600090815260076020526040812080548390811061180d5761180d613983565b90600052602060002001805461182290613999565b80601f016020809104026020016040519081016040528092919081815260200182805461184e90613999565b801561189b5780601f106118705761010080835404028352916020019161189b565b820191906000526020600020905b81548152906001019060200180831161187e57829003601f168201915b50505050509050604051806040016040528082815260200160056000896001600160a01b03166001600160a01b03168152602001908152602001600020836040516118e691906139d3565b90815260200160405180910390205481525083838151811061190a5761190a613983565b6020908102919091010152506001016117db565b600360208190526000918252604090912080546001820154600283015493830154600484015460058501805494966001600160a01b03948516969416949293919261196890613999565b80601f016020809104026020016040519081016040528092919081815260200182805461199490613999565b80156119e15780601f106119b6576101008083540402835291602001916119e1565b820191906000526020600020905b8154815290600101906020018083116119c457829003601f168201915b50505050600683015460079093015491929160ff80821692506101009091041689565b6001600160a01b038082166000908152602081815260408083208151608081019092528054909416815260018401805460609586959485949391929084019190611a4d90613999565b80601f0160208091040260200160405190810160405280929190818152602001828054611a7990613999565b8015611ac65780601f10611a9b57610100808354040283529160200191611ac6565b820191906000526020600020905b815481529060010190602001808311611aa957829003601f168201915b505050918352505060028281015460209092019160ff1690811115611aed57611aed613187565b6002811115611afe57611afe613187565b8152602001600382018054611b1290613999565b80601f0160208091040260200160405190810160405280929190818152602001828054611b3e90613999565b8015611b8b5780601f10611b6057610100808354040283529160200191611b8b565b820191906000526020600020905b815481529060010190602001808311611b6e57829003601f168201915b50505091909252505050602081015160608201516040909201519097919650945092505050565b33600090815260208190526040812060029081015460ff1690811115611bda57611bda613187565b14611bf75760405162461bcd60e51b815260040161069e90613a1e565b60016001600160a01b038216600090815260208190526040902060029081015460ff1690811115611c2a57611c2a613187565b14611c6d5760405162461bcd60e51b815260206004820152601360248201527224b73b30b634b2103234b9ba3934b13aba37b960691b604482015260640161069e565b6000828152600160205260409020600381015460ff16611ccf5760405162461bcd60e51b815260206004820152601e60248201527f4261746368206d757374206265207175616c69747920617070726f7665640000604482015260640161069e565b60038101805462010000600160b01b031916620100006001600160a01b0385169081029190911790915560405184907f8e6804b2e7bfb70fb26b5bbf7a87382c43918cd5fd77219d8846c3c4f302ad0a90600090a3505050565b600133600090815260208190526040902060029081015460ff1690811115611d5357611d53613187565b14611d705760405162461bcd60e51b815260040161069e9061393a565b600082815260036020526040902060018101546001600160a01b03163314611df35760405162461bcd60e51b815260206004820152603060248201527f4f6e6c7920746865206469737472696275746f722063616e207570646174652060448201526f746865206f726465722073746174757360801b606482015260840161069e565b60078101805483919061ff001916610100836004811115611e1657611e16613187565b02179055506003826004811115611e2f57611e2f613187565b03611f48576006810154336000908152600560208190526040918290209151611e5a91850190613c5d565b90815260200160405180910390206000828254611e779190613c69565b92505081905550611f1633826005018054611e9190613999565b80601f0160208091040260200160405190810160405280929190818152602001828054611ebd90613999565b8015611f0a5780601f10611edf57610100808354040283529160200191611f0a565b820191906000526020600020905b815481529060010190602001808311611eed57829003601f168201915b50505050506001612f68565b611f485733600090815260076020908152604082208054600181018255908352912001611f466005830182613c7c565b505b505050565b6001600160a01b0381166000908152602081905260409020600101805460609190611f7790613999565b80601f0160208091040260200160405190810160405280929190818152602001828054611fa390613999565b8015611ff05780601f10611fc557610100808354040283529160200191611ff0565b820191906000526020600020905b815481529060010190602001808311611fd357829003601f168201915b50505050509050919050565b600133600090815260208190526040902060029081015460ff169081111561202657612026613187565b146120435760405162461bcd60e51b815260040161069e9061393a565b600082815260046020526040902060028101546001600160a01b031633146120bc5760405162461bcd60e51b815260206004820152602660248201527f4f6e6c7920746865206469737472696275746f722063616e2061737369676e2060448201526518481d5b9a5d60d21b606482015260840161069e565b600082815260026020819052604090912090810154600160a01b900460ff1680156120f3575060028101546001600160a01b031615155b61212e5760405162461bcd60e51b815260206004820152600c60248201526b125b9d985b1a59081d5b9a5d60a21b604482015260640161069e565b60048201839055600682018054600160ff1991821681179092558282015460078501556008840180549091168280610d87565b600460208190526000918252604090912080546001820154600283015460038401549484015460058501805494966001600160a01b039485169693909416949192916121ac90613999565b80601f01602080910402602001604051908101604052809291908181526020018280546121d890613999565b80156122255780601f106121fa57610100808354040283529160200191612225565b820191906000526020600020905b81548152906001019060200180831161220857829003601f168201915b5050505060068301546007840154600890940154929360ff918216939092501689565b33600090815260208190526040812060029081015460ff169081111561227057612270613187565b1461228d5760405162461bcd60e51b815260040161069e90613a1e565b6000818152600160208190526040909120908101546001600160a01b0316331461230c5760405162461bcd60e51b815260206004820152602a60248201527f4f6e6c7920746865206d616e7566616374757265722063616e20726563616c6c604482015269040e8d0ca40c4c2e8c6d60b31b606482015260840161069e565b60058101805460ff19166001179055604051339083907f5a41088291f050dab11b8aeaaeaa8fd33f2225751a5d64008f812e0362ef472590600090a35050565b600060208190529081526040902080546001820180546001600160a01b03909216929161237890613999565b80601f01602080910402602001604051908101604052809291908181526020018280546123a490613999565b80156123f15780601f106123c6576101008083540402835291602001916123f1565b820191906000526020600020905b8154815290600101906020018083116123d457829003601f168201915b5050506002840154600385018054949560ff90921694919350915061241590613999565b80601f016020809104026020016040519081016040528092919081815260200182805461244190613999565b801561248e5780601f106124635761010080835404028352916020019161248e565b820191906000526020600020905b81548152906001019060200180831161247157829003601f168201915b5050505050905084565b60016020819052600091825260409091208054918101546002820180546001600160a01b0390921692916124cb90613999565b80601f01602080910402602001604051908101604052809291908181526020018280546124f790613999565b80156125445780601f1061251957610100808354040283529160200191612544565b820191906000526020600020905b81548152906001019060200180831161252757829003601f168201915b5050505060038301546004840154600585015460068601546007870154600890970154959660ff80861697610100870482169750620100009096046001600160a01b0316959316928b565b33600090815260208190526040812060029081015460ff16908111156125b7576125b7613187565b146125d45760405162461bcd60e51b815260040161069e90613a1e565b6000818152600160208190526040909120908101546001600160a01b031633146126555760405162461bcd60e51b815260206004820152602c60248201527f4f6e6c7920746865206d616e7566616374757265722063616e2064697361707060448201526b726f7665207175616c69747960a01b606482015260840161069e565b60038101805461ffff1916610100179055604051339083907fc8c94276e66e72c265ff6c7a450b182f9910586a93051227e6024c1fbceaa88e90600090a35050565b33600090815260208190526040902060029081015460ff16818111156126bf576126bf613187565b146126dc5760405162461bcd60e51b815260040161069e90613d4e565b600082815260046020526040902060018101546001600160a01b0316331461275c5760405162461bcd60e51b815260206004820152602d60248201527f4f6e6c79207468652070726f76696465722063616e207570646174652074686560448201526c206f726465722073746174757360981b606482015260840161069e565b60088101805483919060ff1916600183600481111561277d5761277d613187565b0217905550600382600481111561279657612796613187565b03611f485760048101546000908152600260208181526040808420858401546001600160a01b0316855260058352818520600180830154875293849052948290209151909492936127e8920190613c5d565b908152602001604051809103902060008282546128059190613d94565b909155505033600090815260066020908152604080832060018581015485529283905292819020905191929161283e9160020190613c5d565b9081526020016040518091039020600082825461285b9190613c69565b92505081905550612910336001600084600101548152602001908152602001600020600201805461288b90613999565b80601f01602080910402602001604051908101604052809291908181526020018280546128b790613999565b80156129045780601f106128d957610100808354040283529160200191612904565b820191906000526020600020905b8154815290600101906020018083116128e757829003601f168201915b50505050506000612f68565b611f465733600090815260086020908152604080832060018581015485528084529184208154928301825590845291909220909101906129539060020182613c7c565b5050505050565b60606000805b600b548110156129a4576000818152600360205260409020600101546001600160a01b0380861691160361299c578161299881613a05565b9250505b600101612960565b506000816001600160401b038111156129bf576129bf613492565b6040519080825280602002602001820160405280156129f857816020015b6129e5613013565b8152602001906001900390816129dd5790505b5090506000805b600b54811015610fd7576000818152600360205260409020600101546001600160a01b03808816911603612b98576000818152600360208181526040928390208351610120810185528154815260018201546001600160a01b03908116938201939093526002820154909216938201939093529082015460608201526004820154608082015260058201805491929160a084019190612a9d90613999565b80601f0160208091040260200160405190810160405280929190818152602001828054612ac990613999565b8015612b165780601f10612aeb57610100808354040283529160200191612b16565b820191906000526020600020905b815481529060010190602001808311612af957829003601f168201915b505050918352505060068201546020820152600782015460ff80821615156040840152606090920191610100909104166004811115612b5757612b57613187565b6004811115612b6857612b68613187565b81525050838381518110612b7e57612b7e613983565b60200260200101819052508180612b9490613a05565b9250505b6001016129ff565b60086020528160005260406000208181548110612bbc57600080fd5b90600052602060002001600091509150508054612bd890613999565b80601f0160208091040260200160405190810160405280929190818152602001828054612c0490613999565b8015612c515780601f10612c2657610100808354040283529160200191612c51565b820191906000526020600020905b815481529060010190602001808311612c3457829003601f168201915b505050505081565b60076020528160005260406000208181548110612bbc57600080fd5b600133600090815260208190526040902060029081015460ff1690811115612c9f57612c9f613187565b14612cbc5760405162461bcd60e51b815260040161069e9061393a565b600b805460009182612ccd83613a05565b90915550604080516101208101825282815233602082015260009181018290524260608201526080810182905260a0810186905260c0810185905260e0810182905291925061010082015260008281526003602081815260409283902084518155908401516001820180546001600160a01b03199081166001600160a01b0393841617909155938501516002830180549095169116179092556060830151908201556080820151600482015560a08201516005820190612d8d9082613ab8565b5060c0820151600682015560e082015160078201805491151560ff19831681178255610100808601519361ff001990921661ffff199092169190911790836004811115612ddc57612ddc613187565b02179055505050505050565b33600090815260208190526040902060029081015460ff1681811115612e1057612e10613187565b14612e2d5760405162461bcd60e51b815260040161069e90613d4e565b600c805460009182612e3e83613a05565b919050559050604051806101200160405280828152602001336001600160a01b03168152602001836001600160a01b03168152602001428152602001600081526020018481526020016000151581526020016000815260200160006004811115612eaa57612eaa613187565b905260008281526004602081815260409283902084518155908401516001820180546001600160a01b03199081166001600160a01b0393841617909155938501516002830180549095169116179092556060830151600383015560808301519082015560a08201516005820190612f219082613ab8565b5060c082015160068201805491151560ff1992831617905560e0830151600783015561010083015160088301805491929091166001836004811115612ddc57612ddc613187565b60008082612f8d576001600160a01b0385166000908152600860205260409020612fa6565b6001600160a01b03851660009081526007602052604090205b905060005b8154811015613005578480519060200120828281548110612fce57612fce613983565b90600052602060002001604051612fe59190613c5d565b604051809103902003612ffd5760019250505061300c565b600101612fab565b5060009150505b9392505050565b604080516101208101825260008082526020820181905291810182905260608082018390526080820183905260a082015260c0810182905260e081018290529061010082015290565b80356001600160a01b038116811461307357600080fd5b919050565b6000806040838503121561308b57600080fd5b8235915061309b6020840161305c565b90509250929050565b6000602082840312156130b657600080fd5b61300c8261305c565b60005b838110156130da5781810151838201526020016130c2565b50506000910152565b600081518084526130fb8160208601602086016130bf565b601f01601f19169290920160200192915050565b600060208083018184528085518083526040925060408601915060408160051b87010184880160005b8381101561317957888303603f190185528151805187855261315c888601826130e3565b918901519489019490945294870194925090860190600101613138565b509098975050505050505050565b634e487b7160e01b600052602160045260246000fd5b600581106131ad576131ad613187565b9052565b600060208083018184528085518083526040925060408601915060408160051b87010184880160005b8381101561317957603f19898403018552815180518452878101516001600160a01b0390811689860152878201511687850152606080820151908501526080808201519085015260a080820151610120828701819052919061323e838801826130e3565b9250505060c080830151818701525060e0808301516132608288018215159052565b505061010091820151916132768682018461319d565b5095880195935050908601906001016131da565b6000806040838503121561329d57600080fd5b50508035926020909101359150565b600060208083018184528085518083526040925060408601915060408160051b87010184880160005b8381101561317957603f19898403018552815180518452878101516001600160a01b0390811689860152878201511687850152606080820151908501526080808201519085015260a0808201516101208287018190529190613339838801826130e3565b9250505060c0808301516133508288018215159052565b505060e0828101519086015261010091820151916133708187018461319d565b5095880195935050908601906001016132d5565b600381106131ad576131ad613187565b602081016133a28284613384565b92915050565b600060208083018184528085518083526040925060408601915060408160051b87010184880160005b8381101561317957603f19898403018552815180518452878101516001600160a01b0316888501528681015161016088860181905290613413828701826130e3565b9150506060808301516134298288018215159052565b505060808281015115159086015260a0808301516001600160a01b03169086015260c0808301519086015260e0808301511515908601526101008083015190860152610120808301519086015261014091820151919094015293860193908601906001016133d1565b634e487b7160e01b600052604160045260246000fd5b600082601f8301126134b957600080fd5b81356001600160401b03808211156134d3576134d3613492565b604051601f8301601f19908116603f011681019082821181831017156134fb576134fb613492565b8160405283815286602085880101111561351457600080fd5b836020870160208301376000602085830101528094505050505092915050565b6000806000806080858703121561354a57600080fd5b6135538561305c565b935060208501356001600160401b038082111561356f57600080fd5b61357b888389016134a8565b9450604087013591506003821061359157600080fd5b909250606086013590808211156135a757600080fd5b506135b4878288016134a8565b91505092959194509250565b600080600080608085870312156135d657600080fd5b84356001600160401b038111156135ec57600080fd5b6135f8878288016134a8565b97602087013597506040870135966060013595509350505050565b60006020828403121561362557600080fd5b5035919050565b8981526001600160a01b03898116602083015288166040820152606081018790526080810186905261012060a0820181905260009061366d838201886130e3565b9150508460c083015283151560e083015261368c61010083018461319d565b9a9950505050505050505050565b6060815260006136ad60608301866130e3565b82810360208401526136bf81866130e3565b9150506136cf6040830184613384565b949350505050565b600080604083850312156136ea57600080fd5b6136f38361305c565b915060208301356001600160401b0381111561370e57600080fd5b61371a858286016134a8565b9150509250929050565b6000806040838503121561373757600080fd5b8235915060208301356005811061374d57600080fd5b809150509250929050565b60208152600061300c60208301846130e3565b8981526001600160a01b03898116602083015288166040820152606081018790526080810186905261012060a082018190526000906137ac838201886130e3565b91505084151560c08301528360e083015261368c61010083018461319d565b6001600160a01b03851681526080602082018190526000906137ef908301866130e3565b6137fc6040840186613384565b828103606084015261380e81856130e3565b979650505050505050565b8b81526001600160a01b038b81166020830152610160604083018190526000916138458483018e6130e3565b9b15156060850152991515608084015250509590961660a086015260c085019390935290151560e084015261010083015261012082015261014001529392505050565b6000806040838503121561389b57600080fd5b6138a48361305c565b946020939093013593505050565b600080604083850312156138c557600080fd5b82356001600160401b038111156138db57600080fd5b6138e7858286016134a8565b95602094909401359450505050565b6000806040838503121561390957600080fd5b82356001600160401b0381111561391f57600080fd5b61392b858286016134a8565b92505061309b6020840161305c565b60208082526029908201527f4f6e6c79206469737472696275746f72732063616e20706572666f726d20746860408201526834b99030b1ba34b7b760b91b606082015260800190565b634e487b7160e01b600052603260045260246000fd5b600181811c908216806139ad57607f821691505b6020821081036139cd57634e487b7160e01b600052602260045260246000fd5b50919050565b600082516139e58184602087016130bf565b9190910192915050565b634e487b7160e01b600052601160045260246000fd5b600060018201613a1757613a176139ef565b5060010190565b6020808252602a908201527f4f6e6c79206d616e756661637475726572732063616e20706572666f726d20746040820152693434b99030b1ba34b7b760b11b606082015260800190565b601f821115611f48576000816000526020600020601f850160051c81016020861015613a915750805b601f850160051c820191505b81811015613ab057828155600101613a9d565b505050505050565b81516001600160401b03811115613ad157613ad1613492565b613ae581613adf8454613999565b84613a68565b602080601f831160018114613b1a5760008415613b025750858301515b600019600386901b1c1916600185901b178555613ab0565b600085815260208120601f198616915b82811015613b4957888601518255948401946001909101908401613b2a565b5085821015613b675787850151600019600388901b60f8161c191681555b5050505050600190811b01905550565b606081526000613b8a60608301866130e3565b613b976020840186613384565b8281036040840152613ba981856130e3565b9695505050505050565b60a081526000613bc660a08301886130e3565b90508560208301528460408301528360608301528260808301529695505050505050565b60008154613bf781613999565b60018281168015613c0f5760018114613c2457613c53565b60ff1984168752821515830287019450613c53565b8560005260208060002060005b85811015613c4a5781548a820152908401908201613c31565b50505082870194505b5050505092915050565b600061300c8284613bea565b808201808211156133a2576133a26139ef565b818103613c87575050565b613c918254613999565b6001600160401b03811115613ca857613ca8613492565b613cb681613adf8454613999565b6000601f821160018114613cea5760008315613cd25750848201545b600019600385901b1c1916600184901b178455612953565b600085815260209020601f19841690600086815260209020845b83811015613d245782860154825560019586019590910190602001613d04565b5085831015613b675793015460001960f8600387901b161c19169092555050600190811b01905550565b60208082526026908201527f4f6e6c792070726f7669646572732063616e20706572666f726d20746869732060408201526530b1ba34b7b760d11b606082015260800190565b818103818111156133a2576133a26139ef56fea26469706673582212208ddd4b659e71eff14ae66f0321766977f7bac4fd10e6bb0b9ed339ef6a0c3f1d64736f6c63430008180033",
  "linkReferences": {},
  "deployedLinkReferences": {}
}