{
  "_format": "hh-sol-artifact-1",
  "contractName": "PharmaChain",
  "sourceName": "contracts/PharmaChain.sol",
  "abi": [
    {
      "anonymous": false,
      "inputs": [
        {
          "indexed": true,
          "internalType": "uint256",
          "name": "batchId",
          "type": "uint256"
        },
        {
          "indexed": true,
          "internalType": "address",
          "name": "distributor",
          "type": "address"
        }
      ],
      "name": "BatchAssignedToDistributor",
      "type": "event"
    },
    {
      "anonymous": false,
      "inputs": [
        {
          "indexed": true,
          "internalType": "uint256",
          "name": "batchId",
          "type": "uint256"
        },
        {
          "indexed": true,
          "internalType": "address",
          "name": "manufacturer",
          "type": "address"
        },
        {
          "indexed": false,
          "internalType": "string",
          "name": "details",
          "type": "string"
        },
        {
          "indexed": false,
          "internalType": "bytes32",
          "name": "rfidUIDHash",
          "type": "bytes32"
        },
        {
          "indexed": false,
          "internalType": "uint256",
          "name": "manufactureDate",
          "type": "uint256"
        },
        {
          "indexed": false,
          "internalType": "uint256",
          "name": "expiryDate",
          "type": "uint256"
        },
        {
          "indexed": false,
          "internalType": "uint256",
          "name": "quantity",
          "type": "uint256"
        }
      ],
      "name": "BatchCreated",
      "type": "event"
    },
    {
      "anonymous": false,
      "inputs": [
        {
          "indexed": true,
          "internalType": "uint256",
          "name": "batchId",
          "type": "uint256"
        },
        {
          "indexed": true,
          "internalType": "address",
          "name": "initiator",
          "type": "address"
        }
      ],
      "name": "BatchRecalled",
      "type": "event"
    },
    {
      "anonymous": false,
      "inputs": [
        {
          "indexed": true,
          "internalType": "uint256",
          "name": "batchId",
          "type": "uint256"
        },
        {
          "indexed": true,
          "internalType": "address",
          "name": "approver",
          "type": "address"
        }
      ],
      "name": "QualityApproved",
      "type": "event"
    },
    {
      "anonymous": false,
      "inputs": [
        {
          "indexed": true,
          "internalType": "uint256",
          "name": "batchId",
          "type": "uint256"
        },
        {
          "indexed": true,
          "internalType": "address",
          "name": "disapprover",
          "type": "address"
        }
      ],
      "name": "QualityDisapproved",
      "type": "event"
    },
    {
      "anonymous": false,
      "inputs": [
        {
          "indexed": true,
          "internalType": "address",
          "name": "user",
          "type": "address"
        },
        {
          "indexed": false,
          "internalType": "string",
          "name": "companyName",
          "type": "string"
        },
        {
          "indexed": false,
          "internalType": "enum PharmaChain.Role",
          "name": "role",
          "type": "uint8"
        },
        {
          "indexed": false,
          "internalType": "string",
          "name": "contactInfo",
          "type": "string"
        }
      ],
      "name": "UserRegistered",
      "type": "event"
    },
    {
      "inputs": [
        {
          "internalType": "uint256",
          "name": "_batchId",
          "type": "uint256"
        }
      ],
      "name": "approveQuality",
      "outputs": [],
      "stateMutability": "nonpayable",
      "type": "function"
    },
    {
      "inputs": [
        {
          "internalType": "uint256",
          "name": "_orderId",
          "type": "uint256"
        },
        {
          "internalType": "uint256",
          "name": "_unitId",
          "type": "uint256"
        }
      ],
      "name": "assignBatchUnitToOrder",
      "outputs": [],
      "stateMutability": "nonpayable",
      "type": "function"
    },
    {
      "inputs": [
        {
          "internalType": "uint256",
          "name": "_batchId",
          "type": "uint256"
        },
        {
          "internalType": "address",
          "name": "_distributor",
          "type": "address"
        },
        {
          "internalType": "uint256",
          "name": "_orderId",
          "type": "uint256"
        }
      ],
      "name": "assignToDistributor",
      "outputs": [],
      "stateMutability": "nonpayable",
      "type": "function"
    },
    {
      "inputs": [
        {
          "internalType": "uint256",
          "name": "_unitId",
          "type": "uint256"
        },
        {
          "internalType": "address",
          "name": "_provider",
          "type": "address"
        }
      ],
      "name": "assignUnitToProvider",
      "outputs": [],
      "stateMutability": "nonpayable",
      "type": "function"
    },
    {
      "inputs": [
        {
          "internalType": "uint256",
          "name": "",
          "type": "uint256"
        }
      ],
      "name": "batchUnits",
      "outputs": [
        {
          "internalType": "uint256",
          "name": "unitId",
          "type": "uint256"
        },
        {
          "internalType": "uint256",
          "name": "batchId",
          "type": "uint256"
        },
        {
          "internalType": "address",
          "name": "provider",
          "type": "address"
        },
        {
          "internalType": "bool",
          "name": "isAssigned",
          "type": "bool"
        }
      ],
      "stateMutability": "view",
      "type": "function"
    },
    {
      "inputs": [
        {
          "internalType": "uint256",
          "name": "",
          "type": "uint256"
        }
      ],
      "name": "batches",
      "outputs": [
        {
          "internalType": "uint256",
          "name": "batchId",
          "type": "uint256"
        },
        {
          "internalType": "address",
          "name": "manufacturer",
          "type": "address"
        },
        {
          "internalType": "string",
          "name": "details",
          "type": "string"
        },
        {
          "internalType": "bool",
          "name": "isQualityApproved",
          "type": "bool"
        },
        {
          "internalType": "bool",
          "name": "isQualityDisapproved",
          "type": "bool"
        },
        {
          "internalType": "address",
          "name": "distributor",
          "type": "address"
        },
        {
          "internalType": "bytes32",
          "name": "rfidUIDHash",
          "type": "bytes32"
        },
        {
          "internalType": "bool",
          "name": "isRecalled",
          "type": "bool"
        },
        {
          "internalType": "uint256",
          "name": "manufactureDate",
          "type": "uint256"
        },
        {
          "internalType": "uint256",
          "name": "expiryDate",
          "type": "uint256"
        },
        {
          "internalType": "uint256",
          "name": "quantity",
          "type": "uint256"
        },
        {
          "internalType": "uint256",
          "name": "orderId",
          "type": "uint256"
        }
      ],
      "stateMutability": "view",
      "type": "function"
    },
    {
      "inputs": [
        {
          "internalType": "string",
          "name": "_details",
          "type": "string"
        },
        {
          "internalType": "bytes32",
          "name": "_rfidUIDHash",
          "type": "bytes32"
        },
        {
          "internalType": "uint256",
          "name": "_expiryDate",
          "type": "uint256"
        },
        {
          "internalType": "uint256",
          "name": "_quantity",
          "type": "uint256"
        }
      ],
      "name": "createBatch",
      "outputs": [],
      "stateMutability": "nonpayable",
      "type": "function"
    },
    {
      "inputs": [
        {
          "internalType": "string",
          "name": "_medName",
          "type": "string"
        },
        {
          "internalType": "uint256",
          "name": "_quantity",
          "type": "uint256"
        }
      ],
      "name": "createDistributorOrder",
      "outputs": [],
      "stateMutability": "nonpayable",
      "type": "function"
    },
    {
      "inputs": [
        {
          "internalType": "string",
          "name": "_details",
          "type": "string"
        },
        {
          "internalType": "address",
          "name": "_distributor",
          "type": "address"
        }
      ],
      "name": "createProviderOrder",
      "outputs": [],
      "stateMutability": "nonpayable",
      "type": "function"
    },
    {
      "inputs": [
        {
          "internalType": "uint256",
          "name": "_batchId",
          "type": "uint256"
        }
      ],
      "name": "disapproveQuality",
      "outputs": [],
      "stateMutability": "nonpayable",
      "type": "function"
    },
    {
      "inputs": [
        {
          "internalType": "address",
          "name": "",
          "type": "address"
        },
        {
          "internalType": "uint256",
          "name": "",
          "type": "uint256"
        }
      ],
      "name": "distributorMedNames",
      "outputs": [
        {
          "internalType": "string",
          "name": "",
          "type": "string"
        }
      ],
      "stateMutability": "view",
      "type": "function"
    },
    {
      "inputs": [
        {
          "internalType": "uint256",
          "name": "",
          "type": "uint256"
        }
      ],
      "name": "distributorOrders",
      "outputs": [
        {
          "internalType": "uint256",
          "name": "orderId",
          "type": "uint256"
        },
        {
          "internalType": "address",
          "name": "distributor",
          "type": "address"
        },
        {
          "internalType": "address",
          "name": "manufacturer",
          "type": "address"
        },
        {
          "internalType": "uint256",
          "name": "orderDate",
          "type": "uint256"
        },
        {
          "internalType": "uint256",
          "name": "batchId",
          "type": "uint256"
        },
        {
          "internalType": "string",
          "name": "medName",
          "type": "string"
        },
        {
          "internalType": "uint256",
          "name": "quantity",
          "type": "uint256"
        },
        {
          "internalType": "bool",
          "name": "isAssigned",
          "type": "bool"
        },
        {
          "internalType": "enum PharmaChain.OrderStatus",
          "name": "status",
          "type": "uint8"
        },
        {
          "internalType": "uint256",
          "name": "orderApprovedDate",
          "type": "uint256"
        }
      ],
      "stateMutability": "view",
      "type": "function"
    },
    {
      "inputs": [
        {
          "internalType": "address",
          "name": "",
          "type": "address"
        },
        {
          "internalType": "string",
          "name": "",
          "type": "string"
        }
      ],
      "name": "distributorStocks",
      "outputs": [
        {
          "internalType": "uint256",
          "name": "",
          "type": "uint256"
        }
      ],
      "stateMutability": "view",
      "type": "function"
    },
    {
      "inputs": [
        {
          "internalType": "address",
          "name": "_user",
          "type": "address"
        }
      ],
      "name": "getCompanyNameFromAddress",
      "outputs": [
        {
          "internalType": "string",
          "name": "",
          "type": "string"
        }
      ],
      "stateMutability": "view",
      "type": "function"
    },
    {
      "inputs": [
        {
          "internalType": "address",
          "name": "_manufacturer",
          "type": "address"
        }
      ],
      "name": "getCreatedBatches",
      "outputs": [
        {
          "components": [
            {
              "internalType": "uint256",
              "name": "batchId",
              "type": "uint256"
            },
            {
              "internalType": "address",
              "name": "manufacturer",
              "type": "address"
            },
            {
              "internalType": "string",
              "name": "details",
              "type": "string"
            },
            {
              "internalType": "bool",
              "name": "isQualityApproved",
              "type": "bool"
            },
            {
              "internalType": "bool",
              "name": "isQualityDisapproved",
              "type": "bool"
            },
            {
              "internalType": "address",
              "name": "distributor",
              "type": "address"
            },
            {
              "internalType": "bytes32",
              "name": "rfidUIDHash",
              "type": "bytes32"
            },
            {
              "internalType": "bool",
              "name": "isRecalled",
              "type": "bool"
            },
            {
              "internalType": "uint256",
              "name": "manufactureDate",
              "type": "uint256"
            },
            {
              "internalType": "uint256",
              "name": "expiryDate",
              "type": "uint256"
            },
            {
              "internalType": "uint256",
              "name": "quantity",
              "type": "uint256"
            },
            {
              "internalType": "uint256",
              "name": "orderId",
              "type": "uint256"
            }
          ],
          "internalType": "struct PharmaChain.Batch[]",
          "name": "",
          "type": "tuple[]"
        }
      ],
      "stateMutability": "view",
      "type": "function"
    },
    {
      "inputs": [
        {
          "internalType": "uint256",
          "name": "_orderId",
          "type": "uint256"
        }
      ],
      "name": "getDistributorOrder",
      "outputs": [
        {
          "components": [
            {
              "internalType": "uint256",
              "name": "orderId",
              "type": "uint256"
            },
            {
              "internalType": "address",
              "name": "distributor",
              "type": "address"
            },
            {
              "internalType": "address",
              "name": "manufacturer",
              "type": "address"
            },
            {
              "internalType": "uint256",
              "name": "orderDate",
              "type": "uint256"
            },
            {
              "internalType": "uint256",
              "name": "batchId",
              "type": "uint256"
            },
            {
              "internalType": "string",
              "name": "medName",
              "type": "string"
            },
            {
              "internalType": "uint256",
              "name": "quantity",
              "type": "uint256"
            },
            {
              "internalType": "bool",
              "name": "isAssigned",
              "type": "bool"
            },
            {
              "internalType": "enum PharmaChain.OrderStatus",
              "name": "status",
              "type": "uint8"
            },
            {
              "internalType": "uint256",
              "name": "orderApprovedDate",
              "type": "uint256"
            }
          ],
          "internalType": "struct PharmaChain.DistributorOrder",
          "name": "",
          "type": "tuple"
        }
      ],
      "stateMutability": "view",
      "type": "function"
    },
    {
      "inputs": [
        {
          "internalType": "address",
          "name": "_distributor",
          "type": "address"
        }
      ],
      "name": "getDistributorOrders",
      "outputs": [
        {
          "components": [
            {
              "internalType": "uint256",
              "name": "orderId",
              "type": "uint256"
            },
            {
              "internalType": "address",
              "name": "distributor",
              "type": "address"
            },
            {
              "internalType": "address",
              "name": "manufacturer",
              "type": "address"
            },
            {
              "internalType": "uint256",
              "name": "orderDate",
              "type": "uint256"
            },
            {
              "internalType": "uint256",
              "name": "batchId",
              "type": "uint256"
            },
            {
              "internalType": "string",
              "name": "medName",
              "type": "string"
            },
            {
              "internalType": "uint256",
              "name": "quantity",
              "type": "uint256"
            },
            {
              "internalType": "bool",
              "name": "isAssigned",
              "type": "bool"
            },
            {
              "internalType": "enum PharmaChain.OrderStatus",
              "name": "status",
              "type": "uint8"
            },
            {
              "internalType": "uint256",
              "name": "orderApprovedDate",
              "type": "uint256"
            }
          ],
          "internalType": "struct PharmaChain.DistributorOrder[]",
          "name": "",
          "type": "tuple[]"
        }
      ],
      "stateMutability": "view",
      "type": "function"
    },
    {
      "inputs": [
        {
          "internalType": "address",
          "name": "_distributor",
          "type": "address"
        }
      ],
      "name": "getDistributorStock",
      "outputs": [
        {
          "components": [
            {
              "internalType": "string",
              "name": "medName",
              "type": "string"
            },
            {
              "internalType": "uint256",
              "name": "quantity",
              "type": "uint256"
            }
          ],
          "internalType": "struct PharmaChain.StockItem[]",
          "name": "",
          "type": "tuple[]"
        }
      ],
      "stateMutability": "view",
      "type": "function"
    },
    {
      "inputs": [
        {
          "internalType": "address",
          "name": "_manufacturer",
          "type": "address"
        }
      ],
      "name": "getFulfilledBatches",
      "outputs": [
        {
          "components": [
            {
              "internalType": "uint256",
              "name": "batchId",
              "type": "uint256"
            },
            {
              "internalType": "address",
              "name": "manufacturer",
              "type": "address"
            },
            {
              "internalType": "string",
              "name": "details",
              "type": "string"
            },
            {
              "internalType": "bool",
              "name": "isQualityApproved",
              "type": "bool"
            },
            {
              "internalType": "bool",
              "name": "isQualityDisapproved",
              "type": "bool"
            },
            {
              "internalType": "address",
              "name": "distributor",
              "type": "address"
            },
            {
              "internalType": "bytes32",
              "name": "rfidUIDHash",
              "type": "bytes32"
            },
            {
              "internalType": "bool",
              "name": "isRecalled",
              "type": "bool"
            },
            {
              "internalType": "uint256",
              "name": "manufactureDate",
              "type": "uint256"
            },
            {
              "internalType": "uint256",
              "name": "expiryDate",
              "type": "uint256"
            },
            {
              "internalType": "uint256",
              "name": "quantity",
              "type": "uint256"
            },
            {
              "internalType": "uint256",
              "name": "orderId",
              "type": "uint256"
            }
          ],
          "internalType": "struct PharmaChain.Batch[]",
          "name": "",
          "type": "tuple[]"
        }
      ],
      "stateMutability": "view",
      "type": "function"
    },
    {
      "inputs": [],
      "name": "getPendingDistributorOrders",
      "outputs": [
        {
          "components": [
            {
              "internalType": "uint256",
              "name": "orderId",
              "type": "uint256"
            },
            {
              "internalType": "address",
              "name": "distributor",
              "type": "address"
            },
            {
              "internalType": "address",
              "name": "manufacturer",
              "type": "address"
            },
            {
              "internalType": "uint256",
              "name": "orderDate",
              "type": "uint256"
            },
            {
              "internalType": "uint256",
              "name": "batchId",
              "type": "uint256"
            },
            {
              "internalType": "string",
              "name": "medName",
              "type": "string"
            },
            {
              "internalType": "uint256",
              "name": "quantity",
              "type": "uint256"
            },
            {
              "internalType": "bool",
              "name": "isAssigned",
              "type": "bool"
            },
            {
              "internalType": "enum PharmaChain.OrderStatus",
              "name": "status",
              "type": "uint8"
            },
            {
              "internalType": "uint256",
              "name": "orderApprovedDate",
              "type": "uint256"
            }
          ],
          "internalType": "struct PharmaChain.DistributorOrder[]",
          "name": "",
          "type": "tuple[]"
        }
      ],
      "stateMutability": "view",
      "type": "function"
    },
    {
      "inputs": [
        {
          "internalType": "address",
          "name": "_provider",
          "type": "address"
        }
      ],
      "name": "getProviderOrders",
      "outputs": [
        {
          "components": [
            {
              "internalType": "uint256",
              "name": "orderId",
              "type": "uint256"
            },
            {
              "internalType": "address",
              "name": "provider",
              "type": "address"
            },
            {
              "internalType": "address",
              "name": "distributor",
              "type": "address"
            },
            {
              "internalType": "uint256",
              "name": "orderDate",
              "type": "uint256"
            },
            {
              "internalType": "uint256",
              "name": "unitId",
              "type": "uint256"
            },
            {
              "internalType": "string",
              "name": "details",
              "type": "string"
            },
            {
              "internalType": "bool",
              "name": "isAssigned",
              "type": "bool"
            },
            {
              "internalType": "uint256",
              "name": "batchId",
              "type": "uint256"
            },
            {
              "internalType": "enum PharmaChain.OrderStatus",
              "name": "status",
              "type": "uint8"
            }
          ],
          "internalType": "struct PharmaChain.ProviderOrder[]",
          "name": "",
          "type": "tuple[]"
        }
      ],
      "stateMutability": "view",
      "type": "function"
    },
    {
      "inputs": [
        {
          "internalType": "address",
          "name": "_provider",
          "type": "address"
        }
      ],
      "name": "getProviderStock",
      "outputs": [
        {
          "components": [
            {
              "internalType": "string",
              "name": "medName",
              "type": "string"
            },
            {
              "internalType": "uint256",
              "name": "quantity",
              "type": "uint256"
            }
          ],
          "internalType": "struct PharmaChain.StockItem[]",
          "name": "",
          "type": "tuple[]"
        }
      ],
      "stateMutability": "view",
      "type": "function"
    },
    {
      "inputs": [
        {
          "internalType": "address",
          "name": "_user",
          "type": "address"
        }
      ],
      "name": "getUserByAddress",
      "outputs": [
        {
          "components": [
            {
              "internalType": "address",
              "name": "account",
              "type": "address"
            },
            {
              "internalType": "string",
              "name": "companyName",
              "type": "string"
            },
            {
              "internalType": "enum PharmaChain.Role",
              "name": "role",
              "type": "uint8"
            },
            {
              "internalType": "string",
              "name": "contactInfo",
              "type": "string"
            }
          ],
          "internalType": "struct PharmaChain.User",
          "name": "",
          "type": "tuple"
        }
      ],
      "stateMutability": "view",
      "type": "function"
    },
    {
      "inputs": [
        {
          "internalType": "address",
          "name": "_user",
          "type": "address"
        }
      ],
      "name": "getUserInfo",
      "outputs": [
        {
          "internalType": "string",
          "name": "companyName",
          "type": "string"
        },
        {
          "internalType": "string",
          "name": "contactInfo",
          "type": "string"
        },
        {
          "internalType": "enum PharmaChain.Role",
          "name": "role",
          "type": "uint8"
        }
      ],
      "stateMutability": "view",
      "type": "function"
    },
    {
      "inputs": [
        {
          "internalType": "address",
          "name": "_user",
          "type": "address"
        }
      ],
      "name": "getUserRole",
      "outputs": [
        {
          "internalType": "enum PharmaChain.Role",
          "name": "",
          "type": "uint8"
        }
      ],
      "stateMutability": "view",
      "type": "function"
    },
    {
      "inputs": [
        {
          "internalType": "address",
          "name": "_user",
          "type": "address"
        }
      ],
      "name": "isUserRegistered",
      "outputs": [
        {
          "internalType": "bool",
          "name": "",
          "type": "bool"
        }
      ],
      "stateMutability": "view",
      "type": "function"
    },
    {
      "inputs": [],
      "name": "nextBatchId",
      "outputs": [
        {
          "internalType": "uint256",
          "name": "",
          "type": "uint256"
        }
      ],
      "stateMutability": "view",
      "type": "function"
    },
    {
      "inputs": [],
      "name": "nextDistributorOrderId",
      "outputs": [
        {
          "internalType": "uint256",
          "name": "",
          "type": "uint256"
        }
      ],
      "stateMutability": "view",
      "type": "function"
    },
    {
      "inputs": [],
      "name": "nextProviderOrderId",
      "outputs": [
        {
          "internalType": "uint256",
          "name": "",
          "type": "uint256"
        }
      ],
      "stateMutability": "view",
      "type": "function"
    },
    {
      "inputs": [],
      "name": "nextUnitId",
      "outputs": [
        {
          "internalType": "uint256",
          "name": "",
          "type": "uint256"
        }
      ],
      "stateMutability": "view",
      "type": "function"
    },
    {
      "inputs": [
        {
          "internalType": "address",
          "name": "",
          "type": "address"
        },
        {
          "internalType": "uint256",
          "name": "",
          "type": "uint256"
        }
      ],
      "name": "providerMedNames",
      "outputs": [
        {
          "internalType": "string",
          "name": "",
          "type": "string"
        }
      ],
      "stateMutability": "view",
      "type": "function"
    },
    {
      "inputs": [
        {
          "internalType": "uint256",
          "name": "",
          "type": "uint256"
        }
      ],
      "name": "providerOrders",
      "outputs": [
        {
          "internalType": "uint256",
          "name": "orderId",
          "type": "uint256"
        },
        {
          "internalType": "address",
          "name": "provider",
          "type": "address"
        },
        {
          "internalType": "address",
          "name": "distributor",
          "type": "address"
        },
        {
          "internalType": "uint256",
          "name": "orderDate",
          "type": "uint256"
        },
        {
          "internalType": "uint256",
          "name": "unitId",
          "type": "uint256"
        },
        {
          "internalType": "string",
          "name": "details",
          "type": "string"
        },
        {
          "internalType": "bool",
          "name": "isAssigned",
          "type": "bool"
        },
        {
          "internalType": "uint256",
          "name": "batchId",
          "type": "uint256"
        },
        {
          "internalType": "enum PharmaChain.OrderStatus",
          "name": "status",
          "type": "uint8"
        }
      ],
      "stateMutability": "view",
      "type": "function"
    },
    {
      "inputs": [
        {
          "internalType": "address",
          "name": "",
          "type": "address"
        },
        {
          "internalType": "string",
          "name": "",
          "type": "string"
        }
      ],
      "name": "providerStocks",
      "outputs": [
        {
          "internalType": "uint256",
          "name": "",
          "type": "uint256"
        }
      ],
      "stateMutability": "view",
      "type": "function"
    },
    {
      "inputs": [
        {
          "internalType": "uint256",
          "name": "_batchId",
          "type": "uint256"
        }
      ],
      "name": "recallBatch",
      "outputs": [],
      "stateMutability": "nonpayable",
      "type": "function"
    },
    {
      "inputs": [
        {
          "internalType": "address",
          "name": "_user",
          "type": "address"
        },
        {
          "internalType": "string",
          "name": "_companyName",
          "type": "string"
        },
        {
          "internalType": "enum PharmaChain.Role",
          "name": "_role",
          "type": "uint8"
        },
        {
          "internalType": "string",
          "name": "_contactInfo",
          "type": "string"
        }
      ],
      "name": "registerUser",
      "outputs": [],
      "stateMutability": "nonpayable",
      "type": "function"
    },
    {
      "inputs": [
        {
          "internalType": "uint256",
          "name": "_orderId",
          "type": "uint256"
        },
        {
          "internalType": "enum PharmaChain.OrderStatus",
          "name": "_status",
          "type": "uint8"
        }
      ],
      "name": "updateDistributorOrderStatus",
      "outputs": [],
      "stateMutability": "nonpayable",
      "type": "function"
    },
    {
      "inputs": [
        {
          "internalType": "uint256",
          "name": "_orderId",
          "type": "uint256"
        },
        {
          "internalType": "enum PharmaChain.OrderStatus",
          "name": "_status",
          "type": "uint8"
        }
      ],
      "name": "updateProviderOrderStatus",
      "outputs": [],
      "stateMutability": "nonpayable",
      "type": "function"
    },
    {
      "inputs": [
        {
          "internalType": "address",
          "name": "",
          "type": "address"
        }
      ],
      "name": "users",
      "outputs": [
        {
          "internalType": "address",
          "name": "account",
          "type": "address"
        },
        {
          "internalType": "string",
          "name": "companyName",
          "type": "string"
        },
        {
          "internalType": "enum PharmaChain.Role",
          "name": "role",
          "type": "uint8"
        },
        {
          "internalType": "string",
          "name": "contactInfo",
          "type": "string"
        }
      ],
      "stateMutability": "view",
      "type": "function"
    }
  ],
  "bytecode": "0x608060405260646009556064600a556064600b556064600c5534801561002457600080fd5b506145aa806100346000396000f3fe608060405234801561001057600080fd5b50600436106102325760003560e01c80638429bcf711610130578063c91cdc90116100b8578063e3c6e07e1161007c578063e3c6e07e14610627578063f1bd14ad1461063a578063f212d6d914610676578063f685aaff14610689578063fa4b47a31461069c57600080fd5b8063c91cdc90146105c5578063ced27743146105d8578063d0aeb537146105eb578063d3862238146105fe578063d56f40dd1461060757600080fd5b8063a3ef03cd116100ff578063a3ef03cd146104dd578063a6e162b414610551578063a87430ba14610564578063b32c4d8d14610587578063b616e184146105b257600080fd5b80638429bcf7146104905780638462a7f8146104995780638b6c9395146104a257806395c53d49146104b557600080fd5b806344dfc5f8116101be57806369c212f61161018257806369c212f6146103ea5780636ae25d981461040a57806376c38606146104545780637e3b128b1461046757806383e9f8bf1461047057600080fd5b806344dfc5f8146103665780634a746b7b146103795780634e4b18fb1461038c5780636386c1c7146103b5578063642c9719146103d757600080fd5b80632615457b116102055780632615457b146102c457806327820851146102e45780632d703d73146103205780633d28a3011461034057806343deec2e1461035357600080fd5b80630c3d3f4314610237578063163f75221461024c5780631c5a3a531461028f5780631d8abc8f146102af575b600080fd5b61024a610245366004613730565b6106af565b005b61027a61025a36600461375c565b6001600160a01b0390811660009081526020819052604090205416151590565b60405190151581526020015b60405180910390f35b6102a261029d36600461375c565b610805565b60405161028691906137c7565b6102b76109d0565b604051610286919061391d565b6102d76102d236600461375c565b610c15565b6040516102869190613981565b6103136102f236600461375c565b6001600160a01b031660009081526020819052604090206002015460ff1690565b6040516102869190613a69565b61033361032e36600461375c565b610eaa565b6040516102869190613a7d565b61024a61034e366004613c14565b6110f8565b61024a610361366004613ca0565b61124f565b61024a610374366004613cf3565b6114f3565b6102a261038736600461375c565b6115f7565b61039f61039a366004613cf3565b6117ba565b6040516102869a99989796959493929190613d0c565b6103c86103c336600461375c565b6118a9565b60405161028693929190613d82565b6103336103e536600461375c565b611a57565b6103fd6103f836600461375c565b611cfd565b6040516102869190613dbf565b610446610418366004613e26565b6006602090815260009283526040909220815180830184018051928152908401929093019190912091525481565b604051908152602001610286565b61024a610462366004613e73565b611eaf565b610446600a5481565b61048361047e36600461375c565b6120d3565b6040516102869190613ea7565b610446600b5481565b61044660095481565b61024a6104b0366004613eba565b612182565b6104c86104c3366004613cf3565b6122e8565b60405161028699989796959493929190613edc565b6105206104eb366004613cf3565b60026020819052600091825260409091208054600182015491909201546001600160a01b03811690600160a01b900460ff1684565b604051610286949392919093845260208401929092526001600160a01b031660408301521515606082015260800190565b61024a61055f366004613cf3565b6123cf565b61057761057236600461375c565b6124d3565b6040516102869493929190613f4a565b61059a610595366004613cf3565b61261f565b6040516102869c9b9a99989796959493929190613f98565b61024a6105c0366004613cf3565b61271b565b61024a6105d3366004613e73565b612823565b6102b76105e636600461375c565b612ae6565b6104836105f936600461400d565b612d38565b610446600c5481565b61061a610615366004613cf3565b612df1565b6040516102869190614037565b61048361063536600461400d565b612f8b565b610446610648366004613e26565b6005602090815260009283526040909220815180830184018051928152908401929093019190912091525481565b61024a61068436600461404a565b612fa7565b61024a61069736600461408e565b613125565b61024a6106aa3660046140d2565b6132b1565b600133600090815260208190526040902060029081015460ff16908111156106d9576106d961383f565b146106ff5760405162461bcd60e51b81526004016106f690614107565b60405180910390fd5b600082815260026020819052604090912090810154600160a01b900460ff161561076b5760405162461bcd60e51b815260206004820152601860248201527f556e697420697320616c72656164792061737369676e6564000000000000000060448201526064016106f6565b6001600160a01b038216600090815260208190526040902060029081015460ff168181111561079c5761079c61383f565b146107dc5760405162461bcd60e51b815260206004820152601060248201526f24b73b30b634b210383937bb34b232b960811b60448201526064016106f6565b60020180546001600160a81b0319166001600160a01b0390921691909117600160a01b17905550565b6001600160a01b038116600090815260086020526040812054606091816001600160401b0381111561083957610839613b72565b60405190808252806020026020018201604052801561087f57816020015b6040805180820190915260608152600060208201528152602001906001900390816108575790505b50905060005b828110156109c8576001600160a01b03851660009081526008602052604081208054839081106108b7576108b7614150565b9060005260206000200180546108cc90614166565b80601f01602080910402602001604051908101604052809291908181526020018280546108f890614166565b80156109455780601f1061091a57610100808354040283529160200191610945565b820191906000526020600020905b81548152906001019060200180831161092857829003601f168201915b50505050509050604051806040016040528082815260200160066000896001600160a01b03166001600160a01b031681526020019081526020016000208360405161099091906141a0565b9081526020016040518091039020548152508383815181106109b4576109b4614150565b602090810291909101015250600101610885565b509392505050565b6060600060645b600b54811015610a105760008181526003602052604090206007015460ff16610a085781610a04816141d2565b9250505b6001016109d7565b506000816001600160401b03811115610a2b57610a2b613b72565b604051908082528060200260200182016040528015610a6457816020015b610a51613645565b815260200190600190039081610a495790505b509050600060645b600b54811015610c0c5760008181526003602052604090206007015460ff16610c04576000818152600360208181526040928390208351610140810185528154815260018201546001600160a01b03908116938201939093526002820154909216938201939093529082015460608201526004820154608082015260058201805491929160a084019190610aff90614166565b80601f0160208091040260200160405190810160405280929190818152602001828054610b2b90614166565b8015610b785780601f10610b4d57610100808354040283529160200191610b78565b820191906000526020600020905b815481529060010190602001808311610b5b57829003601f168201915b505050918352505060068201546020820152600782015460ff80821615156040840152606090920191610100909104166004811115610bb957610bb961383f565b6004811115610bca57610bca61383f565b8152602001600882015481525050838381518110610bea57610bea614150565b60200260200101819052508180610c00906141d2565b9250505b600101610a6c565b50909392505050565b6060600060645b600c54811015610c60576000818152600460205260409020600101546001600160a01b03808616911603610c585781610c54816141d2565b9250505b600101610c1c565b506000816001600160401b03811115610c7b57610c7b613b72565b604051908082528060200260200182016040528015610cf857816020015b610ce5604080516101208101825260008082526020820181905291810182905260608082018390526080820183905260a082015260c0810182905260e081018290529061010082015290565b815260200190600190039081610c995790505b509050600060645b600c54811015610ea0576000818152600460205260409020600101546001600160a01b03808816911603610e98576000818152600460208181526040928390208351610120810185528154815260018201546001600160a01b03908116938201939093526002820154909216938201939093526003830154606082015290820154608082015260058201805491929160a084019190610d9e90614166565b80601f0160208091040260200160405190810160405280929190818152602001828054610dca90614166565b8015610e175780601f10610dec57610100808354040283529160200191610e17565b820191906000526020600020905b815481529060010190602001808311610dfa57829003601f168201915b5050509183525050600682015460ff90811615156020830152600783015460408301526008830154606090920191166004811115610e5757610e5761383f565b6004811115610e6857610e6861383f565b81525050838381518110610e7e57610e7e614150565b60200260200101819052508180610e94906141d2565b9250505b600101610d00565b5090949350505050565b6060600060645b600954811015610ef657600081815260016020819052604090912001546001600160a01b03808616911603610eee5781610eea816141d2565b9250505b600101610eb1565b506000816001600160401b03811115610f1157610f11613b72565b604051908082528060200260200182016040528015610f4a57816020015b610f37613698565b815260200190600190039081610f2f5790505b509050600060645b600954811015610ea057600081815260016020819052604090912001546001600160a01b038088169116036110f05760008181526001602081815260409283902083516101808101855281548152928101546001600160a01b0316918301919091526002810180549293919291840191610fcb90614166565b80601f0160208091040260200160405190810160405280929190818152602001828054610ff790614166565b80156110445780601f1061101957610100808354040283529160200191611044565b820191906000526020600020905b81548152906001019060200180831161102757829003601f168201915b5050509183525050600382015460ff80821615156020840152610100808304821615156040850152620100009092046001600160a01b0316606084015260048401546080840152600584015416151560a0830152600683015460c0830152600783015460e08301526008830154908201526009909101546101209091015283518490849081106110d6576110d6614150565b602002602001018190525081806110ec906141d2565b9250505b600101610f52565b6001600160a01b0384166111405760405162461bcd60e51b815260206004820152600f60248201526e496e76616c6964206164647265737360881b60448201526064016106f6565b6040518060800160405280856001600160a01b031681526020018481526020018360028111156111725761117261383f565b815260209081018390526001600160a01b03868116600090815280835260409020835181546001600160a01b03191692169190911781559082015160018201906111bc908261423b565b5060408201518160020160006101000a81548160ff021916908360028111156111e7576111e761383f565b021790555060608201516003820190611200908261423b565b50905050836001600160a01b03167f3a403922431a43cbc3d929f1b03869ffadab7bce01402822980e72e6ea8e9d91848484604051611241939291906142fa565b60405180910390a250505050565b33600090815260208190526040812060029081015460ff16908111156112775761127761383f565b146112945760405162461bcd60e51b81526004016106f690614336565b60098054600091826112a5836141d2565b9190505590504283116113045760405162461bcd60e51b815260206004820152602160248201527f4578706972792064617465206d75737420626520696e207468652066757475726044820152606560f81b60648201526084016106f6565b6000821161135f5760405162461bcd60e51b815260206004820152602260248201527f5175616e74697479206d7573742062652067726561746572207468616e207a65604482015261726f60f01b60648201526084016106f6565b60408051610180810182528281523360208083019182528284018981526000606085018190526080850181905260a0850181905260c085018a905260e08501819052426101008601526101208501899052610140850188905261016085018190528681526001928390529490942083518155915190820180546001600160a01b0319166001600160a01b0390921691909117905591519091906002820190611407908261423b565b506060820151600382018054608085015160a086015161ffff1990921693151561ff0019169390931761010093151584021762010000600160b01b031916620100006001600160a01b039092169190910217905560c0830151600483015560e083015160058301805460ff191691151591909117905582015160068201556101208201516007820155610140820151600882015561016090910151600990910155604051339082907fbee34f0ca0c0edfc2bd967468f81e100292d859329be491cc44c4ec390c65fac906114e4908990899042908a908a90614380565b60405180910390a35050505050565b33600090815260208190526040812060029081015460ff169081111561151b5761151b61383f565b146115385760405162461bcd60e51b81526004016106f690614336565b6000818152600160208190526040909120908101546001600160a01b031633146115b65760405162461bcd60e51b815260206004820152602960248201527f4f6e6c7920746865206d616e7566616374757265722063616e20617070726f7660448201526865207175616c69747960b81b60648201526084016106f6565b60038101805461ffff19166001179055604051339083907f08d6065569e454b48393f44317518d1282971813504b4d323942afba2f7a2c5d90600090a35050565b6001600160a01b038116600090815260076020526040812054606091816001600160401b0381111561162b5761162b613b72565b60405190808252806020026020018201604052801561167157816020015b6040805180820190915260608152600060208201528152602001906001900390816116495790505b50905060005b828110156109c8576001600160a01b03851660009081526007602052604081208054839081106116a9576116a9614150565b9060005260206000200180546116be90614166565b80601f01602080910402602001604051908101604052809291908181526020018280546116ea90614166565b80156117375780601f1061170c57610100808354040283529160200191611737565b820191906000526020600020905b81548152906001019060200180831161171a57829003601f168201915b50505050509050604051806040016040528082815260200160056000896001600160a01b03166001600160a01b031681526020019081526020016000208360405161178291906141a0565b9081526020016040518091039020548152508383815181106117a6576117a6614150565b602090810291909101015250600101611677565b600360208190526000918252604090912080546001820154600283015493830154600484015460058501805494966001600160a01b03948516969416949293919261180490614166565b80601f016020809104026020016040519081016040528092919081815260200182805461183090614166565b801561187d5780601f106118525761010080835404028352916020019161187d565b820191906000526020600020905b81548152906001019060200180831161186057829003601f168201915b505050600684015460078501546008909501549394909360ff808316945061010090920490911691508a565b6001600160a01b0380821660009081526020818152604080832081516080810190925280549094168152600184018054606095869594859493919290840191906118f290614166565b80601f016020809104026020016040519081016040528092919081815260200182805461191e90614166565b801561196b5780601f106119405761010080835404028352916020019161196b565b820191906000526020600020905b81548152906001019060200180831161194e57829003601f168201915b505050918352505060028281015460209092019160ff16908111156119925761199261383f565b60028111156119a3576119a361383f565b81526020016003820180546119b790614166565b80601f01602080910402602001604051908101604052809291908181526020018280546119e390614166565b8015611a305780601f10611a0557610100808354040283529160200191611a30565b820191906000526020600020905b815481529060010190602001808311611a1357829003601f168201915b50505091909252505050602081015160608201516040909201519097919650945092505050565b6060600060645b600954811015611acf57600081815260016020819052604090912001546001600160a01b038581169116148015611ab457506000818152600160205260409020600301546201000090046001600160a01b031615155b15611ac75781611ac3816141d2565b9250505b600101611a5e565b506000816001600160401b03811115611aea57611aea613b72565b604051908082528060200260200182016040528015611b2357816020015b611b10613698565b815260200190600190039081611b085790505b509050600060645b600954811015610ea057600081815260016020819052604090912001546001600160a01b038781169116148015611b8157506000818152600160205260409020600301546201000090046001600160a01b031615155b15611cf55760008181526001602081815260409283902083516101808101855281548152928101546001600160a01b0316918301919091526002810180549293919291840191611bd090614166565b80601f0160208091040260200160405190810160405280929190818152602001828054611bfc90614166565b8015611c495780601f10611c1e57610100808354040283529160200191611c49565b820191906000526020600020905b815481529060010190602001808311611c2c57829003601f168201915b5050509183525050600382015460ff80821615156020840152610100808304821615156040850152620100009092046001600160a01b0316606084015260048401546080840152600584015416151560a0830152600683015460c0830152600783015460e0830152600883015490820152600990910154610120909101528351849084908110611cdb57611cdb614150565b60200260200101819052508180611cf1906141d2565b9250505b600101611b2b565b60408051608081018252600080825260606020830181905292820152818101919091526001600160a01b03808316600090815260208181526040918290208251608081019093528054909316825260018301805492939291840191611d6190614166565b80601f0160208091040260200160405190810160405280929190818152602001828054611d8d90614166565b8015611dda5780601f10611daf57610100808354040283529160200191611dda565b820191906000526020600020905b815481529060010190602001808311611dbd57829003601f168201915b505050918352505060028281015460209092019160ff1690811115611e0157611e0161383f565b6002811115611e1257611e1261383f565b8152602001600382018054611e2690614166565b80601f0160208091040260200160405190810160405280929190818152602001828054611e5290614166565b8015611e9f5780601f10611e7457610100808354040283529160200191611e9f565b820191906000526020600020905b815481529060010190602001808311611e8257829003601f168201915b5050505050815250509050919050565b600133600090815260208190526040902060029081015460ff1690811115611ed957611ed961383f565b14611ef65760405162461bcd60e51b81526004016106f690614107565b600082815260036020526040902060018101546001600160a01b03163314611f795760405162461bcd60e51b815260206004820152603060248201527f4f6e6c7920746865206469737472696275746f722063616e207570646174652060448201526f746865206f726465722073746174757360801b60648201526084016106f6565b60078101805483919061ff001916610100836004811115611f9c57611f9c61383f565b02179055506003826004811115611fb557611fb561383f565b036120ce576006810154336000908152600560208190526040918290209151611fe09185019061442a565b90815260200160405180910390206000828254611ffd9190614436565b9250508190555061209c3382600501805461201790614166565b80601f016020809104026020016040519081016040528092919081815260200182805461204390614166565b80156120905780601f1061206557610100808354040283529160200191612090565b820191906000526020600020905b81548152906001019060200180831161207357829003601f168201915b5050505050600161359a565b6120ce57336000908152600760209081526040822080546001810182559083529120016120cc6005830182614449565b505b505050565b6001600160a01b03811660009081526020819052604090206001018054606091906120fd90614166565b80601f016020809104026020016040519081016040528092919081815260200182805461212990614166565b80156121765780601f1061214b57610100808354040283529160200191612176565b820191906000526020600020905b81548152906001019060200180831161215957829003601f168201915b50505050509050919050565b600133600090815260208190526040902060029081015460ff16908111156121ac576121ac61383f565b146121c95760405162461bcd60e51b81526004016106f690614107565b600082815260046020526040902060028101546001600160a01b031633146122425760405162461bcd60e51b815260206004820152602660248201527f4f6e6c7920746865206469737472696275746f722063616e2061737369676e2060448201526518481d5b9a5d60d21b60648201526084016106f6565b600082815260026020819052604090912090810154600160a01b900460ff168015612279575060028101546001600160a01b031615155b6122b45760405162461bcd60e51b815260206004820152600c60248201526b125b9d985b1a59081d5b9a5d60a21b60448201526064016106f6565b6004820192909255600681018054600160ff1991821681179092559281015460078301556008909101805490921617905550565b600460208190526000918252604090912080546001820154600283015460038401549484015460058501805494966001600160a01b0394851696939094169491929161233390614166565b80601f016020809104026020016040519081016040528092919081815260200182805461235f90614166565b80156123ac5780601f10612381576101008083540402835291602001916123ac565b820191906000526020600020905b81548152906001019060200180831161238f57829003601f168201915b5050505060068301546007840154600890940154929360ff918216939092501689565b33600090815260208190526040812060029081015460ff16908111156123f7576123f761383f565b146124145760405162461bcd60e51b81526004016106f690614336565b6000818152600160208190526040909120908101546001600160a01b031633146124935760405162461bcd60e51b815260206004820152602a60248201527f4f6e6c7920746865206d616e7566616374757265722063616e20726563616c6c604482015269040e8d0ca40c4c2e8c6d60b31b60648201526084016106f6565b60058101805460ff19166001179055604051339083907f5a41088291f050dab11b8aeaaeaa8fd33f2225751a5d64008f812e0362ef472590600090a35050565b600060208190529081526040902080546001820180546001600160a01b0390921692916124ff90614166565b80601f016020809104026020016040519081016040528092919081815260200182805461252b90614166565b80156125785780601f1061254d57610100808354040283529160200191612578565b820191906000526020600020905b81548152906001019060200180831161255b57829003601f168201915b5050506002840154600385018054949560ff90921694919350915061259c90614166565b80601f01602080910402602001604051908101604052809291908181526020018280546125c890614166565b80156126155780601f106125ea57610100808354040283529160200191612615565b820191906000526020600020905b8154815290600101906020018083116125f857829003601f168201915b5050505050905084565b60016020819052600091825260409091208054918101546002820180546001600160a01b03909216929161265290614166565b80601f016020809104026020016040519081016040528092919081815260200182805461267e90614166565b80156126cb5780601f106126a0576101008083540402835291602001916126cb565b820191906000526020600020905b8154815290600101906020018083116126ae57829003601f168201915b50505050600383015460048401546005850154600686015460078701546008880154600990980154969760ff80871698610100880482169850620100009097046001600160a01b0316969416938c565b33600090815260208190526040812060029081015460ff16908111156127435761274361383f565b146127605760405162461bcd60e51b81526004016106f690614336565b6000818152600160208190526040909120908101546001600160a01b031633146127e15760405162461bcd60e51b815260206004820152602c60248201527f4f6e6c7920746865206d616e7566616374757265722063616e2064697361707060448201526b726f7665207175616c69747960a01b60648201526084016106f6565b60038101805461ffff1916610100179055604051339083907fc8c94276e66e72c265ff6c7a450b182f9910586a93051227e6024c1fbceaa88e90600090a35050565b33600090815260208190526040902060029081015460ff168181111561284b5761284b61383f565b146128685760405162461bcd60e51b81526004016106f69061451b565b600082815260046020526040902060018101546001600160a01b031633146128e85760405162461bcd60e51b815260206004820152602d60248201527f4f6e6c79207468652070726f76696465722063616e207570646174652074686560448201526c206f726465722073746174757360981b60648201526084016106f6565b60088101805483919060ff191660018360048111156129095761290961383f565b021790555060038260048111156129225761292261383f565b036120ce5760048101546000908152600260208181526040808420858401546001600160a01b03168552600583528185206001808301548752938490529482902091519094929361297492019061442a565b908152602001604051809103902060008282546129919190614561565b90915550503360009081526006602090815260408083206001858101548552928390529281902090519192916129ca916002019061442a565b908152602001604051809103902060008282546129e79190614436565b92505081905550612a9c3360016000846001015481526020019081526020016000206002018054612a1790614166565b80601f0160208091040260200160405190810160405280929190818152602001828054612a4390614166565b8015612a905780601f10612a6557610100808354040283529160200191612a90565b820191906000526020600020905b815481529060010190602001808311612a7357829003601f168201915b5050505050600061359a565b6120cc573360009081526008602090815260408083206001858101548552808452918420815492830182559084529190922090910190612adf9060020182614449565b5050505050565b6060600060645b600b54811015612b31576000818152600360205260409020600101546001600160a01b03808616911603612b295781612b25816141d2565b9250505b600101612aed565b506000816001600160401b03811115612b4c57612b4c613b72565b604051908082528060200260200182016040528015612b8557816020015b612b72613645565b815260200190600190039081612b6a5790505b509050600060645b600b54811015610ea0576000818152600360205260409020600101546001600160a01b03808816911603612d30576000818152600360208181526040928390208351610140810185528154815260018201546001600160a01b03908116938201939093526002820154909216938201939093529082015460608201526004820154608082015260058201805491929160a084019190612c2b90614166565b80601f0160208091040260200160405190810160405280929190818152602001828054612c5790614166565b8015612ca45780601f10612c7957610100808354040283529160200191612ca4565b820191906000526020600020905b815481529060010190602001808311612c8757829003601f168201915b505050918352505060068201546020820152600782015460ff80821615156040840152606090920191610100909104166004811115612ce557612ce561383f565b6004811115612cf657612cf661383f565b8152602001600882015481525050838381518110612d1657612d16614150565b60200260200101819052508180612d2c906141d2565b9250505b600101612b8d565b60086020528160005260406000208181548110612d5457600080fd5b90600052602060002001600091509150508054612d7090614166565b80601f0160208091040260200160405190810160405280929190818152602001828054612d9c90614166565b8015612de95780601f10612dbe57610100808354040283529160200191612de9565b820191906000526020600020905b815481529060010190602001808311612dcc57829003601f168201915b505050505081565b612df9613645565b60008281526003602052604081208054909103612e4f5760405162461bcd60e51b815260206004820152601460248201527313dc99195c88191bd95cc81b9bdd08195e1a5cdd60621b60448201526064016106f6565b60408051610140810182528254815260018301546001600160a01b039081166020830152600284015416918101919091526003820154606082015260048201546080820152600582018054839160a0840191612eaa90614166565b80601f0160208091040260200160405190810160405280929190818152602001828054612ed690614166565b8015612f235780601f10612ef857610100808354040283529160200191612f23565b820191906000526020600020905b815481529060010190602001808311612f0657829003601f168201915b505050918352505060068201546020820152600782015460ff80821615156040840152606090920191610100909104166004811115612f6457612f6461383f565b6004811115612f7557612f7561383f565b8152602001600882015481525050915050919050565b60076020528160005260406000208181548110612d5457600080fd5b600133600090815260208190526040902060029081015460ff1690811115612fd157612fd161383f565b14612fee5760405162461bcd60e51b81526004016106f690614107565b600b805460009182612fff836141d2565b909155506040805161014081018252828152336020808301918252600083850181815242606086019081526080860183815260a087018c815260c088018c905260e0880185905261010088018590526101208801859052898552600395869052979093208651815594516001860180546001600160a01b03199081166001600160a01b03938416179091559251600287018054909416911617909155519183019190915551600482015591519293509160058201906130be908261423b565b5060c0820151600682015560e082015160078201805491151560ff19831681178255610100808601519361ff001990921661ffff19909216919091179083600481111561310d5761310d61383f565b02179055506101208201518160080155905050505050565b33600090815260208190526040902060029081015460ff168181111561314d5761314d61383f565b1461316a5760405162461bcd60e51b81526004016106f69061451b565b600c80546000918261317b836141d2565b919050559050604051806101200160405280828152602001336001600160a01b03168152602001836001600160a01b031681526020014281526020016000815260200184815260200160001515815260200160008152602001600060048111156131e7576131e761383f565b905260008281526004602081815260409283902084518155908401516001820180546001600160a01b03199081166001600160a01b0393841617909155938501516002830180549095169116179092556060830151600383015560808301519082015560a0820151600582019061325e908261423b565b5060c082015160068201805491151560ff1992831617905560e08301516007830155610100830151600883018054919290911660018360048111156132a5576132a561383f565b02179055505050505050565b33600090815260208190526040812060029081015460ff16908111156132d9576132d961383f565b146132f65760405162461bcd60e51b81526004016106f690614336565b60016001600160a01b038316600090815260208190526040902060029081015460ff16908111156133295761332961383f565b1461336c5760405162461bcd60e51b815260206004820152601360248201527224b73b30b634b2103234b9ba3934b13aba37b960691b60448201526064016106f6565b6000838152600160205260409020600381015460ff166133ce5760405162461bcd60e51b815260206004820152601e60248201527f4261746368206d757374206265207175616c69747920617070726f766564000060448201526064016106f6565b60038101546201000090046001600160a01b0316156134285760405162461bcd60e51b815260206004820152601660248201527510985d18da08185b1c9958591e48185cdcda59db995960521b60448201526064016106f6565b60008281526003602052604090206004810154156134945760405162461bcd60e51b8152602060048201526024808201527f4f7264657220697320616c72656164792061737369676e656420746f206120626044820152630c2e8c6d60e31b60648201526084016106f6565b8160080154816006015411156134fa5760405162461bcd60e51b815260206004820152602560248201527f4f72646572207175616e746974792065786365656473206261746368207175616044820152646e7469747960d81b60648201526084016106f6565b6003820180546001600160a01b038616620100000262010000600160b01b03199091161790556009820183905560048101859055600281810180546001600160a01b0319163317905560078201805461ff0019166101008302179055504260088201556040516001600160a01b0385169086907f8e6804b2e7bfb70fb26b5bbf7a87382c43918cd5fd77219d8846c3c4f302ad0a90600090a35050505050565b600080826135bf576001600160a01b03851660009081526008602052604090206135d8565b6001600160a01b03851660009081526007602052604090205b905060005b815481101561363757848051906020012082828154811061360057613600614150565b90600052602060002001604051613617919061442a565b60405180910390200361362f5760019250505061363e565b6001016135dd565b5060009150505b9392505050565b604080516101408101825260008082526020820181905291810182905260608082018390526080820183905260a082015260c0810182905260e08101829052906101008201908152602001600081525090565b6040518061018001604052806000815260200160006001600160a01b031681526020016060815260200160001515815260200160001515815260200160006001600160a01b0316815260200160008019168152602001600015158152602001600081526020016000815260200160008152602001600081525090565b80356001600160a01b038116811461372b57600080fd5b919050565b6000806040838503121561374357600080fd5b8235915061375360208401613714565b90509250929050565b60006020828403121561376e57600080fd5b61363e82613714565b60005b8381101561379257818101518382015260200161377a565b50506000910152565b600081518084526137b3816020860160208601613777565b601f01601f19169290920160200192915050565b600060208083018184528085518083526040925060408601915060408160051b87010184880160005b8381101561383157888303603f19018552815180518785526138148886018261379b565b9189015194890194909452948701949250908601906001016137f0565b509098975050505050505050565b634e487b7160e01b600052602160045260246000fd5b600581106138655761386561383f565b9052565b600061014082518452602083015161388c60208601826001600160a01b03169052565b5060408301516138a760408601826001600160a01b03169052565b50606083015160608501526080830151608085015260a08301518160a08601526138d38286018261379b565b91505060c083015160c085015260e08301516138f360e086018215159052565b506101008084015161390782870182613855565b5050610120928301519390920192909252919050565b600060208083016020845280855180835260408601915060408160051b87010192506020870160005b8281101561397457603f19888603018452613962858351613869565b94509285019290850190600101613946565b5092979650505050505050565b600060208083018184528085518083526040925060408601915060408160051b87010184880160005b8381101561383157603f19898403018552815180518452878101516001600160a01b0390811689860152878201511687850152606080820151908501526080808201519085015260a0808201516101208287018190529190613a0e8388018261379b565b9250505060c080830151613a258288018215159052565b505060e082810151908601526101009182015191613a4581870184613855565b5095880195935050908601906001016139aa565b600381106138655761386561383f565b60208101613a778284613a59565b92915050565b600060208083018184528085518083526040925060408601915060408160051b87010184880160005b8381101561383157603f19898403018552815180518452878101516001600160a01b0316888501528681015161018088860181905290613ae88287018261379b565b915050606080830151613afe8288018215159052565b505060808281015115159086015260a0808301516001600160a01b03169086015260c0808301519086015260e0808301511515908601526101008083015190860152610120808301519086015261014080830151908601526101609182015191909401529386019390860190600101613aa6565b634e487b7160e01b600052604160045260246000fd5b600082601f830112613b9957600080fd5b81356001600160401b0380821115613bb357613bb3613b72565b604051601f8301601f19908116603f01168101908282118183101715613bdb57613bdb613b72565b81604052838152866020858801011115613bf457600080fd5b836020870160208301376000602085830101528094505050505092915050565b60008060008060808587031215613c2a57600080fd5b613c3385613714565b935060208501356001600160401b0380821115613c4f57600080fd5b613c5b88838901613b88565b94506040870135915060038210613c7157600080fd5b90925060608601359080821115613c8757600080fd5b50613c9487828801613b88565b91505092959194509250565b60008060008060808587031215613cb657600080fd5b84356001600160401b03811115613ccc57600080fd5b613cd887828801613b88565b97602087013597506040870135966060013595509350505050565b600060208284031215613d0557600080fd5b5035919050565b8a81526001600160a01b038a8116602083015289166040820152606081018890526080810187905261014060a08201819052600090613d4d8382018961379b565b9150508560c083015284151560e0830152613d6c610100830185613855565b826101208301529b9a5050505050505050505050565b606081526000613d95606083018661379b565b8281036020840152613da7818661379b565b915050613db76040830184613a59565b949350505050565b602080825282516001600160a01b03168282015282015160806040830152600090613ded60a084018261379b565b90506040840151613e016060850182613a59565b506060840151838203601f19016080850152613e1d828261379b565b95945050505050565b60008060408385031215613e3957600080fd5b613e4283613714565b915060208301356001600160401b03811115613e5d57600080fd5b613e6985828601613b88565b9150509250929050565b60008060408385031215613e8657600080fd5b82359150602083013560058110613e9c57600080fd5b809150509250929050565b60208152600061363e602083018461379b565b60008060408385031215613ecd57600080fd5b50508035926020909101359150565b8981526001600160a01b03898116602083015288166040820152606081018790526080810186905261012060a08201819052600090613f1d8382018861379b565b91505084151560c08301528360e0830152613f3c610100830184613855565b9a9950505050505050505050565b6001600160a01b0385168152608060208201819052600090613f6e9083018661379b565b613f7b6040840186613a59565b8281036060840152613f8d818561379b565b979650505050505050565b8c81526001600160a01b038c8116602083015261018060408301819052600091613fc48483018f61379b565b9c151560608501529a1515608084015250509690971660a087015260c086019490945291151560e085015261010084015261012083015261014082015261016001529392505050565b6000806040838503121561402057600080fd5b61402983613714565b946020939093013593505050565b60208152600061363e6020830184613869565b6000806040838503121561405d57600080fd5b82356001600160401b0381111561407357600080fd5b61407f85828601613b88565b95602094909401359450505050565b600080604083850312156140a157600080fd5b82356001600160401b038111156140b757600080fd5b6140c385828601613b88565b92505061375360208401613714565b6000806000606084860312156140e757600080fd5b833592506140f760208501613714565b9150604084013590509250925092565b60208082526029908201527f4f6e6c79206469737472696275746f72732063616e20706572666f726d20746860408201526834b99030b1ba34b7b760b91b606082015260800190565b634e487b7160e01b600052603260045260246000fd5b600181811c9082168061417a57607f821691505b60208210810361419a57634e487b7160e01b600052602260045260246000fd5b50919050565b600082516141b2818460208701613777565b9190910192915050565b634e487b7160e01b600052601160045260246000fd5b6000600182016141e4576141e46141bc565b5060010190565b601f8211156120ce576000816000526020600020601f850160051c810160208610156142145750805b601f850160051c820191505b8181101561423357828155600101614220565b505050505050565b81516001600160401b0381111561425457614254613b72565b614268816142628454614166565b846141eb565b602080601f83116001811461429d57600084156142855750858301515b600019600386901b1c1916600185901b178555614233565b600085815260208120601f198616915b828110156142cc578886015182559484019460019091019084016142ad565b50858210156142ea5787850151600019600388901b60f8161c191681555b5050505050600190811b01905550565b60608152600061430d606083018661379b565b61431a6020840186613a59565b828103604084015261432c818561379b565b9695505050505050565b6020808252602a908201527f4f6e6c79206d616e756661637475726572732063616e20706572666f726d20746040820152693434b99030b1ba34b7b760b11b606082015260800190565b60a08152600061439360a083018861379b565b90508560208301528460408301528360608301528260808301529695505050505050565b600081546143c481614166565b600182811680156143dc57600181146143f157614420565b60ff1984168752821515830287019450614420565b8560005260208060002060005b858110156144175781548a8201529084019082016143fe565b50505082870194505b5050505092915050565b600061363e82846143b7565b80820180821115613a7757613a776141bc565b818103614454575050565b61445e8254614166565b6001600160401b0381111561447557614475613b72565b614483816142628454614166565b6000601f8211600181146144b7576000831561449f5750848201545b600019600385901b1c1916600184901b178455612adf565b600085815260209020601f19841690600086815260209020845b838110156144f157828601548255600195860195909101906020016144d1565b50858310156142ea5793015460001960f8600387901b161c19169092555050600190811b01905550565b60208082526026908201527f4f6e6c792070726f7669646572732063616e20706572666f726d20746869732060408201526530b1ba34b7b760d11b606082015260800190565b81810381811115613a7757613a776141bc56fea264697066735822122064888c3afc9732af125432351172eba67a9cba19f81ec5168b178cf30840151464736f6c63430008180033",
  "linkReferences": {},
  "deployedLinkReferences": {}
}