{
  "_format": "hh-sol-artifact-1",
  "contractName": "PharmaChain",
  "sourceName": "contracts/PharmaChain.sol",
  "abi": [
    {
      "anonymous": false,
      "inputs": [
        {
          "indexed": true,
          "internalType": "uint256",
          "name": "batchId",
          "type": "uint256"
        },
        {
          "indexed": true,
          "internalType": "address",
          "name": "distributor",
          "type": "address"
        }
      ],
      "name": "BatchAssignedToDistributor",
      "type": "event"
    },
    {
      "anonymous": false,
      "inputs": [
        {
          "indexed": true,
          "internalType": "uint256",
          "name": "batchId",
          "type": "uint256"
        },
        {
          "indexed": true,
          "internalType": "address",
          "name": "provider",
          "type": "address"
        }
      ],
      "name": "BatchAssignedToProvider",
      "type": "event"
    },
    {
      "anonymous": false,
      "inputs": [
        {
          "indexed": true,
          "internalType": "uint256",
          "name": "batchId",
          "type": "uint256"
        },
        {
          "indexed": true,
          "internalType": "address",
          "name": "initiator",
          "type": "address"
        }
      ],
      "name": "BatchRecalled",
      "type": "event"
    },
    {
      "anonymous": false,
      "inputs": [
        {
          "indexed": true,
          "internalType": "uint256",
          "name": "batchId",
          "type": "uint256"
        },
        {
          "indexed": true,
          "internalType": "address",
          "name": "disapprover",
          "type": "address"
        }
      ],
      "name": "QualityDisapproved",
      "type": "event"
    },
    {
      "anonymous": false,
      "inputs": [
        {
          "indexed": true,
          "internalType": "uint256",
          "name": "orderId",
          "type": "uint256"
        },
        {
          "indexed": false,
          "internalType": "enum PharmaChain.OrderStatus",
          "name": "status",
          "type": "uint8"
        }
      ],
      "name": "UpdateDistributorOrderStatus",
      "type": "event"
    },
    {
      "inputs": [
        {
          "internalType": "uint256",
          "name": "_batchId",
          "type": "uint256"
        }
      ],
      "name": "approveQuality",
      "outputs": [],
      "stateMutability": "nonpayable",
      "type": "function"
    },
    {
      "inputs": [
        {
          "internalType": "uint256",
          "name": "_batchId",
          "type": "uint256"
        },
        {
          "internalType": "address",
          "name": "_provider",
          "type": "address"
        }
      ],
      "name": "assignBatchToProvider",
      "outputs": [],
      "stateMutability": "nonpayable",
      "type": "function"
    },
    {
      "inputs": [
        {
          "internalType": "uint256",
          "name": "_batchId",
          "type": "uint256"
        },
        {
          "internalType": "address",
          "name": "_distributor",
          "type": "address"
        },
        {
          "internalType": "uint256",
          "name": "_orderId",
          "type": "uint256"
        }
      ],
      "name": "assignToDistributor",
      "outputs": [],
      "stateMutability": "nonpayable",
      "type": "function"
    },
    {
      "inputs": [
        {
          "internalType": "uint256",
          "name": "",
          "type": "uint256"
        }
      ],
      "name": "batches",
      "outputs": [
        {
          "internalType": "uint256",
          "name": "batchId",
          "type": "uint256"
        },
        {
          "internalType": "address",
          "name": "manufacturer",
          "type": "address"
        },
        {
          "internalType": "string",
          "name": "details",
          "type": "string"
        },
        {
          "internalType": "bool",
          "name": "isQualityApproved",
          "type": "bool"
        },
        {
          "internalType": "bool",
          "name": "isQualityDisapproved",
          "type": "bool"
        },
        {
          "internalType": "address",
          "name": "distributor",
          "type": "address"
        },
        {
          "internalType": "bytes32",
          "name": "rfidUIDHash",
          "type": "bytes32"
        },
        {
          "internalType": "bool",
          "name": "isRecalled",
          "type": "bool"
        },
        {
          "internalType": "uint256",
          "name": "manufactureDate",
          "type": "uint256"
        },
        {
          "internalType": "uint256",
          "name": "expiryDate",
          "type": "uint256"
        },
        {
          "internalType": "uint256",
          "name": "quantity",
          "type": "uint256"
        },
        {
          "internalType": "uint256",
          "name": "orderId",
          "type": "uint256"
        }
      ],
      "stateMutability": "view",
      "type": "function"
    },
    {
      "inputs": [
        {
          "internalType": "string",
          "name": "_details",
          "type": "string"
        },
        {
          "internalType": "bytes32",
          "name": "_rfidUIDHash",
          "type": "bytes32"
        },
        {
          "internalType": "uint256",
          "name": "_expiryDate",
          "type": "uint256"
        },
        {
          "internalType": "uint256",
          "name": "_quantity",
          "type": "uint256"
        }
      ],
      "name": "createBatch",
      "outputs": [],
      "stateMutability": "nonpayable",
      "type": "function"
    },
    {
      "inputs": [
        {
          "internalType": "string",
          "name": "_medName",
          "type": "string"
        },
        {
          "internalType": "uint256",
          "name": "_quantity",
          "type": "uint256"
        }
      ],
      "name": "createDistributorOrder",
      "outputs": [],
      "stateMutability": "nonpayable",
      "type": "function"
    },
    {
      "inputs": [
        {
          "internalType": "string",
          "name": "_medName",
          "type": "string"
        },
        {
          "internalType": "uint256",
          "name": "_qunatity",
          "type": "uint256"
        }
      ],
      "name": "createProviderOrder",
      "outputs": [],
      "stateMutability": "nonpayable",
      "type": "function"
    },
    {
      "inputs": [
        {
          "internalType": "uint256",
          "name": "_batchId",
          "type": "uint256"
        }
      ],
      "name": "disapproveQuality",
      "outputs": [],
      "stateMutability": "nonpayable",
      "type": "function"
    },
    {
      "inputs": [
        {
          "internalType": "address",
          "name": "",
          "type": "address"
        },
        {
          "internalType": "uint256",
          "name": "",
          "type": "uint256"
        }
      ],
      "name": "distributorMedNames",
      "outputs": [
        {
          "internalType": "string",
          "name": "",
          "type": "string"
        }
      ],
      "stateMutability": "view",
      "type": "function"
    },
    {
      "inputs": [
        {
          "internalType": "uint256",
          "name": "",
          "type": "uint256"
        }
      ],
      "name": "distributorOrders",
      "outputs": [
        {
          "internalType": "string",
          "name": "medName",
          "type": "string"
        },
        {
          "internalType": "uint256",
          "name": "quantity",
          "type": "uint256"
        },
        {
          "internalType": "uint256",
          "name": "orderId",
          "type": "uint256"
        },
        {
          "internalType": "uint256",
          "name": "batchId",
          "type": "uint256"
        },
        {
          "internalType": "address",
          "name": "distributor",
          "type": "address"
        },
        {
          "internalType": "address",
          "name": "manufacturer",
          "type": "address"
        },
        {
          "internalType": "bool",
          "name": "isAssigned",
          "type": "bool"
        },
        {
          "internalType": "uint256",
          "name": "orderDate",
          "type": "uint256"
        },
        {
          "internalType": "uint256",
          "name": "orderApprovedDate",
          "type": "uint256"
        },
        {
          "internalType": "enum PharmaChain.OrderStatus",
          "name": "status",
          "type": "uint8"
        }
      ],
      "stateMutability": "view",
      "type": "function"
    },
    {
      "inputs": [
        {
          "internalType": "address",
          "name": "",
          "type": "address"
        },
        {
          "internalType": "string",
          "name": "",
          "type": "string"
        }
      ],
      "name": "distributorStocks",
      "outputs": [
        {
          "internalType": "uint256",
          "name": "",
          "type": "uint256"
        }
      ],
      "stateMutability": "view",
      "type": "function"
    },
    {
      "inputs": [
        {
          "internalType": "address",
          "name": "_user",
          "type": "address"
        }
      ],
      "name": "getCompanyNameFromAddress",
      "outputs": [
        {
          "internalType": "string",
          "name": "",
          "type": "string"
        }
      ],
      "stateMutability": "view",
      "type": "function"
    },
    {
      "inputs": [
        {
          "internalType": "address",
          "name": "_manufacturer",
          "type": "address"
        }
      ],
      "name": "getCreatedBatches",
      "outputs": [
        {
          "components": [
            {
              "internalType": "uint256",
              "name": "batchId",
              "type": "uint256"
            },
            {
              "internalType": "address",
              "name": "manufacturer",
              "type": "address"
            },
            {
              "internalType": "string",
              "name": "details",
              "type": "string"
            },
            {
              "internalType": "bool",
              "name": "isQualityApproved",
              "type": "bool"
            },
            {
              "internalType": "bool",
              "name": "isQualityDisapproved",
              "type": "bool"
            },
            {
              "internalType": "address",
              "name": "distributor",
              "type": "address"
            },
            {
              "internalType": "bytes32",
              "name": "rfidUIDHash",
              "type": "bytes32"
            },
            {
              "internalType": "bool",
              "name": "isRecalled",
              "type": "bool"
            },
            {
              "internalType": "uint256",
              "name": "manufactureDate",
              "type": "uint256"
            },
            {
              "internalType": "uint256",
              "name": "expiryDate",
              "type": "uint256"
            },
            {
              "internalType": "uint256",
              "name": "quantity",
              "type": "uint256"
            },
            {
              "internalType": "uint256",
              "name": "orderId",
              "type": "uint256"
            }
          ],
          "internalType": "struct PharmaChain.Batch[]",
          "name": "",
          "type": "tuple[]"
        }
      ],
      "stateMutability": "view",
      "type": "function"
    },
    {
      "inputs": [
        {
          "internalType": "uint256",
          "name": "_orderId",
          "type": "uint256"
        }
      ],
      "name": "getDistributorOrder",
      "outputs": [
        {
          "components": [
            {
              "internalType": "string",
              "name": "medName",
              "type": "string"
            },
            {
              "internalType": "uint256",
              "name": "quantity",
              "type": "uint256"
            },
            {
              "internalType": "uint256",
              "name": "orderId",
              "type": "uint256"
            },
            {
              "internalType": "uint256",
              "name": "batchId",
              "type": "uint256"
            },
            {
              "internalType": "address",
              "name": "distributor",
              "type": "address"
            },
            {
              "internalType": "address",
              "name": "manufacturer",
              "type": "address"
            },
            {
              "internalType": "bool",
              "name": "isAssigned",
              "type": "bool"
            },
            {
              "internalType": "uint256",
              "name": "orderDate",
              "type": "uint256"
            },
            {
              "internalType": "uint256",
              "name": "orderApprovedDate",
              "type": "uint256"
            },
            {
              "internalType": "enum PharmaChain.OrderStatus",
              "name": "status",
              "type": "uint8"
            }
          ],
          "internalType": "struct PharmaChain.DistributorOrder",
          "name": "",
          "type": "tuple"
        }
      ],
      "stateMutability": "view",
      "type": "function"
    },
    {
      "inputs": [
        {
          "internalType": "bytes32",
          "name": "_rfidUIDHash",
          "type": "bytes32"
        }
      ],
      "name": "getDistributorOrderByRFID",
      "outputs": [
        {
          "internalType": "uint256",
          "name": "",
          "type": "uint256"
        }
      ],
      "stateMutability": "view",
      "type": "function"
    },
    {
      "inputs": [
        {
          "internalType": "address",
          "name": "_distributor",
          "type": "address"
        }
      ],
      "name": "getDistributorOrders",
      "outputs": [
        {
          "components": [
            {
              "internalType": "string",
              "name": "medName",
              "type": "string"
            },
            {
              "internalType": "uint256",
              "name": "quantity",
              "type": "uint256"
            },
            {
              "internalType": "uint256",
              "name": "orderId",
              "type": "uint256"
            },
            {
              "internalType": "uint256",
              "name": "batchId",
              "type": "uint256"
            },
            {
              "internalType": "address",
              "name": "distributor",
              "type": "address"
            },
            {
              "internalType": "address",
              "name": "manufacturer",
              "type": "address"
            },
            {
              "internalType": "bool",
              "name": "isAssigned",
              "type": "bool"
            },
            {
              "internalType": "uint256",
              "name": "orderDate",
              "type": "uint256"
            },
            {
              "internalType": "uint256",
              "name": "orderApprovedDate",
              "type": "uint256"
            },
            {
              "internalType": "enum PharmaChain.OrderStatus",
              "name": "status",
              "type": "uint8"
            }
          ],
          "internalType": "struct PharmaChain.DistributorOrder[]",
          "name": "",
          "type": "tuple[]"
        }
      ],
      "stateMutability": "view",
      "type": "function"
    },
    {
      "inputs": [
        {
          "internalType": "address",
          "name": "_distributor",
          "type": "address"
        }
      ],
      "name": "getDistributorStock",
      "outputs": [
        {
          "components": [
            {
              "internalType": "string",
              "name": "medName",
              "type": "string"
            },
            {
              "internalType": "uint256",
              "name": "quantity",
              "type": "uint256"
            }
          ],
          "internalType": "struct PharmaChain.StockItem[]",
          "name": "",
          "type": "tuple[]"
        }
      ],
      "stateMutability": "view",
      "type": "function"
    },
    {
      "inputs": [
        {
          "internalType": "address",
          "name": "_manufacturer",
          "type": "address"
        }
      ],
      "name": "getFulfilledBatches",
      "outputs": [
        {
          "components": [
            {
              "internalType": "uint256",
              "name": "batchId",
              "type": "uint256"
            },
            {
              "internalType": "address",
              "name": "manufacturer",
              "type": "address"
            },
            {
              "internalType": "string",
              "name": "details",
              "type": "string"
            },
            {
              "internalType": "bool",
              "name": "isQualityApproved",
              "type": "bool"
            },
            {
              "internalType": "bool",
              "name": "isQualityDisapproved",
              "type": "bool"
            },
            {
              "internalType": "address",
              "name": "distributor",
              "type": "address"
            },
            {
              "internalType": "bytes32",
              "name": "rfidUIDHash",
              "type": "bytes32"
            },
            {
              "internalType": "bool",
              "name": "isRecalled",
              "type": "bool"
            },
            {
              "internalType": "uint256",
              "name": "manufactureDate",
              "type": "uint256"
            },
            {
              "internalType": "uint256",
              "name": "expiryDate",
              "type": "uint256"
            },
            {
              "internalType": "uint256",
              "name": "quantity",
              "type": "uint256"
            },
            {
              "internalType": "uint256",
              "name": "orderId",
              "type": "uint256"
            }
          ],
          "internalType": "struct PharmaChain.Batch[]",
          "name": "",
          "type": "tuple[]"
        }
      ],
      "stateMutability": "view",
      "type": "function"
    },
    {
      "inputs": [
        {
          "internalType": "address",
          "name": "_distributor",
          "type": "address"
        }
      ],
      "name": "getFulfilledDistributorOrders",
      "outputs": [
        {
          "components": [
            {
              "internalType": "string",
              "name": "medName",
              "type": "string"
            },
            {
              "internalType": "uint256",
              "name": "quantity",
              "type": "uint256"
            },
            {
              "internalType": "uint256",
              "name": "orderId",
              "type": "uint256"
            },
            {
              "internalType": "uint256",
              "name": "batchId",
              "type": "uint256"
            },
            {
              "internalType": "address",
              "name": "distributor",
              "type": "address"
            },
            {
              "internalType": "address",
              "name": "manufacturer",
              "type": "address"
            },
            {
              "internalType": "bool",
              "name": "isAssigned",
              "type": "bool"
            },
            {
              "internalType": "uint256",
              "name": "orderDate",
              "type": "uint256"
            },
            {
              "internalType": "uint256",
              "name": "orderApprovedDate",
              "type": "uint256"
            },
            {
              "internalType": "enum PharmaChain.OrderStatus",
              "name": "status",
              "type": "uint8"
            }
          ],
          "internalType": "struct PharmaChain.DistributorOrder[]",
          "name": "",
          "type": "tuple[]"
        }
      ],
      "stateMutability": "view",
      "type": "function"
    },
    {
      "inputs": [
        {
          "internalType": "address",
          "name": "_provider",
          "type": "address"
        }
      ],
      "name": "getFulfilledProviderOrders",
      "outputs": [
        {
          "components": [
            {
              "internalType": "string",
              "name": "medName",
              "type": "string"
            },
            {
              "internalType": "uint256",
              "name": "quantity",
              "type": "uint256"
            },
            {
              "internalType": "uint256",
              "name": "orderId",
              "type": "uint256"
            },
            {
              "internalType": "uint256",
              "name": "batchId",
              "type": "uint256"
            },
            {
              "internalType": "address",
              "name": "provider",
              "type": "address"
            },
            {
              "internalType": "address",
              "name": "distributor",
              "type": "address"
            },
            {
              "internalType": "bool",
              "name": "isAssigned",
              "type": "bool"
            },
            {
              "internalType": "uint256",
              "name": "orderDate",
              "type": "uint256"
            },
            {
              "internalType": "uint256",
              "name": "orderApprovedDate",
              "type": "uint256"
            },
            {
              "internalType": "enum PharmaChain.OrderStatus",
              "name": "status",
              "type": "uint8"
            }
          ],
          "internalType": "struct PharmaChain.ProviderOrder[]",
          "name": "",
          "type": "tuple[]"
        }
      ],
      "stateMutability": "view",
      "type": "function"
    },
    {
      "inputs": [],
      "name": "getPendingDistributorOrders",
      "outputs": [
        {
          "components": [
            {
              "internalType": "string",
              "name": "medName",
              "type": "string"
            },
            {
              "internalType": "uint256",
              "name": "quantity",
              "type": "uint256"
            },
            {
              "internalType": "uint256",
              "name": "orderId",
              "type": "uint256"
            },
            {
              "internalType": "uint256",
              "name": "batchId",
              "type": "uint256"
            },
            {
              "internalType": "address",
              "name": "distributor",
              "type": "address"
            },
            {
              "internalType": "address",
              "name": "manufacturer",
              "type": "address"
            },
            {
              "internalType": "bool",
              "name": "isAssigned",
              "type": "bool"
            },
            {
              "internalType": "uint256",
              "name": "orderDate",
              "type": "uint256"
            },
            {
              "internalType": "uint256",
              "name": "orderApprovedDate",
              "type": "uint256"
            },
            {
              "internalType": "enum PharmaChain.OrderStatus",
              "name": "status",
              "type": "uint8"
            }
          ],
          "internalType": "struct PharmaChain.DistributorOrder[]",
          "name": "",
          "type": "tuple[]"
        }
      ],
      "stateMutability": "view",
      "type": "function"
    },
    {
      "inputs": [],
      "name": "getPendingProviderOrders",
      "outputs": [
        {
          "components": [
            {
              "internalType": "string",
              "name": "medName",
              "type": "string"
            },
            {
              "internalType": "uint256",
              "name": "quantity",
              "type": "uint256"
            },
            {
              "internalType": "uint256",
              "name": "orderId",
              "type": "uint256"
            },
            {
              "internalType": "uint256",
              "name": "batchId",
              "type": "uint256"
            },
            {
              "internalType": "address",
              "name": "provider",
              "type": "address"
            },
            {
              "internalType": "address",
              "name": "distributor",
              "type": "address"
            },
            {
              "internalType": "bool",
              "name": "isAssigned",
              "type": "bool"
            },
            {
              "internalType": "uint256",
              "name": "orderDate",
              "type": "uint256"
            },
            {
              "internalType": "uint256",
              "name": "orderApprovedDate",
              "type": "uint256"
            },
            {
              "internalType": "enum PharmaChain.OrderStatus",
              "name": "status",
              "type": "uint8"
            }
          ],
          "internalType": "struct PharmaChain.ProviderOrder[]",
          "name": "",
          "type": "tuple[]"
        }
      ],
      "stateMutability": "view",
      "type": "function"
    },
    {
      "inputs": [
        {
          "internalType": "bytes32",
          "name": "_rfidUIDHash",
          "type": "bytes32"
        }
      ],
      "name": "getProviderOrderByRFID",
      "outputs": [
        {
          "internalType": "uint256",
          "name": "",
          "type": "uint256"
        }
      ],
      "stateMutability": "view",
      "type": "function"
    },
    {
      "inputs": [
        {
          "internalType": "uint256",
          "name": "_orderId",
          "type": "uint256"
        }
      ],
      "name": "getProviderOrderDetails",
      "outputs": [
        {
          "components": [
            {
              "internalType": "string",
              "name": "medName",
              "type": "string"
            },
            {
              "internalType": "uint256",
              "name": "quantity",
              "type": "uint256"
            },
            {
              "internalType": "uint256",
              "name": "orderId",
              "type": "uint256"
            },
            {
              "internalType": "uint256",
              "name": "batchId",
              "type": "uint256"
            },
            {
              "internalType": "address",
              "name": "provider",
              "type": "address"
            },
            {
              "internalType": "address",
              "name": "distributor",
              "type": "address"
            },
            {
              "internalType": "bool",
              "name": "isAssigned",
              "type": "bool"
            },
            {
              "internalType": "uint256",
              "name": "orderDate",
              "type": "uint256"
            },
            {
              "internalType": "uint256",
              "name": "orderApprovedDate",
              "type": "uint256"
            },
            {
              "internalType": "enum PharmaChain.OrderStatus",
              "name": "status",
              "type": "uint8"
            }
          ],
          "internalType": "struct PharmaChain.ProviderOrder",
          "name": "",
          "type": "tuple"
        }
      ],
      "stateMutability": "view",
      "type": "function"
    },
    {
      "inputs": [
        {
          "internalType": "address",
          "name": "_provider",
          "type": "address"
        }
      ],
      "name": "getProviderOrders",
      "outputs": [
        {
          "components": [
            {
              "internalType": "string",
              "name": "medName",
              "type": "string"
            },
            {
              "internalType": "uint256",
              "name": "quantity",
              "type": "uint256"
            },
            {
              "internalType": "uint256",
              "name": "orderId",
              "type": "uint256"
            },
            {
              "internalType": "uint256",
              "name": "batchId",
              "type": "uint256"
            },
            {
              "internalType": "address",
              "name": "provider",
              "type": "address"
            },
            {
              "internalType": "address",
              "name": "distributor",
              "type": "address"
            },
            {
              "internalType": "bool",
              "name": "isAssigned",
              "type": "bool"
            },
            {
              "internalType": "uint256",
              "name": "orderDate",
              "type": "uint256"
            },
            {
              "internalType": "uint256",
              "name": "orderApprovedDate",
              "type": "uint256"
            },
            {
              "internalType": "enum PharmaChain.OrderStatus",
              "name": "status",
              "type": "uint8"
            }
          ],
          "internalType": "struct PharmaChain.ProviderOrder[]",
          "name": "",
          "type": "tuple[]"
        }
      ],
      "stateMutability": "view",
      "type": "function"
    },
    {
      "inputs": [
        {
          "internalType": "address",
          "name": "_provider",
          "type": "address"
        }
      ],
      "name": "getProviderStock",
      "outputs": [
        {
          "components": [
            {
              "internalType": "string",
              "name": "medName",
              "type": "string"
            },
            {
              "internalType": "uint256",
              "name": "quantity",
              "type": "uint256"
            }
          ],
          "internalType": "struct PharmaChain.StockItem[]",
          "name": "",
          "type": "tuple[]"
        }
      ],
      "stateMutability": "view",
      "type": "function"
    },
    {
      "inputs": [
        {
          "internalType": "address",
          "name": "_user",
          "type": "address"
        }
      ],
      "name": "getUserByAddress",
      "outputs": [
        {
          "components": [
            {
              "internalType": "address",
              "name": "account",
              "type": "address"
            },
            {
              "internalType": "string",
              "name": "companyName",
              "type": "string"
            },
            {
              "internalType": "enum PharmaChain.Role",
              "name": "role",
              "type": "uint8"
            },
            {
              "internalType": "string",
              "name": "contactInfo",
              "type": "string"
            }
          ],
          "internalType": "struct PharmaChain.User",
          "name": "",
          "type": "tuple"
        }
      ],
      "stateMutability": "view",
      "type": "function"
    },
    {
      "inputs": [
        {
          "internalType": "address",
          "name": "_user",
          "type": "address"
        }
      ],
      "name": "getUserInfo",
      "outputs": [
        {
          "internalType": "string",
          "name": "companyName",
          "type": "string"
        },
        {
          "internalType": "string",
          "name": "contactInfo",
          "type": "string"
        },
        {
          "internalType": "enum PharmaChain.Role",
          "name": "role",
          "type": "uint8"
        }
      ],
      "stateMutability": "view",
      "type": "function"
    },
    {
      "inputs": [
        {
          "internalType": "address",
          "name": "_user",
          "type": "address"
        }
      ],
      "name": "getUserRole",
      "outputs": [
        {
          "internalType": "enum PharmaChain.Role",
          "name": "",
          "type": "uint8"
        }
      ],
      "stateMutability": "view",
      "type": "function"
    },
    {
      "inputs": [
        {
          "internalType": "address",
          "name": "_user",
          "type": "address"
        }
      ],
      "name": "isUserRegistered",
      "outputs": [
        {
          "internalType": "bool",
          "name": "",
          "type": "bool"
        }
      ],
      "stateMutability": "view",
      "type": "function"
    },
    {
      "inputs": [],
      "name": "nextBatchId",
      "outputs": [
        {
          "internalType": "uint256",
          "name": "",
          "type": "uint256"
        }
      ],
      "stateMutability": "view",
      "type": "function"
    },
    {
      "inputs": [],
      "name": "nextDistributorOrderId",
      "outputs": [
        {
          "internalType": "uint256",
          "name": "",
          "type": "uint256"
        }
      ],
      "stateMutability": "view",
      "type": "function"
    },
    {
      "inputs": [],
      "name": "nextProviderOrderId",
      "outputs": [
        {
          "internalType": "uint256",
          "name": "",
          "type": "uint256"
        }
      ],
      "stateMutability": "view",
      "type": "function"
    },
    {
      "inputs": [
        {
          "internalType": "address",
          "name": "",
          "type": "address"
        },
        {
          "internalType": "uint256",
          "name": "",
          "type": "uint256"
        }
      ],
      "name": "providerMedNames",
      "outputs": [
        {
          "internalType": "string",
          "name": "",
          "type": "string"
        }
      ],
      "stateMutability": "view",
      "type": "function"
    },
    {
      "inputs": [
        {
          "internalType": "uint256",
          "name": "",
          "type": "uint256"
        }
      ],
      "name": "providerOrders",
      "outputs": [
        {
          "internalType": "string",
          "name": "medName",
          "type": "string"
        },
        {
          "internalType": "uint256",
          "name": "quantity",
          "type": "uint256"
        },
        {
          "internalType": "uint256",
          "name": "orderId",
          "type": "uint256"
        },
        {
          "internalType": "uint256",
          "name": "batchId",
          "type": "uint256"
        },
        {
          "internalType": "address",
          "name": "provider",
          "type": "address"
        },
        {
          "internalType": "address",
          "name": "distributor",
          "type": "address"
        },
        {
          "internalType": "bool",
          "name": "isAssigned",
          "type": "bool"
        },
        {
          "internalType": "uint256",
          "name": "orderDate",
          "type": "uint256"
        },
        {
          "internalType": "uint256",
          "name": "orderApprovedDate",
          "type": "uint256"
        },
        {
          "internalType": "enum PharmaChain.OrderStatus",
          "name": "status",
          "type": "uint8"
        }
      ],
      "stateMutability": "view",
      "type": "function"
    },
    {
      "inputs": [
        {
          "internalType": "address",
          "name": "",
          "type": "address"
        },
        {
          "internalType": "string",
          "name": "",
          "type": "string"
        }
      ],
      "name": "providerStocks",
      "outputs": [
        {
          "internalType": "uint256",
          "name": "",
          "type": "uint256"
        }
      ],
      "stateMutability": "view",
      "type": "function"
    },
    {
      "inputs": [
        {
          "internalType": "uint256",
          "name": "_batchId",
          "type": "uint256"
        }
      ],
      "name": "recallBatch",
      "outputs": [],
      "stateMutability": "nonpayable",
      "type": "function"
    },
    {
      "inputs": [
        {
          "internalType": "address",
          "name": "_user",
          "type": "address"
        },
        {
          "internalType": "string",
          "name": "_companyName",
          "type": "string"
        },
        {
          "internalType": "enum PharmaChain.Role",
          "name": "_role",
          "type": "uint8"
        },
        {
          "internalType": "string",
          "name": "_contactInfo",
          "type": "string"
        }
      ],
      "name": "registerUser",
      "outputs": [],
      "stateMutability": "nonpayable",
      "type": "function"
    },
    {
      "inputs": [
        {
          "internalType": "bytes32",
          "name": "",
          "type": "bytes32"
        }
      ],
      "name": "rfidToDistributorOrderId",
      "outputs": [
        {
          "internalType": "uint256",
          "name": "",
          "type": "uint256"
        }
      ],
      "stateMutability": "view",
      "type": "function"
    },
    {
      "inputs": [
        {
          "internalType": "bytes32",
          "name": "",
          "type": "bytes32"
        }
      ],
      "name": "rfidToProviderOrderId",
      "outputs": [
        {
          "internalType": "uint256",
          "name": "",
          "type": "uint256"
        }
      ],
      "stateMutability": "view",
      "type": "function"
    },
    {
      "inputs": [
        {
          "internalType": "bytes32",
          "name": "_rfidUIDHash",
          "type": "bytes32"
        },
        {
          "internalType": "enum PharmaChain.OrderStatus",
          "name": "_status",
          "type": "uint8"
        }
      ],
      "name": "updateDistributorOrderStatusByRFID",
      "outputs": [],
      "stateMutability": "nonpayable",
      "type": "function"
    },
    {
      "inputs": [
        {
          "internalType": "bytes32",
          "name": "_rfidUIDHash",
          "type": "bytes32"
        },
        {
          "internalType": "enum PharmaChain.OrderStatus",
          "name": "_status",
          "type": "uint8"
        }
      ],
      "name": "updateProviderOrderStatusByRFID",
      "outputs": [],
      "stateMutability": "nonpayable",
      "type": "function"
    },
    {
      "inputs": [
        {
          "internalType": "address",
          "name": "",
          "type": "address"
        }
      ],
      "name": "users",
      "outputs": [
        {
          "internalType": "address",
          "name": "account",
          "type": "address"
        },
        {
          "internalType": "string",
          "name": "companyName",
          "type": "string"
        },
        {
          "internalType": "enum PharmaChain.Role",
          "name": "role",
          "type": "uint8"
        },
        {
          "internalType": "string",
          "name": "contactInfo",
          "type": "string"
        }
      ],
      "stateMutability": "view",
      "type": "function"
    }
  ],
  "bytecode": "0x60806040526064600a556064600b556064600c5534801561001f57600080fd5b50614dab8061002f6000396000f3fe608060405234801561001057600080fd5b50600436106102695760003560e01c80638462a7f811610151578063c0a5194e116100c3578063dd185a0911610087578063dd185a091461064d578063e044471214610660578063e3c6e07e14610673578063f1bd14ad14610686578063f212d6d9146106c2578063fa4b47a3146106d557600080fd5b8063c0a5194e146105eb578063ced27743146105fe578063d0aeb53714610611578063d386223814610624578063d56f40dd1461062d57600080fd5b806397bba8141161011557806397bba81414610551578063a6e162b414610564578063a87430ba14610577578063b32c4d8d1461059a578063b616e184146105c5578063be213fb6146105d857600080fd5b80638462a7f8146104fa57806387f95fa81461050357806388a1326c1461050b57806395c53d491461051e5780639795c0a31461053157600080fd5b8063491a58f7116101ea578063642c9719116101ae578063642c97191461044f57806369c212f6146104625780636ae25d98146104825780636c6eb5cd146104be57806383e9f8bf146104d15780638429bcf7146104f157600080fd5b8063491a58f7146103b05780634a746b7b146103de5780634e4b18fb146103f1578063552063f31461041a5780636386c1c71461042d57600080fd5b80632d703d73116102315780632d703d73146103425780633019f58e146103625780633d28a3011461037757806343deec2e1461038a57806344dfc5f81461039d57600080fd5b8063163f75221461026e5780631c5a3a53146102b15780631d8abc8f146102d15780632615457b146102e65780632782085114610306575b600080fd5b61029c61027c36600461406d565b6001600160a01b0390811660009081526020819052604090205416151590565b60405190151581526020015b60405180910390f35b6102c46102bf36600461406d565b6106e8565b6040516102a891906140d8565b6102d96108b3565b6040516102a89190614224565b6102f96102f436600461406d565b610b02565b6040516102a89190614288565b61033561031436600461406d565b6001600160a01b031660009081526020819052604090206002015460ff1690565b6040516102a891906142ef565b61035561035036600461406d565b610d5a565b6040516102a89190614303565b6103756103703660046143f8565b610fa8565b005b6103756103853660046144c6565b6114f8565b610375610398366004614552565b611609565b6103756103ab3660046145a5565b611869565b6103d06103be3660046145a5565b60086020526000908152604090205481565b6040519081526020016102a8565b6102c46103ec36600461406d565b61193e565b6104046103ff3660046145a5565b611b01565b6040516102a89a999897969594939291906145be565b6103d06104283660046145a5565b611bed565b61044061043b36600461406d565b611c2b565b6040516102a893929190614631565b61035561045d36600461406d565b611dd9565b61047561047036600461406d565b61207f565b6040516102a8919061466e565b6103d06104903660046146d5565b6005602090815260009283526040909220815180830184018051928152908401929093019190912091525481565b6103756104cc366004614722565b612231565b6104e46104df36600461406d565b6123dc565b6040516102a89190614766565b6103d0600b5481565b6103d0600a5481565b6102f961248b565b6103d06105193660046145a5565b61277a565b61040461052c3660046145a5565b6127b1565b6103d061053f3660046145a5565b60096020526000908152604090205481565b61037561055f366004614779565b6127cc565b6103756105723660046145a5565b612a09565b61058a61058536600461406d565b612b0d565b6040516102a894939291906147ad565b6105ad6105a83660046145a5565b612c59565b6040516102a89c9b9a999897969594939291906147fb565b6103756105d33660046145a5565b612d55565b6103756105e6366004614779565b612e5d565b6102d96105f936600461406d565b61304f565b6102d961060c36600461406d565b613301565b6104e461061f366004614870565b61354f565b6103d0600c5481565b61064061063b3660046145a5565b613608565b6040516102a8919061489a565b61064061065b3660046145a5565b6137a9565b6102f961066e36600461406d565b61380a565b6104e4610681366004614870565b613abc565b6103d06106943660046146d5565b6004602090815260009283526040909220815180830184018051928152908401929093019190912091525481565b6103756106d0366004614722565b613ad8565b6103756106e33660046148ad565b613bc1565b6001600160a01b038116600090815260076020526040812054606091816001600160401b0381111561071c5761071c614424565b60405190808252806020026020018201604052801561076257816020015b60408051808201909152606081526000602082015281526020019060019003908161073a5790505b50905060005b828110156108ab576001600160a01b038516600090815260076020526040812080548390811061079a5761079a6148e2565b9060005260206000200180546107af906148f8565b80601f01602080910402602001604051908101604052809291908181526020018280546107db906148f8565b80156108285780601f106107fd57610100808354040283529160200191610828565b820191906000526020600020905b81548152906001019060200180831161080b57829003601f168201915b50505050509050604051806040016040528082815260200160056000896001600160a01b03166001600160a01b0316815260200190815260200160002083604051610873919061492c565b908152602001604051809103902054815250838381518110610897576108976148e2565b602090810291909101015250600101610768565b509392505050565b6060600060645b600b548110156108fa57600081815260026020526040902060050154600160a01b900460ff166108f257816108ee8161495e565b9250505b6001016108ba565b506000816001600160401b0381111561091557610915614424565b60405190808252806020026020018201604052801561094e57816020015b61093b613f5e565b8152602001906001900390816109335790505b509050600060645b600b54811015610af957600081815260026020526040902060050154600160a01b900460ff16610af15760008181526002602052604090819020815161014081019092528054829082906109a9906148f8565b80601f01602080910402602001604051908101604052809291908181526020018280546109d5906148f8565b8015610a225780601f106109f757610100808354040283529160200191610a22565b820191906000526020600020905b815481529060010190602001808311610a0557829003601f168201915b50505091835250506001820154602082015260028201546040820152600382015460608201526004808301546001600160a01b039081166080840152600584015490811660a084015260ff600160a01b9091048116151560c0840152600684015460e084015260078401546101008401526008840154610120909301921690811115610ab057610ab0614150565b6004811115610ac157610ac1614150565b81525050838381518110610ad757610ad76148e2565b60200260200101819052508180610aed9061495e565b9250505b600101610956565b50909392505050565b6060600060645b600c54811015610b4d576000818152600360205260409020600401546001600160a01b03808616911603610b455781610b418161495e565b9250505b600101610b09565b506000816001600160401b03811115610b6857610b68614424565b604051908082528060200260200182016040528015610ba157816020015b610b8e613f5e565b815260200190600190039081610b865790505b509050600060645b600c54811015610d50576000818152600360205260409020600401546001600160a01b03808816911603610d48576000818152600360205260409081902081516101408101909252805482908290610c00906148f8565b80601f0160208091040260200160405190810160405280929190818152602001828054610c2c906148f8565b8015610c795780601f10610c4e57610100808354040283529160200191610c79565b820191906000526020600020905b815481529060010190602001808311610c5c57829003601f168201915b50505091835250506001820154602082015260028201546040820152600382015460608201526004808301546001600160a01b039081166080840152600584015490811660a084015260ff600160a01b9091048116151560c0840152600684015460e084015260078401546101008401526008840154610120909301921690811115610d0757610d07614150565b6004811115610d1857610d18614150565b81525050838381518110610d2e57610d2e6148e2565b60200260200101819052508180610d449061495e565b9250505b600101610ba9565b5090949350505050565b6060600060645b600a54811015610da657600081815260016020819052604090912001546001600160a01b03808616911603610d9e5781610d9a8161495e565b9250505b600101610d61565b506000816001600160401b03811115610dc157610dc1614424565b604051908082528060200260200182016040528015610dfa57816020015b610de7613fd5565b815260200190600190039081610ddf5790505b509050600060645b600a54811015610d5057600081815260016020819052604090912001546001600160a01b03808816911603610fa05760008181526001602081815260409283902083516101808101855281548152928101546001600160a01b0316918301919091526002810180549293919291840191610e7b906148f8565b80601f0160208091040260200160405190810160405280929190818152602001828054610ea7906148f8565b8015610ef45780601f10610ec957610100808354040283529160200191610ef4565b820191906000526020600020905b815481529060010190602001808311610ed757829003601f168201915b5050509183525050600382015460ff80821615156020840152610100808304821615156040850152620100009092046001600160a01b0316606084015260048401546080840152600584015416151560a0830152600683015460c0830152600783015460e0830152600883015490820152600990910154610120909101528351849084908110610f8657610f866148e2565b60200260200101819052508180610f9c9061495e565b9250505b600101610e02565b600133600090815260208190526040902060029081015460ff1690811115610fd257610fd2614150565b14610ff85760405162461bcd60e51b8152600401610fef90614977565b60405180910390fd5b6001600160a01b038116600090815260208190526040902060029081015460ff168181111561102957611029614150565b146110695760405162461bcd60e51b815260206004820152601060248201526f24b73b30b634b210383937bb34b232b960811b6044820152606401610fef565b600082815260016020526040902060038101546201000090046001600160a01b031633146110f55760405162461bcd60e51b815260206004820152603360248201527f4f6e6c79207468652061737369676e6564206469737472696275746f722063616044820152720dc40c2e6e6d2cedc40e8d0d2e640c4c2e8c6d606b1b6064820152608401610fef565b600381015460ff166111495760405162461bcd60e51b815260206004820152601e60248201527f4261746368206d757374206265207175616c69747920617070726f76656400006044820152606401610fef565b600581015460ff161561119e5760405162461bcd60e51b815260206004820152601760248201527f426174636820686173206265656e20726563616c6c65640000000000000000006044820152606401610fef565b60006040518061014001604052808360020180546111bb906148f8565b80601f01602080910402602001604051908101604052809291908181526020018280546111e7906148f8565b80156112345780601f1061120957610100808354040283529160200191611234565b820191906000526020600020905b81548152906001019060200180831161121757829003601f168201915b5050505050815260200183600801548152602001600c600081548092919061125b9061495e565b909155508152602081018690526001600160a01b0385166040820152336060820152600160808201524260a0820181905260c082015260e0016002905260408082015160009081526003602052208151919250829181906112bc9082614a11565b50602082015160018281019190915560408301516002830155606083015160038301556080830151600480840180546001600160a01b0319166001600160a01b0393841617905560a085015160058501805460c0880151929094166001600160a81b031990941693909317600160a01b911515919091021790915560e0840151600684015561010084015160078401556101208401516008840180549193909260ff1990921691849081111561137457611374614150565b0217905550505060408082015160048401546000908152600960209081528382209290925560088501546001600160a01b0387168252600590925282902091519091906113c5906002860190614b43565b908152602001604051809103902060008282546113e29190614b4f565b92505081905550611481838360020180546113fc906148f8565b80601f0160208091040260200160405190810160405280929190818152602001828054611428906148f8565b80156114755780601f1061144a57610100808354040283529160200191611475565b820191906000526020600020905b81548152906001019060200180831161145857829003601f168201915b50505050506000613eb3565b6114bc576001600160a01b0383166000908152600760209081526040822080546001810182559083529120016114ba6002840182614b62565b505b6040516001600160a01b0384169085907fd2d34b0374faae0161dcf8f0bb3a65abd5d19a9464ea5777ab1a5ee6a694560a90600090a350505050565b6001600160a01b0384166115405760405162461bcd60e51b815260206004820152600f60248201526e496e76616c6964206164647265737360881b6044820152606401610fef565b6040518060800160405280856001600160a01b0316815260200184815260200183600281111561157257611572614150565b815260209081018390526001600160a01b03868116600090815280835260409020835181546001600160a01b03191692169190911781559082015160018201906115bc9082614a11565b5060408201518160020160006101000a81548160ff021916908360028111156115e7576115e7614150565b0217905550606082015160038201906116009082614a11565b50505050505050565b33600090815260208190526040812060029081015460ff169081111561163157611631614150565b1461164e5760405162461bcd60e51b8152600401610fef90614c34565b600a80546000918261165f8361495e565b9190505590504283116116be5760405162461bcd60e51b815260206004820152602160248201527f4578706972792064617465206d75737420626520696e207468652066757475726044820152606560f81b6064820152608401610fef565b600082116117195760405162461bcd60e51b815260206004820152602260248201527f5175616e74697479206d7573742062652067726561746572207468616e207a65604482015261726f60f01b6064820152608401610fef565b60408051610180810182528281523360208083019182528284018981526000606085018190526080850181905260a0850181905260c085018a905260e08501819052426101008601526101208501899052610140850188905261016085018190528681526001928390529490942083518155915190820180546001600160a01b0319166001600160a01b03909216919091179055915190919060028201906117c19082614a11565b506060820151600382018054608085015160a086015161ffff1990921693151561ff0019169390931761010093151584021762010000600160b01b031916620100006001600160a01b039092169190910217905560c0830151600483015560e083015160058301805460ff1916911515919091179055820151600682015561012082015160078201556101408201516008820155610160909101516009909101555050505050565b33600090815260208190526040812060029081015460ff169081111561189157611891614150565b146118ae5760405162461bcd60e51b8152600401610fef90614c34565b6000818152600160208190526040909120908101546001600160a01b0316331461192c5760405162461bcd60e51b815260206004820152602960248201527f4f6e6c7920746865206d616e7566616374757265722063616e20617070726f7660448201526865207175616c69747960b81b6064820152608401610fef565b600301805461ffff1916600117905550565b6001600160a01b038116600090815260066020526040812054606091816001600160401b0381111561197257611972614424565b6040519080825280602002602001820160405280156119b857816020015b6040805180820190915260608152600060208201528152602001906001900390816119905790505b50905060005b828110156108ab576001600160a01b03851660009081526006602052604081208054839081106119f0576119f06148e2565b906000526020600020018054611a05906148f8565b80601f0160208091040260200160405190810160405280929190818152602001828054611a31906148f8565b8015611a7e5780601f10611a5357610100808354040283529160200191611a7e565b820191906000526020600020905b815481529060010190602001808311611a6157829003601f168201915b50505050509050604051806040016040528082815260200160046000896001600160a01b03166001600160a01b0316815260200190815260200160002083604051611ac9919061492c565b908152602001604051809103902054815250838381518110611aed57611aed6148e2565b6020908102919091010152506001016119be565b600260205260009081526040902080548190611b1c906148f8565b80601f0160208091040260200160405190810160405280929190818152602001828054611b48906148f8565b8015611b955780601f10611b6a57610100808354040283529160200191611b95565b820191906000526020600020905b815481529060010190602001808311611b7857829003601f168201915b5050505060018301546002840154600385015460048601546005870154600688015460078901546008909901549798959794965092946001600160a01b039283169492821693600160a01b90920460ff90811693168a565b600081815260086020526040812054808203611c0c5750600092915050565b6000908152600260208190526040909120015492915050565b50919050565b6001600160a01b038082166000908152602081815260408083208151608081019092528054909416815260018401805460609586959485949391929084019190611c74906148f8565b80601f0160208091040260200160405190810160405280929190818152602001828054611ca0906148f8565b8015611ced5780601f10611cc257610100808354040283529160200191611ced565b820191906000526020600020905b815481529060010190602001808311611cd057829003601f168201915b505050918352505060028281015460209092019160ff1690811115611d1457611d14614150565b6002811115611d2557611d25614150565b8152602001600382018054611d39906148f8565b80601f0160208091040260200160405190810160405280929190818152602001828054611d65906148f8565b8015611db25780601f10611d8757610100808354040283529160200191611db2565b820191906000526020600020905b815481529060010190602001808311611d9557829003601f168201915b50505091909252505050602081015160608201516040909201519097919650945092505050565b6060600060645b600a54811015611e5157600081815260016020819052604090912001546001600160a01b038581169116148015611e3657506000818152600160205260409020600301546201000090046001600160a01b031615155b15611e495781611e458161495e565b9250505b600101611de0565b506000816001600160401b03811115611e6c57611e6c614424565b604051908082528060200260200182016040528015611ea557816020015b611e92613fd5565b815260200190600190039081611e8a5790505b509050600060645b600a54811015610d5057600081815260016020819052604090912001546001600160a01b038781169116148015611f0357506000818152600160205260409020600301546201000090046001600160a01b031615155b156120775760008181526001602081815260409283902083516101808101855281548152928101546001600160a01b0316918301919091526002810180549293919291840191611f52906148f8565b80601f0160208091040260200160405190810160405280929190818152602001828054611f7e906148f8565b8015611fcb5780601f10611fa057610100808354040283529160200191611fcb565b820191906000526020600020905b815481529060010190602001808311611fae57829003601f168201915b5050509183525050600382015460ff80821615156020840152610100808304821615156040850152620100009092046001600160a01b0316606084015260048401546080840152600584015416151560a0830152600683015460c0830152600783015460e083015260088301549082015260099091015461012090910152835184908490811061205d5761205d6148e2565b602002602001018190525081806120739061495e565b9250505b600101611ead565b60408051608081018252600080825260606020830181905292820152818101919091526001600160a01b038083166000908152602081815260409182902082516080810190935280549093168252600183018054929392918401916120e3906148f8565b80601f016020809104026020016040519081016040528092919081815260200182805461210f906148f8565b801561215c5780601f106121315761010080835404028352916020019161215c565b820191906000526020600020905b81548152906001019060200180831161213f57829003601f168201915b505050918352505060028281015460209092019160ff169081111561218357612183614150565b600281111561219457612194614150565b81526020016003820180546121a8906148f8565b80601f01602080910402602001604051908101604052809291908181526020018280546121d4906148f8565b80156122215780601f106121f657610100808354040283529160200191612221565b820191906000526020600020905b81548152906001019060200180831161220457829003601f168201915b5050505050815250509050919050565b33600090815260208190526040902060029081015460ff168181111561225957612259614150565b146122765760405162461bcd60e51b8152600401610fef90614c7e565b600c8054600091826122878361495e565b91905055905060405180610140016040528084815260200183815260200182815260200160008152602001336001600160a01b0316815260200160006001600160a01b0316815260200160001515815260200142815260200160008152602001600060048111156122fa576122fa614150565b90526000828152600360205260409020815181906123189082614a11565b50602082015160018281019190915560408301516002830155606083015160038301556080830151600480840180546001600160a01b0319166001600160a01b0393841617905560a085015160058501805460c0880151929094166001600160a81b031990941693909317600160a01b911515919091021790915560e0840151600684015561010084015160078401556101208401516008840180549193909260ff199092169184908111156123d0576123d0614150565b02179055505050505050565b6001600160a01b0381166000908152602081905260409020600101805460609190612406906148f8565b80601f0160208091040260200160405190810160405280929190818152602001828054612432906148f8565b801561247f5780601f106124545761010080835404028352916020019161247f565b820191906000526020600020905b81548152906001019060200180831161246257829003601f168201915b50505050509050919050565b6060600233600090815260208190526040902060029081015460ff16908111156124b7576124b7614150565b146124d45760405162461bcd60e51b8152600401610fef90614c7e565b600060645b600c5481101561254a576000818152600360205260409020600401546001600160a01b03163314801561252f575060008181526003602052604081206008015460ff16600481111561252d5761252d614150565b145b15612542578161253e8161495e565b9250505b6001016124d9565b506000816001600160401b0381111561256557612565614424565b60405190808252806020026020018201604052801561259e57816020015b61258b613f5e565b8152602001906001900390816125835790505b509050600060645b600c54811015610af9576000818152600360205260409020600401546001600160a01b0316331480156125fc575060008181526003602052604081206008015460ff1660048111156125fa576125fa614150565b145b1561277257600081815260036020526040908190208151610140810190925280548290829061262a906148f8565b80601f0160208091040260200160405190810160405280929190818152602001828054612656906148f8565b80156126a35780601f10612678576101008083540402835291602001916126a3565b820191906000526020600020905b81548152906001019060200180831161268657829003601f168201915b50505091835250506001820154602082015260028201546040820152600382015460608201526004808301546001600160a01b039081166080840152600584015490811660a084015260ff600160a01b9091048116151560c0840152600684015460e08401526007840154610100840152600884015461012090930192169081111561273157612731614150565b600481111561274257612742614150565b81525050838381518110612758576127586148e2565b6020026020010181905250818061276e9061495e565b9250505b6001016125a6565b6000818152600960205260408120548082036127995750600092915050565b60009081526003602052604090206002015492915050565b600360205260009081526040902080548190611b1c906148f8565b33600090815260208190526040812060029081015460ff16908111156127f4576127f4614150565b14806128275750600133600090815260208190526040902060029081015460ff169081111561282557612825614150565b145b6128435760405162461bcd60e51b8152600401610fef90614cc4565b600082815260086020526040812054908190036128725760405162461bcd60e51b8152600401610fef90614d21565b600081815260026020526040902060088101805484919060ff191660018360048111156128a1576128a1614150565b021790555060038360048111156128ba576128ba614150565b036129cb576001810154336000908152600460205260409081902090516128e2908490614b43565b908152602001604051809103902060008282546128ff9190614b4f565b9091555050805461299c9033908390612917906148f8565b80601f0160208091040260200160405190810160405280929190818152602001828054612943906148f8565b80156129905780601f1061296557610100808354040283529160200191612990565b820191906000526020600020905b81548152906001019060200180831161297357829003601f168201915b50505050506001613eb3565b6129cb57336000908152600660209081526040822080546001810182559083529120016129c98282614b62565b505b817f24977f3a0ccdca09f6998313b08375465a364822bc96376c8353c609d8e90612846040516129fb9190614d67565b60405180910390a250505050565b33600090815260208190526040812060029081015460ff1690811115612a3157612a31614150565b14612a4e5760405162461bcd60e51b8152600401610fef90614c34565b6000818152600160208190526040909120908101546001600160a01b03163314612acd5760405162461bcd60e51b815260206004820152602a60248201527f4f6e6c7920746865206d616e7566616374757265722063616e20726563616c6c604482015269040e8d0ca40c4c2e8c6d60b31b6064820152608401610fef565b60058101805460ff19166001179055604051339083907f5a41088291f050dab11b8aeaaeaa8fd33f2225751a5d64008f812e0362ef472590600090a35050565b600060208190529081526040902080546001820180546001600160a01b039092169291612b39906148f8565b80601f0160208091040260200160405190810160405280929190818152602001828054612b65906148f8565b8015612bb25780601f10612b8757610100808354040283529160200191612bb2565b820191906000526020600020905b815481529060010190602001808311612b9557829003601f168201915b5050506002840154600385018054949560ff909216949193509150612bd6906148f8565b80601f0160208091040260200160405190810160405280929190818152602001828054612c02906148f8565b8015612c4f5780601f10612c2457610100808354040283529160200191612c4f565b820191906000526020600020905b815481529060010190602001808311612c3257829003601f168201915b5050505050905084565b60016020819052600091825260409091208054918101546002820180546001600160a01b039092169291612c8c906148f8565b80601f0160208091040260200160405190810160405280929190818152602001828054612cb8906148f8565b8015612d055780601f10612cda57610100808354040283529160200191612d05565b820191906000526020600020905b815481529060010190602001808311612ce857829003601f168201915b50505050600383015460048401546005850154600686015460078701546008880154600990980154969760ff80871698610100880482169850620100009097046001600160a01b0316969416938c565b33600090815260208190526040812060029081015460ff1690811115612d7d57612d7d614150565b14612d9a5760405162461bcd60e51b8152600401610fef90614c34565b6000818152600160208190526040909120908101546001600160a01b03163314612e1b5760405162461bcd60e51b815260206004820152602c60248201527f4f6e6c7920746865206d616e7566616374757265722063616e2064697361707060448201526b726f7665207175616c69747960a01b6064820152608401610fef565b60038101805461ffff1916610100179055604051339083907fc8c94276e66e72c265ff6c7a450b182f9910586a93051227e6024c1fbceaa88e90600090a35050565b33600090815260208190526040902060029081015460ff1681811115612e8557612e85614150565b1480612eb85750600133600090815260208190526040902060029081015460ff1690811115612eb657612eb6614150565b145b612ed45760405162461bcd60e51b8152600401610fef90614cc4565b60008281526009602052604081205490819003612f035760405162461bcd60e51b8152600401610fef90614d21565b600081815260036020526040902060048101546001600160a01b03163314612f835760405162461bcd60e51b815260206004820152602d60248201527f4f6e6c79207468652070726f76696465722063616e207570646174652074686560448201526c206f726465722073746174757360981b6064820152608401610fef565b60088101805484919060ff19166001836004811115612fa457612fa4614150565b02179055506003836004811115612fbd57612fbd614150565b0361304957600181015433600090815260056020526040908190209051612fe5908490614b43565b908152602001604051809103902060008282546130029190614b4f565b9091555050805461301a90339083906113fc906148f8565b61304957336000908152600760209081526040822080546001810182559083529120016130478282614b62565b505b50505050565b6060600060645b600b548110156130cc576000818152600260205260409020600401546001600160a01b0385811691161480156130b15750600360008281526002602052604090206008015460ff1660048111156130af576130af614150565b145b156130c457816130c08161495e565b9250505b600101613056565b506000816001600160401b038111156130e7576130e7614424565b60405190808252806020026020018201604052801561312057816020015b61310d613f5e565b8152602001906001900390816131055790505b509050600060645b600b54811015610d50576000818152600260205260409020600401546001600160a01b0387811691161480156131835750600360008281526002602052604090206008015460ff16600481111561318157613181614150565b145b156132f95760008181526002602052604090819020815161014081019092528054829082906131b1906148f8565b80601f01602080910402602001604051908101604052809291908181526020018280546131dd906148f8565b801561322a5780601f106131ff5761010080835404028352916020019161322a565b820191906000526020600020905b81548152906001019060200180831161320d57829003601f168201915b50505091835250506001820154602082015260028201546040820152600382015460608201526004808301546001600160a01b039081166080840152600584015490811660a084015260ff600160a01b9091048116151560c0840152600684015460e0840152600784015461010084015260088401546101209093019216908111156132b8576132b8614150565b60048111156132c9576132c9614150565b815250508383815181106132df576132df6148e2565b602002602001018190525081806132f59061495e565b9250505b600101613128565b6060600060645b600b5481101561334c576000818152600260205260409020600401546001600160a01b0380861691160361334457816133408161495e565b9250505b600101613308565b506000816001600160401b0381111561336757613367614424565b6040519080825280602002602001820160405280156133a057816020015b61338d613f5e565b8152602001906001900390816133855790505b509050600060645b600b54811015610d50576000818152600260205260409020600401546001600160a01b038088169116036135475760008181526002602052604090819020815161014081019092528054829082906133ff906148f8565b80601f016020809104026020016040519081016040528092919081815260200182805461342b906148f8565b80156134785780601f1061344d57610100808354040283529160200191613478565b820191906000526020600020905b81548152906001019060200180831161345b57829003601f168201915b50505091835250506001820154602082015260028201546040820152600382015460608201526004808301546001600160a01b039081166080840152600584015490811660a084015260ff600160a01b9091048116151560c0840152600684015460e08401526007840154610100840152600884015461012090930192169081111561350657613506614150565b600481111561351757613517614150565b8152505083838151811061352d5761352d6148e2565b602002602001018190525081806135439061495e565b9250505b6001016133a8565b6007602052816000526040600020818154811061356b57600080fd5b90600052602060002001600091509150508054613587906148f8565b80601f01602080910402602001604051908101604052809291908181526020018280546135b3906148f8565b80156136005780601f106135d557610100808354040283529160200191613600565b820191906000526020600020905b8154815290600101906020018083116135e357829003601f168201915b505050505081565b613610613f5e565b600082815260026020819052604082209081015490910361366a5760405162461bcd60e51b815260206004820152601460248201527313dc99195c88191bd95cc81b9bdd08195e1a5cdd60621b6044820152606401610fef565b8060405180610140016040529081600082018054613687906148f8565b80601f01602080910402602001604051908101604052809291908181526020018280546136b3906148f8565b80156137005780601f106136d557610100808354040283529160200191613700565b820191906000526020600020905b8154815290600101906020018083116136e357829003601f168201915b50505091835250506001820154602082015260028201546040820152600382015460608201526004808301546001600160a01b039081166080840152600584015490811660a084015260ff600160a01b9091048116151560c0840152600684015460e08401526007840154610100840152600884015461012090930192169081111561378e5761378e614150565b600481111561379f5761379f614150565b9052509392505050565b6137b1613f5e565b6000828152600360205260408120600281015490910361366a5760405162461bcd60e51b815260206004820152601460248201527313dc99195c88191bd95cc81b9bdd08195e1a5cdd60621b6044820152606401610fef565b6060600060645b600c54811015613887576000818152600360205260409020600401546001600160a01b03858116911614801561386c5750600360008281526003602052604090206008015460ff16600481111561386a5761386a614150565b145b1561387f578161387b8161495e565b9250505b600101613811565b506000816001600160401b038111156138a2576138a2614424565b6040519080825280602002602001820160405280156138db57816020015b6138c8613f5e565b8152602001906001900390816138c05790505b509050600060645b600c54811015610d50576000818152600360205260409020600401546001600160a01b03878116911614801561393e5750600360008281526003602052604090206008015460ff16600481111561393c5761393c614150565b145b15613ab457600081815260036020526040908190208151610140810190925280548290829061396c906148f8565b80601f0160208091040260200160405190810160405280929190818152602001828054613998906148f8565b80156139e55780601f106139ba576101008083540402835291602001916139e5565b820191906000526020600020905b8154815290600101906020018083116139c857829003601f168201915b50505091835250506001820154602082015260028201546040820152600382015460608201526004808301546001600160a01b039081166080840152600584015490811660a084015260ff600160a01b9091048116151560c0840152600684015460e084015260078401546101008401526008840154610120909301921690811115613a7357613a73614150565b6004811115613a8457613a84614150565b81525050838381518110613a9a57613a9a6148e2565b60200260200101819052508180613ab09061495e565b9250505b6001016138e3565b6006602052816000526040600020818154811061356b57600080fd5b600133600090815260208190526040902060029081015460ff1690811115613b0257613b02614150565b14613b1f5760405162461bcd60e51b8152600401610fef90614977565b600b805460009182613b308361495e565b91905055905060405180610140016040528084815260200183815260200182815260200160008152602001336001600160a01b0316815260200160006001600160a01b031681526020016000151581526020014281526020016000815260200160006004811115613ba357613ba3614150565b90526000828152600260205260409020815181906123189082614a11565b33600090815260208190526040812060029081015460ff1690811115613be957613be9614150565b14613c065760405162461bcd60e51b8152600401610fef90614c34565b60016001600160a01b038316600090815260208190526040902060029081015460ff1690811115613c3957613c39614150565b14613c7c5760405162461bcd60e51b815260206004820152601360248201527224b73b30b634b2103234b9ba3934b13aba37b960691b6044820152606401610fef565b6000838152600160205260409020600381015460ff16613cde5760405162461bcd60e51b815260206004820152601e60248201527f4261746368206d757374206265207175616c69747920617070726f76656400006044820152606401610fef565b60038101546201000090046001600160a01b031615613d385760405162461bcd60e51b815260206004820152601660248201527510985d18da08185b1c9958591e48185cdcda59db995960521b6044820152606401610fef565b6000828152600260205260409020600381015415613da45760405162461bcd60e51b8152602060048201526024808201527f4f7264657220697320616c72656164792061737369676e656420746f206120626044820152630c2e8c6d60e31b6064820152608401610fef565b816008015481600101541115613e0a5760405162461bcd60e51b815260206004820152602560248201527f4f72646572207175616e746974792065786365656473206261746368207175616044820152646e7469747960d81b6064820152608401610fef565b6003828101805462010000600160b01b031916620100006001600160a01b0388169081029190911790915560098401859055908201869055600582018054336001600160a01b03199091161790556008808301805460ff191660021790554260078401556004840154600090815260209190915260408082208690555187917f8e6804b2e7bfb70fb26b5bbf7a87382c43918cd5fd77219d8846c3c4f302ad0a91a35050505050565b60008082613ed8576001600160a01b0385166000908152600760205260409020613ef1565b6001600160a01b03851660009081526006602052604090205b905060005b8154811015613f50578480519060200120828281548110613f1957613f196148e2565b90600052602060002001604051613f309190614b43565b604051809103902003613f4857600192505050613f57565b600101613ef6565b5060009150505b9392505050565b6040518061014001604052806060815260200160008152602001600081526020016000815260200160006001600160a01b0316815260200160006001600160a01b03168152602001600015158152602001600081526020016000815260200160006004811115613fd057613fd0614150565b905290565b6040518061018001604052806000815260200160006001600160a01b031681526020016060815260200160001515815260200160001515815260200160006001600160a01b0316815260200160008019168152602001600015158152602001600081526020016000815260200160008152602001600081525090565b80356001600160a01b038116811461406857600080fd5b919050565b60006020828403121561407f57600080fd5b613f5782614051565b60005b838110156140a357818101518382015260200161408b565b50506000910152565b600081518084526140c4816020860160208601614088565b601f01601f19169290920160200192915050565b600060208083018184528085518083526040925060408601915060408160051b87010184880160005b8381101561414257888303603f1901855281518051878552614125888601826140ac565b918901519489019490945294870194925090860190600101614101565b509098975050505050505050565b634e487b7160e01b600052602160045260246000fd5b6005811061417657614176614150565b9052565b60006101408251818552614190828601826140ac565b91505060208301516020850152604083015160408501526060830151606085015260808301516141cb60808601826001600160a01b03169052565b5060a08301516141e660a08601826001600160a01b03169052565b5060c08301516141fa60c086018215159052565b5060e083015160e085015261010080840151818601525061012080840151610d5082870182614166565b600060208083016020845280855180835260408601915060408160051b87010192506020870160005b8281101561427b57603f1988860301845261426985835161417a565b9450928501929085019060010161424d565b5092979650505050505050565b600060208083016020845280855180835260408601915060408160051b87010192506020870160005b8281101561427b57603f198886030184526142cd85835161417a565b945092850192908501906001016142b1565b6003811061417657614176614150565b602081016142fd82846142df565b92915050565b600060208083018184528085518083526040925060408601915060408160051b87010184880160005b8381101561414257603f19898403018552815180518452878101516001600160a01b031688850152868101516101808886018190529061436e828701826140ac565b9150506060808301516143848288018215159052565b505060808281015115159086015260a0808301516001600160a01b03169086015260c0808301519086015260e080830151151590860152610100808301519086015261012080830151908601526101408083015190860152610160918201519190940152938601939086019060010161432c565b6000806040838503121561440b57600080fd5b8235915061441b60208401614051565b90509250929050565b634e487b7160e01b600052604160045260246000fd5b600082601f83011261444b57600080fd5b81356001600160401b038082111561446557614465614424565b604051601f8301601f19908116603f0116810190828211818310171561448d5761448d614424565b816040528381528660208588010111156144a657600080fd5b836020870160208301376000602085830101528094505050505092915050565b600080600080608085870312156144dc57600080fd5b6144e585614051565b935060208501356001600160401b038082111561450157600080fd5b61450d8883890161443a565b9450604087013591506003821061452357600080fd5b9092506060860135908082111561453957600080fd5b506145468782880161443a565b91505092959194509250565b6000806000806080858703121561456857600080fd5b84356001600160401b0381111561457e57600080fd5b61458a8782880161443a565b97602087013597506040870135966060013595509350505050565b6000602082840312156145b757600080fd5b5035919050565b60006101408083526145d28184018e6140ac565b9150508a602083015289604083015288606083015260018060a01b03808916608084015280881660a08401525085151560c08301528460e083015283610100830152614622610120830184614166565b9b9a5050505050505050505050565b60608152600061464460608301866140ac565b828103602084015261465681866140ac565b91505061466660408301846142df565b949350505050565b602080825282516001600160a01b0316828201528201516080604083015260009061469c60a08401826140ac565b905060408401516146b060608501826142df565b506060840151838203601f190160808501526146cc82826140ac565b95945050505050565b600080604083850312156146e857600080fd5b6146f183614051565b915060208301356001600160401b0381111561470c57600080fd5b6147188582860161443a565b9150509250929050565b6000806040838503121561473557600080fd5b82356001600160401b0381111561474b57600080fd5b6147578582860161443a565b95602094909401359450505050565b602081526000613f5760208301846140ac565b6000806040838503121561478c57600080fd5b823591506020830135600581106147a257600080fd5b809150509250929050565b6001600160a01b03851681526080602082018190526000906147d1908301866140ac565b6147de60408401866142df565b82810360608401526147f081856140ac565b979650505050505050565b8c81526001600160a01b038c81166020830152610180604083018190526000916148278483018f6140ac565b9c151560608501529a1515608084015250509690971660a087015260c086019490945291151560e085015261010084015261012083015261014082015261016001529392505050565b6000806040838503121561488357600080fd5b61488c83614051565b946020939093013593505050565b602081526000613f57602083018461417a565b6000806000606084860312156148c257600080fd5b833592506148d260208501614051565b9150604084013590509250925092565b634e487b7160e01b600052603260045260246000fd5b600181811c9082168061490c57607f821691505b602082108103611c2557634e487b7160e01b600052602260045260246000fd5b6000825161493e818460208701614088565b9190910192915050565b634e487b7160e01b600052601160045260246000fd5b60006001820161497057614970614948565b5060010190565b60208082526029908201527f4f6e6c79206469737472696275746f72732063616e20706572666f726d20746860408201526834b99030b1ba34b7b760b91b606082015260800190565b601f821115614a0c576000816000526020600020601f850160051c810160208610156149e95750805b601f850160051c820191505b81811015614a08578281556001016149f5565b5050505b505050565b81516001600160401b03811115614a2a57614a2a614424565b614a3e81614a3884546148f8565b846149c0565b602080601f831160018114614a735760008415614a5b5750858301515b600019600386901b1c1916600185901b178555614a08565b600085815260208120601f198616915b82811015614aa257888601518255948401946001909101908401614a83565b5085821015614ac05787850151600019600388901b60f8161c191681555b5050505050600190811b01905550565b60008154614add816148f8565b60018281168015614af55760018114614b0a57614b39565b60ff1984168752821515830287019450614b39565b8560005260208060002060005b85811015614b305781548a820152908401908201614b17565b50505082870194505b5050505092915050565b6000613f578284614ad0565b808201808211156142fd576142fd614948565b818103614b6d575050565b614b7782546148f8565b6001600160401b03811115614b8e57614b8e614424565b614b9c81614a3884546148f8565b6000601f821160018114614bd05760008315614bb85750848201545b600019600385901b1c1916600184901b178455613047565b600085815260209020601f19841690600086815260209020845b83811015614c0a5782860154825560019586019590910190602001614bea565b5085831015614ac05793015460001960f8600387901b161c19169092555050600190811b01905550565b6020808252602a908201527f4f6e6c79206d616e756661637475726572732063616e20706572666f726d20746040820152693434b99030b1ba34b7b760b11b606082015260800190565b60208082526026908201527f4f6e6c792070726f7669646572732063616e20706572666f726d20746869732060408201526530b1ba34b7b760d11b606082015260800190565b6020808252603a908201527f4f6e6c79206d616e75666163747572657273206f72206469737472696275746f60408201527f72732063616e20706572666f726d207468697320616374696f6e000000000000606082015260800190565b60208082526026908201527f4f72646572206e6f7420666f756e6420666f722074686520676976656e20524660408201526512510815525160d21b606082015260800190565b602081016142fd828461416656fea26469706673582212204be4103382e36904c7141abb50e2f8ae1e16298de7c5098d255561badaef774664736f6c63430008180033",
  "linkReferences": {},
  "deployedLinkReferences": {}
}