{
  "_format": "hh-sol-artifact-1",
  "contractName": "PharmaChain",
  "sourceName": "contracts/PharmaChain.sol",
  "abi": [
    {
      "anonymous": false,
      "inputs": [
        {
          "indexed": true,
          "internalType": "uint256",
          "name": "batchId",
          "type": "uint256"
        },
        {
          "indexed": true,
          "internalType": "address",
          "name": "distributor",
          "type": "address"
        }
      ],
      "name": "BatchAssignedToDistributor",
      "type": "event"
    },
    {
      "anonymous": false,
      "inputs": [
        {
          "indexed": true,
          "internalType": "uint256",
          "name": "batchId",
          "type": "uint256"
        },
        {
          "indexed": true,
          "internalType": "address",
          "name": "provider",
          "type": "address"
        }
      ],
      "name": "BatchAssignedToProvider",
      "type": "event"
    },
    {
      "anonymous": false,
      "inputs": [
        {
          "indexed": true,
          "internalType": "uint256",
          "name": "batchId",
          "type": "uint256"
        },
        {
          "indexed": true,
          "internalType": "address",
          "name": "manufacturer",
          "type": "address"
        },
        {
          "indexed": false,
          "internalType": "string",
          "name": "details",
          "type": "string"
        },
        {
          "indexed": false,
          "internalType": "bytes32",
          "name": "rfidUIDHash",
          "type": "bytes32"
        },
        {
          "indexed": false,
          "internalType": "uint256",
          "name": "manufactureDate",
          "type": "uint256"
        },
        {
          "indexed": false,
          "internalType": "uint256",
          "name": "expiryDate",
          "type": "uint256"
        },
        {
          "indexed": false,
          "internalType": "uint256",
          "name": "quantity",
          "type": "uint256"
        }
      ],
      "name": "BatchCreated",
      "type": "event"
    },
    {
      "anonymous": false,
      "inputs": [
        {
          "indexed": true,
          "internalType": "uint256",
          "name": "batchId",
          "type": "uint256"
        },
        {
          "indexed": true,
          "internalType": "address",
          "name": "initiator",
          "type": "address"
        }
      ],
      "name": "BatchRecalled",
      "type": "event"
    },
    {
      "anonymous": false,
      "inputs": [
        {
          "indexed": true,
          "internalType": "uint256",
          "name": "batchId",
          "type": "uint256"
        },
        {
          "indexed": true,
          "internalType": "address",
          "name": "approver",
          "type": "address"
        }
      ],
      "name": "QualityApproved",
      "type": "event"
    },
    {
      "anonymous": false,
      "inputs": [
        {
          "indexed": true,
          "internalType": "uint256",
          "name": "batchId",
          "type": "uint256"
        },
        {
          "indexed": true,
          "internalType": "address",
          "name": "disapprover",
          "type": "address"
        }
      ],
      "name": "QualityDisapproved",
      "type": "event"
    },
    {
      "anonymous": false,
      "inputs": [
        {
          "indexed": true,
          "internalType": "address",
          "name": "user",
          "type": "address"
        },
        {
          "indexed": false,
          "internalType": "string",
          "name": "companyName",
          "type": "string"
        },
        {
          "indexed": false,
          "internalType": "enum PharmaChain.Role",
          "name": "role",
          "type": "uint8"
        },
        {
          "indexed": false,
          "internalType": "string",
          "name": "contactInfo",
          "type": "string"
        }
      ],
      "name": "UserRegistered",
      "type": "event"
    },
    {
      "inputs": [
        {
          "internalType": "uint256",
          "name": "_batchId",
          "type": "uint256"
        }
      ],
      "name": "approveQuality",
      "outputs": [],
      "stateMutability": "nonpayable",
      "type": "function"
    },
    {
      "inputs": [
        {
          "internalType": "uint256",
          "name": "_batchId",
          "type": "uint256"
        },
        {
          "internalType": "address",
          "name": "_provider",
          "type": "address"
        }
      ],
      "name": "assignBatchToProvider",
      "outputs": [],
      "stateMutability": "nonpayable",
      "type": "function"
    },
    {
      "inputs": [
        {
          "internalType": "uint256",
          "name": "_batchId",
          "type": "uint256"
        },
        {
          "internalType": "address",
          "name": "_distributor",
          "type": "address"
        },
        {
          "internalType": "uint256",
          "name": "_orderId",
          "type": "uint256"
        }
      ],
      "name": "assignToDistributor",
      "outputs": [],
      "stateMutability": "nonpayable",
      "type": "function"
    },
    {
      "inputs": [
        {
          "internalType": "uint256",
          "name": "",
          "type": "uint256"
        }
      ],
      "name": "batches",
      "outputs": [
        {
          "internalType": "uint256",
          "name": "batchId",
          "type": "uint256"
        },
        {
          "internalType": "address",
          "name": "manufacturer",
          "type": "address"
        },
        {
          "internalType": "string",
          "name": "details",
          "type": "string"
        },
        {
          "internalType": "bool",
          "name": "isQualityApproved",
          "type": "bool"
        },
        {
          "internalType": "bool",
          "name": "isQualityDisapproved",
          "type": "bool"
        },
        {
          "internalType": "address",
          "name": "distributor",
          "type": "address"
        },
        {
          "internalType": "bytes32",
          "name": "rfidUIDHash",
          "type": "bytes32"
        },
        {
          "internalType": "bool",
          "name": "isRecalled",
          "type": "bool"
        },
        {
          "internalType": "uint256",
          "name": "manufactureDate",
          "type": "uint256"
        },
        {
          "internalType": "uint256",
          "name": "expiryDate",
          "type": "uint256"
        },
        {
          "internalType": "uint256",
          "name": "quantity",
          "type": "uint256"
        },
        {
          "internalType": "uint256",
          "name": "orderId",
          "type": "uint256"
        }
      ],
      "stateMutability": "view",
      "type": "function"
    },
    {
      "inputs": [
        {
          "internalType": "string",
          "name": "_details",
          "type": "string"
        },
        {
          "internalType": "bytes32",
          "name": "_rfidUIDHash",
          "type": "bytes32"
        },
        {
          "internalType": "uint256",
          "name": "_expiryDate",
          "type": "uint256"
        },
        {
          "internalType": "uint256",
          "name": "_quantity",
          "type": "uint256"
        }
      ],
      "name": "createBatch",
      "outputs": [],
      "stateMutability": "nonpayable",
      "type": "function"
    },
    {
      "inputs": [
        {
          "internalType": "string",
          "name": "_medName",
          "type": "string"
        },
        {
          "internalType": "uint256",
          "name": "_quantity",
          "type": "uint256"
        }
      ],
      "name": "createDistributorOrder",
      "outputs": [],
      "stateMutability": "nonpayable",
      "type": "function"
    },
    {
      "inputs": [
        {
          "internalType": "string",
          "name": "_medName",
          "type": "string"
        },
        {
          "internalType": "uint256",
          "name": "_qunatity",
          "type": "uint256"
        }
      ],
      "name": "createProviderOrder",
      "outputs": [],
      "stateMutability": "nonpayable",
      "type": "function"
    },
    {
      "inputs": [
        {
          "internalType": "uint256",
          "name": "_batchId",
          "type": "uint256"
        }
      ],
      "name": "disapproveQuality",
      "outputs": [],
      "stateMutability": "nonpayable",
      "type": "function"
    },
    {
      "inputs": [
        {
          "internalType": "address",
          "name": "",
          "type": "address"
        },
        {
          "internalType": "uint256",
          "name": "",
          "type": "uint256"
        }
      ],
      "name": "distributorMedNames",
      "outputs": [
        {
          "internalType": "string",
          "name": "",
          "type": "string"
        }
      ],
      "stateMutability": "view",
      "type": "function"
    },
    {
      "inputs": [
        {
          "internalType": "uint256",
          "name": "",
          "type": "uint256"
        }
      ],
      "name": "distributorOrders",
      "outputs": [
        {
          "internalType": "string",
          "name": "medName",
          "type": "string"
        },
        {
          "internalType": "uint256",
          "name": "quantity",
          "type": "uint256"
        },
        {
          "internalType": "uint256",
          "name": "orderId",
          "type": "uint256"
        },
        {
          "internalType": "uint256",
          "name": "batchId",
          "type": "uint256"
        },
        {
          "internalType": "address",
          "name": "distributor",
          "type": "address"
        },
        {
          "internalType": "address",
          "name": "manufacturer",
          "type": "address"
        },
        {
          "internalType": "bool",
          "name": "isAssigned",
          "type": "bool"
        },
        {
          "internalType": "uint256",
          "name": "orderDate",
          "type": "uint256"
        },
        {
          "internalType": "uint256",
          "name": "orderApprovedDate",
          "type": "uint256"
        },
        {
          "internalType": "enum PharmaChain.OrderStatus",
          "name": "status",
          "type": "uint8"
        }
      ],
      "stateMutability": "view",
      "type": "function"
    },
    {
      "inputs": [
        {
          "internalType": "address",
          "name": "",
          "type": "address"
        },
        {
          "internalType": "string",
          "name": "",
          "type": "string"
        }
      ],
      "name": "distributorStocks",
      "outputs": [
        {
          "internalType": "uint256",
          "name": "",
          "type": "uint256"
        }
      ],
      "stateMutability": "view",
      "type": "function"
    },
    {
      "inputs": [
        {
          "internalType": "address",
          "name": "_user",
          "type": "address"
        }
      ],
      "name": "getCompanyNameFromAddress",
      "outputs": [
        {
          "internalType": "string",
          "name": "",
          "type": "string"
        }
      ],
      "stateMutability": "view",
      "type": "function"
    },
    {
      "inputs": [
        {
          "internalType": "address",
          "name": "_manufacturer",
          "type": "address"
        }
      ],
      "name": "getCreatedBatches",
      "outputs": [
        {
          "components": [
            {
              "internalType": "uint256",
              "name": "batchId",
              "type": "uint256"
            },
            {
              "internalType": "address",
              "name": "manufacturer",
              "type": "address"
            },
            {
              "internalType": "string",
              "name": "details",
              "type": "string"
            },
            {
              "internalType": "bool",
              "name": "isQualityApproved",
              "type": "bool"
            },
            {
              "internalType": "bool",
              "name": "isQualityDisapproved",
              "type": "bool"
            },
            {
              "internalType": "address",
              "name": "distributor",
              "type": "address"
            },
            {
              "internalType": "bytes32",
              "name": "rfidUIDHash",
              "type": "bytes32"
            },
            {
              "internalType": "bool",
              "name": "isRecalled",
              "type": "bool"
            },
            {
              "internalType": "uint256",
              "name": "manufactureDate",
              "type": "uint256"
            },
            {
              "internalType": "uint256",
              "name": "expiryDate",
              "type": "uint256"
            },
            {
              "internalType": "uint256",
              "name": "quantity",
              "type": "uint256"
            },
            {
              "internalType": "uint256",
              "name": "orderId",
              "type": "uint256"
            }
          ],
          "internalType": "struct PharmaChain.Batch[]",
          "name": "",
          "type": "tuple[]"
        }
      ],
      "stateMutability": "view",
      "type": "function"
    },
    {
      "inputs": [
        {
          "internalType": "uint256",
          "name": "_orderId",
          "type": "uint256"
        }
      ],
      "name": "getDistributorOrder",
      "outputs": [
        {
          "components": [
            {
              "internalType": "string",
              "name": "medName",
              "type": "string"
            },
            {
              "internalType": "uint256",
              "name": "quantity",
              "type": "uint256"
            },
            {
              "internalType": "uint256",
              "name": "orderId",
              "type": "uint256"
            },
            {
              "internalType": "uint256",
              "name": "batchId",
              "type": "uint256"
            },
            {
              "internalType": "address",
              "name": "distributor",
              "type": "address"
            },
            {
              "internalType": "address",
              "name": "manufacturer",
              "type": "address"
            },
            {
              "internalType": "bool",
              "name": "isAssigned",
              "type": "bool"
            },
            {
              "internalType": "uint256",
              "name": "orderDate",
              "type": "uint256"
            },
            {
              "internalType": "uint256",
              "name": "orderApprovedDate",
              "type": "uint256"
            },
            {
              "internalType": "enum PharmaChain.OrderStatus",
              "name": "status",
              "type": "uint8"
            }
          ],
          "internalType": "struct PharmaChain.DistributorOrder",
          "name": "",
          "type": "tuple"
        }
      ],
      "stateMutability": "view",
      "type": "function"
    },
    {
      "inputs": [
        {
          "internalType": "address",
          "name": "_distributor",
          "type": "address"
        }
      ],
      "name": "getDistributorOrders",
      "outputs": [
        {
          "components": [
            {
              "internalType": "string",
              "name": "medName",
              "type": "string"
            },
            {
              "internalType": "uint256",
              "name": "quantity",
              "type": "uint256"
            },
            {
              "internalType": "uint256",
              "name": "orderId",
              "type": "uint256"
            },
            {
              "internalType": "uint256",
              "name": "batchId",
              "type": "uint256"
            },
            {
              "internalType": "address",
              "name": "distributor",
              "type": "address"
            },
            {
              "internalType": "address",
              "name": "manufacturer",
              "type": "address"
            },
            {
              "internalType": "bool",
              "name": "isAssigned",
              "type": "bool"
            },
            {
              "internalType": "uint256",
              "name": "orderDate",
              "type": "uint256"
            },
            {
              "internalType": "uint256",
              "name": "orderApprovedDate",
              "type": "uint256"
            },
            {
              "internalType": "enum PharmaChain.OrderStatus",
              "name": "status",
              "type": "uint8"
            }
          ],
          "internalType": "struct PharmaChain.DistributorOrder[]",
          "name": "",
          "type": "tuple[]"
        }
      ],
      "stateMutability": "view",
      "type": "function"
    },
    {
      "inputs": [
        {
          "internalType": "address",
          "name": "_distributor",
          "type": "address"
        }
      ],
      "name": "getDistributorStock",
      "outputs": [
        {
          "components": [
            {
              "internalType": "string",
              "name": "medName",
              "type": "string"
            },
            {
              "internalType": "uint256",
              "name": "quantity",
              "type": "uint256"
            }
          ],
          "internalType": "struct PharmaChain.StockItem[]",
          "name": "",
          "type": "tuple[]"
        }
      ],
      "stateMutability": "view",
      "type": "function"
    },
    {
      "inputs": [
        {
          "internalType": "address",
          "name": "_manufacturer",
          "type": "address"
        }
      ],
      "name": "getFulfilledBatches",
      "outputs": [
        {
          "components": [
            {
              "internalType": "uint256",
              "name": "batchId",
              "type": "uint256"
            },
            {
              "internalType": "address",
              "name": "manufacturer",
              "type": "address"
            },
            {
              "internalType": "string",
              "name": "details",
              "type": "string"
            },
            {
              "internalType": "bool",
              "name": "isQualityApproved",
              "type": "bool"
            },
            {
              "internalType": "bool",
              "name": "isQualityDisapproved",
              "type": "bool"
            },
            {
              "internalType": "address",
              "name": "distributor",
              "type": "address"
            },
            {
              "internalType": "bytes32",
              "name": "rfidUIDHash",
              "type": "bytes32"
            },
            {
              "internalType": "bool",
              "name": "isRecalled",
              "type": "bool"
            },
            {
              "internalType": "uint256",
              "name": "manufactureDate",
              "type": "uint256"
            },
            {
              "internalType": "uint256",
              "name": "expiryDate",
              "type": "uint256"
            },
            {
              "internalType": "uint256",
              "name": "quantity",
              "type": "uint256"
            },
            {
              "internalType": "uint256",
              "name": "orderId",
              "type": "uint256"
            }
          ],
          "internalType": "struct PharmaChain.Batch[]",
          "name": "",
          "type": "tuple[]"
        }
      ],
      "stateMutability": "view",
      "type": "function"
    },
    {
      "inputs": [],
      "name": "getPendingDistributorOrders",
      "outputs": [
        {
          "components": [
            {
              "internalType": "string",
              "name": "medName",
              "type": "string"
            },
            {
              "internalType": "uint256",
              "name": "quantity",
              "type": "uint256"
            },
            {
              "internalType": "uint256",
              "name": "orderId",
              "type": "uint256"
            },
            {
              "internalType": "uint256",
              "name": "batchId",
              "type": "uint256"
            },
            {
              "internalType": "address",
              "name": "distributor",
              "type": "address"
            },
            {
              "internalType": "address",
              "name": "manufacturer",
              "type": "address"
            },
            {
              "internalType": "bool",
              "name": "isAssigned",
              "type": "bool"
            },
            {
              "internalType": "uint256",
              "name": "orderDate",
              "type": "uint256"
            },
            {
              "internalType": "uint256",
              "name": "orderApprovedDate",
              "type": "uint256"
            },
            {
              "internalType": "enum PharmaChain.OrderStatus",
              "name": "status",
              "type": "uint8"
            }
          ],
          "internalType": "struct PharmaChain.DistributorOrder[]",
          "name": "",
          "type": "tuple[]"
        }
      ],
      "stateMutability": "view",
      "type": "function"
    },
    {
      "inputs": [
        {
          "internalType": "address",
          "name": "_provider",
          "type": "address"
        }
      ],
      "name": "getPendingProviderOrders",
      "outputs": [
        {
          "components": [
            {
              "internalType": "string",
              "name": "medName",
              "type": "string"
            },
            {
              "internalType": "uint256",
              "name": "quantity",
              "type": "uint256"
            },
            {
              "internalType": "uint256",
              "name": "orderId",
              "type": "uint256"
            },
            {
              "internalType": "uint256",
              "name": "batchId",
              "type": "uint256"
            },
            {
              "internalType": "address",
              "name": "provider",
              "type": "address"
            },
            {
              "internalType": "address",
              "name": "distributor",
              "type": "address"
            },
            {
              "internalType": "bool",
              "name": "isAssigned",
              "type": "bool"
            },
            {
              "internalType": "uint256",
              "name": "orderDate",
              "type": "uint256"
            },
            {
              "internalType": "uint256",
              "name": "orderApprovedDate",
              "type": "uint256"
            },
            {
              "internalType": "enum PharmaChain.OrderStatus",
              "name": "status",
              "type": "uint8"
            }
          ],
          "internalType": "struct PharmaChain.ProviderOrder[]",
          "name": "",
          "type": "tuple[]"
        }
      ],
      "stateMutability": "view",
      "type": "function"
    },
    {
      "inputs": [
        {
          "internalType": "uint256",
          "name": "_orderId",
          "type": "uint256"
        }
      ],
      "name": "getProviderOrderDetails",
      "outputs": [
        {
          "components": [
            {
              "internalType": "string",
              "name": "medName",
              "type": "string"
            },
            {
              "internalType": "uint256",
              "name": "quantity",
              "type": "uint256"
            },
            {
              "internalType": "uint256",
              "name": "orderId",
              "type": "uint256"
            },
            {
              "internalType": "uint256",
              "name": "batchId",
              "type": "uint256"
            },
            {
              "internalType": "address",
              "name": "provider",
              "type": "address"
            },
            {
              "internalType": "address",
              "name": "distributor",
              "type": "address"
            },
            {
              "internalType": "bool",
              "name": "isAssigned",
              "type": "bool"
            },
            {
              "internalType": "uint256",
              "name": "orderDate",
              "type": "uint256"
            },
            {
              "internalType": "uint256",
              "name": "orderApprovedDate",
              "type": "uint256"
            },
            {
              "internalType": "enum PharmaChain.OrderStatus",
              "name": "status",
              "type": "uint8"
            }
          ],
          "internalType": "struct PharmaChain.ProviderOrder",
          "name": "",
          "type": "tuple"
        }
      ],
      "stateMutability": "view",
      "type": "function"
    },
    {
      "inputs": [
        {
          "internalType": "address",
          "name": "_provider",
          "type": "address"
        }
      ],
      "name": "getProviderOrders",
      "outputs": [
        {
          "components": [
            {
              "internalType": "string",
              "name": "medName",
              "type": "string"
            },
            {
              "internalType": "uint256",
              "name": "quantity",
              "type": "uint256"
            },
            {
              "internalType": "uint256",
              "name": "orderId",
              "type": "uint256"
            },
            {
              "internalType": "uint256",
              "name": "batchId",
              "type": "uint256"
            },
            {
              "internalType": "address",
              "name": "provider",
              "type": "address"
            },
            {
              "internalType": "address",
              "name": "distributor",
              "type": "address"
            },
            {
              "internalType": "bool",
              "name": "isAssigned",
              "type": "bool"
            },
            {
              "internalType": "uint256",
              "name": "orderDate",
              "type": "uint256"
            },
            {
              "internalType": "uint256",
              "name": "orderApprovedDate",
              "type": "uint256"
            },
            {
              "internalType": "enum PharmaChain.OrderStatus",
              "name": "status",
              "type": "uint8"
            }
          ],
          "internalType": "struct PharmaChain.ProviderOrder[]",
          "name": "",
          "type": "tuple[]"
        }
      ],
      "stateMutability": "view",
      "type": "function"
    },
    {
      "inputs": [
        {
          "internalType": "address",
          "name": "_provider",
          "type": "address"
        }
      ],
      "name": "getProviderStock",
      "outputs": [
        {
          "components": [
            {
              "internalType": "string",
              "name": "medName",
              "type": "string"
            },
            {
              "internalType": "uint256",
              "name": "quantity",
              "type": "uint256"
            }
          ],
          "internalType": "struct PharmaChain.StockItem[]",
          "name": "",
          "type": "tuple[]"
        }
      ],
      "stateMutability": "view",
      "type": "function"
    },
    {
      "inputs": [
        {
          "internalType": "address",
          "name": "_user",
          "type": "address"
        }
      ],
      "name": "getUserByAddress",
      "outputs": [
        {
          "components": [
            {
              "internalType": "address",
              "name": "account",
              "type": "address"
            },
            {
              "internalType": "string",
              "name": "companyName",
              "type": "string"
            },
            {
              "internalType": "enum PharmaChain.Role",
              "name": "role",
              "type": "uint8"
            },
            {
              "internalType": "string",
              "name": "contactInfo",
              "type": "string"
            }
          ],
          "internalType": "struct PharmaChain.User",
          "name": "",
          "type": "tuple"
        }
      ],
      "stateMutability": "view",
      "type": "function"
    },
    {
      "inputs": [
        {
          "internalType": "address",
          "name": "_user",
          "type": "address"
        }
      ],
      "name": "getUserInfo",
      "outputs": [
        {
          "internalType": "string",
          "name": "companyName",
          "type": "string"
        },
        {
          "internalType": "string",
          "name": "contactInfo",
          "type": "string"
        },
        {
          "internalType": "enum PharmaChain.Role",
          "name": "role",
          "type": "uint8"
        }
      ],
      "stateMutability": "view",
      "type": "function"
    },
    {
      "inputs": [
        {
          "internalType": "address",
          "name": "_user",
          "type": "address"
        }
      ],
      "name": "getUserRole",
      "outputs": [
        {
          "internalType": "enum PharmaChain.Role",
          "name": "",
          "type": "uint8"
        }
      ],
      "stateMutability": "view",
      "type": "function"
    },
    {
      "inputs": [
        {
          "internalType": "address",
          "name": "_user",
          "type": "address"
        }
      ],
      "name": "isUserRegistered",
      "outputs": [
        {
          "internalType": "bool",
          "name": "",
          "type": "bool"
        }
      ],
      "stateMutability": "view",
      "type": "function"
    },
    {
      "inputs": [],
      "name": "nextBatchId",
      "outputs": [
        {
          "internalType": "uint256",
          "name": "",
          "type": "uint256"
        }
      ],
      "stateMutability": "view",
      "type": "function"
    },
    {
      "inputs": [],
      "name": "nextDistributorOrderId",
      "outputs": [
        {
          "internalType": "uint256",
          "name": "",
          "type": "uint256"
        }
      ],
      "stateMutability": "view",
      "type": "function"
    },
    {
      "inputs": [],
      "name": "nextProviderOrderId",
      "outputs": [
        {
          "internalType": "uint256",
          "name": "",
          "type": "uint256"
        }
      ],
      "stateMutability": "view",
      "type": "function"
    },
    {
      "inputs": [
        {
          "internalType": "address",
          "name": "",
          "type": "address"
        },
        {
          "internalType": "uint256",
          "name": "",
          "type": "uint256"
        }
      ],
      "name": "providerMedNames",
      "outputs": [
        {
          "internalType": "string",
          "name": "",
          "type": "string"
        }
      ],
      "stateMutability": "view",
      "type": "function"
    },
    {
      "inputs": [
        {
          "internalType": "uint256",
          "name": "",
          "type": "uint256"
        }
      ],
      "name": "providerOrders",
      "outputs": [
        {
          "internalType": "string",
          "name": "medName",
          "type": "string"
        },
        {
          "internalType": "uint256",
          "name": "quantity",
          "type": "uint256"
        },
        {
          "internalType": "uint256",
          "name": "orderId",
          "type": "uint256"
        },
        {
          "internalType": "uint256",
          "name": "batchId",
          "type": "uint256"
        },
        {
          "internalType": "address",
          "name": "provider",
          "type": "address"
        },
        {
          "internalType": "address",
          "name": "distributor",
          "type": "address"
        },
        {
          "internalType": "bool",
          "name": "isAssigned",
          "type": "bool"
        },
        {
          "internalType": "uint256",
          "name": "orderDate",
          "type": "uint256"
        },
        {
          "internalType": "uint256",
          "name": "orderApprovedDate",
          "type": "uint256"
        },
        {
          "internalType": "enum PharmaChain.OrderStatus",
          "name": "status",
          "type": "uint8"
        }
      ],
      "stateMutability": "view",
      "type": "function"
    },
    {
      "inputs": [
        {
          "internalType": "address",
          "name": "",
          "type": "address"
        },
        {
          "internalType": "string",
          "name": "",
          "type": "string"
        }
      ],
      "name": "providerStocks",
      "outputs": [
        {
          "internalType": "uint256",
          "name": "",
          "type": "uint256"
        }
      ],
      "stateMutability": "view",
      "type": "function"
    },
    {
      "inputs": [
        {
          "internalType": "uint256",
          "name": "_batchId",
          "type": "uint256"
        }
      ],
      "name": "recallBatch",
      "outputs": [],
      "stateMutability": "nonpayable",
      "type": "function"
    },
    {
      "inputs": [
        {
          "internalType": "address",
          "name": "_user",
          "type": "address"
        },
        {
          "internalType": "string",
          "name": "_companyName",
          "type": "string"
        },
        {
          "internalType": "enum PharmaChain.Role",
          "name": "_role",
          "type": "uint8"
        },
        {
          "internalType": "string",
          "name": "_contactInfo",
          "type": "string"
        }
      ],
      "name": "registerUser",
      "outputs": [],
      "stateMutability": "nonpayable",
      "type": "function"
    },
    {
      "inputs": [
        {
          "internalType": "uint256",
          "name": "_orderId",
          "type": "uint256"
        },
        {
          "internalType": "enum PharmaChain.OrderStatus",
          "name": "_status",
          "type": "uint8"
        }
      ],
      "name": "updateDistributorOrderStatus",
      "outputs": [],
      "stateMutability": "nonpayable",
      "type": "function"
    },
    {
      "inputs": [
        {
          "internalType": "address",
          "name": "",
          "type": "address"
        }
      ],
      "name": "users",
      "outputs": [
        {
          "internalType": "address",
          "name": "account",
          "type": "address"
        },
        {
          "internalType": "string",
          "name": "companyName",
          "type": "string"
        },
        {
          "internalType": "enum PharmaChain.Role",
          "name": "role",
          "type": "uint8"
        },
        {
          "internalType": "string",
          "name": "contactInfo",
          "type": "string"
        }
      ],
      "stateMutability": "view",
      "type": "function"
    }
  ],
  "bytecode": "0x6080604052606460085560646009556064600a5534801561001f57600080fd5b506144ed8061002f6000396000f3fe608060405234801561001057600080fd5b506004361061021c5760003560e01c806376c3860611610125578063ced27743116100ad578063dd185a091161007c578063dd185a091461057f578063e3c6e07e14610592578063f1bd14ad146105a5578063f212d6d9146105e1578063fa4b47a3146105f457600080fd5b8063ced2774314610530578063d0aeb53714610543578063d386223814610556578063d56f40dd1461055f57600080fd5b806395c53d49116100f457806395c53d49146104a9578063a6e162b4146104bc578063a87430ba146104cf578063b32c4d8d146104f2578063b616e1841461051d57600080fd5b806376c386061461046457806383e9f8bf146104775780638429bcf7146104975780638462a7f8146104a057600080fd5b806344dfc5f8116101a85780636386c1c7116101775780636386c1c7146103b2578063642c9719146103d457806369c212f6146103e75780636ae25d98146104075780636c6eb5cd1461045157600080fd5b806344dfc5f8146103505780634a746b7b146103635780634e4b18fb146103765780635fa3bff31461039f57600080fd5b806327820851116101ef57806327820851146102b95780632d703d73146102f55780633019f58e146103155780633d28a3011461032a57806343deec2e1461033d57600080fd5b8063163f7522146102215780631c5a3a53146102645780631d8abc8f146102845780632615457b14610299575b600080fd5b61024f61022f366004613826565b6001600160a01b0390811660009081526020819052604090205416151590565b60405190151581526020015b60405180910390f35b610277610272366004613826565b610607565b60405161025b9190613891565b61028c6107d2565b60405161025b91906139dd565b6102ac6102a7366004613826565b610a21565b60405161025b9190613a41565b6102e86102c7366004613826565b6001600160a01b031660009081526020819052604090206002015460ff1690565b60405161025b9190613aa8565b610308610303366004613826565b610c79565b60405161025b9190613abc565b610328610323366004613bb1565b610ec7565b005b610328610338366004613c7f565b6113fc565b61032861034b366004613d0b565b611553565b61032861035e366004613d5e565b6117f7565b610277610371366004613826565b6118fb565b610389610384366004613d5e565b611abe565b60405161025b9a99989796959493929190613d77565b6102ac6103ad366004613826565b611baa565b6103c56103c0366004613826565b611e58565b60405161025b93929190613dea565b6103086103e2366004613826565b612006565b6103fa6103f5366004613826565b6122ac565b60405161025b9190613e27565b610443610415366004613e8e565b6005602090815260009283526040909220815180830184018051928152908401929093019190912091525481565b60405190815260200161025b565b61032861045f366004613edb565b61245e565b610328610472366004613f1f565b612648565b61048a610485366004613826565b612862565b60405161025b9190613f53565b61044360095481565b61044360085481565b6103896104b7366004613d5e565b612911565b6103286104ca366004613d5e565b61292c565b6104e26104dd366004613826565b612a30565b60405161025b9493929190613f66565b610505610500366004613d5e565b612b7c565b60405161025b9c9b9a99989796959493929190613fb4565b61032861052b366004613d5e565b612c78565b61028c61053e366004613826565b612d80565b61048a610551366004614029565b612fce565b610443600a5481565b61057261056d366004613d5e565b613087565b60405161025b9190614053565b61057261058d366004613d5e565b613228565b61048a6105a0366004614029565b613289565b6104436105b3366004613e8e565b6004602090815260009283526040909220815180830184018051928152908401929093019190912091525481565b6103286105ef366004613edb565b6132a5565b610328610602366004614066565b61338e565b6001600160a01b038116600090815260076020526040812054606091816001600160401b0381111561063b5761063b613bdd565b60405190808252806020026020018201604052801561068157816020015b6040805180820190915260608152600060208201528152602001906001900390816106595790505b50905060005b828110156107ca576001600160a01b03851660009081526007602052604081208054839081106106b9576106b961409b565b9060005260206000200180546106ce906140b1565b80601f01602080910402602001604051908101604052809291908181526020018280546106fa906140b1565b80156107475780601f1061071c57610100808354040283529160200191610747565b820191906000526020600020905b81548152906001019060200180831161072a57829003601f168201915b50505050509050604051806040016040528082815260200160056000896001600160a01b03166001600160a01b031681526020019081526020016000208360405161079291906140eb565b9081526020016040518091039020548152508383815181106107b6576107b661409b565b602090810291909101015250600101610687565b509392505050565b6060600060645b60095481101561081957600081815260026020526040902060050154600160a01b900460ff16610811578161080d8161411d565b9250505b6001016107d9565b506000816001600160401b0381111561083457610834613bdd565b60405190808252806020026020018201604052801561086d57816020015b61085a613717565b8152602001906001900390816108525790505b509050600060645b600954811015610a1857600081815260026020526040902060050154600160a01b900460ff16610a105760008181526002602052604090819020815161014081019092528054829082906108c8906140b1565b80601f01602080910402602001604051908101604052809291908181526020018280546108f4906140b1565b80156109415780601f1061091657610100808354040283529160200191610941565b820191906000526020600020905b81548152906001019060200180831161092457829003601f168201915b50505091835250506001820154602082015260028201546040820152600382015460608201526004808301546001600160a01b039081166080840152600584015490811660a084015260ff600160a01b9091048116151560c0840152600684015460e0840152600784015461010084015260088401546101209093019216908111156109cf576109cf613909565b60048111156109e0576109e0613909565b815250508383815181106109f6576109f661409b565b60200260200101819052508180610a0c9061411d565b9250505b600101610875565b50909392505050565b6060600060645b600a54811015610a6c576000818152600360205260409020600401546001600160a01b03808616911603610a645781610a608161411d565b9250505b600101610a28565b506000816001600160401b03811115610a8757610a87613bdd565b604051908082528060200260200182016040528015610ac057816020015b610aad613717565b815260200190600190039081610aa55790505b509050600060645b600a54811015610c6f576000818152600360205260409020600401546001600160a01b03808816911603610c67576000818152600360205260409081902081516101408101909252805482908290610b1f906140b1565b80601f0160208091040260200160405190810160405280929190818152602001828054610b4b906140b1565b8015610b985780601f10610b6d57610100808354040283529160200191610b98565b820191906000526020600020905b815481529060010190602001808311610b7b57829003601f168201915b50505091835250506001820154602082015260028201546040820152600382015460608201526004808301546001600160a01b039081166080840152600584015490811660a084015260ff600160a01b9091048116151560c0840152600684015460e084015260078401546101008401526008840154610120909301921690811115610c2657610c26613909565b6004811115610c3757610c37613909565b81525050838381518110610c4d57610c4d61409b565b60200260200101819052508180610c639061411d565b9250505b600101610ac8565b5090949350505050565b6060600060645b600854811015610cc557600081815260016020819052604090912001546001600160a01b03808616911603610cbd5781610cb98161411d565b9250505b600101610c80565b506000816001600160401b03811115610ce057610ce0613bdd565b604051908082528060200260200182016040528015610d1957816020015b610d0661378e565b815260200190600190039081610cfe5790505b509050600060645b600854811015610c6f57600081815260016020819052604090912001546001600160a01b03808816911603610ebf5760008181526001602081815260409283902083516101808101855281548152928101546001600160a01b0316918301919091526002810180549293919291840191610d9a906140b1565b80601f0160208091040260200160405190810160405280929190818152602001828054610dc6906140b1565b8015610e135780601f10610de857610100808354040283529160200191610e13565b820191906000526020600020905b815481529060010190602001808311610df657829003601f168201915b5050509183525050600382015460ff80821615156020840152610100808304821615156040850152620100009092046001600160a01b0316606084015260048401546080840152600584015416151560a0830152600683015460c0830152600783015460e0830152600883015490820152600990910154610120909101528351849084908110610ea557610ea561409b565b60200260200101819052508180610ebb9061411d565b9250505b600101610d21565b600133600090815260208190526040902060029081015460ff1690811115610ef157610ef1613909565b14610f175760405162461bcd60e51b8152600401610f0e90614136565b60405180910390fd5b6001600160a01b038116600090815260208190526040902060029081015460ff1681811115610f4857610f48613909565b14610f885760405162461bcd60e51b815260206004820152601060248201526f24b73b30b634b210383937bb34b232b960811b6044820152606401610f0e565b600082815260016020526040902060038101546201000090046001600160a01b031633146110145760405162461bcd60e51b815260206004820152603360248201527f4f6e6c79207468652061737369676e6564206469737472696275746f722063616044820152720dc40c2e6e6d2cedc40e8d0d2e640c4c2e8c6d606b1b6064820152608401610f0e565b600381015460ff166110685760405162461bcd60e51b815260206004820152601e60248201527f4261746368206d757374206265207175616c69747920617070726f76656400006044820152606401610f0e565b600581015460ff16156110bd5760405162461bcd60e51b815260206004820152601760248201527f426174636820686173206265656e20726563616c6c65640000000000000000006044820152606401610f0e565b60006040518061014001604052808360020180546110da906140b1565b80601f0160208091040260200160405190810160405280929190818152602001828054611106906140b1565b80156111535780601f1061112857610100808354040283529160200191611153565b820191906000526020600020905b81548152906001019060200180831161113657829003601f168201915b5050505050815260200183600801548152602001600a600081548092919061117a9061411d565b909155508152602081018690526001600160a01b0385166040820152336060820152600160808201524260a0820181905260c082015260e0016002905260408082015160009081526003602052208151919250829181906111db90826141cf565b50602082015160018281019190915560408301516002830155606083015160038301556080830151600480840180546001600160a01b0319166001600160a01b0393841617905560a085015160058501805460c0880151929094166001600160a81b031990941693909317600160a01b911515919091021790915560e0840151600684015561010084015160078401556101208401516008840180549193909260ff1990921691849081111561129357611293613909565b0217905550505060088201546001600160a01b0384166000908152600560205260409081902090516112c9906002860190614301565b908152602001604051809103902060008282546112e6919061430d565b9250508190555061138583836002018054611300906140b1565b80601f016020809104026020016040519081016040528092919081815260200182805461132c906140b1565b80156113795780601f1061134e57610100808354040283529160200191611379565b820191906000526020600020905b81548152906001019060200180831161135c57829003601f168201915b5050505050600061366c565b6113c0576001600160a01b0383166000908152600760209081526040822080546001810182559083529120016113be6002840182614320565b505b6040516001600160a01b0384169085907fd2d34b0374faae0161dcf8f0bb3a65abd5d19a9464ea5777ab1a5ee6a694560a90600090a350505050565b6001600160a01b0384166114445760405162461bcd60e51b815260206004820152600f60248201526e496e76616c6964206164647265737360881b6044820152606401610f0e565b6040518060800160405280856001600160a01b0316815260200184815260200183600281111561147657611476613909565b815260209081018390526001600160a01b03868116600090815280835260409020835181546001600160a01b03191692169190911781559082015160018201906114c090826141cf565b5060408201518160020160006101000a81548160ff021916908360028111156114eb576114eb613909565b02179055506060820151600382019061150490826141cf565b50905050836001600160a01b03167f3a403922431a43cbc3d929f1b03869ffadab7bce01402822980e72e6ea8e9d91848484604051611545939291906143fa565b60405180910390a250505050565b33600090815260208190526040812060029081015460ff169081111561157b5761157b613909565b146115985760405162461bcd60e51b8152600401610f0e90614436565b60088054600091826115a98361411d565b9190505590504283116116085760405162461bcd60e51b815260206004820152602160248201527f4578706972792064617465206d75737420626520696e207468652066757475726044820152606560f81b6064820152608401610f0e565b600082116116635760405162461bcd60e51b815260206004820152602260248201527f5175616e74697479206d7573742062652067726561746572207468616e207a65604482015261726f60f01b6064820152608401610f0e565b60408051610180810182528281523360208083019182528284018981526000606085018190526080850181905260a0850181905260c085018a905260e08501819052426101008601526101208501899052610140850188905261016085018190528681526001928390529490942083518155915190820180546001600160a01b0319166001600160a01b039092169190911790559151909190600282019061170b90826141cf565b506060820151600382018054608085015160a086015161ffff1990921693151561ff0019169390931761010093151584021762010000600160b01b031916620100006001600160a01b039092169190910217905560c0830151600483015560e083015160058301805460ff191691151591909117905582015160068201556101208201516007820155610140820151600882015561016090910151600990910155604051339082907fbee34f0ca0c0edfc2bd967468f81e100292d859329be491cc44c4ec390c65fac906117e8908990899042908a908a90614480565b60405180910390a35050505050565b33600090815260208190526040812060029081015460ff169081111561181f5761181f613909565b1461183c5760405162461bcd60e51b8152600401610f0e90614436565b6000818152600160208190526040909120908101546001600160a01b031633146118ba5760405162461bcd60e51b815260206004820152602960248201527f4f6e6c7920746865206d616e7566616374757265722063616e20617070726f7660448201526865207175616c69747960b81b6064820152608401610f0e565b60038101805461ffff19166001179055604051339083907f08d6065569e454b48393f44317518d1282971813504b4d323942afba2f7a2c5d90600090a35050565b6001600160a01b038116600090815260066020526040812054606091816001600160401b0381111561192f5761192f613bdd565b60405190808252806020026020018201604052801561197557816020015b60408051808201909152606081526000602082015281526020019060019003908161194d5790505b50905060005b828110156107ca576001600160a01b03851660009081526006602052604081208054839081106119ad576119ad61409b565b9060005260206000200180546119c2906140b1565b80601f01602080910402602001604051908101604052809291908181526020018280546119ee906140b1565b8015611a3b5780601f10611a1057610100808354040283529160200191611a3b565b820191906000526020600020905b815481529060010190602001808311611a1e57829003601f168201915b50505050509050604051806040016040528082815260200160046000896001600160a01b03166001600160a01b0316815260200190815260200160002083604051611a8691906140eb565b908152602001604051809103902054815250838381518110611aaa57611aaa61409b565b60209081029190910101525060010161197b565b600260205260009081526040902080548190611ad9906140b1565b80601f0160208091040260200160405190810160405280929190818152602001828054611b05906140b1565b8015611b525780601f10611b2757610100808354040283529160200191611b52565b820191906000526020600020905b815481529060010190602001808311611b3557829003601f168201915b5050505060018301546002840154600385015460048601546005870154600688015460078901546008909901549798959794965092946001600160a01b039283169492821693600160a01b90920460ff90811693168a565b6060600060645b600a54811015611c25576000818152600360205260409020600401546001600160a01b038581169116148015611c0a575060008181526003602052604081206008015460ff166004811115611c0857611c08613909565b145b15611c1d5781611c198161411d565b9250505b600101611bb1565b506000816001600160401b03811115611c4057611c40613bdd565b604051908082528060200260200182016040528015611c7957816020015b611c66613717565b815260200190600190039081611c5e5790505b509050600060645b600a54811015610c6f576000818152600360205260409020600401546001600160a01b038781169116148015611cda575060008181526003602052604081206008015460ff166004811115611cd857611cd8613909565b145b15611e50576000818152600360205260409081902081516101408101909252805482908290611d08906140b1565b80601f0160208091040260200160405190810160405280929190818152602001828054611d34906140b1565b8015611d815780601f10611d5657610100808354040283529160200191611d81565b820191906000526020600020905b815481529060010190602001808311611d6457829003601f168201915b50505091835250506001820154602082015260028201546040820152600382015460608201526004808301546001600160a01b039081166080840152600584015490811660a084015260ff600160a01b9091048116151560c0840152600684015460e084015260078401546101008401526008840154610120909301921690811115611e0f57611e0f613909565b6004811115611e2057611e20613909565b81525050838381518110611e3657611e3661409b565b60200260200101819052508180611e4c9061411d565b9250505b600101611c81565b6001600160a01b038082166000908152602081815260408083208151608081019092528054909416815260018401805460609586959485949391929084019190611ea1906140b1565b80601f0160208091040260200160405190810160405280929190818152602001828054611ecd906140b1565b8015611f1a5780601f10611eef57610100808354040283529160200191611f1a565b820191906000526020600020905b815481529060010190602001808311611efd57829003601f168201915b505050918352505060028281015460209092019160ff1690811115611f4157611f41613909565b6002811115611f5257611f52613909565b8152602001600382018054611f66906140b1565b80601f0160208091040260200160405190810160405280929190818152602001828054611f92906140b1565b8015611fdf5780601f10611fb457610100808354040283529160200191611fdf565b820191906000526020600020905b815481529060010190602001808311611fc257829003601f168201915b50505091909252505050602081015160608201516040909201519097919650945092505050565b6060600060645b60085481101561207e57600081815260016020819052604090912001546001600160a01b03858116911614801561206357506000818152600160205260409020600301546201000090046001600160a01b031615155b1561207657816120728161411d565b9250505b60010161200d565b506000816001600160401b0381111561209957612099613bdd565b6040519080825280602002602001820160405280156120d257816020015b6120bf61378e565b8152602001906001900390816120b75790505b509050600060645b600854811015610c6f57600081815260016020819052604090912001546001600160a01b03878116911614801561213057506000818152600160205260409020600301546201000090046001600160a01b031615155b156122a45760008181526001602081815260409283902083516101808101855281548152928101546001600160a01b031691830191909152600281018054929391929184019161217f906140b1565b80601f01602080910402602001604051908101604052809291908181526020018280546121ab906140b1565b80156121f85780601f106121cd576101008083540402835291602001916121f8565b820191906000526020600020905b8154815290600101906020018083116121db57829003601f168201915b5050509183525050600382015460ff80821615156020840152610100808304821615156040850152620100009092046001600160a01b0316606084015260048401546080840152600584015416151560a0830152600683015460c0830152600783015460e083015260088301549082015260099091015461012090910152835184908490811061228a5761228a61409b565b602002602001018190525081806122a09061411d565b9250505b6001016120da565b60408051608081018252600080825260606020830181905292820152818101919091526001600160a01b03808316600090815260208181526040918290208251608081019093528054909316825260018301805492939291840191612310906140b1565b80601f016020809104026020016040519081016040528092919081815260200182805461233c906140b1565b80156123895780601f1061235e57610100808354040283529160200191612389565b820191906000526020600020905b81548152906001019060200180831161236c57829003601f168201915b505050918352505060028281015460209092019160ff16908111156123b0576123b0613909565b60028111156123c1576123c1613909565b81526020016003820180546123d5906140b1565b80601f0160208091040260200160405190810160405280929190818152602001828054612401906140b1565b801561244e5780601f106124235761010080835404028352916020019161244e565b820191906000526020600020905b81548152906001019060200180831161243157829003601f168201915b5050505050815250509050919050565b33600090815260208190526040902060029081015460ff168181111561248657612486613909565b146124e25760405162461bcd60e51b815260206004820152602660248201527f4f6e6c792070726f7669646572732063616e20706572666f726d20746869732060448201526530b1ba34b7b760d11b6064820152608401610f0e565b600a8054600091826124f38361411d565b91905055905060405180610140016040528084815260200183815260200182815260200160008152602001336001600160a01b0316815260200160006001600160a01b03168152602001600015158152602001428152602001600081526020016000600481111561256657612566613909565b905260008281526003602052604090208151819061258490826141cf565b50602082015160018281019190915560408301516002830155606083015160038301556080830151600480840180546001600160a01b0319166001600160a01b0393841617905560a085015160058501805460c0880151929094166001600160a81b031990941693909317600160a01b911515919091021790915560e0840151600684015561010084015160078401556101208401516008840180549193909260ff1990921691849081111561263c5761263c613909565b02179055505050505050565b600133600090815260208190526040902060029081015460ff169081111561267257612672613909565b1461268f5760405162461bcd60e51b8152600401610f0e90614136565b600082815260026020526040902060048101546001600160a01b031633146127125760405162461bcd60e51b815260206004820152603060248201527f4f6e6c7920746865206469737472696275746f722063616e207570646174652060448201526f746865206f726465722073746174757360801b6064820152608401610f0e565b60088101805483919060ff1916600183600481111561273357612733613909565b0217905550600382600481111561274c5761274c613909565b0361285d57600181015433600090815260046020526040908190209051612774908490614301565b90815260200160405180910390206000828254612791919061430d565b9091555050805461282e90339083906127a9906140b1565b80601f01602080910402602001604051908101604052809291908181526020018280546127d5906140b1565b80156128225780601f106127f757610100808354040283529160200191612822565b820191906000526020600020905b81548152906001019060200180831161280557829003601f168201915b5050505050600161366c565b61285d573360009081526006602090815260408220805460018101825590835291200161285b8282614320565b505b505050565b6001600160a01b038116600090815260208190526040902060010180546060919061288c906140b1565b80601f01602080910402602001604051908101604052809291908181526020018280546128b8906140b1565b80156129055780601f106128da57610100808354040283529160200191612905565b820191906000526020600020905b8154815290600101906020018083116128e857829003601f168201915b50505050509050919050565b600360205260009081526040902080548190611ad9906140b1565b33600090815260208190526040812060029081015460ff169081111561295457612954613909565b146129715760405162461bcd60e51b8152600401610f0e90614436565b6000818152600160208190526040909120908101546001600160a01b031633146129f05760405162461bcd60e51b815260206004820152602a60248201527f4f6e6c7920746865206d616e7566616374757265722063616e20726563616c6c604482015269040e8d0ca40c4c2e8c6d60b31b6064820152608401610f0e565b60058101805460ff19166001179055604051339083907f5a41088291f050dab11b8aeaaeaa8fd33f2225751a5d64008f812e0362ef472590600090a35050565b600060208190529081526040902080546001820180546001600160a01b039092169291612a5c906140b1565b80601f0160208091040260200160405190810160405280929190818152602001828054612a88906140b1565b8015612ad55780601f10612aaa57610100808354040283529160200191612ad5565b820191906000526020600020905b815481529060010190602001808311612ab857829003601f168201915b5050506002840154600385018054949560ff909216949193509150612af9906140b1565b80601f0160208091040260200160405190810160405280929190818152602001828054612b25906140b1565b8015612b725780601f10612b4757610100808354040283529160200191612b72565b820191906000526020600020905b815481529060010190602001808311612b5557829003601f168201915b5050505050905084565b60016020819052600091825260409091208054918101546002820180546001600160a01b039092169291612baf906140b1565b80601f0160208091040260200160405190810160405280929190818152602001828054612bdb906140b1565b8015612c285780601f10612bfd57610100808354040283529160200191612c28565b820191906000526020600020905b815481529060010190602001808311612c0b57829003601f168201915b50505050600383015460048401546005850154600686015460078701546008880154600990980154969760ff80871698610100880482169850620100009097046001600160a01b0316969416938c565b33600090815260208190526040812060029081015460ff1690811115612ca057612ca0613909565b14612cbd5760405162461bcd60e51b8152600401610f0e90614436565b6000818152600160208190526040909120908101546001600160a01b03163314612d3e5760405162461bcd60e51b815260206004820152602c60248201527f4f6e6c7920746865206d616e7566616374757265722063616e2064697361707060448201526b726f7665207175616c69747960a01b6064820152608401610f0e565b60038101805461ffff1916610100179055604051339083907fc8c94276e66e72c265ff6c7a450b182f9910586a93051227e6024c1fbceaa88e90600090a35050565b6060600060645b600954811015612dcb576000818152600260205260409020600401546001600160a01b03808616911603612dc35781612dbf8161411d565b9250505b600101612d87565b506000816001600160401b03811115612de657612de6613bdd565b604051908082528060200260200182016040528015612e1f57816020015b612e0c613717565b815260200190600190039081612e045790505b509050600060645b600954811015610c6f576000818152600260205260409020600401546001600160a01b03808816911603612fc6576000818152600260205260409081902081516101408101909252805482908290612e7e906140b1565b80601f0160208091040260200160405190810160405280929190818152602001828054612eaa906140b1565b8015612ef75780601f10612ecc57610100808354040283529160200191612ef7565b820191906000526020600020905b815481529060010190602001808311612eda57829003601f168201915b50505091835250506001820154602082015260028201546040820152600382015460608201526004808301546001600160a01b039081166080840152600584015490811660a084015260ff600160a01b9091048116151560c0840152600684015460e084015260078401546101008401526008840154610120909301921690811115612f8557612f85613909565b6004811115612f9657612f96613909565b81525050838381518110612fac57612fac61409b565b60200260200101819052508180612fc29061411d565b9250505b600101612e27565b60076020528160005260406000208181548110612fea57600080fd5b90600052602060002001600091509150508054613006906140b1565b80601f0160208091040260200160405190810160405280929190818152602001828054613032906140b1565b801561307f5780601f106130545761010080835404028352916020019161307f565b820191906000526020600020905b81548152906001019060200180831161306257829003601f168201915b505050505081565b61308f613717565b60008281526002602081905260408220908101549091036130e95760405162461bcd60e51b815260206004820152601460248201527313dc99195c88191bd95cc81b9bdd08195e1a5cdd60621b6044820152606401610f0e565b8060405180610140016040529081600082018054613106906140b1565b80601f0160208091040260200160405190810160405280929190818152602001828054613132906140b1565b801561317f5780601f106131545761010080835404028352916020019161317f565b820191906000526020600020905b81548152906001019060200180831161316257829003601f168201915b50505091835250506001820154602082015260028201546040820152600382015460608201526004808301546001600160a01b039081166080840152600584015490811660a084015260ff600160a01b9091048116151560c0840152600684015460e08401526007840154610100840152600884015461012090930192169081111561320d5761320d613909565b600481111561321e5761321e613909565b9052509392505050565b613230613717565b600082815260036020526040812060028101549091036130e95760405162461bcd60e51b815260206004820152601460248201527313dc99195c88191bd95cc81b9bdd08195e1a5cdd60621b6044820152606401610f0e565b60066020528160005260406000208181548110612fea57600080fd5b600133600090815260208190526040902060029081015460ff16908111156132cf576132cf613909565b146132ec5760405162461bcd60e51b8152600401610f0e90614136565b60098054600091826132fd8361411d565b91905055905060405180610140016040528084815260200183815260200182815260200160008152602001336001600160a01b0316815260200160006001600160a01b03168152602001600015158152602001428152602001600081526020016000600481111561337057613370613909565b905260008281526002602052604090208151819061258490826141cf565b33600090815260208190526040812060029081015460ff16908111156133b6576133b6613909565b146133d35760405162461bcd60e51b8152600401610f0e90614436565b60016001600160a01b038316600090815260208190526040902060029081015460ff169081111561340657613406613909565b146134495760405162461bcd60e51b815260206004820152601360248201527224b73b30b634b2103234b9ba3934b13aba37b960691b6044820152606401610f0e565b6000838152600160205260409020600381015460ff166134ab5760405162461bcd60e51b815260206004820152601e60248201527f4261746368206d757374206265207175616c69747920617070726f76656400006044820152606401610f0e565b60038101546201000090046001600160a01b0316156135055760405162461bcd60e51b815260206004820152601660248201527510985d18da08185b1c9958591e48185cdcda59db995960521b6044820152606401610f0e565b60008281526002602052604090206003810154156135715760405162461bcd60e51b8152602060048201526024808201527f4f7264657220697320616c72656164792061737369676e656420746f206120626044820152630c2e8c6d60e31b6064820152608401610f0e565b8160080154816001015411156135d75760405162461bcd60e51b815260206004820152602560248201527f4f72646572207175616e746974792065786365656473206261746368207175616044820152646e7469747960d81b6064820152608401610f0e565b6003828101805462010000600160b01b031916620100006001600160a01b0388169081029190911790915560098401859055908201869055600582018054336001600160a01b031990911617905560088201805460ff1916600217905542600783015560405186907f8e6804b2e7bfb70fb26b5bbf7a87382c43918cd5fd77219d8846c3c4f302ad0a90600090a35050505050565b60008082613691576001600160a01b03851660009081526007602052604090206136aa565b6001600160a01b03851660009081526006602052604090205b905060005b81548110156137095784805190602001208282815481106136d2576136d261409b565b906000526020600020016040516136e99190614301565b60405180910390200361370157600192505050613710565b6001016136af565b5060009150505b9392505050565b6040518061014001604052806060815260200160008152602001600081526020016000815260200160006001600160a01b0316815260200160006001600160a01b0316815260200160001515815260200160008152602001600081526020016000600481111561378957613789613909565b905290565b6040518061018001604052806000815260200160006001600160a01b031681526020016060815260200160001515815260200160001515815260200160006001600160a01b0316815260200160008019168152602001600015158152602001600081526020016000815260200160008152602001600081525090565b80356001600160a01b038116811461382157600080fd5b919050565b60006020828403121561383857600080fd5b6137108261380a565b60005b8381101561385c578181015183820152602001613844565b50506000910152565b6000815180845261387d816020860160208601613841565b601f01601f19169290920160200192915050565b600060208083018184528085518083526040925060408601915060408160051b87010184880160005b838110156138fb57888303603f19018552815180518785526138de88860182613865565b9189015194890194909452948701949250908601906001016138ba565b509098975050505050505050565b634e487b7160e01b600052602160045260246000fd5b6005811061392f5761392f613909565b9052565b6000610140825181855261394982860182613865565b915050602083015160208501526040830151604085015260608301516060850152608083015161398460808601826001600160a01b03169052565b5060a083015161399f60a08601826001600160a01b03169052565b5060c08301516139b360c086018215159052565b5060e083015160e085015261010080840151818601525061012080840151610c6f8287018261391f565b600060208083016020845280855180835260408601915060408160051b87010192506020870160005b82811015613a3457603f19888603018452613a22858351613933565b94509285019290850190600101613a06565b5092979650505050505050565b600060208083016020845280855180835260408601915060408160051b87010192506020870160005b82811015613a3457603f19888603018452613a86858351613933565b94509285019290850190600101613a6a565b6003811061392f5761392f613909565b60208101613ab68284613a98565b92915050565b600060208083018184528085518083526040925060408601915060408160051b87010184880160005b838110156138fb57603f19898403018552815180518452878101516001600160a01b0316888501528681015161018088860181905290613b2782870182613865565b915050606080830151613b3d8288018215159052565b505060808281015115159086015260a0808301516001600160a01b03169086015260c0808301519086015260e0808301511515908601526101008083015190860152610120808301519086015261014080830151908601526101609182015191909401529386019390860190600101613ae5565b60008060408385031215613bc457600080fd5b82359150613bd46020840161380a565b90509250929050565b634e487b7160e01b600052604160045260246000fd5b600082601f830112613c0457600080fd5b81356001600160401b0380821115613c1e57613c1e613bdd565b604051601f8301601f19908116603f01168101908282118183101715613c4657613c46613bdd565b81604052838152866020858801011115613c5f57600080fd5b836020870160208301376000602085830101528094505050505092915050565b60008060008060808587031215613c9557600080fd5b613c9e8561380a565b935060208501356001600160401b0380821115613cba57600080fd5b613cc688838901613bf3565b94506040870135915060038210613cdc57600080fd5b90925060608601359080821115613cf257600080fd5b50613cff87828801613bf3565b91505092959194509250565b60008060008060808587031215613d2157600080fd5b84356001600160401b03811115613d3757600080fd5b613d4387828801613bf3565b97602087013597506040870135966060013595509350505050565b600060208284031215613d7057600080fd5b5035919050565b6000610140808352613d8b8184018e613865565b9150508a602083015289604083015288606083015260018060a01b03808916608084015280881660a08401525085151560c08301528460e083015283610100830152613ddb61012083018461391f565b9b9a5050505050505050505050565b606081526000613dfd6060830186613865565b8281036020840152613e0f8186613865565b915050613e1f6040830184613a98565b949350505050565b602080825282516001600160a01b03168282015282015160806040830152600090613e5560a0840182613865565b90506040840151613e696060850182613a98565b506060840151838203601f19016080850152613e858282613865565b95945050505050565b60008060408385031215613ea157600080fd5b613eaa8361380a565b915060208301356001600160401b03811115613ec557600080fd5b613ed185828601613bf3565b9150509250929050565b60008060408385031215613eee57600080fd5b82356001600160401b03811115613f0457600080fd5b613f1085828601613bf3565b95602094909401359450505050565b60008060408385031215613f3257600080fd5b82359150602083013560058110613f4857600080fd5b809150509250929050565b6020815260006137106020830184613865565b6001600160a01b0385168152608060208201819052600090613f8a90830186613865565b613f976040840186613a98565b8281036060840152613fa98185613865565b979650505050505050565b8c81526001600160a01b038c8116602083015261018060408301819052600091613fe08483018f613865565b9c151560608501529a1515608084015250509690971660a087015260c086019490945291151560e085015261010084015261012083015261014082015261016001529392505050565b6000806040838503121561403c57600080fd5b6140458361380a565b946020939093013593505050565b6020815260006137106020830184613933565b60008060006060848603121561407b57600080fd5b8335925061408b6020850161380a565b9150604084013590509250925092565b634e487b7160e01b600052603260045260246000fd5b600181811c908216806140c557607f821691505b6020821081036140e557634e487b7160e01b600052602260045260246000fd5b50919050565b600082516140fd818460208701613841565b9190910192915050565b634e487b7160e01b600052601160045260246000fd5b60006001820161412f5761412f614107565b5060010190565b60208082526029908201527f4f6e6c79206469737472696275746f72732063616e20706572666f726d20746860408201526834b99030b1ba34b7b760b91b606082015260800190565b601f82111561285d576000816000526020600020601f850160051c810160208610156141a85750805b601f850160051c820191505b818110156141c7578281556001016141b4565b505050505050565b81516001600160401b038111156141e8576141e8613bdd565b6141fc816141f684546140b1565b8461417f565b602080601f83116001811461423157600084156142195750858301515b600019600386901b1c1916600185901b1785556141c7565b600085815260208120601f198616915b8281101561426057888601518255948401946001909101908401614241565b508582101561427e5787850151600019600388901b60f8161c191681555b5050505050600190811b01905550565b6000815461429b816140b1565b600182811680156142b357600181146142c8576142f7565b60ff19841687528215158302870194506142f7565b8560005260208060002060005b858110156142ee5781548a8201529084019082016142d5565b50505082870194505b5050505092915050565b6000613710828461428e565b80820180821115613ab657613ab6614107565b81810361432b575050565b61433582546140b1565b6001600160401b0381111561434c5761434c613bdd565b61435a816141f684546140b1565b6000601f82116001811461438e57600083156143765750848201545b600019600385901b1c1916600184901b1784556143f3565b600085815260209020601f19841690600086815260209020845b838110156143c857828601548255600195860195909101906020016143a8565b50858310156143e65781850154600019600388901b60f8161c191681555b50505060018360011b0184555b5050505050565b60608152600061440d6060830186613865565b61441a6020840186613a98565b828103604084015261442c8185613865565b9695505050505050565b6020808252602a908201527f4f6e6c79206d616e756661637475726572732063616e20706572666f726d20746040820152693434b99030b1ba34b7b760b11b606082015260800190565b60a08152600061449360a0830188613865565b9050856020830152846040830152836060830152826080830152969550505050505056fea26469706673582212203eb824d18612046fd5ff15db4a6fe41e5c0919e1c2ee83e3186b43fc5122d7a764736f6c63430008180033",
  "linkReferences": {},
  "deployedLinkReferences": {}
}