{
  "_format": "hh-sol-artifact-1",
  "contractName": "PharmaChain",
  "sourceName": "contracts/PharmaChain.sol",
  "abi": [
    {
      "anonymous": false,
      "inputs": [
        {
          "indexed": true,
          "internalType": "uint256",
          "name": "batchId",
          "type": "uint256"
        },
        {
          "indexed": true,
          "internalType": "address",
          "name": "distributor",
          "type": "address"
        }
      ],
      "name": "BatchAssignedToDistributor",
      "type": "event"
    },
    {
      "anonymous": false,
      "inputs": [
        {
          "indexed": true,
          "internalType": "uint256",
          "name": "batchId",
          "type": "uint256"
        },
        {
          "indexed": true,
          "internalType": "address",
          "name": "manufacturer",
          "type": "address"
        },
        {
          "indexed": false,
          "internalType": "string",
          "name": "details",
          "type": "string"
        },
        {
          "indexed": false,
          "internalType": "bytes32",
          "name": "rfidUIDHash",
          "type": "bytes32"
        }
      ],
      "name": "BatchCreated",
      "type": "event"
    },
    {
      "anonymous": false,
      "inputs": [
        {
          "indexed": true,
          "internalType": "address",
          "name": "distributor",
          "type": "address"
        },
        {
          "indexed": true,
          "internalType": "address",
          "name": "manufacturer",
          "type": "address"
        },
        {
          "indexed": false,
          "internalType": "string",
          "name": "details",
          "type": "string"
        }
      ],
      "name": "BatchOrdered",
      "type": "event"
    },
    {
      "anonymous": false,
      "inputs": [
        {
          "indexed": true,
          "internalType": "uint256",
          "name": "batchId",
          "type": "uint256"
        },
        {
          "indexed": true,
          "internalType": "address",
          "name": "initiator",
          "type": "address"
        }
      ],
      "name": "BatchRecalled",
      "type": "event"
    },
    {
      "anonymous": false,
      "inputs": [
        {
          "indexed": true,
          "internalType": "uint256",
          "name": "unitId",
          "type": "uint256"
        },
        {
          "indexed": true,
          "internalType": "address",
          "name": "provider",
          "type": "address"
        }
      ],
      "name": "BatchUnitAssignedToProvider",
      "type": "event"
    },
    {
      "anonymous": false,
      "inputs": [
        {
          "indexed": true,
          "internalType": "address",
          "name": "provider",
          "type": "address"
        },
        {
          "indexed": true,
          "internalType": "address",
          "name": "distributor",
          "type": "address"
        },
        {
          "indexed": false,
          "internalType": "string",
          "name": "details",
          "type": "string"
        }
      ],
      "name": "MedicineOrdered",
      "type": "event"
    },
    {
      "anonymous": false,
      "inputs": [
        {
          "indexed": true,
          "internalType": "uint256",
          "name": "batchId",
          "type": "uint256"
        },
        {
          "indexed": true,
          "internalType": "address",
          "name": "approver",
          "type": "address"
        }
      ],
      "name": "QualityApproved",
      "type": "event"
    },
    {
      "anonymous": false,
      "inputs": [
        {
          "indexed": true,
          "internalType": "uint256",
          "name": "batchId",
          "type": "uint256"
        },
        {
          "indexed": true,
          "internalType": "address",
          "name": "disapprover",
          "type": "address"
        }
      ],
      "name": "QualityDisapproved",
      "type": "event"
    },
    {
      "anonymous": false,
      "inputs": [
        {
          "indexed": true,
          "internalType": "uint256",
          "name": "batchId",
          "type": "uint256"
        },
        {
          "indexed": false,
          "internalType": "address",
          "name": "verifier",
          "type": "address"
        },
        {
          "indexed": false,
          "internalType": "bool",
          "name": "verified",
          "type": "bool"
        }
      ],
      "name": "RFIDVerified",
      "type": "event"
    },
    {
      "anonymous": false,
      "inputs": [
        {
          "indexed": true,
          "internalType": "address",
          "name": "user",
          "type": "address"
        },
        {
          "indexed": false,
          "internalType": "string",
          "name": "companyName",
          "type": "string"
        },
        {
          "indexed": false,
          "internalType": "enum PharmaChain.Role",
          "name": "role",
          "type": "uint8"
        },
        {
          "indexed": false,
          "internalType": "string",
          "name": "contactInfo",
          "type": "string"
        }
      ],
      "name": "UserRegistered",
      "type": "event"
    },
    {
      "inputs": [
        {
          "internalType": "uint256",
          "name": "_batchId",
          "type": "uint256"
        }
      ],
      "name": "approveQuality",
      "outputs": [],
      "stateMutability": "nonpayable",
      "type": "function"
    },
    {
      "inputs": [
        {
          "internalType": "uint256",
          "name": "_batchId",
          "type": "uint256"
        },
        {
          "internalType": "address",
          "name": "_distributor",
          "type": "address"
        }
      ],
      "name": "assignToDistributor",
      "outputs": [],
      "stateMutability": "nonpayable",
      "type": "function"
    },
    {
      "inputs": [
        {
          "internalType": "uint256",
          "name": "_unitId",
          "type": "uint256"
        },
        {
          "internalType": "address",
          "name": "_provider",
          "type": "address"
        }
      ],
      "name": "assignUnitToProvider",
      "outputs": [],
      "stateMutability": "nonpayable",
      "type": "function"
    },
    {
      "inputs": [
        {
          "internalType": "uint256",
          "name": "",
          "type": "uint256"
        }
      ],
      "name": "batchUnits",
      "outputs": [
        {
          "internalType": "uint256",
          "name": "unitId",
          "type": "uint256"
        },
        {
          "internalType": "uint256",
          "name": "batchId",
          "type": "uint256"
        },
        {
          "internalType": "address",
          "name": "provider",
          "type": "address"
        },
        {
          "internalType": "bool",
          "name": "isAssigned",
          "type": "bool"
        }
      ],
      "stateMutability": "view",
      "type": "function"
    },
    {
      "inputs": [
        {
          "internalType": "uint256",
          "name": "",
          "type": "uint256"
        }
      ],
      "name": "batches",
      "outputs": [
        {
          "internalType": "uint256",
          "name": "batchId",
          "type": "uint256"
        },
        {
          "internalType": "address",
          "name": "manufacturer",
          "type": "address"
        },
        {
          "internalType": "string",
          "name": "details",
          "type": "string"
        },
        {
          "internalType": "bool",
          "name": "qualityApproved",
          "type": "bool"
        },
        {
          "internalType": "address",
          "name": "distributor",
          "type": "address"
        },
        {
          "internalType": "bytes32",
          "name": "rfidUIDHash",
          "type": "bytes32"
        },
        {
          "internalType": "bool",
          "name": "isRecalled",
          "type": "bool"
        }
      ],
      "stateMutability": "view",
      "type": "function"
    },
    {
      "inputs": [
        {
          "internalType": "string",
          "name": "_details",
          "type": "string"
        },
        {
          "internalType": "bytes32",
          "name": "_rfidUIDHash",
          "type": "bytes32"
        }
      ],
      "name": "createBatch",
      "outputs": [],
      "stateMutability": "nonpayable",
      "type": "function"
    },
    {
      "inputs": [
        {
          "internalType": "uint256",
          "name": "_batchId",
          "type": "uint256"
        }
      ],
      "name": "disapproveQuality",
      "outputs": [],
      "stateMutability": "nonpayable",
      "type": "function"
    },
    {
      "inputs": [
        {
          "internalType": "address",
          "name": "_user",
          "type": "address"
        }
      ],
      "name": "getUserInfo",
      "outputs": [
        {
          "internalType": "string",
          "name": "companyName",
          "type": "string"
        },
        {
          "internalType": "string",
          "name": "contactInfo",
          "type": "string"
        },
        {
          "internalType": "enum PharmaChain.Role",
          "name": "role",
          "type": "uint8"
        }
      ],
      "stateMutability": "view",
      "type": "function"
    },
    {
      "inputs": [
        {
          "internalType": "address",
          "name": "_user",
          "type": "address"
        }
      ],
      "name": "getUserRole",
      "outputs": [
        {
          "internalType": "enum PharmaChain.Role",
          "name": "",
          "type": "uint8"
        }
      ],
      "stateMutability": "view",
      "type": "function"
    },
    {
      "inputs": [
        {
          "internalType": "uint256",
          "name": "_batchId",
          "type": "uint256"
        }
      ],
      "name": "isApproved",
      "outputs": [
        {
          "internalType": "bool",
          "name": "",
          "type": "bool"
        }
      ],
      "stateMutability": "view",
      "type": "function"
    },
    {
      "inputs": [
        {
          "internalType": "uint256",
          "name": "_batchId",
          "type": "uint256"
        }
      ],
      "name": "isRecalled",
      "outputs": [
        {
          "internalType": "bool",
          "name": "",
          "type": "bool"
        }
      ],
      "stateMutability": "view",
      "type": "function"
    },
    {
      "inputs": [
        {
          "internalType": "address",
          "name": "_user",
          "type": "address"
        }
      ],
      "name": "isUserRegistered",
      "outputs": [
        {
          "internalType": "bool",
          "name": "",
          "type": "bool"
        }
      ],
      "stateMutability": "view",
      "type": "function"
    },
    {
      "inputs": [],
      "name": "nextBatchId",
      "outputs": [
        {
          "internalType": "uint256",
          "name": "",
          "type": "uint256"
        }
      ],
      "stateMutability": "view",
      "type": "function"
    },
    {
      "inputs": [],
      "name": "nextUnitId",
      "outputs": [
        {
          "internalType": "uint256",
          "name": "",
          "type": "uint256"
        }
      ],
      "stateMutability": "view",
      "type": "function"
    },
    {
      "inputs": [
        {
          "internalType": "string",
          "name": "_details",
          "type": "string"
        }
      ],
      "name": "orderBatch",
      "outputs": [],
      "stateMutability": "nonpayable",
      "type": "function"
    },
    {
      "inputs": [
        {
          "internalType": "string",
          "name": "_details",
          "type": "string"
        }
      ],
      "name": "orderMedicine",
      "outputs": [],
      "stateMutability": "nonpayable",
      "type": "function"
    },
    {
      "inputs": [
        {
          "internalType": "uint256",
          "name": "_batchId",
          "type": "uint256"
        }
      ],
      "name": "recallBatch",
      "outputs": [],
      "stateMutability": "nonpayable",
      "type": "function"
    },
    {
      "inputs": [
        {
          "internalType": "address",
          "name": "_user",
          "type": "address"
        },
        {
          "internalType": "string",
          "name": "_companyName",
          "type": "string"
        },
        {
          "internalType": "enum PharmaChain.Role",
          "name": "_role",
          "type": "uint8"
        },
        {
          "internalType": "string",
          "name": "_contactInfo",
          "type": "string"
        }
      ],
      "name": "registerUser",
      "outputs": [],
      "stateMutability": "nonpayable",
      "type": "function"
    },
    {
      "inputs": [
        {
          "internalType": "uint256",
          "name": "_batchId",
          "type": "uint256"
        },
        {
          "internalType": "uint256",
          "name": "_numUnits",
          "type": "uint256"
        }
      ],
      "name": "splitBatch",
      "outputs": [],
      "stateMutability": "nonpayable",
      "type": "function"
    },
    {
      "inputs": [
        {
          "internalType": "address",
          "name": "",
          "type": "address"
        }
      ],
      "name": "users",
      "outputs": [
        {
          "internalType": "address",
          "name": "account",
          "type": "address"
        },
        {
          "internalType": "string",
          "name": "companyName",
          "type": "string"
        },
        {
          "internalType": "enum PharmaChain.Role",
          "name": "role",
          "type": "uint8"
        },
        {
          "internalType": "string",
          "name": "contactInfo",
          "type": "string"
        }
      ],
      "stateMutability": "view",
      "type": "function"
    },
    {
      "inputs": [
        {
          "internalType": "uint256",
          "name": "_batchId",
          "type": "uint256"
        },
        {
          "internalType": "bytes32",
          "name": "_rfidUIDHash",
          "type": "bytes32"
        }
      ],
      "name": "verifyRFID",
      "outputs": [],
      "stateMutability": "nonpayable",
      "type": "function"
    }
  ],
  "bytecode": "0x608060405234801561001057600080fd5b50612fdb806100206000396000f3fe608060405234801561001057600080fd5b50600436106101375760003560e01c8063769291c1116100b8578063a3ef03cd1161007c578063a3ef03cd1461034a578063a6e162b41461037d578063a87430ba14610399578063b32c4d8d146103cc578063b616e18414610402578063e5f1cb9e1461041e57610137565b8063769291c1146102a65780637910867b146102c25780637e3b128b146102f25780637e4b171f146103105780638462a7f81461032c57610137565b80633ea4a730116100ff5780633ea4a730146101f057806340388e6c1461022057806344dfc5f81461023c5780635ec14c66146102585780636386c1c71461027457610137565b80630c3d3f431461013c578063163f7522146101585780631b651daa1461018857806327820851146101a45780633d28a301146101d4575b600080fd5b61015660048036038101906101519190611e95565b61043a565b005b610172600480360381019061016d9190611ed5565b6106b5565b60405161017f9190611f1d565b60405180910390f35b6101a2600480360381019061019d919061207e565b61074f565b005b6101be60048036038101906101b99190611ed5565b61086c565b6040516101cb919061213e565b60405180910390f35b6101ee60048036038101906101e9919061217e565b6108c4565b005b61020a6004803603810190610205919061221d565b610ab8565b6040516102179190611f1d565b60405180910390f35b61023a60048036038101906102359190612280565b610ae5565b005b6102566004803603810190610251919061221d565b610b47565b005b610272600480360381019061026d91906122c0565b610d0a565b005b61028e60048036038101906102899190611ed5565b610fa4565b60405161029d9392919061239b565b60405180910390f35b6102c060048036038101906102bb9190611e95565b6111c7565b005b6102dc60048036038101906102d7919061221d565b611425565b6040516102e99190611f1d565b60405180910390f35b6102fa611452565b60405161030791906123ef565b60405180910390f35b61032a6004803603810190610325919061207e565b611458565b005b610334611576565b60405161034191906123ef565b60405180910390f35b610364600480360381019061035f919061221d565b61157c565b6040516103749493929190612419565b60405180910390f35b6103976004803603810190610392919061221d565b6115d9565b005b6103b360048036038101906103ae9190611ed5565b61179c565b6040516103c3949392919061245e565b60405180910390f35b6103e660048036038101906103e1919061221d565b611909565b6040516103f997969594939291906124c0565b60405180910390f35b61041c6004803603810190610417919061221d565b611a2d565b005b61043860048036038101906104339190612536565b611bf0565b005b6001600281111561044e5761044d6120c7565b5b6000803373ffffffffffffffffffffffffffffffffffffffff1673ffffffffffffffffffffffffffffffffffffffff16815260200190815260200160002060020160009054906101000a900460ff1660028111156104af576104ae6120c7565b5b146104ef576040517f08c379a00000000000000000000000000000000000000000000000000000000081526004016104e6906125e8565b60405180910390fd5b600280811115610502576105016120c7565b5b6000808373ffffffffffffffffffffffffffffffffffffffff1673ffffffffffffffffffffffffffffffffffffffff16815260200190815260200160002060020160009054906101000a900460ff166002811115610563576105626120c7565b5b146105a3576040517f08c379a000000000000000000000000000000000000000000000000000000000815260040161059a90612654565b60405180910390fd5b60006002600084815260200190815260200160002090508060020160149054906101000a900460ff161561060c576040517f08c379a0000000000000000000000000000000000000000000000000000000008152600401610603906126c0565b60405180910390fd5b818160020160006101000a81548173ffffffffffffffffffffffffffffffffffffffff021916908373ffffffffffffffffffffffffffffffffffffffff16021790555060018160020160146101000a81548160ff0219169083151502179055508173ffffffffffffffffffffffffffffffffffffffff16837f049c6d74a6aef836e340cf169b2e151a136a6fa1532c6c85d276d61720db77b660405160405180910390a3505050565b60008073ffffffffffffffffffffffffffffffffffffffff166000808473ffffffffffffffffffffffffffffffffffffffff1673ffffffffffffffffffffffffffffffffffffffff16815260200190815260200160002060000160009054906101000a900473ffffffffffffffffffffffffffffffffffffffff1673ffffffffffffffffffffffffffffffffffffffff1614159050919050565b600280811115610762576107616120c7565b5b6000803373ffffffffffffffffffffffffffffffffffffffff1673ffffffffffffffffffffffffffffffffffffffff16815260200190815260200160002060020160009054906101000a900460ff1660028111156107c3576107c26120c7565b5b14610803576040517f08c379a00000000000000000000000000000000000000000000000000000000081526004016107fa90612752565b60405180910390fd5b600073ffffffffffffffffffffffffffffffffffffffff163373ffffffffffffffffffffffffffffffffffffffff167f283f2b056ed079d179796495e0f924e9eca43fcfb77f6c602acfefd666edc09f836040516108619190612772565b60405180910390a350565b60008060008373ffffffffffffffffffffffffffffffffffffffff1673ffffffffffffffffffffffffffffffffffffffff16815260200190815260200160002060020160009054906101000a900460ff169050919050565b600073ffffffffffffffffffffffffffffffffffffffff168473ffffffffffffffffffffffffffffffffffffffff1603610933576040517f08c379a000000000000000000000000000000000000000000000000000000000815260040161092a906127e0565b60405180910390fd5b60405180608001604052808573ffffffffffffffffffffffffffffffffffffffff168152602001848152602001836002811115610973576109726120c7565b5b8152602001828152506000808673ffffffffffffffffffffffffffffffffffffffff1673ffffffffffffffffffffffffffffffffffffffff16815260200190815260200160002060008201518160000160006101000a81548173ffffffffffffffffffffffffffffffffffffffff021916908373ffffffffffffffffffffffffffffffffffffffff1602179055506020820151816001019081610a169190612a0c565b5060408201518160020160006101000a81548160ff02191690836002811115610a4257610a416120c7565b5b02179055506060820151816003019081610a5c9190612a0c565b509050508373ffffffffffffffffffffffffffffffffffffffff167f3a403922431a43cbc3d929f1b03869ffadab7bce01402822980e72e6ea8e9d91848484604051610aaa93929190612ade565b60405180910390a250505050565b60006001600083815260200190815260200160002060050160009054906101000a900460ff169050919050565b60006001600084815260200190815260200160002090506000828260040154149050837f94412aa9a99e932e6409190ec0819d869b10def920a0c9e0d8d82d2e643ac23f3383604051610b39929190612b23565b60405180910390a250505050565b60006002811115610b5b57610b5a6120c7565b5b6000803373ffffffffffffffffffffffffffffffffffffffff1673ffffffffffffffffffffffffffffffffffffffff16815260200190815260200160002060020160009054906101000a900460ff166002811115610bbc57610bbb6120c7565b5b14610bfc576040517f08c379a0000000000000000000000000000000000000000000000000000000008152600401610bf390612bbe565b60405180910390fd5b60006001600083815260200190815260200160002090503373ffffffffffffffffffffffffffffffffffffffff168160010160009054906101000a900473ffffffffffffffffffffffffffffffffffffffff1673ffffffffffffffffffffffffffffffffffffffff1614610ca5576040517f08c379a0000000000000000000000000000000000000000000000000000000008152600401610c9c90612c50565b60405180910390fd5b60018160030160006101000a81548160ff0219169083151502179055503373ffffffffffffffffffffffffffffffffffffffff16827f08d6065569e454b48393f44317518d1282971813504b4d323942afba2f7a2c5d60405160405180910390a35050565b60006002811115610d1e57610d1d6120c7565b5b6000803373ffffffffffffffffffffffffffffffffffffffff1673ffffffffffffffffffffffffffffffffffffffff16815260200190815260200160002060020160009054906101000a900460ff166002811115610d7f57610d7e6120c7565b5b14610dbf576040517f08c379a0000000000000000000000000000000000000000000000000000000008152600401610db690612bbe565b60405180910390fd5b600060036000815480929190610dd490612c9f565b9190505590506040518060e001604052808281526020013373ffffffffffffffffffffffffffffffffffffffff168152602001848152602001600015158152602001600073ffffffffffffffffffffffffffffffffffffffff16815260200183815260200160001515815250600160008381526020019081526020016000206000820151816000015560208201518160010160006101000a81548173ffffffffffffffffffffffffffffffffffffffff021916908373ffffffffffffffffffffffffffffffffffffffff1602179055506040820151816002019081610eb99190612a0c565b5060608201518160030160006101000a81548160ff02191690831515021790555060808201518160030160016101000a81548173ffffffffffffffffffffffffffffffffffffffff021916908373ffffffffffffffffffffffffffffffffffffffff16021790555060a0820151816004015560c08201518160050160006101000a81548160ff0219169083151502179055509050503373ffffffffffffffffffffffffffffffffffffffff16817f8b018c94e7154aafaacbe9918829d2366eabecfabf6c474f1b3e63355004656f8585604051610f97929190612ce7565b60405180910390a3505050565b6060806000806000808673ffffffffffffffffffffffffffffffffffffffff1673ffffffffffffffffffffffffffffffffffffffff1681526020019081526020016000206040518060800160405290816000820160009054906101000a900473ffffffffffffffffffffffffffffffffffffffff1673ffffffffffffffffffffffffffffffffffffffff1673ffffffffffffffffffffffffffffffffffffffff1681526020016001820180546110599061282f565b80601f01602080910402602001604051908101604052809291908181526020018280546110859061282f565b80156110d25780601f106110a7576101008083540402835291602001916110d2565b820191906000526020600020905b8154815290600101906020018083116110b557829003601f168201915b505050505081526020016002820160009054906101000a900460ff166002811115611100576110ff6120c7565b5b6002811115611112576111116120c7565b5b81526020016003820180546111269061282f565b80601f01602080910402602001604051908101604052809291908181526020018280546111529061282f565b801561119f5780601f106111745761010080835404028352916020019161119f565b820191906000526020600020905b81548152906001019060200180831161118257829003601f168201915b5050505050815250509050806020015181606001518260400151935093509350509193909250565b600060028111156111db576111da6120c7565b5b6000803373ffffffffffffffffffffffffffffffffffffffff1673ffffffffffffffffffffffffffffffffffffffff16815260200190815260200160002060020160009054906101000a900460ff16600281111561123c5761123b6120c7565b5b1461127c576040517f08c379a000000000000000000000000000000000000000000000000000000000815260040161127390612bbe565b60405180910390fd5b600160028111156112905761128f6120c7565b5b6000808373ffffffffffffffffffffffffffffffffffffffff1673ffffffffffffffffffffffffffffffffffffffff16815260200190815260200160002060020160009054906101000a900460ff1660028111156112f1576112f06120c7565b5b14611331576040517f08c379a000000000000000000000000000000000000000000000000000000000815260040161132890612d63565b60405180910390fd5b60006001600084815260200190815260200160002090508060030160009054906101000a900460ff16611399576040517f08c379a000000000000000000000000000000000000000000000000000000000815260040161139090612dcf565b60405180910390fd5b818160030160016101000a81548173ffffffffffffffffffffffffffffffffffffffff021916908373ffffffffffffffffffffffffffffffffffffffff1602179055508173ffffffffffffffffffffffffffffffffffffffff16837f8e6804b2e7bfb70fb26b5bbf7a87382c43918cd5fd77219d8846c3c4f302ad0a60405160405180910390a3505050565b60006001600083815260200190815260200160002060030160009054906101000a900460ff169050919050565b60045481565b6001600281111561146c5761146b6120c7565b5b6000803373ffffffffffffffffffffffffffffffffffffffff1673ffffffffffffffffffffffffffffffffffffffff16815260200190815260200160002060020160009054906101000a900460ff1660028111156114cd576114cc6120c7565b5b1461150d576040517f08c379a0000000000000000000000000000000000000000000000000000000008152600401611504906125e8565b60405180910390fd5b600073ffffffffffffffffffffffffffffffffffffffff163373ffffffffffffffffffffffffffffffffffffffff167f5bc9248fd6cbbd232392bfebcbb1da1b9e275f25540a6f9fa26a10bedb9817c38360405161156b9190612772565b60405180910390a350565b60035481565b60026020528060005260406000206000915090508060000154908060010154908060020160009054906101000a900473ffffffffffffffffffffffffffffffffffffffff16908060020160149054906101000a900460ff16905084565b600060028111156115ed576115ec6120c7565b5b6000803373ffffffffffffffffffffffffffffffffffffffff1673ffffffffffffffffffffffffffffffffffffffff16815260200190815260200160002060020160009054906101000a900460ff16600281111561164e5761164d6120c7565b5b1461168e576040517f08c379a000000000000000000000000000000000000000000000000000000000815260040161168590612bbe565b60405180910390fd5b60006001600083815260200190815260200160002090503373ffffffffffffffffffffffffffffffffffffffff168160010160009054906101000a900473ffffffffffffffffffffffffffffffffffffffff1673ffffffffffffffffffffffffffffffffffffffff1614611737576040517f08c379a000000000000000000000000000000000000000000000000000000000815260040161172e90612e61565b60405180910390fd5b60018160050160006101000a81548160ff0219169083151502179055503373ffffffffffffffffffffffffffffffffffffffff16827f5a41088291f050dab11b8aeaaeaa8fd33f2225751a5d64008f812e0362ef472560405160405180910390a35050565b60006020528060005260406000206000915090508060000160009054906101000a900473ffffffffffffffffffffffffffffffffffffffff16908060010180546117e59061282f565b80601f01602080910402602001604051908101604052809291908181526020018280546118119061282f565b801561185e5780601f106118335761010080835404028352916020019161185e565b820191906000526020600020905b81548152906001019060200180831161184157829003601f168201915b5050505050908060020160009054906101000a900460ff16908060030180546118869061282f565b80601f01602080910402602001604051908101604052809291908181526020018280546118b29061282f565b80156118ff5780601f106118d4576101008083540402835291602001916118ff565b820191906000526020600020905b8154815290600101906020018083116118e257829003601f168201915b5050505050905084565b60016020528060005260406000206000915090508060000154908060010160009054906101000a900473ffffffffffffffffffffffffffffffffffffffff16908060020180546119589061282f565b80601f01602080910402602001604051908101604052809291908181526020018280546119849061282f565b80156119d15780601f106119a6576101008083540402835291602001916119d1565b820191906000526020600020905b8154815290600101906020018083116119b457829003601f168201915b5050505050908060030160009054906101000a900460ff16908060030160019054906101000a900473ffffffffffffffffffffffffffffffffffffffff16908060040154908060050160009054906101000a900460ff16905087565b60006002811115611a4157611a406120c7565b5b6000803373ffffffffffffffffffffffffffffffffffffffff1673ffffffffffffffffffffffffffffffffffffffff16815260200190815260200160002060020160009054906101000a900460ff166002811115611aa257611aa16120c7565b5b14611ae2576040517f08c379a0000000000000000000000000000000000000000000000000000000008152600401611ad990612bbe565b60405180910390fd5b60006001600083815260200190815260200160002090503373ffffffffffffffffffffffffffffffffffffffff168160010160009054906101000a900473ffffffffffffffffffffffffffffffffffffffff1673ffffffffffffffffffffffffffffffffffffffff1614611b8b576040517f08c379a0000000000000000000000000000000000000000000000000000000008152600401611b8290612ef3565b60405180910390fd5b60008160030160006101000a81548160ff0219169083151502179055503373ffffffffffffffffffffffffffffffffffffffff16827fc8c94276e66e72c265ff6c7a450b182f9910586a93051227e6024c1fbceaa88e60405160405180910390a35050565b60016002811115611c0457611c036120c7565b5b6000803373ffffffffffffffffffffffffffffffffffffffff1673ffffffffffffffffffffffffffffffffffffffff16815260200190815260200160002060020160009054906101000a900460ff166002811115611c6557611c646120c7565b5b14611ca5576040517f08c379a0000000000000000000000000000000000000000000000000000000008152600401611c9c906125e8565b60405180910390fd5b60008111611ce8576040517f08c379a0000000000000000000000000000000000000000000000000000000008152600401611cdf90612f85565b60405180910390fd5b60005b81811015611de857600060046000815480929190611d0890612c9f565b9190505590506040518060800160405280828152602001858152602001600073ffffffffffffffffffffffffffffffffffffffff1681526020016000151581525060026000838152602001908152602001600020600082015181600001556020820151816001015560408201518160020160006101000a81548173ffffffffffffffffffffffffffffffffffffffff021916908373ffffffffffffffffffffffffffffffffffffffff16021790555060608201518160020160146101000a81548160ff021916908315150217905550905050508080600101915050611ceb565b505050565b6000604051905090565b600080fd5b600080fd5b6000819050919050565b611e1481611e01565b8114611e1f57600080fd5b50565b600081359050611e3181611e0b565b92915050565b600073ffffffffffffffffffffffffffffffffffffffff82169050919050565b6000611e6282611e37565b9050919050565b611e7281611e57565b8114611e7d57600080fd5b50565b600081359050611e8f81611e69565b92915050565b60008060408385031215611eac57611eab611df7565b5b6000611eba85828601611e22565b9250506020611ecb85828601611e80565b9150509250929050565b600060208284031215611eeb57611eea611df7565b5b6000611ef984828501611e80565b91505092915050565b60008115159050919050565b611f1781611f02565b82525050565b6000602082019050611f326000830184611f0e565b92915050565b600080fd5b600080fd5b6000601f19601f8301169050919050565b7f4e487b7100000000000000000000000000000000000000000000000000000000600052604160045260246000fd5b611f8b82611f42565b810181811067ffffffffffffffff82111715611faa57611fa9611f53565b5b80604052505050565b6000611fbd611ded565b9050611fc98282611f82565b919050565b600067ffffffffffffffff821115611fe957611fe8611f53565b5b611ff282611f42565b9050602081019050919050565b82818337600083830152505050565b600061202161201c84611fce565b611fb3565b90508281526020810184848401111561203d5761203c611f3d565b5b612048848285611fff565b509392505050565b600082601f83011261206557612064611f38565b5b813561207584826020860161200e565b91505092915050565b60006020828403121561209457612093611df7565b5b600082013567ffffffffffffffff8111156120b2576120b1611dfc565b5b6120be84828501612050565b91505092915050565b7f4e487b7100000000000000000000000000000000000000000000000000000000600052602160045260246000fd5b60038110612107576121066120c7565b5b50565b6000819050612118826120f6565b919050565b60006121288261210a565b9050919050565b6121388161211d565b82525050565b6000602082019050612153600083018461212f565b92915050565b6003811061216657600080fd5b50565b60008135905061217881612159565b92915050565b6000806000806080858703121561219857612197611df7565b5b60006121a687828801611e80565b945050602085013567ffffffffffffffff8111156121c7576121c6611dfc565b5b6121d387828801612050565b93505060406121e487828801612169565b925050606085013567ffffffffffffffff81111561220557612204611dfc565b5b61221187828801612050565b91505092959194509250565b60006020828403121561223357612232611df7565b5b600061224184828501611e22565b91505092915050565b6000819050919050565b61225d8161224a565b811461226857600080fd5b50565b60008135905061227a81612254565b92915050565b6000806040838503121561229757612296611df7565b5b60006122a585828601611e22565b92505060206122b68582860161226b565b9150509250929050565b600080604083850312156122d7576122d6611df7565b5b600083013567ffffffffffffffff8111156122f5576122f4611dfc565b5b61230185828601612050565b92505060206123128582860161226b565b9150509250929050565b600081519050919050565b600082825260208201905092915050565b60005b8381101561235657808201518184015260208101905061233b565b60008484015250505050565b600061236d8261231c565b6123778185612327565b9350612387818560208601612338565b61239081611f42565b840191505092915050565b600060608201905081810360008301526123b58186612362565b905081810360208301526123c98185612362565b90506123d8604083018461212f565b949350505050565b6123e981611e01565b82525050565b600060208201905061240460008301846123e0565b92915050565b61241381611e57565b82525050565b600060808201905061242e60008301876123e0565b61243b60208301866123e0565b612448604083018561240a565b6124556060830184611f0e565b95945050505050565b6000608082019050612473600083018761240a565b81810360208301526124858186612362565b9050612494604083018561212f565b81810360608301526124a68184612362565b905095945050505050565b6124ba8161224a565b82525050565b600060e0820190506124d5600083018a6123e0565b6124e2602083018961240a565b81810360408301526124f48188612362565b90506125036060830187611f0e565b612510608083018661240a565b61251d60a08301856124b1565b61252a60c0830184611f0e565b98975050505050505050565b6000806040838503121561254d5761254c611df7565b5b600061255b85828601611e22565b925050602061256c85828601611e22565b9150509250929050565b7f4f6e6c79206469737472696275746f72732063616e20706572666f726d20746860008201527f697320616374696f6e0000000000000000000000000000000000000000000000602082015250565b60006125d2602983612327565b91506125dd82612576565b604082019050919050565b60006020820190508181036000830152612601816125c5565b9050919050565b7f496e76616c69642070726f766964657200000000000000000000000000000000600082015250565b600061263e601083612327565b915061264982612608565b602082019050919050565b6000602082019050818103600083015261266d81612631565b9050919050565b7f556e697420616c72656164792061737369676e65640000000000000000000000600082015250565b60006126aa601583612327565b91506126b582612674565b602082019050919050565b600060208201905081810360008301526126d98161269d565b9050919050565b7f4f6e6c792070726f7669646572732063616e20706572666f726d20746869732060008201527f616374696f6e0000000000000000000000000000000000000000000000000000602082015250565b600061273c602683612327565b9150612747826126e0565b604082019050919050565b6000602082019050818103600083015261276b8161272f565b9050919050565b6000602082019050818103600083015261278c8184612362565b905092915050565b7f496e76616c696420616464726573730000000000000000000000000000000000600082015250565b60006127ca600f83612327565b91506127d582612794565b602082019050919050565b600060208201905081810360008301526127f9816127bd565b9050919050565b7f4e487b7100000000000000000000000000000000000000000000000000000000600052602260045260246000fd5b6000600282049050600182168061284757607f821691505b60208210810361285a57612859612800565b5b50919050565b60008190508160005260206000209050919050565b60006020601f8301049050919050565b600082821b905092915050565b6000600883026128c27fffffffffffffffffffffffffffffffffffffffffffffffffffffffffffffffff82612885565b6128cc8683612885565b95508019841693508086168417925050509392505050565b6000819050919050565b60006129096129046128ff84611e01565b6128e4565b611e01565b9050919050565b6000819050919050565b612923836128ee565b61293761292f82612910565b848454612892565b825550505050565b600090565b61294c61293f565b61295781848461291a565b505050565b5b8181101561297b57612970600082612944565b60018101905061295d565b5050565b601f8211156129c05761299181612860565b61299a84612875565b810160208510156129a9578190505b6129bd6129b585612875565b83018261295c565b50505b505050565b600082821c905092915050565b60006129e3600019846008026129c5565b1980831691505092915050565b60006129fc83836129d2565b9150826002028217905092915050565b612a158261231c565b67ffffffffffffffff811115612a2e57612a2d611f53565b5b612a38825461282f565b612a4382828561297f565b600060209050601f831160018114612a765760008415612a64578287015190505b612a6e85826129f0565b865550612ad6565b601f198416612a8486612860565b60005b82811015612aac57848901518255600182019150602085019450602081019050612a87565b86831015612ac95784890151612ac5601f8916826129d2565b8355505b6001600288020188555050505b505050505050565b60006060820190508181036000830152612af88186612362565b9050612b07602083018561212f565b8181036040830152612b198184612362565b9050949350505050565b6000604082019050612b38600083018561240a565b612b456020830184611f0e565b9392505050565b7f4f6e6c79206d616e756661637475726572732063616e20706572666f726d207460008201527f68697320616374696f6e00000000000000000000000000000000000000000000602082015250565b6000612ba8602a83612327565b9150612bb382612b4c565b604082019050919050565b60006020820190508181036000830152612bd781612b9b565b9050919050565b7f4f6e6c7920746865206d616e7566616374757265722063616e20617070726f7660008201527f65207175616c6974790000000000000000000000000000000000000000000000602082015250565b6000612c3a602983612327565b9150612c4582612bde565b604082019050919050565b60006020820190508181036000830152612c6981612c2d565b9050919050565b7f4e487b7100000000000000000000000000000000000000000000000000000000600052601160045260246000fd5b6000612caa82611e01565b91507fffffffffffffffffffffffffffffffffffffffffffffffffffffffffffffffff8203612cdc57612cdb612c70565b5b600182019050919050565b60006040820190508181036000830152612d018185612362565b9050612d1060208301846124b1565b9392505050565b7f496e76616c6964206469737472696275746f7200000000000000000000000000600082015250565b6000612d4d601383612327565b9150612d5882612d17565b602082019050919050565b60006020820190508181036000830152612d7c81612d40565b9050919050565b7f4261746368206d757374206265207175616c69747920617070726f7665640000600082015250565b6000612db9601e83612327565b9150612dc482612d83565b602082019050919050565b60006020820190508181036000830152612de881612dac565b9050919050565b7f4f6e6c7920746865206d616e7566616374757265722063616e20726563616c6c60008201527f2074686520626174636800000000000000000000000000000000000000000000602082015250565b6000612e4b602a83612327565b9150612e5682612def565b604082019050919050565b60006020820190508181036000830152612e7a81612e3e565b9050919050565b7f4f6e6c7920746865206d616e7566616374757265722063616e2064697361707060008201527f726f7665207175616c6974790000000000000000000000000000000000000000602082015250565b6000612edd602c83612327565b9150612ee882612e81565b604082019050919050565b60006020820190508181036000830152612f0c81612ed0565b9050919050565b7f4e756d626572206f6620756e697473206d75737420626520677265617465722060008201527f7468616e207a65726f0000000000000000000000000000000000000000000000602082015250565b6000612f6f602983612327565b9150612f7a82612f13565b604082019050919050565b60006020820190508181036000830152612f9e81612f62565b905091905056fea264697066735822122047e8c4124327966814fb095e351c3f163db9d06baff0ecdb736e88bc0e9564df64736f6c63430008180033",
  "linkReferences": {},
  "deployedLinkReferences": {}
}