{
  "_format": "hh-sol-artifact-1",
  "contractName": "PharmaChain",
  "sourceName": "contracts/PharmaChain.sol",
  "abi": [
    {
      "anonymous": false,
      "inputs": [
        {
          "indexed": true,
          "internalType": "uint256",
          "name": "batchId",
          "type": "uint256"
        },
        {
          "indexed": true,
          "internalType": "address",
          "name": "distributor",
          "type": "address"
        }
      ],
      "name": "BatchAssignedToDistributor",
      "type": "event"
    },
    {
      "anonymous": false,
      "inputs": [
        {
          "indexed": true,
          "internalType": "uint256",
          "name": "batchId",
          "type": "uint256"
        },
        {
          "indexed": true,
          "internalType": "address",
          "name": "manufacturer",
          "type": "address"
        },
        {
          "indexed": false,
          "internalType": "string",
          "name": "details",
          "type": "string"
        },
        {
          "indexed": false,
          "internalType": "bytes32",
          "name": "rfidUIDHash",
          "type": "bytes32"
        }
      ],
      "name": "BatchCreated",
      "type": "event"
    },
    {
      "anonymous": false,
      "inputs": [
        {
          "indexed": true,
          "internalType": "address",
          "name": "distributor",
          "type": "address"
        },
        {
          "indexed": true,
          "internalType": "address",
          "name": "manufacturer",
          "type": "address"
        },
        {
          "indexed": false,
          "internalType": "string",
          "name": "details",
          "type": "string"
        }
      ],
      "name": "BatchOrdered",
      "type": "event"
    },
    {
      "anonymous": false,
      "inputs": [
        {
          "indexed": true,
          "internalType": "uint256",
          "name": "batchId",
          "type": "uint256"
        },
        {
          "indexed": true,
          "internalType": "address",
          "name": "initiator",
          "type": "address"
        }
      ],
      "name": "BatchRecalled",
      "type": "event"
    },
    {
      "anonymous": false,
      "inputs": [
        {
          "indexed": true,
          "internalType": "uint256",
          "name": "unitId",
          "type": "uint256"
        },
        {
          "indexed": true,
          "internalType": "address",
          "name": "provider",
          "type": "address"
        }
      ],
      "name": "BatchUnitAssignedToProvider",
      "type": "event"
    },
    {
      "anonymous": false,
      "inputs": [
        {
          "indexed": true,
          "internalType": "address",
          "name": "provider",
          "type": "address"
        },
        {
          "indexed": true,
          "internalType": "address",
          "name": "distributor",
          "type": "address"
        },
        {
          "indexed": false,
          "internalType": "string",
          "name": "details",
          "type": "string"
        }
      ],
      "name": "MedicineOrdered",
      "type": "event"
    },
    {
      "anonymous": false,
      "inputs": [
        {
          "indexed": true,
          "internalType": "uint256",
          "name": "batchId",
          "type": "uint256"
        },
        {
          "indexed": true,
          "internalType": "address",
          "name": "approver",
          "type": "address"
        }
      ],
      "name": "QualityApproved",
      "type": "event"
    },
    {
      "anonymous": false,
      "inputs": [
        {
          "indexed": true,
          "internalType": "uint256",
          "name": "batchId",
          "type": "uint256"
        },
        {
          "indexed": true,
          "internalType": "address",
          "name": "disapprover",
          "type": "address"
        }
      ],
      "name": "QualityDisapproved",
      "type": "event"
    },
    {
      "anonymous": false,
      "inputs": [
        {
          "indexed": true,
          "internalType": "uint256",
          "name": "batchId",
          "type": "uint256"
        },
        {
          "indexed": false,
          "internalType": "address",
          "name": "verifier",
          "type": "address"
        },
        {
          "indexed": false,
          "internalType": "bool",
          "name": "verified",
          "type": "bool"
        }
      ],
      "name": "RFIDVerified",
      "type": "event"
    },
    {
      "anonymous": false,
      "inputs": [
        {
          "indexed": true,
          "internalType": "address",
          "name": "user",
          "type": "address"
        },
        {
          "indexed": false,
          "internalType": "enum PharmaChain.Role",
          "name": "role",
          "type": "uint8"
        },
        {
          "indexed": false,
          "internalType": "bool",
          "name": "isSubAccount",
          "type": "bool"
        },
        {
          "indexed": false,
          "internalType": "address",
          "name": "masterAccount",
          "type": "address"
        },
        {
          "indexed": false,
          "internalType": "enum PharmaChain.DistributionType",
          "name": "distributionType",
          "type": "uint8"
        }
      ],
      "name": "UserRegistered",
      "type": "event"
    },
    {
      "inputs": [
        {
          "internalType": "uint256",
          "name": "_batchId",
          "type": "uint256"
        }
      ],
      "name": "approveQuality",
      "outputs": [],
      "stateMutability": "nonpayable",
      "type": "function"
    },
    {
      "inputs": [
        {
          "internalType": "uint256",
          "name": "_batchId",
          "type": "uint256"
        },
        {
          "internalType": "address",
          "name": "_distributor",
          "type": "address"
        }
      ],
      "name": "assignInHouseDistributor",
      "outputs": [],
      "stateMutability": "nonpayable",
      "type": "function"
    },
    {
      "inputs": [
        {
          "internalType": "uint256",
          "name": "_batchId",
          "type": "uint256"
        },
        {
          "internalType": "address",
          "name": "_distributor",
          "type": "address"
        }
      ],
      "name": "assignToDistributor",
      "outputs": [],
      "stateMutability": "nonpayable",
      "type": "function"
    },
    {
      "inputs": [
        {
          "internalType": "uint256",
          "name": "_unitId",
          "type": "uint256"
        },
        {
          "internalType": "address",
          "name": "_provider",
          "type": "address"
        }
      ],
      "name": "assignUnitToProvider",
      "outputs": [],
      "stateMutability": "nonpayable",
      "type": "function"
    },
    {
      "inputs": [
        {
          "internalType": "uint256",
          "name": "",
          "type": "uint256"
        }
      ],
      "name": "batchUnits",
      "outputs": [
        {
          "internalType": "uint256",
          "name": "unitId",
          "type": "uint256"
        },
        {
          "internalType": "uint256",
          "name": "batchId",
          "type": "uint256"
        },
        {
          "internalType": "address",
          "name": "provider",
          "type": "address"
        },
        {
          "internalType": "bool",
          "name": "isAssigned",
          "type": "bool"
        }
      ],
      "stateMutability": "view",
      "type": "function"
    },
    {
      "inputs": [
        {
          "internalType": "uint256",
          "name": "",
          "type": "uint256"
        }
      ],
      "name": "batches",
      "outputs": [
        {
          "internalType": "uint256",
          "name": "batchId",
          "type": "uint256"
        },
        {
          "internalType": "address",
          "name": "manufacturer",
          "type": "address"
        },
        {
          "internalType": "string",
          "name": "details",
          "type": "string"
        },
        {
          "internalType": "bool",
          "name": "qualityApproved",
          "type": "bool"
        },
        {
          "internalType": "address",
          "name": "distributor",
          "type": "address"
        },
        {
          "internalType": "bytes32",
          "name": "rfidUIDHash",
          "type": "bytes32"
        },
        {
          "internalType": "bool",
          "name": "isRecalled",
          "type": "bool"
        }
      ],
      "stateMutability": "view",
      "type": "function"
    },
    {
      "inputs": [
        {
          "internalType": "string",
          "name": "_details",
          "type": "string"
        },
        {
          "internalType": "bytes32",
          "name": "_rfidUIDHash",
          "type": "bytes32"
        }
      ],
      "name": "createBatch",
      "outputs": [],
      "stateMutability": "nonpayable",
      "type": "function"
    },
    {
      "inputs": [
        {
          "internalType": "uint256",
          "name": "_batchId",
          "type": "uint256"
        }
      ],
      "name": "disapproveQuality",
      "outputs": [],
      "stateMutability": "nonpayable",
      "type": "function"
    },
    {
      "inputs": [
        {
          "internalType": "address",
          "name": "_user",
          "type": "address"
        }
      ],
      "name": "getUserRole",
      "outputs": [
        {
          "internalType": "enum PharmaChain.Role",
          "name": "",
          "type": "uint8"
        }
      ],
      "stateMutability": "view",
      "type": "function"
    },
    {
      "inputs": [
        {
          "internalType": "uint256",
          "name": "_batchId",
          "type": "uint256"
        }
      ],
      "name": "isApproved",
      "outputs": [
        {
          "internalType": "bool",
          "name": "",
          "type": "bool"
        }
      ],
      "stateMutability": "view",
      "type": "function"
    },
    {
      "inputs": [
        {
          "internalType": "uint256",
          "name": "_batchId",
          "type": "uint256"
        }
      ],
      "name": "isRecalled",
      "outputs": [
        {
          "internalType": "bool",
          "name": "",
          "type": "bool"
        }
      ],
      "stateMutability": "view",
      "type": "function"
    },
    {
      "inputs": [
        {
          "internalType": "address",
          "name": "_user",
          "type": "address"
        }
      ],
      "name": "isUserMasterAccount",
      "outputs": [
        {
          "internalType": "bool",
          "name": "",
          "type": "bool"
        }
      ],
      "stateMutability": "view",
      "type": "function"
    },
    {
      "inputs": [
        {
          "internalType": "address",
          "name": "_user",
          "type": "address"
        }
      ],
      "name": "isUserRegistered",
      "outputs": [
        {
          "internalType": "bool",
          "name": "",
          "type": "bool"
        }
      ],
      "stateMutability": "view",
      "type": "function"
    },
    {
      "inputs": [
        {
          "internalType": "address",
          "name": "_user",
          "type": "address"
        }
      ],
      "name": "isUserSubAccount",
      "outputs": [
        {
          "internalType": "bool",
          "name": "",
          "type": "bool"
        }
      ],
      "stateMutability": "view",
      "type": "function"
    },
    {
      "inputs": [],
      "name": "nextBatchId",
      "outputs": [
        {
          "internalType": "uint256",
          "name": "",
          "type": "uint256"
        }
      ],
      "stateMutability": "view",
      "type": "function"
    },
    {
      "inputs": [],
      "name": "nextUnitId",
      "outputs": [
        {
          "internalType": "uint256",
          "name": "",
          "type": "uint256"
        }
      ],
      "stateMutability": "view",
      "type": "function"
    },
    {
      "inputs": [
        {
          "internalType": "string",
          "name": "_details",
          "type": "string"
        }
      ],
      "name": "orderBatch",
      "outputs": [],
      "stateMutability": "nonpayable",
      "type": "function"
    },
    {
      "inputs": [
        {
          "internalType": "string",
          "name": "_details",
          "type": "string"
        }
      ],
      "name": "orderMedicine",
      "outputs": [],
      "stateMutability": "nonpayable",
      "type": "function"
    },
    {
      "inputs": [
        {
          "internalType": "uint256",
          "name": "_batchId",
          "type": "uint256"
        }
      ],
      "name": "recallBatch",
      "outputs": [],
      "stateMutability": "nonpayable",
      "type": "function"
    },
    {
      "inputs": [
        {
          "internalType": "address",
          "name": "_user",
          "type": "address"
        },
        {
          "internalType": "enum PharmaChain.Role",
          "name": "_role",
          "type": "uint8"
        },
        {
          "internalType": "bool",
          "name": "_isSubAccount",
          "type": "bool"
        },
        {
          "internalType": "address",
          "name": "_masterAccount",
          "type": "address"
        },
        {
          "internalType": "enum PharmaChain.DistributionType",
          "name": "_distributionType",
          "type": "uint8"
        }
      ],
      "name": "registerUser",
      "outputs": [],
      "stateMutability": "nonpayable",
      "type": "function"
    },
    {
      "inputs": [
        {
          "internalType": "uint256",
          "name": "_batchId",
          "type": "uint256"
        },
        {
          "internalType": "uint256",
          "name": "_numUnits",
          "type": "uint256"
        }
      ],
      "name": "splitBatch",
      "outputs": [],
      "stateMutability": "nonpayable",
      "type": "function"
    },
    {
      "inputs": [
        {
          "internalType": "address",
          "name": "",
          "type": "address"
        }
      ],
      "name": "users",
      "outputs": [
        {
          "internalType": "address",
          "name": "account",
          "type": "address"
        },
        {
          "internalType": "enum PharmaChain.Role",
          "name": "role",
          "type": "uint8"
        },
        {
          "internalType": "bool",
          "name": "isSubAccount",
          "type": "bool"
        },
        {
          "internalType": "address",
          "name": "masterAccount",
          "type": "address"
        },
        {
          "internalType": "enum PharmaChain.DistributionType",
          "name": "distributionType",
          "type": "uint8"
        }
      ],
      "stateMutability": "view",
      "type": "function"
    },
    {
      "inputs": [
        {
          "internalType": "uint256",
          "name": "_batchId",
          "type": "uint256"
        },
        {
          "internalType": "bytes32",
          "name": "_rfidUIDHash",
          "type": "bytes32"
        }
      ],
      "name": "verifyRFID",
      "outputs": [],
      "stateMutability": "nonpayable",
      "type": "function"
    }
  ],
  "bytecode": "0x608060405234801561001057600080fd5b506135cf806100206000396000f3fe608060405234801561001057600080fd5b506004361061014d5760003560e01c80637910867b116100c3578063a6e162b41161007c578063a6e162b4146103ad578063a87430ba146103c9578063adf43083146103fd578063b32c4d8d1461042d578063b616e18414610463578063e5f1cb9e1461047f5761014d565b80637910867b146102d65780637e3b128b146103065780637e4b171f146103245780638462a7f81461034057806390019eb11461035e578063a3ef03cd1461037a5761014d565b80633ea4a730116101155780633ea4a7301461020657806340388e6c1461023657806344dfc5f81461025257806354ec7b3c1461026e5780635ec14c661461029e578063769291c1146102ba5761014d565b80630c3d3f431461015257806313b021491461016e578063163f75221461018a5780631b651daa146101ba57806327820851146101d6575b600080fd5b61016c6004803603810190610167919061235b565b61049b565b005b6101886004803603810190610183919061241d565b610716565b005b6101a4600480360381019061019f9190612498565b610a64565b6040516101b191906124d4565b60405180910390f35b6101d460048036038101906101cf9190612635565b610afe565b005b6101f060048036038101906101eb9190612498565b610c1b565b6040516101fd91906126f5565b60405180910390f35b610220600480360381019061021b9190612710565b610c73565b60405161022d91906124d4565b60405180910390f35b610250600480360381019061024b9190612773565b610ca0565b005b61026c60048036038101906102679190612710565b610d02565b005b61028860048036038101906102839190612498565b610f80565b60405161029591906124d4565b60405180910390f35b6102b860048036038101906102b391906127b3565b610fd8565b005b6102d460048036038101906102cf919061235b565b611272565b005b6102f060048036038101906102eb9190612710565b6114d0565b6040516102fd91906124d4565b60405180910390f35b61030e6114fd565b60405161031b919061281e565b60405180910390f35b61033e60048036038101906103399190612635565b611503565b005b610348611621565b604051610355919061281e565b60405180910390f35b6103786004803603810190610373919061235b565b611627565b005b610394600480360381019061038f9190612710565b611903565b6040516103a49493929190612848565b60405180910390f35b6103c760048036038101906103c29190612710565b611960565b005b6103e360048036038101906103de9190612498565b611bde565b6040516103f49594939291906128d5565b60405180910390f35b61041760048036038101906104129190612498565b611c7b565b60405161042491906124d4565b60405180910390f35b61044760048036038101906104429190612710565b611d14565b60405161045a97969594939291906129b6565b60405180910390f35b61047d60048036038101906104789190612710565b611e38565b005b61049960048036038101906104949190612a2c565b6120b6565b005b600160028111156104af576104ae61267e565b5b6000803373ffffffffffffffffffffffffffffffffffffffff1673ffffffffffffffffffffffffffffffffffffffff16815260200190815260200160002060000160149054906101000a900460ff1660028111156105105761050f61267e565b5b14610550576040517f08c379a000000000000000000000000000000000000000000000000000000000815260040161054790612ade565b60405180910390fd5b6002808111156105635761056261267e565b5b6000808373ffffffffffffffffffffffffffffffffffffffff1673ffffffffffffffffffffffffffffffffffffffff16815260200190815260200160002060000160149054906101000a900460ff1660028111156105c4576105c361267e565b5b14610604576040517f08c379a00000000000000000000000000000000000000000000000000000000081526004016105fb90612b4a565b60405180910390fd5b60006002600084815260200190815260200160002090508060020160149054906101000a900460ff161561066d576040517f08c379a000000000000000000000000000000000000000000000000000000000815260040161066490612bb6565b60405180910390fd5b818160020160006101000a81548173ffffffffffffffffffffffffffffffffffffffff021916908373ffffffffffffffffffffffffffffffffffffffff16021790555060018160020160146101000a81548160ff0219169083151502179055508173ffffffffffffffffffffffffffffffffffffffff16837f049c6d74a6aef836e340cf169b2e151a136a6fa1532c6c85d276d61720db77b660405160405180910390a3505050565b600073ffffffffffffffffffffffffffffffffffffffff168573ffffffffffffffffffffffffffffffffffffffff1603610785576040517f08c379a000000000000000000000000000000000000000000000000000000000815260040161077c90612c22565b60405180910390fd5b8215610841576000600281111561079f5761079e61267e565b5b6000808473ffffffffffffffffffffffffffffffffffffffff1673ffffffffffffffffffffffffffffffffffffffff16815260200190815260200160002060000160149054906101000a900460ff166002811115610800576107ff61267e565b5b14610840576040517f08c379a000000000000000000000000000000000000000000000000000000000815260040161083790612cb4565b60405180910390fd5b5b6040518060a001604052808673ffffffffffffffffffffffffffffffffffffffff16815260200185600281111561087b5761087a61267e565b5b815260200184151581526020018373ffffffffffffffffffffffffffffffffffffffff1681526020018260018111156108b7576108b661267e565b5b8152506000808773ffffffffffffffffffffffffffffffffffffffff1673ffffffffffffffffffffffffffffffffffffffff16815260200190815260200160002060008201518160000160006101000a81548173ffffffffffffffffffffffffffffffffffffffff021916908373ffffffffffffffffffffffffffffffffffffffff16021790555060208201518160000160146101000a81548160ff0219169083600281111561096a5761096961267e565b5b021790555060408201518160000160156101000a81548160ff02191690831515021790555060608201518160010160006101000a81548173ffffffffffffffffffffffffffffffffffffffff021916908373ffffffffffffffffffffffffffffffffffffffff16021790555060808201518160010160146101000a81548160ff02191690836001811115610a0157610a0061267e565b5b02179055509050508473ffffffffffffffffffffffffffffffffffffffff167f625bff9efb540c204404ae231a968136cc49833626689ee6af798b6ee987540585858585604051610a559493929190612cd4565b60405180910390a25050505050565b60008073ffffffffffffffffffffffffffffffffffffffff166000808473ffffffffffffffffffffffffffffffffffffffff1673ffffffffffffffffffffffffffffffffffffffff16815260200190815260200160002060000160009054906101000a900473ffffffffffffffffffffffffffffffffffffffff1673ffffffffffffffffffffffffffffffffffffffff1614159050919050565b600280811115610b1157610b1061267e565b5b6000803373ffffffffffffffffffffffffffffffffffffffff1673ffffffffffffffffffffffffffffffffffffffff16815260200190815260200160002060000160149054906101000a900460ff166002811115610b7257610b7161267e565b5b14610bb2576040517f08c379a0000000000000000000000000000000000000000000000000000000008152600401610ba990612d8b565b60405180910390fd5b600073ffffffffffffffffffffffffffffffffffffffff163373ffffffffffffffffffffffffffffffffffffffff167f283f2b056ed079d179796495e0f924e9eca43fcfb77f6c602acfefd666edc09f83604051610c109190612dab565b60405180910390a350565b60008060008373ffffffffffffffffffffffffffffffffffffffff1673ffffffffffffffffffffffffffffffffffffffff16815260200190815260200160002060000160149054906101000a900460ff169050919050565b60006001600083815260200190815260200160002060050160009054906101000a900460ff169050919050565b60006001600084815260200190815260200160002090506000828260040154149050837f94412aa9a99e932e6409190ec0819d869b10def920a0c9e0d8d82d2e643ac23f3383604051610cf4929190612dcd565b60405180910390a250505050565b60006002811115610d1657610d1561267e565b5b6000803373ffffffffffffffffffffffffffffffffffffffff1673ffffffffffffffffffffffffffffffffffffffff16815260200190815260200160002060000160149054906101000a900460ff166002811115610d7757610d7661267e565b5b14610db7576040517f08c379a0000000000000000000000000000000000000000000000000000000008152600401610dae90612e68565b60405180910390fd5b60006001600083815260200190815260200160002090503373ffffffffffffffffffffffffffffffffffffffff168160010160009054906101000a900473ffffffffffffffffffffffffffffffffffffffff1673ffffffffffffffffffffffffffffffffffffffff161480610edc57508060010160009054906101000a900473ffffffffffffffffffffffffffffffffffffffff1673ffffffffffffffffffffffffffffffffffffffff166000803373ffffffffffffffffffffffffffffffffffffffff1673ffffffffffffffffffffffffffffffffffffffff16815260200190815260200160002060010160009054906101000a900473ffffffffffffffffffffffffffffffffffffffff1673ffffffffffffffffffffffffffffffffffffffff16145b610f1b576040517f08c379a0000000000000000000000000000000000000000000000000000000008152600401610f1290612efa565b60405180910390fd5b60018160030160006101000a81548160ff0219169083151502179055503373ffffffffffffffffffffffffffffffffffffffff16827f08d6065569e454b48393f44317518d1282971813504b4d323942afba2f7a2c5d60405160405180910390a35050565b60008060008373ffffffffffffffffffffffffffffffffffffffff1673ffffffffffffffffffffffffffffffffffffffff16815260200190815260200160002060000160159054906101000a900460ff169050919050565b60006002811115610fec57610feb61267e565b5b6000803373ffffffffffffffffffffffffffffffffffffffff1673ffffffffffffffffffffffffffffffffffffffff16815260200190815260200160002060000160149054906101000a900460ff16600281111561104d5761104c61267e565b5b1461108d576040517f08c379a000000000000000000000000000000000000000000000000000000000815260040161108490612e68565b60405180910390fd5b6000600360008154809291906110a290612f49565b9190505590506040518060e001604052808281526020013373ffffffffffffffffffffffffffffffffffffffff168152602001848152602001600015158152602001600073ffffffffffffffffffffffffffffffffffffffff16815260200183815260200160001515815250600160008381526020019081526020016000206000820151816000015560208201518160010160006101000a81548173ffffffffffffffffffffffffffffffffffffffff021916908373ffffffffffffffffffffffffffffffffffffffff1602179055506040820151816002019081611187919061319d565b5060608201518160030160006101000a81548160ff02191690831515021790555060808201518160030160016101000a81548173ffffffffffffffffffffffffffffffffffffffff021916908373ffffffffffffffffffffffffffffffffffffffff16021790555060a0820151816004015560c08201518160050160006101000a81548160ff0219169083151502179055509050503373ffffffffffffffffffffffffffffffffffffffff16817f8b018c94e7154aafaacbe9918829d2366eabecfabf6c474f1b3e63355004656f858560405161126592919061326f565b60405180910390a3505050565b600060028111156112865761128561267e565b5b6000803373ffffffffffffffffffffffffffffffffffffffff1673ffffffffffffffffffffffffffffffffffffffff16815260200190815260200160002060000160149054906101000a900460ff1660028111156112e7576112e661267e565b5b14611327576040517f08c379a000000000000000000000000000000000000000000000000000000000815260040161131e90612e68565b60405180910390fd5b6001600281111561133b5761133a61267e565b5b6000808373ffffffffffffffffffffffffffffffffffffffff1673ffffffffffffffffffffffffffffffffffffffff16815260200190815260200160002060000160149054906101000a900460ff16600281111561139c5761139b61267e565b5b146113dc576040517f08c379a00000000000000000000000000000000000000000000000000000000081526004016113d3906132eb565b60405180910390fd5b60006001600084815260200190815260200160002090508060030160009054906101000a900460ff16611444576040517f08c379a000000000000000000000000000000000000000000000000000000000815260040161143b90613357565b60405180910390fd5b818160030160016101000a81548173ffffffffffffffffffffffffffffffffffffffff021916908373ffffffffffffffffffffffffffffffffffffffff1602179055508173ffffffffffffffffffffffffffffffffffffffff16837f8e6804b2e7bfb70fb26b5bbf7a87382c43918cd5fd77219d8846c3c4f302ad0a60405160405180910390a3505050565b60006001600083815260200190815260200160002060030160009054906101000a900460ff169050919050565b60045481565b600160028111156115175761151661267e565b5b6000803373ffffffffffffffffffffffffffffffffffffffff1673ffffffffffffffffffffffffffffffffffffffff16815260200190815260200160002060000160149054906101000a900460ff1660028111156115785761157761267e565b5b146115b8576040517f08c379a00000000000000000000000000000000000000000000000000000000081526004016115af90612ade565b60405180910390fd5b600073ffffffffffffffffffffffffffffffffffffffff163373ffffffffffffffffffffffffffffffffffffffff167f5bc9248fd6cbbd232392bfebcbb1da1b9e275f25540a6f9fa26a10bedb9817c3836040516116169190612dab565b60405180910390a350565b60035481565b6000600281111561163b5761163a61267e565b5b6000803373ffffffffffffffffffffffffffffffffffffffff1673ffffffffffffffffffffffffffffffffffffffff16815260200190815260200160002060000160149054906101000a900460ff16600281111561169c5761169b61267e565b5b146116dc576040517f08c379a00000000000000000000000000000000000000000000000000000000081526004016116d390612e68565b60405180910390fd5b60006001600084815260200190815260200160002090508060030160009054906101000a900460ff16611744576040517f08c379a000000000000000000000000000000000000000000000000000000000815260040161173b90613357565b60405180910390fd5b600060028111156117585761175761267e565b5b6000808473ffffffffffffffffffffffffffffffffffffffff1673ffffffffffffffffffffffffffffffffffffffff16815260200190815260200160002060000160149054906101000a900460ff1660028111156117b9576117b861267e565b5b1480156118385750600060018111156117d5576117d461267e565b5b6000808473ffffffffffffffffffffffffffffffffffffffff1673ffffffffffffffffffffffffffffffffffffffff16815260200190815260200160002060010160149054906101000a900460ff1660018111156118365761183561267e565b5b145b611877576040517f08c379a000000000000000000000000000000000000000000000000000000000815260040161186e906133c3565b60405180910390fd5b818160030160016101000a81548173ffffffffffffffffffffffffffffffffffffffff021916908373ffffffffffffffffffffffffffffffffffffffff1602179055508173ffffffffffffffffffffffffffffffffffffffff16837f8e6804b2e7bfb70fb26b5bbf7a87382c43918cd5fd77219d8846c3c4f302ad0a60405160405180910390a3505050565b60026020528060005260406000206000915090508060000154908060010154908060020160009054906101000a900473ffffffffffffffffffffffffffffffffffffffff16908060020160149054906101000a900460ff16905084565b600060028111156119745761197361267e565b5b6000803373ffffffffffffffffffffffffffffffffffffffff1673ffffffffffffffffffffffffffffffffffffffff16815260200190815260200160002060000160149054906101000a900460ff1660028111156119d5576119d461267e565b5b14611a15576040517f08c379a0000000000000000000000000000000000000000000000000000000008152600401611a0c90612e68565b60405180910390fd5b60006001600083815260200190815260200160002090503373ffffffffffffffffffffffffffffffffffffffff168160010160009054906101000a900473ffffffffffffffffffffffffffffffffffffffff1673ffffffffffffffffffffffffffffffffffffffff161480611b3a57508060010160009054906101000a900473ffffffffffffffffffffffffffffffffffffffff1673ffffffffffffffffffffffffffffffffffffffff166000803373ffffffffffffffffffffffffffffffffffffffff1673ffffffffffffffffffffffffffffffffffffffff16815260200190815260200160002060010160009054906101000a900473ffffffffffffffffffffffffffffffffffffffff1673ffffffffffffffffffffffffffffffffffffffff16145b611b79576040517f08c379a0000000000000000000000000000000000000000000000000000000008152600401611b7090613455565b60405180910390fd5b60018160050160006101000a81548160ff0219169083151502179055503373ffffffffffffffffffffffffffffffffffffffff16827f5a41088291f050dab11b8aeaaeaa8fd33f2225751a5d64008f812e0362ef472560405160405180910390a35050565b60006020528060005260406000206000915090508060000160009054906101000a900473ffffffffffffffffffffffffffffffffffffffff16908060000160149054906101000a900460ff16908060000160159054906101000a900460ff16908060010160009054906101000a900473ffffffffffffffffffffffffffffffffffffffff16908060010160149054906101000a900460ff16905085565b60008173ffffffffffffffffffffffffffffffffffffffff166000808473ffffffffffffffffffffffffffffffffffffffff1673ffffffffffffffffffffffffffffffffffffffff16815260200190815260200160002060010160009054906101000a900473ffffffffffffffffffffffffffffffffffffffff1673ffffffffffffffffffffffffffffffffffffffff16149050919050565b60016020528060005260406000206000915090508060000154908060010160009054906101000a900473ffffffffffffffffffffffffffffffffffffffff1690806002018054611d6390612fc0565b80601f0160208091040260200160405190810160405280929190818152602001828054611d8f90612fc0565b8015611ddc5780601f10611db157610100808354040283529160200191611ddc565b820191906000526020600020905b815481529060010190602001808311611dbf57829003601f168201915b5050505050908060030160009054906101000a900460ff16908060030160019054906101000a900473ffffffffffffffffffffffffffffffffffffffff16908060040154908060050160009054906101000a900460ff16905087565b60006002811115611e4c57611e4b61267e565b5b6000803373ffffffffffffffffffffffffffffffffffffffff1673ffffffffffffffffffffffffffffffffffffffff16815260200190815260200160002060000160149054906101000a900460ff166002811115611ead57611eac61267e565b5b14611eed576040517f08c379a0000000000000000000000000000000000000000000000000000000008152600401611ee490612e68565b60405180910390fd5b60006001600083815260200190815260200160002090503373ffffffffffffffffffffffffffffffffffffffff168160010160009054906101000a900473ffffffffffffffffffffffffffffffffffffffff1673ffffffffffffffffffffffffffffffffffffffff16148061201257508060010160009054906101000a900473ffffffffffffffffffffffffffffffffffffffff1673ffffffffffffffffffffffffffffffffffffffff166000803373ffffffffffffffffffffffffffffffffffffffff1673ffffffffffffffffffffffffffffffffffffffff16815260200190815260200160002060010160009054906101000a900473ffffffffffffffffffffffffffffffffffffffff1673ffffffffffffffffffffffffffffffffffffffff16145b612051576040517f08c379a0000000000000000000000000000000000000000000000000000000008152600401612048906134e7565b60405180910390fd5b60008160030160006101000a81548160ff0219169083151502179055503373ffffffffffffffffffffffffffffffffffffffff16827fc8c94276e66e72c265ff6c7a450b182f9910586a93051227e6024c1fbceaa88e60405160405180910390a35050565b600160028111156120ca576120c961267e565b5b6000803373ffffffffffffffffffffffffffffffffffffffff1673ffffffffffffffffffffffffffffffffffffffff16815260200190815260200160002060000160149054906101000a900460ff16600281111561212b5761212a61267e565b5b1461216b576040517f08c379a000000000000000000000000000000000000000000000000000000000815260040161216290612ade565b60405180910390fd5b600081116121ae576040517f08c379a00000000000000000000000000000000000000000000000000000000081526004016121a590613579565b60405180910390fd5b60005b818110156122ae576000600460008154809291906121ce90612f49565b9190505590506040518060800160405280828152602001858152602001600073ffffffffffffffffffffffffffffffffffffffff1681526020016000151581525060026000838152602001908152602001600020600082015181600001556020820151816001015560408201518160020160006101000a81548173ffffffffffffffffffffffffffffffffffffffff021916908373ffffffffffffffffffffffffffffffffffffffff16021790555060608201518160020160146101000a81548160ff0219169083151502179055509050505080806001019150506121b1565b505050565b6000604051905090565b600080fd5b600080fd5b6000819050919050565b6122da816122c7565b81146122e557600080fd5b50565b6000813590506122f7816122d1565b92915050565b600073ffffffffffffffffffffffffffffffffffffffff82169050919050565b6000612328826122fd565b9050919050565b6123388161231d565b811461234357600080fd5b50565b6000813590506123558161232f565b92915050565b60008060408385031215612372576123716122bd565b5b6000612380858286016122e8565b925050602061239185828601612346565b9150509250929050565b600381106123a857600080fd5b50565b6000813590506123ba8161239b565b92915050565b60008115159050919050565b6123d5816123c0565b81146123e057600080fd5b50565b6000813590506123f2816123cc565b92915050565b6002811061240557600080fd5b50565b600081359050612417816123f8565b92915050565b600080600080600060a08688031215612439576124386122bd565b5b600061244788828901612346565b9550506020612458888289016123ab565b9450506040612469888289016123e3565b935050606061247a88828901612346565b925050608061248b88828901612408565b9150509295509295909350565b6000602082840312156124ae576124ad6122bd565b5b60006124bc84828501612346565b91505092915050565b6124ce816123c0565b82525050565b60006020820190506124e960008301846124c5565b92915050565b600080fd5b600080fd5b6000601f19601f8301169050919050565b7f4e487b7100000000000000000000000000000000000000000000000000000000600052604160045260246000fd5b612542826124f9565b810181811067ffffffffffffffff821117156125615761256061250a565b5b80604052505050565b60006125746122b3565b90506125808282612539565b919050565b600067ffffffffffffffff8211156125a05761259f61250a565b5b6125a9826124f9565b9050602081019050919050565b82818337600083830152505050565b60006125d86125d384612585565b61256a565b9050828152602081018484840111156125f4576125f36124f4565b5b6125ff8482856125b6565b509392505050565b600082601f83011261261c5761261b6124ef565b5b813561262c8482602086016125c5565b91505092915050565b60006020828403121561264b5761264a6122bd565b5b600082013567ffffffffffffffff811115612669576126686122c2565b5b61267584828501612607565b91505092915050565b7f4e487b7100000000000000000000000000000000000000000000000000000000600052602160045260246000fd5b600381106126be576126bd61267e565b5b50565b60008190506126cf826126ad565b919050565b60006126df826126c1565b9050919050565b6126ef816126d4565b82525050565b600060208201905061270a60008301846126e6565b92915050565b600060208284031215612726576127256122bd565b5b6000612734848285016122e8565b91505092915050565b6000819050919050565b6127508161273d565b811461275b57600080fd5b50565b60008135905061276d81612747565b92915050565b6000806040838503121561278a576127896122bd565b5b6000612798858286016122e8565b92505060206127a98582860161275e565b9150509250929050565b600080604083850312156127ca576127c96122bd565b5b600083013567ffffffffffffffff8111156127e8576127e76122c2565b5b6127f485828601612607565b92505060206128058582860161275e565b9150509250929050565b612818816122c7565b82525050565b6000602082019050612833600083018461280f565b92915050565b6128428161231d565b82525050565b600060808201905061285d600083018761280f565b61286a602083018661280f565b6128776040830185612839565b61288460608301846124c5565b95945050505050565b6002811061289e5761289d61267e565b5b50565b60008190506128af8261288d565b919050565b60006128bf826128a1565b9050919050565b6128cf816128b4565b82525050565b600060a0820190506128ea6000830188612839565b6128f760208301876126e6565b61290460408301866124c5565b6129116060830185612839565b61291e60808301846128c6565b9695505050505050565b600081519050919050565b600082825260208201905092915050565b60005b83811015612962578082015181840152602081019050612947565b60008484015250505050565b600061297982612928565b6129838185612933565b9350612993818560208601612944565b61299c816124f9565b840191505092915050565b6129b08161273d565b82525050565b600060e0820190506129cb600083018a61280f565b6129d86020830189612839565b81810360408301526129ea818861296e565b90506129f960608301876124c5565b612a066080830186612839565b612a1360a08301856129a7565b612a2060c08301846124c5565b98975050505050505050565b60008060408385031215612a4357612a426122bd565b5b6000612a51858286016122e8565b9250506020612a62858286016122e8565b9150509250929050565b7f4f6e6c79206469737472696275746f72732063616e20706572666f726d20746860008201527f697320616374696f6e0000000000000000000000000000000000000000000000602082015250565b6000612ac8602983612933565b9150612ad382612a6c565b604082019050919050565b60006020820190508181036000830152612af781612abb565b9050919050565b7f496e76616c69642070726f766964657200000000000000000000000000000000600082015250565b6000612b34601083612933565b9150612b3f82612afe565b602082019050919050565b60006020820190508181036000830152612b6381612b27565b9050919050565b7f556e697420616c72656164792061737369676e65640000000000000000000000600082015250565b6000612ba0601583612933565b9150612bab82612b6a565b602082019050919050565b60006020820190508181036000830152612bcf81612b93565b9050919050565b7f496e76616c696420616464726573730000000000000000000000000000000000600082015250565b6000612c0c600f83612933565b9150612c1782612bd6565b602082019050919050565b60006020820190508181036000830152612c3b81612bff565b9050919050565b7f4d6173746572206163636f756e74206d7573742062652061206d616e7566616360008201527f7475726572000000000000000000000000000000000000000000000000000000602082015250565b6000612c9e602583612933565b9150612ca982612c42565b604082019050919050565b60006020820190508181036000830152612ccd81612c91565b9050919050565b6000608082019050612ce960008301876126e6565b612cf660208301866124c5565b612d036040830185612839565b612d1060608301846128c6565b95945050505050565b7f4f6e6c792070726f7669646572732063616e20706572666f726d20746869732060008201527f616374696f6e0000000000000000000000000000000000000000000000000000602082015250565b6000612d75602683612933565b9150612d8082612d19565b604082019050919050565b60006020820190508181036000830152612da481612d68565b9050919050565b60006020820190508181036000830152612dc5818461296e565b905092915050565b6000604082019050612de26000830185612839565b612def60208301846124c5565b9392505050565b7f4f6e6c79206d616e756661637475726572732063616e20706572666f726d207460008201527f68697320616374696f6e00000000000000000000000000000000000000000000602082015250565b6000612e52602a83612933565b9150612e5d82612df6565b604082019050919050565b60006020820190508181036000830152612e8181612e45565b9050919050565b7f4f6e6c7920746865206d616e756661637475726572206f72207375622d61636360008201527f6f756e74732063616e20617070726f7665207175616c69747900000000000000602082015250565b6000612ee4603983612933565b9150612eef82612e88565b604082019050919050565b60006020820190508181036000830152612f1381612ed7565b9050919050565b7f4e487b7100000000000000000000000000000000000000000000000000000000600052601160045260246000fd5b6000612f54826122c7565b91507fffffffffffffffffffffffffffffffffffffffffffffffffffffffffffffffff8203612f8657612f85612f1a565b5b600182019050919050565b7f4e487b7100000000000000000000000000000000000000000000000000000000600052602260045260246000fd5b60006002820490506001821680612fd857607f821691505b602082108103612feb57612fea612f91565b5b50919050565b60008190508160005260206000209050919050565b60006020601f8301049050919050565b600082821b905092915050565b6000600883026130537fffffffffffffffffffffffffffffffffffffffffffffffffffffffffffffffff82613016565b61305d8683613016565b95508019841693508086168417925050509392505050565b6000819050919050565b600061309a613095613090846122c7565b613075565b6122c7565b9050919050565b6000819050919050565b6130b48361307f565b6130c86130c0826130a1565b848454613023565b825550505050565b600090565b6130dd6130d0565b6130e88184846130ab565b505050565b5b8181101561310c576131016000826130d5565b6001810190506130ee565b5050565b601f8211156131515761312281612ff1565b61312b84613006565b8101602085101561313a578190505b61314e61314685613006565b8301826130ed565b50505b505050565b600082821c905092915050565b600061317460001984600802613156565b1980831691505092915050565b600061318d8383613163565b9150826002028217905092915050565b6131a682612928565b67ffffffffffffffff8111156131bf576131be61250a565b5b6131c98254612fc0565b6131d4828285613110565b600060209050601f83116001811461320757600084156131f5578287015190505b6131ff8582613181565b865550613267565b601f19841661321586612ff1565b60005b8281101561323d57848901518255600182019150602085019450602081019050613218565b8683101561325a5784890151613256601f891682613163565b8355505b6001600288020188555050505b505050505050565b60006040820190508181036000830152613289818561296e565b905061329860208301846129a7565b9392505050565b7f496e76616c6964206469737472696275746f7200000000000000000000000000600082015250565b60006132d5601383612933565b91506132e08261329f565b602082019050919050565b60006020820190508181036000830152613304816132c8565b9050919050565b7f4261746368206d757374206265207175616c69747920617070726f7665640000600082015250565b6000613341601e83612933565b915061334c8261330b565b602082019050919050565b6000602082019050818103600083015261337081613334565b9050919050565b7f496e76616c696420696e2d686f757365206469737472696275746f7200000000600082015250565b60006133ad601c83612933565b91506133b882613377565b602082019050919050565b600060208201905081810360008301526133dc816133a0565b9050919050565b7f4f6e6c7920746865206d616e756661637475726572206f72207375622d61636360008201527f6f756e74732063616e20726563616c6c20746865206261746368000000000000602082015250565b600061343f603a83612933565b915061344a826133e3565b604082019050919050565b6000602082019050818103600083015261346e81613432565b9050919050565b7f4f6e6c7920746865206d616e756661637475726572206f72207375622d61636360008201527f6f756e74732063616e20646973617070726f7665207175616c69747900000000602082015250565b60006134d1603c83612933565b91506134dc82613475565b604082019050919050565b60006020820190508181036000830152613500816134c4565b9050919050565b7f4e756d626572206f6620756e697473206d75737420626520677265617465722060008201527f7468616e207a65726f0000000000000000000000000000000000000000000000602082015250565b6000613563602983612933565b915061356e82613507565b604082019050919050565b6000602082019050818103600083015261359281613556565b905091905056fea2646970667358221220218fa8bfd2c7c4f46a63ae585da11440ee0024cea17626b4d211f2f3a89db57a64736f6c63430008180033",
  "linkReferences": {},
  "deployedLinkReferences": {}
}