{"contracts/PharmaChain.sol":{"PharmaChain":{"abi":[{"anonymous":false,"inputs":[{"indexed":true,"internalType":"uint256","name":"batchId","type":"uint256"},{"indexed":true,"internalType":"address","name":"distributor","type":"address"}],"name":"BatchAssignedToDistributor","type":"event"},{"anonymous":false,"inputs":[{"indexed":true,"internalType":"uint256","name":"batchId","type":"uint256"},{"indexed":true,"internalType":"address","name":"provider","type":"address"}],"name":"BatchAssignedToProvider","type":"event"},{"anonymous":false,"inputs":[{"indexed":true,"internalType":"uint256","name":"batchId","type":"uint256"},{"indexed":true,"internalType":"address","name":"manufacturer","type":"address"},{"indexed":false,"internalType":"string","name":"details","type":"string"},{"indexed":false,"internalType":"bytes32","name":"rfidUIDHash","type":"bytes32"},{"indexed":false,"internalType":"uint256","name":"manufactureDate","type":"uint256"},{"indexed":false,"internalType":"uint256","name":"expiryDate","type":"uint256"},{"indexed":false,"internalType":"uint256","name":"quantity","type":"uint256"}],"name":"BatchCreated","type":"event"},{"anonymous":false,"inputs":[{"indexed":true,"internalType":"uint256","name":"batchId","type":"uint256"},{"indexed":true,"internalType":"address","name":"initiator","type":"address"}],"name":"BatchRecalled","type":"event"},{"anonymous":false,"inputs":[{"indexed":true,"internalType":"uint256","name":"batchId","type":"uint256"},{"indexed":true,"internalType":"address","name":"approver","type":"address"}],"name":"QualityApproved","type":"event"},{"anonymous":false,"inputs":[{"indexed":true,"internalType":"uint256","name":"batchId","type":"uint256"},{"indexed":true,"internalType":"address","name":"disapprover","type":"address"}],"name":"QualityDisapproved","type":"event"},{"anonymous":false,"inputs":[{"indexed":true,"internalType":"address","name":"user","type":"address"},{"indexed":false,"internalType":"string","name":"companyName","type":"string"},{"indexed":false,"internalType":"enum PharmaChain.Role","name":"role","type":"uint8"},{"indexed":false,"internalType":"string","name":"contactInfo","type":"string"}],"name":"UserRegistered","type":"event"},{"inputs":[{"internalType":"uint256","name":"_batchId","type":"uint256"}],"name":"approveQuality","outputs":[],"stateMutability":"nonpayable","type":"function"},{"inputs":[{"internalType":"uint256","name":"_batchId","type":"uint256"},{"internalType":"address","name":"_provider","type":"address"}],"name":"assignBatchToProvider","outputs":[],"stateMutability":"nonpayable","type":"function"},{"inputs":[{"internalType":"uint256","name":"_batchId","type":"uint256"},{"internalType":"address","name":"_distributor","type":"address"},{"internalType":"uint256","name":"_orderId","type":"uint256"}],"name":"assignToDistributor","outputs":[],"stateMutability":"nonpayable","type":"function"},{"inputs":[{"internalType":"uint256","name":"","type":"uint256"}],"name":"batches","outputs":[{"internalType":"uint256","name":"batchId","type":"uint256"},{"internalType":"address","name":"manufacturer","type":"address"},{"internalType":"string","name":"details","type":"string"},{"internalType":"bool","name":"isQualityApproved","type":"bool"},{"internalType":"bool","name":"isQualityDisapproved","type":"bool"},{"internalType":"address","name":"distributor","type":"address"},{"internalType":"bytes32","name":"rfidUIDHash","type":"bytes32"},{"internalType":"bool","name":"isRecalled","type":"bool"},{"internalType":"uint256","name":"manufactureDate","type":"uint256"},{"internalType":"uint256","name":"expiryDate","type":"uint256"},{"internalType":"uint256","name":"quantity","type":"uint256"},{"internalType":"uint256","name":"orderId","type":"uint256"}],"stateMutability":"view","type":"function"},{"inputs":[{"internalType":"string","name":"_details","type":"string"},{"internalType":"bytes32","name":"_rfidUIDHash","type":"bytes32"},{"internalType":"uint256","name":"_expiryDate","type":"uint256"},{"internalType":"uint256","name":"_quantity","type":"uint256"}],"name":"createBatch","outputs":[],"stateMutability":"nonpayable","type":"function"},{"inputs":[{"internalType":"string","name":"_medName","type":"string"},{"internalType":"uint256","name":"_quantity","type":"uint256"}],"name":"createDistributorOrder","outputs":[],"stateMutability":"nonpayable","type":"function"},{"inputs":[{"internalType":"string","name":"_medName","type":"string"},{"internalType":"uint256","name":"_qunatity","type":"uint256"}],"name":"createProviderOrder","outputs":[],"stateMutability":"nonpayable","type":"function"},{"inputs":[{"internalType":"uint256","name":"_batchId","type":"uint256"}],"name":"disapproveQuality","outputs":[],"stateMutability":"nonpayable","type":"function"},{"inputs":[{"internalType":"address","name":"","type":"address"},{"internalType":"uint256","name":"","type":"uint256"}],"name":"distributorMedNames","outputs":[{"internalType":"string","name":"","type":"string"}],"stateMutability":"view","type":"function"},{"inputs":[{"internalType":"uint256","name":"","type":"uint256"}],"name":"distributorOrders","outputs":[{"internalType":"string","name":"medName","type":"string"},{"internalType":"uint256","name":"quantity","type":"uint256"},{"internalType":"uint256","name":"orderId","type":"uint256"},{"internalType":"uint256","name":"batchId","type":"uint256"},{"internalType":"address","name":"distributor","type":"address"},{"internalType":"address","name":"manufacturer","type":"address"},{"internalType":"bool","name":"isAssigned","type":"bool"},{"internalType":"uint256","name":"orderDate","type":"uint256"},{"internalType":"uint256","name":"orderApprovedDate","type":"uint256"},{"internalType":"enum PharmaChain.OrderStatus","name":"status","type":"uint8"}],"stateMutability":"view","type":"function"},{"inputs":[{"internalType":"address","name":"","type":"address"},{"internalType":"string","name":"","type":"string"}],"name":"distributorStocks","outputs":[{"internalType":"uint256","name":"","type":"uint256"}],"stateMutability":"view","type":"function"},{"inputs":[{"internalType":"address","name":"_user","type":"address"}],"name":"getCompanyNameFromAddress","outputs":[{"internalType":"string","name":"","type":"string"}],"stateMutability":"view","type":"function"},{"inputs":[{"internalType":"address","name":"_manufacturer","type":"address"}],"name":"getCreatedBatches","outputs":[{"components":[{"internalType":"uint256","name":"batchId","type":"uint256"},{"internalType":"address","name":"manufacturer","type":"address"},{"internalType":"string","name":"details","type":"string"},{"internalType":"bool","name":"isQualityApproved","type":"bool"},{"internalType":"bool","name":"isQualityDisapproved","type":"bool"},{"internalType":"address","name":"distributor","type":"address"},{"internalType":"bytes32","name":"rfidUIDHash","type":"bytes32"},{"internalType":"bool","name":"isRecalled","type":"bool"},{"internalType":"uint256","name":"manufactureDate","type":"uint256"},{"internalType":"uint256","name":"expiryDate","type":"uint256"},{"internalType":"uint256","name":"quantity","type":"uint256"},{"internalType":"uint256","name":"orderId","type":"uint256"}],"internalType":"struct PharmaChain.Batch[]","name":"","type":"tuple[]"}],"stateMutability":"view","type":"function"},{"inputs":[{"internalType":"uint256","name":"_orderId","type":"uint256"}],"name":"getDistributorOrder","outputs":[{"components":[{"internalType":"string","name":"medName","type":"string"},{"internalType":"uint256","name":"quantity","type":"uint256"},{"internalType":"uint256","name":"orderId","type":"uint256"},{"internalType":"uint256","name":"batchId","type":"uint256"},{"internalType":"address","name":"distributor","type":"address"},{"internalType":"address","name":"manufacturer","type":"address"},{"internalType":"bool","name":"isAssigned","type":"bool"},{"internalType":"uint256","name":"orderDate","type":"uint256"},{"internalType":"uint256","name":"orderApprovedDate","type":"uint256"},{"internalType":"enum PharmaChain.OrderStatus","name":"status","type":"uint8"}],"internalType":"struct PharmaChain.DistributorOrder","name":"","type":"tuple"}],"stateMutability":"view","type":"function"},{"inputs":[{"internalType":"bytes32","name":"_rfidUIDHash","type":"bytes32"}],"name":"getDistributorOrderByRFID","outputs":[{"components":[{"internalType":"string","name":"medName","type":"string"},{"internalType":"uint256","name":"quantity","type":"uint256"},{"internalType":"uint256","name":"orderId","type":"uint256"},{"internalType":"uint256","name":"batchId","type":"uint256"},{"internalType":"address","name":"distributor","type":"address"},{"internalType":"address","name":"manufacturer","type":"address"},{"internalType":"bool","name":"isAssigned","type":"bool"},{"internalType":"uint256","name":"orderDate","type":"uint256"},{"internalType":"uint256","name":"orderApprovedDate","type":"uint256"},{"internalType":"enum PharmaChain.OrderStatus","name":"status","type":"uint8"}],"internalType":"struct PharmaChain.DistributorOrder","name":"","type":"tuple"}],"stateMutability":"view","type":"function"},{"inputs":[{"internalType":"address","name":"_distributor","type":"address"}],"name":"getDistributorOrders","outputs":[{"components":[{"internalType":"string","name":"medName","type":"string"},{"internalType":"uint256","name":"quantity","type":"uint256"},{"internalType":"uint256","name":"orderId","type":"uint256"},{"internalType":"uint256","name":"batchId","type":"uint256"},{"internalType":"address","name":"distributor","type":"address"},{"internalType":"address","name":"manufacturer","type":"address"},{"internalType":"bool","name":"isAssigned","type":"bool"},{"internalType":"uint256","name":"orderDate","type":"uint256"},{"internalType":"uint256","name":"orderApprovedDate","type":"uint256"},{"internalType":"enum PharmaChain.OrderStatus","name":"status","type":"uint8"}],"internalType":"struct PharmaChain.DistributorOrder[]","name":"","type":"tuple[]"}],"stateMutability":"view","type":"function"},{"inputs":[{"internalType":"address","name":"_distributor","type":"address"}],"name":"getDistributorStock","outputs":[{"components":[{"internalType":"string","name":"medName","type":"string"},{"internalType":"uint256","name":"quantity","type":"uint256"}],"internalType":"struct PharmaChain.StockItem[]","name":"","type":"tuple[]"}],"stateMutability":"view","type":"function"},{"inputs":[{"internalType":"address","name":"_manufacturer","type":"address"}],"name":"getFulfilledBatches","outputs":[{"components":[{"internalType":"uint256","name":"batchId","type":"uint256"},{"internalType":"address","name":"manufacturer","type":"address"},{"internalType":"string","name":"details","type":"string"},{"internalType":"bool","name":"isQualityApproved","type":"bool"},{"internalType":"bool","name":"isQualityDisapproved","type":"bool"},{"internalType":"address","name":"distributor","type":"address"},{"internalType":"bytes32","name":"rfidUIDHash","type":"bytes32"},{"internalType":"bool","name":"isRecalled","type":"bool"},{"internalType":"uint256","name":"manufactureDate","type":"uint256"},{"internalType":"uint256","name":"expiryDate","type":"uint256"},{"internalType":"uint256","name":"quantity","type":"uint256"},{"internalType":"uint256","name":"orderId","type":"uint256"}],"internalType":"struct PharmaChain.Batch[]","name":"","type":"tuple[]"}],"stateMutability":"view","type":"function"},{"inputs":[{"internalType":"address","name":"_distributor","type":"address"}],"name":"getFulfilledDistributorOrders","outputs":[{"components":[{"internalType":"string","name":"medName","type":"string"},{"internalType":"uint256","name":"quantity","type":"uint256"},{"internalType":"uint256","name":"orderId","type":"uint256"},{"internalType":"uint256","name":"batchId","type":"uint256"},{"internalType":"address","name":"distributor","type":"address"},{"internalType":"address","name":"manufacturer","type":"address"},{"internalType":"bool","name":"isAssigned","type":"bool"},{"internalType":"uint256","name":"orderDate","type":"uint256"},{"internalType":"uint256","name":"orderApprovedDate","type":"uint256"},{"internalType":"enum PharmaChain.OrderStatus","name":"status","type":"uint8"}],"internalType":"struct PharmaChain.DistributorOrder[]","name":"","type":"tuple[]"}],"stateMutability":"view","type":"function"},{"inputs":[{"internalType":"address","name":"_provider","type":"address"}],"name":"getFulfilledProviderOrders","outputs":[{"components":[{"internalType":"string","name":"medName","type":"string"},{"internalType":"uint256","name":"quantity","type":"uint256"},{"internalType":"uint256","name":"orderId","type":"uint256"},{"internalType":"uint256","name":"batchId","type":"uint256"},{"internalType":"address","name":"provider","type":"address"},{"internalType":"address","name":"distributor","type":"address"},{"internalType":"bool","name":"isAssigned","type":"bool"},{"internalType":"uint256","name":"orderDate","type":"uint256"},{"internalType":"uint256","name":"orderApprovedDate","type":"uint256"},{"internalType":"enum PharmaChain.OrderStatus","name":"status","type":"uint8"}],"internalType":"struct PharmaChain.ProviderOrder[]","name":"","type":"tuple[]"}],"stateMutability":"view","type":"function"},{"inputs":[],"name":"getPendingDistributorOrders","outputs":[{"components":[{"internalType":"string","name":"medName","type":"string"},{"internalType":"uint256","name":"quantity","type":"uint256"},{"internalType":"uint256","name":"orderId","type":"uint256"},{"internalType":"uint256","name":"batchId","type":"uint256"},{"internalType":"address","name":"distributor","type":"address"},{"internalType":"address","name":"manufacturer","type":"address"},{"internalType":"bool","name":"isAssigned","type":"bool"},{"internalType":"uint256","name":"orderDate","type":"uint256"},{"internalType":"uint256","name":"orderApprovedDate","type":"uint256"},{"internalType":"enum PharmaChain.OrderStatus","name":"status","type":"uint8"}],"internalType":"struct PharmaChain.DistributorOrder[]","name":"","type":"tuple[]"}],"stateMutability":"view","type":"function"},{"inputs":[],"name":"getPendingProviderOrders","outputs":[{"components":[{"internalType":"string","name":"medName","type":"string"},{"internalType":"uint256","name":"quantity","type":"uint256"},{"internalType":"uint256","name":"orderId","type":"uint256"},{"internalType":"uint256","name":"batchId","type":"uint256"},{"internalType":"address","name":"provider","type":"address"},{"internalType":"address","name":"distributor","type":"address"},{"internalType":"bool","name":"isAssigned","type":"bool"},{"internalType":"uint256","name":"orderDate","type":"uint256"},{"internalType":"uint256","name":"orderApprovedDate","type":"uint256"},{"internalType":"enum PharmaChain.OrderStatus","name":"status","type":"uint8"}],"internalType":"struct PharmaChain.ProviderOrder[]","name":"","type":"tuple[]"}],"stateMutability":"view","type":"function"},{"inputs":[{"internalType":"bytes32","name":"_rfidUIDHash","type":"bytes32"}],"name":"getProviderOrderByRFID","outputs":[{"components":[{"internalType":"string","name":"medName","type":"string"},{"internalType":"uint256","name":"quantity","type":"uint256"},{"internalType":"uint256","name":"orderId","type":"uint256"},{"internalType":"uint256","name":"batchId","type":"uint256"},{"internalType":"address","name":"provider","type":"address"},{"internalType":"address","name":"distributor","type":"address"},{"internalType":"bool","name":"isAssigned","type":"bool"},{"internalType":"uint256","name":"orderDate","type":"uint256"},{"internalType":"uint256","name":"orderApprovedDate","type":"uint256"},{"internalType":"enum PharmaChain.OrderStatus","name":"status","type":"uint8"}],"internalType":"struct PharmaChain.ProviderOrder","name":"","type":"tuple"}],"stateMutability":"view","type":"function"},{"inputs":[{"internalType":"uint256","name":"_orderId","type":"uint256"}],"name":"getProviderOrderDetails","outputs":[{"components":[{"internalType":"string","name":"medName","type":"string"},{"internalType":"uint256","name":"quantity","type":"uint256"},{"internalType":"uint256","name":"orderId","type":"uint256"},{"internalType":"uint256","name":"batchId","type":"uint256"},{"internalType":"address","name":"provider","type":"address"},{"internalType":"address","name":"distributor","type":"address"},{"internalType":"bool","name":"isAssigned","type":"bool"},{"internalType":"uint256","name":"orderDate","type":"uint256"},{"internalType":"uint256","name":"orderApprovedDate","type":"uint256"},{"internalType":"enum PharmaChain.OrderStatus","name":"status","type":"uint8"}],"internalType":"struct PharmaChain.ProviderOrder","name":"","type":"tuple"}],"stateMutability":"view","type":"function"},{"inputs":[{"internalType":"bytes32","name":"_rfidUIDHash","type":"bytes32"}],"name":"getProviderOrderIdByRFID","outputs":[{"internalType":"uint256","name":"","type":"uint256"}],"stateMutability":"view","type":"function"},{"inputs":[{"internalType":"address","name":"_provider","type":"address"}],"name":"getProviderOrders","outputs":[{"components":[{"internalType":"string","name":"medName","type":"string"},{"internalType":"uint256","name":"quantity","type":"uint256"},{"internalType":"uint256","name":"orderId","type":"uint256"},{"internalType":"uint256","name":"batchId","type":"uint256"},{"internalType":"address","name":"provider","type":"address"},{"internalType":"address","name":"distributor","type":"address"},{"internalType":"bool","name":"isAssigned","type":"bool"},{"internalType":"uint256","name":"orderDate","type":"uint256"},{"internalType":"uint256","name":"orderApprovedDate","type":"uint256"},{"internalType":"enum PharmaChain.OrderStatus","name":"status","type":"uint8"}],"internalType":"struct PharmaChain.ProviderOrder[]","name":"","type":"tuple[]"}],"stateMutability":"view","type":"function"},{"inputs":[{"internalType":"address","name":"_provider","type":"address"}],"name":"getProviderStock","outputs":[{"components":[{"internalType":"string","name":"medName","type":"string"},{"internalType":"uint256","name":"quantity","type":"uint256"}],"internalType":"struct PharmaChain.StockItem[]","name":"","type":"tuple[]"}],"stateMutability":"view","type":"function"},{"inputs":[{"internalType":"address","name":"_user","type":"address"}],"name":"getUserByAddress","outputs":[{"components":[{"internalType":"address","name":"account","type":"address"},{"internalType":"string","name":"companyName","type":"string"},{"internalType":"enum PharmaChain.Role","name":"role","type":"uint8"},{"internalType":"string","name":"contactInfo","type":"string"}],"internalType":"struct PharmaChain.User","name":"","type":"tuple"}],"stateMutability":"view","type":"function"},{"inputs":[{"internalType":"address","name":"_user","type":"address"}],"name":"getUserInfo","outputs":[{"internalType":"string","name":"companyName","type":"string"},{"internalType":"string","name":"contactInfo","type":"string"},{"internalType":"enum PharmaChain.Role","name":"role","type":"uint8"}],"stateMutability":"view","type":"function"},{"inputs":[{"internalType":"address","name":"_user","type":"address"}],"name":"getUserRole","outputs":[{"internalType":"enum PharmaChain.Role","name":"","type":"uint8"}],"stateMutability":"view","type":"function"},{"inputs":[{"internalType":"address","name":"_user","type":"address"}],"name":"isUserRegistered","outputs":[{"internalType":"bool","name":"","type":"bool"}],"stateMutability":"view","type":"function"},{"inputs":[],"name":"nextBatchId","outputs":[{"internalType":"uint256","name":"","type":"uint256"}],"stateMutability":"view","type":"function"},{"inputs":[],"name":"nextDistributorOrderId","outputs":[{"internalType":"uint256","name":"","type":"uint256"}],"stateMutability":"view","type":"function"},{"inputs":[],"name":"nextProviderOrderId","outputs":[{"internalType":"uint256","name":"","type":"uint256"}],"stateMutability":"view","type":"function"},{"inputs":[{"internalType":"address","name":"","type":"address"},{"internalType":"uint256","name":"","type":"uint256"}],"name":"providerMedNames","outputs":[{"internalType":"string","name":"","type":"string"}],"stateMutability":"view","type":"function"},{"inputs":[{"internalType":"uint256","name":"","type":"uint256"}],"name":"providerOrders","outputs":[{"internalType":"string","name":"medName","type":"string"},{"internalType":"uint256","name":"quantity","type":"uint256"},{"internalType":"uint256","name":"orderId","type":"uint256"},{"internalType":"uint256","name":"batchId","type":"uint256"},{"internalType":"address","name":"provider","type":"address"},{"internalType":"address","name":"distributor","type":"address"},{"internalType":"bool","name":"isAssigned","type":"bool"},{"internalType":"uint256","name":"orderDate","type":"uint256"},{"internalType":"uint256","name":"orderApprovedDate","type":"uint256"},{"internalType":"enum PharmaChain.OrderStatus","name":"status","type":"uint8"}],"stateMutability":"view","type":"function"},{"inputs":[{"internalType":"address","name":"","type":"address"},{"internalType":"string","name":"","type":"string"}],"name":"providerStocks","outputs":[{"internalType":"uint256","name":"","type":"uint256"}],"stateMutability":"view","type":"function"},{"inputs":[{"internalType":"uint256","name":"_batchId","type":"uint256"}],"name":"recallBatch","outputs":[],"stateMutability":"nonpayable","type":"function"},{"inputs":[{"internalType":"address","name":"_user","type":"address"},{"internalType":"string","name":"_companyName","type":"string"},{"internalType":"enum PharmaChain.Role","name":"_role","type":"uint8"},{"internalType":"string","name":"_contactInfo","type":"string"}],"name":"registerUser","outputs":[],"stateMutability":"nonpayable","type":"function"},{"inputs":[{"internalType":"bytes32","name":"","type":"bytes32"}],"name":"rfidToDistributorOrderId","outputs":[{"internalType":"uint256","name":"","type":"uint256"}],"stateMutability":"view","type":"function"},{"inputs":[{"internalType":"bytes32","name":"","type":"bytes32"}],"name":"rfidToProviderOrderId","outputs":[{"internalType":"uint256","name":"","type":"uint256"}],"stateMutability":"view","type":"function"},{"inputs":[{"internalType":"bytes32","name":"_rfidUIDHash","type":"bytes32"},{"internalType":"enum PharmaChain.OrderStatus","name":"_status","type":"uint8"}],"name":"updateDistributorOrderStatusByRFID","outputs":[],"stateMutability":"nonpayable","type":"function"},{"inputs":[{"internalType":"bytes32","name":"_rfidUIDHash","type":"bytes32"},{"internalType":"enum PharmaChain.OrderStatus","name":"_status","type":"uint8"}],"name":"updateProviderOrderStatusByRFID","outputs":[],"stateMutability":"nonpayable","type":"function"},{"inputs":[{"internalType":"address","name":"","type":"address"}],"name":"users","outputs":[{"internalType":"address","name":"account","type":"address"},{"internalType":"string","name":"companyName","type":"string"},{"internalType":"enum PharmaChain.Role","name":"role","type":"uint8"},{"internalType":"string","name":"contactInfo","type":"string"}],"stateMutability":"view","type":"function"}],"evm":{"bytecode":{"linkReferences":{},"object":"60806040526064600a556064600b556064600c5534801561001f57600080fd5b50614eff8061002f6000396000f3fe608060405234801561001057600080fd5b50600436106102745760003560e01c806387f95fa811610151578063ced27743116100c3578063e044471211610087578063e04447121461066b578063e3c6e07e1461067e578063f1bd14ad14610691578063f212d6d9146106cd578063f98dfc26146106e0578063fa4b47a3146106f357600080fd5b8063ced2774314610616578063d0aeb53714610629578063d38622381461063c578063d56f40dd14610645578063dd185a091461065857600080fd5b8063a6e162b411610115578063a6e162b41461057c578063a87430ba1461058f578063b32c4d8d146105b2578063b616e184146105dd578063be213fb6146105f0578063c0a5194e1461060357600080fd5b806387f95fa81461051b57806388a1326c1461052357806395c53d49146105365780639795c0a31461054957806397bba8141461056957600080fd5b80634a746b7b116101ea57806369c212f6116101ae57806369c212f61461047a5780636ae25d981461049a5780636c6eb5cd146104d657806383e9f8bf146104e95780638429bcf7146105095780638462a7f81461051257600080fd5b80634a746b7b146103e95780634e4b18fb146103fc578063552063f3146104255780636386c1c714610445578063642c97191461046757600080fd5b80632d703d731161023c5780632d703d731461034d5780633019f58e1461036d5780633d28a3011461038257806343deec2e1461039557806344dfc5f8146103a8578063491a58f7146103bb57600080fd5b8063163f7522146102795780631c5a3a53146102bc5780631d8abc8f146102dc5780632615457b146102f15780632782085114610311575b600080fd5b6102a76102873660046141b3565b6001600160a01b0390811660009081526020819052604090205416151590565b60405190151581526020015b60405180910390f35b6102cf6102ca3660046141b3565b610706565b6040516102b3919061421e565b6102e46108d1565b6040516102b3919061436a565b6103046102ff3660046141b3565b610b20565b6040516102b391906143ce565b61034061031f3660046141b3565b6001600160a01b031660009081526020819052604090206002015460ff1690565b6040516102b39190614435565b61036061035b3660046141b3565b610d78565b6040516102b39190614449565b61038061037b36600461453e565b610fc6565b005b61038061039036600461460c565b611516565b6103806103a3366004614698565b61166d565b6103806103b63660046146eb565b611911565b6103db6103c93660046146eb565b60086020526000908152604090205481565b6040519081526020016102b3565b6102cf6103f73660046141b3565b611a15565b61040f61040a3660046146eb565b611bd8565b6040516102b39a99989796959493929190614704565b6104386104333660046146eb565b611cc4565b6040516102b39190614777565b6104586104533660046141b3565b611e46565b6040516102b39392919061478a565b6103606104753660046141b3565b611ff4565b61048d6104883660046141b3565b61229a565b6040516102b391906147c7565b6103db6104a836600461482e565b6005602090815260009283526040909220815180830184018051928152908401929093019190912091525481565b6103806104e436600461487b565b61244c565b6104fc6104f73660046141b3565b6125f7565b6040516102b391906148bf565b6103db600b5481565b6103db600a5481565b6103046126a6565b6104386105313660046146eb565b612995565b61040f6105443660046146eb565b6129f5565b6103db6105573660046146eb565b60096020526000908152604090205481565b6103806105773660046148d2565b612a10565b61038061058a3660046146eb565b612c5a565b6105a261059d3660046141b3565b612d5e565b6040516102b39493929190614906565b6105c56105c03660046146eb565b612eaa565b6040516102b39c9b9a99989796959493929190614954565b6103806105eb3660046146eb565b612fa6565b6103806105fe3660046148d2565b6130ae565b6102e46106113660046141b3565b613266565b6102e46106243660046141b3565b613518565b6104fc6106373660046149c9565b613766565b6103db600c5481565b6104386106533660046146eb565b61381f565b6104386106663660046146eb565b61389e565b6103046106793660046141b3565b6138ff565b6104fc61068c3660046149c9565b613bb1565b6103db61069f36600461482e565b6004602090815260009283526040909220815180830184018051928152908401929093019190912091525481565b6103806106db36600461487b565b613bcd565b6103db6106ee3660046146eb565b613cb6565b6103806107013660046149f3565b613d07565b6001600160a01b038116600090815260076020526040812054606091816001600160401b0381111561073a5761073a61456a565b60405190808252806020026020018201604052801561078057816020015b6040805180820190915260608152600060208201528152602001906001900390816107585790505b50905060005b828110156108c9576001600160a01b03851660009081526007602052604081208054839081106107b8576107b8614a28565b9060005260206000200180546107cd90614a3e565b80601f01602080910402602001604051908101604052809291908181526020018280546107f990614a3e565b80156108465780601f1061081b57610100808354040283529160200191610846565b820191906000526020600020905b81548152906001019060200180831161082957829003601f168201915b50505050509050604051806040016040528082815260200160056000896001600160a01b03166001600160a01b03168152602001908152602001600020836040516108919190614a78565b9081526020016040518091039020548152508383815181106108b5576108b5614a28565b602090810291909101015250600101610786565b509392505050565b6060600060645b600b5481101561091857600081815260026020526040902060050154600160a01b900460ff16610910578161090c81614aaa565b9250505b6001016108d8565b506000816001600160401b038111156109335761093361456a565b60405190808252806020026020018201604052801561096c57816020015b6109596140a4565b8152602001906001900390816109515790505b509050600060645b600b54811015610b1757600081815260026020526040902060050154600160a01b900460ff16610b0f5760008181526002602052604090819020815161014081019092528054829082906109c790614a3e565b80601f01602080910402602001604051908101604052809291908181526020018280546109f390614a3e565b8015610a405780601f10610a1557610100808354040283529160200191610a40565b820191906000526020600020905b815481529060010190602001808311610a2357829003601f168201915b50505091835250506001820154602082015260028201546040820152600382015460608201526004808301546001600160a01b039081166080840152600584015490811660a084015260ff600160a01b9091048116151560c0840152600684015460e084015260078401546101008401526008840154610120909301921690811115610ace57610ace614296565b6004811115610adf57610adf614296565b81525050838381518110610af557610af5614a28565b60200260200101819052508180610b0b90614aaa565b9250505b600101610974565b50909392505050565b6060600060645b600c54811015610b6b576000818152600360205260409020600401546001600160a01b03808616911603610b635781610b5f81614aaa565b9250505b600101610b27565b506000816001600160401b03811115610b8657610b8661456a565b604051908082528060200260200182016040528015610bbf57816020015b610bac6140a4565b815260200190600190039081610ba45790505b509050600060645b600c54811015610d6e576000818152600360205260409020600401546001600160a01b03808816911603610d66576000818152600360205260409081902081516101408101909252805482908290610c1e90614a3e565b80601f0160208091040260200160405190810160405280929190818152602001828054610c4a90614a3e565b8015610c975780601f10610c6c57610100808354040283529160200191610c97565b820191906000526020600020905b815481529060010190602001808311610c7a57829003601f168201915b50505091835250506001820154602082015260028201546040820152600382015460608201526004808301546001600160a01b039081166080840152600584015490811660a084015260ff600160a01b9091048116151560c0840152600684015460e084015260078401546101008401526008840154610120909301921690811115610d2557610d25614296565b6004811115610d3657610d36614296565b81525050838381518110610d4c57610d4c614a28565b60200260200101819052508180610d6290614aaa565b9250505b600101610bc7565b5090949350505050565b6060600060645b600a54811015610dc457600081815260016020819052604090912001546001600160a01b03808616911603610dbc5781610db881614aaa565b9250505b600101610d7f565b506000816001600160401b03811115610ddf57610ddf61456a565b604051908082528060200260200182016040528015610e1857816020015b610e0561411b565b815260200190600190039081610dfd5790505b509050600060645b600a54811015610d6e57600081815260016020819052604090912001546001600160a01b03808816911603610fbe5760008181526001602081815260409283902083516101808101855281548152928101546001600160a01b0316918301919091526002810180549293919291840191610e9990614a3e565b80601f0160208091040260200160405190810160405280929190818152602001828054610ec590614a3e565b8015610f125780601f10610ee757610100808354040283529160200191610f12565b820191906000526020600020905b815481529060010190602001808311610ef557829003601f168201915b5050509183525050600382015460ff80821615156020840152610100808304821615156040850152620100009092046001600160a01b0316606084015260048401546080840152600584015416151560a0830152600683015460c0830152600783015460e0830152600883015490820152600990910154610120909101528351849084908110610fa457610fa4614a28565b60200260200101819052508180610fba90614aaa565b9250505b600101610e20565b600133600090815260208190526040902060029081015460ff1690811115610ff057610ff0614296565b146110165760405162461bcd60e51b815260040161100d90614ac3565b60405180910390fd5b6001600160a01b038116600090815260208190526040902060029081015460ff168181111561104757611047614296565b146110875760405162461bcd60e51b815260206004820152601060248201526f24b73b30b634b210383937bb34b232b960811b604482015260640161100d565b600082815260016020526040902060038101546201000090046001600160a01b031633146111135760405162461bcd60e51b815260206004820152603360248201527f4f6e6c79207468652061737369676e6564206469737472696275746f722063616044820152720dc40c2e6e6d2cedc40e8d0d2e640c4c2e8c6d606b1b606482015260840161100d565b600381015460ff166111675760405162461bcd60e51b815260206004820152601e60248201527f4261746368206d757374206265207175616c69747920617070726f7665640000604482015260640161100d565b600581015460ff16156111bc5760405162461bcd60e51b815260206004820152601760248201527f426174636820686173206265656e20726563616c6c6564000000000000000000604482015260640161100d565b60006040518061014001604052808360020180546111d990614a3e565b80601f016020809104026020016040519081016040528092919081815260200182805461120590614a3e565b80156112525780601f1061122757610100808354040283529160200191611252565b820191906000526020600020905b81548152906001019060200180831161123557829003601f168201915b5050505050815260200183600801548152602001600c600081548092919061127990614aaa565b909155508152602081018690526001600160a01b0385166040820152336060820152600160808201524260a0820181905260c082015260e0016002905260408082015160009081526003602052208151919250829181906112da9082614b5d565b50602082015160018281019190915560408301516002830155606083015160038301556080830151600480840180546001600160a01b0319166001600160a01b0393841617905560a085015160058501805460c0880151929094166001600160a81b031990941693909317600160a01b911515919091021790915560e0840151600684015561010084015160078401556101208401516008840180549193909260ff1990921691849081111561139257611392614296565b0217905550505060408082015160048401546000908152600960209081528382209290925560088501546001600160a01b0387168252600590925282902091519091906113e3906002860190614c8f565b908152602001604051809103902060008282546114009190614c9b565b9250508190555061149f8383600201805461141a90614a3e565b80601f016020809104026020016040519081016040528092919081815260200182805461144690614a3e565b80156114935780601f1061146857610100808354040283529160200191611493565b820191906000526020600020905b81548152906001019060200180831161147657829003601f168201915b50505050506000613ff9565b6114da576001600160a01b0383166000908152600760209081526040822080546001810182559083529120016114d86002840182614cae565b505b6040516001600160a01b0384169085907fd2d34b0374faae0161dcf8f0bb3a65abd5d19a9464ea5777ab1a5ee6a694560a90600090a350505050565b6001600160a01b03841661155e5760405162461bcd60e51b815260206004820152600f60248201526e496e76616c6964206164647265737360881b604482015260640161100d565b6040518060800160405280856001600160a01b0316815260200184815260200183600281111561159057611590614296565b815260209081018390526001600160a01b03868116600090815280835260409020835181546001600160a01b03191692169190911781559082015160018201906115da9082614b5d565b5060408201518160020160006101000a81548160ff0219169083600281111561160557611605614296565b02179055506060820151600382019061161e9082614b5d565b50905050836001600160a01b03167f3a403922431a43cbc3d929f1b03869ffadab7bce01402822980e72e6ea8e9d9184848460405161165f93929190614d80565b60405180910390a250505050565b33600090815260208190526040812060029081015460ff169081111561169557611695614296565b146116b25760405162461bcd60e51b815260040161100d90614dbc565b600a8054600091826116c383614aaa565b9190505590504283116117225760405162461bcd60e51b815260206004820152602160248201527f4578706972792064617465206d75737420626520696e207468652066757475726044820152606560f81b606482015260840161100d565b6000821161177d5760405162461bcd60e51b815260206004820152602260248201527f5175616e74697479206d7573742062652067726561746572207468616e207a65604482015261726f60f01b606482015260840161100d565b60408051610180810182528281523360208083019182528284018981526000606085018190526080850181905260a0850181905260c085018a905260e08501819052426101008601526101208501899052610140850188905261016085018190528681526001928390529490942083518155915190820180546001600160a01b0319166001600160a01b03909216919091179055915190919060028201906118259082614b5d565b506060820151600382018054608085015160a086015161ffff1990921693151561ff0019169390931761010093151584021762010000600160b01b031916620100006001600160a01b039092169190910217905560c0830151600483015560e083015160058301805460ff191691151591909117905582015160068201556101208201516007820155610140820151600882015561016090910151600990910155604051339082907fbee34f0ca0c0edfc2bd967468f81e100292d859329be491cc44c4ec390c65fac90611902908990899042908a908a90614e06565b60405180910390a35050505050565b33600090815260208190526040812060029081015460ff169081111561193957611939614296565b146119565760405162461bcd60e51b815260040161100d90614dbc565b6000818152600160208190526040909120908101546001600160a01b031633146119d45760405162461bcd60e51b815260206004820152602960248201527f4f6e6c7920746865206d616e7566616374757265722063616e20617070726f7660448201526865207175616c69747960b81b606482015260840161100d565b60038101805461ffff19166001179055604051339083907f08d6065569e454b48393f44317518d1282971813504b4d323942afba2f7a2c5d90600090a35050565b6001600160a01b038116600090815260066020526040812054606091816001600160401b03811115611a4957611a4961456a565b604051908082528060200260200182016040528015611a8f57816020015b604080518082019091526060815260006020820152815260200190600190039081611a675790505b50905060005b828110156108c9576001600160a01b0385166000908152600660205260408120805483908110611ac757611ac7614a28565b906000526020600020018054611adc90614a3e565b80601f0160208091040260200160405190810160405280929190818152602001828054611b0890614a3e565b8015611b555780601f10611b2a57610100808354040283529160200191611b55565b820191906000526020600020905b815481529060010190602001808311611b3857829003601f168201915b50505050509050604051806040016040528082815260200160046000896001600160a01b03166001600160a01b0316815260200190815260200160002083604051611ba09190614a78565b908152602001604051809103902054815250838381518110611bc457611bc4614a28565b602090810291909101015250600101611a95565b600260205260009081526040902080548190611bf390614a3e565b80601f0160208091040260200160405190810160405280929190818152602001828054611c1f90614a3e565b8015611c6c5780601f10611c4157610100808354040283529160200191611c6c565b820191906000526020600020905b815481529060010190602001808311611c4f57829003601f168201915b5050505060018301546002840154600385015460048601546005870154600688015460078901546008909901549798959794965092946001600160a01b039283169492821693600160a01b90920460ff90811693168a565b611ccc6140a4565b60008281526008602052604081205490819003611cfb5760405162461bcd60e51b815260040161100d90614e3d565b6000818152600260205260409081902081516101408101909252805482908290611d2490614a3e565b80601f0160208091040260200160405190810160405280929190818152602001828054611d5090614a3e565b8015611d9d5780601f10611d7257610100808354040283529160200191611d9d565b820191906000526020600020905b815481529060010190602001808311611d8057829003601f168201915b50505091835250506001820154602082015260028201546040820152600382015460608201526004808301546001600160a01b039081166080840152600584015490811660a084015260ff600160a01b9091048116151560c0840152600684015460e084015260078401546101008401526008840154610120909301921690811115611e2b57611e2b614296565b6004811115611e3c57611e3c614296565b9052509392505050565b6001600160a01b038082166000908152602081815260408083208151608081019092528054909416815260018401805460609586959485949391929084019190611e8f90614a3e565b80601f0160208091040260200160405190810160405280929190818152602001828054611ebb90614a3e565b8015611f085780601f10611edd57610100808354040283529160200191611f08565b820191906000526020600020905b815481529060010190602001808311611eeb57829003601f168201915b505050918352505060028281015460209092019160ff1690811115611f2f57611f2f614296565b6002811115611f4057611f40614296565b8152602001600382018054611f5490614a3e565b80601f0160208091040260200160405190810160405280929190818152602001828054611f8090614a3e565b8015611fcd5780601f10611fa257610100808354040283529160200191611fcd565b820191906000526020600020905b815481529060010190602001808311611fb057829003601f168201915b50505091909252505050602081015160608201516040909201519097919650945092505050565b6060600060645b600a5481101561206c57600081815260016020819052604090912001546001600160a01b03858116911614801561205157506000818152600160205260409020600301546201000090046001600160a01b031615155b15612064578161206081614aaa565b9250505b600101611ffb565b506000816001600160401b038111156120875761208761456a565b6040519080825280602002602001820160405280156120c057816020015b6120ad61411b565b8152602001906001900390816120a55790505b509050600060645b600a54811015610d6e57600081815260016020819052604090912001546001600160a01b03878116911614801561211e57506000818152600160205260409020600301546201000090046001600160a01b031615155b156122925760008181526001602081815260409283902083516101808101855281548152928101546001600160a01b031691830191909152600281018054929391929184019161216d90614a3e565b80601f016020809104026020016040519081016040528092919081815260200182805461219990614a3e565b80156121e65780601f106121bb576101008083540402835291602001916121e6565b820191906000526020600020905b8154815290600101906020018083116121c957829003601f168201915b5050509183525050600382015460ff80821615156020840152610100808304821615156040850152620100009092046001600160a01b0316606084015260048401546080840152600584015416151560a0830152600683015460c0830152600783015460e083015260088301549082015260099091015461012090910152835184908490811061227857612278614a28565b6020026020010181905250818061228e90614aaa565b9250505b6001016120c8565b60408051608081018252600080825260606020830181905292820152818101919091526001600160a01b038083166000908152602081815260409182902082516080810190935280549093168252600183018054929392918401916122fe90614a3e565b80601f016020809104026020016040519081016040528092919081815260200182805461232a90614a3e565b80156123775780601f1061234c57610100808354040283529160200191612377565b820191906000526020600020905b81548152906001019060200180831161235a57829003601f168201915b505050918352505060028281015460209092019160ff169081111561239e5761239e614296565b60028111156123af576123af614296565b81526020016003820180546123c390614a3e565b80601f01602080910402602001604051908101604052809291908181526020018280546123ef90614a3e565b801561243c5780601f106124115761010080835404028352916020019161243c565b820191906000526020600020905b81548152906001019060200180831161241f57829003601f168201915b5050505050815250509050919050565b33600090815260208190526040902060029081015460ff168181111561247457612474614296565b146124915760405162461bcd60e51b815260040161100d90614e83565b600c8054600091826124a283614aaa565b91905055905060405180610140016040528084815260200183815260200182815260200160008152602001336001600160a01b0316815260200160006001600160a01b03168152602001600015158152602001428152602001600081526020016000600481111561251557612515614296565b90526000828152600360205260409020815181906125339082614b5d565b50602082015160018281019190915560408301516002830155606083015160038301556080830151600480840180546001600160a01b0319166001600160a01b0393841617905560a085015160058501805460c0880151929094166001600160a81b031990941693909317600160a01b911515919091021790915560e0840151600684015561010084015160078401556101208401516008840180549193909260ff199092169184908111156125eb576125eb614296565b02179055505050505050565b6001600160a01b038116600090815260208190526040902060010180546060919061262190614a3e565b80601f016020809104026020016040519081016040528092919081815260200182805461264d90614a3e565b801561269a5780601f1061266f5761010080835404028352916020019161269a565b820191906000526020600020905b81548152906001019060200180831161267d57829003601f168201915b50505050509050919050565b6060600233600090815260208190526040902060029081015460ff16908111156126d2576126d2614296565b146126ef5760405162461bcd60e51b815260040161100d90614e83565b600060645b600c54811015612765576000818152600360205260409020600401546001600160a01b03163314801561274a575060008181526003602052604081206008015460ff16600481111561274857612748614296565b145b1561275d578161275981614aaa565b9250505b6001016126f4565b506000816001600160401b038111156127805761278061456a565b6040519080825280602002602001820160405280156127b957816020015b6127a66140a4565b81526020019060019003908161279e5790505b509050600060645b600c54811015610b17576000818152600360205260409020600401546001600160a01b031633148015612817575060008181526003602052604081206008015460ff16600481111561281557612815614296565b145b1561298d57600081815260036020526040908190208151610140810190925280548290829061284590614a3e565b80601f016020809104026020016040519081016040528092919081815260200182805461287190614a3e565b80156128be5780601f10612893576101008083540402835291602001916128be565b820191906000526020600020905b8154815290600101906020018083116128a157829003601f168201915b50505091835250506001820154602082015260028201546040820152600382015460608201526004808301546001600160a01b039081166080840152600584015490811660a084015260ff600160a01b9091048116151560c0840152600684015460e08401526007840154610100840152600884015461012090930192169081111561294c5761294c614296565b600481111561295d5761295d614296565b8152505083838151811061297357612973614a28565b6020026020010181905250818061298990614aaa565b9250505b6001016127c1565b61299d6140a4565b600082815260096020526040812054908190036129cc5760405162461bcd60e51b815260040161100d90614e3d565b6000818152600360205260409081902081516101408101909252805482908290611d2490614a3e565b600360205260009081526040902080548190611bf390614a3e565b600133600090815260208190526040902060029081015460ff1690811115612a3a57612a3a614296565b14612a575760405162461bcd60e51b815260040161100d90614ac3565b60008281526008602052604081205490819003612a865760405162461bcd60e51b815260040161100d90614e3d565b600081815260026020526040902060048101546001600160a01b03163314612b095760405162461bcd60e51b815260206004820152603060248201527f4f6e6c7920746865206469737472696275746f722063616e207570646174652060448201526f746865206f726465722073746174757360801b606482015260840161100d565b60088101805484919060ff19166001836004811115612b2a57612b2a614296565b02179055506003836004811115612b4357612b43614296565b03612c5457600181015433600090815260046020526040908190209051612b6b908490614c8f565b90815260200160405180910390206000828254612b889190614c9b565b90915550508054612c259033908390612ba090614a3e565b80601f0160208091040260200160405190810160405280929190818152602001828054612bcc90614a3e565b8015612c195780601f10612bee57610100808354040283529160200191612c19565b820191906000526020600020905b815481529060010190602001808311612bfc57829003601f168201915b50505050506001613ff9565b612c545733600090815260066020908152604082208054600181018255908352912001612c528282614cae565b505b50505050565b33600090815260208190526040812060029081015460ff1690811115612c8257612c82614296565b14612c9f5760405162461bcd60e51b815260040161100d90614dbc565b6000818152600160208190526040909120908101546001600160a01b03163314612d1e5760405162461bcd60e51b815260206004820152602a60248201527f4f6e6c7920746865206d616e7566616374757265722063616e20726563616c6c604482015269040e8d0ca40c4c2e8c6d60b31b606482015260840161100d565b60058101805460ff19166001179055604051339083907f5a41088291f050dab11b8aeaaeaa8fd33f2225751a5d64008f812e0362ef472590600090a35050565b600060208190529081526040902080546001820180546001600160a01b039092169291612d8a90614a3e565b80601f0160208091040260200160405190810160405280929190818152602001828054612db690614a3e565b8015612e035780601f10612dd857610100808354040283529160200191612e03565b820191906000526020600020905b815481529060010190602001808311612de657829003601f168201915b5050506002840154600385018054949560ff909216949193509150612e2790614a3e565b80601f0160208091040260200160405190810160405280929190818152602001828054612e5390614a3e565b8015612ea05780601f10612e7557610100808354040283529160200191612ea0565b820191906000526020600020905b815481529060010190602001808311612e8357829003601f168201915b5050505050905084565b60016020819052600091825260409091208054918101546002820180546001600160a01b039092169291612edd90614a3e565b80601f0160208091040260200160405190810160405280929190818152602001828054612f0990614a3e565b8015612f565780601f10612f2b57610100808354040283529160200191612f56565b820191906000526020600020905b815481529060010190602001808311612f3957829003601f168201915b50505050600383015460048401546005850154600686015460078701546008880154600990980154969760ff80871698610100880482169850620100009097046001600160a01b0316969416938c565b33600090815260208190526040812060029081015460ff1690811115612fce57612fce614296565b14612feb5760405162461bcd60e51b815260040161100d90614dbc565b6000818152600160208190526040909120908101546001600160a01b0316331461306c5760405162461bcd60e51b815260206004820152602c60248201527f4f6e6c7920746865206d616e7566616374757265722063616e2064697361707060448201526b726f7665207175616c69747960a01b606482015260840161100d565b60038101805461ffff1916610100179055604051339083907fc8c94276e66e72c265ff6c7a450b182f9910586a93051227e6024c1fbceaa88e90600090a35050565b33600090815260208190526040902060029081015460ff16818111156130d6576130d6614296565b146130f35760405162461bcd60e51b815260040161100d90614e83565b600082815260096020526040812054908190036131225760405162461bcd60e51b815260040161100d90614e3d565b600081815260036020526040902060048101546001600160a01b031633146131a25760405162461bcd60e51b815260206004820152602d60248201527f4f6e6c79207468652070726f76696465722063616e207570646174652074686560448201526c206f726465722073746174757360981b606482015260840161100d565b60088101805484919060ff191660018360048111156131c3576131c3614296565b021790555060038360048111156131dc576131dc614296565b03612c5457600181015433600090815260056020526040908190209051613204908490614c8f565b908152602001604051809103902060008282546132219190614c9b565b90915550508054613239903390839061141a90614a3e565b612c545733600090815260076020908152604082208054600181018255908352912001612c528282614cae565b6060600060645b600b548110156132e3576000818152600260205260409020600401546001600160a01b0385811691161480156132c85750600360008281526002602052604090206008015460ff1660048111156132c6576132c6614296565b145b156132db57816132d781614aaa565b9250505b60010161326d565b506000816001600160401b038111156132fe576132fe61456a565b60405190808252806020026020018201604052801561333757816020015b6133246140a4565b81526020019060019003908161331c5790505b509050600060645b600b54811015610d6e576000818152600260205260409020600401546001600160a01b03878116911614801561339a5750600360008281526002602052604090206008015460ff16600481111561339857613398614296565b145b156135105760008181526002602052604090819020815161014081019092528054829082906133c890614a3e565b80601f01602080910402602001604051908101604052809291908181526020018280546133f490614a3e565b80156134415780601f1061341657610100808354040283529160200191613441565b820191906000526020600020905b81548152906001019060200180831161342457829003601f168201915b50505091835250506001820154602082015260028201546040820152600382015460608201526004808301546001600160a01b039081166080840152600584015490811660a084015260ff600160a01b9091048116151560c0840152600684015460e0840152600784015461010084015260088401546101209093019216908111156134cf576134cf614296565b60048111156134e0576134e0614296565b815250508383815181106134f6576134f6614a28565b6020026020010181905250818061350c90614aaa565b9250505b60010161333f565b6060600060645b600b54811015613563576000818152600260205260409020600401546001600160a01b0380861691160361355b578161355781614aaa565b9250505b60010161351f565b506000816001600160401b0381111561357e5761357e61456a565b6040519080825280602002602001820160405280156135b757816020015b6135a46140a4565b81526020019060019003908161359c5790505b509050600060645b600b54811015610d6e576000818152600260205260409020600401546001600160a01b0380881691160361375e57600081815260026020526040908190208151610140810190925280548290829061361690614a3e565b80601f016020809104026020016040519081016040528092919081815260200182805461364290614a3e565b801561368f5780601f106136645761010080835404028352916020019161368f565b820191906000526020600020905b81548152906001019060200180831161367257829003601f168201915b50505091835250506001820154602082015260028201546040820152600382015460608201526004808301546001600160a01b039081166080840152600584015490811660a084015260ff600160a01b9091048116151560c0840152600684015460e08401526007840154610100840152600884015461012090930192169081111561371d5761371d614296565b600481111561372e5761372e614296565b8152505083838151811061374457613744614a28565b6020026020010181905250818061375a90614aaa565b9250505b6001016135bf565b6007602052816000526040600020818154811061378257600080fd5b9060005260206000200160009150915050805461379e90614a3e565b80601f01602080910402602001604051908101604052809291908181526020018280546137ca90614a3e565b80156138175780601f106137ec57610100808354040283529160200191613817565b820191906000526020600020905b8154815290600101906020018083116137fa57829003601f168201915b505050505081565b6138276140a4565b60008281526002602081905260408220908101549091036138815760405162461bcd60e51b815260206004820152601460248201527313dc99195c88191bd95cc81b9bdd08195e1a5cdd60621b604482015260640161100d565b8060405180610140016040529081600082018054611d2490614a3e565b6138a66140a4565b600082815260036020526040812060028101549091036138815760405162461bcd60e51b815260206004820152601460248201527313dc99195c88191bd95cc81b9bdd08195e1a5cdd60621b604482015260640161100d565b6060600060645b600c5481101561397c576000818152600360205260409020600401546001600160a01b0385811691161480156139615750600360008281526003602052604090206008015460ff16600481111561395f5761395f614296565b145b15613974578161397081614aaa565b9250505b600101613906565b506000816001600160401b038111156139975761399761456a565b6040519080825280602002602001820160405280156139d057816020015b6139bd6140a4565b8152602001906001900390816139b55790505b509050600060645b600c54811015610d6e576000818152600360205260409020600401546001600160a01b038781169116148015613a335750600360008281526003602052604090206008015460ff166004811115613a3157613a31614296565b145b15613ba9576000818152600360205260409081902081516101408101909252805482908290613a6190614a3e565b80601f0160208091040260200160405190810160405280929190818152602001828054613a8d90614a3e565b8015613ada5780601f10613aaf57610100808354040283529160200191613ada565b820191906000526020600020905b815481529060010190602001808311613abd57829003601f168201915b50505091835250506001820154602082015260028201546040820152600382015460608201526004808301546001600160a01b039081166080840152600584015490811660a084015260ff600160a01b9091048116151560c0840152600684015460e084015260078401546101008401526008840154610120909301921690811115613b6857613b68614296565b6004811115613b7957613b79614296565b81525050838381518110613b8f57613b8f614a28565b60200260200101819052508180613ba590614aaa565b9250505b6001016139d8565b6006602052816000526040600020818154811061378257600080fd5b600133600090815260208190526040902060029081015460ff1690811115613bf757613bf7614296565b14613c145760405162461bcd60e51b815260040161100d90614ac3565b600b805460009182613c2583614aaa565b91905055905060405180610140016040528084815260200183815260200182815260200160008152602001336001600160a01b0316815260200160006001600160a01b031681526020016000151581526020014281526020016000815260200160006004811115613c9857613c98614296565b90526000828152600260205260409020815181906125339082614b5d565b600060645b600a54811015613cfe57600081815260016020526040902060040154839003613cf65760009081526001602052604090206009015492915050565b600101613cbb565b50600092915050565b33600090815260208190526040812060029081015460ff1690811115613d2f57613d2f614296565b14613d4c5760405162461bcd60e51b815260040161100d90614dbc565b60016001600160a01b038316600090815260208190526040902060029081015460ff1690811115613d7f57613d7f614296565b14613dc25760405162461bcd60e51b815260206004820152601360248201527224b73b30b634b2103234b9ba3934b13aba37b960691b604482015260640161100d565b6000838152600160205260409020600381015460ff16613e245760405162461bcd60e51b815260206004820152601e60248201527f4261746368206d757374206265207175616c69747920617070726f7665640000604482015260640161100d565b60038101546201000090046001600160a01b031615613e7e5760405162461bcd60e51b815260206004820152601660248201527510985d18da08185b1c9958591e48185cdcda59db995960521b604482015260640161100d565b6000828152600260205260409020600381015415613eea5760405162461bcd60e51b8152602060048201526024808201527f4f7264657220697320616c72656164792061737369676e656420746f206120626044820152630c2e8c6d60e31b606482015260840161100d565b816008015481600101541115613f505760405162461bcd60e51b815260206004820152602560248201527f4f72646572207175616e746974792065786365656473206261746368207175616044820152646e7469747960d81b606482015260840161100d565b6003828101805462010000600160b01b031916620100006001600160a01b0388169081029190911790915560098401859055908201869055600582018054336001600160a01b03199091161790556008808301805460ff191660021790554260078401556004840154600090815260209190915260408082208690555187917f8e6804b2e7bfb70fb26b5bbf7a87382c43918cd5fd77219d8846c3c4f302ad0a91a35050505050565b6000808261401e576001600160a01b0385166000908152600760205260409020614037565b6001600160a01b03851660009081526006602052604090205b905060005b815481101561409657848051906020012082828154811061405f5761405f614a28565b906000526020600020016040516140769190614c8f565b60405180910390200361408e5760019250505061409d565b60010161403c565b5060009150505b9392505050565b6040518061014001604052806060815260200160008152602001600081526020016000815260200160006001600160a01b0316815260200160006001600160a01b0316815260200160001515815260200160008152602001600081526020016000600481111561411657614116614296565b905290565b6040518061018001604052806000815260200160006001600160a01b031681526020016060815260200160001515815260200160001515815260200160006001600160a01b0316815260200160008019168152602001600015158152602001600081526020016000815260200160008152602001600081525090565b80356001600160a01b03811681146141ae57600080fd5b919050565b6000602082840312156141c557600080fd5b61409d82614197565b60005b838110156141e95781810151838201526020016141d1565b50506000910152565b6000815180845261420a8160208601602086016141ce565b601f01601f19169290920160200192915050565b600060208083018184528085518083526040925060408601915060408160051b87010184880160005b8381101561428857888303603f190185528151805187855261426b888601826141f2565b918901519489019490945294870194925090860190600101614247565b509098975050505050505050565b634e487b7160e01b600052602160045260246000fd5b600581106142bc576142bc614296565b9052565b600061014082518185526142d6828601826141f2565b915050602083015160208501526040830151604085015260608301516060850152608083015161431160808601826001600160a01b03169052565b5060a083015161432c60a08601826001600160a01b03169052565b5060c083015161434060c086018215159052565b5060e083015160e085015261010080840151818601525061012080840151610d6e828701826142ac565b600060208083016020845280855180835260408601915060408160051b87010192506020870160005b828110156143c157603f198886030184526143af8583516142c0565b94509285019290850190600101614393565b5092979650505050505050565b600060208083016020845280855180835260408601915060408160051b87010192506020870160005b828110156143c157603f198886030184526144138583516142c0565b945092850192908501906001016143f7565b600381106142bc576142bc614296565b602081016144438284614425565b92915050565b600060208083018184528085518083526040925060408601915060408160051b87010184880160005b8381101561428857603f19898403018552815180518452878101516001600160a01b03168885015286810151610180888601819052906144b4828701826141f2565b9150506060808301516144ca8288018215159052565b505060808281015115159086015260a0808301516001600160a01b03169086015260c0808301519086015260e0808301511515908601526101008083015190860152610120808301519086015261014080830151908601526101609182015191909401529386019390860190600101614472565b6000806040838503121561455157600080fd5b8235915061456160208401614197565b90509250929050565b634e487b7160e01b600052604160045260246000fd5b600082601f83011261459157600080fd5b81356001600160401b03808211156145ab576145ab61456a565b604051601f8301601f19908116603f011681019082821181831017156145d3576145d361456a565b816040528381528660208588010111156145ec57600080fd5b836020870160208301376000602085830101528094505050505092915050565b6000806000806080858703121561462257600080fd5b61462b85614197565b935060208501356001600160401b038082111561464757600080fd5b61465388838901614580565b9450604087013591506003821061466957600080fd5b9092506060860135908082111561467f57600080fd5b5061468c87828801614580565b91505092959194509250565b600080600080608085870312156146ae57600080fd5b84356001600160401b038111156146c457600080fd5b6146d087828801614580565b97602087013597506040870135966060013595509350505050565b6000602082840312156146fd57600080fd5b5035919050565b60006101408083526147188184018e6141f2565b9150508a602083015289604083015288606083015260018060a01b03808916608084015280881660a08401525085151560c08301528460e0830152836101008301526147686101208301846142ac565b9b9a5050505050505050505050565b60208152600061409d60208301846142c0565b60608152600061479d60608301866141f2565b82810360208401526147af81866141f2565b9150506147bf6040830184614425565b949350505050565b602080825282516001600160a01b031682820152820151608060408301526000906147f560a08401826141f2565b905060408401516148096060850182614425565b506060840151838203601f1901608085015261482582826141f2565b95945050505050565b6000806040838503121561484157600080fd5b61484a83614197565b915060208301356001600160401b0381111561486557600080fd5b61487185828601614580565b9150509250929050565b6000806040838503121561488e57600080fd5b82356001600160401b038111156148a457600080fd5b6148b085828601614580565b95602094909401359450505050565b60208152600061409d60208301846141f2565b600080604083850312156148e557600080fd5b823591506020830135600581106148fb57600080fd5b809150509250929050565b6001600160a01b038516815260806020820181905260009061492a908301866141f2565b6149376040840186614425565b828103606084015261494981856141f2565b979650505050505050565b8c81526001600160a01b038c81166020830152610180604083018190526000916149808483018f6141f2565b9c151560608501529a1515608084015250509690971660a087015260c086019490945291151560e085015261010084015261012083015261014082015261016001529392505050565b600080604083850312156149dc57600080fd5b6149e583614197565b946020939093013593505050565b600080600060608486031215614a0857600080fd5b83359250614a1860208501614197565b9150604084013590509250925092565b634e487b7160e01b600052603260045260246000fd5b600181811c90821680614a5257607f821691505b602082108103614a7257634e487b7160e01b600052602260045260246000fd5b50919050565b60008251614a8a8184602087016141ce565b9190910192915050565b634e487b7160e01b600052601160045260246000fd5b600060018201614abc57614abc614a94565b5060010190565b60208082526029908201527f4f6e6c79206469737472696275746f72732063616e20706572666f726d20746860408201526834b99030b1ba34b7b760b91b606082015260800190565b601f821115614b58576000816000526020600020601f850160051c81016020861015614b355750805b601f850160051c820191505b81811015614b5457828155600101614b41565b5050505b505050565b81516001600160401b03811115614b7657614b7661456a565b614b8a81614b848454614a3e565b84614b0c565b602080601f831160018114614bbf5760008415614ba75750858301515b600019600386901b1c1916600185901b178555614b54565b600085815260208120601f198616915b82811015614bee57888601518255948401946001909101908401614bcf565b5085821015614c0c5787850151600019600388901b60f8161c191681555b5050505050600190811b01905550565b60008154614c2981614a3e565b60018281168015614c415760018114614c5657614c85565b60ff1984168752821515830287019450614c85565b8560005260208060002060005b85811015614c7c5781548a820152908401908201614c63565b50505082870194505b5050505092915050565b600061409d8284614c1c565b8082018082111561444357614443614a94565b818103614cb9575050565b614cc38254614a3e565b6001600160401b03811115614cda57614cda61456a565b614ce881614b848454614a3e565b6000601f821160018114614d1c5760008315614d045750848201545b600019600385901b1c1916600184901b178455612c52565b600085815260209020601f19841690600086815260209020845b83811015614d565782860154825560019586019590910190602001614d36565b5085831015614c0c5793015460001960f8600387901b161c19169092555050600190811b01905550565b606081526000614d9360608301866141f2565b614da06020840186614425565b8281036040840152614db281856141f2565b9695505050505050565b6020808252602a908201527f4f6e6c79206d616e756661637475726572732063616e20706572666f726d20746040820152693434b99030b1ba34b7b760b11b606082015260800190565b60a081526000614e1960a08301886141f2565b90508560208301528460408301528360608301528260808301529695505050505050565b60208082526026908201527f4f72646572206e6f7420666f756e6420666f722074686520676976656e20524660408201526512510815525160d21b606082015260800190565b60208082526026908201527f4f6e6c792070726f7669646572732063616e20706572666f726d20746869732060408201526530b1ba34b7b760d11b60608201526080019056fea26469706673582212205616ea37b33876ecb5a6cccf1e794c5cf0a1debb6228e49fad6dd4806c5f0bde64736f6c63430008180033","opcodes":"PUSH1 0x80 PUSH1 0x40 MSTORE PUSH1 0x64 PUSH1 0xA SSTORE PUSH1 0x64 PUSH1 0xB SSTORE PUSH1 0x64 PUSH1 0xC SSTORE CALLVALUE DUP1 ISZERO PUSH2 0x1F JUMPI PUSH1 0x0 DUP1 REVERT JUMPDEST POP PUSH2 0x4EFF DUP1 PUSH2 0x2F PUSH1 0x0 CODECOPY PUSH1 0x0 RETURN INVALID PUSH1 0x80 PUSH1 0x40 MSTORE CALLVALUE DUP1 ISZERO PUSH2 0x10 JUMPI PUSH1 0x0 DUP1 REVERT JUMPDEST POP PUSH1 0x4 CALLDATASIZE LT PUSH2 0x274 JUMPI PUSH1 0x0 CALLDATALOAD PUSH1 0xE0 SHR DUP1 PUSH4 0x87F95FA8 GT PUSH2 0x151 JUMPI DUP1 PUSH4 0xCED27743 GT PUSH2 0xC3 JUMPI DUP1 PUSH4 0xE0444712 GT PUSH2 0x87 JUMPI DUP1 PUSH4 0xE0444712 EQ PUSH2 0x66B JUMPI DUP1 PUSH4 0xE3C6E07E EQ PUSH2 0x67E JUMPI DUP1 PUSH4 0xF1BD14AD EQ PUSH2 0x691 JUMPI DUP1 PUSH4 0xF212D6D9 EQ PUSH2 0x6CD JUMPI DUP1 PUSH4 0xF98DFC26 EQ PUSH2 0x6E0 JUMPI DUP1 PUSH4 0xFA4B47A3 EQ PUSH2 0x6F3 JUMPI PUSH1 0x0 DUP1 REVERT JUMPDEST DUP1 PUSH4 0xCED27743 EQ PUSH2 0x616 JUMPI DUP1 PUSH4 0xD0AEB537 EQ PUSH2 0x629 JUMPI DUP1 PUSH4 0xD3862238 EQ PUSH2 0x63C JUMPI DUP1 PUSH4 0xD56F40DD EQ PUSH2 0x645 JUMPI DUP1 PUSH4 0xDD185A09 EQ PUSH2 0x658 JUMPI PUSH1 0x0 DUP1 REVERT JUMPDEST DUP1 PUSH4 0xA6E162B4 GT PUSH2 0x115 JUMPI DUP1 PUSH4 0xA6E162B4 EQ PUSH2 0x57C JUMPI DUP1 PUSH4 0xA87430BA EQ PUSH2 0x58F JUMPI DUP1 PUSH4 0xB32C4D8D EQ PUSH2 0x5B2 JUMPI DUP1 PUSH4 0xB616E184 EQ PUSH2 0x5DD JUMPI DUP1 PUSH4 0xBE213FB6 EQ PUSH2 0x5F0 JUMPI DUP1 PUSH4 0xC0A5194E EQ PUSH2 0x603 JUMPI PUSH1 0x0 DUP1 REVERT JUMPDEST DUP1 PUSH4 0x87F95FA8 EQ PUSH2 0x51B JUMPI DUP1 PUSH4 0x88A1326C EQ PUSH2 0x523 JUMPI DUP1 PUSH4 0x95C53D49 EQ PUSH2 0x536 JUMPI DUP1 PUSH4 0x9795C0A3 EQ PUSH2 0x549 JUMPI DUP1 PUSH4 0x97BBA814 EQ PUSH2 0x569 JUMPI PUSH1 0x0 DUP1 REVERT JUMPDEST DUP1 PUSH4 0x4A746B7B GT PUSH2 0x1EA JUMPI DUP1 PUSH4 0x69C212F6 GT PUSH2 0x1AE JUMPI DUP1 PUSH4 0x69C212F6 EQ PUSH2 0x47A JUMPI DUP1 PUSH4 0x6AE25D98 EQ PUSH2 0x49A JUMPI DUP1 PUSH4 0x6C6EB5CD EQ PUSH2 0x4D6 JUMPI DUP1 PUSH4 0x83E9F8BF EQ PUSH2 0x4E9 JUMPI DUP1 PUSH4 0x8429BCF7 EQ PUSH2 0x509 JUMPI DUP1 PUSH4 0x8462A7F8 EQ PUSH2 0x512 JUMPI PUSH1 0x0 DUP1 REVERT JUMPDEST DUP1 PUSH4 0x4A746B7B EQ PUSH2 0x3E9 JUMPI DUP1 PUSH4 0x4E4B18FB EQ PUSH2 0x3FC JUMPI DUP1 PUSH4 0x552063F3 EQ PUSH2 0x425 JUMPI DUP1 PUSH4 0x6386C1C7 EQ PUSH2 0x445 JUMPI DUP1 PUSH4 0x642C9719 EQ PUSH2 0x467 JUMPI PUSH1 0x0 DUP1 REVERT JUMPDEST DUP1 PUSH4 0x2D703D73 GT PUSH2 0x23C JUMPI DUP1 PUSH4 0x2D703D73 EQ PUSH2 0x34D JUMPI DUP1 PUSH4 0x3019F58E EQ PUSH2 0x36D JUMPI DUP1 PUSH4 0x3D28A301 EQ PUSH2 0x382 JUMPI DUP1 PUSH4 0x43DEEC2E EQ PUSH2 0x395 JUMPI DUP1 PUSH4 0x44DFC5F8 EQ PUSH2 0x3A8 JUMPI DUP1 PUSH4 0x491A58F7 EQ PUSH2 0x3BB JUMPI PUSH1 0x0 DUP1 REVERT JUMPDEST DUP1 PUSH4 0x163F7522 EQ PUSH2 0x279 JUMPI DUP1 PUSH4 0x1C5A3A53 EQ PUSH2 0x2BC JUMPI DUP1 PUSH4 0x1D8ABC8F EQ PUSH2 0x2DC JUMPI DUP1 PUSH4 0x2615457B EQ PUSH2 0x2F1 JUMPI DUP1 PUSH4 0x27820851 EQ PUSH2 0x311 JUMPI JUMPDEST PUSH1 0x0 DUP1 REVERT JUMPDEST PUSH2 0x2A7 PUSH2 0x287 CALLDATASIZE PUSH1 0x4 PUSH2 0x41B3 JUMP JUMPDEST PUSH1 0x1 PUSH1 0x1 PUSH1 0xA0 SHL SUB SWAP1 DUP2 AND PUSH1 0x0 SWAP1 DUP2 MSTORE PUSH1 0x20 DUP2 SWAP1 MSTORE PUSH1 0x40 SWAP1 KECCAK256 SLOAD AND ISZERO ISZERO SWAP1 JUMP JUMPDEST PUSH1 0x40 MLOAD SWAP1 ISZERO ISZERO DUP2 MSTORE PUSH1 0x20 ADD JUMPDEST PUSH1 0x40 MLOAD DUP1 SWAP2 SUB SWAP1 RETURN JUMPDEST PUSH2 0x2CF PUSH2 0x2CA CALLDATASIZE PUSH1 0x4 PUSH2 0x41B3 JUMP JUMPDEST PUSH2 0x706 JUMP JUMPDEST PUSH1 0x40 MLOAD PUSH2 0x2B3 SWAP2 SWAP1 PUSH2 0x421E JUMP JUMPDEST PUSH2 0x2E4 PUSH2 0x8D1 JUMP JUMPDEST PUSH1 0x40 MLOAD PUSH2 0x2B3 SWAP2 SWAP1 PUSH2 0x436A JUMP JUMPDEST PUSH2 0x304 PUSH2 0x2FF CALLDATASIZE PUSH1 0x4 PUSH2 0x41B3 JUMP JUMPDEST PUSH2 0xB20 JUMP JUMPDEST PUSH1 0x40 MLOAD PUSH2 0x2B3 SWAP2 SWAP1 PUSH2 0x43CE JUMP JUMPDEST PUSH2 0x340 PUSH2 0x31F CALLDATASIZE PUSH1 0x4 PUSH2 0x41B3 JUMP JUMPDEST PUSH1 0x1 PUSH1 0x1 PUSH1 0xA0 SHL SUB AND PUSH1 0x0 SWAP1 DUP2 MSTORE PUSH1 0x20 DUP2 SWAP1 MSTORE PUSH1 0x40 SWAP1 KECCAK256 PUSH1 0x2 ADD SLOAD PUSH1 0xFF AND SWAP1 JUMP JUMPDEST PUSH1 0x40 MLOAD PUSH2 0x2B3 SWAP2 SWAP1 PUSH2 0x4435 JUMP JUMPDEST PUSH2 0x360 PUSH2 0x35B CALLDATASIZE PUSH1 0x4 PUSH2 0x41B3 JUMP JUMPDEST PUSH2 0xD78 JUMP JUMPDEST PUSH1 0x40 MLOAD PUSH2 0x2B3 SWAP2 SWAP1 PUSH2 0x4449 JUMP JUMPDEST PUSH2 0x380 PUSH2 0x37B CALLDATASIZE PUSH1 0x4 PUSH2 0x453E JUMP JUMPDEST PUSH2 0xFC6 JUMP JUMPDEST STOP JUMPDEST PUSH2 0x380 PUSH2 0x390 CALLDATASIZE PUSH1 0x4 PUSH2 0x460C JUMP JUMPDEST PUSH2 0x1516 JUMP JUMPDEST PUSH2 0x380 PUSH2 0x3A3 CALLDATASIZE PUSH1 0x4 PUSH2 0x4698 JUMP JUMPDEST PUSH2 0x166D JUMP JUMPDEST PUSH2 0x380 PUSH2 0x3B6 CALLDATASIZE PUSH1 0x4 PUSH2 0x46EB JUMP JUMPDEST PUSH2 0x1911 JUMP JUMPDEST PUSH2 0x3DB PUSH2 0x3C9 CALLDATASIZE PUSH1 0x4 PUSH2 0x46EB JUMP JUMPDEST PUSH1 0x8 PUSH1 0x20 MSTORE PUSH1 0x0 SWAP1 DUP2 MSTORE PUSH1 0x40 SWAP1 KECCAK256 SLOAD DUP2 JUMP JUMPDEST PUSH1 0x40 MLOAD SWAP1 DUP2 MSTORE PUSH1 0x20 ADD PUSH2 0x2B3 JUMP JUMPDEST PUSH2 0x2CF PUSH2 0x3F7 CALLDATASIZE PUSH1 0x4 PUSH2 0x41B3 JUMP JUMPDEST PUSH2 0x1A15 JUMP JUMPDEST PUSH2 0x40F PUSH2 0x40A CALLDATASIZE PUSH1 0x4 PUSH2 0x46EB JUMP JUMPDEST PUSH2 0x1BD8 JUMP JUMPDEST PUSH1 0x40 MLOAD PUSH2 0x2B3 SWAP11 SWAP10 SWAP9 SWAP8 SWAP7 SWAP6 SWAP5 SWAP4 SWAP3 SWAP2 SWAP1 PUSH2 0x4704 JUMP JUMPDEST PUSH2 0x438 PUSH2 0x433 CALLDATASIZE PUSH1 0x4 PUSH2 0x46EB JUMP JUMPDEST PUSH2 0x1CC4 JUMP JUMPDEST PUSH1 0x40 MLOAD PUSH2 0x2B3 SWAP2 SWAP1 PUSH2 0x4777 JUMP JUMPDEST PUSH2 0x458 PUSH2 0x453 CALLDATASIZE PUSH1 0x4 PUSH2 0x41B3 JUMP JUMPDEST PUSH2 0x1E46 JUMP JUMPDEST PUSH1 0x40 MLOAD PUSH2 0x2B3 SWAP4 SWAP3 SWAP2 SWAP1 PUSH2 0x478A JUMP JUMPDEST PUSH2 0x360 PUSH2 0x475 CALLDATASIZE PUSH1 0x4 PUSH2 0x41B3 JUMP JUMPDEST PUSH2 0x1FF4 JUMP JUMPDEST PUSH2 0x48D PUSH2 0x488 CALLDATASIZE PUSH1 0x4 PUSH2 0x41B3 JUMP JUMPDEST PUSH2 0x229A JUMP JUMPDEST PUSH1 0x40 MLOAD PUSH2 0x2B3 SWAP2 SWAP1 PUSH2 0x47C7 JUMP JUMPDEST PUSH2 0x3DB PUSH2 0x4A8 CALLDATASIZE PUSH1 0x4 PUSH2 0x482E JUMP JUMPDEST PUSH1 0x5 PUSH1 0x20 SWAP1 DUP2 MSTORE PUSH1 0x0 SWAP3 DUP4 MSTORE PUSH1 0x40 SWAP1 SWAP3 KECCAK256 DUP2 MLOAD DUP1 DUP4 ADD DUP5 ADD DUP1 MLOAD SWAP3 DUP2 MSTORE SWAP1 DUP5 ADD SWAP3 SWAP1 SWAP4 ADD SWAP2 SWAP1 SWAP2 KECCAK256 SWAP2 MSTORE SLOAD DUP2 JUMP JUMPDEST PUSH2 0x380 PUSH2 0x4E4 CALLDATASIZE PUSH1 0x4 PUSH2 0x487B JUMP JUMPDEST PUSH2 0x244C JUMP JUMPDEST PUSH2 0x4FC PUSH2 0x4F7 CALLDATASIZE PUSH1 0x4 PUSH2 0x41B3 JUMP JUMPDEST PUSH2 0x25F7 JUMP JUMPDEST PUSH1 0x40 MLOAD PUSH2 0x2B3 SWAP2 SWAP1 PUSH2 0x48BF JUMP JUMPDEST PUSH2 0x3DB PUSH1 0xB SLOAD DUP2 JUMP JUMPDEST PUSH2 0x3DB PUSH1 0xA SLOAD DUP2 JUMP JUMPDEST PUSH2 0x304 PUSH2 0x26A6 JUMP JUMPDEST PUSH2 0x438 PUSH2 0x531 CALLDATASIZE PUSH1 0x4 PUSH2 0x46EB JUMP JUMPDEST PUSH2 0x2995 JUMP JUMPDEST PUSH2 0x40F PUSH2 0x544 CALLDATASIZE PUSH1 0x4 PUSH2 0x46EB JUMP JUMPDEST PUSH2 0x29F5 JUMP JUMPDEST PUSH2 0x3DB PUSH2 0x557 CALLDATASIZE PUSH1 0x4 PUSH2 0x46EB JUMP JUMPDEST PUSH1 0x9 PUSH1 0x20 MSTORE PUSH1 0x0 SWAP1 DUP2 MSTORE PUSH1 0x40 SWAP1 KECCAK256 SLOAD DUP2 JUMP JUMPDEST PUSH2 0x380 PUSH2 0x577 CALLDATASIZE PUSH1 0x4 PUSH2 0x48D2 JUMP JUMPDEST PUSH2 0x2A10 JUMP JUMPDEST PUSH2 0x380 PUSH2 0x58A CALLDATASIZE PUSH1 0x4 PUSH2 0x46EB JUMP JUMPDEST PUSH2 0x2C5A JUMP JUMPDEST PUSH2 0x5A2 PUSH2 0x59D CALLDATASIZE PUSH1 0x4 PUSH2 0x41B3 JUMP JUMPDEST PUSH2 0x2D5E JUMP JUMPDEST PUSH1 0x40 MLOAD PUSH2 0x2B3 SWAP5 SWAP4 SWAP3 SWAP2 SWAP1 PUSH2 0x4906 JUMP JUMPDEST PUSH2 0x5C5 PUSH2 0x5C0 CALLDATASIZE PUSH1 0x4 PUSH2 0x46EB JUMP JUMPDEST PUSH2 0x2EAA JUMP JUMPDEST PUSH1 0x40 MLOAD PUSH2 0x2B3 SWAP13 SWAP12 SWAP11 SWAP10 SWAP9 SWAP8 SWAP7 SWAP6 SWAP5 SWAP4 SWAP3 SWAP2 SWAP1 PUSH2 0x4954 JUMP JUMPDEST PUSH2 0x380 PUSH2 0x5EB CALLDATASIZE PUSH1 0x4 PUSH2 0x46EB JUMP JUMPDEST PUSH2 0x2FA6 JUMP JUMPDEST PUSH2 0x380 PUSH2 0x5FE CALLDATASIZE PUSH1 0x4 PUSH2 0x48D2 JUMP JUMPDEST PUSH2 0x30AE JUMP JUMPDEST PUSH2 0x2E4 PUSH2 0x611 CALLDATASIZE PUSH1 0x4 PUSH2 0x41B3 JUMP JUMPDEST PUSH2 0x3266 JUMP JUMPDEST PUSH2 0x2E4 PUSH2 0x624 CALLDATASIZE PUSH1 0x4 PUSH2 0x41B3 JUMP JUMPDEST PUSH2 0x3518 JUMP JUMPDEST PUSH2 0x4FC PUSH2 0x637 CALLDATASIZE PUSH1 0x4 PUSH2 0x49C9 JUMP JUMPDEST PUSH2 0x3766 JUMP JUMPDEST PUSH2 0x3DB PUSH1 0xC SLOAD DUP2 JUMP JUMPDEST PUSH2 0x438 PUSH2 0x653 CALLDATASIZE PUSH1 0x4 PUSH2 0x46EB JUMP JUMPDEST PUSH2 0x381F JUMP JUMPDEST PUSH2 0x438 PUSH2 0x666 CALLDATASIZE PUSH1 0x4 PUSH2 0x46EB JUMP JUMPDEST PUSH2 0x389E JUMP JUMPDEST PUSH2 0x304 PUSH2 0x679 CALLDATASIZE PUSH1 0x4 PUSH2 0x41B3 JUMP JUMPDEST PUSH2 0x38FF JUMP JUMPDEST PUSH2 0x4FC PUSH2 0x68C CALLDATASIZE PUSH1 0x4 PUSH2 0x49C9 JUMP JUMPDEST PUSH2 0x3BB1 JUMP JUMPDEST PUSH2 0x3DB PUSH2 0x69F CALLDATASIZE PUSH1 0x4 PUSH2 0x482E JUMP JUMPDEST PUSH1 0x4 PUSH1 0x20 SWAP1 DUP2 MSTORE PUSH1 0x0 SWAP3 DUP4 MSTORE PUSH1 0x40 SWAP1 SWAP3 KECCAK256 DUP2 MLOAD DUP1 DUP4 ADD DUP5 ADD DUP1 MLOAD SWAP3 DUP2 MSTORE SWAP1 DUP5 ADD SWAP3 SWAP1 SWAP4 ADD SWAP2 SWAP1 SWAP2 KECCAK256 SWAP2 MSTORE SLOAD DUP2 JUMP JUMPDEST PUSH2 0x380 PUSH2 0x6DB CALLDATASIZE PUSH1 0x4 PUSH2 0x487B JUMP JUMPDEST PUSH2 0x3BCD JUMP JUMPDEST PUSH2 0x3DB PUSH2 0x6EE CALLDATASIZE PUSH1 0x4 PUSH2 0x46EB JUMP JUMPDEST PUSH2 0x3CB6 JUMP JUMPDEST PUSH2 0x380 PUSH2 0x701 CALLDATASIZE PUSH1 0x4 PUSH2 0x49F3 JUMP JUMPDEST PUSH2 0x3D07 JUMP JUMPDEST PUSH1 0x1 PUSH1 0x1 PUSH1 0xA0 SHL SUB DUP2 AND PUSH1 0x0 SWAP1 DUP2 MSTORE PUSH1 0x7 PUSH1 0x20 MSTORE PUSH1 0x40 DUP2 KECCAK256 SLOAD PUSH1 0x60 SWAP2 DUP2 PUSH1 0x1 PUSH1 0x1 PUSH1 0x40 SHL SUB DUP2 GT ISZERO PUSH2 0x73A JUMPI PUSH2 0x73A PUSH2 0x456A JUMP JUMPDEST PUSH1 0x40 MLOAD SWAP1 DUP1 DUP3 MSTORE DUP1 PUSH1 0x20 MUL PUSH1 0x20 ADD DUP3 ADD PUSH1 0x40 MSTORE DUP1 ISZERO PUSH2 0x780 JUMPI DUP2 PUSH1 0x20 ADD JUMPDEST PUSH1 0x40 DUP1 MLOAD DUP1 DUP3 ADD SWAP1 SWAP2 MSTORE PUSH1 0x60 DUP2 MSTORE PUSH1 0x0 PUSH1 0x20 DUP3 ADD MSTORE DUP2 MSTORE PUSH1 0x20 ADD SWAP1 PUSH1 0x1 SWAP1 SUB SWAP1 DUP2 PUSH2 0x758 JUMPI SWAP1 POP JUMPDEST POP SWAP1 POP PUSH1 0x0 JUMPDEST DUP3 DUP2 LT ISZERO PUSH2 0x8C9 JUMPI PUSH1 0x1 PUSH1 0x1 PUSH1 0xA0 SHL SUB DUP6 AND PUSH1 0x0 SWAP1 DUP2 MSTORE PUSH1 0x7 PUSH1 0x20 MSTORE PUSH1 0x40 DUP2 KECCAK256 DUP1 SLOAD DUP4 SWAP1 DUP2 LT PUSH2 0x7B8 JUMPI PUSH2 0x7B8 PUSH2 0x4A28 JUMP JUMPDEST SWAP1 PUSH1 0x0 MSTORE PUSH1 0x20 PUSH1 0x0 KECCAK256 ADD DUP1 SLOAD PUSH2 0x7CD SWAP1 PUSH2 0x4A3E JUMP JUMPDEST DUP1 PUSH1 0x1F ADD PUSH1 0x20 DUP1 SWAP2 DIV MUL PUSH1 0x20 ADD PUSH1 0x40 MLOAD SWAP1 DUP2 ADD PUSH1 0x40 MSTORE DUP1 SWAP3 SWAP2 SWAP1 DUP2 DUP2 MSTORE PUSH1 0x20 ADD DUP3 DUP1 SLOAD PUSH2 0x7F9 SWAP1 PUSH2 0x4A3E JUMP JUMPDEST DUP1 ISZERO PUSH2 0x846 JUMPI DUP1 PUSH1 0x1F LT PUSH2 0x81B JUMPI PUSH2 0x100 DUP1 DUP4 SLOAD DIV MUL DUP4 MSTORE SWAP2 PUSH1 0x20 ADD SWAP2 PUSH2 0x846 JUMP JUMPDEST DUP3 ADD SWAP2 SWAP1 PUSH1 0x0 MSTORE PUSH1 0x20 PUSH1 0x0 KECCAK256 SWAP1 JUMPDEST DUP2 SLOAD DUP2 MSTORE SWAP1 PUSH1 0x1 ADD SWAP1 PUSH1 0x20 ADD DUP1 DUP4 GT PUSH2 0x829 JUMPI DUP3 SWAP1 SUB PUSH1 0x1F AND DUP3 ADD SWAP2 JUMPDEST POP POP POP POP POP SWAP1 POP PUSH1 0x40 MLOAD DUP1 PUSH1 0x40 ADD PUSH1 0x40 MSTORE DUP1 DUP3 DUP2 MSTORE PUSH1 0x20 ADD PUSH1 0x5 PUSH1 0x0 DUP10 PUSH1 0x1 PUSH1 0x1 PUSH1 0xA0 SHL SUB AND PUSH1 0x1 PUSH1 0x1 PUSH1 0xA0 SHL SUB AND DUP2 MSTORE PUSH1 0x20 ADD SWAP1 DUP2 MSTORE PUSH1 0x20 ADD PUSH1 0x0 KECCAK256 DUP4 PUSH1 0x40 MLOAD PUSH2 0x891 SWAP2 SWAP1 PUSH2 0x4A78 JUMP JUMPDEST SWAP1 DUP2 MSTORE PUSH1 0x20 ADD PUSH1 0x40 MLOAD DUP1 SWAP2 SUB SWAP1 KECCAK256 SLOAD DUP2 MSTORE POP DUP4 DUP4 DUP2 MLOAD DUP2 LT PUSH2 0x8B5 JUMPI PUSH2 0x8B5 PUSH2 0x4A28 JUMP JUMPDEST PUSH1 0x20 SWAP1 DUP2 MUL SWAP2 SWAP1 SWAP2 ADD ADD MSTORE POP PUSH1 0x1 ADD PUSH2 0x786 JUMP JUMPDEST POP SWAP4 SWAP3 POP POP POP JUMP JUMPDEST PUSH1 0x60 PUSH1 0x0 PUSH1 0x64 JUMPDEST PUSH1 0xB SLOAD DUP2 LT ISZERO PUSH2 0x918 JUMPI PUSH1 0x0 DUP2 DUP2 MSTORE PUSH1 0x2 PUSH1 0x20 MSTORE PUSH1 0x40 SWAP1 KECCAK256 PUSH1 0x5 ADD SLOAD PUSH1 0x1 PUSH1 0xA0 SHL SWAP1 DIV PUSH1 0xFF AND PUSH2 0x910 JUMPI DUP2 PUSH2 0x90C DUP2 PUSH2 0x4AAA JUMP JUMPDEST SWAP3 POP POP JUMPDEST PUSH1 0x1 ADD PUSH2 0x8D8 JUMP JUMPDEST POP PUSH1 0x0 DUP2 PUSH1 0x1 PUSH1 0x1 PUSH1 0x40 SHL SUB DUP2 GT ISZERO PUSH2 0x933 JUMPI PUSH2 0x933 PUSH2 0x456A JUMP JUMPDEST PUSH1 0x40 MLOAD SWAP1 DUP1 DUP3 MSTORE DUP1 PUSH1 0x20 MUL PUSH1 0x20 ADD DUP3 ADD PUSH1 0x40 MSTORE DUP1 ISZERO PUSH2 0x96C JUMPI DUP2 PUSH1 0x20 ADD JUMPDEST PUSH2 0x959 PUSH2 0x40A4 JUMP JUMPDEST DUP2 MSTORE PUSH1 0x20 ADD SWAP1 PUSH1 0x1 SWAP1 SUB SWAP1 DUP2 PUSH2 0x951 JUMPI SWAP1 POP JUMPDEST POP SWAP1 POP PUSH1 0x0 PUSH1 0x64 JUMPDEST PUSH1 0xB SLOAD DUP2 LT ISZERO PUSH2 0xB17 JUMPI PUSH1 0x0 DUP2 DUP2 MSTORE PUSH1 0x2 PUSH1 0x20 MSTORE PUSH1 0x40 SWAP1 KECCAK256 PUSH1 0x5 ADD SLOAD PUSH1 0x1 PUSH1 0xA0 SHL SWAP1 DIV PUSH1 0xFF AND PUSH2 0xB0F JUMPI PUSH1 0x0 DUP2 DUP2 MSTORE PUSH1 0x2 PUSH1 0x20 MSTORE PUSH1 0x40 SWAP1 DUP2 SWAP1 KECCAK256 DUP2 MLOAD PUSH2 0x140 DUP2 ADD SWAP1 SWAP3 MSTORE DUP1 SLOAD DUP3 SWAP1 DUP3 SWAP1 PUSH2 0x9C7 SWAP1 PUSH2 0x4A3E JUMP JUMPDEST DUP1 PUSH1 0x1F ADD PUSH1 0x20 DUP1 SWAP2 DIV MUL PUSH1 0x20 ADD PUSH1 0x40 MLOAD SWAP1 DUP2 ADD PUSH1 0x40 MSTORE DUP1 SWAP3 SWAP2 SWAP1 DUP2 DUP2 MSTORE PUSH1 0x20 ADD DUP3 DUP1 SLOAD PUSH2 0x9F3 SWAP1 PUSH2 0x4A3E JUMP JUMPDEST DUP1 ISZERO PUSH2 0xA40 JUMPI DUP1 PUSH1 0x1F LT PUSH2 0xA15 JUMPI PUSH2 0x100 DUP1 DUP4 SLOAD DIV MUL DUP4 MSTORE SWAP2 PUSH1 0x20 ADD SWAP2 PUSH2 0xA40 JUMP JUMPDEST DUP3 ADD SWAP2 SWAP1 PUSH1 0x0 MSTORE PUSH1 0x20 PUSH1 0x0 KECCAK256 SWAP1 JUMPDEST DUP2 SLOAD DUP2 MSTORE SWAP1 PUSH1 0x1 ADD SWAP1 PUSH1 0x20 ADD DUP1 DUP4 GT PUSH2 0xA23 JUMPI DUP3 SWAP1 SUB PUSH1 0x1F AND DUP3 ADD SWAP2 JUMPDEST POP POP POP SWAP2 DUP4 MSTORE POP POP PUSH1 0x1 DUP3 ADD SLOAD PUSH1 0x20 DUP3 ADD MSTORE PUSH1 0x2 DUP3 ADD SLOAD PUSH1 0x40 DUP3 ADD MSTORE PUSH1 0x3 DUP3 ADD SLOAD PUSH1 0x60 DUP3 ADD MSTORE PUSH1 0x4 DUP1 DUP4 ADD SLOAD PUSH1 0x1 PUSH1 0x1 PUSH1 0xA0 SHL SUB SWAP1 DUP2 AND PUSH1 0x80 DUP5 ADD MSTORE PUSH1 0x5 DUP5 ADD SLOAD SWAP1 DUP2 AND PUSH1 0xA0 DUP5 ADD MSTORE PUSH1 0xFF PUSH1 0x1 PUSH1 0xA0 SHL SWAP1 SWAP2 DIV DUP2 AND ISZERO ISZERO PUSH1 0xC0 DUP5 ADD MSTORE PUSH1 0x6 DUP5 ADD SLOAD PUSH1 0xE0 DUP5 ADD MSTORE PUSH1 0x7 DUP5 ADD SLOAD PUSH2 0x100 DUP5 ADD MSTORE PUSH1 0x8 DUP5 ADD SLOAD PUSH2 0x120 SWAP1 SWAP4 ADD SWAP3 AND SWAP1 DUP2 GT ISZERO PUSH2 0xACE JUMPI PUSH2 0xACE PUSH2 0x4296 JUMP JUMPDEST PUSH1 0x4 DUP2 GT ISZERO PUSH2 0xADF JUMPI PUSH2 0xADF PUSH2 0x4296 JUMP JUMPDEST DUP2 MSTORE POP POP DUP4 DUP4 DUP2 MLOAD DUP2 LT PUSH2 0xAF5 JUMPI PUSH2 0xAF5 PUSH2 0x4A28 JUMP JUMPDEST PUSH1 0x20 MUL PUSH1 0x20 ADD ADD DUP2 SWAP1 MSTORE POP DUP2 DUP1 PUSH2 0xB0B SWAP1 PUSH2 0x4AAA JUMP JUMPDEST SWAP3 POP POP JUMPDEST PUSH1 0x1 ADD PUSH2 0x974 JUMP JUMPDEST POP SWAP1 SWAP4 SWAP3 POP POP POP JUMP JUMPDEST PUSH1 0x60 PUSH1 0x0 PUSH1 0x64 JUMPDEST PUSH1 0xC SLOAD DUP2 LT ISZERO PUSH2 0xB6B JUMPI PUSH1 0x0 DUP2 DUP2 MSTORE PUSH1 0x3 PUSH1 0x20 MSTORE PUSH1 0x40 SWAP1 KECCAK256 PUSH1 0x4 ADD SLOAD PUSH1 0x1 PUSH1 0x1 PUSH1 0xA0 SHL SUB DUP1 DUP7 AND SWAP2 AND SUB PUSH2 0xB63 JUMPI DUP2 PUSH2 0xB5F DUP2 PUSH2 0x4AAA JUMP JUMPDEST SWAP3 POP POP JUMPDEST PUSH1 0x1 ADD PUSH2 0xB27 JUMP JUMPDEST POP PUSH1 0x0 DUP2 PUSH1 0x1 PUSH1 0x1 PUSH1 0x40 SHL SUB DUP2 GT ISZERO PUSH2 0xB86 JUMPI PUSH2 0xB86 PUSH2 0x456A JUMP JUMPDEST PUSH1 0x40 MLOAD SWAP1 DUP1 DUP3 MSTORE DUP1 PUSH1 0x20 MUL PUSH1 0x20 ADD DUP3 ADD PUSH1 0x40 MSTORE DUP1 ISZERO PUSH2 0xBBF JUMPI DUP2 PUSH1 0x20 ADD JUMPDEST PUSH2 0xBAC PUSH2 0x40A4 JUMP JUMPDEST DUP2 MSTORE PUSH1 0x20 ADD SWAP1 PUSH1 0x1 SWAP1 SUB SWAP1 DUP2 PUSH2 0xBA4 JUMPI SWAP1 POP JUMPDEST POP SWAP1 POP PUSH1 0x0 PUSH1 0x64 JUMPDEST PUSH1 0xC SLOAD DUP2 LT ISZERO PUSH2 0xD6E JUMPI PUSH1 0x0 DUP2 DUP2 MSTORE PUSH1 0x3 PUSH1 0x20 MSTORE PUSH1 0x40 SWAP1 KECCAK256 PUSH1 0x4 ADD SLOAD PUSH1 0x1 PUSH1 0x1 PUSH1 0xA0 SHL SUB DUP1 DUP9 AND SWAP2 AND SUB PUSH2 0xD66 JUMPI PUSH1 0x0 DUP2 DUP2 MSTORE PUSH1 0x3 PUSH1 0x20 MSTORE PUSH1 0x40 SWAP1 DUP2 SWAP1 KECCAK256 DUP2 MLOAD PUSH2 0x140 DUP2 ADD SWAP1 SWAP3 MSTORE DUP1 SLOAD DUP3 SWAP1 DUP3 SWAP1 PUSH2 0xC1E SWAP1 PUSH2 0x4A3E JUMP JUMPDEST DUP1 PUSH1 0x1F ADD PUSH1 0x20 DUP1 SWAP2 DIV MUL PUSH1 0x20 ADD PUSH1 0x40 MLOAD SWAP1 DUP2 ADD PUSH1 0x40 MSTORE DUP1 SWAP3 SWAP2 SWAP1 DUP2 DUP2 MSTORE PUSH1 0x20 ADD DUP3 DUP1 SLOAD PUSH2 0xC4A SWAP1 PUSH2 0x4A3E JUMP JUMPDEST DUP1 ISZERO PUSH2 0xC97 JUMPI DUP1 PUSH1 0x1F LT PUSH2 0xC6C JUMPI PUSH2 0x100 DUP1 DUP4 SLOAD DIV MUL DUP4 MSTORE SWAP2 PUSH1 0x20 ADD SWAP2 PUSH2 0xC97 JUMP JUMPDEST DUP3 ADD SWAP2 SWAP1 PUSH1 0x0 MSTORE PUSH1 0x20 PUSH1 0x0 KECCAK256 SWAP1 JUMPDEST DUP2 SLOAD DUP2 MSTORE SWAP1 PUSH1 0x1 ADD SWAP1 PUSH1 0x20 ADD DUP1 DUP4 GT PUSH2 0xC7A JUMPI DUP3 SWAP1 SUB PUSH1 0x1F AND DUP3 ADD SWAP2 JUMPDEST POP POP POP SWAP2 DUP4 MSTORE POP POP PUSH1 0x1 DUP3 ADD SLOAD PUSH1 0x20 DUP3 ADD MSTORE PUSH1 0x2 DUP3 ADD SLOAD PUSH1 0x40 DUP3 ADD MSTORE PUSH1 0x3 DUP3 ADD SLOAD PUSH1 0x60 DUP3 ADD MSTORE PUSH1 0x4 DUP1 DUP4 ADD SLOAD PUSH1 0x1 PUSH1 0x1 PUSH1 0xA0 SHL SUB SWAP1 DUP2 AND PUSH1 0x80 DUP5 ADD MSTORE PUSH1 0x5 DUP5 ADD SLOAD SWAP1 DUP2 AND PUSH1 0xA0 DUP5 ADD MSTORE PUSH1 0xFF PUSH1 0x1 PUSH1 0xA0 SHL SWAP1 SWAP2 DIV DUP2 AND ISZERO ISZERO PUSH1 0xC0 DUP5 ADD MSTORE PUSH1 0x6 DUP5 ADD SLOAD PUSH1 0xE0 DUP5 ADD MSTORE PUSH1 0x7 DUP5 ADD SLOAD PUSH2 0x100 DUP5 ADD MSTORE PUSH1 0x8 DUP5 ADD SLOAD PUSH2 0x120 SWAP1 SWAP4 ADD SWAP3 AND SWAP1 DUP2 GT ISZERO PUSH2 0xD25 JUMPI PUSH2 0xD25 PUSH2 0x4296 JUMP JUMPDEST PUSH1 0x4 DUP2 GT ISZERO PUSH2 0xD36 JUMPI PUSH2 0xD36 PUSH2 0x4296 JUMP JUMPDEST DUP2 MSTORE POP POP DUP4 DUP4 DUP2 MLOAD DUP2 LT PUSH2 0xD4C JUMPI PUSH2 0xD4C PUSH2 0x4A28 JUMP JUMPDEST PUSH1 0x20 MUL PUSH1 0x20 ADD ADD DUP2 SWAP1 MSTORE POP DUP2 DUP1 PUSH2 0xD62 SWAP1 PUSH2 0x4AAA JUMP JUMPDEST SWAP3 POP POP JUMPDEST PUSH1 0x1 ADD PUSH2 0xBC7 JUMP JUMPDEST POP SWAP1 SWAP5 SWAP4 POP POP POP POP JUMP JUMPDEST PUSH1 0x60 PUSH1 0x0 PUSH1 0x64 JUMPDEST PUSH1 0xA SLOAD DUP2 LT ISZERO PUSH2 0xDC4 JUMPI PUSH1 0x0 DUP2 DUP2 MSTORE PUSH1 0x1 PUSH1 0x20 DUP2 SWAP1 MSTORE PUSH1 0x40 SWAP1 SWAP2 KECCAK256 ADD SLOAD PUSH1 0x1 PUSH1 0x1 PUSH1 0xA0 SHL SUB DUP1 DUP7 AND SWAP2 AND SUB PUSH2 0xDBC JUMPI DUP2 PUSH2 0xDB8 DUP2 PUSH2 0x4AAA JUMP JUMPDEST SWAP3 POP POP JUMPDEST PUSH1 0x1 ADD PUSH2 0xD7F JUMP JUMPDEST POP PUSH1 0x0 DUP2 PUSH1 0x1 PUSH1 0x1 PUSH1 0x40 SHL SUB DUP2 GT ISZERO PUSH2 0xDDF JUMPI PUSH2 0xDDF PUSH2 0x456A JUMP JUMPDEST PUSH1 0x40 MLOAD SWAP1 DUP1 DUP3 MSTORE DUP1 PUSH1 0x20 MUL PUSH1 0x20 ADD DUP3 ADD PUSH1 0x40 MSTORE DUP1 ISZERO PUSH2 0xE18 JUMPI DUP2 PUSH1 0x20 ADD JUMPDEST PUSH2 0xE05 PUSH2 0x411B JUMP JUMPDEST DUP2 MSTORE PUSH1 0x20 ADD SWAP1 PUSH1 0x1 SWAP1 SUB SWAP1 DUP2 PUSH2 0xDFD JUMPI SWAP1 POP JUMPDEST POP SWAP1 POP PUSH1 0x0 PUSH1 0x64 JUMPDEST PUSH1 0xA SLOAD DUP2 LT ISZERO PUSH2 0xD6E JUMPI PUSH1 0x0 DUP2 DUP2 MSTORE PUSH1 0x1 PUSH1 0x20 DUP2 SWAP1 MSTORE PUSH1 0x40 SWAP1 SWAP2 KECCAK256 ADD SLOAD PUSH1 0x1 PUSH1 0x1 PUSH1 0xA0 SHL SUB DUP1 DUP9 AND SWAP2 AND SUB PUSH2 0xFBE JUMPI PUSH1 0x0 DUP2 DUP2 MSTORE PUSH1 0x1 PUSH1 0x20 DUP2 DUP2 MSTORE PUSH1 0x40 SWAP3 DUP4 SWAP1 KECCAK256 DUP4 MLOAD PUSH2 0x180 DUP2 ADD DUP6 MSTORE DUP2 SLOAD DUP2 MSTORE SWAP3 DUP2 ADD SLOAD PUSH1 0x1 PUSH1 0x1 PUSH1 0xA0 SHL SUB AND SWAP2 DUP4 ADD SWAP2 SWAP1 SWAP2 MSTORE PUSH1 0x2 DUP2 ADD DUP1 SLOAD SWAP3 SWAP4 SWAP2 SWAP3 SWAP2 DUP5 ADD SWAP2 PUSH2 0xE99 SWAP1 PUSH2 0x4A3E JUMP JUMPDEST DUP1 PUSH1 0x1F ADD PUSH1 0x20 DUP1 SWAP2 DIV MUL PUSH1 0x20 ADD PUSH1 0x40 MLOAD SWAP1 DUP2 ADD PUSH1 0x40 MSTORE DUP1 SWAP3 SWAP2 SWAP1 DUP2 DUP2 MSTORE PUSH1 0x20 ADD DUP3 DUP1 SLOAD PUSH2 0xEC5 SWAP1 PUSH2 0x4A3E JUMP JUMPDEST DUP1 ISZERO PUSH2 0xF12 JUMPI DUP1 PUSH1 0x1F LT PUSH2 0xEE7 JUMPI PUSH2 0x100 DUP1 DUP4 SLOAD DIV MUL DUP4 MSTORE SWAP2 PUSH1 0x20 ADD SWAP2 PUSH2 0xF12 JUMP JUMPDEST DUP3 ADD SWAP2 SWAP1 PUSH1 0x0 MSTORE PUSH1 0x20 PUSH1 0x0 KECCAK256 SWAP1 JUMPDEST DUP2 SLOAD DUP2 MSTORE SWAP1 PUSH1 0x1 ADD SWAP1 PUSH1 0x20 ADD DUP1 DUP4 GT PUSH2 0xEF5 JUMPI DUP3 SWAP1 SUB PUSH1 0x1F AND DUP3 ADD SWAP2 JUMPDEST POP POP POP SWAP2 DUP4 MSTORE POP POP PUSH1 0x3 DUP3 ADD SLOAD PUSH1 0xFF DUP1 DUP3 AND ISZERO ISZERO PUSH1 0x20 DUP5 ADD MSTORE PUSH2 0x100 DUP1 DUP4 DIV DUP3 AND ISZERO ISZERO PUSH1 0x40 DUP6 ADD MSTORE PUSH3 0x10000 SWAP1 SWAP3 DIV PUSH1 0x1 PUSH1 0x1 PUSH1 0xA0 SHL SUB AND PUSH1 0x60 DUP5 ADD MSTORE PUSH1 0x4 DUP5 ADD SLOAD PUSH1 0x80 DUP5 ADD MSTORE PUSH1 0x5 DUP5 ADD SLOAD AND ISZERO ISZERO PUSH1 0xA0 DUP4 ADD MSTORE PUSH1 0x6 DUP4 ADD SLOAD PUSH1 0xC0 DUP4 ADD MSTORE PUSH1 0x7 DUP4 ADD SLOAD PUSH1 0xE0 DUP4 ADD MSTORE PUSH1 0x8 DUP4 ADD SLOAD SWAP1 DUP3 ADD MSTORE PUSH1 0x9 SWAP1 SWAP2 ADD SLOAD PUSH2 0x120 SWAP1 SWAP2 ADD MSTORE DUP4 MLOAD DUP5 SWAP1 DUP5 SWAP1 DUP2 LT PUSH2 0xFA4 JUMPI PUSH2 0xFA4 PUSH2 0x4A28 JUMP JUMPDEST PUSH1 0x20 MUL PUSH1 0x20 ADD ADD DUP2 SWAP1 MSTORE POP DUP2 DUP1 PUSH2 0xFBA SWAP1 PUSH2 0x4AAA JUMP JUMPDEST SWAP3 POP POP JUMPDEST PUSH1 0x1 ADD PUSH2 0xE20 JUMP JUMPDEST PUSH1 0x1 CALLER PUSH1 0x0 SWAP1 DUP2 MSTORE PUSH1 0x20 DUP2 SWAP1 MSTORE PUSH1 0x40 SWAP1 KECCAK256 PUSH1 0x2 SWAP1 DUP2 ADD SLOAD PUSH1 0xFF AND SWAP1 DUP2 GT ISZERO PUSH2 0xFF0 JUMPI PUSH2 0xFF0 PUSH2 0x4296 JUMP JUMPDEST EQ PUSH2 0x1016 JUMPI PUSH1 0x40 MLOAD PUSH3 0x461BCD PUSH1 0xE5 SHL DUP2 MSTORE PUSH1 0x4 ADD PUSH2 0x100D SWAP1 PUSH2 0x4AC3 JUMP JUMPDEST PUSH1 0x40 MLOAD DUP1 SWAP2 SUB SWAP1 REVERT JUMPDEST PUSH1 0x1 PUSH1 0x1 PUSH1 0xA0 SHL SUB DUP2 AND PUSH1 0x0 SWAP1 DUP2 MSTORE PUSH1 0x20 DUP2 SWAP1 MSTORE PUSH1 0x40 SWAP1 KECCAK256 PUSH1 0x2 SWAP1 DUP2 ADD SLOAD PUSH1 0xFF AND DUP2 DUP2 GT ISZERO PUSH2 0x1047 JUMPI PUSH2 0x1047 PUSH2 0x4296 JUMP JUMPDEST EQ PUSH2 0x1087 JUMPI PUSH1 0x40 MLOAD PUSH3 0x461BCD PUSH1 0xE5 SHL DUP2 MSTORE PUSH1 0x20 PUSH1 0x4 DUP3 ADD MSTORE PUSH1 0x10 PUSH1 0x24 DUP3 ADD MSTORE PUSH16 0x24B73B30B634B210383937BB34B232B9 PUSH1 0x81 SHL PUSH1 0x44 DUP3 ADD MSTORE PUSH1 0x64 ADD PUSH2 0x100D JUMP JUMPDEST PUSH1 0x0 DUP3 DUP2 MSTORE PUSH1 0x1 PUSH1 0x20 MSTORE PUSH1 0x40 SWAP1 KECCAK256 PUSH1 0x3 DUP2 ADD SLOAD PUSH3 0x10000 SWAP1 DIV PUSH1 0x1 PUSH1 0x1 PUSH1 0xA0 SHL SUB AND CALLER EQ PUSH2 0x1113 JUMPI PUSH1 0x40 MLOAD PUSH3 0x461BCD PUSH1 0xE5 SHL DUP2 MSTORE PUSH1 0x20 PUSH1 0x4 DUP3 ADD MSTORE PUSH1 0x33 PUSH1 0x24 DUP3 ADD MSTORE PUSH32 0x4F6E6C79207468652061737369676E6564206469737472696275746F72206361 PUSH1 0x44 DUP3 ADD MSTORE PUSH19 0xDC40C2E6E6D2CEDC40E8D0D2E640C4C2E8C6D PUSH1 0x6B SHL PUSH1 0x64 DUP3 ADD MSTORE PUSH1 0x84 ADD PUSH2 0x100D JUMP JUMPDEST PUSH1 0x3 DUP2 ADD SLOAD PUSH1 0xFF AND PUSH2 0x1167 JUMPI PUSH1 0x40 MLOAD PUSH3 0x461BCD PUSH1 0xE5 SHL DUP2 MSTORE PUSH1 0x20 PUSH1 0x4 DUP3 ADD MSTORE PUSH1 0x1E PUSH1 0x24 DUP3 ADD MSTORE PUSH32 0x4261746368206D757374206265207175616C69747920617070726F7665640000 PUSH1 0x44 DUP3 ADD MSTORE PUSH1 0x64 ADD PUSH2 0x100D JUMP JUMPDEST PUSH1 0x5 DUP2 ADD SLOAD PUSH1 0xFF AND ISZERO PUSH2 0x11BC JUMPI PUSH1 0x40 MLOAD PUSH3 0x461BCD PUSH1 0xE5 SHL DUP2 MSTORE PUSH1 0x20 PUSH1 0x4 DUP3 ADD MSTORE PUSH1 0x17 PUSH1 0x24 DUP3 ADD MSTORE PUSH32 0x426174636820686173206265656E20726563616C6C6564000000000000000000 PUSH1 0x44 DUP3 ADD MSTORE PUSH1 0x64 ADD PUSH2 0x100D JUMP JUMPDEST PUSH1 0x0 PUSH1 0x40 MLOAD DUP1 PUSH2 0x140 ADD PUSH1 0x40 MSTORE DUP1 DUP4 PUSH1 0x2 ADD DUP1 SLOAD PUSH2 0x11D9 SWAP1 PUSH2 0x4A3E JUMP JUMPDEST DUP1 PUSH1 0x1F ADD PUSH1 0x20 DUP1 SWAP2 DIV MUL PUSH1 0x20 ADD PUSH1 0x40 MLOAD SWAP1 DUP2 ADD PUSH1 0x40 MSTORE DUP1 SWAP3 SWAP2 SWAP1 DUP2 DUP2 MSTORE PUSH1 0x20 ADD DUP3 DUP1 SLOAD PUSH2 0x1205 SWAP1 PUSH2 0x4A3E JUMP JUMPDEST DUP1 ISZERO PUSH2 0x1252 JUMPI DUP1 PUSH1 0x1F LT PUSH2 0x1227 JUMPI PUSH2 0x100 DUP1 DUP4 SLOAD DIV MUL DUP4 MSTORE SWAP2 PUSH1 0x20 ADD SWAP2 PUSH2 0x1252 JUMP JUMPDEST DUP3 ADD SWAP2 SWAP1 PUSH1 0x0 MSTORE PUSH1 0x20 PUSH1 0x0 KECCAK256 SWAP1 JUMPDEST DUP2 SLOAD DUP2 MSTORE SWAP1 PUSH1 0x1 ADD SWAP1 PUSH1 0x20 ADD DUP1 DUP4 GT PUSH2 0x1235 JUMPI DUP3 SWAP1 SUB PUSH1 0x1F AND DUP3 ADD SWAP2 JUMPDEST POP POP POP POP POP DUP2 MSTORE PUSH1 0x20 ADD DUP4 PUSH1 0x8 ADD SLOAD DUP2 MSTORE PUSH1 0x20 ADD PUSH1 0xC PUSH1 0x0 DUP2 SLOAD DUP1 SWAP3 SWAP2 SWAP1 PUSH2 0x1279 SWAP1 PUSH2 0x4AAA JUMP JUMPDEST SWAP1 SWAP2 SSTORE POP DUP2 MSTORE PUSH1 0x20 DUP2 ADD DUP7 SWAP1 MSTORE PUSH1 0x1 PUSH1 0x1 PUSH1 0xA0 SHL SUB DUP6 AND PUSH1 0x40 DUP3 ADD MSTORE CALLER PUSH1 0x60 DUP3 ADD MSTORE PUSH1 0x1 PUSH1 0x80 DUP3 ADD MSTORE TIMESTAMP PUSH1 0xA0 DUP3 ADD DUP2 SWAP1 MSTORE PUSH1 0xC0 DUP3 ADD MSTORE PUSH1 0xE0 ADD PUSH1 0x2 SWAP1 MSTORE PUSH1 0x40 DUP1 DUP3 ADD MLOAD PUSH1 0x0 SWAP1 DUP2 MSTORE PUSH1 0x3 PUSH1 0x20 MSTORE KECCAK256 DUP2 MLOAD SWAP2 SWAP3 POP DUP3 SWAP2 DUP2 SWAP1 PUSH2 0x12DA SWAP1 DUP3 PUSH2 0x4B5D JUMP JUMPDEST POP PUSH1 0x20 DUP3 ADD MLOAD PUSH1 0x1 DUP3 DUP2 ADD SWAP2 SWAP1 SWAP2 SSTORE PUSH1 0x40 DUP4 ADD MLOAD PUSH1 0x2 DUP4 ADD SSTORE PUSH1 0x60 DUP4 ADD MLOAD PUSH1 0x3 DUP4 ADD SSTORE PUSH1 0x80 DUP4 ADD MLOAD PUSH1 0x4 DUP1 DUP5 ADD DUP1 SLOAD PUSH1 0x1 PUSH1 0x1 PUSH1 0xA0 SHL SUB NOT AND PUSH1 0x1 PUSH1 0x1 PUSH1 0xA0 SHL SUB SWAP4 DUP5 AND OR SWAP1 SSTORE PUSH1 0xA0 DUP6 ADD MLOAD PUSH1 0x5 DUP6 ADD DUP1 SLOAD PUSH1 0xC0 DUP9 ADD MLOAD SWAP3 SWAP1 SWAP5 AND PUSH1 0x1 PUSH1 0x1 PUSH1 0xA8 SHL SUB NOT SWAP1 SWAP5 AND SWAP4 SWAP1 SWAP4 OR PUSH1 0x1 PUSH1 0xA0 SHL SWAP2 ISZERO ISZERO SWAP2 SWAP1 SWAP2 MUL OR SWAP1 SWAP2 SSTORE PUSH1 0xE0 DUP5 ADD MLOAD PUSH1 0x6 DUP5 ADD SSTORE PUSH2 0x100 DUP5 ADD MLOAD PUSH1 0x7 DUP5 ADD SSTORE PUSH2 0x120 DUP5 ADD MLOAD PUSH1 0x8 DUP5 ADD DUP1 SLOAD SWAP2 SWAP4 SWAP1 SWAP3 PUSH1 0xFF NOT SWAP1 SWAP3 AND SWAP2 DUP5 SWAP1 DUP2 GT ISZERO PUSH2 0x1392 JUMPI PUSH2 0x1392 PUSH2 0x4296 JUMP JUMPDEST MUL OR SWAP1 SSTORE POP POP POP PUSH1 0x40 DUP1 DUP3 ADD MLOAD PUSH1 0x4 DUP5 ADD SLOAD PUSH1 0x0 SWAP1 DUP2 MSTORE PUSH1 0x9 PUSH1 0x20 SWAP1 DUP2 MSTORE DUP4 DUP3 KECCAK256 SWAP3 SWAP1 SWAP3 SSTORE PUSH1 0x8 DUP6 ADD SLOAD PUSH1 0x1 PUSH1 0x1 PUSH1 0xA0 SHL SUB DUP8 AND DUP3 MSTORE PUSH1 0x5 SWAP1 SWAP3 MSTORE DUP3 SWAP1 KECCAK256 SWAP2 MLOAD SWAP1 SWAP2 SWAP1 PUSH2 0x13E3 SWAP1 PUSH1 0x2 DUP7 ADD SWAP1 PUSH2 0x4C8F JUMP JUMPDEST SWAP1 DUP2 MSTORE PUSH1 0x20 ADD PUSH1 0x40 MLOAD DUP1 SWAP2 SUB SWAP1 KECCAK256 PUSH1 0x0 DUP3 DUP3 SLOAD PUSH2 0x1400 SWAP2 SWAP1 PUSH2 0x4C9B JUMP JUMPDEST SWAP3 POP POP DUP2 SWAP1 SSTORE POP PUSH2 0x149F DUP4 DUP4 PUSH1 0x2 ADD DUP1 SLOAD PUSH2 0x141A SWAP1 PUSH2 0x4A3E JUMP JUMPDEST DUP1 PUSH1 0x1F ADD PUSH1 0x20 DUP1 SWAP2 DIV MUL PUSH1 0x20 ADD PUSH1 0x40 MLOAD SWAP1 DUP2 ADD PUSH1 0x40 MSTORE DUP1 SWAP3 SWAP2 SWAP1 DUP2 DUP2 MSTORE PUSH1 0x20 ADD DUP3 DUP1 SLOAD PUSH2 0x1446 SWAP1 PUSH2 0x4A3E JUMP JUMPDEST DUP1 ISZERO PUSH2 0x1493 JUMPI DUP1 PUSH1 0x1F LT PUSH2 0x1468 JUMPI PUSH2 0x100 DUP1 DUP4 SLOAD DIV MUL DUP4 MSTORE SWAP2 PUSH1 0x20 ADD SWAP2 PUSH2 0x1493 JUMP JUMPDEST DUP3 ADD SWAP2 SWAP1 PUSH1 0x0 MSTORE PUSH1 0x20 PUSH1 0x0 KECCAK256 SWAP1 JUMPDEST DUP2 SLOAD DUP2 MSTORE SWAP1 PUSH1 0x1 ADD SWAP1 PUSH1 0x20 ADD DUP1 DUP4 GT PUSH2 0x1476 JUMPI DUP3 SWAP1 SUB PUSH1 0x1F AND DUP3 ADD SWAP2 JUMPDEST POP POP POP POP POP PUSH1 0x0 PUSH2 0x3FF9 JUMP JUMPDEST PUSH2 0x14DA JUMPI PUSH1 0x1 PUSH1 0x1 PUSH1 0xA0 SHL SUB DUP4 AND PUSH1 0x0 SWAP1 DUP2 MSTORE PUSH1 0x7 PUSH1 0x20 SWAP1 DUP2 MSTORE PUSH1 0x40 DUP3 KECCAK256 DUP1 SLOAD PUSH1 0x1 DUP2 ADD DUP3 SSTORE SWAP1 DUP4 MSTORE SWAP2 KECCAK256 ADD PUSH2 0x14D8 PUSH1 0x2 DUP5 ADD DUP3 PUSH2 0x4CAE JUMP JUMPDEST POP JUMPDEST PUSH1 0x40 MLOAD PUSH1 0x1 PUSH1 0x1 PUSH1 0xA0 SHL SUB DUP5 AND SWAP1 DUP6 SWAP1 PUSH32 0xD2D34B0374FAAE0161DCF8F0BB3A65ABD5D19A9464EA5777AB1A5EE6A694560A SWAP1 PUSH1 0x0 SWAP1 LOG3 POP POP POP POP JUMP JUMPDEST PUSH1 0x1 PUSH1 0x1 PUSH1 0xA0 SHL SUB DUP5 AND PUSH2 0x155E JUMPI PUSH1 0x40 MLOAD PUSH3 0x461BCD PUSH1 0xE5 SHL DUP2 MSTORE PUSH1 0x20 PUSH1 0x4 DUP3 ADD MSTORE PUSH1 0xF PUSH1 0x24 DUP3 ADD MSTORE PUSH15 0x496E76616C69642061646472657373 PUSH1 0x88 SHL PUSH1 0x44 DUP3 ADD MSTORE PUSH1 0x64 ADD PUSH2 0x100D JUMP JUMPDEST PUSH1 0x40 MLOAD DUP1 PUSH1 0x80 ADD PUSH1 0x40 MSTORE DUP1 DUP6 PUSH1 0x1 PUSH1 0x1 PUSH1 0xA0 SHL SUB AND DUP2 MSTORE PUSH1 0x20 ADD DUP5 DUP2 MSTORE PUSH1 0x20 ADD DUP4 PUSH1 0x2 DUP2 GT ISZERO PUSH2 0x1590 JUMPI PUSH2 0x1590 PUSH2 0x4296 JUMP JUMPDEST DUP2 MSTORE PUSH1 0x20 SWAP1 DUP2 ADD DUP4 SWAP1 MSTORE PUSH1 0x1 PUSH1 0x1 PUSH1 0xA0 SHL SUB DUP7 DUP2 AND PUSH1 0x0 SWAP1 DUP2 MSTORE DUP1 DUP4 MSTORE PUSH1 0x40 SWAP1 KECCAK256 DUP4 MLOAD DUP2 SLOAD PUSH1 0x1 PUSH1 0x1 PUSH1 0xA0 SHL SUB NOT AND SWAP3 AND SWAP2 SWAP1 SWAP2 OR DUP2 SSTORE SWAP1 DUP3 ADD MLOAD PUSH1 0x1 DUP3 ADD SWAP1 PUSH2 0x15DA SWAP1 DUP3 PUSH2 0x4B5D JUMP JUMPDEST POP PUSH1 0x40 DUP3 ADD MLOAD DUP2 PUSH1 0x2 ADD PUSH1 0x0 PUSH2 0x100 EXP DUP2 SLOAD DUP2 PUSH1 0xFF MUL NOT AND SWAP1 DUP4 PUSH1 0x2 DUP2 GT ISZERO PUSH2 0x1605 JUMPI PUSH2 0x1605 PUSH2 0x4296 JUMP JUMPDEST MUL OR SWAP1 SSTORE POP PUSH1 0x60 DUP3 ADD MLOAD PUSH1 0x3 DUP3 ADD SWAP1 PUSH2 0x161E SWAP1 DUP3 PUSH2 0x4B5D JUMP JUMPDEST POP SWAP1 POP POP DUP4 PUSH1 0x1 PUSH1 0x1 PUSH1 0xA0 SHL SUB AND PUSH32 0x3A403922431A43CBC3D929F1B03869FFADAB7BCE01402822980E72E6EA8E9D91 DUP5 DUP5 DUP5 PUSH1 0x40 MLOAD PUSH2 0x165F SWAP4 SWAP3 SWAP2 SWAP1 PUSH2 0x4D80 JUMP JUMPDEST PUSH1 0x40 MLOAD DUP1 SWAP2 SUB SWAP1 LOG2 POP POP POP POP JUMP JUMPDEST CALLER PUSH1 0x0 SWAP1 DUP2 MSTORE PUSH1 0x20 DUP2 SWAP1 MSTORE PUSH1 0x40 DUP2 KECCAK256 PUSH1 0x2 SWAP1 DUP2 ADD SLOAD PUSH1 0xFF AND SWAP1 DUP2 GT ISZERO PUSH2 0x1695 JUMPI PUSH2 0x1695 PUSH2 0x4296 JUMP JUMPDEST EQ PUSH2 0x16B2 JUMPI PUSH1 0x40 MLOAD PUSH3 0x461BCD PUSH1 0xE5 SHL DUP2 MSTORE PUSH1 0x4 ADD PUSH2 0x100D SWAP1 PUSH2 0x4DBC JUMP JUMPDEST PUSH1 0xA DUP1 SLOAD PUSH1 0x0 SWAP2 DUP3 PUSH2 0x16C3 DUP4 PUSH2 0x4AAA JUMP JUMPDEST SWAP2 SWAP1 POP SSTORE SWAP1 POP TIMESTAMP DUP4 GT PUSH2 0x1722 JUMPI PUSH1 0x40 MLOAD PUSH3 0x461BCD PUSH1 0xE5 SHL DUP2 MSTORE PUSH1 0x20 PUSH1 0x4 DUP3 ADD MSTORE PUSH1 0x21 PUSH1 0x24 DUP3 ADD MSTORE PUSH32 0x4578706972792064617465206D75737420626520696E20746865206675747572 PUSH1 0x44 DUP3 ADD MSTORE PUSH1 0x65 PUSH1 0xF8 SHL PUSH1 0x64 DUP3 ADD MSTORE PUSH1 0x84 ADD PUSH2 0x100D JUMP JUMPDEST PUSH1 0x0 DUP3 GT PUSH2 0x177D JUMPI PUSH1 0x40 MLOAD PUSH3 0x461BCD PUSH1 0xE5 SHL DUP2 MSTORE PUSH1 0x20 PUSH1 0x4 DUP3 ADD MSTORE PUSH1 0x22 PUSH1 0x24 DUP3 ADD MSTORE PUSH32 0x5175616E74697479206D7573742062652067726561746572207468616E207A65 PUSH1 0x44 DUP3 ADD MSTORE PUSH2 0x726F PUSH1 0xF0 SHL PUSH1 0x64 DUP3 ADD MSTORE PUSH1 0x84 ADD PUSH2 0x100D JUMP JUMPDEST PUSH1 0x40 DUP1 MLOAD PUSH2 0x180 DUP2 ADD DUP3 MSTORE DUP3 DUP2 MSTORE CALLER PUSH1 0x20 DUP1 DUP4 ADD SWAP2 DUP3 MSTORE DUP3 DUP5 ADD DUP10 DUP2 MSTORE PUSH1 0x0 PUSH1 0x60 DUP6 ADD DUP2 SWAP1 MSTORE PUSH1 0x80 DUP6 ADD DUP2 SWAP1 MSTORE PUSH1 0xA0 DUP6 ADD DUP2 SWAP1 MSTORE PUSH1 0xC0 DUP6 ADD DUP11 SWAP1 MSTORE PUSH1 0xE0 DUP6 ADD DUP2 SWAP1 MSTORE TIMESTAMP PUSH2 0x100 DUP7 ADD MSTORE PUSH2 0x120 DUP6 ADD DUP10 SWAP1 MSTORE PUSH2 0x140 DUP6 ADD DUP9 SWAP1 MSTORE PUSH2 0x160 DUP6 ADD DUP2 SWAP1 MSTORE DUP7 DUP2 MSTORE PUSH1 0x1 SWAP3 DUP4 SWAP1 MSTORE SWAP5 SWAP1 SWAP5 KECCAK256 DUP4 MLOAD DUP2 SSTORE SWAP2 MLOAD SWAP1 DUP3 ADD DUP1 SLOAD PUSH1 0x1 PUSH1 0x1 PUSH1 0xA0 SHL SUB NOT AND PUSH1 0x1 PUSH1 0x1 PUSH1 0xA0 SHL SUB SWAP1 SWAP3 AND SWAP2 SWAP1 SWAP2 OR SWAP1 SSTORE SWAP2 MLOAD SWAP1 SWAP2 SWAP1 PUSH1 0x2 DUP3 ADD SWAP1 PUSH2 0x1825 SWAP1 DUP3 PUSH2 0x4B5D JUMP JUMPDEST POP PUSH1 0x60 DUP3 ADD MLOAD PUSH1 0x3 DUP3 ADD DUP1 SLOAD PUSH1 0x80 DUP6 ADD MLOAD PUSH1 0xA0 DUP7 ADD MLOAD PUSH2 0xFFFF NOT SWAP1 SWAP3 AND SWAP4 ISZERO ISZERO PUSH2 0xFF00 NOT AND SWAP4 SWAP1 SWAP4 OR PUSH2 0x100 SWAP4 ISZERO ISZERO DUP5 MUL OR PUSH3 0x10000 PUSH1 0x1 PUSH1 0xB0 SHL SUB NOT AND PUSH3 0x10000 PUSH1 0x1 PUSH1 0x1 PUSH1 0xA0 SHL SUB SWAP1 SWAP3 AND SWAP2 SWAP1 SWAP2 MUL OR SWAP1 SSTORE PUSH1 0xC0 DUP4 ADD MLOAD PUSH1 0x4 DUP4 ADD SSTORE PUSH1 0xE0 DUP4 ADD MLOAD PUSH1 0x5 DUP4 ADD DUP1 SLOAD PUSH1 0xFF NOT AND SWAP2 ISZERO ISZERO SWAP2 SWAP1 SWAP2 OR SWAP1 SSTORE DUP3 ADD MLOAD PUSH1 0x6 DUP3 ADD SSTORE PUSH2 0x120 DUP3 ADD MLOAD PUSH1 0x7 DUP3 ADD SSTORE PUSH2 0x140 DUP3 ADD MLOAD PUSH1 0x8 DUP3 ADD SSTORE PUSH2 0x160 SWAP1 SWAP2 ADD MLOAD PUSH1 0x9 SWAP1 SWAP2 ADD SSTORE PUSH1 0x40 MLOAD CALLER SWAP1 DUP3 SWAP1 PUSH32 0xBEE34F0CA0C0EDFC2BD967468F81E100292D859329BE491CC44C4EC390C65FAC SWAP1 PUSH2 0x1902 SWAP1 DUP10 SWAP1 DUP10 SWAP1 TIMESTAMP SWAP1 DUP11 SWAP1 DUP11 SWAP1 PUSH2 0x4E06 JUMP JUMPDEST PUSH1 0x40 MLOAD DUP1 SWAP2 SUB SWAP1 LOG3 POP POP POP POP POP JUMP JUMPDEST CALLER PUSH1 0x0 SWAP1 DUP2 MSTORE PUSH1 0x20 DUP2 SWAP1 MSTORE PUSH1 0x40 DUP2 KECCAK256 PUSH1 0x2 SWAP1 DUP2 ADD SLOAD PUSH1 0xFF AND SWAP1 DUP2 GT ISZERO PUSH2 0x1939 JUMPI PUSH2 0x1939 PUSH2 0x4296 JUMP JUMPDEST EQ PUSH2 0x1956 JUMPI PUSH1 0x40 MLOAD PUSH3 0x461BCD PUSH1 0xE5 SHL DUP2 MSTORE PUSH1 0x4 ADD PUSH2 0x100D SWAP1 PUSH2 0x4DBC JUMP JUMPDEST PUSH1 0x0 DUP2 DUP2 MSTORE PUSH1 0x1 PUSH1 0x20 DUP2 SWAP1 MSTORE PUSH1 0x40 SWAP1 SWAP2 KECCAK256 SWAP1 DUP2 ADD SLOAD PUSH1 0x1 PUSH1 0x1 PUSH1 0xA0 SHL SUB AND CALLER EQ PUSH2 0x19D4 JUMPI PUSH1 0x40 MLOAD PUSH3 0x461BCD PUSH1 0xE5 SHL DUP2 MSTORE PUSH1 0x20 PUSH1 0x4 DUP3 ADD MSTORE PUSH1 0x29 PUSH1 0x24 DUP3 ADD MSTORE PUSH32 0x4F6E6C7920746865206D616E7566616374757265722063616E20617070726F76 PUSH1 0x44 DUP3 ADD MSTORE PUSH9 0x65207175616C697479 PUSH1 0xB8 SHL PUSH1 0x64 DUP3 ADD MSTORE PUSH1 0x84 ADD PUSH2 0x100D JUMP JUMPDEST PUSH1 0x3 DUP2 ADD DUP1 SLOAD PUSH2 0xFFFF NOT AND PUSH1 0x1 OR SWAP1 SSTORE PUSH1 0x40 MLOAD CALLER SWAP1 DUP4 SWAP1 PUSH32 0x8D6065569E454B48393F44317518D1282971813504B4D323942AFBA2F7A2C5D SWAP1 PUSH1 0x0 SWAP1 LOG3 POP POP JUMP JUMPDEST PUSH1 0x1 PUSH1 0x1 PUSH1 0xA0 SHL SUB DUP2 AND PUSH1 0x0 SWAP1 DUP2 MSTORE PUSH1 0x6 PUSH1 0x20 MSTORE PUSH1 0x40 DUP2 KECCAK256 SLOAD PUSH1 0x60 SWAP2 DUP2 PUSH1 0x1 PUSH1 0x1 PUSH1 0x40 SHL SUB DUP2 GT ISZERO PUSH2 0x1A49 JUMPI PUSH2 0x1A49 PUSH2 0x456A JUMP JUMPDEST PUSH1 0x40 MLOAD SWAP1 DUP1 DUP3 MSTORE DUP1 PUSH1 0x20 MUL PUSH1 0x20 ADD DUP3 ADD PUSH1 0x40 MSTORE DUP1 ISZERO PUSH2 0x1A8F JUMPI DUP2 PUSH1 0x20 ADD JUMPDEST PUSH1 0x40 DUP1 MLOAD DUP1 DUP3 ADD SWAP1 SWAP2 MSTORE PUSH1 0x60 DUP2 MSTORE PUSH1 0x0 PUSH1 0x20 DUP3 ADD MSTORE DUP2 MSTORE PUSH1 0x20 ADD SWAP1 PUSH1 0x1 SWAP1 SUB SWAP1 DUP2 PUSH2 0x1A67 JUMPI SWAP1 POP JUMPDEST POP SWAP1 POP PUSH1 0x0 JUMPDEST DUP3 DUP2 LT ISZERO PUSH2 0x8C9 JUMPI PUSH1 0x1 PUSH1 0x1 PUSH1 0xA0 SHL SUB DUP6 AND PUSH1 0x0 SWAP1 DUP2 MSTORE PUSH1 0x6 PUSH1 0x20 MSTORE PUSH1 0x40 DUP2 KECCAK256 DUP1 SLOAD DUP4 SWAP1 DUP2 LT PUSH2 0x1AC7 JUMPI PUSH2 0x1AC7 PUSH2 0x4A28 JUMP JUMPDEST SWAP1 PUSH1 0x0 MSTORE PUSH1 0x20 PUSH1 0x0 KECCAK256 ADD DUP1 SLOAD PUSH2 0x1ADC SWAP1 PUSH2 0x4A3E JUMP JUMPDEST DUP1 PUSH1 0x1F ADD PUSH1 0x20 DUP1 SWAP2 DIV MUL PUSH1 0x20 ADD PUSH1 0x40 MLOAD SWAP1 DUP2 ADD PUSH1 0x40 MSTORE DUP1 SWAP3 SWAP2 SWAP1 DUP2 DUP2 MSTORE PUSH1 0x20 ADD DUP3 DUP1 SLOAD PUSH2 0x1B08 SWAP1 PUSH2 0x4A3E JUMP JUMPDEST DUP1 ISZERO PUSH2 0x1B55 JUMPI DUP1 PUSH1 0x1F LT PUSH2 0x1B2A JUMPI PUSH2 0x100 DUP1 DUP4 SLOAD DIV MUL DUP4 MSTORE SWAP2 PUSH1 0x20 ADD SWAP2 PUSH2 0x1B55 JUMP JUMPDEST DUP3 ADD SWAP2 SWAP1 PUSH1 0x0 MSTORE PUSH1 0x20 PUSH1 0x0 KECCAK256 SWAP1 JUMPDEST DUP2 SLOAD DUP2 MSTORE SWAP1 PUSH1 0x1 ADD SWAP1 PUSH1 0x20 ADD DUP1 DUP4 GT PUSH2 0x1B38 JUMPI DUP3 SWAP1 SUB PUSH1 0x1F AND DUP3 ADD SWAP2 JUMPDEST POP POP POP POP POP SWAP1 POP PUSH1 0x40 MLOAD DUP1 PUSH1 0x40 ADD PUSH1 0x40 MSTORE DUP1 DUP3 DUP2 MSTORE PUSH1 0x20 ADD PUSH1 0x4 PUSH1 0x0 DUP10 PUSH1 0x1 PUSH1 0x1 PUSH1 0xA0 SHL SUB AND PUSH1 0x1 PUSH1 0x1 PUSH1 0xA0 SHL SUB AND DUP2 MSTORE PUSH1 0x20 ADD SWAP1 DUP2 MSTORE PUSH1 0x20 ADD PUSH1 0x0 KECCAK256 DUP4 PUSH1 0x40 MLOAD PUSH2 0x1BA0 SWAP2 SWAP1 PUSH2 0x4A78 JUMP JUMPDEST SWAP1 DUP2 MSTORE PUSH1 0x20 ADD PUSH1 0x40 MLOAD DUP1 SWAP2 SUB SWAP1 KECCAK256 SLOAD DUP2 MSTORE POP DUP4 DUP4 DUP2 MLOAD DUP2 LT PUSH2 0x1BC4 JUMPI PUSH2 0x1BC4 PUSH2 0x4A28 JUMP JUMPDEST PUSH1 0x20 SWAP1 DUP2 MUL SWAP2 SWAP1 SWAP2 ADD ADD MSTORE POP PUSH1 0x1 ADD PUSH2 0x1A95 JUMP JUMPDEST PUSH1 0x2 PUSH1 0x20 MSTORE PUSH1 0x0 SWAP1 DUP2 MSTORE PUSH1 0x40 SWAP1 KECCAK256 DUP1 SLOAD DUP2 SWAP1 PUSH2 0x1BF3 SWAP1 PUSH2 0x4A3E JUMP JUMPDEST DUP1 PUSH1 0x1F ADD PUSH1 0x20 DUP1 SWAP2 DIV MUL PUSH1 0x20 ADD PUSH1 0x40 MLOAD SWAP1 DUP2 ADD PUSH1 0x40 MSTORE DUP1 SWAP3 SWAP2 SWAP1 DUP2 DUP2 MSTORE PUSH1 0x20 ADD DUP3 DUP1 SLOAD PUSH2 0x1C1F SWAP1 PUSH2 0x4A3E JUMP JUMPDEST DUP1 ISZERO PUSH2 0x1C6C JUMPI DUP1 PUSH1 0x1F LT PUSH2 0x1C41 JUMPI PUSH2 0x100 DUP1 DUP4 SLOAD DIV MUL DUP4 MSTORE SWAP2 PUSH1 0x20 ADD SWAP2 PUSH2 0x1C6C JUMP JUMPDEST DUP3 ADD SWAP2 SWAP1 PUSH1 0x0 MSTORE PUSH1 0x20 PUSH1 0x0 KECCAK256 SWAP1 JUMPDEST DUP2 SLOAD DUP2 MSTORE SWAP1 PUSH1 0x1 ADD SWAP1 PUSH1 0x20 ADD DUP1 DUP4 GT PUSH2 0x1C4F JUMPI DUP3 SWAP1 SUB PUSH1 0x1F AND DUP3 ADD SWAP2 JUMPDEST POP POP POP POP PUSH1 0x1 DUP4 ADD SLOAD PUSH1 0x2 DUP5 ADD SLOAD PUSH1 0x3 DUP6 ADD SLOAD PUSH1 0x4 DUP7 ADD SLOAD PUSH1 0x5 DUP8 ADD SLOAD PUSH1 0x6 DUP9 ADD SLOAD PUSH1 0x7 DUP10 ADD SLOAD PUSH1 0x8 SWAP1 SWAP10 ADD SLOAD SWAP8 SWAP9 SWAP6 SWAP8 SWAP5 SWAP7 POP SWAP3 SWAP5 PUSH1 0x1 PUSH1 0x1 PUSH1 0xA0 SHL SUB SWAP3 DUP4 AND SWAP5 SWAP3 DUP3 AND SWAP4 PUSH1 0x1 PUSH1 0xA0 SHL SWAP1 SWAP3 DIV PUSH1 0xFF SWAP1 DUP2 AND SWAP4 AND DUP11 JUMP JUMPDEST PUSH2 0x1CCC PUSH2 0x40A4 JUMP JUMPDEST PUSH1 0x0 DUP3 DUP2 MSTORE PUSH1 0x8 PUSH1 0x20 MSTORE PUSH1 0x40 DUP2 KECCAK256 SLOAD SWAP1 DUP2 SWAP1 SUB PUSH2 0x1CFB JUMPI PUSH1 0x40 MLOAD PUSH3 0x461BCD PUSH1 0xE5 SHL DUP2 MSTORE PUSH1 0x4 ADD PUSH2 0x100D SWAP1 PUSH2 0x4E3D JUMP JUMPDEST PUSH1 0x0 DUP2 DUP2 MSTORE PUSH1 0x2 PUSH1 0x20 MSTORE PUSH1 0x40 SWAP1 DUP2 SWAP1 KECCAK256 DUP2 MLOAD PUSH2 0x140 DUP2 ADD SWAP1 SWAP3 MSTORE DUP1 SLOAD DUP3 SWAP1 DUP3 SWAP1 PUSH2 0x1D24 SWAP1 PUSH2 0x4A3E JUMP JUMPDEST DUP1 PUSH1 0x1F ADD PUSH1 0x20 DUP1 SWAP2 DIV MUL PUSH1 0x20 ADD PUSH1 0x40 MLOAD SWAP1 DUP2 ADD PUSH1 0x40 MSTORE DUP1 SWAP3 SWAP2 SWAP1 DUP2 DUP2 MSTORE PUSH1 0x20 ADD DUP3 DUP1 SLOAD PUSH2 0x1D50 SWAP1 PUSH2 0x4A3E JUMP JUMPDEST DUP1 ISZERO PUSH2 0x1D9D JUMPI DUP1 PUSH1 0x1F LT PUSH2 0x1D72 JUMPI PUSH2 0x100 DUP1 DUP4 SLOAD DIV MUL DUP4 MSTORE SWAP2 PUSH1 0x20 ADD SWAP2 PUSH2 0x1D9D JUMP JUMPDEST DUP3 ADD SWAP2 SWAP1 PUSH1 0x0 MSTORE PUSH1 0x20 PUSH1 0x0 KECCAK256 SWAP1 JUMPDEST DUP2 SLOAD DUP2 MSTORE SWAP1 PUSH1 0x1 ADD SWAP1 PUSH1 0x20 ADD DUP1 DUP4 GT PUSH2 0x1D80 JUMPI DUP3 SWAP1 SUB PUSH1 0x1F AND DUP3 ADD SWAP2 JUMPDEST POP POP POP SWAP2 DUP4 MSTORE POP POP PUSH1 0x1 DUP3 ADD SLOAD PUSH1 0x20 DUP3 ADD MSTORE PUSH1 0x2 DUP3 ADD SLOAD PUSH1 0x40 DUP3 ADD MSTORE PUSH1 0x3 DUP3 ADD SLOAD PUSH1 0x60 DUP3 ADD MSTORE PUSH1 0x4 DUP1 DUP4 ADD SLOAD PUSH1 0x1 PUSH1 0x1 PUSH1 0xA0 SHL SUB SWAP1 DUP2 AND PUSH1 0x80 DUP5 ADD MSTORE PUSH1 0x5 DUP5 ADD SLOAD SWAP1 DUP2 AND PUSH1 0xA0 DUP5 ADD MSTORE PUSH1 0xFF PUSH1 0x1 PUSH1 0xA0 SHL SWAP1 SWAP2 DIV DUP2 AND ISZERO ISZERO PUSH1 0xC0 DUP5 ADD MSTORE PUSH1 0x6 DUP5 ADD SLOAD PUSH1 0xE0 DUP5 ADD MSTORE PUSH1 0x7 DUP5 ADD SLOAD PUSH2 0x100 DUP5 ADD MSTORE PUSH1 0x8 DUP5 ADD SLOAD PUSH2 0x120 SWAP1 SWAP4 ADD SWAP3 AND SWAP1 DUP2 GT ISZERO PUSH2 0x1E2B JUMPI PUSH2 0x1E2B PUSH2 0x4296 JUMP JUMPDEST PUSH1 0x4 DUP2 GT ISZERO PUSH2 0x1E3C JUMPI PUSH2 0x1E3C PUSH2 0x4296 JUMP JUMPDEST SWAP1 MSTORE POP SWAP4 SWAP3 POP POP POP JUMP JUMPDEST PUSH1 0x1 PUSH1 0x1 PUSH1 0xA0 SHL SUB DUP1 DUP3 AND PUSH1 0x0 SWAP1 DUP2 MSTORE PUSH1 0x20 DUP2 DUP2 MSTORE PUSH1 0x40 DUP1 DUP4 KECCAK256 DUP2 MLOAD PUSH1 0x80 DUP2 ADD SWAP1 SWAP3 MSTORE DUP1 SLOAD SWAP1 SWAP5 AND DUP2 MSTORE PUSH1 0x1 DUP5 ADD DUP1 SLOAD PUSH1 0x60 SWAP6 DUP7 SWAP6 SWAP5 DUP6 SWAP5 SWAP4 SWAP2 SWAP3 SWAP1 DUP5 ADD SWAP2 SWAP1 PUSH2 0x1E8F SWAP1 PUSH2 0x4A3E JUMP JUMPDEST DUP1 PUSH1 0x1F ADD PUSH1 0x20 DUP1 SWAP2 DIV MUL PUSH1 0x20 ADD PUSH1 0x40 MLOAD SWAP1 DUP2 ADD PUSH1 0x40 MSTORE DUP1 SWAP3 SWAP2 SWAP1 DUP2 DUP2 MSTORE PUSH1 0x20 ADD DUP3 DUP1 SLOAD PUSH2 0x1EBB SWAP1 PUSH2 0x4A3E JUMP JUMPDEST DUP1 ISZERO PUSH2 0x1F08 JUMPI DUP1 PUSH1 0x1F LT PUSH2 0x1EDD JUMPI PUSH2 0x100 DUP1 DUP4 SLOAD DIV MUL DUP4 MSTORE SWAP2 PUSH1 0x20 ADD SWAP2 PUSH2 0x1F08 JUMP JUMPDEST DUP3 ADD SWAP2 SWAP1 PUSH1 0x0 MSTORE PUSH1 0x20 PUSH1 0x0 KECCAK256 SWAP1 JUMPDEST DUP2 SLOAD DUP2 MSTORE SWAP1 PUSH1 0x1 ADD SWAP1 PUSH1 0x20 ADD DUP1 DUP4 GT PUSH2 0x1EEB JUMPI DUP3 SWAP1 SUB PUSH1 0x1F AND DUP3 ADD SWAP2 JUMPDEST POP POP POP SWAP2 DUP4 MSTORE POP POP PUSH1 0x2 DUP3 DUP2 ADD SLOAD PUSH1 0x20 SWAP1 SWAP3 ADD SWAP2 PUSH1 0xFF AND SWAP1 DUP2 GT ISZERO PUSH2 0x1F2F JUMPI PUSH2 0x1F2F PUSH2 0x4296 JUMP JUMPDEST PUSH1 0x2 DUP2 GT ISZERO PUSH2 0x1F40 JUMPI PUSH2 0x1F40 PUSH2 0x4296 JUMP JUMPDEST DUP2 MSTORE PUSH1 0x20 ADD PUSH1 0x3 DUP3 ADD DUP1 SLOAD PUSH2 0x1F54 SWAP1 PUSH2 0x4A3E JUMP JUMPDEST DUP1 PUSH1 0x1F ADD PUSH1 0x20 DUP1 SWAP2 DIV MUL PUSH1 0x20 ADD PUSH1 0x40 MLOAD SWAP1 DUP2 ADD PUSH1 0x40 MSTORE DUP1 SWAP3 SWAP2 SWAP1 DUP2 DUP2 MSTORE PUSH1 0x20 ADD DUP3 DUP1 SLOAD PUSH2 0x1F80 SWAP1 PUSH2 0x4A3E JUMP JUMPDEST DUP1 ISZERO PUSH2 0x1FCD JUMPI DUP1 PUSH1 0x1F LT PUSH2 0x1FA2 JUMPI PUSH2 0x100 DUP1 DUP4 SLOAD DIV MUL DUP4 MSTORE SWAP2 PUSH1 0x20 ADD SWAP2 PUSH2 0x1FCD JUMP JUMPDEST DUP3 ADD SWAP2 SWAP1 PUSH1 0x0 MSTORE PUSH1 0x20 PUSH1 0x0 KECCAK256 SWAP1 JUMPDEST DUP2 SLOAD DUP2 MSTORE SWAP1 PUSH1 0x1 ADD SWAP1 PUSH1 0x20 ADD DUP1 DUP4 GT PUSH2 0x1FB0 JUMPI DUP3 SWAP1 SUB PUSH1 0x1F AND DUP3 ADD SWAP2 JUMPDEST POP POP POP SWAP2 SWAP1 SWAP3 MSTORE POP POP POP PUSH1 0x20 DUP2 ADD MLOAD PUSH1 0x60 DUP3 ADD MLOAD PUSH1 0x40 SWAP1 SWAP3 ADD MLOAD SWAP1 SWAP8 SWAP2 SWAP7 POP SWAP5 POP SWAP3 POP POP POP JUMP JUMPDEST PUSH1 0x60 PUSH1 0x0 PUSH1 0x64 JUMPDEST PUSH1 0xA SLOAD DUP2 LT ISZERO PUSH2 0x206C JUMPI PUSH1 0x0 DUP2 DUP2 MSTORE PUSH1 0x1 PUSH1 0x20 DUP2 SWAP1 MSTORE PUSH1 0x40 SWAP1 SWAP2 KECCAK256 ADD SLOAD PUSH1 0x1 PUSH1 0x1 PUSH1 0xA0 SHL SUB DUP6 DUP2 AND SWAP2 AND EQ DUP1 ISZERO PUSH2 0x2051 JUMPI POP PUSH1 0x0 DUP2 DUP2 MSTORE PUSH1 0x1 PUSH1 0x20 MSTORE PUSH1 0x40 SWAP1 KECCAK256 PUSH1 0x3 ADD SLOAD PUSH3 0x10000 SWAP1 DIV PUSH1 0x1 PUSH1 0x1 PUSH1 0xA0 SHL SUB AND ISZERO ISZERO JUMPDEST ISZERO PUSH2 0x2064 JUMPI DUP2 PUSH2 0x2060 DUP2 PUSH2 0x4AAA JUMP JUMPDEST SWAP3 POP POP JUMPDEST PUSH1 0x1 ADD PUSH2 0x1FFB JUMP JUMPDEST POP PUSH1 0x0 DUP2 PUSH1 0x1 PUSH1 0x1 PUSH1 0x40 SHL SUB DUP2 GT ISZERO PUSH2 0x2087 JUMPI PUSH2 0x2087 PUSH2 0x456A JUMP JUMPDEST PUSH1 0x40 MLOAD SWAP1 DUP1 DUP3 MSTORE DUP1 PUSH1 0x20 MUL PUSH1 0x20 ADD DUP3 ADD PUSH1 0x40 MSTORE DUP1 ISZERO PUSH2 0x20C0 JUMPI DUP2 PUSH1 0x20 ADD JUMPDEST PUSH2 0x20AD PUSH2 0x411B JUMP JUMPDEST DUP2 MSTORE PUSH1 0x20 ADD SWAP1 PUSH1 0x1 SWAP1 SUB SWAP1 DUP2 PUSH2 0x20A5 JUMPI SWAP1 POP JUMPDEST POP SWAP1 POP PUSH1 0x0 PUSH1 0x64 JUMPDEST PUSH1 0xA SLOAD DUP2 LT ISZERO PUSH2 0xD6E JUMPI PUSH1 0x0 DUP2 DUP2 MSTORE PUSH1 0x1 PUSH1 0x20 DUP2 SWAP1 MSTORE PUSH1 0x40 SWAP1 SWAP2 KECCAK256 ADD SLOAD PUSH1 0x1 PUSH1 0x1 PUSH1 0xA0 SHL SUB DUP8 DUP2 AND SWAP2 AND EQ DUP1 ISZERO PUSH2 0x211E JUMPI POP PUSH1 0x0 DUP2 DUP2 MSTORE PUSH1 0x1 PUSH1 0x20 MSTORE PUSH1 0x40 SWAP1 KECCAK256 PUSH1 0x3 ADD SLOAD PUSH3 0x10000 SWAP1 DIV PUSH1 0x1 PUSH1 0x1 PUSH1 0xA0 SHL SUB AND ISZERO ISZERO JUMPDEST ISZERO PUSH2 0x2292 JUMPI PUSH1 0x0 DUP2 DUP2 MSTORE PUSH1 0x1 PUSH1 0x20 DUP2 DUP2 MSTORE PUSH1 0x40 SWAP3 DUP4 SWAP1 KECCAK256 DUP4 MLOAD PUSH2 0x180 DUP2 ADD DUP6 MSTORE DUP2 SLOAD DUP2 MSTORE SWAP3 DUP2 ADD SLOAD PUSH1 0x1 PUSH1 0x1 PUSH1 0xA0 SHL SUB AND SWAP2 DUP4 ADD SWAP2 SWAP1 SWAP2 MSTORE PUSH1 0x2 DUP2 ADD DUP1 SLOAD SWAP3 SWAP4 SWAP2 SWAP3 SWAP2 DUP5 ADD SWAP2 PUSH2 0x216D SWAP1 PUSH2 0x4A3E JUMP JUMPDEST DUP1 PUSH1 0x1F ADD PUSH1 0x20 DUP1 SWAP2 DIV MUL PUSH1 0x20 ADD PUSH1 0x40 MLOAD SWAP1 DUP2 ADD PUSH1 0x40 MSTORE DUP1 SWAP3 SWAP2 SWAP1 DUP2 DUP2 MSTORE PUSH1 0x20 ADD DUP3 DUP1 SLOAD PUSH2 0x2199 SWAP1 PUSH2 0x4A3E JUMP JUMPDEST DUP1 ISZERO PUSH2 0x21E6 JUMPI DUP1 PUSH1 0x1F LT PUSH2 0x21BB JUMPI PUSH2 0x100 DUP1 DUP4 SLOAD DIV MUL DUP4 MSTORE SWAP2 PUSH1 0x20 ADD SWAP2 PUSH2 0x21E6 JUMP JUMPDEST DUP3 ADD SWAP2 SWAP1 PUSH1 0x0 MSTORE PUSH1 0x20 PUSH1 0x0 KECCAK256 SWAP1 JUMPDEST DUP2 SLOAD DUP2 MSTORE SWAP1 PUSH1 0x1 ADD SWAP1 PUSH1 0x20 ADD DUP1 DUP4 GT PUSH2 0x21C9 JUMPI DUP3 SWAP1 SUB PUSH1 0x1F AND DUP3 ADD SWAP2 JUMPDEST POP POP POP SWAP2 DUP4 MSTORE POP POP PUSH1 0x3 DUP3 ADD SLOAD PUSH1 0xFF DUP1 DUP3 AND ISZERO ISZERO PUSH1 0x20 DUP5 ADD MSTORE PUSH2 0x100 DUP1 DUP4 DIV DUP3 AND ISZERO ISZERO PUSH1 0x40 DUP6 ADD MSTORE PUSH3 0x10000 SWAP1 SWAP3 DIV PUSH1 0x1 PUSH1 0x1 PUSH1 0xA0 SHL SUB AND PUSH1 0x60 DUP5 ADD MSTORE PUSH1 0x4 DUP5 ADD SLOAD PUSH1 0x80 DUP5 ADD MSTORE PUSH1 0x5 DUP5 ADD SLOAD AND ISZERO ISZERO PUSH1 0xA0 DUP4 ADD MSTORE PUSH1 0x6 DUP4 ADD SLOAD PUSH1 0xC0 DUP4 ADD MSTORE PUSH1 0x7 DUP4 ADD SLOAD PUSH1 0xE0 DUP4 ADD MSTORE PUSH1 0x8 DUP4 ADD SLOAD SWAP1 DUP3 ADD MSTORE PUSH1 0x9 SWAP1 SWAP2 ADD SLOAD PUSH2 0x120 SWAP1 SWAP2 ADD MSTORE DUP4 MLOAD DUP5 SWAP1 DUP5 SWAP1 DUP2 LT PUSH2 0x2278 JUMPI PUSH2 0x2278 PUSH2 0x4A28 JUMP JUMPDEST PUSH1 0x20 MUL PUSH1 0x20 ADD ADD DUP2 SWAP1 MSTORE POP DUP2 DUP1 PUSH2 0x228E SWAP1 PUSH2 0x4AAA JUMP JUMPDEST SWAP3 POP POP JUMPDEST PUSH1 0x1 ADD PUSH2 0x20C8 JUMP JUMPDEST PUSH1 0x40 DUP1 MLOAD PUSH1 0x80 DUP2 ADD DUP3 MSTORE PUSH1 0x0 DUP1 DUP3 MSTORE PUSH1 0x60 PUSH1 0x20 DUP4 ADD DUP2 SWAP1 MSTORE SWAP3 DUP3 ADD MSTORE DUP2 DUP2 ADD SWAP2 SWAP1 SWAP2 MSTORE PUSH1 0x1 PUSH1 0x1 PUSH1 0xA0 SHL SUB DUP1 DUP4 AND PUSH1 0x0 SWAP1 DUP2 MSTORE PUSH1 0x20 DUP2 DUP2 MSTORE PUSH1 0x40 SWAP2 DUP3 SWAP1 KECCAK256 DUP3 MLOAD PUSH1 0x80 DUP2 ADD SWAP1 SWAP4 MSTORE DUP1 SLOAD SWAP1 SWAP4 AND DUP3 MSTORE PUSH1 0x1 DUP4 ADD DUP1 SLOAD SWAP3 SWAP4 SWAP3 SWAP2 DUP5 ADD SWAP2 PUSH2 0x22FE SWAP1 PUSH2 0x4A3E JUMP JUMPDEST DUP1 PUSH1 0x1F ADD PUSH1 0x20 DUP1 SWAP2 DIV MUL PUSH1 0x20 ADD PUSH1 0x40 MLOAD SWAP1 DUP2 ADD PUSH1 0x40 MSTORE DUP1 SWAP3 SWAP2 SWAP1 DUP2 DUP2 MSTORE PUSH1 0x20 ADD DUP3 DUP1 SLOAD PUSH2 0x232A SWAP1 PUSH2 0x4A3E JUMP JUMPDEST DUP1 ISZERO PUSH2 0x2377 JUMPI DUP1 PUSH1 0x1F LT PUSH2 0x234C JUMPI PUSH2 0x100 DUP1 DUP4 SLOAD DIV MUL DUP4 MSTORE SWAP2 PUSH1 0x20 ADD SWAP2 PUSH2 0x2377 JUMP JUMPDEST DUP3 ADD SWAP2 SWAP1 PUSH1 0x0 MSTORE PUSH1 0x20 PUSH1 0x0 KECCAK256 SWAP1 JUMPDEST DUP2 SLOAD DUP2 MSTORE SWAP1 PUSH1 0x1 ADD SWAP1 PUSH1 0x20 ADD DUP1 DUP4 GT PUSH2 0x235A JUMPI DUP3 SWAP1 SUB PUSH1 0x1F AND DUP3 ADD SWAP2 JUMPDEST POP POP POP SWAP2 DUP4 MSTORE POP POP PUSH1 0x2 DUP3 DUP2 ADD SLOAD PUSH1 0x20 SWAP1 SWAP3 ADD SWAP2 PUSH1 0xFF AND SWAP1 DUP2 GT ISZERO PUSH2 0x239E JUMPI PUSH2 0x239E PUSH2 0x4296 JUMP JUMPDEST PUSH1 0x2 DUP2 GT ISZERO PUSH2 0x23AF JUMPI PUSH2 0x23AF PUSH2 0x4296 JUMP JUMPDEST DUP2 MSTORE PUSH1 0x20 ADD PUSH1 0x3 DUP3 ADD DUP1 SLOAD PUSH2 0x23C3 SWAP1 PUSH2 0x4A3E JUMP JUMPDEST DUP1 PUSH1 0x1F ADD PUSH1 0x20 DUP1 SWAP2 DIV MUL PUSH1 0x20 ADD PUSH1 0x40 MLOAD SWAP1 DUP2 ADD PUSH1 0x40 MSTORE DUP1 SWAP3 SWAP2 SWAP1 DUP2 DUP2 MSTORE PUSH1 0x20 ADD DUP3 DUP1 SLOAD PUSH2 0x23EF SWAP1 PUSH2 0x4A3E JUMP JUMPDEST DUP1 ISZERO PUSH2 0x243C JUMPI DUP1 PUSH1 0x1F LT PUSH2 0x2411 JUMPI PUSH2 0x100 DUP1 DUP4 SLOAD DIV MUL DUP4 MSTORE SWAP2 PUSH1 0x20 ADD SWAP2 PUSH2 0x243C JUMP JUMPDEST DUP3 ADD SWAP2 SWAP1 PUSH1 0x0 MSTORE PUSH1 0x20 PUSH1 0x0 KECCAK256 SWAP1 JUMPDEST DUP2 SLOAD DUP2 MSTORE SWAP1 PUSH1 0x1 ADD SWAP1 PUSH1 0x20 ADD DUP1 DUP4 GT PUSH2 0x241F JUMPI DUP3 SWAP1 SUB PUSH1 0x1F AND DUP3 ADD SWAP2 JUMPDEST POP POP POP POP POP DUP2 MSTORE POP POP SWAP1 POP SWAP2 SWAP1 POP JUMP JUMPDEST CALLER PUSH1 0x0 SWAP1 DUP2 MSTORE PUSH1 0x20 DUP2 SWAP1 MSTORE PUSH1 0x40 SWAP1 KECCAK256 PUSH1 0x2 SWAP1 DUP2 ADD SLOAD PUSH1 0xFF AND DUP2 DUP2 GT ISZERO PUSH2 0x2474 JUMPI PUSH2 0x2474 PUSH2 0x4296 JUMP JUMPDEST EQ PUSH2 0x2491 JUMPI PUSH1 0x40 MLOAD PUSH3 0x461BCD PUSH1 0xE5 SHL DUP2 MSTORE PUSH1 0x4 ADD PUSH2 0x100D SWAP1 PUSH2 0x4E83 JUMP JUMPDEST PUSH1 0xC DUP1 SLOAD PUSH1 0x0 SWAP2 DUP3 PUSH2 0x24A2 DUP4 PUSH2 0x4AAA JUMP JUMPDEST SWAP2 SWAP1 POP SSTORE SWAP1 POP PUSH1 0x40 MLOAD DUP1 PUSH2 0x140 ADD PUSH1 0x40 MSTORE DUP1 DUP5 DUP2 MSTORE PUSH1 0x20 ADD DUP4 DUP2 MSTORE PUSH1 0x20 ADD DUP3 DUP2 MSTORE PUSH1 0x20 ADD PUSH1 0x0 DUP2 MSTORE PUSH1 0x20 ADD CALLER PUSH1 0x1 PUSH1 0x1 PUSH1 0xA0 SHL SUB AND DUP2 MSTORE PUSH1 0x20 ADD PUSH1 0x0 PUSH1 0x1 PUSH1 0x1 PUSH1 0xA0 SHL SUB AND DUP2 MSTORE PUSH1 0x20 ADD PUSH1 0x0 ISZERO ISZERO DUP2 MSTORE PUSH1 0x20 ADD TIMESTAMP DUP2 MSTORE PUSH1 0x20 ADD PUSH1 0x0 DUP2 MSTORE PUSH1 0x20 ADD PUSH1 0x0 PUSH1 0x4 DUP2 GT ISZERO PUSH2 0x2515 JUMPI PUSH2 0x2515 PUSH2 0x4296 JUMP JUMPDEST SWAP1 MSTORE PUSH1 0x0 DUP3 DUP2 MSTORE PUSH1 0x3 PUSH1 0x20 MSTORE PUSH1 0x40 SWAP1 KECCAK256 DUP2 MLOAD DUP2 SWAP1 PUSH2 0x2533 SWAP1 DUP3 PUSH2 0x4B5D JUMP JUMPDEST POP PUSH1 0x20 DUP3 ADD MLOAD PUSH1 0x1 DUP3 DUP2 ADD SWAP2 SWAP1 SWAP2 SSTORE PUSH1 0x40 DUP4 ADD MLOAD PUSH1 0x2 DUP4 ADD SSTORE PUSH1 0x60 DUP4 ADD MLOAD PUSH1 0x3 DUP4 ADD SSTORE PUSH1 0x80 DUP4 ADD MLOAD PUSH1 0x4 DUP1 DUP5 ADD DUP1 SLOAD PUSH1 0x1 PUSH1 0x1 PUSH1 0xA0 SHL SUB NOT AND PUSH1 0x1 PUSH1 0x1 PUSH1 0xA0 SHL SUB SWAP4 DUP5 AND OR SWAP1 SSTORE PUSH1 0xA0 DUP6 ADD MLOAD PUSH1 0x5 DUP6 ADD DUP1 SLOAD PUSH1 0xC0 DUP9 ADD MLOAD SWAP3 SWAP1 SWAP5 AND PUSH1 0x1 PUSH1 0x1 PUSH1 0xA8 SHL SUB NOT SWAP1 SWAP5 AND SWAP4 SWAP1 SWAP4 OR PUSH1 0x1 PUSH1 0xA0 SHL SWAP2 ISZERO ISZERO SWAP2 SWAP1 SWAP2 MUL OR SWAP1 SWAP2 SSTORE PUSH1 0xE0 DUP5 ADD MLOAD PUSH1 0x6 DUP5 ADD SSTORE PUSH2 0x100 DUP5 ADD MLOAD PUSH1 0x7 DUP5 ADD SSTORE PUSH2 0x120 DUP5 ADD MLOAD PUSH1 0x8 DUP5 ADD DUP1 SLOAD SWAP2 SWAP4 SWAP1 SWAP3 PUSH1 0xFF NOT SWAP1 SWAP3 AND SWAP2 DUP5 SWAP1 DUP2 GT ISZERO PUSH2 0x25EB JUMPI PUSH2 0x25EB PUSH2 0x4296 JUMP JUMPDEST MUL OR SWAP1 SSTORE POP POP POP POP POP POP JUMP JUMPDEST PUSH1 0x1 PUSH1 0x1 PUSH1 0xA0 SHL SUB DUP2 AND PUSH1 0x0 SWAP1 DUP2 MSTORE PUSH1 0x20 DUP2 SWAP1 MSTORE PUSH1 0x40 SWAP1 KECCAK256 PUSH1 0x1 ADD DUP1 SLOAD PUSH1 0x60 SWAP2 SWAP1 PUSH2 0x2621 SWAP1 PUSH2 0x4A3E JUMP JUMPDEST DUP1 PUSH1 0x1F ADD PUSH1 0x20 DUP1 SWAP2 DIV MUL PUSH1 0x20 ADD PUSH1 0x40 MLOAD SWAP1 DUP2 ADD PUSH1 0x40 MSTORE DUP1 SWAP3 SWAP2 SWAP1 DUP2 DUP2 MSTORE PUSH1 0x20 ADD DUP3 DUP1 SLOAD PUSH2 0x264D SWAP1 PUSH2 0x4A3E JUMP JUMPDEST DUP1 ISZERO PUSH2 0x269A JUMPI DUP1 PUSH1 0x1F LT PUSH2 0x266F JUMPI PUSH2 0x100 DUP1 DUP4 SLOAD DIV MUL DUP4 MSTORE SWAP2 PUSH1 0x20 ADD SWAP2 PUSH2 0x269A JUMP JUMPDEST DUP3 ADD SWAP2 SWAP1 PUSH1 0x0 MSTORE PUSH1 0x20 PUSH1 0x0 KECCAK256 SWAP1 JUMPDEST DUP2 SLOAD DUP2 MSTORE SWAP1 PUSH1 0x1 ADD SWAP1 PUSH1 0x20 ADD DUP1 DUP4 GT PUSH2 0x267D JUMPI DUP3 SWAP1 SUB PUSH1 0x1F AND DUP3 ADD SWAP2 JUMPDEST POP POP POP POP POP SWAP1 POP SWAP2 SWAP1 POP JUMP JUMPDEST PUSH1 0x60 PUSH1 0x2 CALLER PUSH1 0x0 SWAP1 DUP2 MSTORE PUSH1 0x20 DUP2 SWAP1 MSTORE PUSH1 0x40 SWAP1 KECCAK256 PUSH1 0x2 SWAP1 DUP2 ADD SLOAD PUSH1 0xFF AND SWAP1 DUP2 GT ISZERO PUSH2 0x26D2 JUMPI PUSH2 0x26D2 PUSH2 0x4296 JUMP JUMPDEST EQ PUSH2 0x26EF JUMPI PUSH1 0x40 MLOAD PUSH3 0x461BCD PUSH1 0xE5 SHL DUP2 MSTORE PUSH1 0x4 ADD PUSH2 0x100D SWAP1 PUSH2 0x4E83 JUMP JUMPDEST PUSH1 0x0 PUSH1 0x64 JUMPDEST PUSH1 0xC SLOAD DUP2 LT ISZERO PUSH2 0x2765 JUMPI PUSH1 0x0 DUP2 DUP2 MSTORE PUSH1 0x3 PUSH1 0x20 MSTORE PUSH1 0x40 SWAP1 KECCAK256 PUSH1 0x4 ADD SLOAD PUSH1 0x1 PUSH1 0x1 PUSH1 0xA0 SHL SUB AND CALLER EQ DUP1 ISZERO PUSH2 0x274A JUMPI POP PUSH1 0x0 DUP2 DUP2 MSTORE PUSH1 0x3 PUSH1 0x20 MSTORE PUSH1 0x40 DUP2 KECCAK256 PUSH1 0x8 ADD SLOAD PUSH1 0xFF AND PUSH1 0x4 DUP2 GT ISZERO PUSH2 0x2748 JUMPI PUSH2 0x2748 PUSH2 0x4296 JUMP JUMPDEST EQ JUMPDEST ISZERO PUSH2 0x275D JUMPI DUP2 PUSH2 0x2759 DUP2 PUSH2 0x4AAA JUMP JUMPDEST SWAP3 POP POP JUMPDEST PUSH1 0x1 ADD PUSH2 0x26F4 JUMP JUMPDEST POP PUSH1 0x0 DUP2 PUSH1 0x1 PUSH1 0x1 PUSH1 0x40 SHL SUB DUP2 GT ISZERO PUSH2 0x2780 JUMPI PUSH2 0x2780 PUSH2 0x456A JUMP JUMPDEST PUSH1 0x40 MLOAD SWAP1 DUP1 DUP3 MSTORE DUP1 PUSH1 0x20 MUL PUSH1 0x20 ADD DUP3 ADD PUSH1 0x40 MSTORE DUP1 ISZERO PUSH2 0x27B9 JUMPI DUP2 PUSH1 0x20 ADD JUMPDEST PUSH2 0x27A6 PUSH2 0x40A4 JUMP JUMPDEST DUP2 MSTORE PUSH1 0x20 ADD SWAP1 PUSH1 0x1 SWAP1 SUB SWAP1 DUP2 PUSH2 0x279E JUMPI SWAP1 POP JUMPDEST POP SWAP1 POP PUSH1 0x0 PUSH1 0x64 JUMPDEST PUSH1 0xC SLOAD DUP2 LT ISZERO PUSH2 0xB17 JUMPI PUSH1 0x0 DUP2 DUP2 MSTORE PUSH1 0x3 PUSH1 0x20 MSTORE PUSH1 0x40 SWAP1 KECCAK256 PUSH1 0x4 ADD SLOAD PUSH1 0x1 PUSH1 0x1 PUSH1 0xA0 SHL SUB AND CALLER EQ DUP1 ISZERO PUSH2 0x2817 JUMPI POP PUSH1 0x0 DUP2 DUP2 MSTORE PUSH1 0x3 PUSH1 0x20 MSTORE PUSH1 0x40 DUP2 KECCAK256 PUSH1 0x8 ADD SLOAD PUSH1 0xFF AND PUSH1 0x4 DUP2 GT ISZERO PUSH2 0x2815 JUMPI PUSH2 0x2815 PUSH2 0x4296 JUMP JUMPDEST EQ JUMPDEST ISZERO PUSH2 0x298D JUMPI PUSH1 0x0 DUP2 DUP2 MSTORE PUSH1 0x3 PUSH1 0x20 MSTORE PUSH1 0x40 SWAP1 DUP2 SWAP1 KECCAK256 DUP2 MLOAD PUSH2 0x140 DUP2 ADD SWAP1 SWAP3 MSTORE DUP1 SLOAD DUP3 SWAP1 DUP3 SWAP1 PUSH2 0x2845 SWAP1 PUSH2 0x4A3E JUMP JUMPDEST DUP1 PUSH1 0x1F ADD PUSH1 0x20 DUP1 SWAP2 DIV MUL PUSH1 0x20 ADD PUSH1 0x40 MLOAD SWAP1 DUP2 ADD PUSH1 0x40 MSTORE DUP1 SWAP3 SWAP2 SWAP1 DUP2 DUP2 MSTORE PUSH1 0x20 ADD DUP3 DUP1 SLOAD PUSH2 0x2871 SWAP1 PUSH2 0x4A3E JUMP JUMPDEST DUP1 ISZERO PUSH2 0x28BE JUMPI DUP1 PUSH1 0x1F LT PUSH2 0x2893 JUMPI PUSH2 0x100 DUP1 DUP4 SLOAD DIV MUL DUP4 MSTORE SWAP2 PUSH1 0x20 ADD SWAP2 PUSH2 0x28BE JUMP JUMPDEST DUP3 ADD SWAP2 SWAP1 PUSH1 0x0 MSTORE PUSH1 0x20 PUSH1 0x0 KECCAK256 SWAP1 JUMPDEST DUP2 SLOAD DUP2 MSTORE SWAP1 PUSH1 0x1 ADD SWAP1 PUSH1 0x20 ADD DUP1 DUP4 GT PUSH2 0x28A1 JUMPI DUP3 SWAP1 SUB PUSH1 0x1F AND DUP3 ADD SWAP2 JUMPDEST POP POP POP SWAP2 DUP4 MSTORE POP POP PUSH1 0x1 DUP3 ADD SLOAD PUSH1 0x20 DUP3 ADD MSTORE PUSH1 0x2 DUP3 ADD SLOAD PUSH1 0x40 DUP3 ADD MSTORE PUSH1 0x3 DUP3 ADD SLOAD PUSH1 0x60 DUP3 ADD MSTORE PUSH1 0x4 DUP1 DUP4 ADD SLOAD PUSH1 0x1 PUSH1 0x1 PUSH1 0xA0 SHL SUB SWAP1 DUP2 AND PUSH1 0x80 DUP5 ADD MSTORE PUSH1 0x5 DUP5 ADD SLOAD SWAP1 DUP2 AND PUSH1 0xA0 DUP5 ADD MSTORE PUSH1 0xFF PUSH1 0x1 PUSH1 0xA0 SHL SWAP1 SWAP2 DIV DUP2 AND ISZERO ISZERO PUSH1 0xC0 DUP5 ADD MSTORE PUSH1 0x6 DUP5 ADD SLOAD PUSH1 0xE0 DUP5 ADD MSTORE PUSH1 0x7 DUP5 ADD SLOAD PUSH2 0x100 DUP5 ADD MSTORE PUSH1 0x8 DUP5 ADD SLOAD PUSH2 0x120 SWAP1 SWAP4 ADD SWAP3 AND SWAP1 DUP2 GT ISZERO PUSH2 0x294C JUMPI PUSH2 0x294C PUSH2 0x4296 JUMP JUMPDEST PUSH1 0x4 DUP2 GT ISZERO PUSH2 0x295D JUMPI PUSH2 0x295D PUSH2 0x4296 JUMP JUMPDEST DUP2 MSTORE POP POP DUP4 DUP4 DUP2 MLOAD DUP2 LT PUSH2 0x2973 JUMPI PUSH2 0x2973 PUSH2 0x4A28 JUMP JUMPDEST PUSH1 0x20 MUL PUSH1 0x20 ADD ADD DUP2 SWAP1 MSTORE POP DUP2 DUP1 PUSH2 0x2989 SWAP1 PUSH2 0x4AAA JUMP JUMPDEST SWAP3 POP POP JUMPDEST PUSH1 0x1 ADD PUSH2 0x27C1 JUMP JUMPDEST PUSH2 0x299D PUSH2 0x40A4 JUMP JUMPDEST PUSH1 0x0 DUP3 DUP2 MSTORE PUSH1 0x9 PUSH1 0x20 MSTORE PUSH1 0x40 DUP2 KECCAK256 SLOAD SWAP1 DUP2 SWAP1 SUB PUSH2 0x29CC JUMPI PUSH1 0x40 MLOAD PUSH3 0x461BCD PUSH1 0xE5 SHL DUP2 MSTORE PUSH1 0x4 ADD PUSH2 0x100D SWAP1 PUSH2 0x4E3D JUMP JUMPDEST PUSH1 0x0 DUP2 DUP2 MSTORE PUSH1 0x3 PUSH1 0x20 MSTORE PUSH1 0x40 SWAP1 DUP2 SWAP1 KECCAK256 DUP2 MLOAD PUSH2 0x140 DUP2 ADD SWAP1 SWAP3 MSTORE DUP1 SLOAD DUP3 SWAP1 DUP3 SWAP1 PUSH2 0x1D24 SWAP1 PUSH2 0x4A3E JUMP JUMPDEST PUSH1 0x3 PUSH1 0x20 MSTORE PUSH1 0x0 SWAP1 DUP2 MSTORE PUSH1 0x40 SWAP1 KECCAK256 DUP1 SLOAD DUP2 SWAP1 PUSH2 0x1BF3 SWAP1 PUSH2 0x4A3E JUMP JUMPDEST PUSH1 0x1 CALLER PUSH1 0x0 SWAP1 DUP2 MSTORE PUSH1 0x20 DUP2 SWAP1 MSTORE PUSH1 0x40 SWAP1 KECCAK256 PUSH1 0x2 SWAP1 DUP2 ADD SLOAD PUSH1 0xFF AND SWAP1 DUP2 GT ISZERO PUSH2 0x2A3A JUMPI PUSH2 0x2A3A PUSH2 0x4296 JUMP JUMPDEST EQ PUSH2 0x2A57 JUMPI PUSH1 0x40 MLOAD PUSH3 0x461BCD PUSH1 0xE5 SHL DUP2 MSTORE PUSH1 0x4 ADD PUSH2 0x100D SWAP1 PUSH2 0x4AC3 JUMP JUMPDEST PUSH1 0x0 DUP3 DUP2 MSTORE PUSH1 0x8 PUSH1 0x20 MSTORE PUSH1 0x40 DUP2 KECCAK256 SLOAD SWAP1 DUP2 SWAP1 SUB PUSH2 0x2A86 JUMPI PUSH1 0x40 MLOAD PUSH3 0x461BCD PUSH1 0xE5 SHL DUP2 MSTORE PUSH1 0x4 ADD PUSH2 0x100D SWAP1 PUSH2 0x4E3D JUMP JUMPDEST PUSH1 0x0 DUP2 DUP2 MSTORE PUSH1 0x2 PUSH1 0x20 MSTORE PUSH1 0x40 SWAP1 KECCAK256 PUSH1 0x4 DUP2 ADD SLOAD PUSH1 0x1 PUSH1 0x1 PUSH1 0xA0 SHL SUB AND CALLER EQ PUSH2 0x2B09 JUMPI PUSH1 0x40 MLOAD PUSH3 0x461BCD PUSH1 0xE5 SHL DUP2 MSTORE PUSH1 0x20 PUSH1 0x4 DUP3 ADD MSTORE PUSH1 0x30 PUSH1 0x24 DUP3 ADD MSTORE PUSH32 0x4F6E6C7920746865206469737472696275746F722063616E2075706461746520 PUSH1 0x44 DUP3 ADD MSTORE PUSH16 0x746865206F7264657220737461747573 PUSH1 0x80 SHL PUSH1 0x64 DUP3 ADD MSTORE PUSH1 0x84 ADD PUSH2 0x100D JUMP JUMPDEST PUSH1 0x8 DUP2 ADD DUP1 SLOAD DUP5 SWAP2 SWAP1 PUSH1 0xFF NOT AND PUSH1 0x1 DUP4 PUSH1 0x4 DUP2 GT ISZERO PUSH2 0x2B2A JUMPI PUSH2 0x2B2A PUSH2 0x4296 JUMP JUMPDEST MUL OR SWAP1 SSTORE POP PUSH1 0x3 DUP4 PUSH1 0x4 DUP2 GT ISZERO PUSH2 0x2B43 JUMPI PUSH2 0x2B43 PUSH2 0x4296 JUMP JUMPDEST SUB PUSH2 0x2C54 JUMPI PUSH1 0x1 DUP2 ADD SLOAD CALLER PUSH1 0x0 SWAP1 DUP2 MSTORE PUSH1 0x4 PUSH1 0x20 MSTORE PUSH1 0x40 SWAP1 DUP2 SWAP1 KECCAK256 SWAP1 MLOAD PUSH2 0x2B6B SWAP1 DUP5 SWAP1 PUSH2 0x4C8F JUMP JUMPDEST SWAP1 DUP2 MSTORE PUSH1 0x20 ADD PUSH1 0x40 MLOAD DUP1 SWAP2 SUB SWAP1 KECCAK256 PUSH1 0x0 DUP3 DUP3 SLOAD PUSH2 0x2B88 SWAP2 SWAP1 PUSH2 0x4C9B JUMP JUMPDEST SWAP1 SWAP2 SSTORE POP POP DUP1 SLOAD PUSH2 0x2C25 SWAP1 CALLER SWAP1 DUP4 SWAP1 PUSH2 0x2BA0 SWAP1 PUSH2 0x4A3E JUMP JUMPDEST DUP1 PUSH1 0x1F ADD PUSH1 0x20 DUP1 SWAP2 DIV MUL PUSH1 0x20 ADD PUSH1 0x40 MLOAD SWAP1 DUP2 ADD PUSH1 0x40 MSTORE DUP1 SWAP3 SWAP2 SWAP1 DUP2 DUP2 MSTORE PUSH1 0x20 ADD DUP3 DUP1 SLOAD PUSH2 0x2BCC SWAP1 PUSH2 0x4A3E JUMP JUMPDEST DUP1 ISZERO PUSH2 0x2C19 JUMPI DUP1 PUSH1 0x1F LT PUSH2 0x2BEE JUMPI PUSH2 0x100 DUP1 DUP4 SLOAD DIV MUL DUP4 MSTORE SWAP2 PUSH1 0x20 ADD SWAP2 PUSH2 0x2C19 JUMP JUMPDEST DUP3 ADD SWAP2 SWAP1 PUSH1 0x0 MSTORE PUSH1 0x20 PUSH1 0x0 KECCAK256 SWAP1 JUMPDEST DUP2 SLOAD DUP2 MSTORE SWAP1 PUSH1 0x1 ADD SWAP1 PUSH1 0x20 ADD DUP1 DUP4 GT PUSH2 0x2BFC JUMPI DUP3 SWAP1 SUB PUSH1 0x1F AND DUP3 ADD SWAP2 JUMPDEST POP POP POP POP POP PUSH1 0x1 PUSH2 0x3FF9 JUMP JUMPDEST PUSH2 0x2C54 JUMPI CALLER PUSH1 0x0 SWAP1 DUP2 MSTORE PUSH1 0x6 PUSH1 0x20 SWAP1 DUP2 MSTORE PUSH1 0x40 DUP3 KECCAK256 DUP1 SLOAD PUSH1 0x1 DUP2 ADD DUP3 SSTORE SWAP1 DUP4 MSTORE SWAP2 KECCAK256 ADD PUSH2 0x2C52 DUP3 DUP3 PUSH2 0x4CAE JUMP JUMPDEST POP JUMPDEST POP POP POP POP JUMP JUMPDEST CALLER PUSH1 0x0 SWAP1 DUP2 MSTORE PUSH1 0x20 DUP2 SWAP1 MSTORE PUSH1 0x40 DUP2 KECCAK256 PUSH1 0x2 SWAP1 DUP2 ADD SLOAD PUSH1 0xFF AND SWAP1 DUP2 GT ISZERO PUSH2 0x2C82 JUMPI PUSH2 0x2C82 PUSH2 0x4296 JUMP JUMPDEST EQ PUSH2 0x2C9F JUMPI PUSH1 0x40 MLOAD PUSH3 0x461BCD PUSH1 0xE5 SHL DUP2 MSTORE PUSH1 0x4 ADD PUSH2 0x100D SWAP1 PUSH2 0x4DBC JUMP JUMPDEST PUSH1 0x0 DUP2 DUP2 MSTORE PUSH1 0x1 PUSH1 0x20 DUP2 SWAP1 MSTORE PUSH1 0x40 SWAP1 SWAP2 KECCAK256 SWAP1 DUP2 ADD SLOAD PUSH1 0x1 PUSH1 0x1 PUSH1 0xA0 SHL SUB AND CALLER EQ PUSH2 0x2D1E JUMPI PUSH1 0x40 MLOAD PUSH3 0x461BCD PUSH1 0xE5 SHL DUP2 MSTORE PUSH1 0x20 PUSH1 0x4 DUP3 ADD MSTORE PUSH1 0x2A PUSH1 0x24 DUP3 ADD MSTORE PUSH32 0x4F6E6C7920746865206D616E7566616374757265722063616E20726563616C6C PUSH1 0x44 DUP3 ADD MSTORE PUSH10 0x40E8D0CA40C4C2E8C6D PUSH1 0xB3 SHL PUSH1 0x64 DUP3 ADD MSTORE PUSH1 0x84 ADD PUSH2 0x100D JUMP JUMPDEST PUSH1 0x5 DUP2 ADD DUP1 SLOAD PUSH1 0xFF NOT AND PUSH1 0x1 OR SWAP1 SSTORE PUSH1 0x40 MLOAD CALLER SWAP1 DUP4 SWAP1 PUSH32 0x5A41088291F050DAB11B8AEAAEAA8FD33F2225751A5D64008F812E0362EF4725 SWAP1 PUSH1 0x0 SWAP1 LOG3 POP POP JUMP JUMPDEST PUSH1 0x0 PUSH1 0x20 DUP2 SWAP1 MSTORE SWAP1 DUP2 MSTORE PUSH1 0x40 SWAP1 KECCAK256 DUP1 SLOAD PUSH1 0x1 DUP3 ADD DUP1 SLOAD PUSH1 0x1 PUSH1 0x1 PUSH1 0xA0 SHL SUB SWAP1 SWAP3 AND SWAP3 SWAP2 PUSH2 0x2D8A SWAP1 PUSH2 0x4A3E JUMP JUMPDEST DUP1 PUSH1 0x1F ADD PUSH1 0x20 DUP1 SWAP2 DIV MUL PUSH1 0x20 ADD PUSH1 0x40 MLOAD SWAP1 DUP2 ADD PUSH1 0x40 MSTORE DUP1 SWAP3 SWAP2 SWAP1 DUP2 DUP2 MSTORE PUSH1 0x20 ADD DUP3 DUP1 SLOAD PUSH2 0x2DB6 SWAP1 PUSH2 0x4A3E JUMP JUMPDEST DUP1 ISZERO PUSH2 0x2E03 JUMPI DUP1 PUSH1 0x1F LT PUSH2 0x2DD8 JUMPI PUSH2 0x100 DUP1 DUP4 SLOAD DIV MUL DUP4 MSTORE SWAP2 PUSH1 0x20 ADD SWAP2 PUSH2 0x2E03 JUMP JUMPDEST DUP3 ADD SWAP2 SWAP1 PUSH1 0x0 MSTORE PUSH1 0x20 PUSH1 0x0 KECCAK256 SWAP1 JUMPDEST DUP2 SLOAD DUP2 MSTORE SWAP1 PUSH1 0x1 ADD SWAP1 PUSH1 0x20 ADD DUP1 DUP4 GT PUSH2 0x2DE6 JUMPI DUP3 SWAP1 SUB PUSH1 0x1F AND DUP3 ADD SWAP2 JUMPDEST POP POP POP PUSH1 0x2 DUP5 ADD SLOAD PUSH1 0x3 DUP6 ADD DUP1 SLOAD SWAP5 SWAP6 PUSH1 0xFF SWAP1 SWAP3 AND SWAP5 SWAP2 SWAP4 POP SWAP2 POP PUSH2 0x2E27 SWAP1 PUSH2 0x4A3E JUMP JUMPDEST DUP1 PUSH1 0x1F ADD PUSH1 0x20 DUP1 SWAP2 DIV MUL PUSH1 0x20 ADD PUSH1 0x40 MLOAD SWAP1 DUP2 ADD PUSH1 0x40 MSTORE DUP1 SWAP3 SWAP2 SWAP1 DUP2 DUP2 MSTORE PUSH1 0x20 ADD DUP3 DUP1 SLOAD PUSH2 0x2E53 SWAP1 PUSH2 0x4A3E JUMP JUMPDEST DUP1 ISZERO PUSH2 0x2EA0 JUMPI DUP1 PUSH1 0x1F LT PUSH2 0x2E75 JUMPI PUSH2 0x100 DUP1 DUP4 SLOAD DIV MUL DUP4 MSTORE SWAP2 PUSH1 0x20 ADD SWAP2 PUSH2 0x2EA0 JUMP JUMPDEST DUP3 ADD SWAP2 SWAP1 PUSH1 0x0 MSTORE PUSH1 0x20 PUSH1 0x0 KECCAK256 SWAP1 JUMPDEST DUP2 SLOAD DUP2 MSTORE SWAP1 PUSH1 0x1 ADD SWAP1 PUSH1 0x20 ADD DUP1 DUP4 GT PUSH2 0x2E83 JUMPI DUP3 SWAP1 SUB PUSH1 0x1F AND DUP3 ADD SWAP2 JUMPDEST POP POP POP POP POP SWAP1 POP DUP5 JUMP JUMPDEST PUSH1 0x1 PUSH1 0x20 DUP2 SWAP1 MSTORE PUSH1 0x0 SWAP2 DUP3 MSTORE PUSH1 0x40 SWAP1 SWAP2 KECCAK256 DUP1 SLOAD SWAP2 DUP2 ADD SLOAD PUSH1 0x2 DUP3 ADD DUP1 SLOAD PUSH1 0x1 PUSH1 0x1 PUSH1 0xA0 SHL SUB SWAP1 SWAP3 AND SWAP3 SWAP2 PUSH2 0x2EDD SWAP1 PUSH2 0x4A3E JUMP JUMPDEST DUP1 PUSH1 0x1F ADD PUSH1 0x20 DUP1 SWAP2 DIV MUL PUSH1 0x20 ADD PUSH1 0x40 MLOAD SWAP1 DUP2 ADD PUSH1 0x40 MSTORE DUP1 SWAP3 SWAP2 SWAP1 DUP2 DUP2 MSTORE PUSH1 0x20 ADD DUP3 DUP1 SLOAD PUSH2 0x2F09 SWAP1 PUSH2 0x4A3E JUMP JUMPDEST DUP1 ISZERO PUSH2 0x2F56 JUMPI DUP1 PUSH1 0x1F LT PUSH2 0x2F2B JUMPI PUSH2 0x100 DUP1 DUP4 SLOAD DIV MUL DUP4 MSTORE SWAP2 PUSH1 0x20 ADD SWAP2 PUSH2 0x2F56 JUMP JUMPDEST DUP3 ADD SWAP2 SWAP1 PUSH1 0x0 MSTORE PUSH1 0x20 PUSH1 0x0 KECCAK256 SWAP1 JUMPDEST DUP2 SLOAD DUP2 MSTORE SWAP1 PUSH1 0x1 ADD SWAP1 PUSH1 0x20 ADD DUP1 DUP4 GT PUSH2 0x2F39 JUMPI DUP3 SWAP1 SUB PUSH1 0x1F AND DUP3 ADD SWAP2 JUMPDEST POP POP POP POP PUSH1 0x3 DUP4 ADD SLOAD PUSH1 0x4 DUP5 ADD SLOAD PUSH1 0x5 DUP6 ADD SLOAD PUSH1 0x6 DUP7 ADD SLOAD PUSH1 0x7 DUP8 ADD SLOAD PUSH1 0x8 DUP9 ADD SLOAD PUSH1 0x9 SWAP1 SWAP9 ADD SLOAD SWAP7 SWAP8 PUSH1 0xFF DUP1 DUP8 AND SWAP9 PUSH2 0x100 DUP9 DIV DUP3 AND SWAP9 POP PUSH3 0x10000 SWAP1 SWAP8 DIV PUSH1 0x1 PUSH1 0x1 PUSH1 0xA0 SHL SUB AND SWAP7 SWAP5 AND SWAP4 DUP13 JUMP JUMPDEST CALLER PUSH1 0x0 SWAP1 DUP2 MSTORE PUSH1 0x20 DUP2 SWAP1 MSTORE PUSH1 0x40 DUP2 KECCAK256 PUSH1 0x2 SWAP1 DUP2 ADD SLOAD PUSH1 0xFF AND SWAP1 DUP2 GT ISZERO PUSH2 0x2FCE JUMPI PUSH2 0x2FCE PUSH2 0x4296 JUMP JUMPDEST EQ PUSH2 0x2FEB JUMPI PUSH1 0x40 MLOAD PUSH3 0x461BCD PUSH1 0xE5 SHL DUP2 MSTORE PUSH1 0x4 ADD PUSH2 0x100D SWAP1 PUSH2 0x4DBC JUMP JUMPDEST PUSH1 0x0 DUP2 DUP2 MSTORE PUSH1 0x1 PUSH1 0x20 DUP2 SWAP1 MSTORE PUSH1 0x40 SWAP1 SWAP2 KECCAK256 SWAP1 DUP2 ADD SLOAD PUSH1 0x1 PUSH1 0x1 PUSH1 0xA0 SHL SUB AND CALLER EQ PUSH2 0x306C JUMPI PUSH1 0x40 MLOAD PUSH3 0x461BCD PUSH1 0xE5 SHL DUP2 MSTORE PUSH1 0x20 PUSH1 0x4 DUP3 ADD MSTORE PUSH1 0x2C PUSH1 0x24 DUP3 ADD MSTORE PUSH32 0x4F6E6C7920746865206D616E7566616374757265722063616E20646973617070 PUSH1 0x44 DUP3 ADD MSTORE PUSH12 0x726F7665207175616C697479 PUSH1 0xA0 SHL PUSH1 0x64 DUP3 ADD MSTORE PUSH1 0x84 ADD PUSH2 0x100D JUMP JUMPDEST PUSH1 0x3 DUP2 ADD DUP1 SLOAD PUSH2 0xFFFF NOT AND PUSH2 0x100 OR SWAP1 SSTORE PUSH1 0x40 MLOAD CALLER SWAP1 DUP4 SWAP1 PUSH32 0xC8C94276E66E72C265FF6C7A450B182F9910586A93051227E6024C1FBCEAA88E SWAP1 PUSH1 0x0 SWAP1 LOG3 POP POP JUMP JUMPDEST CALLER PUSH1 0x0 SWAP1 DUP2 MSTORE PUSH1 0x20 DUP2 SWAP1 MSTORE PUSH1 0x40 SWAP1 KECCAK256 PUSH1 0x2 SWAP1 DUP2 ADD SLOAD PUSH1 0xFF AND DUP2 DUP2 GT ISZERO PUSH2 0x30D6 JUMPI PUSH2 0x30D6 PUSH2 0x4296 JUMP JUMPDEST EQ PUSH2 0x30F3 JUMPI PUSH1 0x40 MLOAD PUSH3 0x461BCD PUSH1 0xE5 SHL DUP2 MSTORE PUSH1 0x4 ADD PUSH2 0x100D SWAP1 PUSH2 0x4E83 JUMP JUMPDEST PUSH1 0x0 DUP3 DUP2 MSTORE PUSH1 0x9 PUSH1 0x20 MSTORE PUSH1 0x40 DUP2 KECCAK256 SLOAD SWAP1 DUP2 SWAP1 SUB PUSH2 0x3122 JUMPI PUSH1 0x40 MLOAD PUSH3 0x461BCD PUSH1 0xE5 SHL DUP2 MSTORE PUSH1 0x4 ADD PUSH2 0x100D SWAP1 PUSH2 0x4E3D JUMP JUMPDEST PUSH1 0x0 DUP2 DUP2 MSTORE PUSH1 0x3 PUSH1 0x20 MSTORE PUSH1 0x40 SWAP1 KECCAK256 PUSH1 0x4 DUP2 ADD SLOAD PUSH1 0x1 PUSH1 0x1 PUSH1 0xA0 SHL SUB AND CALLER EQ PUSH2 0x31A2 JUMPI PUSH1 0x40 MLOAD PUSH3 0x461BCD PUSH1 0xE5 SHL DUP2 MSTORE PUSH1 0x20 PUSH1 0x4 DUP3 ADD MSTORE PUSH1 0x2D PUSH1 0x24 DUP3 ADD MSTORE PUSH32 0x4F6E6C79207468652070726F76696465722063616E2075706461746520746865 PUSH1 0x44 DUP3 ADD MSTORE PUSH13 0x206F7264657220737461747573 PUSH1 0x98 SHL PUSH1 0x64 DUP3 ADD MSTORE PUSH1 0x84 ADD PUSH2 0x100D JUMP JUMPDEST PUSH1 0x8 DUP2 ADD DUP1 SLOAD DUP5 SWAP2 SWAP1 PUSH1 0xFF NOT AND PUSH1 0x1 DUP4 PUSH1 0x4 DUP2 GT ISZERO PUSH2 0x31C3 JUMPI PUSH2 0x31C3 PUSH2 0x4296 JUMP JUMPDEST MUL OR SWAP1 SSTORE POP PUSH1 0x3 DUP4 PUSH1 0x4 DUP2 GT ISZERO PUSH2 0x31DC JUMPI PUSH2 0x31DC PUSH2 0x4296 JUMP JUMPDEST SUB PUSH2 0x2C54 JUMPI PUSH1 0x1 DUP2 ADD SLOAD CALLER PUSH1 0x0 SWAP1 DUP2 MSTORE PUSH1 0x5 PUSH1 0x20 MSTORE PUSH1 0x40 SWAP1 DUP2 SWAP1 KECCAK256 SWAP1 MLOAD PUSH2 0x3204 SWAP1 DUP5 SWAP1 PUSH2 0x4C8F JUMP JUMPDEST SWAP1 DUP2 MSTORE PUSH1 0x20 ADD PUSH1 0x40 MLOAD DUP1 SWAP2 SUB SWAP1 KECCAK256 PUSH1 0x0 DUP3 DUP3 SLOAD PUSH2 0x3221 SWAP2 SWAP1 PUSH2 0x4C9B JUMP JUMPDEST SWAP1 SWAP2 SSTORE POP POP DUP1 SLOAD PUSH2 0x3239 SWAP1 CALLER SWAP1 DUP4 SWAP1 PUSH2 0x141A SWAP1 PUSH2 0x4A3E JUMP JUMPDEST PUSH2 0x2C54 JUMPI CALLER PUSH1 0x0 SWAP1 DUP2 MSTORE PUSH1 0x7 PUSH1 0x20 SWAP1 DUP2 MSTORE PUSH1 0x40 DUP3 KECCAK256 DUP1 SLOAD PUSH1 0x1 DUP2 ADD DUP3 SSTORE SWAP1 DUP4 MSTORE SWAP2 KECCAK256 ADD PUSH2 0x2C52 DUP3 DUP3 PUSH2 0x4CAE JUMP JUMPDEST PUSH1 0x60 PUSH1 0x0 PUSH1 0x64 JUMPDEST PUSH1 0xB SLOAD DUP2 LT ISZERO PUSH2 0x32E3 JUMPI PUSH1 0x0 DUP2 DUP2 MSTORE PUSH1 0x2 PUSH1 0x20 MSTORE PUSH1 0x40 SWAP1 KECCAK256 PUSH1 0x4 ADD SLOAD PUSH1 0x1 PUSH1 0x1 PUSH1 0xA0 SHL SUB DUP6 DUP2 AND SWAP2 AND EQ DUP1 ISZERO PUSH2 0x32C8 JUMPI POP PUSH1 0x3 PUSH1 0x0 DUP3 DUP2 MSTORE PUSH1 0x2 PUSH1 0x20 MSTORE PUSH1 0x40 SWAP1 KECCAK256 PUSH1 0x8 ADD SLOAD PUSH1 0xFF AND PUSH1 0x4 DUP2 GT ISZERO PUSH2 0x32C6 JUMPI PUSH2 0x32C6 PUSH2 0x4296 JUMP JUMPDEST EQ JUMPDEST ISZERO PUSH2 0x32DB JUMPI DUP2 PUSH2 0x32D7 DUP2 PUSH2 0x4AAA JUMP JUMPDEST SWAP3 POP POP JUMPDEST PUSH1 0x1 ADD PUSH2 0x326D JUMP JUMPDEST POP PUSH1 0x0 DUP2 PUSH1 0x1 PUSH1 0x1 PUSH1 0x40 SHL SUB DUP2 GT ISZERO PUSH2 0x32FE JUMPI PUSH2 0x32FE PUSH2 0x456A JUMP JUMPDEST PUSH1 0x40 MLOAD SWAP1 DUP1 DUP3 MSTORE DUP1 PUSH1 0x20 MUL PUSH1 0x20 ADD DUP3 ADD PUSH1 0x40 MSTORE DUP1 ISZERO PUSH2 0x3337 JUMPI DUP2 PUSH1 0x20 ADD JUMPDEST PUSH2 0x3324 PUSH2 0x40A4 JUMP JUMPDEST DUP2 MSTORE PUSH1 0x20 ADD SWAP1 PUSH1 0x1 SWAP1 SUB SWAP1 DUP2 PUSH2 0x331C JUMPI SWAP1 POP JUMPDEST POP SWAP1 POP PUSH1 0x0 PUSH1 0x64 JUMPDEST PUSH1 0xB SLOAD DUP2 LT ISZERO PUSH2 0xD6E JUMPI PUSH1 0x0 DUP2 DUP2 MSTORE PUSH1 0x2 PUSH1 0x20 MSTORE PUSH1 0x40 SWAP1 KECCAK256 PUSH1 0x4 ADD SLOAD PUSH1 0x1 PUSH1 0x1 PUSH1 0xA0 SHL SUB DUP8 DUP2 AND SWAP2 AND EQ DUP1 ISZERO PUSH2 0x339A JUMPI POP PUSH1 0x3 PUSH1 0x0 DUP3 DUP2 MSTORE PUSH1 0x2 PUSH1 0x20 MSTORE PUSH1 0x40 SWAP1 KECCAK256 PUSH1 0x8 ADD SLOAD PUSH1 0xFF AND PUSH1 0x4 DUP2 GT ISZERO PUSH2 0x3398 JUMPI PUSH2 0x3398 PUSH2 0x4296 JUMP JUMPDEST EQ JUMPDEST ISZERO PUSH2 0x3510 JUMPI PUSH1 0x0 DUP2 DUP2 MSTORE PUSH1 0x2 PUSH1 0x20 MSTORE PUSH1 0x40 SWAP1 DUP2 SWAP1 KECCAK256 DUP2 MLOAD PUSH2 0x140 DUP2 ADD SWAP1 SWAP3 MSTORE DUP1 SLOAD DUP3 SWAP1 DUP3 SWAP1 PUSH2 0x33C8 SWAP1 PUSH2 0x4A3E JUMP JUMPDEST DUP1 PUSH1 0x1F ADD PUSH1 0x20 DUP1 SWAP2 DIV MUL PUSH1 0x20 ADD PUSH1 0x40 MLOAD SWAP1 DUP2 ADD PUSH1 0x40 MSTORE DUP1 SWAP3 SWAP2 SWAP1 DUP2 DUP2 MSTORE PUSH1 0x20 ADD DUP3 DUP1 SLOAD PUSH2 0x33F4 SWAP1 PUSH2 0x4A3E JUMP JUMPDEST DUP1 ISZERO PUSH2 0x3441 JUMPI DUP1 PUSH1 0x1F LT PUSH2 0x3416 JUMPI PUSH2 0x100 DUP1 DUP4 SLOAD DIV MUL DUP4 MSTORE SWAP2 PUSH1 0x20 ADD SWAP2 PUSH2 0x3441 JUMP JUMPDEST DUP3 ADD SWAP2 SWAP1 PUSH1 0x0 MSTORE PUSH1 0x20 PUSH1 0x0 KECCAK256 SWAP1 JUMPDEST DUP2 SLOAD DUP2 MSTORE SWAP1 PUSH1 0x1 ADD SWAP1 PUSH1 0x20 ADD DUP1 DUP4 GT PUSH2 0x3424 JUMPI DUP3 SWAP1 SUB PUSH1 0x1F AND DUP3 ADD SWAP2 JUMPDEST POP POP POP SWAP2 DUP4 MSTORE POP POP PUSH1 0x1 DUP3 ADD SLOAD PUSH1 0x20 DUP3 ADD MSTORE PUSH1 0x2 DUP3 ADD SLOAD PUSH1 0x40 DUP3 ADD MSTORE PUSH1 0x3 DUP3 ADD SLOAD PUSH1 0x60 DUP3 ADD MSTORE PUSH1 0x4 DUP1 DUP4 ADD SLOAD PUSH1 0x1 PUSH1 0x1 PUSH1 0xA0 SHL SUB SWAP1 DUP2 AND PUSH1 0x80 DUP5 ADD MSTORE PUSH1 0x5 DUP5 ADD SLOAD SWAP1 DUP2 AND PUSH1 0xA0 DUP5 ADD MSTORE PUSH1 0xFF PUSH1 0x1 PUSH1 0xA0 SHL SWAP1 SWAP2 DIV DUP2 AND ISZERO ISZERO PUSH1 0xC0 DUP5 ADD MSTORE PUSH1 0x6 DUP5 ADD SLOAD PUSH1 0xE0 DUP5 ADD MSTORE PUSH1 0x7 DUP5 ADD SLOAD PUSH2 0x100 DUP5 ADD MSTORE PUSH1 0x8 DUP5 ADD SLOAD PUSH2 0x120 SWAP1 SWAP4 ADD SWAP3 AND SWAP1 DUP2 GT ISZERO PUSH2 0x34CF JUMPI PUSH2 0x34CF PUSH2 0x4296 JUMP JUMPDEST PUSH1 0x4 DUP2 GT ISZERO PUSH2 0x34E0 JUMPI PUSH2 0x34E0 PUSH2 0x4296 JUMP JUMPDEST DUP2 MSTORE POP POP DUP4 DUP4 DUP2 MLOAD DUP2 LT PUSH2 0x34F6 JUMPI PUSH2 0x34F6 PUSH2 0x4A28 JUMP JUMPDEST PUSH1 0x20 MUL PUSH1 0x20 ADD ADD DUP2 SWAP1 MSTORE POP DUP2 DUP1 PUSH2 0x350C SWAP1 PUSH2 0x4AAA JUMP JUMPDEST SWAP3 POP POP JUMPDEST PUSH1 0x1 ADD PUSH2 0x333F JUMP JUMPDEST PUSH1 0x60 PUSH1 0x0 PUSH1 0x64 JUMPDEST PUSH1 0xB SLOAD DUP2 LT ISZERO PUSH2 0x3563 JUMPI PUSH1 0x0 DUP2 DUP2 MSTORE PUSH1 0x2 PUSH1 0x20 MSTORE PUSH1 0x40 SWAP1 KECCAK256 PUSH1 0x4 ADD SLOAD PUSH1 0x1 PUSH1 0x1 PUSH1 0xA0 SHL SUB DUP1 DUP7 AND SWAP2 AND SUB PUSH2 0x355B JUMPI DUP2 PUSH2 0x3557 DUP2 PUSH2 0x4AAA JUMP JUMPDEST SWAP3 POP POP JUMPDEST PUSH1 0x1 ADD PUSH2 0x351F JUMP JUMPDEST POP PUSH1 0x0 DUP2 PUSH1 0x1 PUSH1 0x1 PUSH1 0x40 SHL SUB DUP2 GT ISZERO PUSH2 0x357E JUMPI PUSH2 0x357E PUSH2 0x456A JUMP JUMPDEST PUSH1 0x40 MLOAD SWAP1 DUP1 DUP3 MSTORE DUP1 PUSH1 0x20 MUL PUSH1 0x20 ADD DUP3 ADD PUSH1 0x40 MSTORE DUP1 ISZERO PUSH2 0x35B7 JUMPI DUP2 PUSH1 0x20 ADD JUMPDEST PUSH2 0x35A4 PUSH2 0x40A4 JUMP JUMPDEST DUP2 MSTORE PUSH1 0x20 ADD SWAP1 PUSH1 0x1 SWAP1 SUB SWAP1 DUP2 PUSH2 0x359C JUMPI SWAP1 POP JUMPDEST POP SWAP1 POP PUSH1 0x0 PUSH1 0x64 JUMPDEST PUSH1 0xB SLOAD DUP2 LT ISZERO PUSH2 0xD6E JUMPI PUSH1 0x0 DUP2 DUP2 MSTORE PUSH1 0x2 PUSH1 0x20 MSTORE PUSH1 0x40 SWAP1 KECCAK256 PUSH1 0x4 ADD SLOAD PUSH1 0x1 PUSH1 0x1 PUSH1 0xA0 SHL SUB DUP1 DUP9 AND SWAP2 AND SUB PUSH2 0x375E JUMPI PUSH1 0x0 DUP2 DUP2 MSTORE PUSH1 0x2 PUSH1 0x20 MSTORE PUSH1 0x40 SWAP1 DUP2 SWAP1 KECCAK256 DUP2 MLOAD PUSH2 0x140 DUP2 ADD SWAP1 SWAP3 MSTORE DUP1 SLOAD DUP3 SWAP1 DUP3 SWAP1 PUSH2 0x3616 SWAP1 PUSH2 0x4A3E JUMP JUMPDEST DUP1 PUSH1 0x1F ADD PUSH1 0x20 DUP1 SWAP2 DIV MUL PUSH1 0x20 ADD PUSH1 0x40 MLOAD SWAP1 DUP2 ADD PUSH1 0x40 MSTORE DUP1 SWAP3 SWAP2 SWAP1 DUP2 DUP2 MSTORE PUSH1 0x20 ADD DUP3 DUP1 SLOAD PUSH2 0x3642 SWAP1 PUSH2 0x4A3E JUMP JUMPDEST DUP1 ISZERO PUSH2 0x368F JUMPI DUP1 PUSH1 0x1F LT PUSH2 0x3664 JUMPI PUSH2 0x100 DUP1 DUP4 SLOAD DIV MUL DUP4 MSTORE SWAP2 PUSH1 0x20 ADD SWAP2 PUSH2 0x368F JUMP JUMPDEST DUP3 ADD SWAP2 SWAP1 PUSH1 0x0 MSTORE PUSH1 0x20 PUSH1 0x0 KECCAK256 SWAP1 JUMPDEST DUP2 SLOAD DUP2 MSTORE SWAP1 PUSH1 0x1 ADD SWAP1 PUSH1 0x20 ADD DUP1 DUP4 GT PUSH2 0x3672 JUMPI DUP3 SWAP1 SUB PUSH1 0x1F AND DUP3 ADD SWAP2 JUMPDEST POP POP POP SWAP2 DUP4 MSTORE POP POP PUSH1 0x1 DUP3 ADD SLOAD PUSH1 0x20 DUP3 ADD MSTORE PUSH1 0x2 DUP3 ADD SLOAD PUSH1 0x40 DUP3 ADD MSTORE PUSH1 0x3 DUP3 ADD SLOAD PUSH1 0x60 DUP3 ADD MSTORE PUSH1 0x4 DUP1 DUP4 ADD SLOAD PUSH1 0x1 PUSH1 0x1 PUSH1 0xA0 SHL SUB SWAP1 DUP2 AND PUSH1 0x80 DUP5 ADD MSTORE PUSH1 0x5 DUP5 ADD SLOAD SWAP1 DUP2 AND PUSH1 0xA0 DUP5 ADD MSTORE PUSH1 0xFF PUSH1 0x1 PUSH1 0xA0 SHL SWAP1 SWAP2 DIV DUP2 AND ISZERO ISZERO PUSH1 0xC0 DUP5 ADD MSTORE PUSH1 0x6 DUP5 ADD SLOAD PUSH1 0xE0 DUP5 ADD MSTORE PUSH1 0x7 DUP5 ADD SLOAD PUSH2 0x100 DUP5 ADD MSTORE PUSH1 0x8 DUP5 ADD SLOAD PUSH2 0x120 SWAP1 SWAP4 ADD SWAP3 AND SWAP1 DUP2 GT ISZERO PUSH2 0x371D JUMPI PUSH2 0x371D PUSH2 0x4296 JUMP JUMPDEST PUSH1 0x4 DUP2 GT ISZERO PUSH2 0x372E JUMPI PUSH2 0x372E PUSH2 0x4296 JUMP JUMPDEST DUP2 MSTORE POP POP DUP4 DUP4 DUP2 MLOAD DUP2 LT PUSH2 0x3744 JUMPI PUSH2 0x3744 PUSH2 0x4A28 JUMP JUMPDEST PUSH1 0x20 MUL PUSH1 0x20 ADD ADD DUP2 SWAP1 MSTORE POP DUP2 DUP1 PUSH2 0x375A SWAP1 PUSH2 0x4AAA JUMP JUMPDEST SWAP3 POP POP JUMPDEST PUSH1 0x1 ADD PUSH2 0x35BF JUMP JUMPDEST PUSH1 0x7 PUSH1 0x20 MSTORE DUP2 PUSH1 0x0 MSTORE PUSH1 0x40 PUSH1 0x0 KECCAK256 DUP2 DUP2 SLOAD DUP2 LT PUSH2 0x3782 JUMPI PUSH1 0x0 DUP1 REVERT JUMPDEST SWAP1 PUSH1 0x0 MSTORE PUSH1 0x20 PUSH1 0x0 KECCAK256 ADD PUSH1 0x0 SWAP2 POP SWAP2 POP POP DUP1 SLOAD PUSH2 0x379E SWAP1 PUSH2 0x4A3E JUMP JUMPDEST DUP1 PUSH1 0x1F ADD PUSH1 0x20 DUP1 SWAP2 DIV MUL PUSH1 0x20 ADD PUSH1 0x40 MLOAD SWAP1 DUP2 ADD PUSH1 0x40 MSTORE DUP1 SWAP3 SWAP2 SWAP1 DUP2 DUP2 MSTORE PUSH1 0x20 ADD DUP3 DUP1 SLOAD PUSH2 0x37CA SWAP1 PUSH2 0x4A3E JUMP JUMPDEST DUP1 ISZERO PUSH2 0x3817 JUMPI DUP1 PUSH1 0x1F LT PUSH2 0x37EC JUMPI PUSH2 0x100 DUP1 DUP4 SLOAD DIV MUL DUP4 MSTORE SWAP2 PUSH1 0x20 ADD SWAP2 PUSH2 0x3817 JUMP JUMPDEST DUP3 ADD SWAP2 SWAP1 PUSH1 0x0 MSTORE PUSH1 0x20 PUSH1 0x0 KECCAK256 SWAP1 JUMPDEST DUP2 SLOAD DUP2 MSTORE SWAP1 PUSH1 0x1 ADD SWAP1 PUSH1 0x20 ADD DUP1 DUP4 GT PUSH2 0x37FA JUMPI DUP3 SWAP1 SUB PUSH1 0x1F AND DUP3 ADD SWAP2 JUMPDEST POP POP POP POP POP DUP2 JUMP JUMPDEST PUSH2 0x3827 PUSH2 0x40A4 JUMP JUMPDEST PUSH1 0x0 DUP3 DUP2 MSTORE PUSH1 0x2 PUSH1 0x20 DUP2 SWAP1 MSTORE PUSH1 0x40 DUP3 KECCAK256 SWAP1 DUP2 ADD SLOAD SWAP1 SWAP2 SUB PUSH2 0x3881 JUMPI PUSH1 0x40 MLOAD PUSH3 0x461BCD PUSH1 0xE5 SHL DUP2 MSTORE PUSH1 0x20 PUSH1 0x4 DUP3 ADD MSTORE PUSH1 0x14 PUSH1 0x24 DUP3 ADD MSTORE PUSH20 0x13DC99195C88191BD95CC81B9BDD08195E1A5CDD PUSH1 0x62 SHL PUSH1 0x44 DUP3 ADD MSTORE PUSH1 0x64 ADD PUSH2 0x100D JUMP JUMPDEST DUP1 PUSH1 0x40 MLOAD DUP1 PUSH2 0x140 ADD PUSH1 0x40 MSTORE SWAP1 DUP2 PUSH1 0x0 DUP3 ADD DUP1 SLOAD PUSH2 0x1D24 SWAP1 PUSH2 0x4A3E JUMP JUMPDEST PUSH2 0x38A6 PUSH2 0x40A4 JUMP JUMPDEST PUSH1 0x0 DUP3 DUP2 MSTORE PUSH1 0x3 PUSH1 0x20 MSTORE PUSH1 0x40 DUP2 KECCAK256 PUSH1 0x2 DUP2 ADD SLOAD SWAP1 SWAP2 SUB PUSH2 0x3881 JUMPI PUSH1 0x40 MLOAD PUSH3 0x461BCD PUSH1 0xE5 SHL DUP2 MSTORE PUSH1 0x20 PUSH1 0x4 DUP3 ADD MSTORE PUSH1 0x14 PUSH1 0x24 DUP3 ADD MSTORE PUSH20 0x13DC99195C88191BD95CC81B9BDD08195E1A5CDD PUSH1 0x62 SHL PUSH1 0x44 DUP3 ADD MSTORE PUSH1 0x64 ADD PUSH2 0x100D JUMP JUMPDEST PUSH1 0x60 PUSH1 0x0 PUSH1 0x64 JUMPDEST PUSH1 0xC SLOAD DUP2 LT ISZERO PUSH2 0x397C JUMPI PUSH1 0x0 DUP2 DUP2 MSTORE PUSH1 0x3 PUSH1 0x20 MSTORE PUSH1 0x40 SWAP1 KECCAK256 PUSH1 0x4 ADD SLOAD PUSH1 0x1 PUSH1 0x1 PUSH1 0xA0 SHL SUB DUP6 DUP2 AND SWAP2 AND EQ DUP1 ISZERO PUSH2 0x3961 JUMPI POP PUSH1 0x3 PUSH1 0x0 DUP3 DUP2 MSTORE PUSH1 0x3 PUSH1 0x20 MSTORE PUSH1 0x40 SWAP1 KECCAK256 PUSH1 0x8 ADD SLOAD PUSH1 0xFF AND PUSH1 0x4 DUP2 GT ISZERO PUSH2 0x395F JUMPI PUSH2 0x395F PUSH2 0x4296 JUMP JUMPDEST EQ JUMPDEST ISZERO PUSH2 0x3974 JUMPI DUP2 PUSH2 0x3970 DUP2 PUSH2 0x4AAA JUMP JUMPDEST SWAP3 POP POP JUMPDEST PUSH1 0x1 ADD PUSH2 0x3906 JUMP JUMPDEST POP PUSH1 0x0 DUP2 PUSH1 0x1 PUSH1 0x1 PUSH1 0x40 SHL SUB DUP2 GT ISZERO PUSH2 0x3997 JUMPI PUSH2 0x3997 PUSH2 0x456A JUMP JUMPDEST PUSH1 0x40 MLOAD SWAP1 DUP1 DUP3 MSTORE DUP1 PUSH1 0x20 MUL PUSH1 0x20 ADD DUP3 ADD PUSH1 0x40 MSTORE DUP1 ISZERO PUSH2 0x39D0 JUMPI DUP2 PUSH1 0x20 ADD JUMPDEST PUSH2 0x39BD PUSH2 0x40A4 JUMP JUMPDEST DUP2 MSTORE PUSH1 0x20 ADD SWAP1 PUSH1 0x1 SWAP1 SUB SWAP1 DUP2 PUSH2 0x39B5 JUMPI SWAP1 POP JUMPDEST POP SWAP1 POP PUSH1 0x0 PUSH1 0x64 JUMPDEST PUSH1 0xC SLOAD DUP2 LT ISZERO PUSH2 0xD6E JUMPI PUSH1 0x0 DUP2 DUP2 MSTORE PUSH1 0x3 PUSH1 0x20 MSTORE PUSH1 0x40 SWAP1 KECCAK256 PUSH1 0x4 ADD SLOAD PUSH1 0x1 PUSH1 0x1 PUSH1 0xA0 SHL SUB DUP8 DUP2 AND SWAP2 AND EQ DUP1 ISZERO PUSH2 0x3A33 JUMPI POP PUSH1 0x3 PUSH1 0x0 DUP3 DUP2 MSTORE PUSH1 0x3 PUSH1 0x20 MSTORE PUSH1 0x40 SWAP1 KECCAK256 PUSH1 0x8 ADD SLOAD PUSH1 0xFF AND PUSH1 0x4 DUP2 GT ISZERO PUSH2 0x3A31 JUMPI PUSH2 0x3A31 PUSH2 0x4296 JUMP JUMPDEST EQ JUMPDEST ISZERO PUSH2 0x3BA9 JUMPI PUSH1 0x0 DUP2 DUP2 MSTORE PUSH1 0x3 PUSH1 0x20 MSTORE PUSH1 0x40 SWAP1 DUP2 SWAP1 KECCAK256 DUP2 MLOAD PUSH2 0x140 DUP2 ADD SWAP1 SWAP3 MSTORE DUP1 SLOAD DUP3 SWAP1 DUP3 SWAP1 PUSH2 0x3A61 SWAP1 PUSH2 0x4A3E JUMP JUMPDEST DUP1 PUSH1 0x1F ADD PUSH1 0x20 DUP1 SWAP2 DIV MUL PUSH1 0x20 ADD PUSH1 0x40 MLOAD SWAP1 DUP2 ADD PUSH1 0x40 MSTORE DUP1 SWAP3 SWAP2 SWAP1 DUP2 DUP2 MSTORE PUSH1 0x20 ADD DUP3 DUP1 SLOAD PUSH2 0x3A8D SWAP1 PUSH2 0x4A3E JUMP JUMPDEST DUP1 ISZERO PUSH2 0x3ADA JUMPI DUP1 PUSH1 0x1F LT PUSH2 0x3AAF JUMPI PUSH2 0x100 DUP1 DUP4 SLOAD DIV MUL DUP4 MSTORE SWAP2 PUSH1 0x20 ADD SWAP2 PUSH2 0x3ADA JUMP JUMPDEST DUP3 ADD SWAP2 SWAP1 PUSH1 0x0 MSTORE PUSH1 0x20 PUSH1 0x0 KECCAK256 SWAP1 JUMPDEST DUP2 SLOAD DUP2 MSTORE SWAP1 PUSH1 0x1 ADD SWAP1 PUSH1 0x20 ADD DUP1 DUP4 GT PUSH2 0x3ABD JUMPI DUP3 SWAP1 SUB PUSH1 0x1F AND DUP3 ADD SWAP2 JUMPDEST POP POP POP SWAP2 DUP4 MSTORE POP POP PUSH1 0x1 DUP3 ADD SLOAD PUSH1 0x20 DUP3 ADD MSTORE PUSH1 0x2 DUP3 ADD SLOAD PUSH1 0x40 DUP3 ADD MSTORE PUSH1 0x3 DUP3 ADD SLOAD PUSH1 0x60 DUP3 ADD MSTORE PUSH1 0x4 DUP1 DUP4 ADD SLOAD PUSH1 0x1 PUSH1 0x1 PUSH1 0xA0 SHL SUB SWAP1 DUP2 AND PUSH1 0x80 DUP5 ADD MSTORE PUSH1 0x5 DUP5 ADD SLOAD SWAP1 DUP2 AND PUSH1 0xA0 DUP5 ADD MSTORE PUSH1 0xFF PUSH1 0x1 PUSH1 0xA0 SHL SWAP1 SWAP2 DIV DUP2 AND ISZERO ISZERO PUSH1 0xC0 DUP5 ADD MSTORE PUSH1 0x6 DUP5 ADD SLOAD PUSH1 0xE0 DUP5 ADD MSTORE PUSH1 0x7 DUP5 ADD SLOAD PUSH2 0x100 DUP5 ADD MSTORE PUSH1 0x8 DUP5 ADD SLOAD PUSH2 0x120 SWAP1 SWAP4 ADD SWAP3 AND SWAP1 DUP2 GT ISZERO PUSH2 0x3B68 JUMPI PUSH2 0x3B68 PUSH2 0x4296 JUMP JUMPDEST PUSH1 0x4 DUP2 GT ISZERO PUSH2 0x3B79 JUMPI PUSH2 0x3B79 PUSH2 0x4296 JUMP JUMPDEST DUP2 MSTORE POP POP DUP4 DUP4 DUP2 MLOAD DUP2 LT PUSH2 0x3B8F JUMPI PUSH2 0x3B8F PUSH2 0x4A28 JUMP JUMPDEST PUSH1 0x20 MUL PUSH1 0x20 ADD ADD DUP2 SWAP1 MSTORE POP DUP2 DUP1 PUSH2 0x3BA5 SWAP1 PUSH2 0x4AAA JUMP JUMPDEST SWAP3 POP POP JUMPDEST PUSH1 0x1 ADD PUSH2 0x39D8 JUMP JUMPDEST PUSH1 0x6 PUSH1 0x20 MSTORE DUP2 PUSH1 0x0 MSTORE PUSH1 0x40 PUSH1 0x0 KECCAK256 DUP2 DUP2 SLOAD DUP2 LT PUSH2 0x3782 JUMPI PUSH1 0x0 DUP1 REVERT JUMPDEST PUSH1 0x1 CALLER PUSH1 0x0 SWAP1 DUP2 MSTORE PUSH1 0x20 DUP2 SWAP1 MSTORE PUSH1 0x40 SWAP1 KECCAK256 PUSH1 0x2 SWAP1 DUP2 ADD SLOAD PUSH1 0xFF AND SWAP1 DUP2 GT ISZERO PUSH2 0x3BF7 JUMPI PUSH2 0x3BF7 PUSH2 0x4296 JUMP JUMPDEST EQ PUSH2 0x3C14 JUMPI PUSH1 0x40 MLOAD PUSH3 0x461BCD PUSH1 0xE5 SHL DUP2 MSTORE PUSH1 0x4 ADD PUSH2 0x100D SWAP1 PUSH2 0x4AC3 JUMP JUMPDEST PUSH1 0xB DUP1 SLOAD PUSH1 0x0 SWAP2 DUP3 PUSH2 0x3C25 DUP4 PUSH2 0x4AAA JUMP JUMPDEST SWAP2 SWAP1 POP SSTORE SWAP1 POP PUSH1 0x40 MLOAD DUP1 PUSH2 0x140 ADD PUSH1 0x40 MSTORE DUP1 DUP5 DUP2 MSTORE PUSH1 0x20 ADD DUP4 DUP2 MSTORE PUSH1 0x20 ADD DUP3 DUP2 MSTORE PUSH1 0x20 ADD PUSH1 0x0 DUP2 MSTORE PUSH1 0x20 ADD CALLER PUSH1 0x1 PUSH1 0x1 PUSH1 0xA0 SHL SUB AND DUP2 MSTORE PUSH1 0x20 ADD PUSH1 0x0 PUSH1 0x1 PUSH1 0x1 PUSH1 0xA0 SHL SUB AND DUP2 MSTORE PUSH1 0x20 ADD PUSH1 0x0 ISZERO ISZERO DUP2 MSTORE PUSH1 0x20 ADD TIMESTAMP DUP2 MSTORE PUSH1 0x20 ADD PUSH1 0x0 DUP2 MSTORE PUSH1 0x20 ADD PUSH1 0x0 PUSH1 0x4 DUP2 GT ISZERO PUSH2 0x3C98 JUMPI PUSH2 0x3C98 PUSH2 0x4296 JUMP JUMPDEST SWAP1 MSTORE PUSH1 0x0 DUP3 DUP2 MSTORE PUSH1 0x2 PUSH1 0x20 MSTORE PUSH1 0x40 SWAP1 KECCAK256 DUP2 MLOAD DUP2 SWAP1 PUSH2 0x2533 SWAP1 DUP3 PUSH2 0x4B5D JUMP JUMPDEST PUSH1 0x0 PUSH1 0x64 JUMPDEST PUSH1 0xA SLOAD DUP2 LT ISZERO PUSH2 0x3CFE JUMPI PUSH1 0x0 DUP2 DUP2 MSTORE PUSH1 0x1 PUSH1 0x20 MSTORE PUSH1 0x40 SWAP1 KECCAK256 PUSH1 0x4 ADD SLOAD DUP4 SWAP1 SUB PUSH2 0x3CF6 JUMPI PUSH1 0x0 SWAP1 DUP2 MSTORE PUSH1 0x1 PUSH1 0x20 MSTORE PUSH1 0x40 SWAP1 KECCAK256 PUSH1 0x9 ADD SLOAD SWAP3 SWAP2 POP POP JUMP JUMPDEST PUSH1 0x1 ADD PUSH2 0x3CBB JUMP JUMPDEST POP PUSH1 0x0 SWAP3 SWAP2 POP POP JUMP JUMPDEST CALLER PUSH1 0x0 SWAP1 DUP2 MSTORE PUSH1 0x20 DUP2 SWAP1 MSTORE PUSH1 0x40 DUP2 KECCAK256 PUSH1 0x2 SWAP1 DUP2 ADD SLOAD PUSH1 0xFF AND SWAP1 DUP2 GT ISZERO PUSH2 0x3D2F JUMPI PUSH2 0x3D2F PUSH2 0x4296 JUMP JUMPDEST EQ PUSH2 0x3D4C JUMPI PUSH1 0x40 MLOAD PUSH3 0x461BCD PUSH1 0xE5 SHL DUP2 MSTORE PUSH1 0x4 ADD PUSH2 0x100D SWAP1 PUSH2 0x4DBC JUMP JUMPDEST PUSH1 0x1 PUSH1 0x1 PUSH1 0x1 PUSH1 0xA0 SHL SUB DUP4 AND PUSH1 0x0 SWAP1 DUP2 MSTORE PUSH1 0x20 DUP2 SWAP1 MSTORE PUSH1 0x40 SWAP1 KECCAK256 PUSH1 0x2 SWAP1 DUP2 ADD SLOAD PUSH1 0xFF AND SWAP1 DUP2 GT ISZERO PUSH2 0x3D7F JUMPI PUSH2 0x3D7F PUSH2 0x4296 JUMP JUMPDEST EQ PUSH2 0x3DC2 JUMPI PUSH1 0x40 MLOAD PUSH3 0x461BCD PUSH1 0xE5 SHL DUP2 MSTORE PUSH1 0x20 PUSH1 0x4 DUP3 ADD MSTORE PUSH1 0x13 PUSH1 0x24 DUP3 ADD MSTORE PUSH19 0x24B73B30B634B2103234B9BA3934B13ABA37B9 PUSH1 0x69 SHL PUSH1 0x44 DUP3 ADD MSTORE PUSH1 0x64 ADD PUSH2 0x100D JUMP JUMPDEST PUSH1 0x0 DUP4 DUP2 MSTORE PUSH1 0x1 PUSH1 0x20 MSTORE PUSH1 0x40 SWAP1 KECCAK256 PUSH1 0x3 DUP2 ADD SLOAD PUSH1 0xFF AND PUSH2 0x3E24 JUMPI PUSH1 0x40 MLOAD PUSH3 0x461BCD PUSH1 0xE5 SHL DUP2 MSTORE PUSH1 0x20 PUSH1 0x4 DUP3 ADD MSTORE PUSH1 0x1E PUSH1 0x24 DUP3 ADD MSTORE PUSH32 0x4261746368206D757374206265207175616C69747920617070726F7665640000 PUSH1 0x44 DUP3 ADD MSTORE PUSH1 0x64 ADD PUSH2 0x100D JUMP JUMPDEST PUSH1 0x3 DUP2 ADD SLOAD PUSH3 0x10000 SWAP1 DIV PUSH1 0x1 PUSH1 0x1 PUSH1 0xA0 SHL SUB AND ISZERO PUSH2 0x3E7E JUMPI PUSH1 0x40 MLOAD PUSH3 0x461BCD PUSH1 0xE5 SHL DUP2 MSTORE PUSH1 0x20 PUSH1 0x4 DUP3 ADD MSTORE PUSH1 0x16 PUSH1 0x24 DUP3 ADD MSTORE PUSH22 0x10985D18DA08185B1C9958591E48185CDCDA59DB9959 PUSH1 0x52 SHL PUSH1 0x44 DUP3 ADD MSTORE PUSH1 0x64 ADD PUSH2 0x100D JUMP JUMPDEST PUSH1 0x0 DUP3 DUP2 MSTORE PUSH1 0x2 PUSH1 0x20 MSTORE PUSH1 0x40 SWAP1 KECCAK256 PUSH1 0x3 DUP2 ADD SLOAD ISZERO PUSH2 0x3EEA JUMPI PUSH1 0x40 MLOAD PUSH3 0x461BCD PUSH1 0xE5 SHL DUP2 MSTORE PUSH1 0x20 PUSH1 0x4 DUP3 ADD MSTORE PUSH1 0x24 DUP1 DUP3 ADD MSTORE PUSH32 0x4F7264657220697320616C72656164792061737369676E656420746F20612062 PUSH1 0x44 DUP3 ADD MSTORE PUSH4 0xC2E8C6D PUSH1 0xE3 SHL PUSH1 0x64 DUP3 ADD MSTORE PUSH1 0x84 ADD PUSH2 0x100D JUMP JUMPDEST DUP2 PUSH1 0x8 ADD SLOAD DUP2 PUSH1 0x1 ADD SLOAD GT ISZERO PUSH2 0x3F50 JUMPI PUSH1 0x40 MLOAD PUSH3 0x461BCD PUSH1 0xE5 SHL DUP2 MSTORE PUSH1 0x20 PUSH1 0x4 DUP3 ADD MSTORE PUSH1 0x25 PUSH1 0x24 DUP3 ADD MSTORE PUSH32 0x4F72646572207175616E74697479206578636565647320626174636820717561 PUSH1 0x44 DUP3 ADD MSTORE PUSH5 0x6E74697479 PUSH1 0xD8 SHL PUSH1 0x64 DUP3 ADD MSTORE PUSH1 0x84 ADD PUSH2 0x100D JUMP JUMPDEST PUSH1 0x3 DUP3 DUP2 ADD DUP1 SLOAD PUSH3 0x10000 PUSH1 0x1 PUSH1 0xB0 SHL SUB NOT AND PUSH3 0x10000 PUSH1 0x1 PUSH1 0x1 PUSH1 0xA0 SHL SUB DUP9 AND SWAP1 DUP2 MUL SWAP2 SWAP1 SWAP2 OR SWAP1 SWAP2 SSTORE PUSH1 0x9 DUP5 ADD DUP6 SWAP1 SSTORE SWAP1 DUP3 ADD DUP7 SWAP1 SSTORE PUSH1 0x5 DUP3 ADD DUP1 SLOAD CALLER PUSH1 0x1 PUSH1 0x1 PUSH1 0xA0 SHL SUB NOT SWAP1 SWAP2 AND OR SWAP1 SSTORE PUSH1 0x8 DUP1 DUP4 ADD DUP1 SLOAD PUSH1 0xFF NOT AND PUSH1 0x2 OR SWAP1 SSTORE TIMESTAMP PUSH1 0x7 DUP5 ADD SSTORE PUSH1 0x4 DUP5 ADD SLOAD PUSH1 0x0 SWAP1 DUP2 MSTORE PUSH1 0x20 SWAP2 SWAP1 SWAP2 MSTORE PUSH1 0x40 DUP1 DUP3 KECCAK256 DUP7 SWAP1 SSTORE MLOAD DUP8 SWAP2 PUSH32 0x8E6804B2E7BFB70FB26B5BBF7A87382C43918CD5FD77219D8846C3C4F302AD0A SWAP2 LOG3 POP POP POP POP POP JUMP JUMPDEST PUSH1 0x0 DUP1 DUP3 PUSH2 0x401E JUMPI PUSH1 0x1 PUSH1 0x1 PUSH1 0xA0 SHL SUB DUP6 AND PUSH1 0x0 SWAP1 DUP2 MSTORE PUSH1 0x7 PUSH1 0x20 MSTORE PUSH1 0x40 SWAP1 KECCAK256 PUSH2 0x4037 JUMP JUMPDEST PUSH1 0x1 PUSH1 0x1 PUSH1 0xA0 SHL SUB DUP6 AND PUSH1 0x0 SWAP1 DUP2 MSTORE PUSH1 0x6 PUSH1 0x20 MSTORE PUSH1 0x40 SWAP1 KECCAK256 JUMPDEST SWAP1 POP PUSH1 0x0 JUMPDEST DUP2 SLOAD DUP2 LT ISZERO PUSH2 0x4096 JUMPI DUP5 DUP1 MLOAD SWAP1 PUSH1 0x20 ADD KECCAK256 DUP3 DUP3 DUP2 SLOAD DUP2 LT PUSH2 0x405F JUMPI PUSH2 0x405F PUSH2 0x4A28 JUMP JUMPDEST SWAP1 PUSH1 0x0 MSTORE PUSH1 0x20 PUSH1 0x0 KECCAK256 ADD PUSH1 0x40 MLOAD PUSH2 0x4076 SWAP2 SWAP1 PUSH2 0x4C8F JUMP JUMPDEST PUSH1 0x40 MLOAD DUP1 SWAP2 SUB SWAP1 KECCAK256 SUB PUSH2 0x408E JUMPI PUSH1 0x1 SWAP3 POP POP POP PUSH2 0x409D JUMP JUMPDEST PUSH1 0x1 ADD PUSH2 0x403C JUMP JUMPDEST POP PUSH1 0x0 SWAP2 POP POP JUMPDEST SWAP4 SWAP3 POP POP POP JUMP JUMPDEST PUSH1 0x40 MLOAD DUP1 PUSH2 0x140 ADD PUSH1 0x40 MSTORE DUP1 PUSH1 0x60 DUP2 MSTORE PUSH1 0x20 ADD PUSH1 0x0 DUP2 MSTORE PUSH1 0x20 ADD PUSH1 0x0 DUP2 MSTORE PUSH1 0x20 ADD PUSH1 0x0 DUP2 MSTORE PUSH1 0x20 ADD PUSH1 0x0 PUSH1 0x1 PUSH1 0x1 PUSH1 0xA0 SHL SUB AND DUP2 MSTORE PUSH1 0x20 ADD PUSH1 0x0 PUSH1 0x1 PUSH1 0x1 PUSH1 0xA0 SHL SUB AND DUP2 MSTORE PUSH1 0x20 ADD PUSH1 0x0 ISZERO ISZERO DUP2 MSTORE PUSH1 0x20 ADD PUSH1 0x0 DUP2 MSTORE PUSH1 0x20 ADD PUSH1 0x0 DUP2 MSTORE PUSH1 0x20 ADD PUSH1 0x0 PUSH1 0x4 DUP2 GT ISZERO PUSH2 0x4116 JUMPI PUSH2 0x4116 PUSH2 0x4296 JUMP JUMPDEST SWAP1 MSTORE SWAP1 JUMP JUMPDEST PUSH1 0x40 MLOAD DUP1 PUSH2 0x180 ADD PUSH1 0x40 MSTORE DUP1 PUSH1 0x0 DUP2 MSTORE PUSH1 0x20 ADD PUSH1 0x0 PUSH1 0x1 PUSH1 0x1 PUSH1 0xA0 SHL SUB AND DUP2 MSTORE PUSH1 0x20 ADD PUSH1 0x60 DUP2 MSTORE PUSH1 0x20 ADD PUSH1 0x0 ISZERO ISZERO DUP2 MSTORE PUSH1 0x20 ADD PUSH1 0x0 ISZERO ISZERO DUP2 MSTORE PUSH1 0x20 ADD PUSH1 0x0 PUSH1 0x1 PUSH1 0x1 PUSH1 0xA0 SHL SUB AND DUP2 MSTORE PUSH1 0x20 ADD PUSH1 0x0 DUP1 NOT AND DUP2 MSTORE PUSH1 0x20 ADD PUSH1 0x0 ISZERO ISZERO DUP2 MSTORE PUSH1 0x20 ADD PUSH1 0x0 DUP2 MSTORE PUSH1 0x20 ADD PUSH1 0x0 DUP2 MSTORE PUSH1 0x20 ADD PUSH1 0x0 DUP2 MSTORE PUSH1 0x20 ADD PUSH1 0x0 DUP2 MSTORE POP SWAP1 JUMP JUMPDEST DUP1 CALLDATALOAD PUSH1 0x1 PUSH1 0x1 PUSH1 0xA0 SHL SUB DUP2 AND DUP2 EQ PUSH2 0x41AE JUMPI PUSH1 0x0 DUP1 REVERT JUMPDEST SWAP2 SWAP1 POP JUMP JUMPDEST PUSH1 0x0 PUSH1 0x20 DUP3 DUP5 SUB SLT ISZERO PUSH2 0x41C5 JUMPI PUSH1 0x0 DUP1 REVERT JUMPDEST PUSH2 0x409D DUP3 PUSH2 0x4197 JUMP JUMPDEST PUSH1 0x0 JUMPDEST DUP4 DUP2 LT ISZERO PUSH2 0x41E9 JUMPI DUP2 DUP2 ADD MLOAD DUP4 DUP3 ADD MSTORE PUSH1 0x20 ADD PUSH2 0x41D1 JUMP JUMPDEST POP POP PUSH1 0x0 SWAP2 ADD MSTORE JUMP JUMPDEST PUSH1 0x0 DUP2 MLOAD DUP1 DUP5 MSTORE PUSH2 0x420A DUP2 PUSH1 0x20 DUP7 ADD PUSH1 0x20 DUP7 ADD PUSH2 0x41CE JUMP JUMPDEST PUSH1 0x1F ADD PUSH1 0x1F NOT AND SWAP3 SWAP1 SWAP3 ADD PUSH1 0x20 ADD SWAP3 SWAP2 POP POP JUMP JUMPDEST PUSH1 0x0 PUSH1 0x20 DUP1 DUP4 ADD DUP2 DUP5 MSTORE DUP1 DUP6 MLOAD DUP1 DUP4 MSTORE PUSH1 0x40 SWAP3 POP PUSH1 0x40 DUP7 ADD SWAP2 POP PUSH1 0x40 DUP2 PUSH1 0x5 SHL DUP8 ADD ADD DUP5 DUP9 ADD PUSH1 0x0 JUMPDEST DUP4 DUP2 LT ISZERO PUSH2 0x4288 JUMPI DUP9 DUP4 SUB PUSH1 0x3F NOT ADD DUP6 MSTORE DUP2 MLOAD DUP1 MLOAD DUP8 DUP6 MSTORE PUSH2 0x426B DUP9 DUP7 ADD DUP3 PUSH2 0x41F2 JUMP JUMPDEST SWAP2 DUP10 ADD MLOAD SWAP5 DUP10 ADD SWAP5 SWAP1 SWAP5 MSTORE SWAP5 DUP8 ADD SWAP5 SWAP3 POP SWAP1 DUP7 ADD SWAP1 PUSH1 0x1 ADD PUSH2 0x4247 JUMP JUMPDEST POP SWAP1 SWAP9 SWAP8 POP POP POP POP POP POP POP POP JUMP JUMPDEST PUSH4 0x4E487B71 PUSH1 0xE0 SHL PUSH1 0x0 MSTORE PUSH1 0x21 PUSH1 0x4 MSTORE PUSH1 0x24 PUSH1 0x0 REVERT JUMPDEST PUSH1 0x5 DUP2 LT PUSH2 0x42BC JUMPI PUSH2 0x42BC PUSH2 0x4296 JUMP JUMPDEST SWAP1 MSTORE JUMP JUMPDEST PUSH1 0x0 PUSH2 0x140 DUP3 MLOAD DUP2 DUP6 MSTORE PUSH2 0x42D6 DUP3 DUP7 ADD DUP3 PUSH2 0x41F2 JUMP JUMPDEST SWAP2 POP POP PUSH1 0x20 DUP4 ADD MLOAD PUSH1 0x20 DUP6 ADD MSTORE PUSH1 0x40 DUP4 ADD MLOAD PUSH1 0x40 DUP6 ADD MSTORE PUSH1 0x60 DUP4 ADD MLOAD PUSH1 0x60 DUP6 ADD MSTORE PUSH1 0x80 DUP4 ADD MLOAD PUSH2 0x4311 PUSH1 0x80 DUP7 ADD DUP3 PUSH1 0x1 PUSH1 0x1 PUSH1 0xA0 SHL SUB AND SWAP1 MSTORE JUMP JUMPDEST POP PUSH1 0xA0 DUP4 ADD MLOAD PUSH2 0x432C PUSH1 0xA0 DUP7 ADD DUP3 PUSH1 0x1 PUSH1 0x1 PUSH1 0xA0 SHL SUB AND SWAP1 MSTORE JUMP JUMPDEST POP PUSH1 0xC0 DUP4 ADD MLOAD PUSH2 0x4340 PUSH1 0xC0 DUP7 ADD DUP3 ISZERO ISZERO SWAP1 MSTORE JUMP JUMPDEST POP PUSH1 0xE0 DUP4 ADD MLOAD PUSH1 0xE0 DUP6 ADD MSTORE PUSH2 0x100 DUP1 DUP5 ADD MLOAD DUP2 DUP7 ADD MSTORE POP PUSH2 0x120 DUP1 DUP5 ADD MLOAD PUSH2 0xD6E DUP3 DUP8 ADD DUP3 PUSH2 0x42AC JUMP JUMPDEST PUSH1 0x0 PUSH1 0x20 DUP1 DUP4 ADD PUSH1 0x20 DUP5 MSTORE DUP1 DUP6 MLOAD DUP1 DUP4 MSTORE PUSH1 0x40 DUP7 ADD SWAP2 POP PUSH1 0x40 DUP2 PUSH1 0x5 SHL DUP8 ADD ADD SWAP3 POP PUSH1 0x20 DUP8 ADD PUSH1 0x0 JUMPDEST DUP3 DUP2 LT ISZERO PUSH2 0x43C1 JUMPI PUSH1 0x3F NOT DUP9 DUP7 SUB ADD DUP5 MSTORE PUSH2 0x43AF DUP6 DUP4 MLOAD PUSH2 0x42C0 JUMP JUMPDEST SWAP5 POP SWAP3 DUP6 ADD SWAP3 SWAP1 DUP6 ADD SWAP1 PUSH1 0x1 ADD PUSH2 0x4393 JUMP JUMPDEST POP SWAP3 SWAP8 SWAP7 POP POP POP POP POP POP POP JUMP JUMPDEST PUSH1 0x0 PUSH1 0x20 DUP1 DUP4 ADD PUSH1 0x20 DUP5 MSTORE DUP1 DUP6 MLOAD DUP1 DUP4 MSTORE PUSH1 0x40 DUP7 ADD SWAP2 POP PUSH1 0x40 DUP2 PUSH1 0x5 SHL DUP8 ADD ADD SWAP3 POP PUSH1 0x20 DUP8 ADD PUSH1 0x0 JUMPDEST DUP3 DUP2 LT ISZERO PUSH2 0x43C1 JUMPI PUSH1 0x3F NOT DUP9 DUP7 SUB ADD DUP5 MSTORE PUSH2 0x4413 DUP6 DUP4 MLOAD PUSH2 0x42C0 JUMP JUMPDEST SWAP5 POP SWAP3 DUP6 ADD SWAP3 SWAP1 DUP6 ADD SWAP1 PUSH1 0x1 ADD PUSH2 0x43F7 JUMP JUMPDEST PUSH1 0x3 DUP2 LT PUSH2 0x42BC JUMPI PUSH2 0x42BC PUSH2 0x4296 JUMP JUMPDEST PUSH1 0x20 DUP2 ADD PUSH2 0x4443 DUP3 DUP5 PUSH2 0x4425 JUMP JUMPDEST SWAP3 SWAP2 POP POP JUMP JUMPDEST PUSH1 0x0 PUSH1 0x20 DUP1 DUP4 ADD DUP2 DUP5 MSTORE DUP1 DUP6 MLOAD DUP1 DUP4 MSTORE PUSH1 0x40 SWAP3 POP PUSH1 0x40 DUP7 ADD SWAP2 POP PUSH1 0x40 DUP2 PUSH1 0x5 SHL DUP8 ADD ADD DUP5 DUP9 ADD PUSH1 0x0 JUMPDEST DUP4 DUP2 LT ISZERO PUSH2 0x4288 JUMPI PUSH1 0x3F NOT DUP10 DUP5 SUB ADD DUP6 MSTORE DUP2 MLOAD DUP1 MLOAD DUP5 MSTORE DUP8 DUP2 ADD MLOAD PUSH1 0x1 PUSH1 0x1 PUSH1 0xA0 SHL SUB AND DUP9 DUP6 ADD MSTORE DUP7 DUP2 ADD MLOAD PUSH2 0x180 DUP9 DUP7 ADD DUP2 SWAP1 MSTORE SWAP1 PUSH2 0x44B4 DUP3 DUP8 ADD DUP3 PUSH2 0x41F2 JUMP JUMPDEST SWAP2 POP POP PUSH1 0x60 DUP1 DUP4 ADD MLOAD PUSH2 0x44CA DUP3 DUP9 ADD DUP3 ISZERO ISZERO SWAP1 MSTORE JUMP JUMPDEST POP POP PUSH1 0x80 DUP3 DUP2 ADD MLOAD ISZERO ISZERO SWAP1 DUP7 ADD MSTORE PUSH1 0xA0 DUP1 DUP4 ADD MLOAD PUSH1 0x1 PUSH1 0x1 PUSH1 0xA0 SHL SUB AND SWAP1 DUP7 ADD MSTORE PUSH1 0xC0 DUP1 DUP4 ADD MLOAD SWAP1 DUP7 ADD MSTORE PUSH1 0xE0 DUP1 DUP4 ADD MLOAD ISZERO ISZERO SWAP1 DUP7 ADD MSTORE PUSH2 0x100 DUP1 DUP4 ADD MLOAD SWAP1 DUP7 ADD MSTORE PUSH2 0x120 DUP1 DUP4 ADD MLOAD SWAP1 DUP7 ADD MSTORE PUSH2 0x140 DUP1 DUP4 ADD MLOAD SWAP1 DUP7 ADD MSTORE PUSH2 0x160 SWAP2 DUP3 ADD MLOAD SWAP2 SWAP1 SWAP5 ADD MSTORE SWAP4 DUP7 ADD SWAP4 SWAP1 DUP7 ADD SWAP1 PUSH1 0x1 ADD PUSH2 0x4472 JUMP JUMPDEST PUSH1 0x0 DUP1 PUSH1 0x40 DUP4 DUP6 SUB SLT ISZERO PUSH2 0x4551 JUMPI PUSH1 0x0 DUP1 REVERT JUMPDEST DUP3 CALLDATALOAD SWAP2 POP PUSH2 0x4561 PUSH1 0x20 DUP5 ADD PUSH2 0x4197 JUMP JUMPDEST SWAP1 POP SWAP3 POP SWAP3 SWAP1 POP JUMP JUMPDEST PUSH4 0x4E487B71 PUSH1 0xE0 SHL PUSH1 0x0 MSTORE PUSH1 0x41 PUSH1 0x4 MSTORE PUSH1 0x24 PUSH1 0x0 REVERT JUMPDEST PUSH1 0x0 DUP3 PUSH1 0x1F DUP4 ADD SLT PUSH2 0x4591 JUMPI PUSH1 0x0 DUP1 REVERT JUMPDEST DUP2 CALLDATALOAD PUSH1 0x1 PUSH1 0x1 PUSH1 0x40 SHL SUB DUP1 DUP3 GT ISZERO PUSH2 0x45AB JUMPI PUSH2 0x45AB PUSH2 0x456A JUMP JUMPDEST PUSH1 0x40 MLOAD PUSH1 0x1F DUP4 ADD PUSH1 0x1F NOT SWAP1 DUP2 AND PUSH1 0x3F ADD AND DUP2 ADD SWAP1 DUP3 DUP3 GT DUP2 DUP4 LT OR ISZERO PUSH2 0x45D3 JUMPI PUSH2 0x45D3 PUSH2 0x456A JUMP JUMPDEST DUP2 PUSH1 0x40 MSTORE DUP4 DUP2 MSTORE DUP7 PUSH1 0x20 DUP6 DUP9 ADD ADD GT ISZERO PUSH2 0x45EC JUMPI PUSH1 0x0 DUP1 REVERT JUMPDEST DUP4 PUSH1 0x20 DUP8 ADD PUSH1 0x20 DUP4 ADD CALLDATACOPY PUSH1 0x0 PUSH1 0x20 DUP6 DUP4 ADD ADD MSTORE DUP1 SWAP5 POP POP POP POP POP SWAP3 SWAP2 POP POP JUMP JUMPDEST PUSH1 0x0 DUP1 PUSH1 0x0 DUP1 PUSH1 0x80 DUP6 DUP8 SUB SLT ISZERO PUSH2 0x4622 JUMPI PUSH1 0x0 DUP1 REVERT JUMPDEST PUSH2 0x462B DUP6 PUSH2 0x4197 JUMP JUMPDEST SWAP4 POP PUSH1 0x20 DUP6 ADD CALLDATALOAD PUSH1 0x1 PUSH1 0x1 PUSH1 0x40 SHL SUB DUP1 DUP3 GT ISZERO PUSH2 0x4647 JUMPI PUSH1 0x0 DUP1 REVERT JUMPDEST PUSH2 0x4653 DUP9 DUP4 DUP10 ADD PUSH2 0x4580 JUMP JUMPDEST SWAP5 POP PUSH1 0x40 DUP8 ADD CALLDATALOAD SWAP2 POP PUSH1 0x3 DUP3 LT PUSH2 0x4669 JUMPI PUSH1 0x0 DUP1 REVERT JUMPDEST SWAP1 SWAP3 POP PUSH1 0x60 DUP7 ADD CALLDATALOAD SWAP1 DUP1 DUP3 GT ISZERO PUSH2 0x467F JUMPI PUSH1 0x0 DUP1 REVERT JUMPDEST POP PUSH2 0x468C DUP8 DUP3 DUP9 ADD PUSH2 0x4580 JUMP JUMPDEST SWAP2 POP POP SWAP3 SWAP6 SWAP2 SWAP5 POP SWAP3 POP JUMP JUMPDEST PUSH1 0x0 DUP1 PUSH1 0x0 DUP1 PUSH1 0x80 DUP6 DUP8 SUB SLT ISZERO PUSH2 0x46AE JUMPI PUSH1 0x0 DUP1 REVERT JUMPDEST DUP5 CALLDATALOAD PUSH1 0x1 PUSH1 0x1 PUSH1 0x40 SHL SUB DUP2 GT ISZERO PUSH2 0x46C4 JUMPI PUSH1 0x0 DUP1 REVERT JUMPDEST PUSH2 0x46D0 DUP8 DUP3 DUP9 ADD PUSH2 0x4580 JUMP JUMPDEST SWAP8 PUSH1 0x20 DUP8 ADD CALLDATALOAD SWAP8 POP PUSH1 0x40 DUP8 ADD CALLDATALOAD SWAP7 PUSH1 0x60 ADD CALLDATALOAD SWAP6 POP SWAP4 POP POP POP POP JUMP JUMPDEST PUSH1 0x0 PUSH1 0x20 DUP3 DUP5 SUB SLT ISZERO PUSH2 0x46FD JUMPI PUSH1 0x0 DUP1 REVERT JUMPDEST POP CALLDATALOAD SWAP2 SWAP1 POP JUMP JUMPDEST PUSH1 0x0 PUSH2 0x140 DUP1 DUP4 MSTORE PUSH2 0x4718 DUP2 DUP5 ADD DUP15 PUSH2 0x41F2 JUMP JUMPDEST SWAP2 POP POP DUP11 PUSH1 0x20 DUP4 ADD MSTORE DUP10 PUSH1 0x40 DUP4 ADD MSTORE DUP9 PUSH1 0x60 DUP4 ADD MSTORE PUSH1 0x1 DUP1 PUSH1 0xA0 SHL SUB DUP1 DUP10 AND PUSH1 0x80 DUP5 ADD MSTORE DUP1 DUP9 AND PUSH1 0xA0 DUP5 ADD MSTORE POP DUP6 ISZERO ISZERO PUSH1 0xC0 DUP4 ADD MSTORE DUP5 PUSH1 0xE0 DUP4 ADD MSTORE DUP4 PUSH2 0x100 DUP4 ADD MSTORE PUSH2 0x4768 PUSH2 0x120 DUP4 ADD DUP5 PUSH2 0x42AC JUMP JUMPDEST SWAP12 SWAP11 POP POP POP POP POP POP POP POP POP POP POP JUMP JUMPDEST PUSH1 0x20 DUP2 MSTORE PUSH1 0x0 PUSH2 0x409D PUSH1 0x20 DUP4 ADD DUP5 PUSH2 0x42C0 JUMP JUMPDEST PUSH1 0x60 DUP2 MSTORE PUSH1 0x0 PUSH2 0x479D PUSH1 0x60 DUP4 ADD DUP7 PUSH2 0x41F2 JUMP JUMPDEST DUP3 DUP2 SUB PUSH1 0x20 DUP5 ADD MSTORE PUSH2 0x47AF DUP2 DUP7 PUSH2 0x41F2 JUMP JUMPDEST SWAP2 POP POP PUSH2 0x47BF PUSH1 0x40 DUP4 ADD DUP5 PUSH2 0x4425 JUMP JUMPDEST SWAP5 SWAP4 POP POP POP POP JUMP JUMPDEST PUSH1 0x20 DUP1 DUP3 MSTORE DUP3 MLOAD PUSH1 0x1 PUSH1 0x1 PUSH1 0xA0 SHL SUB AND DUP3 DUP3 ADD MSTORE DUP3 ADD MLOAD PUSH1 0x80 PUSH1 0x40 DUP4 ADD MSTORE PUSH1 0x0 SWAP1 PUSH2 0x47F5 PUSH1 0xA0 DUP5 ADD DUP3 PUSH2 0x41F2 JUMP JUMPDEST SWAP1 POP PUSH1 0x40 DUP5 ADD MLOAD PUSH2 0x4809 PUSH1 0x60 DUP6 ADD DUP3 PUSH2 0x4425 JUMP JUMPDEST POP PUSH1 0x60 DUP5 ADD MLOAD DUP4 DUP3 SUB PUSH1 0x1F NOT ADD PUSH1 0x80 DUP6 ADD MSTORE PUSH2 0x4825 DUP3 DUP3 PUSH2 0x41F2 JUMP JUMPDEST SWAP6 SWAP5 POP POP POP POP POP JUMP JUMPDEST PUSH1 0x0 DUP1 PUSH1 0x40 DUP4 DUP6 SUB SLT ISZERO PUSH2 0x4841 JUMPI PUSH1 0x0 DUP1 REVERT JUMPDEST PUSH2 0x484A DUP4 PUSH2 0x4197 JUMP JUMPDEST SWAP2 POP PUSH1 0x20 DUP4 ADD CALLDATALOAD PUSH1 0x1 PUSH1 0x1 PUSH1 0x40 SHL SUB DUP2 GT ISZERO PUSH2 0x4865 JUMPI PUSH1 0x0 DUP1 REVERT JUMPDEST PUSH2 0x4871 DUP6 DUP3 DUP7 ADD PUSH2 0x4580 JUMP JUMPDEST SWAP2 POP POP SWAP3 POP SWAP3 SWAP1 POP JUMP JUMPDEST PUSH1 0x0 DUP1 PUSH1 0x40 DUP4 DUP6 SUB SLT ISZERO PUSH2 0x488E JUMPI PUSH1 0x0 DUP1 REVERT JUMPDEST DUP3 CALLDATALOAD PUSH1 0x1 PUSH1 0x1 PUSH1 0x40 SHL SUB DUP2 GT ISZERO PUSH2 0x48A4 JUMPI PUSH1 0x0 DUP1 REVERT JUMPDEST PUSH2 0x48B0 DUP6 DUP3 DUP7 ADD PUSH2 0x4580 JUMP JUMPDEST SWAP6 PUSH1 0x20 SWAP5 SWAP1 SWAP5 ADD CALLDATALOAD SWAP5 POP POP POP POP JUMP JUMPDEST PUSH1 0x20 DUP2 MSTORE PUSH1 0x0 PUSH2 0x409D PUSH1 0x20 DUP4 ADD DUP5 PUSH2 0x41F2 JUMP JUMPDEST PUSH1 0x0 DUP1 PUSH1 0x40 DUP4 DUP6 SUB SLT ISZERO PUSH2 0x48E5 JUMPI PUSH1 0x0 DUP1 REVERT JUMPDEST DUP3 CALLDATALOAD SWAP2 POP PUSH1 0x20 DUP4 ADD CALLDATALOAD PUSH1 0x5 DUP2 LT PUSH2 0x48FB JUMPI PUSH1 0x0 DUP1 REVERT JUMPDEST DUP1 SWAP2 POP POP SWAP3 POP SWAP3 SWAP1 POP JUMP JUMPDEST PUSH1 0x1 PUSH1 0x1 PUSH1 0xA0 SHL SUB DUP6 AND DUP2 MSTORE PUSH1 0x80 PUSH1 0x20 DUP3 ADD DUP2 SWAP1 MSTORE PUSH1 0x0 SWAP1 PUSH2 0x492A SWAP1 DUP4 ADD DUP7 PUSH2 0x41F2 JUMP JUMPDEST PUSH2 0x4937 PUSH1 0x40 DUP5 ADD DUP7 PUSH2 0x4425 JUMP JUMPDEST DUP3 DUP2 SUB PUSH1 0x60 DUP5 ADD MSTORE PUSH2 0x4949 DUP2 DUP6 PUSH2 0x41F2 JUMP JUMPDEST SWAP8 SWAP7 POP POP POP POP POP POP POP JUMP JUMPDEST DUP13 DUP2 MSTORE PUSH1 0x1 PUSH1 0x1 PUSH1 0xA0 SHL SUB DUP13 DUP2 AND PUSH1 0x20 DUP4 ADD MSTORE PUSH2 0x180 PUSH1 0x40 DUP4 ADD DUP2 SWAP1 MSTORE PUSH1 0x0 SWAP2 PUSH2 0x4980 DUP5 DUP4 ADD DUP16 PUSH2 0x41F2 JUMP JUMPDEST SWAP13 ISZERO ISZERO PUSH1 0x60 DUP6 ADD MSTORE SWAP11 ISZERO ISZERO PUSH1 0x80 DUP5 ADD MSTORE POP POP SWAP7 SWAP1 SWAP8 AND PUSH1 0xA0 DUP8 ADD MSTORE PUSH1 0xC0 DUP7 ADD SWAP5 SWAP1 SWAP5 MSTORE SWAP2 ISZERO ISZERO PUSH1 0xE0 DUP6 ADD MSTORE PUSH2 0x100 DUP5 ADD MSTORE PUSH2 0x120 DUP4 ADD MSTORE PUSH2 0x140 DUP3 ADD MSTORE PUSH2 0x160 ADD MSTORE SWAP4 SWAP3 POP POP POP JUMP JUMPDEST PUSH1 0x0 DUP1 PUSH1 0x40 DUP4 DUP6 SUB SLT ISZERO PUSH2 0x49DC JUMPI PUSH1 0x0 DUP1 REVERT JUMPDEST PUSH2 0x49E5 DUP4 PUSH2 0x4197 JUMP JUMPDEST SWAP5 PUSH1 0x20 SWAP4 SWAP1 SWAP4 ADD CALLDATALOAD SWAP4 POP POP POP JUMP JUMPDEST PUSH1 0x0 DUP1 PUSH1 0x0 PUSH1 0x60 DUP5 DUP7 SUB SLT ISZERO PUSH2 0x4A08 JUMPI PUSH1 0x0 DUP1 REVERT JUMPDEST DUP4 CALLDATALOAD SWAP3 POP PUSH2 0x4A18 PUSH1 0x20 DUP6 ADD PUSH2 0x4197 JUMP JUMPDEST SWAP2 POP PUSH1 0x40 DUP5 ADD CALLDATALOAD SWAP1 POP SWAP3 POP SWAP3 POP SWAP3 JUMP JUMPDEST PUSH4 0x4E487B71 PUSH1 0xE0 SHL PUSH1 0x0 MSTORE PUSH1 0x32 PUSH1 0x4 MSTORE PUSH1 0x24 PUSH1 0x0 REVERT JUMPDEST PUSH1 0x1 DUP2 DUP2 SHR SWAP1 DUP3 AND DUP1 PUSH2 0x4A52 JUMPI PUSH1 0x7F DUP3 AND SWAP2 POP JUMPDEST PUSH1 0x20 DUP3 LT DUP2 SUB PUSH2 0x4A72 JUMPI PUSH4 0x4E487B71 PUSH1 0xE0 SHL PUSH1 0x0 MSTORE PUSH1 0x22 PUSH1 0x4 MSTORE PUSH1 0x24 PUSH1 0x0 REVERT JUMPDEST POP SWAP2 SWAP1 POP JUMP JUMPDEST PUSH1 0x0 DUP3 MLOAD PUSH2 0x4A8A DUP2 DUP5 PUSH1 0x20 DUP8 ADD PUSH2 0x41CE JUMP JUMPDEST SWAP2 SWAP1 SWAP2 ADD SWAP3 SWAP2 POP POP JUMP JUMPDEST PUSH4 0x4E487B71 PUSH1 0xE0 SHL PUSH1 0x0 MSTORE PUSH1 0x11 PUSH1 0x4 MSTORE PUSH1 0x24 PUSH1 0x0 REVERT JUMPDEST PUSH1 0x0 PUSH1 0x1 DUP3 ADD PUSH2 0x4ABC JUMPI PUSH2 0x4ABC PUSH2 0x4A94 JUMP JUMPDEST POP PUSH1 0x1 ADD SWAP1 JUMP JUMPDEST PUSH1 0x20 DUP1 DUP3 MSTORE PUSH1 0x29 SWAP1 DUP3 ADD MSTORE PUSH32 0x4F6E6C79206469737472696275746F72732063616E20706572666F726D207468 PUSH1 0x40 DUP3 ADD MSTORE PUSH9 0x34B99030B1BA34B7B7 PUSH1 0xB9 SHL PUSH1 0x60 DUP3 ADD MSTORE PUSH1 0x80 ADD SWAP1 JUMP JUMPDEST PUSH1 0x1F DUP3 GT ISZERO PUSH2 0x4B58 JUMPI PUSH1 0x0 DUP2 PUSH1 0x0 MSTORE PUSH1 0x20 PUSH1 0x0 KECCAK256 PUSH1 0x1F DUP6 ADD PUSH1 0x5 SHR DUP2 ADD PUSH1 0x20 DUP7 LT ISZERO PUSH2 0x4B35 JUMPI POP DUP1 JUMPDEST PUSH1 0x1F DUP6 ADD PUSH1 0x5 SHR DUP3 ADD SWAP2 POP JUMPDEST DUP2 DUP2 LT ISZERO PUSH2 0x4B54 JUMPI DUP3 DUP2 SSTORE PUSH1 0x1 ADD PUSH2 0x4B41 JUMP JUMPDEST POP POP POP JUMPDEST POP POP POP JUMP JUMPDEST DUP2 MLOAD PUSH1 0x1 PUSH1 0x1 PUSH1 0x40 SHL SUB DUP2 GT ISZERO PUSH2 0x4B76 JUMPI PUSH2 0x4B76 PUSH2 0x456A JUMP JUMPDEST PUSH2 0x4B8A DUP2 PUSH2 0x4B84 DUP5 SLOAD PUSH2 0x4A3E JUMP JUMPDEST DUP5 PUSH2 0x4B0C JUMP JUMPDEST PUSH1 0x20 DUP1 PUSH1 0x1F DUP4 GT PUSH1 0x1 DUP2 EQ PUSH2 0x4BBF JUMPI PUSH1 0x0 DUP5 ISZERO PUSH2 0x4BA7 JUMPI POP DUP6 DUP4 ADD MLOAD JUMPDEST PUSH1 0x0 NOT PUSH1 0x3 DUP7 SWAP1 SHL SHR NOT AND PUSH1 0x1 DUP6 SWAP1 SHL OR DUP6 SSTORE PUSH2 0x4B54 JUMP JUMPDEST PUSH1 0x0 DUP6 DUP2 MSTORE PUSH1 0x20 DUP2 KECCAK256 PUSH1 0x1F NOT DUP7 AND SWAP2 JUMPDEST DUP3 DUP2 LT ISZERO PUSH2 0x4BEE JUMPI DUP9 DUP7 ADD MLOAD DUP3 SSTORE SWAP5 DUP5 ADD SWAP5 PUSH1 0x1 SWAP1 SWAP2 ADD SWAP1 DUP5 ADD PUSH2 0x4BCF JUMP JUMPDEST POP DUP6 DUP3 LT ISZERO PUSH2 0x4C0C JUMPI DUP8 DUP6 ADD MLOAD PUSH1 0x0 NOT PUSH1 0x3 DUP9 SWAP1 SHL PUSH1 0xF8 AND SHR NOT AND DUP2 SSTORE JUMPDEST POP POP POP POP POP PUSH1 0x1 SWAP1 DUP2 SHL ADD SWAP1 SSTORE POP JUMP JUMPDEST PUSH1 0x0 DUP2 SLOAD PUSH2 0x4C29 DUP2 PUSH2 0x4A3E JUMP JUMPDEST PUSH1 0x1 DUP3 DUP2 AND DUP1 ISZERO PUSH2 0x4C41 JUMPI PUSH1 0x1 DUP2 EQ PUSH2 0x4C56 JUMPI PUSH2 0x4C85 JUMP JUMPDEST PUSH1 0xFF NOT DUP5 AND DUP8 MSTORE DUP3 ISZERO ISZERO DUP4 MUL DUP8 ADD SWAP5 POP PUSH2 0x4C85 JUMP JUMPDEST DUP6 PUSH1 0x0 MSTORE PUSH1 0x20 DUP1 PUSH1 0x0 KECCAK256 PUSH1 0x0 JUMPDEST DUP6 DUP2 LT ISZERO PUSH2 0x4C7C JUMPI DUP2 SLOAD DUP11 DUP3 ADD MSTORE SWAP1 DUP5 ADD SWAP1 DUP3 ADD PUSH2 0x4C63 JUMP JUMPDEST POP POP POP DUP3 DUP8 ADD SWAP5 POP JUMPDEST POP POP POP POP SWAP3 SWAP2 POP POP JUMP JUMPDEST PUSH1 0x0 PUSH2 0x409D DUP3 DUP5 PUSH2 0x4C1C JUMP JUMPDEST DUP1 DUP3 ADD DUP1 DUP3 GT ISZERO PUSH2 0x4443 JUMPI PUSH2 0x4443 PUSH2 0x4A94 JUMP JUMPDEST DUP2 DUP2 SUB PUSH2 0x4CB9 JUMPI POP POP JUMP JUMPDEST PUSH2 0x4CC3 DUP3 SLOAD PUSH2 0x4A3E JUMP JUMPDEST PUSH1 0x1 PUSH1 0x1 PUSH1 0x40 SHL SUB DUP2 GT ISZERO PUSH2 0x4CDA JUMPI PUSH2 0x4CDA PUSH2 0x456A JUMP JUMPDEST PUSH2 0x4CE8 DUP2 PUSH2 0x4B84 DUP5 SLOAD PUSH2 0x4A3E JUMP JUMPDEST PUSH1 0x0 PUSH1 0x1F DUP3 GT PUSH1 0x1 DUP2 EQ PUSH2 0x4D1C JUMPI PUSH1 0x0 DUP4 ISZERO PUSH2 0x4D04 JUMPI POP DUP5 DUP3 ADD SLOAD JUMPDEST PUSH1 0x0 NOT PUSH1 0x3 DUP6 SWAP1 SHL SHR NOT AND PUSH1 0x1 DUP5 SWAP1 SHL OR DUP5 SSTORE PUSH2 0x2C52 JUMP JUMPDEST PUSH1 0x0 DUP6 DUP2 MSTORE PUSH1 0x20 SWAP1 KECCAK256 PUSH1 0x1F NOT DUP5 AND SWAP1 PUSH1 0x0 DUP7 DUP2 MSTORE PUSH1 0x20 SWAP1 KECCAK256 DUP5 JUMPDEST DUP4 DUP2 LT ISZERO PUSH2 0x4D56 JUMPI DUP3 DUP7 ADD SLOAD DUP3 SSTORE PUSH1 0x1 SWAP6 DUP7 ADD SWAP6 SWAP1 SWAP2 ADD SWAP1 PUSH1 0x20 ADD PUSH2 0x4D36 JUMP JUMPDEST POP DUP6 DUP4 LT ISZERO PUSH2 0x4C0C JUMPI SWAP4 ADD SLOAD PUSH1 0x0 NOT PUSH1 0xF8 PUSH1 0x3 DUP8 SWAP1 SHL AND SHR NOT AND SWAP1 SWAP3 SSTORE POP POP PUSH1 0x1 SWAP1 DUP2 SHL ADD SWAP1 SSTORE POP JUMP JUMPDEST PUSH1 0x60 DUP2 MSTORE PUSH1 0x0 PUSH2 0x4D93 PUSH1 0x60 DUP4 ADD DUP7 PUSH2 0x41F2 JUMP JUMPDEST PUSH2 0x4DA0 PUSH1 0x20 DUP5 ADD DUP7 PUSH2 0x4425 JUMP JUMPDEST DUP3 DUP2 SUB PUSH1 0x40 DUP5 ADD MSTORE PUSH2 0x4DB2 DUP2 DUP6 PUSH2 0x41F2 JUMP JUMPDEST SWAP7 SWAP6 POP POP POP POP POP POP JUMP JUMPDEST PUSH1 0x20 DUP1 DUP3 MSTORE PUSH1 0x2A SWAP1 DUP3 ADD MSTORE PUSH32 0x4F6E6C79206D616E756661637475726572732063616E20706572666F726D2074 PUSH1 0x40 DUP3 ADD MSTORE PUSH10 0x3434B99030B1BA34B7B7 PUSH1 0xB1 SHL PUSH1 0x60 DUP3 ADD MSTORE PUSH1 0x80 ADD SWAP1 JUMP JUMPDEST PUSH1 0xA0 DUP2 MSTORE PUSH1 0x0 PUSH2 0x4E19 PUSH1 0xA0 DUP4 ADD DUP9 PUSH2 0x41F2 JUMP JUMPDEST SWAP1 POP DUP6 PUSH1 0x20 DUP4 ADD MSTORE DUP5 PUSH1 0x40 DUP4 ADD MSTORE DUP4 PUSH1 0x60 DUP4 ADD MSTORE DUP3 PUSH1 0x80 DUP4 ADD MSTORE SWAP7 SWAP6 POP POP POP POP POP POP JUMP JUMPDEST PUSH1 0x20 DUP1 DUP3 MSTORE PUSH1 0x26 SWAP1 DUP3 ADD MSTORE PUSH32 0x4F72646572206E6F7420666F756E6420666F722074686520676976656E205246 PUSH1 0x40 DUP3 ADD MSTORE PUSH6 0x125108155251 PUSH1 0xD2 SHL PUSH1 0x60 DUP3 ADD MSTORE PUSH1 0x80 ADD SWAP1 JUMP JUMPDEST PUSH1 0x20 DUP1 DUP3 MSTORE PUSH1 0x26 SWAP1 DUP3 ADD MSTORE PUSH32 0x4F6E6C792070726F7669646572732063616E20706572666F726D207468697320 PUSH1 0x40 DUP3 ADD MSTORE PUSH6 0x30B1BA34B7B7 PUSH1 0xD1 SHL PUSH1 0x60 DUP3 ADD MSTORE PUSH1 0x80 ADD SWAP1 JUMP INVALID LOG2 PUSH5 0x6970667358 0x22 SLT KECCAK256 JUMP AND 0xEA CALLDATACOPY 0xB3 CODESIZE PUSH23 0xECB5A6CCCF1E794C5CF0A1DEBB6228E49FAD6DD4806C5F SIGNEXTEND 0xDE PUSH5 0x736F6C6343 STOP ADDMOD XOR STOP CALLER "},"methodIdentifiers":{"approveQuality(uint256)":"44dfc5f8","assignBatchToProvider(uint256,address)":"3019f58e","assignToDistributor(uint256,address,uint256)":"fa4b47a3","batches(uint256)":"b32c4d8d","createBatch(string,bytes32,uint256,uint256)":"43deec2e","createDistributorOrder(string,uint256)":"f212d6d9","createProviderOrder(string,uint256)":"6c6eb5cd","disapproveQuality(uint256)":"b616e184","distributorMedNames(address,uint256)":"e3c6e07e","distributorOrders(uint256)":"4e4b18fb","distributorStocks(address,string)":"f1bd14ad","getCompanyNameFromAddress(address)":"83e9f8bf","getCreatedBatches(address)":"2d703d73","getDistributorOrder(uint256)":"d56f40dd","getDistributorOrderByRFID(bytes32)":"552063f3","getDistributorOrders(address)":"ced27743","getDistributorStock(address)":"4a746b7b","getFulfilledBatches(address)":"642c9719","getFulfilledDistributorOrders(address)":"c0a5194e","getFulfilledProviderOrders(address)":"e0444712","getPendingDistributorOrders()":"1d8abc8f","getPendingProviderOrders()":"87f95fa8","getProviderOrderByRFID(bytes32)":"88a1326c","getProviderOrderDetails(uint256)":"dd185a09","getProviderOrderIdByRFID(bytes32)":"f98dfc26","getProviderOrders(address)":"2615457b","getProviderStock(address)":"1c5a3a53","getUserByAddress(address)":"69c212f6","getUserInfo(address)":"6386c1c7","getUserRole(address)":"27820851","isUserRegistered(address)":"163f7522","nextBatchId()":"8462a7f8","nextDistributorOrderId()":"8429bcf7","nextProviderOrderId()":"d3862238","providerMedNames(address,uint256)":"d0aeb537","providerOrders(uint256)":"95c53d49","providerStocks(address,string)":"6ae25d98","recallBatch(uint256)":"a6e162b4","registerUser(address,string,uint8,string)":"3d28a301","rfidToDistributorOrderId(bytes32)":"491a58f7","rfidToProviderOrderId(bytes32)":"9795c0a3","updateDistributorOrderStatusByRFID(bytes32,uint8)":"97bba814","updateProviderOrderStatusByRFID(bytes32,uint8)":"be213fb6","users(address)":"a87430ba"}}}}}